:020000040000FA
:0600000002011D02201B9D
:03002B00021C5A5A
:0300530002208EFA
:03006B00021C284C
:10008300021ECFE5C754F84401F5C77901220000E9
:100093000080FB120086B90003020107E47921788E
:1000A30008B800028004F709D8FCE479297802B87B
:1000B30000028004F709D8FCE490028178EF790705
:1000C3008002F0A3D8FCD9FA781A90014D7A01BACC
:1000D30000028007E493A3F608DAF990096FAA8275
:1000E300AB8390014E78BB79048015E493A3AC8273
:1000F300AD838A828B83F0A3AA82AB838C828D83A8
:10010300D8E9D9E77582037583AF740312012F759C
:100113008291758300740012012F75D00075813FA1
:10012300751881751902759F00020096C09FF59F8F
:10013300E473D09F22D083D082C09FE493C0E07445
:100143000193C0E0740293F59F2201FFFF0A41630C
:1001530063656C20456E61626C65000002140041AA
:100163006363656C2052616E676500001010104177
:100173006363656C20582D436F6F7264696E61749D
:10018300650000416363656C20592D436F6F726492
:10019300696E6174650000416363656C205A2D4389
:1001A3006F6F7264696E6174650000024F820100B3
:1001B3000021820271820100007109027B82030027
:1001C30000A002024582010000720902718201004F
:1001D3000080090279820100008109024582010041
:1001E30000830902718201000090090277820000F6
:1001F30000A102024382030000A40202458201001F
:1002030000930902718201000091090275820000C6
:1002130000A202024382030000AA020245820100F7
:1002230000A7090271820100009209027382000093
:1002330000A302024382030000B0020245820100D0
:1002430000BB0912640401024F82010000188202FC
:100253007182010000670A026D82010000680A02D0
:100263004382030000B802027F82010000690A0290
:100273000202020202020202010D0000001001024A
:100283004F820100001B82027182010000930A0267
:100293006782010000BE02027182010000940A021B
:1002A30065820100001581027182010000950A0236
:1002B3006382010000F980027182010000960A0244
:1002C3006182010000A580027182010000970A0289
:1002D3005F820100008180027182010000980A029E
:1002E3005D82010000B780027182010000990A0259
:1002F3005B8201000093800271820100009A0A026E
:10030300598201000007810271820100009B0A02E9
:1003130057820100009C0A01E803053F100B094BBB
:100323006579666F6264656D6F02010507020318E4
:1003330002180418544920424C45204B6579666FD6
:100343006200000000000000003E08000044084A6C
:1003530008FF0001307503020106000000000000E1
:10036300000000000000000000000000000000008A
:10037300000000000000FFFF0600800CE8030A04F1
:1003830012024F820100002D82027182010000A23D
:100393000B023B820300008804024F8201000030FD
:1003A30082027182010000A30B023B8202000089DA
:1003B30004024F820100002A82027182010000A41C
:1003C3000B0233820100008A040243820300008B84
:1003D30004104B65792050726573732053746174F4
:1003E3006500024F82010000278202718201000032
:1003F300F50B0239820000009104024382030000DE
:100403009204024582010000F60BFF0000B40000D5
:1004130028002800283075A000A000A000A000003C
:10042300080008E001F00010001000100010001098
:1004330000100050005000500010001000D00700C2
:1004430000000000000F003075070010000100815C
:10045300FF0000FF4A0B680B500BFF02020A0A025F
:100463005000A0000000E803024F82010000248234
:100473000271820100007F0C024182010000C90465
:10048300027182010000800C023F82010000DF0440
:10049300027182010000810C023D82030000E1042D
:1004A300027182010000820C023582030000E20423
:1004B300027182010000830C025582010000840C4A
:1004C300FF0100FF20024F820100001E82027182A1
:1004D300010000E80C026B8200000000000243826E
:1004E3000300002F054411441144114411441144E5
:1004F300114411441144114411441144114411D2C3
:1005030013EA13CC13120138EBDA02120138F5DACD
:100513000212013836DB021201387FDB0212013886
:10052300B9DB021201380FDC0212013830DC02128F
:10053300013839DC021201388DDC02120138B6DCD5
:1005430002120138C0DC021201382EDD021201381A
:10055300BEDD0212013819DE0212013847DE021233
:100563000138CFDE021201380EDF0212013843DFF9
:100573000212013855DF0212013874DF021201380A
:100583007DDF0212013844E00212013801FF01123B
:100593000138A4AE03120138709D03120138A69DE1
:1005A30003120138DA9D03120138279F0312013821
:1005B3005DFF0212013873FF021201387DFF021240
:1005C3000138C7FF021201380DEA0212013820EA8E
:1005D30002120138E1EA0212013820EB021201385B
:1005E3003DEB0212013876EB02120138C3EB021223
:1005F3000138F5EB021201382CEC0212013835EE0A
:1006030002120138A1EE021201387AA9031201384D
:100613009DA903120138CCA903120138E4A90312DE
:10062300013826AA03120138D183031201382C841E
:100633000312013849840312013858850312013823
:10064300A385031201386786031201384D8703120D
:1006530001383E94031201387594031201388C94C7
:1006630003120138389503120138D9950312013862
:10067300549603120138767E00120138FA7E001276
:100683000138127F00120138327F00120138C97F0E
:1006930000120138D77F0012013825AC031201384C
:1006A30046AC03120138D7AC031201385A91031236
:1006B30001387F9103120138A991031201385BAF0E
:1006C30003120138339601120138FD9701120138E4
:1006D300A89901120138539A01120138D39A0112D1
:1006E30001385C9B01120138859B011201383E9F42
:1006F30001120138BE9F01120138C9A0011201384D
:1007030003A10112013844A1011201388BA2011285
:100713000138E1A2011201382AA30112013881A391
:1007230001120138CFA301120138FDA301120138D0
:1007330015A401120138FAA40112013830A50112DF
:100743000138DFA501120138F6A50112013828A6E8
:1007530001120138C5A70112013859A80112013845
:1007630097A801120138E2AC03120138F3AC03126B
:10077300013893AD03120138F07F00120138FCAF4A
:10078300031201386FAA031201387FAA031201383A
:1007930094AA0312013848AB0312013878A8031254
:1007A3000138FDA80312013861A90312013834A6E8
:1007B3000312013856A603120138B7A603120138F3
:1007C300C9A60312013819A70312013857A7031248
:1007D30001385AA7031201384FF70212013863F7A1
:1007E30002120138DDF702120138C1F80212013892
:1007F30098FA02120138FDFA0212013854FB021270
:100803000138F87F00120138479B03120138C69C58
:1008130003120138279D031201386D9D031201381D
:1008230072BE0212013863C002120138D7C102122C
:100833000138ACC20212013832C30212013855C367
:100843000212013891C402120138D8C402120138CD
:100853001AC5021201389CA403120138EEA4031234
:10086300013861A503120138CEA50312013800999E
:10087300031201382A9903120138F9990312013836
:10088300D59A03120138A9B60212013875B70212BC
:100893000138B6B70212013814B80212013868B829
:1008A30002120138C6B8021201385CB902120138CB
:1008B30064BA02120138EEBB021201388CBC021278
:1008C3000138F3BC021201380ABD0212013829BEF5
:1008D30002120138E1E3011201385DE70112013828
:1008E300E9E80112013839E90112013853E901122B
:1008F3000138D3E901120138D9EB01120138CAEFEB
:1009030001120138378B03120138B58B03120138FA
:10091300D28B031201385A8C03120138858C0312CF
:100923000138178D03120138278E03120138619F96
:1009330003120138A69F03120138FA9F03120138EC
:100943007FA003120138F7A003120138E9A20312B2
:10095300013800A3031201382FA30312013868A33F
:100963000312013890A303120138BEA30312013806
:10097300D5A303120138ECA30312013802A4031216
:10098300013829A4031201383CA40312013852A4EC
:100993000312013865A4031201388AA40312013833
:1009A300FDA302120138FCA40212013831A5021280
:1009B300013852A50212013862A50212013883A53B
:1009C300021201388FA6021201385CA70212013805
:1009D300CFA70212013855A80212013898A80212B3
:1009E3000138CFA80212013855A90212013827AAEB
:1009F3000212013885AA021201389DAA0212013897
:100A030017AB021201381AAB021201381DAB0212E6
:100A13000138C4AB02120138DCAB021201380CAC52
:100A2300021201382CAC021201381AAD021201383D
:100A3300D0AD0212013865E5021201388DE50212CC
:100A43000138BBE502120138F2E5021201385AE619
:100A530002120138A3E602120138EEE6021201384F
:100A63002CE70212013869E70212013897E70212F4
:100A730001383EE80212013848E80212013855E80D
:100A83000212013888E8021201384AE902120138D9
:100A930056E9021201386EE90212013878E90212AE
:100AA30001384EAB031201385CAB0312013874AB4F
:100AB300031201388CAB03120138EBB80112013871
:100AC30089B90112013801BA0112013816BB0112AA
:100AD300013850BB01120138F9BB01120138CEBCF9
:100AE3000112013832BE0112013889BE01120138E8
:100AF30010BF01120138F7BF0112013844C00112BF
:100B03000138D2C001120138F6C001120138CBC23C
:100B1300011201380CC3011201382EC3011201382E
:100B2300AFC30112013899C4011201385FC5011224
:100B3300013817CD02120138E9CD0212013892CEE5
:100B430002120138D5CE0212013862CF02120138E7
:100B5300EECF02120138CFD002120138FED00212BA
:100B63000138FAD10212013842D20212013844D3B9
:100B73000212013888D302120138AED302120138AF
:100B83009EAD031201380080031201381680031250
:100B930001383C80031201386481031201386E81ED
:100BA30003120138C78203120138C78303120138C5
:100BB30072E0021201387FE102120138B3E102123E
:100BC3000138F5E102120138AFE302120138196F5F
:100BD300001201387C6F00120138C1700012013815
:100BE300D17000120138F470001201383F71001205
:100BF3000138E47100120138DA7200120138A4736B
:100C0300001201381C75001201385E75001201389C
:100C1300FC75001201384976001201386F76001214
:100C230001385D7800120138627800120138437A86
:100C330000120138977A00120138F97A001201384C
:100C4300217B00120138C57B00120138877C00121A
:100C53000138B87C00120138BB7C00120138037DD7
:100C630000120138457D00120138AC7D00120138B5
:100C7300AA9603120138BD9603120138D6960312C1
:100C83000138219703120138FC97031201388B981E
:100C930003120138D698031201380C2700120138C9
:100CA3001827001201385127001201389627001225
:100CB30001384D2800120138D32800120138382991
:100CC300001201386429001201389D2900120138ED
:100CD300B12B001201388D2D00120138782F00122C
:100CE3000138AF30001201380F3300120138FB33E3
:100CF300001201384135001201384E360012013816
:100D03006B3600120138A33600120138BD360012CB
:100D13000138253700120138BF3B00120138603C0F
:100D230000120138B13C00120138D83C00120138DE
:100D3300263D00120138443D00120138983D00124F
:100D43000138713E00120138F83F0012013880402B
:100D53000012013823D4021201382DD402120138B3
:100D6300F4D40212013843D50212013867D50212B6
:100D73000138C2D502120138FAD50212013822D63F
:100D83000212013852D7021201387DD702120138FC
:100D9300A8D702120138F7D7021201380DD8021270
:100DA300013853D8021201388DD802120138CFD836
:100DB3000212013809D90212013888D90212013806
:100DC300D1D9021201382BDA0212013874DA021275
:100DD30001389EDA02120138C3DA0212013868FBC5
:100DE3000212013832FC021201381EFD02120138D0
:100DF30094FD02120138D6FD0212013803FF0212DC
:100E03000138008002120138298002120138428021
:100E130002120138878102120138658202120138F9
:100E230084820212013811830212013854830212A0
:100E33000138A18402120138408502120138BF87AC
:100E4300021201385688021201382A890212013827
:100E53000C8A02120138788B021201380B8C0212B1
:100E6300013863A703120138CCA70312013820A865
:100E73000312013847A803120138AEEE02120138FB
:100E83001BEF0212013866EF021201385BF0021207
:100E9300013857F10212013841F2021201383BAE18
:100EA300021201387DAE0212013857AF0212013827
:100EB30030B0021201382BB1021201380AB2021209
:100EC300013876B2021201383DB302120138A8B3D9
:100ED300021201380FB4021201383AB40212013877
:100EE300ABB4021201383EB502120138A7B50212A3
:100EF3000138BCB50212013804B6021201381DB61E
:100F03000212013882B60212013885B60212013884
:100F1300608E03120138888E03120138C68E0312C5
:100F23000138848F03120138EF8F031201380B90BD
:100F3300031201383390031201386390031201380E
:100F4300729003120138EC900312013812910312CC
:100F5300013890A9011201385BAB011201381DADB4
:100F630001120138ECAD0112013837AE011201381C
:100F730082AE01120138A0AE01120138E2AE0112B5
:100F83000138FDAE0112013849AF0112013883AFB8
:100F930001120138A6AF01120138F3AF0112013873
:100FA30066B00112013878B20112013822B401127D
:100FB300013872B401120138B7B5011201380DB608
:100FC300011201387BB601120138C6B6011201388D
:100FD300F0B601120138B6B701120138E1B70112B8
:100FE3000138828C02120138AD8C021201388093D1
:100FF30002120138A495021201385F9702120138D8
:10100300BC9802120138E7400012013878410012FF
:101013000138A54100120138EB41001201382A437F
:10102300001201384E4300120138E5440012013822
:101033003A4500120138AF4500120138DE4600126E
:1010430001383948001201383B4900120138984AE7
:1010530000120138B14A001201380E4B0012013858
:10106300F04B00120138234C00120138934C00124C
:1010730001380D4D001201385C4D00120138284E25
:10108300001201382D4F001201380C5000120138A4
:10109300975000120138055100120138795100129E
:1010A3000138A25100120138615200120138DB539A
:1010B30000120138F8530012013817540012013896
:1010C300A85400120138CD5400120138F55400120F
:1010D3000138705500120138CA55001201381E57E5
:1010E30000120138DB5700120138AE5800120138E4
:1010F30012D60112013862D6011201386ED60112DE
:1011030001384BD7011201387BD701120138B3D70D
:101113000112013832D8011201386AD8011201389C
:10112300BCD801120138F9D8011201381EDB0112B3
:1011330001384ADD0112013845DF0112013820E18F
:1011430001120138F37F0012013882820112013843
:10115300CC8201120138AB88011201382C8A0112AA
:1011630001388B9001120138869101120138C39125
:1011730001120138E6910112013828920112013857
:101183003192011201383B92011201382793011267
:1011930001381B9401120138DC58001201385463E2
:1011A300001201385A63001201385E6A00120138D6
:1011B3009A870312013830880312013846880312D4
:1011C3000138C08803120138168903120138548983
:1011D30003120138B189031201382E8A0312013830
:1011E300378A03120138438A03120138568A0312DD
:1011F3000138928A03120138A88A03120138078B37
:101203000312013803F30212013810F302120138FA
:101213002AF30212013869F302120138A7F302120A
:1012230001380CF40212013821F4021201382CF4B3
:101233000212013839F40212013850F40212013853
:101243005EF40212013869F40212013875F40212D5
:10125300013884F4021201388FF402120138B2F417
:10126300021201385BF5021201386BF502120138E4
:1012730085F502120138A2F502120138BEF50212F9
:101283000138E3F502120138EDF50212013801F6D7
:101293000212013820F60212013881F602120138D7
:1012A30087F6021201388DF60212013893F6021204
:1012B30001389FF602120138D2F60212013877F193
:1012C30001120138F9F101120138A2F201120138B9
:1012D300EAF301120138F8F501120138DEF60112C2
:1012E300013813F70112013835F701120138DEF71F
:1012F30001120138AEF901120138D7F90112013890
:101303004FFA0112013881FA011201388EFA0112E3
:101313000138D9FA01120138FDFA011201384EFDE4
:101323000112013858FE01120138B4FE01120138CE
:1013330094C701120138A5C80112013889C90112E5
:10134300013893C901120138B5C901120138C1C965
:101353000112013865CB0112013892CB0112013819
:10136300A8CC01120138FDCC011201384CCE011278
:10137300013821CF011201387DCF01120138E8CFA6
:10138300011201381DD00112013860D00112013859
:101393002AD30112013842D301120138D3D30112E7
:1013A3000138E1D3011201382ED4011201383CD4A3
:1013B30001120138A8D40112013823D501120138D2
:1013C3007AD501120138DF9802120138019902120D
:1013D3000138129B02120138D19D02120138FB9E83
:1013E30002120138B99F02120138A5A00212013876
:1013F30030A10312013855A103120138CBA1031206
:101403000138FAC50212013803C6021201380CC6AC
:1014130002120138E4C60212013895C802120138DB
:10142300C5C802120138F0C80212013820C90212DD
:1014330001384BC9021201387FC902120138ABC906
:1014430002120138EEC90212013819CA0212013818
:1014530060CA02120138B5CA02120138F7CA021271
:10146300013851CB021201387CCB02120138CBCBAD
:1014730002120138FBCB0212013826CC02120138CA
:1014830054CC0212013877CC0212013827AE031272
:10149300013853AE0312013880AE031201388AAE0D
:1014A300031201389AAE03120138B1AF03120138A7
:1014B300DEAF03E066701008A3E066700A08A3E0DD
:1014C30066700408A3E06622C3E7960809E7960856
:1014D30009E7960809E79622C3E09608A3E0960871
:1014E300A3E09608A3E09622C008C3E096F5080897
:1014F300A3E096420808A3E096420808A3E09645B5
:10150300087001D3D00822080808EAC0E0EBC0E065
:1015130086F0E7A4FA180986F0E7A42AFA180986E0
:10152300F0E7A42AFA180986F0E7A42AFA1986F044
:10153300E7A4FBE5F02AFA190886F0E7A42BFBE5FC
:10154300F03AFA190886F0E7A42BFBE5F03AFA180B
:10155300180986F0E7A4C5F02BFBE43AFA1908E76B
:10156300C5F0C6A426F6E5F03BFBE43AFA1886F08C
:10157300E7A4F6E5F00826F6E43B08F6E43A08F6B5
:10158300D0E0FBD0E0FA22E4CFC0E0E4CEC0E0E458
:10159300CDC0E0E4CCC0E075F020C3E633F608E646
:1015A30033F608E633F608E633F6181818EC33FC7E
:1015B300ED33FDEE33FEEF33FFC3EC9709ED9709EF
:1015C300EE9709EF97191919400FFFEC97FC09EDF6
:1015D30097FD09EE97FE191906D5F0BEECF709ED54
:1015E300F709EEF709EFF7191919D0E0FCD0E0FD80
:1015F300D0E0FED0E0FF2212166218181812158AE6
:101603001216511919192212165119191908080815
:10161300E618181820E7E012158A1216621818182F
:1016230022090909E719191920E7DC080808E6184F
:10163300181820E70302158A1216621818181215D3
:101643008A12166218181812165119191922E4C3AE
:1016530097F709E497F709E497F709E497F722E482
:10166300C396F608E496F608E496F608E496F6229E
:101673006017080808C6A2E713C618C613C618C61B
:1016830013C618C613C6D5E0E9226016080808C6B3
:10169300C313C618C613C618C613C618C613C6D5B1
:1016A300E0EA227009080808226016181818C6C351
:1016B30033C608C633C608C633C608C633C6D5E024
:1016C300EA22E627F60809E637F60809E637F608B8
:1016D30009E637F622E026F608A3E036F608A3E08B
:1016E30036F608A3E036F622E026F008A3E036F04B
:1016F30008A3E036F008A3E036F022C3E697F60825
:1017030009E697F60809E697F60809E697F622C36D
:10171300E096F008A3E096F008A3E096F008A3E0B3
:1017230096F022E056F608A3E056F608A3E056F634
:1017330008A3E056F622E056F008A3E056F008A30B
:10174300E056F008A3E056F022E0F608A3E0F6081E
:10175300A3E0F608A3E0F622E6F008A3E6F008A368
:10176300E6F008A3E6F022E0FAA3E0FBA3E0FCA383
:10177300E0FD22EAF0A3EBF0A3ECF0A3EDF022CA24
:10178300C0E0E6F0A308DAFAD0E0FA22CAC0E0E04B
:10179300A3C582CCC582C583CDC583F0A3C582CC46
:1017A300C582C583CDC583DAE6D0E0CA22C3E498F7
:1017B300F8E499F91217F18026C3E49AFAE49BFB43
:1017C300E920E7E91217F1E498F8E499F922C3E470
:1017D30098F8E499F91217F1E498F8E499F9C3E455
:1017E3009AFAE49BFB22EB20E7CFE920E7E0B9007C
:1017F30010BB0008E88AF084F8AAF022E4FBC8FAD8
:1018030022EB70227B10C833C8C933C9335007C3D6
:101813009AC3DBF280069A50012ADBEAC833F4C884
:10182300C933F4C9FA2275F008E4C833C8C933C907
:1018330033C99AC99B5004C92AC93BD5F0ECFBC8EC
:1018430033F4C8E4C9FA22600D08C6A2E713C61828
:10185300C613C6D5E0F322600C08C6C313C618C668
:1018630013C6D5E0F422700422600D18C6C333C634
:1018730008C633C6D5E0F41822251810AF08F518AA
:10188300400215198008F51840021519D2AF22C07D
:10189300D0251810AF08F518500205198008F5185F
:1018A30050020519D2AFD0D0222518F58210AF0807
:1018B300F518400215198008F51840021519D2AF22
:1018C300851983222518F582E43519F58322E473FB
:1018D3002518C582C0E0E51934FFC583C0E0E518CB
:1018E300C3958224F810AF08858319858218800870
:1018F300858319858218D2AFCEF0A3E520F0A378B3
:1019030008E608F0A3DEFAEFF0A3E58124FAF8E68F
:1019130008F0A3E608F0A3E608F0A30808E608F039
:10192300A3E608F0A315811581D0E0FED0E0F815F9
:101933008115811581E8C0E0EEC0E0222518C5823B
:10194300C0E0E51934FFC583C0E0E518C3958224E0
:10195300F910AF0885831985821880088583198556
:101963008218D2AFCEF0A3E520F0A37808E608F002
:10197300A3DEFAEFF0A3E58124FBF8E608F0A3E683
:1019830008F0A30808E608F0A3E608F0A3158115FC
:1019930081D0E0FED0E0F815811581E8C0E0EEC00B
:1019A300E022851983851882E0A3FEE0A3F5207861
:1019B30008E0A3F608DFFAE0A3FFE0A3C0E0E0A39A
:1019C300C0E0E0A3C0E0E0A3C0E0E0A3C0E010AF4C
:1019D300088582188583198008858218858319D222
:1019E300AFD083D082020135851983851882E0A3A5
:1019F300FEE0A3F5207808E0A3F608DFFAE0A3FFF2
:101A0300E0A3C0E0E0A3C0E0E0A3C0E0E0A3C0E047
:101A130010AF08858218858319800885821885830D
:101A230019D2AFD083D08222C0D02518C582C0E09E
:101A3300E51934FFC583C0E0E518C3958224F3108C
:101A4300AF088583198582188008858319858218D4
:101A5300D2AFC8F0A3E9F0A3EAF0A3EBF0A37908AF
:101A6300E709F0A3D8FAECF0A3EDF0A3EEF0A3EFAF
:101A7300F0A3D0E0F0A3D0E0F0A3D0E0F0A3E52002
:101A8300F0A3E5F0F0A322851983851882E0C0E076
:101A9300A3E0F9A3E0FAA3E0FBA37808E0F608A328
:101AA300DFFAE0FCA3E0FDA3E0FEA3E0FFA3E0C0B8
:101AB300E0A3E0C0E0A3E0F5D0A3E0F520A3E0A31A
:101AC300F5F010AF0885831985821880088583197E
:101AD300858218D2AFD082D083D0E0F8D0E03274C0
:101AE300048006740280027401C0E0F4041218AC8E
:101AF300D0E0121782227404800474028000CCC0E8
:101B0300E0EDC0E0E518C39CCCAD1950011D10AF4A
:101B1300068C188D1980068C188D19D2AF12178F69
:101B2300D0E0FDD0E0FC22D083D082E9C0E0E49392
:101B3300A3C386F0C5F095F0F908E493A386F0C536
:101B4300F095F0700BE493A3C3994005E904800278
:101B5300A3E475F002A42582F582E5F03583F583CD
:101B6300D0E0F9E493A3C0E0E493C0E022D083D0B3
:101B730082ECC0E0EDC0E0E493A3FCE493A3FDEDAD
:101B83004C600D121BBCEC24FFFCED34FFFD80EF19
:101B9300E493A3FCE493A3FDED4C600D121BFBEC5B
:101BA30024FFFCED34FFFD80EFD0E0FDD0E0FCE44A
:101BB30093A3C0E0E493C0E022C0E0C3E49396089B
:101BC3007401939618400FE49366700808740193A8
:101BD300661870007019A3A3C3E493960874019365
:101BE3009618A3A3400DD0E0D0E0D0E0021BACA335
:101BF300A3A3A3A3A3D0E022C0E0C0F088F0E493A2
:101C03006670080874019366187000A8F0A3A370A7
:101C13000BD0F0D0E0D0E0D0E0021BACA3A3D0F017
:031C2300D0E022EC
:101C2800C0E074F2121A2BA2AFE433FED2AFE589FA
:101C3800A2E04006E589A2E150031207C6758900B3
:101C4800758900C2C5751A00EEA2E092AF7F010245
:101C58001A8AC0E0C0D0E8C0E0E5A8D2AFC2C77514
:101C68001A00A2E792AFD0E0F8D0D0D0E03274F5F5
:101C780012193FEAFEEBFFEE2434F8EF3400F9883E
:101C8800088909EE2435F582EF3400F583E0F8EE93
:101C98002437F582EF3400F583E0F50AEC850AF085
:101CA800A4FCAAF0850AF0EDA42AFDE82CF8E43D8E
:101CB800F97A257B001217F1EA850882850983F0F5
:101CC8005407F87401B800028004C333D8FCC0E09C
:101CD800E0131313541FF8EE28F8EF3400F9E82442
:101CE8005DF582E93400F583D0E0F8E0586008EE4D
:101CF8002434F582EF801EEE2436F582EF3400F5A9
:101D080083E0F5F0EA84A8F0EE28F8EF3400F9E86B
:101D18002438F582E93400F583E0F97F040219EBF1
:101D280074F512193FEAFEEBFFEE2434F582EF3426
:101D380000F583E0C0E0EE2435F582EF3400F5834A
:101D4800D0E0F08E828F83A3A3A3A3A3A3A3C08212
:101D5800C0838E828F83A3A3A3A3A3E0F8A3E0F993
:101D6800D083D082E0C398F508A3E099F509EE2462
:101D780080F582EF3400F583E064017047EE24813A
:101D8800F582EF3400F583E0FCA3E0FD8E828F83BB
:101D9800A3A3A3A3A3A3A3E0FAA3E0FBC3E89AE940
:101DA8009B4003021E50C3EA9CEB9D40177C127DAA
:101DB80007EEFAEFFB1210A2EE2480F582EF340052
:101DC800F583E4F0EE2434F8EF3400F9E8FCE9FD9B
:101DD800EE2435F582EF3400F583E0F8EE2437F58C
:101DE80082EF3400F583E0F50AE508850AF0A4F5EA
:101DF80008AAF0850AF0E509A42AF509E82508F8F3
:101E0800E43509F97A257B001217F1EA8C828D8373
:101E1800F05407F87401B800028004C333D8FCC03A
:101E2800E0E0131313541FF8EE28F8EF3400F9E834
:101E3800245DF582E93400F583D0E0F8E0586015B8
:101E4800EE2434F582EF802BC3E89CE99D50030211
:101E58001DB5021DAEEE2436F582EF3400F583E0A1
:101E6800F5F0EA84A8F0EE28F8EF3400F9E8243811
:101E7800F582E93400F583E0F91226F6021D23C045
:101E880082C083851882851983E0F8A3E0F9C3EA44
:101E98009CEB9D500BC3EC98ED9940127901801092
:101EA800C3EA98EB9940F5C3EC98ED9950EE7900A8
:101EB800D083D08222EAC39CFAEB9DFB220000006B
:101EC8008521878522C622C0E0C0D0E8C0E0E9C0ED
:101ED800E0EAC0E0EBC0E0ECC0E0EDC0E0C008C064
:101EE80009C00AC00BC082C083C0F0759B00906116
:101EF80082E0A2E64003021FADE591A2E64003029C
:101F08001FAD7591BF9005D9E0640570081211DA0C
:101F18001211E680031211E0752100121240E990B7
:101F280005DAF079001212341210187A017B009049
:101F380005D8E0F9120562907803E0644260030274
:101F48001FF6900773E014F06003021FF6C2AF1289
:101F58001F5A00782AD0E0F618D0E0F6E59F54071B
:101F6800F970059081EC800390819C780812174CD9
:101F7800E9C4C0E07829E65508F50808E65509F5EA
:101F880009740B780812185AD0E02508F890627086
:101F9800E0A2E740F8E8C333906272F0906270E024
:101FA800D2E0F08049E0A2E55024E591A2E5501E78
:101FB8007591DF9005D9E0640D70139005FBE0047E
:101FC800F064287002E4F07A00E0F91212B290612D
:101FD80081E0A2E35009E5E9A2E3500375E9F7A31C
:101FE800E0A2E75009E591A2E7500375917FD0F090
:101FF800D083D082D00BD00AD009D008D0E0FDD051
:10200800E0FCD0E0FBD0E0FAD0E0F9D0E0F8D0D0A6
:10201800D0E032C0E0C0D0C082C083906183E0A22B
:10202800E05009E5BFA2E0500375BFFEE0A2E15011
:1020380009E5BFA2E1500375BFFDE0A2E25009E542
:10204800BFA2E2500375BFFBE0A2E35009E5BFA2BF
:10205800E3500375BFF7E0A2E45009E5BFA2E450DE
:102068000375BFEFE0A2E55009E5BFA2E55003758F
:10207800BFDFE0A2E65009E5BFA2E6500375BFBF87
:10208800D083D0828088C0E0C0D0E8C0E0E9C0E05A
:10209800EAC0E0EBC0E0ECC0E0EDC0E0C0F0E5A7CE
:1020A800A2E6500FE5A1A2E6500953A7BF75A1BF4C
:1020B8001220F3E5A7A2E5500CE5A1A2E5500653CE
:1020C800A7DF75A1DFE5A7A2E15009E5A1A2E150CC
:1020D8000375A1FDE5A7A2E2500CE5A1A2E2500616
:1020E80053A7FB75A1FBD0F002200474F812193F26
:1020F8007521019005D9E06406701512116E8A8267
:102108008B83A3A3A3A3A3A3E0FAA3E0FB1211C8A4
:10211800A2AFE433FED2AF9005DFE0640170187A15
:10212800207B009005D8E0F91205EC7A207B00901E
:1021380005D8E0F9120568906182E0D2E6F09007D0
:1021480072E0602185C62280169005DEE064017089
:1021580008E5C654F84405F5C653BEFC121EC874FB
:1021680001652160E4EEA2E092AF7F010219EB0065
:102178008E238F2485822885832785188285198355
:10218800E0CEA3E0CF852882852783EBC9EAC8ED96
:10219800CBECCA75F010C3E833C8E933C9EA33CACF
:1021A800EB33CBC3EA9EF526EB9FF525B35004AB82
:1021B80025AA26EC33CCED33CDD5F0DAAE23AF2407
:1021C8002274EB12193F74FA12187C8A088B098C56
:1021D800148D159005D9E024F7C394055006908115
:1021E800C002232B12116E8A0A8B0BAE0AAF0BEEBC
:1021F8004F7003022328AC08AD098518828519831E
:10220800AA82AB831211F88E828F83A3A378081257
:10221800174C9081A878081217268518828519838B
:10222800780C12174C9081A8780C12172678087928
:102238000C1214CB501F7808790C1216FE90818866
:1022480078081214EB4047850810850911850A1291
:10225800850B138041850C10850D11850E12850F95
:1022680013781079081216FE90818878101214EBF2
:10227800501C751000751100751200751301781047
:10228800790C1216FE781079081216C5800890810C
:10229800C0781012174C740978101216A69081E4B1
:1022A800780812174C7810790812158A8E828F8355
:1022B800A3A3A3A3A3A3E0F8A3E0F97AD07B031216
:1022C80017F188088909E4F50AF50B7810790812DE
:1022D80016C574041218C7E0F8A3E0F97AD07B0396
:1022E8001217F1E8FA8A08E4F50978107908121447
:1022F800CB5007781079081216FE9005D9E06408CB
:10230800600AE064066005E06405701C9081D0787E
:10231800101214EB501290819078101216D8800881
:102328009081C8781012174C85148285158378100F
:1023380012175B74061218927F0E0219EB74F712CB
:10234800193F12120A900770E064017010906245FC
:10235800E4F0A3F053F4F343FE0C5390F31211B6D8
:10236800E5C654804449F5C6E59E547F644970F833
:10237800906185740FF090076EE0F47002A3E0603E
:102388004E90076FE0600814601B14602E80407543
:10239800080175090090076EE07808121869E508C9
:1023A800F45280802A75080175090090076EE0785C
:1023B80008121869E508F452908014750801750927
:1023C8000090076EE07808121869E508F452A079C1
:1023D800007F020219EB74F712193FE9FE902704F7
:1023E800E493F46008E493F912100C800953C68052
:1023F800E59E547F70FA1211BC900770E06401707A
:102408000312102A90076EE0F47002A3E0604B906C
:10241800076FE0600814601A14602C803D7508018D
:1024280075090090076EE07808121869E50842807F
:10243800802875080175090090076EE07808121861
:1024480069E5084290801375080175090090076EC8
:10245800E07808121869E50842A012120A12116EF3
:102468008A088B09A808A909E8496015E5E170FC04
:10247800E82414F582E93400F583E0F46003E0F51C
:10248800E174016E700A7A019005D8E0F91205BC72
:102498000223D974F112193F8A088B098C0A8D0B13
:1024A800740F1218C7780C12174C9081A87808126C
:1024B80017269081A8780C1217267808790C121420
:1024C800CB50157808790C1216FE9081887808127E
:1024D80014EB401579018013780C79081216FE90D8
:1024E8008188780C1214EB40EB79007F080219EB15
:1024F80074ED12193F8A088B098C0A8D0B7413121C
:1025080018C7780C12174C9081A8780812172690D3
:1025180081A8780C121726780C79081214CB401170
:102528007808790C1216FEAA08AB09AC0AAD0B8024
:102538002275100075110075120075130178107955
:102548000C1216FE781079081216C5AA10AB11AC39
:1025580012AD137F0C0219EB9081A8780812174C62
:102568008A828B8378081217397F040219EB74F575
:1025780012193F8C828D83780812174C8A828B83BC
:102588007808121712EA2404F8EB3400F98C828DCB
:1025980083A3A3A3A3E0FCA3E0FD88828983C3E00F
:1025A8009CF0A3E09DF088828983C3E09420A3E097
:1025B800944E40229081A4780812174C8A828B830B
:1025C80078081216EB8A828B83A3A3A3A3E02420A6
:1025D800F0A3E0344EF0808074F512193FE9FE90C4
:1025E8000728E0FAA3E0FBEEC333F8E433F974E913
:1025F80028F582748039F583E02AF508A3E03BF5D5
:10260800097808121AE69081A012176A12217874C4
:10261800021218928A088B098C0A8D0B741078089C
:1026280012168DAA08AB097F040219EB74F112196E
:102638003F8A0C8B0D8C0E8D0F740F1218C7E0FAA1
:10264800A3E0FB74111218C7E0F508A3E0F50974BC
:10265800131218C7E0FEA3E0FF7808121AE6EA246E
:1026680001F508EB3400F509E4F50AF50B780C7967
:102678000812150A908194780812174C780C79087A
:1026880012150AAA0CAB0DAC0EAD0F12217874020C
:102698001218928B09EA450960047A0180027A00CF
:1026A800EC2AFCED3400FDECF8EDF97A717B0212AE
:1026B80017F188088909E4F50AF50B8E828F83786B
:1026C8000812175BECF8EDF97A717B021217F18AA0
:1026D800088B09740578081218698E828F83A3A362
:1026E800A3A3E508F0A3E509F07F080219EBC0826F
:1026F800C083E9906000F0D083D08222FFFFFFFF03
:10270800FFFFFFFFC082C083E9900CE7F002299029
:1027180074F71218D3E99004F7F07C2F7D057AFF3F
:102728007BFF120D2A9004F874FFF0A3F0A3E4F0E5
:10273800A3F07905120CB29004F7E0F9120BDA7ADB
:10274800487B0D120F1602369E74F41218D38A08AD
:102758008B09EB548060309004F7E0F912054A8A3F
:102768000A8B0BAE0AAF0BEE4F60138E828F83E09D
:1027780064B07003120CCAEEFAEFFB120538AA080F
:10278800E5096480FB80047A007B0002295F74F20B
:102798001218D374FC12187CEAFEEBFF741212189C
:1027A800C7123B85EE4F700302283974021218C70E
:1027B800EEF0A3EF122B9AECF0A3ED122B9AAA825B
:1027C800AB83120BD4E9F50A706AE5084509606421
:1027D8008E828F83123B6BEE4F60567A067B001217
:1027E80005A48A0C8B0DA80CA90DE8497005750A7B
:1027F80013804188828983E4122846EEF0A3EF1201
:102808003B96E508F0A3E509F09004FD1228CD9069
:1028180004FD7005123648801B1236368003EAFC28
:10282800EBFD8C828D831228CD70F38C828D838092
:10283800E3750A02A90A7404121892023D85F0A3EE
:10284800123B3CA32274F21218D3890AE975F017D7
:10285800A4FEAFF09004FCE4F09004FA1228CD60D6
:102868000A1205AA9004FAE4F0A3F0EEFAEFFB12BC
:1028780005A48A088B09EA4509602FEEFCEFFD796B
:10288800001205269004FAE508F0A3E509F07B009C
:1028980080081228B7E4F0A3F00BEBC3950A40F2C6
:1028A800E50A9004FCF0790080027913023D85EB7B
:1028B80075F017A4F8A9F09004FAE028FAA3E03913
:1028C8008A82F583221232DAEA4B2274F41218D380
:1028D800740C1218C7123B60FEE9FF7508007509F1
:1028E80000800CE5082401F508E5093400F509C362
:1028F800E5089CE5099D503285080A85090B740393
:10290800780A121869EA250AF8EB350BF9888289E2
:1029180083A3A3A3A3A3A312371DEE650A7003EF35
:10292800650B70BFE8FAE9FB80047A007B0080271A
:1029380074F41218D37900EAA2E0501B75084A759E
:1029480009817808121AE67C047D007AE97B0C126A
:102958000CAC74021218927F040219A5C082C083BD
:102968009004FD122997601C88828983A3A3E06ADA
:102978007003A3E06B8882898370E8A3A3A3A312E2
:1029880032D680047A007B00D083D08202013512CF
:102998003E6BE8492274EE1218D374FC12187CEAD4
:1029A800FEEBFF851882851983E4F0A3F0EE24027C
:1029B800123628EE2405123B43EE2404F50EEF12DE
:1029C8002F4FE024FE603924FC604624FE60522428
:1029D800FE605E24FE7003022AB024FE7003022B00
:1029E8001424FE7003022B2324FE7003022B3224CE
:1029F800FC7003022B4124FE7003022B50022B8D26
:102A08009005167417F0A3E4122BA2120952022B98
:102A18008D851882851983AC82AD83120CD0022B68
:102A28005D851882851983AC82AD83120CD6022B82
:102A38005D850C08850D0974021218C7AC82AD8338
:102A48008508828509831232D6120BF88A0C8B0D01
:102A5800AC0CAD0DEC4D603BE4F50CF50D780C12AB
:102A68001AE6750C16750D05780C121AE6750C1712
:102A7800750D05780C121AE674081218C7121AFD9B
:102A8800123FE7121892E9F50C700B1232CC1209BA
:102A98006A800F750C01850882850983122B9012B4
:102AA8003648850C08022B6074021218C7AC82AD38
:102AB80083850C82850D831230A1603C850C82854C
:102AC8000D83A3A3121AFD7510167511057810123F
:102AD8001AE67510177511057810121AE67408129F
:102AE80018C7121AFD123FE7121892E9F509700B80
:102AF8001232CC120970800F750901850C82850D80
:102B080083122B90123648850908804C85188285D7
:102B18001983AC82AD83120CDC803A851882851942
:102B280083AC82AD83120CE2802B851882851983D1
:102B3800AC82AD83120CE8801C851882851983ACA1
:102B480082AD83120CEE800D851882851983AC82C4
:102B5800AD83120CF4E9F508E50860298E828F83AD
:102B6800A3E06414601F850E82850F83E09005162C
:102B7800122B9A123E67900517123648E508A312E1
:102B88002BA212094C023537123E6B851882851923
:102B98008322F085188285198322F07C167D0585AD
:102BA8000A82850B831232DA2274EE1218D374FC6F
:102BB80012187C8A0A8B0B8C0E8D0FEA2405F508F7
:102BC800EB3400F5097C157D0079007A167B051237
:102BD8000526E5082402F50CE509123B468518820E
:102BE8008519838582108583117810121AE6850865
:102BF80082850983A3A3A3A3123098121AE6E508D5
:102C08002405F510E5093400F5117810121AE68547
:102C18000C82850D831233ED120BF2740612189292
:102C28008A108B11AE10AF11E50A2402F50AE50BE4
:102C380012362BEE4F7003022D6F80177402121894
:102C4800C71232D688828983EAF0A3EBF090051682
:102C5800E004F0900516E0C394054003022D6FE4EC
:102C6800F510F5117810121AE67510FF7511047831
:102C780010121AE67510007511057810121AE6740C
:102C8800061218C7121AFD7910EEFCEFFD123FE983
:102C9800121892E9705E850882850983A3A3A3A30D
:102CA800A3A3A3E0F89004FFE068704812309812DC
:102CB8001AE67C007D05E5082408FAE5093400FBDE
:102CC8001205207402121892E960298E828F83A35C
:102CD800A3A3A31232D6900516E0F510740278105B
:102CE80012186974172510F58274053511F583EAF1
:102CF800F0A3EBF074021218C7858210858311784F
:102D080010121AE674021218C7121AFD850C828571
:102D18000D831232FC1218928A108B11AE10AF116B
:102D2800900516E0F51075110074027810121869F4
:102D380074162510F874053511F988828983A31251
:102D480028CD7003022C3BE82403080808E9340066
:102D5800F9EE4F6003022C448882898374FFF0A344
:102D6800F0900516E004F0900516E0600A1232CCE7
:102D780012095E7900800B85088285098312363F27
:102D8800790A02353774EA1218D374FE12187C8C4B
:102D9800128D13EA2405F50CEB123FD1123B6F7527
:102DA8000800750900EA2402F510EB3400F51185D6
:102DB800188285198385820A85830B780A121AE698
:102DC800850C82850D83A3A3A3A3122F65121AE68F
:102DD800E50C2405F50AE50D12362B780A121AE6D9
:102DE800850C82850D83122F69120BF27406121856
:102DF800928A0A8B0BEA450B7003022F0AEA240415
:102E0800F50EEB122F4F123B6F8A828B83A3A3A37D
:102E1800E0F98510828511831232E06003022F0ADF
:102E2800E4F514F5157814121AE67514FF751504EF
:102E38007814121AE67514007515057814121AE636
:102E480074061218C7121AFD7913AC0AAD0B851057
:102E580082851183123FEF121892E9F50960030287
:102E68002F0A9004FFE0F8E5087009E024029005B5
:102E780017F08014900517E0FCE82402FAE4340007
:102E8800FBEA6C7001EB707E850882AA8212308F93
:102E98009414123087506B850E82850F83E0C0E052
:102EA80074182A122F46D0E0F00508850E82850F87
:102EB80083A3E0C0E085080A7418250A122F46D0BB
:102EC800E0F005089004FF122F65121AE67C007DD9
:102ED8000585080A7418250A122F591218929004A9
:102EE800FFE02508F50874FF6E700374FF6F601229
:102EF800EE24010EEF3400FFE508C39414500302DA
:102F08002DB7E50860131232EA8510828511831205
:102F180032D612096479008014E509700375090A2C
:102F2800851282851383EEF0A3EFF0A909740212CB
:102F380018927F0E0219A585080C7418250CF582C5
:102F480074053400F583223400F50F850E82F5836D
:102F580022FA74053400FB12050E740222123BA5F6
:102F680022A3A3122F6F22123636FDEEFAEFFB22B0
:102F780074EE1218D374FE12187C8C0E8D0FEA248E
:102F880005F50CEB123B46750B00900516E4F0F5C1
:102F98000AEA2402F508EB3400F509804490051686
:102FA800E0FA9004FFE0F812308F9417123087404F
:102FB8000D900516E0F87416C3989004FFF01230CF
:102FC80098121AE67C007D0574172AFA7405122FE8
:102FD8005C1218929004FFE0F8900516E028F005BE
:102FE8000AE50C2416F582E50D122F4AE0F8E50AE9
:102FF800C3985074900516E0C39416506BE50AC345
:1030080033F8E433F9E50C28FEE50D39FF8518821D
:10301800851983AC82AD838E828F831230A17008AC
:10302800750B0112363B8050E4F510F5117810123B
:103038001AE67510FF7511047810121AE67510005B
:103048007511057810121AE674061218C7121AFDBF
:103058007916850882850983123FEF121892E9F5DF
:103068000B7003022FA580BB7C167D058508828521
:1030780009831232D6120976A90B7402023539E98E
:103088009400C365D03322EA28F8E43400F9E82232
:10309800E0F51075110078102212352E8A108B1168
:1030A800AC10AD11EC4D2274EA1218D374FC12184E
:1030B8007C8A0C8B0D8C128D13EA2405F50AEB1211
:1030C800362B750800750900E50A2402F510E50B92
:1030D8003400F51174021218C785820E85830F78A3
:1030E8000E121AE6850A82850B83A3A3A3A3123BBB
:1030F8004B121AE6E50A2405F50EE50B3400F50F28
:10310800780E121AE6851082851183123631123232
:10311800D0120BF274061218928A0E8B0FAE0EAFF5
:103128000FE50C2402F50EE50D3400F50F80388804
:1031380082898374FFF00508122F3F74FFF0050899
:103148009004FFE0F50C750D00780C121AE67C006F
:103158007D0585080C7418250C122F5912189290A9
:1031680004FFE02508F508EE4F60278E828F83A3C1
:10317800A3A3E0F9850E82850F831232E0EE2404C2
:10318800123B43E96027850C82850D831232C212F7
:103198003648E50870030232A81232EA850E8285A5
:1031A8000F831232D612097C79000232BDE4F5147D
:1031B800F5157814121AE67514FF751504781412AB
:1031C8001AE67514007515057814121AE6740812B3
:1031D80018C7121AFD7911EEFCEFFD850E82850FD6
:1031E80083123FEF121892E9F509709A850882AAAE
:1031F80082EA9004FF7009E02404900517F0802506
:10320800E0F8900517E0F514E82404FCE43400FD28
:10321800EC65147001ED708112308F9412123087B2
:1032280040030231A1850C82850D83E0C0E074184B
:103238002A122F46D0E0F00508850C82850D83A35D
:10324800E0C0E0122F3FD0E012330585820C858361
:103258000D780C121AE674041218C7121AFD85109C
:10326800828511831232FC1218928A0C8B0DAE0CD7
:10327800AF0D85080C7418250CF874053400F9EEA8
:103288004F7003023137851882851983E088828957
:1032980083123305A3E0C0E0122F3FD0E00231458E
:1032A800E509700375090A850A82850B831232C203
:1032B800123648A9097404022F37123E6B85128210
:1032C800851383227C167D05850A82850B8312323D
:1032D800DA22E0FAA3E0FB221232DA120BE0E9F577
:1032E8000922900517E0F5F0E50884900516F07CB2
:1032F800167D0522122F6F120BFE740422F00508AA
:103308008518828519832274EC1218D374FE12185A
:103318007C8A088B098C0E8D0FEA2405FEEB34009D
:10332800FF123518EE2418123B43EA450B700302CE
:1033380033BB12350150291233E08A108B11EA454C
:1033480011606B7912AC0AAD0B850882850983126E
:1033580032D68510828511831218D1E9F50A705882
:10336800E4F50AF50B780A121AE68E828F83A3A376
:10337800E0F50A780A121AE6EE2403123628780ACB
:10338800121AE68E828F831233ED120D187406120C
:103398001892E9F50A7021850C82850D83E0701F6B
:1033A8008508828509831232D61209828011750A2E
:1033B8000E8009750A018004E50A600312363B8510
:1033C8000C82850D83E0600479008002A90A7402EA
:1033D8001218927F0C0219A585188285198312325A
:1033E800DA120D0622123636FD8508828509831207
:1033F80032DA2274EE1218D374FE12187C8A088B03
:10340800098C0C8D0DEA2405FEEB3400FF750E00C7
:10341800123518EA450B70030234DF123501502CBF
:103428001233E08A0E8B0FEA450F604A7912AC0A14
:10343800AD0B8508828509831232D6850E82850FE9
:10344800831218D1E9F50E60030234E285088285FB
:10345800098312371DAA0AFB1234F370147AFF7B12
:10346800FF1234F3606C88828983E50AF0A3E50BC8
:10347800F0750A008007750E0E805F050A9004FC3F
:10348800E0FAE50AC39A504AE50A75F017A4FAABC0
:10349800F088828983A3A3E02AFAA3E03BFB8A820F
:1034A8008B83123631EC4D70D2750A17750B007884
:1034B8000A121AE6EEFCEFFD12050E7402121892BB
:1034C800EEFCEFFD8508828509831232D612098841
:1034D8008014750E098003750E01123E63850C82F7
:1034E800850D83123648A90E023082120CFA8A1012
:1034F8008B11A810A911E84922E5082402F508E56E
:10350800093400F5098A828B83A3A3A3E0A2E522EC
:10351800851882851983AC82AD838E828F8312359C
:103528002E8A0A8B0B22E0FAA3E0FB120BF8227416
:10353800041218927F0A0219A574EC1218D38C1081
:103548008D11EA2405F50CEB123B46750F00EA24B1
:1035580002F50AEB12362B850A82F5831232D6124F
:103568004075700302361D750E008071850C8285CA
:103578000D83E06401704F8E828F83A3A3121AFD1E
:103588008E828F83A3A3A3A3E0F51275130078128C
:10359800121AE6EE2405F512EF3400F5137812122C
:1035A8001AE61232D0120D187406121892E9F50FA5
:1035B8006014850C82850D83E4F0123E63851082C9
:1035C8008511831236487C177D007900EEFAEFFBEF
:1035D8001205268E828F83E4F0A3F0050E9004FC7A
:1035E800E0F8E50EC398501EE50E75F017A4F8A98B
:1035F800F0850882850983A3A3123FDB123631ECDC
:103608004D600302357485088285098374FFF0A331
:10361800F0E50F70061232D012098EA90F0233DBC3
:10362800F50AEF3400F50B22A3123636FD22E0FC32
:10363800A3E0228E828F83123E6B850E82850F83D4
:10364800E8F0A3E9F022C082C0839004F8E06A7031
:1036580003A3E06B70067AF87B0480047A007B0091
:1036680002299074F71218D37F00EF75F003A4F8BD
:10367800A9F0EC28F8ED39F988828983E06A7003AB
:10368800A3E06B7006E8FAE9FB800B0FEFC3940226
:1036980040D87A007B007F010219A574F61218D36E
:1036A800123C5470067A007B008007A3A3A3A312E0
:1036B80032D6023D1574F21218D3E9FE740E1218B0
:1036C800C712371D74101218C7123B858C828D8360
:1036D800E06402703BA3123E6788828983E0F50CA0
:1036E800A3E0F9A80C740268700374296970217545
:1036F8000C02750D00780C121AE67808121AE67892
:103708000A121AE6EEF9120D3C740612189280029B
:103718007901023D85E0F50AA3E0F50B2274E81271
:1037280018D374FB12187CE9851882851983F08AEE
:10373800168B178C0E8D0F741F1218C7123B8574C9
:10374800211218C712371D74231218C7123B6F7540
:1037580010008C828D83A3A3A3E0A2E4502A741DD9
:103768001218C71233E68A828B83E5824583700379
:10377800023831790AAC0EAD0FAA16AB171218D160
:10378800E9F5106003023834850E82850F83E06402
:10379800026003023AEAA3123E678508828509831C
:1037A800A3858212858313E50E2406F50CE50F1216
:1037B8003B4688828983E0FAA3E0F9EA2400F514FD
:1037C800E439F5157814121B70010000280128F956
:1037D8003707000228D038032840380029FA390171
:1037E80029223A0229C9390329FA3904298B3AEAE4
:1037F8003AEE4F703E850C82850D83123B60FAE9E4
:10380800FB8A828B83E0850A82850B83123B9C129C
:103818001AE68A828B83A3123636FDAA08AB0912F0
:10382800050E7402121892800375100EA910740503
:10383800023FC975100B80F4EE4F70F7850A828538
:103848000B837401F0123B75850882850983F07C2F
:10385800007D00850E82850F83A3A3A3A3E0240126
:10386800FAA3E03400FB120BF8EA4B60418A828B22
:1038780083E02402F8850A82850B83E028F0EA2495
:1038880004F8EB3400F988828983E0851282851375
:1038980083123BAE123B9C121AE68A828B83123645
:1038A80030E5082403FAE5093400FB023827850AC5
:1038B80082850B83E02404F07C047D007900AA1241
:1038C800AB13120526023834EE4F600302383B1260
:1038D8003B75FEA3E0FF850A82850B837404F0EE36
:1038E800850882850983F0EF851282851383F07439
:1038F800031218C7AC82AD83EEFAEFFB123C42709C
:10390800030239A68A828B83A3A3123B6B7401122C
:1039180018C785820E85830F780E121AE674051271
:1039280018C7121AFD7CFF7DFF120BFE74041218D3
:10393800928B0FEA450F7033850C82850D83123BFD
:103948004B121AE6850C82850D83A3121AFD7C02A0
:103958007D007A4B7B82120A2A7404121892E9704D
:103968000A74011218C774FFF0A3F08E828F83E0E7
:1039780064027034750C02750D00780C121AE68E0C
:10398800828F83123630E5082404FAE509122F5C89
:10399800121892850A82850B83E02402800974013B
:1039A8001218C7EEF0A3EFF074011218C7123B5CAF
:1039B800F074011218C7A3123B54A3A3A3F0023852
:1039C80034EE4F600302383B850C82850D83123636
:1039D80031AA16AB17120D30850A82850B83740243
:1039E800F0EA850882850983F0851282851383EBC6
:1039F80080CBEE4F600302383B123B75F8A3E0F929
:103A0800850A82850B837402F0E88508828509831C
:103A1800F0E985128285138380A3850C82850D8346
:103A28001232D6120508EAFC8C82A882C39EE49F53
:103A3800404BE86E7001EF70047C00801F8518828F
:103A4800851983E0FAEE2AFAEF3400FBC3EA98EB13
:103A580094005003E08004EECCC39CFCEC850A8201
:103A6800850B83F08C0A750B00780A121AE6850C10
:103A780082850D83E02EFCA3E03F023822751007F3
:103A8800023834EE4F600302383B850C82850D8383
:103A9800123E67850A82850B837407F088828983C2
:103AA800123B54123B3CE0851282851383F0E824D4
:103AB80002FAE93400FB8A828B83123B54123B8D55
:103AC800123B5CA3123B96123B65F0E82405F8E92B
:103AD8003400F988828983123B65A3123BAEA302A6
:103AE80039C2741D1218C7123C4D700302383112C6
:103AF8003E67880C890DE8450D70030238318E1039
:103B08008F117810121AE6780A121AE67808121A33
:103B1800E674061218C7E0F9AC0EAD0FAA16AB177B
:103B2800850C82850D831218D17406121892E9F556
:103B380010023834F088828983A322F50CEF340010
:103B4800F50D22E0F50E750F00780E22E08508824B
:103B580085098322123BB522123E6BE822123BB53F
:103B6800A3A322A3A3A3A3E0FEA3E0FF22850C82C4
:103B7800850D83E0F8A3E0F5838882E022E0F5086C
:103B8800A3E0F50922A3A3F08A828B83A32212283B
:103B980048A3A322F08A828B83123BA522E0F50A70
:103BA800750B00780A22123B3C123BB522E08508CF
:103BB80082850983A3A32274EE1218D374FE121807
:103BC8007C8A0A8B0BECFAEDFB74141218C7E0F52B
:103BD80010A3E0F51174161218C7E0FE7418121835
:103BE800C7E0F50EA3E0F50F851882851983AC822E
:103BF800AD83123C42603E851882851983123C4D84
:103C0800602FA3A3123B85E50845096024780E12AE
:103C18001AE67810121AE6EEF9AC0CAD0DAA0AAB4A
:103C28000B8508828509831218D1740412189280B2
:103C380006790E80027901023082120BF88A0C8B09
:103C48000DEA450D221232DA123C5422120CC48AB3
:103C5800828B83E58245832274F61218D374FE1290
:103C6800187C740C1218C7123B608518828519835A
:103C7800F074011218C7E9F0E4F508F5097808129C
:103C88001AE67508027808121AE674041218C7852D
:103C980082088583097808121AE6120D187406122C
:103CA80018927402121892806474F71218D3EAFEFC
:103CB800EBFF89087C2F7D05120D30EA5402600B5A
:103CC800A908EEFAEFFB120BEC8002790102369E8E
:103CD80074F61218D374FF6A700374FF6B701C7B40
:103CE80000EB75F003A4F8A9F0EC28F8ED39F91207
:103CF8003D1A0BEBC39402501480E6120D008A089B
:103D08008B09A808A909E8496003123D1A7F020235
:103D180019A58882898374FF122846E4F02274F674
:103D28001218D3120D008A828B83E58245836006C0
:103D3800A3A3E0FA80027A007B0080D174F2121803
:103D4800D38A088B09ECFEEDFF740E1218C7E0F554
:103D58000A123D8A701CEEFCEFFD7AFF7BFF123DD4
:103D68008A70047911801688828983E508F0A3E5B2
:103D780009F088828983A3A3E50AF079007F060207
:103D880019A5120D008A0C8B0DA80CA90DE8492263
:103D980074EE1218D3EAFEEBFF8C088D09890C74B7
:103DA800121218C7123E6774141218C712363174EB
:103DB800161218C71232D6750D00EC4D6003023E7C
:103DC8005B7402650C6003023E5688828983123652
:103DD80036F9EC2400F50EE439F50FEAF4F8EBF4C3
:103DE800F9EC58F8E50F59F9E849705DE50824063B
:103DF800F8E5093400F9880A890B8882F583122FBF
:103E08006B120D308A108B11E50E65107004E50FEA
:103E180065116042780E121AE6850A82850B8312B4
:103E28002F6B120D367402121892E9F50D7027786F
:103E38000E121AE6850882850983A3A3122F691238
:103E48000D4E7402121892800D750D808008750D44
:103E58000D8003750D0BA90D02353C8E828F8312E0
:103E68003E6B22E0F8A3E0F92274E81218D374E755
:103E780012187C851882851983EAF0A3EBF08C165A
:103E88008D17890E74311218C7E0F512A3E0F513E7
:103E980074331218C7E0F514A3E0F5157435121839
:103EA800C7E0F50F750800750900E50975F003A46A
:103EB800F8A9F0851882851983123FDBE0F47003B6
:103EC800A3E0F47003023FB9EE2402F50CEF123FB1
:103ED800D1E07003023FB985160A85170B780A12DC
:103EE8001AE6AC14AD15AA12AB13120CB874021270
:103EF80018928A0A8B0BEA450B7003023FB9E4F566
:103F080010F5117810121AE674061218C785821077
:103F18008583117810121AE674091218C785821061
:103F28008583117810121AE6851282851383A3A35C
:103F3800A3A3121AFD7914AC0AAD0B8E828F8312DB
:103F48003FEF121892E97069850A82850B83A3A353
:103F5800A3A3123E6774021218C7123648850C8252
:103F6800850D83E0A2E05018A90E74021218C7ACA0
:103F780082AD838E828F831232D6120C10E94208EA
:103F8800850C82850D83E0A2E15026E50FF50A78BD
:103F98000A121AEAA90E74031218C7AC82AD838EEE
:103FA800828F831232D6120C0A7401121892E942D7
:103FB800080509E509C394025003023EB2A9087432
:103FC800191218927F100219A53400F50D850C827C
:103FD800F58322E028FEA3E039FF8E828F832279C1
:103FE80016850A82850B831232DA120D12740822A2
:103FF80074F21218D3EAFEEBFF890B7401650B60AB
:104008000E7402650B70637901120F34E9705BEE70
:10401800FAEFFB1240756047750A00800B7C177D2C
:10402800007900120526050A9004FCE0F8E50AC3A9
:10403800985021E50A75F017A4F8A9F0850882853B
:104048000983A3A3E028FAA3E039FB8A828B8312B1
:10405800299770C985088285098374FFF0A3F07CCD
:104068002F7D05EEFAEFFB120D2A023D85120CFAA0
:104078008A088B09EA45092274F21218D38A088B38
:1040880009ECFEEDFF740E1218C712371D900CE7ED
:10409800E0F4603D7A097B00120532EA4B60328A0F
:1040A800828B8374B1F0A3E4123B8FA3123B8DA3E0
:1040B800E508F0A3E5091240DCEEF0A3EF1240DCBE
:1040C800A3A3E50AF0A3E50BF0900CE7E0F91205CD
:1040D8003E023D85F08A828B83A3A3A3A3A322C0BB
:1040E80082C0839061907404F0A37448F0A37402B2
:1040F800F09061807440F09061BC7403F090618727
:104108007419F0906265741BF090619A7433F0A38F
:104118007455F09061A0743AF0900770E0640170F3
:1041280009C2919005DD746780059005DD7461F022
:1041380090270AE493906186F0902704E493F46052
:1041480027E493540FF8906185E0686012E5C6543F
:10415800804449F5C6E59E547F644970F8E8F053F9
:10416800C680E59E547F70FA7905121294024323A3
:10417800C082C083E9540FF9906185E0696012E557
:10418800C654804449F5C6E59E547F644970F8E9F1
:10419800F053C680E59E547F70FA024323C082C064
:1041A80083E5A8F853A87E906181E4F0A3F0A3F01A
:1041B800C2BA539AFEC289759B00C2C275E90075DE
:1041C800910075BF0075A91175B905906181F0A3BB
:1041D80074C0F0A3E4F0D2BA439A0174805842A89C
:1041E800024323C082C08374F812187C9005DBE078
:1041F800F8A3E0F9E84970030243199005DBE0549D
:104208004060237908851882851983AA82AB8312B6
:1042180010FC851882851983AA82AB83120DC6907B
:1042280005DBE054BFF0E054806010790C7A947B91
:10423800071210FC9005DBE0547FF0E0A2E050315B
:1042480090619A7433F0A37455F09061A0743AF0B9
:10425800900770E064017009C2919005DD74678071
:10426800059005DD7461F0120DCC9005DBE054FE7D
:10427800F0E05402603190619A743FF0A3745AF0F0
:104288009061A0747FF0900770E064017009D2918A
:104298009005DD747180059005DD746AF0120DCC0F
:1042A8009005DBE054FDF0E054046013902708E427
:1042B80093906186F0120DD29005DBE054FBF0E09C
:1042C80054086013902709E493906186F0120DD288
:1042D8009005DBE054F7F0E05410601390270AE4EF
:1042E80093906186F0120DD29005DBE054EFF0E078
:1042F8005420600A120DD29005DBE054DFF0A3E0F1
:104308005401600D12102A120DD89005DCE054FEFD
:10431800F074081218928003F0A3F0D083D08202C0
:104328000135C082C083E9600814600A14600C80FB
:10433800139027088008902709800390270AE493A0
:10434800906186F080D574EC1218D374F412187C3E
:10435800851882851983AC82AD83758381758270D7
:10436800740412178F90270893F460030244DB90BB
:104378007808E0C3940250030244BB74041218C7BF
:10438800AC82AD83758381758222740812178F857C
:10439800188285198385821285831374041218C7BD
:1043A800AC82AD83750EFF750FFF7FFF7E00750C25
:1043B80048750D78801574086E700302444E7409B0
:1043C8006E700302444E740A6E607B850C82850D04
:1043D80083780812174C8C828D83A909E50AC9F8DD
:1043E80088107418780812168DE5104508F8C3E08F
:1043F80098A3E099850C82850D83780812174C40A4
:10440800188C828D837418780812168DE51045086B
:10441800F8E0C398F8A3E0801C7418780812168D89
:10442800E5104508FAE9FB8C828D83E0F8A3E0F9F2
:10443800EAC398F8EB99F9C3E8950EE9950F500689
:10444800880E890FEEFF0EE50C2404F50CE50D34FB
:1044580000F50DEEC3941350030243BE74FF650EBE
:10446800700474FF650F60238F08740278081218AF
:104478006974482508F58274783509F58378081237
:10448800174C851282851383E508F0EC24020C0C86
:10449800ED3400FD851282851383A38582128583FE
:1044A80013740C1218C7E5826C7003E5836D600302
:1044B8000243AC7508017509007808121AE67402FF
:1044C8001218C7AC82AD837AC27B091207A27402A4
:1044D800121892740C1218927F0C0219A5C082C08F
:1044E8008390618674E1F09061AE7468F0A3746A99
:1044F800F090624574FBF0A304F053F4FD43FE0210
:104508009007707401F090619A7433F0A37455F0B9
:104518009061A0743AF0740164017009C291900529
:10452800DD746780059005DD74610243227F040213
:1045380019A5C082C08375E1F1900725E060551484
:104548006008146059146051805912103690071B86
:10455800E0F97A1C7B0712121690816812176A120A
:10456800124C9081AC12176A121222900726E0F9B9
:1045780012122E7901121288900719E02416F8A356
:10458800E03400F988828983744EF0A37410F079BE
:104598000002432312103C80B412104280AF121064
:1045A8004880AA791280EA74F41218D375D90D904C
:1045B800070BE0A2E0E4331313F890071BE0C433C1
:1045C8003354C0484401F5D978197907888289831A
:1045D800A3A3A3E0F5D988828983A3A882A983E845
:1045E800641F7003E9640770E3780B790788828990
:1045F80083A3E0F5D988828983A3A882A983E86484
:10460800117003E9640770E575E19590070BE0F90F
:104618007A0C7B0712121C900D0974E2F0A3740F38
:10462800F0A37444F0A37411F0A37444F0A37411BC
:10463800F0A37444F0A37411F0A374E8F0A3740F0A
:10464800F0A37444F0A37411F0A37400F0A37410E1
:10465800F0900D177444F0A37411F0A37444F0A300
:104668007411F0A37444F0A37411F0A37444F0A37C
:104678007411F0A37444F0A37411F0A37444F0A36C
:104688007411F0900719E0F8A3E0F5838882A3A3DA
:10469800780812174C90818078081216D89081A853
:1046A8007808121726900719E0240EF8A3E03400C2
:1046B800F988828983780812175B900719E0241417
:1046C800F8A3E03400F9888289837413F09005D93F
:1046D8007402F0024535C082C08390072BE024079E
:1046E800F5D990071BE0C4333354C0F5D97819794C
:1046F8000788828983A3A3A3E0F5D988828983A345
:10470800A882A983E8641F7003E9640770E390072F
:104718002BE0601F78197907FAE82413F582E93449
:1047280000F583E0F5D988828983A3A882A9831A32
:10473800EA70E690074BE02407F5D990071BE0C420
:10474800333354C04404F5D97819790788828983AA
:10475800A3A3A3E0F5D988828983A3A882A983E8C3
:10476800641F7003E9640770E390074BE0601F78EB
:10477800197907FAE82433F582E93400F583E0F57E
:10478800D988828983A3A882A9831AEA70E675E189
:1047980095900D0974EEF0A3740FF0A37444F0A380
:1047A8007411F0A37444F0A37411F0A37444F0A33B
:1047B8007411F0A374E8F0A3740FF0A37444F0A389
:1047C8007411F0A37400F0A37410F0900D177444E2
:1047D800F0A37411F0A37444F0A37411F0A374440B
:1047E800F0A37411F0A37444F0A37411F0A37444FB
:1047F800F0A37411F0A37444F0A37411F09081A491
:1048080012176A900719E0240EF8A3E03400F9881B
:10481800828983121776900719E02414F8A3E034EC
:1048280000F9888289837412F09005D974010243D3
:1048380022C082C08390072BE02407F5D990071B7C
:10484800E0C4333354C04402F5D978197907888213
:104858008983A3A3A3E0F5D988828983A3A882A921
:1048680083E8641F7003E9640770E390072BE06036
:104878001F78197907FAE82413F582E93400F583DB
:10488800E0F5D988828983A3A882A9831AEA70E609
:1048980075E195900D0974FAF0A3740FF0A374FAFA
:1048A800F0A3740FF0A374FAF0A3740FF0A374FAD2
:1048B800F0A3740FF0A374FAF0A3740FF0A374FAC2
:1048C800F0A3740FF0A37400F0A37410F0900D1708
:1048D8007444F0A37411F0A37444F0A37411F0A30A
:1048E8007444F0A37411F0A37444F0A37411F0A3FA
:1048F8007444F0A37411F0A37444F0A37411F090FD
:1049080081A412176A900719E0240EF8A3E0340076
:10491800F988828983121776900719E02414F8A37E
:10492800E03400F9888289837414F09005D97404FE
:10493800024322C082C08390072BE02407F5D99058
:10494800071BE0C4333354C04406F5D978197907F6
:1049580088828983A3A3A3E0F5D988828983A3A841
:1049680082A983E8641F7003E9640770E390072B4A
:10497800E0601F78197907FAE82413F582E9340012
:10498800F583E0F5D988828983A3A882A9831AEAE6
:1049980070E690074BE02407F5D990071BE0C43375
:1049A8003354C04404F5D97819790788828983A3D8
:1049B800A3A3E0F5D988828983A3A882A983E864A0
:1049C8001F7003E9640770E390074BE0601F7819D4
:1049D8007907FAE82433F582E93400F583E0F5D95C
:1049E80088828983A3A882A9831AEA70E675E1956B
:1049F800900D0974F4F0A3740FF0A37444F0A37439
:104A080011F0A37444F0A37411F0A37444F0A374D8
:104A180011F0A37444F0A37411F0A37444F0A374C8
:104A280011F0A37400F0A37410F0900D177444F003
:104A3800A37411F0A37444F0A37411F0A37444F0A8
:104A4800A37411F0A37444F0A37411F0A37444F098
:104A5800A37411F0A37444F0A37411F09081A4120C
:104A6800176A900719E0240EF8A3E03400F9888249
:104A78008983121776900719E02414F8A3E034000C
:104A8800F9888289837415F09005D974030243224A
:104A9800C082C083900719E0F8A3E0F5838882A359
:104AA800A3A3A3A3A3E402432074F71218D3900688
:104AB80005E0F875F004A4C8AAF02AF9740728F8E4
:104AC800740639F9E82405FAE93400FB8A828B83F5
:104AD800E0FCA3E0FD88828983A3A3A3A3A3A3A3E7
:104AE800A3A3ECF0A3EDF088828983A3A3A3A3A3D7
:104AF800A3A3E024FFF8A3E034FFF98A828B83E8BC
:104B0800F0A3E9024D5674F71218D3EAFEEBFF90B2
:104B180061D0E06003024BEB75D90E75D90375D9E6
:104B280004EE248CF582EF3400F583E5822408F83E
:104B3800E5833400F9E0F5D9A3E865827003E965F7
:104B48008370F2EE2484F582EF3400F583E5822445
:104B580004F8E5833400F9E0F5D9A3E86582700329
:104B6800E9658370F275E1957908EE248CFAEF34E3
:104B780000FB1210F07904EE2484FAEF3400FB12E3
:104B880010F07C00EEF8EFF9ECFAC3E49AFA95E03D
:104B9800FBEE2AFAEF3BFBEA248BF582EB3400F5B7
:104BA80083E0C0E0E824ABF582E93400F583D0E087
:104BB800F00C88828983A3A882A983ECC394084057
:104BC800C7EE2470F582EF3400F583E0F8A3E0F92E
:104BD800EE2472F582EF3400F583E8F0A3E9F0796A
:104BE8000180027900024D57C082C08375D90275D1
:104BF800D90375D90575E195EA2470F582EB34007F
:104C0800F583E0F8A3E0F9EA2472F582EB3400F5C5
:104C180083E8F0A3E9F0790102432374F61218D36C
:104C2800EAFEEBFF9007747406F0750874750907BF
:104C38007808121AE67C01790312113874021218E6
:104C48009275D90675D903758274758307E0F5D90D
:104C5800A3E58264797004E583640770F075E195D3
:104C68009005D9E06408701EEE2470F582EF3400D8
:104C7800F583E0F8A3E0F9EE2472F582EF3400F54D
:104C880083E8F0A3E9F07901024E2374F61218D3F1
:104C9800EAFEEBFF9061D0E07066780190077474CB
:104CA8000BF09005D9E06407701975087475090749
:104CB8007808121AE67C0179031211387402121866
:104CC800927805740128F5D975D9037582747583AE
:104CD80007E8FAE0F5D9A31AEA70F875E195EE2429
:104CE80070F582EF3400F583E0F8A3E0F9EE247262
:104CF800F582EF3400F583E8F0A3E9F0790180024A
:104D08007900024E2374F71218D3EAFEEBFF75D927
:104D18000375D90375D90DEE24DEF582EF3400F55D
:104D280083E0F5D975E1957904121252EE2470F5F5
:104D380082EF3400F583E0F8A3E0F9EE2472F582FF
:104D4800EF3400F583E8F0A3E9F079018001F07F02
:104D5800010219A574F61218D3EAFEEBFF9061D090
:104D6800E0F87480C398FAEE2483F582EF3400F5F6
:104D780083E06004780480027800E8240BF8EAC332
:104D8800985003024E217D09900774EDF0EE24E35C
:104D9800F8EF3400F97A757B077C0888828983E00C
:104DA8008A828B83F088828983A3A882A9838A82D6
:104DB8008B83A3AA82AB831CEC70E0EE2483F5827C
:104DC800EF3400F583E0601D7508747509077808ED
:104DD800121AE67C097903EEFAEFFB121138740215
:104DE8001218927D0D74012DF5D975D90375827449
:104DF8007583078D08E0F5D9A31508E50870F675E1
:104E0800E1957904121252EE241DF582EF3400F573
:104E180083E4F0A3F07901800279007F020219A5EA
:104E280074F61218D3EAFEEBFF9061D0E0F87480B4
:104E3800C398FAEE2483F582EF3400F583E060042A
:104E4800780480027800E82408F8EAC3985003023E
:104E58004F287D06900774740CF09005F6E09007D3
:104E680075F07AF77B05787679077C028A828B83DE
:104E7800E088828983F08A828B83A3AA82AB8388A5
:104E8800828983A3A882A9831CEC70E07AF97B0548
:104E98007C028A828B83E088828983F08A828B8372
:104EA800A3AA82AB8388828983A3A882A9831CECE6
:104EB80070E0EE2483F582EF3400F583E0601D7521
:104EC80008747509077808121AE67C067903EEFA61
:104ED800EFFB12113874021218927D0A74012DF535
:104EE800D975D9037582747583078D08E0F5D9A340
:104EF8001508E50870F675E1957904121252EE244A
:104F080070F582EF3400F583E0F8A3E0F9EE24723F
:104F1800F582EF3400F583E8F0A3E9F07901800227
:104F28007900024E2374F61218D3EAFEEBFF906163
:104F3800D0E0F87480C398FAEE2483F582EF340049
:104F4800F583E06004780480027800E82404F8EA35
:104F5800C39850030250077802900774E8F0EE24D3
:104F6800F5F582EF3400F583E0900775F0EE2483C1
:104F7800F582EF3400F583E0601B75087475090746
:104F88007808121AE67C027903EEFA1211387402D4
:104F98001218927806740128F5D975D903758274A8
:104FA8007583078808E0F5D9A31508E50870F67534
:104FB800E195EE2474F582EF3400F583E4F0EE24F5
:104FC80080F582EF3400F583E4F0EE241DF582EFDE
:104FD8003400F583E4F0A3F07904121252EE240DA4
:104FE800F582EF3400F583E0F8A3E0F9EE2472F5DA
:104FF80082EF3400F583E8F0A3E9F07901800279C3
:1050080000024E2374F61218D39061D0E0F8748031
:10501800C398FCEA2483F582EB3400F583E060044E
:10502800780480027800E82404F8ECC398405B799F
:10503800029007747407F0EA24F6F582EB3400F561
:1050480083E0900775F0EA2483F582EB3400F5835A
:10505800E060187508747509077808121AE67C026A
:105068000912113874021218927906740129F5D9B7
:1050780075D903758274758307E9F8E0F5D9A31823
:10508800E870F875E195790180027900024E237481
:10509800F51218D3E9FCA2AFE433F50AC2AF7D00DC
:1050A80080010DEA246FF582EB3400F583E0F8ED1A
:1050B800C398501A8D08EA2508F8EB3400F9E8245B
:1050C8006BF582E93400F583E06C70D68024EA241D
:1050D8006FF8EB3400F9E0FEEA2EFAEB3400FBEA55
:1050E800246BF582EB3400F583ECF088828983E049
:1050F80004F0E50AA2E092AF7F030219A574F61244
:1051080018D3A2AFE433FDC2AFEA246FF582EB34C3
:1051180000F583E014F07C0060368C08EA2508F876
:10512800EB3400F9E8246CF582E93400F583E0C03B
:10513800E0E8246BF582E93400F583D0E0F00CEA6E
:10514800246FF582EB3400F583E0F8ECC39840CA8D
:10515800EA246EF582EB3400F58374FFF0EA246AE2
:10516800F582EB3400F583E4F0EDA2E092AF024E55
:1051780023C082C083E5A8F8C2AFEA246BF582EBAE
:105188003400F583E9F0EA246AF582EB3400F5830C
:10519800E4F0E8A2E792AF02432374F31218D3EACB
:1051A800FEEBFFECFAEDFB8A828B83A3A3A3A3E0BB
:1051B800541FF0EE2436F582EF3400F583E4F0F561
:1051C8000AEEFCEFFD8A828B83E0C0E0EC245DF5FB
:1051D80082ED3400F583D0E0F0750B00E50A333337
:1051E8003354F8F50C8A828B83E0F508750900E5DD
:1051F8000B780812184AE508A2E0502FEE2436F87A
:10520800EF3400F988828983E0F508EE2508F5086F
:10521800EF3400F509E5082438F582E5093400F58E
:1052280083E50CF088828983E004F0050B050CE522
:105238000BC3940840AF050A8A828B83A3AA82AB6A
:10524800838C828D83A3AC82AD83E50AC394055019
:10525800030251CD7F050219A574F71218D39006E1
:1052680003E0640170077A007B000253D87E009047
:105278000609E070F17401F0A3E4F0A3F090066968
:1052880004F090066CE4F0A3F090066F04F090062A
:105298000CE4F0A3F0A3F0A3F090061604F0900637
:1052A8003CE4F09081C812176A90061F1217769096
:1052B8000623E4F0A3F0A3F0900687F090067BF0B5
:1052C8009006707480F0A3E4F0900676F090066E75
:1052D800F09006F2F0A3F0A3F0A3F0A3F0A3F0A3DC
:1052E800F0A3F09006FBF090068AF09006DAF0A39F
:1052F800F09081C812176A9006DC1217769081C860
:1053080012176A9006E01217769006E6E4F0900607
:10531800E8F09006E4F09006FEF0A3F0A3F0A3F006
:10532800A3F0A3F0A3F0A3F078037906E8246FF5BF
:1053380082E93400F58374FFF00E88828983A3A87C
:1053480082A983EEC3940440E37A037B067812793A
:105358000788828983E0C0E0EA2461F582EB3400A3
:10536800F583D0E0F088828983A3A882A9838A8202
:105378008B83A3AA82AB83E864177003E964077080
:10538800D07A037B0678EC790588828983A3E0C00C
:10539800E0EA24E7F582EB3400F583D0E0F0888278
:1053A8008983A3A882A9838A828B83A3AA82AB83D9
:1053B800E864F47003E9640570CF900603E004F034
:1053C8006401700890060BE0900605F07A077B06EA
:1053D800024D57C082C08390060AE4F0900609F097
:1053E800900603F0A3F0A374FFF075E1F1024323E4
:1053F800C082C0837800790090060AE060047807CC
:10540800790688828983A3A3A3A3E0F902432374BE
:10541800F61218D3EAFEEBFF8E828F83A3A3A3E0D4
:10542800600F8E828F83A3A3A3E4F0900604E01498
:10543800F0900603E014F0700690060574FFF08EF5
:10544800828F83A3A3E4F0900717E0700D90060401
:10545800E0640170057900121234EE2465F582EFDC
:105468003400F583E0F8A3E0F9E8496029EE246503
:10547800F8EF3400F9880889098882F583E0FCA3ED
:10548800E0FD900605E0FA7B00120DFC8508828598
:105498000983E4F0A3F0EEFAEFFB121168024E2341
:1054A80074F71218D3EAFEEBFF8E828F83A3A3A3AF
:1054B800A3E0FA7B00120E3EEEFAEFFB1210BA12CE
:1054C8001150024D57C082C08378EC7905888289D3
:1054D80083A3E4F088828983A3A882A983E864F47B
:1054E8007003E9640570E69005ED02483474F6121D
:1054F80018D3EAFEEBFFEC2403F8ED3400F9880832
:105508008909EC2407F8ED3400F9E8FCE9FD8C8200
:105518008D83E0F8A3E0F9850882850983E0FAA382
:10552800E0FB1217F1EE240DF582EF3400F583E865
:10553800F0A3E9F08C828D83E0F8A3E0F985088276
:10554800850983E0FAA3E0FB1217F18B09EA450904
:105558006013EE240DF582EF3400F583E02401F0AA
:10556800A3E03400F0024E2374F61218D3EAFEEBDF
:10557800FFEE242EF582EF3400F583E0FCA3E0FD76
:10558800780079FAECFAEDFB1217F1EE2470F58247
:10559800EF3400F583E8F0A3E9F0780079FAECFA43
:1055A800EDFB1217F18B09EA45096013EE2470F53B
:1055B80082EF3400F583E02401F0A3E03400F00228
:1055C8004E2374F01218D3EAFEEBFF74101218C7BA
:1055D800780812174C1211F28A0C8B0D8C0E8D0F55
:1055E80090818C780C1216D89081A8780C12172606
:1055F800780C121AE28E828F83E0F8A3E0F5838894
:1056080082A3A312176A12249B7404121892E960E9
:10561800030257178E828F83E02402F8A3E0340038
:10562800F9E8FAE9FB8A828B8378081216EB9081F5
:10563800A8780812174C8A828B837808121739EEDB
:10564800240BF582EF3400F583C082C0838E828FED
:1056580083A3A3A3A3A3E02401F8A3E03400F9D013
:1056680083D082E0687003A3E0697005790102576E
:10567800198E828F83A3A3A3A3A3A3A3E02401F07D
:10568800A3E03400F0EE2474F582EF3400F583E0F3
:1056980064017036EE2475F582EF3400F583E0F886
:1056A800A3E0F98E828F83A3A3A3A3A3A3A3E06897
:1056B8007003A3E0697013EE2475F582EF3400F5EA
:1056C80083E02401F0A3E03400F0EE2480F582EFBB
:1056D8003400F583E064017036EE2481F582EF34FE
:1056E80000F583E0F8A3E0F98E828F83A3A3A3A338
:1056F800A3A3A3E0687003A3E0697013EE2481F507
:1057080082EF3400F583E02401F0A3E03400F0795F
:10571800007F080219A574F71218D3900605E0F85F
:1057280075F004A4C8AAF02AF9740728FE7406398B
:10573800FF8028EE2465F8EF3400F988828983E039
:10574800FCA3E0FD88828983E4F0A3F08E828F8336
:10575800A3A3A3A3E0FA7B00120DFCEE2465F58257
:10576800EF3400F583E0F8A3E0F9E849604FEE2450
:1057780064F582EF3400F583E0F5087808121AEA38
:10578800EE2463F582EF3400F583E0F9EE2465F545
:1057980082EF3400F583E0FCA3E0FDEEFAEFFB12A4
:1057A80010E47401121892E96089EE2465F582EF1D
:1057B8003400F583E0F8A3E0F9E84970137C007D34
:1057C800008E828F83A3A3A3A3E0FA7B00120DFCB3
:1057D800024D5774F21218D3EAFEEBFF890A740ED1
:1057E8001218C7E0FAEE2462F582EF3400F583E080
:1057F800640160030258A79061D0E0F87480C398F0
:10580800F50CEE2483F582EF3400F583E06004782C
:1058180004800278008908E928F8E43400F9E824CB
:10582800020808E93400F9E50C98E499A2D265D099
:10583800334068EA7005750B028003750B01E06060
:10584800397509007808121AE67A747B0712111A5A
:1058580074021218927508747509077808121AE606
:10586800AC0AA90BEEFAEFFB121138740212189267
:105878007404250AF50A7C747D077401250AF5D994
:10588800850BD9E50A600D8C828D83F8E0F5D9A3E4
:1058980018E870F875E19579008006790780027933
:1058A800FF7F060219A5C082C083E960208C828D23
:1058B80083E08A828B83F08C828D83A3AC82AD8354
:1058C8008A828B83A3AA82AB8319E970E0ECFAED94
:1058D800FB02432374EA1218D3907803E064427001
:1058E8005E900773E014F07056C2AF1258F6007855
:1058F8002AD0E0F618D0E0F6E59F5407F970059035
:1059080081EC800390819C780812174CE9C4C0E0B0
:105918007829E65508F50808E65509F509740B785D
:105928000812185AD0E02508F8906270E0A2E74003
:10593800F8E8C333906272F0906270E0D2E0F090C1
:105948000605E0F47003025CFFE0F875F004A4C8F3
:10595800AAF02AF9740728FE740639FFEE2402F526
:1059680082EF3401F583E0F8A3E0F9E849601EEE20
:105978002402F582EF3401F583E0FAA3E0FBEE247C
:1059880001F582EF3401F583E0F91205628E828F0A
:1059980083A3A3A3A3A3A3A3E0F8A3E0F98E828F14
:1059A80083A3A3A3A3A3E8F0A3E9F0906054E09035
:1059B80005E0F0906055E09005E1F0906056E090C9
:1059C80005E2F0906057E09005E3F0906058E090B1
:1059D80005E4F0906059E09005E5F090605AE09099
:1059E80005E6F090605BE09005E7F090605CE0FC15
:1059F8009005E8F090605DE0FB9005E9F090605E4E
:105A0800E0FD9005EAF090605FE0FA9005EBF09019
:105A180005E6E08C082508F8E43400F98D08E82547
:105A280008F8E93400F98B08E82508F8E93400F9A2
:105A38008A08E82508FAE93400FBEE24F7F582EF36
:105A48003400F583E02AF0A3E03BF08C08EE24F95B
:105A5800F582EF3400F583E02508F0A3E03400F088
:105A6800EE24FBF582EF3400F583E02401F0A3E097
:105A78003400F0EE24FFF582EF3400F583E0F8A35C
:105A8800E0F9E8496042906000E0C333FCE433FD8C
:105A9800E82CF582E93DF583E02AF0A3E03BF0909D
:105AA8006000E0FA9005E8E0FCEAC333FAE433FB6F
:105AB800E82AF8E93BF9E8244AF582E93400F58355
:105AC800E02CF0A3E03400F09005E6E070119005BA
:105AD800E9E0700BA3E07007A3E07003025BDF8EC0
:105AE800828F83A3A3A3A3A3E0F8A3E0F9EE240D78
:105AF800F582EF3400F583E028F8A3E039F9EE24C5
:105B08000BF582EF3400F583E8F0A3E9F0EE240FFB
:105B1800F582EF3400F583E4F0EE241CF582EF34CF
:105B280000F583E06401701EEE2420F582EF340056
:105B3800F583E0F8A3E0F9EE241DF582EF3400F5D3
