:020000040000FA
:0600000002011D021D4279
:03002B000221EFC0
:030033000221D1D6
:03005300021DB8D3
:03006B000221A8C7
:10008300021C33E5C754F84401F5C7790122000087
:100093000080FB120086B90003020107E4791B7894
:1000A30002B800028004F709D8FCE4791D7802B88D
:1000B30000028004F709D8FCE490028178FF790DEF
:1000C3008002F0A3D8FCD9FA781A90014D7A01BACC
:1000D30000028007E493A3F608DAF9900F7FAA825F
:1000E300AB8390014E78CF79018015E493A3AC8262
:1000F300AD838A828B83F0A3AA82AB838C828D83A8
:10010300D8E9D9E77582547583BD740312012F753D
:100113008291758300740012012F75D00075813FA1
:10012300751881751902759F00020096C09FF59F8F
:10013300E473D09F22D083D082C09FE493C0E07445
:100143000193C0E0740293F59F2201A803BA03E46C
:1001530003AE03FF0000B400002800280028307518
:10016300A000A000A000A00000080008E001F0002B
:10017300100010001000100010001000500050007C
:10018300500010001000D0070000000000000F0016
:10019300307507001000010081FF0000FF0202021A
:1001A3000491010000EB9002FE90010000D10F02C8
:1001B300F090010000B10202FE90010000D20F0294
:1001C300EE90010000C702FFFF0100FF200204912F
:1001D300010000E89002FE90010000001002F4907C
:1001E300000000000002F290030000A403940B94AB
:1001F3000B940B940B940B940B940B940B940B9404
:100203000B940B940B940BB00DCE0DAA0DFFFF01B5
:10021300E803053F10FF00FEFF12013890B40312FC
:100223000138A6B403120138D3B40312013803B55D
:10023300031201381AB5031201383BB50312013812
:100243006CB503120138BDB503120138D4B50312DE
:1002530001381BAE0312013832AE0312013861AE0E
:10026300031201389AAE03120138C2AE03120138E9
:10027300F0AE0312013807AF031201381EAF0312A9
:10028300013834AF031201385BAF031201386EAF8C
:100293000312013884AF03120138ACAF03120138E3
:1002A300228D02120138218E021201384B8E021266
:1002B3000138A08E02120138C18E02120138DA8E83
:1002C30002120138DC8E02120138FD8E021201384F
:1002D300009002120138BD90021201388A91021275
:1002E3000138EE9102120138859202120138889288
:1002F300021201380E93021201385193021201388F
:10030300A39302120138A69302120138DD9302125D
:1003130001380494021201389A9402120138239589
:10032300021201386C9502120138799502120138D4
:100333007C9502120138DA9502120138F295021205
:1003430001386C96021201386F96021201389296A8
:10035300021201389596021201383C9702120138B5
:100363005F9702120138779702120138A79702129A
:100373000138B49702120138B79702120138239853
:1003830002120138119902120138C7990212013879
:10039300F4AE02120138CFAF02120138FDAF0212E0
:1003A30001387DB0021201389DB002120138DBB072
:1003B300021201382EB10212013896B1021201382D
:1003C30027B202120138F2B20212013801B6021248
:1003D30001386DB70212013890B7021201387C95CB
:1003E300031201381097031201386F970312013873
:1003F300CE9703120138DC970312013805980312D4
:100403000138BBED02120138E3ED0212013811EE9F
:100413000212013848EE02120138B0EE021201381E
:10042300F9EE0212013844EF0212013882EF021290
:100433000138BFEF02120138EDEF0212013894F0D8
:10044300021201389EF002120138ABF00212013899
:10045300DEF002120138A0F102120138ACF10212EF
:100463000138C4F102120138CEF1021201384CF204
:1004730002120138F1B803120138FFB80312013830
:1004830017B9031201382FB90312013847B9031200
:100493000138E2D20112013880D301120138F8D3B6
:1004A300011201380DD50112013847D50112013867
:1004B300F0D501120138C5D60112013829D801122D
:1004C300013880D80112013807D901120138EED959
:1004D300011201383BDA01120138C9DA011201387D
:1004E300EDDA01120138C2DC0112013803DD011219
:1004F300013825DD01120138EADD01120138B0DED1
:1005030001120138E5E00112013829FC011201381A
:100513003FFC0112013865FC011201388DFD011207
:10052300013897FD01120138F0FE01120138F0FF86
:1005330001120138A18403120138438503120138E3
:10054300778503120138B9850312013873870312C3
:1005530001380891011201388691011201389691F0
:100563000112013879920112013883920112013884
:10057300B19201120138BC92011201389593011214
:100583000138F793011201389394011201389796B9
:10059300011201384E9801120138CA98011201382C
:1005A300A79901120138D59C01120138739D0112DC
:1005B3000138D09E0112013843A001120138ECA08A
:1005C3000112013835A1011201386CA10112013861
:1005D30011A2011201388FA20112013862B5011272
:1005E3000138B7B501120138FCB6011201380CB756
:1005F300011201382FB7011201387AB701120138FD
:100603001FB80112013815B901120138DFB90112FF
:10061300013857BB0112013899BB0112013837BCAD
:10062300011201385DBC011201384BBE01120138C1
:1006330050BE0112013831C00112013885C00112C8
:100643000138E7C0011201380FC101120138B3C1EB
:100653000112013875C201120138A6C20112013814
:10066300A9C201120138F1C20112013833C30112C8
:1006730001389AC301120138E9A503120138FCA518
:100683000312013805A6031201381EA6031201380E
:1006930069A60312013844A703120138D3A7031232
:1006A30001381EA803120138142200120138242233
:1006B30000120138872200120138CC2200120138BF
:1006C3007C23001201385524001201387E240012C5
:1006D3000138AE2400120138C226001201389E28C8
:1006E300001201387E2A00120138B62B001201389D
:1006F3002F2E001201381B2F001201386130001217
:1007030001386E3100120138B03100120138E8317E
:10071300001201380232001201386A320012013825
:10072300043700120138A53700120138F9370012D7
:1007330001382038001201385E38001201387D3844
:1007430000120138D13800120138D93900120138AA
:10075300623A0012013857D90212013861D90212E4
:10076300013824DA0212013873DA0212013897DAF7
:1007730002120138E1DA0212013819DB02120138E0
:1007830041DB02120138D4DB0212013810DC021201
:10079300013855DD0212013876DD0212013899DD88
:1007A30002120138CBDD021201389EDE021201383B
:1007B300D8DE021201382CDF0212013876DF021272
:1007C3000138BFDF02120138E8DF021201380DE001
:1007D3000212013887910312013851920312013832
:1007E3003D9303120138B39303120138F5930312B7
:1007F3000138229503120138F4E0011201381DE19A
:100803000112013836E1011201387BE2011201388D
:1008130059E30112013878E30112013805E40112AA
:10082300013848E40112013880E501120138ECE592
:1008330001120138E2E70112013870EA01120138AE
:1008430003EB01120138D7EB011201387AEC0112E4
:1008530001388DED0112013823EE01120138EBB599
:100863000312013854B603120138A8B60312013833
:10087300D7B603120138168903120138838903128C
:100883000138CE8903120138C38A03120138BF8BA2
:1008930003120138A98C0312013835E00212013822
:1008A3007CE00212013855E10212013850E20212D3
:1008B30001382FE3021201389BE302120138B7E437
:1008C300021201381EE50212013821E50212013835
:1008D3004CE502120138BDE50212013860E602124E
:1008E300013875E602120138BDE602120138D6E678
:1008F30002120138D9E602120138EF9C03120138C3
:100903002B9D03120138699D03120138339E031294
:100913000138A69E03120138E19E031201381F9F7E
:10092300031201384F9F03120138769F03120138D7
:10093300E19F0312013823A0031201383C66001221
:100943000138EC6700120138556900120138FC695F
:1009530000120138436A00120138876A0012013815
:10096300BD6A00120138206B00120138366B001289
:100973000138816B00120138C16B00120138E46B3E
:1009830000120138356C001201389A6C00120138DC
:10099300EA6D00120138D36E001201387470001230
:1009A30001380875001201383075001201386D7571
:1009B30000120138817700120138277900120138BB
:1009C30043A303120138B5A3031201380BA4031286
:1009D30001384FA4031201386FA403120138BCA4D9
:1009E3000312013804A50312013857A50312013875
:1009F300A8A503120138C93A00120138123B0012AC
:100A030001383F3B00120138723B00120138823B30
:100A1300001201388E3B001201389F3B001201384F
:100A2300743C00120138D23C00120138073D001219
:100A33000138A33E00120138EF3E001201384B3F4C
:100A430000120138474000120138CD41001201382D
:100A5300A44200120138B44200120138D0420012FD
:100A63000138D342001201388D4300120138564435
:100A730000120138FC44001201385B4500120138B2
:100A8300E34500120138484600120138D7460012E8
:100A93000138A047001201383D4800120138C4480C
:100AA300001201381B49001201387C490012013839
:100AB300B64900120138644A001201385C4C001236
:100AC3000138AC4C00120138EF4C00120138644D70
:100AD30000120138F04D001201383B4E001201386C
:100AE300604E00120138B14E00120138D34E00128D
:100AF3000138184F00120138874F00120138C94FCF
:100B030000120138C9500012013851510012013846
:100B13002252001201383B5200120138C8B80212A7
:100B230001381BB90212013827B902120138FCB986
:100B33000212013823BA021201385EBA02120138D6
:100B4300CABA02120138FEBA0212013837BB0212C6
:100B530001384FBB02120138A8BB02120138C1BBD6
:100B6300021201380ABC021201381DBC02120138FC
:100B730037BC021201384DBC0212013869BD0212A2
:100B830001387ABE02120138C7BF02120138ACC065
:100B930002120138F27F00120138DEF70212013827
:100BA30043FB021201385BFC02120138008002127F
:100BB3000138F38502120138F98502120138798868
:100BC30002120138DDF20212013888F302120138F1
:100BD30038F4021201385DF40212013854F602129D
:100BE3000138A7F70212013843A30112013877A392
:100BF30001120138CBAB0112013817AD01120138D4
:100C030034AE01120138BEAF01120138A0B0011297
:100C13000138DAB001120138FDB0011201383FB1D9
:100C23000112013889B10112013893B1011201385F
:100C33003FB20112013813B30112013867B3011235
:100C43000138C9B3011201381CB4011201384BB485
:100C5300011201388AB4011201385999031201387B
:100C6300CF9903120138E59903120138229A03122E
:100C730001385A9A03120138D79A03120138129B8A
:100C8300031201388D9B03120138C99B03120138EB
:100C9300D29B03120138DE9B03120138F89B031227
:100CA30001381D9C03120138339C031201385C9CEC
:100CB30003120138BF9C03120138FDE6021201380A
:100CC30010E7021201382AE70212013853E7021231
:100CD300013896E702120138D5E70212013813E80A
:100CE3000212013878E8021201388DE80212013845
:100CF300A4E802120138B2E802120138C1E8021274
:100D03000138D6E802120138EBE802120138F6E89E
:100D13000212013802E9021201380FE90212013806
:100D230022E9021201382DE90212013852E90212B6
:100D33000138FBE90212013810EA0212013825EAF0
:100D4300021201383FEA021201385AEA021201384C
:100D530077EA0212013882EA021201383EEB0212EC
:100D630001382AEC021201384FEC0212013859EC17
:100D7300021201386DEC021201388CEC02120138B8
:100D8300EDEC02120138F3EC02120138F9EC021215
:100D93000138FFEC021201380BED021201383EED6F
:100DA30002120138BDA402120138E9A4021201386B
:100DB300CDA50212013867A8021201387DA90212DB
:100DC30001389AAA021201383DAB02120138E3AB93
:100DD300021201389FEE0112013821EF011201388E
:100DE300CAEF0112013812F10112013820F3011286
:100DF300013806F4011201383BF4011201385DF4A5
:100E03000112013806F501120138D6F60112013834
:100E1300FFF60112013877F701120138A9F7011221
:100E23000138B6F70112013801F80112013825F82B
:100E33000112013876FA0112013880FB01120138E0
:100E4300DCFB0112013864C40112013875C50112BB
:100E5300013859C60112013863C60112013885C62B
:100E63000112013891C60112013835C80112013847
:100E730062C80112013878C901120138CDC90112C3
:100E830001381CCB01120138F1CB011201384DCCD2
:100E930001120138B8CC01120138EDCC011201382E
:100EA30030CD01120138FACF0112013812D00112EC
:100EB3000138A3D001120138B1D001120138FED09C
:100EC300011201380CD10112013878D10112013815
:100ED300F3D1011201384AD20112013862AC031274
:100EE300013887AC03120138FDAC0312013868D214
:100EF3000212013871D2021201387AD20212013879
:100F030052D30212013803D50212013833D502122B
:100F130001385ED5021201388ED502120138B9D5D7
:100F230002120138EDD50212013819D60212013826
:100F33005CD60212013887D602120138CED60212CD
:100F4300013823D70212013865D702120138BFD7FF
:100F530002120138EAD70212013839D802120138D5
:100F630069D80212013894D802120138B7D8021294
:100F7300013809BC0312013835BC0312013862BCC5
:100F8300031201386CBC031201387CBC0312013814
:100F930069C20212013873C202120138B4C20212CA
:100FA3000138FDC20212013837C3021201388DC362
:100FB30002120138AEC3021201385DC602120138B3
:100FC30066C602120138BAC602120138E3C602121B
:100FD3000138EDC6021201385BC702120138EBC7B4
:100FE3000212013846C80212013874C802120138CD
:100FF300FCC8021201383BC90212013870C902123F
:10100300013882C902120138A1C902120138AAC9E2
:101013000212013871CA02120138FAB703120138F9
:1010230071AA03120138A7AA03120138DBAA03121B
:10103300013828AC0312013873BB0312013889BB92
:101043000312013893BB03120138DDBB03120138CD
:10105300008003120138138003120138D480031275
:101063000138138103120138308103120138698179
:1010730003120138B68103120138E88103120138E3
:101083001F82031201382884031201389484031247
:101093000138F5BC03120138F8B2031201381BB34F
:1010A300031201384AB303120138E2B303120138C1
:1010B300FAB3031201383CB403120138C6790012A3
:1010C3000138087A00120138887A001201389B7AB5
:1010D30000120138F07A00120138447B0012013803
:1010E300897B00120138987B00120138477C00127B
:1010F3000138A27C00120138F17C001201384B7DCB
:1011030000120138587E00120138507F0012013856
:101113008D7F0012013886BC031201386D52001214
:101123000138375400120138E55500120138925640
:101133000012013812570012013898570012013873
:10114300C15700120138135800120138BB5B00125B
:1011530001383B5C00120138415D001201387A5DB1
:1011630000120138C45D001201380B5F0012013810
:10117300365F001201388C5F00120138D55F001210
:1011830001382D6000120138746000120138A36029
:1011930000120138BC6000120138A161001201384D
:1011A300D561001201388662001201389D62001277
:1011B3000138CF62001201387164001201380565ED
:1011C30000120138436500120138C2BA0312013814
:1011D300D3BA03120138ACBD03120138EBBD0312BD
:1011E300013871BE03120138E0B903120138F0B9B6
:1011F3000312013808BA03120138BCBA03120138CA
:10120300F8B6031201387DB703120138E1B70312B0
:101213000138BEAF03120138E7AF031201384DB0F6
:10122300031201386DB003120138BEB00312013846
:1012330019B10312013853B10312013856B1031225
:101243000138A6FC02120138BBFC02120138DCFD96
:10125300021201385FFE02120138D3FE0212013876
:10126300EDFE0212013800FF021201380EFF0212D6
:10127300013828FF021201383FFF0212013869FFCB
:1012830002120138BFFF021201386B8D03120138BD
:10129300828D03120138FC8D03120138E08E031294
:1012A3000138B790031201381C910312013873916E
:1012B30003120138F87F0012013848A803120138DD
:1012C300C7A90312013828AA031201386EAA031210
:1012D300013860B103120138B2B10312013825B2EB
:1012E3000312013892B2031201386BA003120138C2
:1012F30095A00312013864A10312013840A203121E
:101303000138D1A2031201389FCA021201386BCBF4
:1013130002120138ACCB021201380ACC0212013896
:101323005ECC02120138BCCC0212013852CD02123B
:1013330001385ACE02120138E4CF0212013882D0AA
:1013430002120138E9D00212013800D10212013829
:101353001FD2021201383F9A02120138469B021231
:101363000138249C02120138459E02120138169F4F
:10137300021201383D9F0212013874A10212013892
:10138300C4A10212013862A20212013893A302120D
:1013930001383BA402120138C57F00120138F5BDA4
:1013A300031201382BBE0312013853BE03E06670EB
:1013B3001008A3E066700A08A3E066700408A3E0BF
:1013C3006622C3E7960809E7960809E7960809E73E
:1013D3009622C3E09608A3E09608A3E09608A3E04C
:1013E3009622C008C3E096F50808A3E096420808D1
:1013F300A3E096420808A3E09645087001D3D008FD
:1014030022080808EAC0E0EBC0E086F0E7A4FA1877
:101413000986F0E7A42AFA180986F0E7A42AFA183D
:101423000986F0E7A42AFA1986F0E7A4FBE5F02A77
:10143300FA190886F0E7A42BFBE5F03AFA190886B7
:10144300F0E7A42BFBE5F03AFA18180986F0E7A4B5
:10145300C5F02BFBE43AFA1908E7C5F0C6A426F653
:10146300E5F03BFBE43AFA1886F0E7A4F6E5F0086A
:1014730026F6E43B08F6E43A08F6D0E0FBD0E0FABF
:1014830022E4CFC0E0E4CEC0E0E4CDC0E0E4CCC0D1
:10149300E075F020C3E633F608E633F608E633F6E4
:1014A30008E633F6181818EC33FCED33FDEE33FE83
:1014B300EF33FFC3EC9709ED9709EE9709EF9719FF
:1014C3001919400FFFEC97FC09ED97FD09EE97FE04
:1014D300191906D5F0BEECF709EDF709EEF709EF98
:1014E300F7191919D0E0FCD0E0FDD0E0FED0E0FF01
:1014F300226016080808C6C313C618C613C618C642
:1015030013C618C613C6D5E0EA22700908080822D4
:101513006016181818C6C333C608C633C608C633C0
:10152300C608C633C6D5E0EA22E627F60809E63739
:10153300F60809E637F60809E637F622E026F60844
:10154300A3E036F608A3E036F608A3E036F622E079
:1015530026F008A3E036F008A3E036F008A3E0364F
:10156300F022C3E697F60809E697F60809E697F628
:101573000809E697F622C3E096F008A3E096F00880
:10158300A3E096F008A3E096F022E657F60809E6F2
:1015930057F60809E657F60809E657F622E056F625
:1015A30008A3E056F608A3E056F608A3E056F62291
:1015B300E056F008A3E056F008A3E056F008A3E0D5
:1015C30056F022E066F608A3E066F608A3E066F6A6
:1015D30008A3E066F622E0F608A3E0F608A3E0F627
:1015E30008A3E0F622E6F008A3E6F008A3E6F00875
:1015F300A3E6F022E0FAA3E0FBA3E0FCA3E0FD22D4
:10160300EAF0A3EBF0A3ECF0A3EDF022CAC0E0E60E
:10161300F0A308DAFAD0E0FA22CAC0E0E0A3C58258
:10162300CCC582C583CDC583F0A3C582CCC582C595
:1016330083CDC583DAE6D0E0CA22C3E498F8E499FF
:10164300F912167E8026C3E49AFAE49BFBE920E7AD
:10165300E912167EE498F8E499F922C3E498F8E4D1
:1016630099F912167EE498F8E499F9C3E49AFAE436
:101673009BFB22EB20E7CFE920E7E0B90010BB009A
:1016830008E88AF084F8AAF022E4FBC8FA22EB7097
:10169300227B10C833C8C933C9335007C39AC3DB8D
:1016A300F280069A50012ADBEAC833F4C8C933F43E
:1016B300C9FA2275F008E4C833C8C933C933C99AD3
:1016C300C99B5004C92AC93BD5F0ECFBC833F4C805
:1016D300E4C9FA22600D08C6A2E713C618C613C6EA
:1016E300D5E0F322600C08C6C313C618C613C6D5CB
:1016F300E0F422700422600D18C6C333C608C63353
:10170300C6D5E0F41822251810AF08F518400215C5
:10171300198008F51840021519D2AF22C0D0251838
:1017230010AF08F518500205198008F51850020586
:1017330019D2AFD0D0222518F58210AF08F5184082
:101743000215198008F51840021519D2AF851983BF
:10175300222518F582E43519F58322E4732518C58B
:1017630082C0E0E51934FFC583C0E0E518C3958264
:1017730024F810AF0885831985821880088583199A
:10178300858218D2AFCEF0A3E520F0A37808E6084F
:10179300F0A3DEFAEFF0A3E58124FAF8E608F0A35C
:1017A300E608F0A3E608F0A30808E608F0A3E608B5
:1017B300F0A315811581D0E0FED0E0F815811581E5
:1017C3001581E8C0E0EEC0E0222518C582C0E0E53F
:1017D3001934FFC583C0E0E518C3958224F910AF1F
:1017E300088583198582188008858319858218D214
:1017F300AFCEF0A3E520F0A37808E608F0A3DEFA65
:10180300EFF0A3E58124FBF8E608F0A3E608F0A3D4
:101813000808E608F0A3E608F0A315811581D0E0D7
:10182300FED0E0F815811581E8C0E0EEC0E0228526
:101833001983851882E0A3FEE0A3F5207808E0A3CE
:10184300F608DFFAE0A3FFE0A3C0E0E0A3C0E0E016
:10185300A3C0E0E0A3C0E0E0A3C0E010AF0885822E
:10186300188583198008858218858319D2AFD083A0
:10187300D082020135851983851882E0A3FEE0A397
:10188300F5207808E0A3F608DFFAE0A3FFE0A3C0A1
:10189300E0E0A3C0E0E0A3C0E0E0A3C0E010AF0835
:1018A3008582188583198008858218858319D2AFAC
:1018B300D083D08222C0D02518C582C0E0E5193478
:1018C300FFC583C0E0E518C3958224F310AF0885F4
:1018D30083198582188008858319858218D2AFC839
:1018E300F0A3E9F0A3EAF0A3EBF0A37908E709F08A
:1018F300A3D8FAECF0A3EDF0A3EEF0A3EFF0A3D09E
:10190300E0F0A3D0E0F0A3D0E0F0A3E520F0A3E55E
:10191300F0F0A322851983851882E0C0E0A3E0F9E3
:10192300A3E0FAA3E0FBA37808E0F608A3DFFAE05C
:10193300FCA3E0FDA3E0FEA3E0FFA3E0C0E0A3E07F
:10194300C0E0A3E0F5D0A3E0F520A3E0A3F5F010F9
:10195300AF088583198582188008858319858218C5
:10196300D2AFD082D083D0E0F8D0E03274048006C6
:10197300740280027401C0E0F404121739D0E0123B
:10198300160F227404800474028000CCC0E0EDC002
:10199300E0E518C39CCCAD1950011D10AF068C189F
:1019A3008D1980068C188D19D2AF12161CD0E0FD4C
:1019B300D0E0FC22D083D082E9C0E0E493A3C386C5
:1019C300F0C5F095F0F908E493A386F0C5F095F01F
:1019D300700BE493A3C3994005E9048002A3E47563
:1019E300F002A42582F582E5F03583F583D0E0F992
:1019F300E493A3C0E0E493C0E022D083D082ECC0A0
:101A0300E0EDC0E0E493A3FCE493A3FDED4C600D93
:101A1300121A49EC24FFFCED34FFFD80EFE493A39D
:101A2300FCE493A3FDED4C600D121A88EC24FFFC3B
:101A3300ED34FFFD80EFD0E0FDD0E0FCE493A3C0E4
:101A4300E0E493C0E022C0E0C3E4939608740193FA
:101A53009618400FE4936670080874019366187033
:101A6300007019A3A3C3E49396087401939618A373
:101A7300A3400DD0E0D0E0D0E0021A39A3A3A3A382
:101A8300A3A3D0E022C0E0C0F088F0E4936670081E
:101A93000874019366187000A8F0A3A3700BD0F02C
:101AA300D0E0D0E0D0E0021A39A3A3D0F0D0E022F6
:101AB40074F51217CCEAFEEBFFEE2434F8EF340091
:101AC400F988088909EE2435121BECF8EE24371244
:101AD4001BECF50AEC850AF0A4FCAAF0850AF0EDEB
:101AE400A42AFDE82CF8E43DF97A257B0012167E41
:101AF400EA850882850983F05407F87401B8000266
:101B04008004C333D8FCC0E0E0131313541FF8EE71
:101B140028F8EF3400F9E8245DF582E93400F58310
:101B2400D0E0F8E0586008850882850983801DEEBE
:101B34002436121BECF5F0EA84A8F0EE28F8EF3412
:101B440000F9E82438F582E93400F583E0F97F04EC
:101B540002187874F51217CCEAFEEBFFEE24341267
:101B64001BECC0E0EE2435F582EF3400F583D0E0C1
:101B7400F08E828F83A3A3A3A3A3E0FAA3E0FB8E3A
:101B8400828F83A3A3A3A3A3A3A3E0FCA3E0FDEC00
:101B9400C39AF50AED9BF50BEE2480F508EF3400AB
:101BA400F509850882F583E06401702BEE2481F544
:101BB40082EF3400F58312198A121BF5740212178E
:101BC4001FE960137CE07D07EEFAEFFB120AB08593
:101BD4000882850983E4F0AC0AAD0BEEFAEFFB1240
:101BE4001AB412219A021B52F582EF3400F583E0F5
:101BF40022C082C083851882851983E0F8A3E0F9A6
:101C0400C3EA9CEB9D500BC3EC98ED99401279010B
:101C14008010C3EA98EB9940F5C3EC98ED9950EE27
:101C24007900D083D0822200851B87851CC622C000
:101C3400E074EF1218B8759B00906182E0A2E64050
:101C440003021CF4E591A2E64003021CF47591BF63
:101C5400900499E064057008120C8A120C968003B3
:101C6400120C90751B00120D08E990049AF079008B
:101C7400120CEA120A1A7A017B00900498E0F91215
:101C84000FF0907803E064426003021D3D90081554
:101C9400E014F06003021D3DC2AF121CA100781EC7
:101CA400D0E0F618D0E0F6E59F5407F9700590905F
:101CB400D880039090D478081215D9E9C4C0E0788C
:101CC4001DE65508F50808E65509F509740B78086A
:101CD4001216E7D0E02508F8906270E0A2E740F819
:101CE400E8C333906272F0906270E0D2E0F0804911
:101CF400E0A2E55024E591A2E5501E7591DF900421
:101D040099E0640D70139004BBE004F06428700241
:101D1400E4F07A00E0F9120D98906181E0A2E350BA
:101D240009E5E9A2E3500375E9F7A3E0A2E7500946
:101D3400E591A2E7500375917F7F04021917C0E073
:101D4400C0D0C082C083906183E0A2E05009E5BFA7
:101D5400A2E0500375BFFEE0A2E15009E5BFA2E195
:101D6400500375BFFDE0A2E25009E5BFA2E25003B3
:101D740075BFFBE0A2E35009E5BFA2E3500375BFC2
:101D8400F7E0A2E45009E5BFA2E4500375BFEFE019
:101D9400A2E55009E5BFA2E5500375BFDFE0A2E666
:101DA4005009E5BFA2E6500375BFBFD083D082D0EF
:101DB400D0D0E032C0E074F21218B8E5A7A2E45023
:101DC4000FE5A1A2E4500953A7EF75A1EF121E0C71
:101DD400E5A7A2E5500CE5A1A2E5500653A7DF75DF
:101DE400A1DFE5A7A2E15009E5A1A2E1500375A195
:101DF400FDE5A7A2E2500CE5A1A2E2500653A7FB21
:101E040075A1FB7F0102191774F81217CC751B0119
:101E1400900499E0640670077A007B00120C72A2A9
:101E2400AFE433FED2AF90049FE0640170187A20CF
:101E34007B00900498E0F91210747A207B009004DF
:101E440098E0F9120FF6906182E0D2E6F09008145F
:101E5400E0602185C61C801690049EE06401700831
:101E6400E5C654F84405F5C653BEFC121C2C740197
:101E7400651B60E4EEA2E092AF7F0102187874E97A
:101E84001217CC74FA121709EAFEEBFF8C088D09BD
:101E9400900499E024F7C3940550069090C4021F5F
:101EA400A9120C128A0A8B0BEA450B7003021FA6B7
:101EB400120CA88A0C8B0D120CA8EA650C7003EBAB
:101EC400650D60ECEEFCEFFD851882851983AA820E
:101ED400AB83120CAE850A82850B83A3A3780C1204
:101EE40015D99090E0780C1215A085188285198375
:101EF40078141215D99090E078141215A0780C7902
:101F0400141213C5501F780C79141215659090643F
:101F1400780C1213E54047850C10850D11850E12BF
:101F2400850F1380418514108515118516128517A8
:101F3400137810790C12156590906478101213E5DB
:101F4400501C75100075110075120075130178107E
:101F540079141215657810790C12152C800890905C
:101F6400C478101215D97409781012150D90908444
:101F7400780C1215D97810790C121484900499E015
:101F84006408600AE064066005E06405701C9090D3
:101F94004478101213E55012909078781012153F7F
:101FA40080089090E478101215D9850882850983F9
:101FB40078101215E8740612171F7F10021878742F
:101FC400F71217CC120CC0900812E0640170109044
:101FD4006245E4F0A3F053F4F343FE0C5390F31280
:101FE4000C60E5C654804449F5C6E59E547F6449B7
:101FF40070F8906185740FF0900810E0F47002A3FB
:10200400E0602C750801750900900810E07808124A
:1020140016F6E508F4FAA3E0600814600A14600CEC
:10202400800DEA52808008EA52908003EA52A07937
:10203400007F0202187874F71217CCE9FE90220C84
:10204400E493F46008E493F91209FC800953C68010
:10205400E59E547F70FA120C66900812E0640170D9
:1020640003120A32900810E0F47002A3E0602A75AB
:102074000801750900900810E078081216F6AA08FD
:10208400A3E0600814600A14600C800DEA428080AA
:1020940008EA42908003EA42A0120C128A088B09D3
:1020A400A808A909E8496017E5E170FCE82414F5DB
:1020B40082E93400F583E0F874FF68600288E17413
:1020C400016E700A7A01900498E0F912104402201B
:1020D4003574F11217CC8A088B098C0A8D0B740F96
:1020E400121754780C1215D99090E078081215A0A4
:1020F4009090E0780C1215A07808790C1213C55052
:10210400157808790C12156590906478081213E517
:10211400401579018013780C790812156590906444
:10212400780C1213E540EB79007F0802187874EDFF
:102134001217CC8A088B098C0A8D0B74131217544E
:10214400780C1215D99090E078081215A09090E0C0
:10215400780C1215A0780C79081213C54011780870
:10216400790C121565AA08AB09AC0AAD0B8022756F
:1021740010007511007512007513017810790C1296
:1021840015657810790812152CAA10AB11AC12AD94
:10219400137F0C021878C082C083E9906000F0D0ED
:1021A40083D08222C0E074F21218B8A2AFE433FEE6
:1021B400D2AFE589A2E15003121230758900C2C57D
:1021C400751A00EEA2E092AF7F01021917C0E07405
:1021D400F21218B8A2AFE433FED2AFE58BA2E050FE
:1021E40003121230758B00C2E880D5C0E0C0D0E87D
:1021F400C0E0E5A8D2AFC2C7751A00A2E792AFD07B
:07220400E0F8D0D0D0E03279
:10220C00FFFFFFFFFFFFFFFFC082C083E9900FFFBE
:10221C00F0D083D08202013574F6121760E9900376
:10222C0064F07CA47D037AFF7BFF1207327A008A6C
:10223C0008750900740278081216F674652508F8FA
:10224C0074033509122273A3F00AEAC3940340DF26
:10225C0079051206C0900364E0F91205E87A4A7B0E
:10226C00071209000237F4F98882898374FF12225D
:10227C0080E4F022F0A3123681A32274F4121760CA
:10228C008A088B09EB54806030900364E0F9120FDC
:10229C00D88A0A8B0BAE0AAF0BEE4F60138E828F6F
:1022AC0083E064B070031206D2EEFAEFFB120FC695
:1022BC00AA08E5096480FB80047A007B00022450A4
:1022CC0074F212176074FC121709EAFEEBFF741219
:1022DC001217541236CAEE4F700302236F74021297
:1022EC001754EEF0A3EF1226ABECF0A3ED1226ABD5
:1022FC00AA82AB831205E2E9F50A706AE508450982
:10230C0060648E828F831236ABEE4F60567A067BFA
:10231C000012102C8A0C8B0DA80CA90DE849700525
:10232C00750A13804188828983E4122280EEF0A31F
:10233C00EF1236DBE508F0A3E509F09003721224E6
:10234C004A9003727005123168801B12315680035B
:10235C00EAFCEBFD8C828D8312244A70F38C828D07
:10236C008380E3750A02A90A740412171F0238BE8F
:10237C0074F2121760890AE975F045A4FEAFF0906B
:10238C000371E4F090036712244A6028121032792A
:10239C00008908750900740278081216F67467250E
:1023AC0008F58274033509F583E4F0A3F009E9C359
:1023BC00940340DDEEFAEFFB12102C8A088B09EA2D
:1023CC0045096075EEFCEFFD7900120FAE7D008DB6
:1023DC000C750D007402780C1216F67467250CF847
:1023EC007403350DF9E50AF5F0EDA475F017A4FAB0
:1023FC00ABF0E5082AFAE5093BFB88828983EAF011
:10240C00A3EBF07E00801BEE75F017A4FAABF088FE
:10241C00828983E02AFCA3E03B8C82F583E4F0A361
:10242C00F00EEEC3950A40DF0DEDC3940340A0E51A
:10243C000A900371F07900800279130238BE122DD4
:10244C00FAEA4B227F0402183274F41217607900F6
:10245C00EAA2E0501B7508207509907808121973D0
:10246C007C047D007A017B101206BA740212171FCD
:10247C0080D2C082C0839003721236C549601C881A
:10248C00828983A3A3E06A7003A3E06B88828983AB
:10249C0070E7A3A3A3A3122DF680047A007B00029D
:1024AC00221D74EE12176074FC121709EAFEEBFF82
:1024BC00851882851983E4F0A3F0EE2402123148CA
:1024CC00EE2405123688EE2404F50EEF122A55E0A0
:1024DC0024FE603924FC604624FE605224FE605EBB
:1024EC0024FE70030225C124FE700302262524FE5F
:1024FC00700302263424FE700302264324FC70036E
:10250C0002265224FE700302266102269E90038B43
:10251C007417F0A3E41226B312025802269E8518F3
:10252C0082851983AC82AD831206D802266E85187B
:10253C0082851983AC82AD831206DE02266E850C71
:10254C0008850D097402121754AC82AD838508827C
:10255C00850983122DF61206068A0C8B0DAC0CAD78
:10256C000DEC4D603BE4F50CF50D780C1219737500
:10257C000C8B750D03780C121973750C8C750D037F
:10258C00780C121973740812175412198A1239C85C
:10259C0012171FE9F50C700B122DEC120270800F44
:1025AC00750C018508828509831226A11231688574
:1025BC000C080226717402121754AC82AD83850C80
:1025CC0082850D83122BA8603C850C82850D83A31C
:1025DC00A312198A75108B75110378101219737563
:1025EC00108C751103781012197374081217541289
:1025FC00198A1239C812171FE9F509700B122DEC44
:10260C00120276800F750901850C82850D831226C6
:10261C00A1123168850908804C851882851983AC14
:10262C0082AD831206E4803A851882851983AC82C8
:10263C00AD831206EA802B851882851983AC82AD96
:10264C00831206F0801C851882851983AC82AD83B9
:10265C001206F6800D851882851983AC82AD831223
:10266C0006FCE9F508E50860298E828F83A3E064F7
:10267C0014601F850E82850F83E090038B1226ABAE
:10268C001239A090038C123168E508A31226B312FC
:10269C0002520230571239A485188285198322F010
:1026AC0085188285198322F07C8B7D03850A8285AF
:1026BC000B83122DFA2274EE12176074FC12170998
:1026CC008A0A8B0B8C0E8D0FEA2405F508EB34006F
:1026DC00F5097C157D0079007A8B7B03120FAEE532
:1026EC00082402F50CE50912368B851882851983AE
:1026FC0085821085831178101219738508828509DB
:10270C0083A3A3A3A3122B9F121973E5082405F529
:10271C0010E5093400F5117810121973850C8285B7
:10272C000D83122F0D120600740612171F8A108BC0
:10273C0011AE10AF11E50A2402F50AE50B12314B6C
:10274C00EE4F700302288080177402121754122D5A
:10275C00F688828983EAF0A3EBF090038BE004F017
:10276C0090038BE0C394054003022880E4F510F538
:10277C0011781012197375107475110378101219E1
:10278C00737510757511037810121973740612177E
:10279C005412198A7910EEFCEFFD1239CA12171F68
:1027AC00E9705E850882850983A3A3A3A3A3A3A3D1
:1027BC00E0F8900374E0687048122B9F1219737C38
:1027CC00757D03E5082408FAE5093400FB120FA80F
:1027DC00740212171FE960298E828F83A3A3A3A30F
:1027EC00122DF690038BE0F510740278101216F689
:1027FC00748C2510F58274033511F583EAF0A3EB84
:10280C00F0740212175485821085831178101219F6
:10281C0073740212175412198A850C82850D831257
:10282C002E1C12171F8A108B11AE10AF1190038B38
:10283C00E0F510751100740278101216F6748B25E1
:10284C0010F874033511F988828983A312244A7015
:10285C000302274CE82403080808E93400F9EE4F7A
:10286C0060030227558882898374FFF0A3F09003DC
:10287C008BE004F090038BE0600A122DEC120264E2
:10288C007900800B85088285098312315F790A02F1
:10289C00305774EA12176074FE1217098C128D13DC
:1028AC00EA2405F50CEB1239B21236AF7508007537
:1028BC000900EA2402F510EB3400F5118518828525
:1028CC00198385820A85830B780A121973850C8209
:1028DC00850D83A3A3A3A3122A6B121973E50C24F1
:1028EC0005F50AE50D12314B780A121973850C8225
:1028FC00850D83122A6F120600740612171F8A0A9E
:10290C008B0BEA450B7003022A20EA2404F50EEB2C
:10291C00122A551236AF8A828B83A3A3A3E0F985C2
:10292C001082851183122E006003022A20E4F51414
:10293C00F51578141219737514747515037814122F
:10294C0019737514757515037814121973740612AE
:10295C00175412198A7913AC0AAD0B8510828511A4
:10296C00831239D012171FE9F5096003022A20904F
:10297C000374E0F8E5087009E0240290038CF08001
:10298C001790038CE0FCE82402FAE43400FBEA6CB8
:10299C007001EB6003022A24850882AA82122B960E
:1029AC009414122B8E506D850E82850F83E0C0E03F
:1029BC00122DC6D0E0F00508850E82850F83A3E0AA
:1029CC00C0E085080A748D250AF58274033400F57D
:1029DC0083D0E0F00508900374122A6B1219737CF3
:1029EC00757D0385080A748D250A122A5F12171F3C
:1029FC00900374E02508F50874FF6E700374FF6F84
:102A0C006012EE24010EEF3400FFE508C39414505D
:102A1C00030228C8E5086013122E0A85108285115E
:102A2C0083122DF612026A79008014E50970037581
:102A3C00090A851282851383EEF0A3EFF0A90974BD
:102A4C000212171F7F0E0218323400F50F850E820A
:102A5C00F58322FA74033400FB120F9674022212CF
:102A6C0036EA22A3A3122A7522123156FDEEFAEF92
:102A7C00FB2274EE12176074FE1217098C0E8D0F68
:102A8C00EA2405F50CEB12368B750B0090038BE4E6
:102A9C00F0F50AEA2402F508EB3400F509804490BD
:102AAC00038BE0FA900374E0F8122B969417122B18
:102ABC008E400D90038BE0F87416C398900374F05D
:102ACC00122B9F1219737C757D03748C2AFA740374
:102ADC00122A6212171F900374E0F890038BE028FF
:102AEC00F0050AE50C2416F582E50D3400F583E0BB
:102AFC00F8E50AC398507490038BE0C39416506B9E
:102B0C00E50AC333F8E433F9E50C28FEE50D39FF8B
:102B1C00851882851983AC82AD838E828F83122BAC
:102B2C00A87008750B0112315B8050E4F510F5119B
:102B3C0078101219737510747511037810121973BB
:102B4C0075107575110378101219737406121754D9
:102B5C0012198A79168508828509831239D01217C1
:102B6C001FE9F50B7003022AAB80BB7C8B7D0385C0
:102B7C000882850983122DF612027CA90B740202BD
:102B8C003059E99400C365D03322EA28F8E43400C4
:102B9C00F9E822E0F51075110078102212304E8AF7
:102BAC00108B11AC10AD11EC4D2274EA121760743D
:102BBC00FC1217098A0C8B0D8C128D13EA2405F567
:102BCC000AEB12314B750800750900E50A2402F571
:102BDC0010E50B3400F511740212175485820E8522
:102BEC00830F780E121973850A82850B83A3A3A316
:102BFC00A3123690121973E50A2405F50EE50B3471
:102C0C0000F50F780E12197385108285118312311D
:102C1C0051122DF0120600740612171F8A0E8B0F1C
:102C2C00AE0EAF0FE50C2402F50EE50D3400F50FDA
:102C3C0080388882898374FFF00508122DD274FFC6
:102C4C00F00508900374E0F50C750D00780C121962
:102C5C00737C757D0385080C748D250C122A5F120C
:102C6C00171F900374E02508F508EE4F60278E823D
:102C7C008F83A3A3A3E0F9850E82850F83122E0008
:102C8C00EE2404123688E96027850C82850D8312A8
:102C9C002DE2123168E5087003022DAC122E0A8564
:102CAC000E82850F83122DF61202827900022DC13D
:102CBC00E4F514F51578141219737514747515035D
:102CCC007814121973751475751503781412197319
:102CDC00740812175412198A7911EEFCEFFD850E47
:102CEC0082850F831239D012171FE9F509709A8566
:102CFC000882AA82EA9003747009E0240490038C81
:102D0C00F08025E0F890038CE0F514E82404FCE452
:102D1C003400FDEC65147001ED7081122B96941249
:102D2C00122B8E4003022CA8850C82850D83E0C0EB
:102D3C00E0122DC6D0E0F00508850C82850D83A32A
:102D4C00E0C0E0122DD2D0E0122E2585820C8583B6
:102D5C000D780C121973740412175412198A8510F9
:102D6C0082851183122E1C12171F8A0C8B0DAE0C30
:102D7C00AF0D85080C748D250CF874033400F9EE36
:102D8C004F7003022C3E851882851983E088828956
:102D9C0083122E25A3E0C0E0122DD2D0E0022C4CE1
:102DAC00E509700375090A850A82850B83122DE2E9
:102DBC00123168A9097404022A4D748D2AF58274A3
:102DCC00033400F5832285080C748D250CF5827470
:102DDC00033400F583221239A485128285138322D1
:102DEC007C8B7D03850A82850B83122DFA22E0FAF7
:102DFC00A3E0FB22122DFA1205EEE9F5092290034D
:102E0C008CE0F5F0E5088490038BF07C8B7D03223D
:102E1C00122A7512060C740422F005088518828596
:102E2C0019832274EC12176074FE1217098A088B2E
:102E3C00098C0E8D0FEA2405FEEB3400FF1230389E
:102E4C00EE2418123688EA450B7003022EDB123082
:102E5C00215029122F008A108B11EA4511606B79D1
:102E6C0012AC0AAD0B850882850983122DF68510EC
:102E7C008285118312175EE9F50A7058E4F50AF59C
:102E8C000B780A1219738E828F83A3A3E0F50A784C
:102E9C000A121973EE2403123148780A1219738E30
:102EAC00828F83122F0D120720740612171FE9F55B
:102EBC000A7021850C82850D83E0701F8508828540
:102ECC000983122DF61202888011750A0E8009757D
:102EDC000A018004E50A600312315B850C82850DC2
:102EEC0083E0600479008002A90A740212171F7F24
:102EFC000C021832851882851983122DFA12070ECE
:102F0C0022123156FD850882850983122DFA22740E
:102F1C00EE12176074FE1217098A088B098C0C8D3F
:102F2C000DEA2405FEEB3400FF750E00123038EA72
:102F3C00450B7003022FFF123021502C122F008AE8
:102F4C000E8B0FEA450F604A7912AC0AAD0B85085F
:102F5C0082850983122DF6850E82850F8312175EEA
:102F6C00E9F50E600302300285088285098312326E
:102F7C0062AA0AFB12301370147AFF7BFF12301313
:102F8C00606C88828983E50AF0A3E50BF0750A0072
:102F9C008007750E0E805F050A900371E0FAE50A52
:102FAC00C39A504AE50A75F017A4FAABF0888289E7
:102FBC0083A3A3E02AFAA3E03BFB8A828B83123122
:102FCC0051EC4D70D2750A17750B00780A121973F3
:102FDC00EEFCEFFD120F96740212171FEEFCEFFDC4
:102FEC00850882850983122DF612028E8014750EC7
:102FFC00098003750E0112399C850C82850D831294
:10300C003168A90E022B891207028A108B11A810A5
:10301C00A911E84922E5082402F508E5093400F570
:10302C00098A828B83A3A3A3E0A2E522851882855B
:10303C001983AC82AD838E828F8312304E8A0A8BB9
:10304C000B22E0FAA3E0FB12060622740412171FEF
:10305C007F0A02183274EC1217608C108D11EA245E
:10306C0005F50CEB12368B750F00EA2402F50AEB12
:10307C0012314B850A82F583122DF6123A577003E2
:10308C0002313D750E008071850C82850D83E064E4
:10309C0001704F8E828F83A3A312198A8E828F8325
:1030AC00A3A3A3A3E0F5127513007812121973EE03
:1030BC002405F512EF3400F5137812121973122D42
:1030CC00F0120720740612171FE9F50F6014850C17
:1030DC0082850D83E4F012399C8510828511831250
:1030EC0031687C177D007900EEFAEFFB120FAE8E83
:1030FC00828F83E4F0A3F0050E900371E0F8E50EE7
:10310C00C398501EE50E75F017A4F8A9F085088237
:10311C00850983A3A31239BC123151EC4D60030213
:10312C00309485088285098374FFF0A3F0E50F7055
:10313C0006122DF0120294A90F022EFBF50AEF34A1
:10314C0000F50B22A3123156FD22E0FCA3E0228EE7
:10315C00828F831239A4850E82850F83E8F0A3E950
:10316C00F02274F61217607C008C0875090074024A
:10317C0078081216F61231A06A7003A3E06B700681
:10318C00E8FAE9FB800B0CECC3940340DC7A007B7F
:10319C00000237F474652508F874033509F9888240
:1031AC008983E02274F71217607F00EF75F003A497
:1031BC00F8A9F0EC28F8ED39F988828983E06A7077
:1031CC0003A3E06B7006E8FAE9FB800B0FEFC394E6
:1031DC000440D87A007B007F0102183274F6121773
:1031EC006012379970067A007B008007A3A3A3A313
:1031FC00122DF60237F474F2121760E9FE740E12F7
:10320C00175412326274101217541236CA8C828DF3
:10321C0083E06402703BA31239A088828983E0F5B5
:10322C000CA3E0F9A80C740268700374296970216E
:10323C00750C02750D00780C12197378081219733D
:10324C00780A121973EEF9120744740612171F80CC
:10325C000279010238BEE0F50AA3E0F50B2274E80E
:10326C0012176074FB121709E9851882851983F00F
:10327C008A168B178C0E8D0F741F1217541236CAA8
:10328C00742112175412326274231217541236AF6F
:10329C007510008C828D83A3A3A3E0A2E4502A7442
:1032AC001D121754122F068A828B83E58245837078
:1032BC0003023376790AAC0EAD0FAA16AB171217B0
:1032CC005EE9F5106003023379850E82850F83E089
:1032DC006402600302362FA31239A0850882850987
:1032EC0083A3858212858313E50E2406F50CE50F66
:1032FC0012368B88828983E0FAA3E0F9EA2400F580
:10330C0014E439F51578141219FD01000028012870
:10331C003E330700022815340328853300293F3536
:10332C000129673502290E3503293F350429D0358B
:10333C002F36EE4F703E850C82850D831236C5FA02
:10334C00E9FB8A828B83E0850A82850B831236E146
:10335C001219738A828B83A3123156FDAA08AB090A
:10336C00120F96740212171F800375100EA9107499
:10337C00050239AA75100B80F4EE4F70F7850A829E
:10338C00850B837401F01236B5850882850983F0AC
:10339C007C007D00850E82850F83A3A3A3A3E0246C
:1033AC0001FAA3E03400FB120606EA4B60418A8264
:1033BC008B83E02402F8850A82850B83E028F0EAEF
:1033CC002404F8EB3400F988828983E08512828525
:1033DC0013831236F31236E11219738A828B83121D
:1033EC003150E5082403FAE5093400FB02336C85FF
:1033FC000A82850B83E02404F07C047D007900AA0A
:10340C0012AB13120FAE023379EE4F60030233800E
:10341C001236B5FEA3E0FF850A82850B837404F097
:10342C00EE850882850983F0EF851282851383F07F
:10343C007403121754AC82AD83EEFAEFFB1237878C
:10344C0070030234EB8A828B83A3A31236AB740114
:10345C0012175485820E85830F780E12197374051A
:10346C0012175412198A7CFF7DFF12060C74041279
:10347C00171F8B0FEA450F7033850C82850D831255
:10348C003690121973850C82850D83A312198A7CD0
:10349C00027D007AF87B90120384740412171FE9E2
:1034AC00700A740112175474FFF0A3F08E828F838C
:1034BC00E064027034750C02750D00780C121973EF
:1034CC008E828F83123150E5082404FAE509122A02
:1034DC006212171F850A82850B83E024028009740F
:1034EC0001121754EEF0A3EFF074011217541236B8
:1034FC00A1F07401121754A3123699A3A3A3F002DE
:10350C003379EE4F6003023380850C82850D831274
:10351C003151AA16AB17120738850A82850B8374B2
:10352C0002F0EA850882850983F08512828513836F
:10353C00EB80CBEE4F60030233801236B5F8A3E07C
:10354C00F9850A82850B837402F0E8850882850967
:10355C0083F0E985128285138380A3850C82850D07
:10356C0083122DF6120F90EAFC8C82A882C39EE483
:10357C009F404BE86E7001EF70047C00801F851833
:10358C0082851983E0FAEE2AFAEF3400FBC3EA983D
:10359C00EB94005003E08004EECCC39CFCEC850A59
:1035AC0082850B83F08C0A750B00780A12197385CF
:1035BC000C82850D83E02EFCA3E03F02336775106F
:1035CC0007023379EE4F6003023380850C82850D40
:1035DC00831239A0850A82850B837407F08882894F
:1035EC0083123699123681E0851282851383F0E8B6
:1035FC002402FAE93400FB8A828B83123699123644
:10360C00D21236A1A31236DB1236A5F0E82405F847
:10361C00E93400F9888289831236A5A31236F3A304
:10362C00023507741D121754123792700302337649
:10363C001239A0880C890DE8450D70030233768E83
:10364C00108F117810121973780A121973780812E6
:10365C0019737406121754E0F9AC0EAD0FAA16AB21
:10366C0017850C82850D8312175E740612171FE9DD
:10367C00F510023379F088828983A322F50CEF349C
:10368C0000F50D22E0F50E750F00780E22E085088E
:10369C0082850983221236FA221236FAA3A322A3B8
:1036AC00A3A3A3E0FEA3E0FF22850C82850D83E09B
:1036BC00F8A3E0F5838882E0221239A4E822E0F531
:1036CC0008A3E0F50922A3A3F08A828B83A322121C
:1036DC002282A3A322F08A828B831236EA22E0F59F
:1036EC000A750B00780A221236811236FA22E0850E
:1036FC000882850983A3A32274EE12176074FE124C
:10370C0017098A0A8B0BECFAEDFB7414121754E0B0
:10371C00F510A3E0F5117416121754E0FE7418128C
:10372C001754E0F50EA3E0F50F851882851983ACCC
:10373C0082AD83123787603E8518828519831237D4
:10374C0092602FA3A31236CAE50845096024780EAF
:10375C001219737810121973EEF9AC0CAD0DAA0A8C
:10376C00AB0B85088285098312175E740412171F30
:10377C008006790E80027901022B891206068A0CCA
:10378C008B0DEA450D22122DFA123799221206CC16
:10379C008A828B83E58245832274F612176074FE4D
:1037AC00121709740C1217541236C5851882851914
:1037BC0083F07401121754E9F0E4F508F509780860
:1037CC0012197375080278081219737404121754BD
:1037DC0085820885830978081219731207207406EC
:1037EC0012171F740212171F7F0202183274F7127D
:1037FC001760EAFEEBFF89087CA47D03120738EA08
:10380C005402600BA908EEFAEFFB1205FA8002795C
:10381C00010231E374F612176074FF6A700374FFCF
:10382C006B701B7B00EB75F003A4F8A9F0EC28F887
:10383C00ED391222730BEBC39404501480E712077A
:10384C00088A088B09A808A909E8496003122274A0
:10385C00809674F61217601207088A828B83E582B1
:10386C0045836006A3A3E0FA80027A007B0002374E
:10387C00F474F21217608A088B09ECFEEDFF740EDB
:10388C00121754E0F50A1238C3701CEEFCEFFD7AE7
:10389C00FF7BFF1238C370047911801688828983EC
:1038AC00E508F0A3E509F088828983A3A3E50AF073
:1038BC0079007F060218321207088A0C8B0DA80CAF
:1038CC00A90DE8492274EE121760EAFEEBFF8C0892
:1038DC008D09890C74121217541239A07414121712
:1038EC00541231517416121754122DF6750D00EC3A
:1038FC004D60030239947402650C600302398F88A1
:10390C00828983123156F9EC2400F50EE439F50F57
:10391C00EAF4F8EBF4F9EC58F8E50F59F9E84970CA
:10392C005DE5082406F8E5093400F9880A890B8856
:10393C0082F583122A711207388A108B11E50E65F5
:10394C00107004E50F65116042780E121973850A28
:10395C0082850B83122A7112073E740212171FE91B
:10396C00F50D7027780E121973850882850983A3CB
:10397C00A3122A6F120750740212171F800D750DB7
:10398C00808008750D0D8003750D0BA90D02305C40
:10399C008E828F831239A422E0F8A3E0F922121749
:1039AC001F7F100218323400F50D850C82F583222E
:1039BC00E028FEA3E039FF8E828F83227916850AD8
:1039CC0082850B83122DFA12071A74082274F212D4
:1039DC001760EAFEEBFF890B7401650B600E740235
:1039EC00650B7064790112091EE9705CEEFAEFFB4D
:1039FC00123A576048750A00800B7C177D007900DD
:103A0C00120FAE050A900371E0F8E50AC398502234
:103A1C00E50A75F017A4F8A9F0850882850983A337
:103A2C00A3E028FAA3E039FB8A828B831236C549BE
:103A3C0070C885088285098374FFF0A3F07CA47D8F
:103A4C0003EEFAEFFB1207320238BE1207028A08A5
:103A5C008B09EA45092274F21217608A088B09EC6B
:103A6C00FEEDFF740E121754123262900FFFE0F449
:103A7C00603D7A097B00120FC0EA4B60328A828B60
:103A8C008374B1F0A3E41236D4A31236D2A3E508A2
:103A9C00F0A3E509123ABEEEF0A3EF123ABEA3A3CF
:103AAC00E50AF0A3E50BF0900FFFE0F9120FCC0242
:103ABC0038BEF08A828B83A3A3A3A3A322C082C0A7
:103ACC00839061907404F0A37448F0A3E4F09061C7
:103ADC00807440F09061BC7407F09061877469F059
:103AEC009061B67416F07900120A207902120A2637
:103AFC0090220CE493F46006E493F91209FC790526
:103B0C00120D7A023ED6C082C083E9540FF990613F
:103B1C0085E0696012E5C654804449F5C6E59E54BB
:103B2C007F644970F8E9F053C680E59E547F70FAC3
:103B3C00023ED674F7121760E5A8FE53A87E120A4F
:103B4C0008C2BA539AFEC289759B00C2C2120A0EF1
:103B5C0075A91175B905120A14D2BA439A01748069
:103B6C005E42A8024DDEC082C083906181E4F0A366
:103B7C00F0A3F0023ED675E90075910075BF000206
:103B8C000135C082C083906181E4F0A374C0F0A3BE
:103B9C00E480DFC082C08374F812170990049B1272
:103BAC004551E8497003023C5690049BE054406038
:103BBC00237908851882851983AA82AB83120B2876
:103BCC00851882851983AA82AB831207BC90049B4B
:103BDC00E054BFF0E054806010790C7A367B081208
:103BEC000B2890049BE0547FF0E0A2E05008790091
:103BFC00123C5E54FEF0E0540260087901123C5E07
:103C0C0054FDF0E0540460087900123C6954FBF058
:103C1C00E0540860087901123C6954F7F0E0541044
:103C2C0060087902123C6954EFF0E0542060087986
:103C3C0003123C6954DFF0A3E05401600D120A3208
:103C4C001207CE90049CE054FEF0740812171F0269
:103C5C003ED6120A201207C290049BE022120A26BA
:103C6C001207C890049BE022C082C083E96005144F
:103C7C00602A804F90619A7433F0A37455F0906170
:103C8C00A0743AF0900812E064017009C29190049B
:103C9C009D7467802D90049D7461802690619A7448
:103CAC003FF0A3745AF09061A0747FF0900812E07A
:103CBC0064017009D29190049D7471800590049DEB
:103CCC00746AF0023ED6C082C083E9600B14600DAA
:103CDC0014600F1460118020902210801590221116
:103CEC008010902212800B900812E0640160F39017
:103CFC002213E493906186F0023ED674EE121760A4
:103D0C0074F4121709851882851983AC82AD8375FA
:103D1C008390758274740412161C90221093F460B4
:103D2C0003023E99907808E0C394025003023E7956
:103D3C007404121754AC82AD83758390758203742E
:103D4C000812161CF97AFF7BFF7FFF7E00898285A3
:103D5C008210801874086E7003023E2E74096E7007
:103D6C0003023E2E740A6E7003023E2EE510C3331E
:103D7C00FCE433FD7404121754E5822CF582E583C0
:103D8C003DF583E0F50EA3E0F50F8E087509007480
:103D9C000278081216F674482508FC74783509FD6B
:103DAC008C828D8378081215D9740878081214F453
:103DBC0085080C85090D8C828D8378081215D974B1
:103DCC001878081214F4E50C4508F508E50DF5090A
:103DDC00C3E50E9508E50F95098C828D8378081242
:103DEC0015D98C828D8378081215D97418780840EF
:103DFC00141214F4E50C4508FCAD0DE50EC39CFC47
:103E0C00E50F9D800F1214F4E50C4508C3950EFCCC
:103E1C00E50D950FFDC3EC9AED9B5006ECFAEDFB0E
:103E2C00EEFF0EEEC394135003023D6074FF6A70F4
:103E3C000374FF6B602D8F08740278081216F674E9
:103E4C0048124A5F74783509F58378081215D985BC
:103E5C001882851983E5822510F582E58312499D28
:103E6C00E508F009E9C394045003023D51750801BB
:103E7C0075090078081219737402121754AC82ADCC
:103E8C00837A847B08121206740212171F740C12A8
:103E9C00171F7F0A021832C082C08390618674D5C6
:103EAC00F09061AE7468F0A3746AF090624574FB94
:103EBC00F0A304F053F4FD43FE029008127401F0D9
:103ECC007900120A208003124038D083D08202017C
:103EDC00357F040218321245A9940622E0C433330C
:103EEC0054C022C082C0839007FA7425F09007F862
:103EFC007401F0A3E4F07A01FB120CF69007E6E0F3
:103F0C002416123F3C7450F0A3740AF09007F7E0AB
:103F1C00640170169007F6E070107901120D5612BC
:103F2C000D26120D507900120D62023ED6E02414BB
:103F3C00F8A3E0123F43223400F98882898322746B
:103F4C00F612176074FA1217099007EFE06401700B
:103F5C0008120A389007EFE4F075E1F19007E6E0FB
:103F6C002415123F3C7401F09007F1E0640170538A
:103F7C00909026C082851882851983AC82AD83759A
:103F8C008390D082740612161C75D90D9007E81216
:103F9C003EE84403F5D97800880874E9124A5F7446
:103FAC0007123EE240F27800880885188285198352
:103FBC00E582124A5FE583123EE240EC75E19579A9
:103FCC000180027900120CFC90102112403E74CA40
:103FDC00F0A3740BF0A312403E12403E12419D74AC
:103FEC00D0F0A3740B1241B29007E8E0F97AE97BA8
:103FFC0007120CD89007FA1240387901120D029072
:10400C0090381215F7120D1A9090681215F7120CC1
:10401C00E47900120D6E9007E6123F397416F09099
:10402C0004997405F00412171F02463AE0F91221A4
:10403C009A2274C4F0A3740BF0A32274F4121760C8
:10404C008908A8081241819007FFE0F97A007B08E3
:10405C00120CD890080DE0701A7900120D389007E8
:10406C00D9E0700B79007ADA7B07120CDE800979C3
:10407C000180F37901120D3875E1F175D9239007A0
:10408C00FF123EE84405F5D97800880A7400250A29
:10409C00F5827408123EE240F175D90075D90075AD
:1040AC00D90075D90075D90075D9007A0012520D56
:1040BC0024221244CC40F67A0012520D2426F582AA
:1040CC00E91246420AEAC3940340EEEE242B124650
:1040DC003F7A0012520D242C1244D240F67A001270
:1040EC00520D242E1244D240F67A0012520D243076
:1040FC001244D240F67A0012520D24321244D240AD
:10410C00F67A008A0AEE250AF8EF124A4D1244DFBD
:10411C00940540EFEE2437124C9F541FF8EE242ADE
:10412C00124C9FC43354E048F5D975E19590102199
:10413C00749AF0A3740BF0A374A0F0A3740B124147
:10414C009474A6F0A3740B1241B290080C12403870
:10415C009090381215F7120D1A9090681215F712EC
:10416C000CE490600DE4F07901120D6E90049974DA
:10417C0006F0023EDDE875F006A4C8AAF02AF97430
:10418C00C728FE740439FF22F0A312419D12419DF1
:10419C00221241A1227494F0A3740BF0A37494F036
:1041AC00A3740BF0A3221241B622F090102F1241EF
:1041BC00C2A31241C2221241A17494F0A3740BF059
:1041CC002274EC1217609007FD124D5578101215E1
:1041DC00D990080EE0FAF875F006A4C8ACF02CF9EA
:1041EC0074F528F582740439F583E0FEA3E0FFEE44
:1041FC00C333FEEF33FF8E0CF50D750E00750F00FB
:10420C0085100885110985120A85130B9090887802
:10421C000812153F780812196F8510088511098549
:10422C00120A85130B7808790C12152C7810790C5E
:10423C00121484E4F50EF50F7808790C1215658AC2
:10424C000C750D007403780C1216F67808790C12A4
:10425C00152C9090E078081215A0AA08AB09AC0AAE
:10426C00AD0B122132740412171F8A088B09A8088F
:10427C00A909C3EE98EF995006E82EF8E93FF9E842
:10428C0090600EF0E9A3F0EEA3F0EFA3F090600DB8
:10429C0074C1F07F0C021832C082C0839007E61202
:1042AC0042C49007FA023ED3C082C0839007FD122D
:1042BC0042C490080C023ED3124D59A3A3A3A3E40D
:1042CC00F0A3F02202013574F212176012441EF5AD
:1042DC000AEF1247956004780480027800E8240EF7
:1042EC00F8EAC398500302437C75080C900816E456
:1042FC00F0EE2477124C9F900817F07902EE247898
:10430C00FCEF3400FD7A187B08120B167902EE24B0
:10431C007A124381247C124381247EFCEF3400FD0D
:10432C00120B16EE2475124434850A82850B83E039
:10433C00601675081675090878081219737C0C122A
:10434C0048A912171F75081074012508F5D975D9DD
:10435C000378008009880A7416250A124413E8C3EE
:10436C00950840F175E1957904120D2079018002D0
:10437C007900024A48FCEF3400FD120B167902EE6C
:10438C002274F212176012441EF508EF3400F5097E
:10439C00850882F583E06004780480027800E824C4
:1043AC000AF8EAC3984055750A089008167401F08B
:1043BC0079057CE07D077A177B08120B16EE2481B9
:1043CC00124434850882850983E0601675081675D9
:1043DC00090878081219737C081248A912171F755E
:1043EC000A0C12469C800312440DE8C3950A40F750
:1043FC0075E1957904120D20790180027900024A49
:10440C0048880874162508F5827408124CA6F5D94C
:10441C00082212442222EAFEEBFF9061D0E0F874ED
:10442C0080C398FAEE248322FCEF3400FD8E828F39
:10443C0083A3A3A3A3A31245558C828D83E028F0FC
:10444C00A3E039F07902120B162274F6121760EA07
:10445C00FEEBFF9061D0E0706275D91875D90375C9
:10446C00D9037A008A08EE2508125212249C1244B1
:10447C00F640F17A008A08EE250812521224A41292
:10448C0044D240F17A008A08EE2508125212249484
:10449C001244F640F17A008A08EE250812521224D2
:1044AC00881244CC40F175E1957908EE24941244BD
:1044BC00EF24881244E61245C18002790002463A84
:1044CC001244D89404221244D8940222F582E9347E
:1044DC0000F583E0F5D90AEAC322FAEF3400FB12A7
:1044EC000B1C221244E67904EE221244D8940822C2
:1044FC0074F6121760EAFEEBFF900816740612456C
:10450C00B41219737C0179031248AF12171F75D9B5
:10451C000675D903780012459940FB75E195900416
:10452C0099E064087017EE2470F582EF12454EEE98
:10453C002472F582EF12499DE8F0A3E9F0790102AB
:10454C00463A124A5A12455522E0F8A3E0F9227471
:10455C00F6121760EAFEEBFF9061D0E0702A90082B
:10456C0016740A1245B41219737C0179031248AF00
:10457C0012171F75D90675D903780012459940FB9F
:10458C0075E1951245C68002790002463A88087496
:10459C00162508F58274081245A99405223400F5F5
:1045AC0083E0F5D908E8C322F07508167509087878
:1045BC00082275E1957904120D20EE2470F582EF36
:1045CC00124A5A124555EE2472F582EF124A5AE8F5
:1045DC00F0A3E9F079012274F6121760EAFEEBFF02
:1045EC009061D0E070437901900816740BF0900440
:1045FC0099E0640770177508167509087808121980
:10460C00737C0109091248AF12171F79057401292F
:10461C00F5D975D9037800800312440DE8C399408D
:10462C00F875E1951245C6800279008001F07F0291
:10463C00021832F582EF124CA6F5D92274F5121736
:10464C00601246CB6004780480027800E8240BF8F2
:10465C00EAC3984036750A099008167408F0F912E6
:10466C0046B4601475081675090878081219731287
:10467C0048A712171F750A0D12469C800312440D91
:10468C00E8C3950A40F71245BE800279000249162C
:10469C007401250AF5D975D903780022EE241DF58D
:1046AC0082EF1249AFA3F022EE24E5FCEF3400FDBB
:1046BC007A177B08120B16850882850983E0221273
:1046CC004422F8EF124E29F583E02274F31217609E
:1046DC008A088B091248BAFAE5082483F50AEB120A
:1046EC0047956004780480027800E82408F8EAC34F
:1046FC0098500302478E750C06900816740CF090B7
:10470C0004B6E0900817F07402C0E0F97CB77D04A1
:10471C007A187B08120B16D0E0F97CB97D04120BC9
:10472C0016850A82850B83E0601C750A16750B08CA
:10473C00780A1219737C067903AA08AB091248AFE0
:10474C0012171F750C0A7401250CF5D975D903784D
:10475C00008009880A7416250A124413E8C3950CC4
:10476C0040F175E1957904120D20E5082470F5826D
:10477C00E50912454EE5082472F582E5091245D883
:10478C00800279007F050218323400F50B850A820D
:10479C00F583E02274F6121760EAFEEBFF1248BABA
:1047AC00FCEE2483F8EF1248B560047A0480027A98
:1047BC0000EA2404FAECC39A405E7A02900816EAE6
:1047CC00F0EE24F7F582EF12483060197508167573
:1047DC00090878081219737C027903EEFA1248AFB3
:1047EC0012171F7A0674012AF5D975D9037800803F
:1047FC000312440DE8C39A40F875E195EE24741247
:10480C004829EE24801248291246A87904120D205A
:10481C00EE240D1245C98002790002463AF582EF6A
:10482C001249AF22124CA6900817F088828983E0B7
:10483C002274F61217601248BAFEEA2483F8EB12BF
:10484C0048B560047C0480027C00EC2404FCEEC3BC
:10485C009C40437C029008167407F0EA24F8F58219
:10486C00EB1248306015750816750908780812198E
:10487C007379031248AF12171F7C0674012CF5D9FB
:10488C0075D9037800800312440DE8C39C40F87579
:10489C00E19579018002790002463A7C097903EEB0
:1048AC00FAEFFB120B88740222123F43E022906154
:1048BC00D0E0F87480C3982274F5121760E9FEA258
:1048CC00AFE433F50AC2AF7F00EA246FF8EB340093
:1048DC00F980010F88828983E0FCEFC39C50188F0C
:1048EC0008EA2508FCEB3400FDEC246BF582ED1294
:1048FC004CA26E70DE800DEA2CFAEB124C32EE12EA
:10490C00483604F0E50AA2E092AF7F030218327435
:10491C00F6121760A2AFE433FFC2AFEA246FF8EBD4
:10492C00125214FCE9FD8C828D83E014F07E008021
:10493C001E8E08EA2508F8EB125214246CF582E955
:10494C00124CA2C0E0E8246B12499AD0E0F00E8C15
:10495C00828D83E0F8EEC39840D7EA246EF582EBA3
:10496C0012499D74FF1249A1EFA2E092AF02463AA0
:10497C00C082C083E5A8F8C2AFEA246BF582EB12C3
:10498C00499DE91249A1E8A2E792AF023ED6F58211
:10499C00E9124A5A22F0EA246AF582EB1249AF2254
:1049AC00F582E93400F583E4F02274F21217608C7E
:1049BC00828D83A3A3A3A3E0541FF0EA2436124FE5
:1049CC005C8E828F83E4F0F50C850C8285820AEC78
:1049DC00250AF8ED124E25F583E0C0E0EA250AF829
:1049EC00EB124A4DD0E0F0750D00850882850983E5
:1049FC00E0F50A750B00E50D780A1216D7E50AA248
:104A0C00E05027E50C33333354F8250DC0E08E828B
:104A1C008F83E0F8EA28F8EB125214243812499AE2
:104A2C00D0E0F08E828F83E004F0050DE50DC39489
:104A3C000840B7050CE50CC39405408D7F060218A1
:104A4C00323400F9E8245D124A5722F582E9340029
:104A5C00F583222508F5822274F61217609004C3A0
:104A6C00E0640370077A007B0002463A7C00ECF8A5
:104A7C0075F006A4C8AAF02AF974C928F582740442
:104A8C0039F583E06003024C16124E9E124C44E43E
:104A9C00F0E82404FAE93400FBEAFEEBFFEC8E822A
:104AAC008F83F0E82462124C232465124C53246843
:104ABC0012499A124C44A3A3E4F0A3124CE8A3129B
:104ACC004C57240F124C232435124C2B1215F7E89B
:104ADC00241812499A121603E8241C124C3F241D68
:104AEC00124C532480124C3F2474124C3F246912F4
:104AFC00499A7480F0E8246A124C3F246F124C3FA0
:104B0C002467124C3F24ED124C3F24EE124C3F24F0
:104B1C00EF124C3F24F0124C3F24F1124C5324F36F
:104B2C00124C5324F6124C3F2483124C3F24D312C4
:104B3C004C3F24D4124C2B1215F7E824D512499A69
:104B4C001216039090E41215F7E824D912499A1220
:104B5C001603E824DF124C3F24E1124C3F24DD12F3
:104B6C004C3F24E2124C3F24E3124C3F24F9124CEC
:104B7C005324FB124C5324FD124C5324FFF582E9B1
:104B8C001246AEFC8C08E82508FAE9124C3274FF88
:104B9C00F00CECC3940440EC7C008C82AA8274E090
:104BAC002AF5827407124CA2C0E0E82AFAE9340014
:104BBC00FBEA245DF582EB12499DD0E0F00CECC3CE
:104BCC00940540D67C008C82AA8274AD2AF582743E
:104BDC0004124CA2C0E0E82AFAE93400FBEA24E50E
:104BEC00F582EB12499DD0E0F00CECC3940840D652
:104BFC009004C3E004F0640170098E828F83E0900E
:104C0C0004C5F0E8FAE9FB024A750CECC3940340C6
:104C1C0003024A71024A7A124A577401F0E82212CE
:104C2C0049AC9090E4223400FBEA246BF582EB1241
:104C3C004A5A221249ACE8227401124C4A22F088DA
:104C4C00828983A3A3A322124A57E4F0A3F0E8229B
:104C5C00C082C083EA2403F582EB124CA26008E404
:104C6C00F09004C4E014F09004C3E014F0700690CB
:104C7C0004C574FFF08A828B83A3A3E4F09007E54C
:104C8C00E0700D9004C4E0640170057900120CEA28
:104C9C00023ED6F582EF124CA6223400F583E022B8
:104CAC00C082C0837B00EBF875F006A4C8AAF02A7A
:104CBC00F974C328F87404124EA8A3A3A3A3A3E405
:104CCC00124CE8F00BEBC3940340DB9004C3E4F00C
:104CDC00A3F0A374FFF075E1F1023ED6124C4AA387
:104CEC00A3A32274F5121760750800750900750AE4
:104CFC0000A80A1241818E828F83A3A3A3E0602DAA
:104D0C00E5084509700AEEF8EFF988088909801D55
:104D1C00850882850983124D55121986124D511240
:104D2C0015F71220D5740412171FE960D9050AE58E
:104D3C000AC3940340BB850882850983A3A3A3A35C
:104D4C00E0F90249168E828F83124D5922E0F8A3A6
:104D5C00E0F5838882A3A32274F712176078FF7999
:104D6C00FF7F00EFFC75F006A4CCAEF02EFD74C7EF
:104D7C002CFC74043DFD8C828D83A3A3A3E06040C6
:104D8C00EC2474F582ED124CA2FE74FF687003746F
:104D9C00FF69701574016E700BEC247AF582ED12BC
:104DAC00454E801CEC242E80F374016E700AEC24AA
:104DBC007A124DE3500A80E1EC242E124DE340E4CC
:104DCC000FEFC39403409CC3EA98EB994004E8FAB4
:104DDC00E9FB7F01021832F582ED124A5AC3E098C2
:104DEC00A3E0992274F6121760EAFEEBFF120ABCDC
:104DFC00EE2465F8EF124E25124E33EC4D601090F8
:104E0C0004C5125149850882850983E4F0A3F0EEAC
:104E1C00FAEFFB120C0C02463A124E29223400F91E
:104E2C0088088909888222F583E0FCA3E0FD2274BE
:104E3C00F7121760EAFEEBFF8E828F83A3A3A3A366
:104E4C00E0FA7B0012083AEEFAEFFB120AD4120BCE
:104E5C00EE024DDEC082C0837B00EBF875F006A439
:104E6C00C8AAF02AF9124E9EA3E0601AE8246FF546
:104E7C0082E9124CA2600FE8246BF582E9124CA275
:104E8C007004790180090BEBC3940340CD790002C7
:104E9C003ED674C728F87404124EA82239F98882B9
:104EAC008983A3A32274F61217607800880874AD66
:104EBC00124A5F740412482C08E8C3940840ED9021
:104ECC0004AD7401024639C082C08374FC12170908
:104EDC009090E41215F78518828519831216031227
:104EEC000B22E9851882851983F0120B22740112AA
:104EFC001754E9F0120B227402121754E9F08518BA
:104F0C00828519831215F77404023C5874F6121733
:104F1C0060EA240D124F5CEC2403F8ED3400F988A0
:104F2C00088909EC2407F8ED125214FCE9FD124F24
:104F3C006612167E8E828F83E8F0A3E9F0124F661C
:104F4C0012167E8B09EA45096003124F7902463A24
:104F5C00F8EB3400F9E8FEE9FF228C828D831245D0
:104F6C0055850882850983E0FAA3E0FB228E828FA7
:104F7C0083E02401F0A3E03400F02274F6121760F1
:104F8C00EA242EF582EB3400124E33EA2470124FD1
:104F9C005C780079FAECFAEDFB12167E8E828F8328
:104FAC00E8F0A3E9F0780079FAECFAEDFB12167E42
:104FBC008B09EA45096003124F7902463A74F012E4
:104FCC001760EAFEEBFF741012175478081215D90B
:104FDC00120CA28A0C8B0D8C0E8D0F909060780C9D
:104FEC0012153F9090E0780C1215A0780C12196FE6
:104FFC00124D511215F71220D5740412171FE960C7
:10500C00030250AD8E828F83E02402F8A3E012528B
:10501C0014FAE9FB8A828B8378081215529090E07F
:10502C0078081215D98A828B8378081215B3EE246E
:10503C000BF582EF12499DC082C0838E828F83A3B1
:10504C00A3A3A3A3E02401F8A3E03400F9D083D0F8
:10505C0082E0687003A3E069700479018045EE2456
:10506C0007F8EF123F43124F7DEE24741252197061
:10507C0014EE24751250B47003A3E06D70078A828D
:10508C008B83124F7DEE24801252197014EE248102
:10509C001250B47003A3E06D70078A828B83124F99
:1050AC007D79007F08021832FAEF3400FB8A828B7C
:1050BC0083E0FCA3E0FD88828983E06C2274F31208
:1050CC0017609004C5E0F8124182EE2404F50AEF53
:1050DC003400F50BEE2465F508EF3400F50980106B
:1050EC00124E35850882850983E4F0A3F0125143F2
:1050FC00850882850983124E35EC4D6030EE2464B0
:10510C00124C9FF50C780C121977EE2463124C9FFD
:10511C00F9EEFAEFFB120B0A740112171FE985085E
:10512C008285098360BA124551E84970077C007D7D
:10513C0000125143024790850A82850B83E0FA7B6B
:10514C00001207F22274F2121760EAFEEBFF890AD2
:10515C00740E121754E0FAEE246212521960030214
:10516C0052081248BAF50CEE2483124C9FFB6004D3
:10517C007804800278008908E928F8E41252142493
:10518C00020808E93400F9E50C98E499A2D265D03C
:10519C00334065EA7005750B028003750B01EB60FB
:1051AC003375090078081219737A167B08120B52A2
:1051BC00740212171F7508167509087808121973EE
:1051CC00AC0AA90B1248AB12171F7404250AF50A76
:1051DC007C167D087401250AF5D9850BD9780080D9
:1051EC000A8808EC124A5FED124417E8C3950A408E
:1051FC00F075E195790080067907800279FF024A03
:10520C00488A0AEE250AF8EF3400F9E822F582EF15
:10521C00124CA6640122C082C0838003125250E952
:10522C00F874FF28190470F4ECFAEDFB023ED6C0BA
:10523C0082C0838003125250E9F874FF281904705D
:10524C00F4023ED68C828D83E08A828B83F08C8232
:10525C008D83A3AC82AD838A828B83A3AA82AB831A
:10526C002274F4121760E9FF7E008A088B09780813
:10527C001219B700040D0A54A052BC52D152E65276
:10528C00FB5210532C534553575385539453B053DF
:10529C00CC53EA5374016F70128C828D83E0C394EB
:1052AC00035008E0901043F00254287E1802542852
:1052BC0074026F70F68C828D83125B9D901044E8A3
:1052CC00F0A3E980E274016F70E18C828D83E0C3FE
:1052DC00940250D7E0900DDA80CD74016F70CC8CB5
:1052EC00828D83E0C3940550C2E0900DDB80B874CE
:1052FC00016F70B78C828D83E0C3940250ADE09047
:10530C000DDC80A374106F70A27508108E097808DC
:10531C001219737ADD7B0D125F8612171F02542847
:10532C0074016F70868C828D83E0C39402400302FB
:10533C0052B7E0900DED0252B374016F600302524C
:10534C00B78C828D83E0901047808D74046F60035E
:10535C000252B790905078081215D98D838C8278B0
:10536C00081213D540030252B78C828D831215F7A5
:10537C00900DEF121603025428EF60030252B7127D
:10538C00118E12118202542874016F60030252B7FD
:10539C008C828D83E0C3940240030252B7E0900DDF
:1053AC00EE0252B374016F60030252B78C828D838C
:1053BC00E0C3940A40030252B7E09010460252B385
:1053CC0074016F60030252B78C828D83E024F9C3A1
:1053DC00940A40030252B7E09010480252B3740191
:1053EC006F60030252B7900E81E0F88C828D83E0DF
:1053FC00900E81F0E87025E0640170208084C3EA8F
:10540C009424EB9400501374026F700E8C828D8375
:10541C00125BA8120402E9FE80020E0EEEF9025491
:10542C0032740E12171F7F0402183274F2121760B6
:10543C0074DA121709890AECFEEDFF743412175452
:10544C00E0F50B7420121754AC82AD837583907504
:10545C008232740612161C7420121754AC82AD835F
:10546C00121128E9F508C3940A400302558A121157
:10547C006AE9F509901043E064027004740180013C
:10548C00E4F50C780C121977AD0BAC09A908EEFAFF
:10549C00EFFB1211B8740112171F7C147D007900F8
:1054AC00740C121754AA82AB83120FAE75F006E57A
:1054BC0008A4F50B740C121754AC82AD837A1074DB
:1054CC0024250B125C3570387C1079FF740C121784
:1054DC00541255D1702A741C121754AC82AD837AB5
:1054EC00047425250BF9121350740C121754AC824A
:1054FC00AD83E509A2E0E433F9EEFAEFFB12049870
:10550C00851882851983AC82AD837A0C747025085A
:10551C00125C357055851882851983AA82AB83126B
:10552C00115E750800E50875F003A4F8A9F085185C
:10553C0082851983E58228F8E583125D73125BA8D6
:10554C00EC4D601D88828983A3A3E0F50C750D00DA
:10555C00780C121973EEFAEFFB120726740212176D
:10556C001F0508E508C3940440BBE509A2E15046B9
:10557C00900DD9E0F9EEFAEFFB12072C8038740885
:10558C00650B7032901043E06402702A7C007D0041
:10559C00A90AEEFAEFFB1211B21255DA6018125B7F
:1055AC00AE88828983E5824583600B7C007900EEAE
:1055BC00FAEFFB12175E7900742602645879FF85A6
:1055CC001882851983AA82AB83121014E922900DDC
:1055DC00F3E0F8A3E0F9E8492274F0121760EAFE50
:1055EC00EBFF8C088D09750A0AE9600C146009142C
:1055FC00602E14607F02568B121176E9F50AC39463
:10560C000A507CE50845096076750E06750F007822
:10561C000E121973EEFCEFFD125F8212171F805FE2
:10562C00750B00750E06750F00780E121973EEFCD3
:10563C00EFFDE50B75F00EA4F8A9F074FB28FA74D5
:10564C000D39FB120FA8740212171FE9601B850B92
:10565C000AE50AC3940A5027E50845096021AA08FF
:10566C00AB09A90A1211708016050BE50BC3940A3D
:10567C00500D80AF12117CE9F50AC3940A40D9A9E8
:10568C000A7F0802183274F412176089087509151C
:10569C0074FF6A700374FF6B70277E00AC087A028B
:1056AC007B00EEF912114CE960037509000EEEC394
:1056BC00940A40E8E50860497AA67B11120930800B
:1056CC00401209128A0A8B0BAE0AAF0BEE4F602EFA
:1056DC007C007D00EE2405FAEF3400FB8E828F8374
:1056EC0012578D500CAC087A027B0012114C7509C4
:1056FC0000E508600CEEFAEFFB1211A680037509A9
:10570C0014A90902543274F2121760ECFEEDFF7406
:10571C000E121754E0F50AA3E0F50B75081574FF8B
:10572C006A700374FF6B7021750900AC0AAD0BEE47
:10573C00FAEFFBA909121152E9600375080005097B
:10574C00E509C3940A503580E21209128A828B83D0
:10575C00E582458360237C007D00E5822405FAE523
:10576C00833400FB12578D5013AC0AAD0BEEFAEFDD
:10577C00FB1211527508008003750814A908026405
:10578C005BA3A3A3A3125B87C3940A22C082C0832A
:10579C00900DF3EAF0A3EBF0900DD9E0FC7D007ACC
:1057AC00237B00120402900DD9E0F91206A8D083D5
:1057BC00D08202013574EC1217608A088B09E9FE5D
:1057CC007414121754780C1215D97F00EE702E78C1
:1057DC000812197390905078101215D9780C791012
:1057EC00121484AA10AB11AC12AD131204AA7402D9
:1057FC0012171FE9FF60097901AA08AB091204A46A
:10580C00EFF97F0C02183274EA12176074EC12175D
:10581C0009EAFEEBFFEE240CF514EF3400F515EE5F
:10582C00240AF510EF3400F511EE2403F508EF34DB
:10583C0000F5098E828F83A3A3E024FA7003025B28
:10584C007424FD7003025A9D1470030258F4146002
:10585C0010147003025ACF24FE7003025A72025BBA
:10586C007DEE2409F50AEF3400F50B1255DA604A87
:10587C00E0F5838882125B9D880C890DE8450D60EC
:10588C0039851482851583E0F50E780E121977EEA2
:10589C00240BF582EF3400F583E0F9850A82850B41
:1058AC0083125BA80A0A0AAB09850C82850D831248
:1058BC00175E740112171F025B7D850A82850B83AC
:1058CC0012198A900DEF1215F71204AA740212170E
:1058DC001FE97003025B7D7901850A82850B8312B7
:1058EC0062801204A4025B7D8E828F83A385821258
:1058FC00858313E06003025A45EE2405F50CEF3462
:10590C0000F50D850C82F583E0A2E04003025A45B8
:10591C007C0E7D007900851882851983AA82AB8361
:10592C00120FAEEE2408F50AEF3400F50B850A824F
:10593C00F5831255DD6019750E06750F00780E1281
:10594C001973850A82850B83E02410FCA3E0801D6B
:10595C0012627A120912EA4B7003025B7D750E0615
:10596C00750F00780E121973EA2405FCEB3400FD58
:10597C007402121754AA82AB83125F8612171F850A
:10598C000C82850D83E0A2E25004D2F08002C2F0BA
:10599C00A2F0E433F8740C121754E048F08510822E
:1059AC008511831255DD6015851082851183E024E5
:1059BC0010F8A3E03400F988828983800390905416
:1059CC00780C1215D98510828511831255DD600F64
:1059DC00851082851183E0F510A3E0F51180067522
:1059EC001000751100850A82850B831255DD600F3E
:1059FC00850A82850B83E0F50AA3E0F50B8006751A
:105A0C000A00750B00780C12196F78101219737844
:105A1C000A12197385148285158312198A8E828F46
:105A2C0083A3125BA3740A121754AA82AB831211BC
:105A3C0064740A12171F125B8E1255DA7003025B24
:105A4C007D125BAEE8FEE9FFEE4F7003025B7D85D5
:105A5C001282851383E0FC790112627A8E828F8325
:105A6C0012175E025B7D125B8E1255DA7003025BBD
:105A7C007D125BAE890BE8450B7003025B7D8E8259
:105A8C008F83A3E0FC790212627A8882850B838073
:105A9C00CF7C007D00EE2404FAEF3400FB850882F5
:105AAC00850983125B87F8C3940A4003025B7DACC3
:105ABC0010AD117A0475F006E8A42425F912134AE6
:105ACC00025B7D850882850983E0F508A3E0F50972
:105ADC00740E121754AC82AD8375839075822C743E
:105AEC000612161CAA08AB091209128A0A8B0BA8FB
:105AFC000AA90BE849607A901043E064026072E8EE
:105B0C002404FEE93400FF740E121754AC82AD83EA
:105B1C00E82405FAE93400FB8E828F83125B87F54B
:105B2C000AC3940A501C750B01780B1219771211C9
