:020000040000FA
:0600000002010A02246265
:03002B0002214867
:0300330002212A7D
:03003B000221613E
:030043000220DEBA
:030053000224D8AC
:03006B000221046B
:10008300022353E5C754F84401F5C7790122000060
:100093000080FB120086B900030200F4E4792178A2
:1000A30008B800028004F709D8FCE479297802B87B
:1000B30000028004F709D8FCE49002817844790FA8
:1000C3008002F0A3D8FCD9FA9010C4AA82AB839023
:1000D300013A782579028015E493A3AC82AD838A33
:1000E300828B83F0A3AA82AB838C828D83D8E9D9D8
:1000F300E77582237583BF740412011C75829175A1
:100103008300740012011C75D00075813F7518813E
:10011300751902759F00020096C09FF59FE473D086
:100123009F22D083D082C09FE493C0E0740193C028
:10013300E0740293F59F22FF544920424C4520412D
:100143006C6C00000000000000000000001100FFC4
:1001530000500762078C075607FF0000B400002811
:10016300002800283075A000A000A000A00000080F
:100173000008E001F0001000100010001000100053
:10018300100050005000500010001000D007000075
:10019300000000000F00307507001000010081FF10
:1001A3000000FFF4081209FA08FF02020A0A0250CB
:1001B30000A0000000E803020E9101000003910279
:1001C300069101000037110210910100007F050222
:1001D30006910100003811021491010000950502F7
:1001E30006910100003911021691030000970502E0
:1001F30006910100003A11021A91030000980502CA
:1002030006910100003B110218910100003C11FF0F
:10021300FF0100FF20020E910100000091020691F0
:10022300010000A111021E910000000000020A91CA
:1002330003000079060E130E130E130E130E130E86
:10024300130E130E130E130E130E130E130E13842D
:1002530015A2157E15C216DA16BC161201257CBF2F
:10026300041201259CEF03120125A6EF03120125B9
:10027300E7EF0312012530F0031201256AF00312A0
:100283000125C0F003120125E1F003120125EAF074
:10029300031201253EF10312012567F10312012523
:1002A30071F1031201257BF103120125E9F1031218
:1002B300012579F203120125D4F20312012502F379
:1002C300031201258AF303120125C9F30312012541
:1002D300FEF3031201251DF40312012526F4031274
:1002E3000125E8F40312012532F50312012580BA32
:1002F300041201257FBF04120125D8FD0212012536
:100303000EFE0212012542FE021201258FFF021288
:100313000125C3BE04120125D9BE04120125599239
:10032300041201256C920412012530930412012555
:100333006F93041201258C9304120125C5930412B3
:1003430001251294041201254494041201257B947F
:10035300041201258E9604120125C9FF02120125FC
:10036300F8FF021201253DBE0412012566BC0412EA
:10037300012577BC04120125D4BF0412012513C043
:1003830004120125E4FF0112012517BD0412012502
:1003930027BD0412012542BD04120125AABD041282
:1003A30001257EB90412012503BA0412012567BA97
:1003B30004120125ACB604120125D5B60412012599
:1003C30040B70412012591B704120125ECB70412BA
:1003D300012504A80412012519A80412012531A935
:1003E30004120125A5A904120125BFA904120125A0
:1003F300D2A904120125E0A904120125FAA90412C5
:10040300012511AA041201253BAA0412012591AA70
:1004130004120125419E04120125589E0412012550
:10042300D29E04120125B69F041201258DA1041248
:100433000125769A04120125069B041201258F9B40
:10044300041201252B9C04120125BC9C04120125D6
:100453006C9D041201257A9D04120125F89D041256
:1004630001250B9E04120125219E041201252B9EBA
:10047300041201253E9E0412012570280012012555
:10048300062900120125C529001201251F2B001280
:1004930001259D2C001201253F2D001201254B360D
:1004A30000120125733D001201259046001201251B
:1004B300B44700120125E95100120125965200129A
:1004C30001253D54001201251155001201254B55FC
:1004D3000012012554FF03120125C5FF0312012554
:1004E300D0FF03120125E0FF03120125EBFF0312E6
:1004F300012514B50412012566B504120125D9B5E9
:100503000412012546B6041201252CA50412012567
:1005130056A50412012525A60412012501A70412DC
:10052300012592A70412012505DA03120125D1DA68
:100533000312012512DB0312012570DB03120125CF
:10054300C4DB0312012522DC03120125B8DC0312EC
:100553000125C0DD031201254ADF03120125E8DF6F
:10056300031201254FE00312012566E00312012562
:1005730085E103120125CBAF0412012504B0041257
:1005830001251AB00412012547B00412012577B0E2
:10059300041201258EB004120125A5B00412012511
:1005A300E0B00412012511B10412012562B1041255
:1005B300012579B10412012590B10412012561B31B
:1005C3000412012578B304120125A7B304120125EF
:1005D300E0B30412012508B40412012536B4041251
:1005E30001254DB40412012564B4041201257AB423
:1005F30004120125A1B404120125B4B40412012587
:10060300CAB404120125DDB40412012502B5041293
:10061300012548A60212012547A70212012571A749
:1006230002120125BBA702120125C6A7021201254A
:10063300E7A702120125FBA7021201252AA802122D
:1006430001252CA8021201254DA80212012546A955
:100653000212012588AA0212012545AB02120125C7
:1006630012AC0212012576AC021201250DAD021265
:10067300012510AD0212012596AD02120125D9AD57
:10068300021201252BAE021201252EAE0212012504
:1006930065AE021201258CAE0212012522AF0212B1
:1006A3000125ABAF02120125F4AF0212012501B0FF
:1006B3000212012504B00212012562B002120125C3
:1006C30065B0021201258FB002120125E3B00212B8
:1006D30001255DB10212012560B1021201259BB112
:1006E300021201259EB10212012510B20212012548
:1006F30013B202120125BAB202120125BDB20212CF
:1007030001254DB30212012565B30212012595B3EC
:1007130002120125A2B302120125A5B3021201257B
:1007230011B4021201251EB4021201250CB50212E6
:100733000125C2B5021201253EAC0312012519ADF4
:100743000312012547AD03120125C7AD031201258D
:10075300E7AD0312012525AE0312012578AE03127E
:100763000125E0AE0312012571AF031201253CB050
:10077300031201254BB303120125B7B4031201255C
:10078300DAB403120125C884041201255C8604121D
:100793000125B08604120125968704120125F587E9
:1007A300041201250388041201252C880412012553
:1007B300EBE80312012513E90312012541E90312B2
:1007C300012578E903120125DAE9031201256FEB0C
:1007D30003120125B8EB0312012503EC03120125D3
:1007E30041EC031201257EEC03120125ACEC03124C
:1007F300012553ED031201255DED031201256AED79
:10080300031201259DED031201255FEE031201255D
:100813006BEE0312012583EE031201258DEE031205
:1008230001250BEF0312012577BB0412012585BBBC
:10083300041201259DBB04120125B5BB0412012539
:10084300CDBB041201253AB602120125D8B6021215
:10085300012550B70212012565B8021201259FB880
:100863000212012531B902120125DAB9021201255A
:10087300AFBA0212012513BC021201256ABC02128F
:100883000125F1BC02120125D8BD0212012525BEA6
:1008930002120125B3BE02120125D7BE02120125A1
:1008A300ACC002120125EDC0021201250FC10212D4
:1008B300012590C1021201257AC20212012540C30B
:1008C3000212012575C50212012512970312012593
:1008D300E497031201258D9803120125C998031289
:1008E30001258199031201259A9903120125B499CF
:1008F30003120125419A03120125CD9A0312012502
:10090300AE9B03120125DD9B03120125D99C031223
:100913000125219D03120125D79D031201253B9E2D
:1009230003120125A79E03120125D49E031201255C
:100933005F9F0312012528A1031201256CA1031255
:10094300012592A103120125B4BD041201259B9632
:1009530004120125B19604120125D796041201252C
:10096300FF970412012509980412012562990412C4
:100973000125629A041201256C9A0412012561FA79
:10098300031201256EFB03120125A2FB03120125AD
:10099300E4FB031201259EFD03120125C3C50112C9
:1009A300012541C60112012551C60112012597C631
:1009B300011201251DC701120125F8C701120125E6
:1009C30024C80112012561C80112012578C801124A
:1009D3000125FFC80112012509C9011201251BC9FF
:1009E3000112012553C901120125A3C901120125D1
:1009F30002CA0112012545CA0112012550CA01127A
:100A030001255BCA011201250ACB011201250DCB79
:100A13000112012510CB0112012513CB011201256F
:100A230016CB01120125EFCB0112012536CC0112A1
:100A33000125A0CC0112012515CD0112012533CECC
:100A43000112012537D001120125EED10112012532
:100A53006AD20112012547D30112012575D601126D
:100A6300012513D70112012570D801120125E3D9FD
:100A7300011201258CDA01120125D5DA01120125B3
:100A83000CDB01120125B1DB011201252FDC011260
:100A9300012535F1011201258AF101120125CFF259
:100AA30001120125DFF20112012502F301120125D2
:100AB30052F30112012548F40112012512F5011226
:100AC30001258AF601120125CCF6011201256AF7E8
:100AD30001120125B7F701120125DDF701120125E6
:100AE300CBF901120125D0F901120125B1FB011245
:100AF300012505FC0112012567FC011201258FFC6C
:100B03000112012533FD01120125F5FD0112012515
:100B130026FE0112012529FE0112012571FE011293
:100B23000125B3FE011201251AFF011201256CAD47
:100B3300041201257FAD0412012588AD041201259D
:100B4300A1AD04120125ECAD04120125C7AE0412B8
:100B5300012556AF04120125A1AF0412012584AD6E
:100B63000112012594AD01120125F7AD01120125F2
:100B73003CAE01120125ECAE01120125C5AF0112F5
:100B83000125EEAF011201251EB00112012532B27B
:100B9300011201250EB401120125EEB50112012542
:100BA30026B7011201259FB9011201258BBA011243
:100BB3000125D1BB01120125DEBC0112012520BD97
:100BC3000112012558BD0112012572BD0112012533
:100BD300DABD0112012574C2011201251AC30112E3
:100BE300012558C30112012577C301120125CBC387
:100BF30001120125D3C4011201255CC5011201258F
:100C0300E3DC01120125EDDC01120125B0DD011247
:100C13000125EBDD0112012523DE011201256CDE26
:100C2300011201259ADE01120125EFDE01120125D1
:100C330049DF0112012588DF01120125E3DF0112DB
:100C43000125A1E001120125B7E001120125EFE022
:100C53000112012513E10112012555E101120125BC
:100C63009AE101120125D2E101120125F1E10112FC
:100C7300012519E20112012543E3011201256FE366
:100C830001120125ACE301120125DBE30112012569
:100C93000EE40112012595E401120125DCE40112A1
:100CA300012529E6011201253DE6011201255CE635
:100CB3000112012570E601120125A2E601120125A8
:100CC300D4E6011201258BE701120125B3E70112D6
:100CD300012501E80112012510E8011201256CE844
:100CE30001120125A6E801120125E5E801120125FB
:100CF30027E9011201255AE9011201258DE90112A3
:100D03000125B8E90112012513EA0112012558EA68
:100D130001120125BCEA011201252DEB0112012567
:100D230075EB01120125B1EB0112012503EC011250
:100D330001253FEC0112012582EC01120125FCEC97
:100D43000112012534ED0112012570ED0112012577
:100D5300B7ED01120125E1ED011201251EEE01128D
:100D6300012548EE0112012585EE01120125C9EE88
:100D73000112012512EF0112012567EF011201256E
:100D830090EF01120125E7EF0112012530F0011266
:100D930001255AF0011201257FF0011201250DF101
:100DA30001120125808904120125BC890412012541
:100DB300868A04120125D98A04120125C58B0412DF
:100DC30001253B8C041201257D8C04120125AA8D7B
:100DD3000412012584C502120125ADC502120125A5
:100DE300C6C5021201250BC702120125E9C702126B
:100DF300012508C80212012595C802120125D8C889
:100E03000212012510CA021201257CCA0212012511
:100E130072CC0212012500CF0212012593CF0212D8
:100E2300012567D0021201250AD102120125F4D14E
:100E33000212012560D302120125F6D30212012505
:100E430061D40212012526B8041201258FB80412B9
:100E53000125E3B80412012505B9041201252CB9B3
:100E6300041201255DB904120125048E0412012523
:100E7300718E04120125BC8E04120125B18F041258
:100E83000125AD9004120125979104120125D1BFCC
:100E93000312012513C003120125EDC0031201251E
:100EA300C6C103120125C1C203120125A0C3031247
:100EB30001250CC403120125B4C403120125D2C4B5
:100EC30003120125EEC40312012597C50312012560
:100ED30002C60312012569C6031201256CC603125B
:100EE300012597C60312012508C7031201259BC7D5
:100EF3000312012504C80312012519C80312012591
:100F030061C8031201257AC803120125DFC8031241
:100F13000125E2C803120125F2A1041201252EA224
:100F2300041201256CA20412012536A30412012523
:100F3300A9A304120125E4A30412012522A4041287
:100F4300012552A40412012579A404120125E4A465
:100F5300041201256E55001201254A57001201257E
:100F63009059001201255E5A00120125A15A001260
:100F73000125EA5A001201252E5B00120125965B1A
:100F830000120125085C00120125175C00120125DF
:100F93002D5C00120125795C00120125B15C001261
:100FA3000125085D001201252B5D001201255F5DFF
:100FB30000120125825D00120125165E0012012533
:100FC300405E00120125B95E001201250A5F00127E
:100FD30001256E5F00120125396200120125366377
:100FE30000120125996300120125206400120125D6
:100FF300C06500120125066600120125166700125E
:1010030001254767001201259B67001201258E68A1
:1010130000120125336A001201258F6A001201258F
:10102300D66A00120125A16F00120125C96F0012B3
:101033000125067000120125F27100120125E772E5
:10104300001201257E7400120125B37400120125DC
:10105300257500120125FD75001201252576001264
:1010630001255076001201257B7600120125977623
:1010730000120125B17600120125D0760012012558
:10108300377700120125C277001201250678001276
:101093000125287800120125547900120125187AB8
:1010A300001201253D7A00120125277B001201253C
:1010B300427B00120125EA7B00120125757C001298
:1010C3000125C6AA0412012538AB041201258EABF3
:1010D30004120125D2AB04120125F2AB041201253F
:1010E3003FAC0412012587AC04120125DAAC0412CB
:1010F30001252BAD0412012506C90312012523C9BD
:1011030003120125B0CE03120125B2CF031201252C
:101113002CD103120125DAD10312012521910112E9
:1011230001256A9101120125979101120125CA91A6
:1011330001120125DA9101120125E691011201251F
:10114300F79101120125CC92011201252A93011274
:1011530001255F9301120125969301120125329512
:10116300011201256C9501120125D7950112012564
:101173006996011201250F97011201259497011217
:1011830001251698011201256098011201259099F5
:1011930001120125EB9A01120125C29B01120125BF
:1011A300E79B011201252C9C011201253C9C011295
:1011B3000125589C011201255B9C01120125159DF7
:1011C30001120125DE9D011201256E9E01120125EA
:1011D3000A9F011201252F9F011201258E9F0112E3
:1011E30001251DA00112012572A0011201259BA05A
:1011F30001120125FBA00112012589A1011201257C
:1012030052A201120125EFA20112012576A30112B8
:101213000125CDA3011201252EA40112012568A4E5
:101223000112012511A5011201255FA50112012556
:101233004FA7011201259FA701120125EFA7011254
:10124300012564A801120125EEA80112012539A97F
:10125300011201255EA901120125AFA90112012581
:10126300D8A9011201251DAA011201258CAA011278
:101273000125CEAA01120125CEAB0112012568ACCE
:101283000112012539AD0112012552AD01120125CB
:1012930012B60312012565B60312012571B60312B6
:1012A300012546B7031201256DB703120125A8B71F
:1012B3000312012514B80312012538B803120125BE
:1012C30066B8031201259FB803120125B7B80312AC
:1012D300012510B90312012529B90312012572B999
:1012E3000312012585B9031201259FB903120125B4
:1012F300B5B903120125D1BA03120125E2BB0312CA
:1013030001252FBD0312012514BE03120125EE7F13
:1013130000120125008004120125658304120125B2
:101323007D8404120125B6F002120125A9F60212EA
:101333000125AFF6021201252FF90212012560F5EE
:10134300031201250BF603120125BBF60312012537
:10135300E0F603120125D7F8031201252AFA031236
:101363000125008002120125348002120125398AE9
:1013730002120125858B02120125A28C021201257E
:101383002C8E021201250E8F02120125488F0212A4
:1013930001256B8F02120125AD8F02120125B68F35
:1013A300021201250090021201250A900212012562
:1013B300B690021201258A9102120125DE910212D2
:1013C3000125409202120125939202120125C29235
:1013D3000212012501930212012500940212012534
:1013E3005A9C02120125609C0212012513A20212CB
:1013F3000125F9A502120125A07C00120125167D05
:10140300001201252C7D00120125697D00120125A2
:10141300A17D001201251E7E00120125597E0012B6
:101423000125D47E00120125107F00120125197FAA
:1014330000120125257F001201253F7F001201259F
:10144300647F001201257A7F00120125BE7F0012FE
:101453000125FCD1031201250FD20312012529D244
:101463000312012552D20312012595D2031201253D
:10147300D4D20312012512D30312012577D3031209
:1014830001258CD30312012597D303120125A4D37D
:1014930003120125BBD303120125C9D3031201256E
:1014A300D8D303120125EDD30312012502D403126D
:1014B30001250DD40312012519D40312012526D4C5
:1014C3000312012539D40312012544D40312012543
:1014D30069D4031201256ED4031201250AD5031220
:1014E300012570D50312012580D50312012595D559
:1014F30003120125AAD503120125C4D50312012520
:10150300DFD503120125FCD50312012507D60312EB
:101513000125C3D603120125AFD703120125CBD76B
:1015230003120125E2D703120125ECD7031201258B
:1015330000D80312012521D80312012582D80312F2
:10154300012588D8031201258ED80312012594D8CA
:10155300031201259AD803120125C1D803120125CC
:10156300FCD80312012515D90312012555D90312FD
:10157300012588D90312012507A20312012533A2ED
:101583000312012517A303120125B1A50312012597
:10159300C7A603120125E4A70312012587A8031296
:1015A30001252DA9031201252CE302120125AEE327
:1015B3000212012557E4021201259FE502120125BB
:1015C300ADE70212012593E802120125C8E80212D1
:1015D3000125EAE80212012593E90212012563EBD2
:1015E300021201258CEB0212012504EC02120125E3
:1015F30036EC0212012543EC021201258EEC021295
:101603000125B2EC0212012503EF021201250DF0B0
:101613000212012569F0021201259FD4021201254D
:10162300B0D50212012594D6021201259ED60212CC
:101633000125A8D602120125CAD602120125D6D643
:10164300021201257AD802120125A7D80212012518
:10165300BDD90212012512DA0212012561DB021241
:10166300012536DC0212012592DC02120125FDDC84
:101673000212012532DD0212012575DD0212012558
:101683003FE00212012557E002120125E8E00212B1
:101693000125F6E00212012543E10212012551E181
:1016A30002120125BDE10212012538E202120125D1
:1016B3008FE202120125F48B03120125168C03120B
:1016C3000125278E03120125E690031201251092AE
:1016D30003120125CE9203120125BA9303120125A9
:1016E300A8B104120125CDB10412012543B204129D
:1016F3000125CEE103120125D7E103120125E0E123
:1017030003120125B8E20312012569E4031201253E
:1017130099E403120125C4E403120125F4E403123E
:1017230001251FE50312012553E5031201257FE57A
:1017330003120125C2E503120125EDE5031201257C
:1017430034E60312012589E603120125CBE60312D1
:10175300012525E70312012550E7031201259FE721
:1017630003120125CFE703120125FAE7031201252E
:1017730028E8031201254BE8031201250080031218
:101783000125368003120125798003120125848007
:10179300031201258F80031201259A80031201256C
:1017A300A58003120125E18303120125B6840312E8
:1017B3000125308503120125A78503120125B48570
:1017C30003120125C18503120125CB8503120125CF
:1017D300D58503120125F185031201250186031224
:1017E30001254386031201258286031201258C8677
:1017F30003120125968603120125A08603120125F3
:10180300AD8603120125B78603120125C186031293
:101813000125CB8603120125D586031201251F87D7
:10182300031201253C870312012559870312012561
:10183300698703120125738703120125CE870312DB
:101843000125DB87031201259F8803120125A9883F
:1018530003120125B38803120125BD880312012554
:10186300DA8803120125F78803120125BB890312C5
:101873000125C48903120125D88903120125F5899D
:1018830003120125028A031201250B8A0312012583
:10189300328A03120125598A03120125668A03122B
:1018A3000125708A03120125808A03120125998A72
:1018B30003120125A38A03120125B38A031201250A
:1018C300C38A03120125CD8A03120125DD8A03127F
:1018D3000125ED8A031201250C8B03120125198BB7
:1018E30003120125268B03120125368B03120125D2
:1018F300468B03120125568B03120125888B031295
:101903000125928B03120125A28B03120125AF8BB4
:1019130003120125B98B03120125C68B031201257E
:10192300D08B03120125E08B03120125EA8B0312EE
:1019330001251DC0041201254AC004E06670100889
:10194300A3E066700A08A3E066700408A3E06622B9
:10195300C3E7960809E7960809E7960809E7962278
:10196300C3E09608A3E09608A3E09608A3E09622B6
:10197300C008C3E096F50808A3E096420808A3E070
:1019830096420808A3E09645087001D3D0082208C0
:101993000808EAC0E0EBC0E086F0E7A4FA1809867D
:1019A300F0E7A42AFA180986F0E7A42AFA180986A8
:1019B300F0E7A42AFA1986F0E7A4FBE5F02AFA195E
:1019C3000886F0E7A42BFBE5F03AFA190886F0E75E
:1019D300A42BFBE5F03AFA18180986F0E7A4C5F042
:1019E3002BFBE43AFA1908E7C5F0C6A426F6E5F09E
:1019F3003BFBE43AFA1886F0E7A4F6E5F00826F68E
:101A0300E43B08F6E43A08F6D0E0FBD0E0FA22E43F
:101A1300CFC0E0E4CEC0E0E4CDC0E0E4CCC0E075EC
:101A2300F020C3E633F608E633F608E633F608E6B5
:101A330033F6181818EC33FCED33FDEE33FEEF33B9
:101A4300FFC3EC9709ED9709EE9709EF9719191959
:101A5300400FFFEC97FC09ED97FD09EE97FE19196E
:101A630006D5F0BEECF709EDF709EEF709EFF71924
:101A73001919D0E0FCD0E0FDD0E0FED0E0FF2260F9
:101A830016080808C6C313C618C613C618C613C655
:101A930018C613C6D5E0EA227009080808226016A2
:101AA300181818C6C333C608C633C608C633C608D3
:101AB300C633C6D5E0EA22E627F60809E637F60874
:101AC30009E637F60809E637F622E026F608A3E02A
:101AD30036F608A3E036F608A3E036F622E026F051
:101AE30008A3E036F008A3E036F008A3E036F022BE
:101AF300C3E697F60809E697F60809E697F6080994
:101B0300E697F622C3E096F008A3E096F008A3E078
:101B130096F008A3E096F022E657F60809E657F692
:101B23000809E657F60809E657F622E056F608A331
:101B3300E056F608A3E056F608A3E056F622E05670
:101B4300F008A3E056F008A3E056F008A3E056F02F
:101B530022E066F608A3E066F608A3E066F608A3AB
:101B6300E066F622E0F608A3E0F608A3E0F608A391
:101B7300E0F622E6F008A3E6F008A3E6F008A3E601
:101B8300F022E0FAA3E0FBA3E0FCA3E0FD22EAF0ED
:101B9300A3EBF0A3ECF0A3EDF022CAC0E0E6F0A3C0
:101BA30008DAFAD0E0FA22CAC0E0E0A3C582CCC5C5
:101BB30082C583CDC583F0A3C582CCC582C583CD41
:101BC300C583DAE6D0E0CA22C3E498F8E499F912AF
:101BD3001C0C8026C3E49AFAE49BFBE920E7E91294
:101BE3001C0CE498F8E499F922C3E498F8E499F911
:101BF300121C0CE498F8E499F9C3E49AFAE49BFB09
:101C030022EB20E7CFE920E7E0B90010BB0008E8AA
:101C13008AF084F8AAF022E4FBC8FA22EB70227B54
:101C230010C833C8C933C9335007C39AC3DBF28022
:101C3300069A50012ADBEAC833F4C8C933F4C9FA57
:101C43002275F008E4C833C8C933C933C99AC99B9C
:101C53005004C92AC93BD5F0ECFBC833F4C8E4C926
:101C6300FA22600D08C6A2E713C618C613C6D5E04C
:101C7300F322600C08C6C313C618C613C6D5E0F416
:101C830022700422600D18C6C333C608C633C6D5F6
:101C9300E0F41822251810AF08F518400215198032
:101CA30008F51840021519D2AF22C0D0251810AF7D
:101CB30008F518500205198008F51850020519D2C5
:101CC300AFD0D0222518F58210AF08F518400215C1
:101CD300198008F51840021519D2AF8519832225FA
:101CE30018F582E43519F58322E4732518C582C0FB
:101CF300E0E51934FFC583C0E0E518C3958224F8F5
:101D030010AF088583198582188008858319858219
:101D130018D2AFCEF0A3E520F0A37808E608F0A32D
:101D2300DEFAEFF0A3E58124FAF8E608F0A3E6086B
:101D3300F0A3E608F0A30808E608F0A3E608F0A37A
:101D430015811581D0E0FED0E0F81581158115814C
:101D5300E8C0E0EEC0E0222518C582C0E0E51934F2
:101D6300FFC583C0E0E518C3958224F910AF088549
:101D730083198582188008858319858218D2AFCE8E
:101D8300F0A3E520F0A37808E608F0A3DEFAEFF06D
:101D9300A3E58124FBF8E608F0A3E608F0A308080E
:101DA300E608F0A3E608F0A315811581D0E0FED084
:101DB300E0F815811581E8C0E0EEC0E022851983C3
:101DC300851882E0A3FEE0A3F5207808E0A3F608D7
:101DD300DFFAE0A3FFE0A3C0E0E0A3C0E0E0A3C01C
:101DE300E0E0A3C0E0E0A3C0E010AF08858218855F
:101DF30083198008858218858319D2AFD083D08256
:101E0300020122851983851882E0A3FEE0A3F52051
:101E13007808E0A3F608DFFAE0A3FFE0A3C0E0E060
:101E2300A3C0E0E0A3C0E0E0A3C0E010AF08858258
:101E3300188583198008858218858319D2AFD083CA
:101E4300D08222C0D02518C582C0E0E51934FFC571
:101E530083C0E0E518C3958224F310AF0885831986
:101E63008582188008858319858218D2AFC8F0A3AC
:101E7300E9F0A3EAF0A3EBF0A37908E709F0A3D80C
:101E8300FAECF0A3EDF0A3EEF0A3EFF0A3D0E0F0B3
:101E9300A3D0E0F0A3D0E0F0A3E520F0A3E5F0F0B9
:101EA300A322851983851882E0C0E0A3E0F9A3E0AB
:101EB300FAA3E0FBA37808E0F608A3DFFAE0FCA3AB
:101EC300E0FDA3E0FEA3E0FFA3E0C0E0A3E0C0E0E9
:101ED300A3E0F5D0A3E0F520A3E0A3F5F010AF084D
:101EE3008583198582188008858319858218D2AF66
:101EF300D082D083D0E0F8D0E0327404800674023C
:101F030080027401C0E0F404121CC7D0E0121B9DD0
:101F1300227404800474028000CCC0E0EDC0E0E5CC
:101F230018C39CCCAD1950011D10AF068C188D1928
:101F330080068C188D19D2AF121BAAD0E0FDD0E019
:101F4300FC22D083D082C5F0E493A3C5F0C395F0FF
:101F5300F5F0E493A3C395F04005E5F0048001E4B4
:101F630075F002A42582F582E5F03583F583E493C9
:101F7300A3C0E0E493C0E022D083D082E9C0E0E4D0
:101F830093A3C386F0C5F095F0F908E493A386F014
:101F9300C5F095F0700BE493A3C3994005E9048061
:101FA30002A3E475F002A42582F582E5F03583F5FA
:101FB30083D0E0F9E493A3C0E0E493C0E022D083AC
:101FC300D082CCC0E0E493A36006121FEB1470FA36
:101FD300E493A3600612200A1470FAD0E0FCE493A1
:101FE300A3C0E0E493C0E022C0E0E493A3D39C50F9
:101FF30010E493A3C39C400AD0E0D0E0D0E0021FDA
:10200300DEA3A3A3D0E022C0E0E493A36C7009D0C5
:10201300E0D0E0D0E0021FDEA3A3D0E022D083D043
:1020230082ECC0E0EDC0E0E493A3FCE493A3FDEDF8
:102033004C600D12206CEC24FFFCED34FFFD80EFAF
:10204300E493A3FCE493A3FDED4C600D1220ABECF1
:1020530024FFFCED34FFFD80EFD0E0FDD0E0FCE495
:1020630093A3C0E0E493C0E022C0E0C3E4939608E6
:102073007401939618400FE49366700808740193F3
:10208300661870007019A3A3C3E4939608740193B0
:102093009618A3A3400DD0E0D0E0D0E002205CA3CB
:1020A300A3A3A3A3A3D0E022C0E0C0F088F0E493ED
:1020B3006670080874019366187000A8F0A3A370F3
:1020C3000BD0F0D0E0D0E0D0E002205CA3A3D0F0AE
:0320D300D0E02238
:1020D800C2AF02000022C0E074F2121E46A2AFE4B2
:1020E80033FED2AFC2C0E5D1A2E4500653D1EF12FD
:1020F8000474EEA2E092AF7F01021EA5C0E074F264
:10210800121E46A2AFE433FED2AFE589A2E1500326
:102118001203CC758900C2C5EEA2E092AF7F01021E
:102128001EA5C0E074F2121E46A2AFE433FED2AF81
:10213800E58BA2E050031203CC758B00C2E880D86F
:10214800C0E0C0D0E8C0E0E5A8D2AFC2C7A2E7921D
:10215800AFD0E0F8D0D0D0E032C0E0C0D0E8C0E0E6
:10216800E9C0E0C008C009C082C083A2AFE433F967
:10217800D2AF900477E0F8A3E0687008539AFBA305
:1021880074018026C2E9900477E0F50874012508F7
:10219800F074F72508F58274033400F583E0F5C17F
:1021A800900477E0C394804002E4F0E9A2E092AFA3
:1021B800D083D082D009D008D0E0F9D0E0F8D0D0D0
:1021C800D0E03274F5121D5AEAFEEBFFEE2434F823
:1021D800EF3400F988088909EE2435122303F8EE54
:1021E8002437122303F50AEC850AF0A4FCAAF0852B
:1021F8000AF0EDA42AFDE82CF8E43DF97A257B00E5
:10220800121C0CEA850882850983F05407F87401CA
:10221800B800028004C333D8FCC0E0E013131354A1
:102228001FF8EE28F8EF3400F9E8245DF582E93468
:1022380000F583D0E0F8E0586008850882850983B6
:10224800801DEE2436122303F5F0EA84A8F0EE2868
:10225800F8EF3400F9E82438F582E93400F583E032
:10226800F97F04021E0674F5121D5AEAFEEBFFEE12
:102278002434122303C0E0EE2435F582EF3400F550
:1022880083D0E0F08E828F83A3A3A3A3A3E0FAA355
:10229800E0FB8E828F83A3A3A3A3A3A3A3E0FCA345
:1022A800E0FDECC39AF50AED9BF50BEE2480F508EA
:1022B800EF3400F509850882F583E06401702BEEA0
:1022C8002481F582EF3400F583121F1812230C7451
:1022D80002121CADE960137CB67D0AEEFAEFFB1220
:1022E800121E850882850983E4F0AC0AAD0BEEFA6C
:1022F800EFFB1221CB122858022269F582EF340035
:10230800F583E022C082C083851882851983E0F8AE
:10231800A3E0F9C3EA9CEB9D500BC3EC98ED994000
:102328001279018010C3EA98EB9940F5C3EC98ED57
:102338009950EE7900D083D08222EAC39CFAEB9DB3
:10234800FB2200008521878522C622C0E074EF1297
:102358001E46759B00906182E0A2E64003022414A9
:10236800E591A2E640030224147591BF90076FE03F
:1023780064057008121428121434800312142E7580
:1023880021001214ACE9900770F0790012148E1233
:1023980011407A017B0090076EE0F91202C4907830
:1023A80003E06442600302245D900B41E014F06096
:1023B8000302245DC2AF1223C100782AD0E0F618C8
:1023C800D0E0F6E59F5407F9700590909880039047
:1023D80090FC7808121B67E9C4C0E07829E6550824
:1023E800F50808E65509F509740B7808121C75D02C
:1023F800E02508F8906270E0A2E740F8E8C333905F
:102408006272F0906270E0D2E0F08049E0A2E5509C
:1024180024E591A2E5501E7591DF90076FE0640DE9
:102428007013900791E004F064287002E4F07A00D9
:10243800E0F912156C906181E0A2E35009E5E9A288
:10244800E3500375E9F7A3E0A2E75009E591A2E795
:10245800500375917F7F04021EA5C0E0C0D0C082E2
:10246800C083906183E0A2E05009E5BFA2E0500379
:1024780075BFFEE0A2E15009E5BFA2E1500375BFB8
:10248800FDE0A2E25009E5BFA2E2500375BFFBE000
:10249800A2E35009E5BFA2E3500375BFF7E0A2E449
:1024A8005009E5BFA2E4500375BFEFE0A2E550096B
:1024B800E5BFA2E5500375BFDFE0A2E65009E5BF1E
:1024C800A2E6500375BFBFD083D082D0D0D0E0320F
:1024D800C0E074F2121E46E5A7A2E4500FE5A1A2DF
:1024E800E4500953A7EF75A1EF12252CE5A7A2E543
:1024F800500CE5A1A2E5500653A7DF75A1DFE5A7BB
:10250800A2E15009E5A1A2E1500375A1FDE5A7A24A
:10251800E2500CE5A1A2E2500653A7FB75A1FB7F90
:1025280001021EA574F8121D5A75210190076FE06B
:10253800640670077A007B00121410A2AFE433FE21
:10254800D2AF900775E0640170187A207B0090077D
:102558006EE0F91203427A207B0090076EE0F912D0
:1025680002CA906182E0D2E6F0900B40E0602185DB
:10257800C6228016900774E064017008E5C654F816
:102588004405F5C653BEFC12234C7401652160E472
:10259800EEA2E092AF7F01021E0600008E238F2478
:1025A800858228858327851882851983E0CEA3E054
:1025B800CF852882852783EBC9EAC8EDCBECCA759D
:1025C800F010C3E833C8E933C9EA33CAEB33CBC3E5
:1025D800EA9EF526EB9FF525B35004AB25AA26EC19
:1025E80033CCED33CDD5F0DAAE23AF242274F1121B
:1025F8001D5A8A088B098C0A8D0B740F121CE278FD
:102608000C121B679090C07808121B2E9090C0780F
:102618000C121B2E7808790C12195350157808796A
:102628000C121AF3909080780812197340157901EA
:102638008013780C7908121AF3909080780C12198C
:102648007340EB79007F08021E0674ED121D5A8A4A
:10265800088B098C0A8D0B7413121CE2780C121B60
:10266800679090C07808121B2E9090C0780C121BAF
:102678002E780C790812195340117808790C121A1F
:10268800F3AA08AB09AC0AAD0B80227510007511CE
:10269800007512007513017810790C121AF378106E
:1026A8007908121ABAAA10AB11AC12AD137F0C023A
:1026B8001E069090C07808121B678A828B83780860
:1026C800121B417F04021E0674F5121D5A8C828D5E
:1026D800837808121B678A828B837808121B07127B
:1026E8002724C3E098F0A3E099122716401E909083
:1026F800A07808121B678A828B837808121AE08EEA
:10270800828F83E02420F0A3E0344EF080A4F08E82
:10271800828F83C3E09420A3E0944E22EA2404F835
:10272800EB3400F9E8FEE9FF8C828D83A3A3A3A311
:10273800E0F8A3E0F98E828F832274F5121D5AE91E
:10274800FE900ACCE0FAA3E0FBEEC333F8E433F9D9
:1027580074E128F582748F39F583E02AF508A3E03F
:102768003BF5097808121F019090CC121B851225A1
:10277800A47402121CAD8A088B098C0A8D0B741084
:102788007808121A82AA08AB097F04021E0674F19F
:10279800121D5A8A0C8B0D8C0E8D0F740F121CE2B1
:1027A800E0FAA3E0FB7411121CE2E0F508A3E0F5DF
:1027B800097413121CE2E0FEA3E0FF7808121F015F
:1027C800EA2401F508EB3400F509E4F50AF50B787D
:1027D8000C79081219929090747808121B67780C7B
:1027E8007908121992AA0CAB0DAC0EAD0F1225A4E4
:1027F8007402121CAD8B09EA450960047A01800253
:102808007A00EC2AFCED3400FDECF8EDF97A717BE6
:1028180002121C0C88088909E4F50AF50B8E828FD0
:10282800837808121B76ECF8EDF97A717B02121C9A
:102838000C8A088B0974057808121C848E828F8391
:10284800A3A3A3A3E508F0A3E509F07F08021E06E9
:0E285800C082C083E9906000F0D083D082225D
:10286800FFFFFFFFFFFFFFFF74F7121CEEE9900464
:102878007DF012179A90047DE0F912094E12099C16
:1028880090047DE0F91209A290047DE0F9120B5E34
:102898009090A0121B851209849090A0121B85129B
:1028A8000B7C7AC57B101202647CC57D10790012FE
:1028B800097E7CDA7D107A02790112097E79017A23
:1028C8001F7B901203D879027A117B901203D87972
:1028D800037A2C7B901203D87CE27D047A1079026B
:1028E8001205707CF27D047A1079031205707C7EE3
:1028F8007D047A0479041205707F01021DC074F406
:10290800121CEE8A088B09EB5480607390047DE0FA
:10291800F91202AC8A0A8B0BAE0AAF0BEE4F605667
:102928008E828F83E0246F600924FE703C12048637
:10293800803AA3E0640E70378E828F83A3A3A3A38B
:10294800A3121F18EE24FDF582EF34FFF583E0246F
:10295800F9FC8E828F83A3A3A3123CDDFB790E12B0
:102968000DFE7402121CAD80061204AAE96007EE7F
:10297800FAEFFB120294AA08E5096480FB803BEB9E
:10298800544060137C7E7D047A04790412056AAA97
:1029980008E509644080E5EAA2E0500AC2AF75C9BB
:1029A800AB75C95B80FE5402600C1220D8E5086440
:1029B80002FAAB0980047A007B000247AF74F41274
:1029C8001CEE74F9121C97EAFEEBFF851882851934
:1029D80083E4124620122D1AC0E07401121CE2D0C2
:1029E800E012504FA882A983E0FCA3E0FBECFA7444
:1029F80002121CE2EAF0A3EBF0E824020808E9124C
:102A08004F68C0E07404121CE2D0E012504F08A9CD
:102A1800837405121CE21246397402121CE2E0F5B6
:102A280008A3E085080AF50B7407780A121C757864
:102A38000A121F7B010004CB2A4B2A612A742A91AF
:102A48002AAE2A7401121CE2AA82AB83E508547FDD
:102A5800F9120492E9F508806D7401121CE2AA8249
:102A6800AB83E508547FF912049880E885188285BD
:102A78001983AC82AD837401121CE2AA82AB83E590
:102A880008547FF912049E80CB851882851983AC7F
:102A980082AD837401121CE2AA82AB83E508547FDD
:102AA800F91204A480AE851882851983AC82AD839F
:102AB8007401121CE2AA82AB83E508547FF9120460
:102AC8008C8091750801EEFAEFFB1202949004AA2B
:102AD800747FF0A37406F0E508A3F07402121CE2F8
:102AE800E09004ADF07402121CE2A3E044FC9004F0
:102AF800AEF0851882851983E09004AFF07CAA7D3A
:102B080004851882851983E02406FA79FF120E04D9
:102B1800790074070247AC74E8121CEE8A828B8332
:102B2800ECFEEDFFA3A3A3A3E0F50AA3E0F50B7564
:102B38000C008E828F83E4125508858208858309EC
:102B4800E96012146039147003022BD51470030263
:102B58002C8D022C93850A82850B83E09090E0707F
:102B680017121F147A017B0090047DE0F9120336D6
:102B78007404121CAD022C96121F147A0280E78589
:102B88000A82850B83E0F9850882850983E0FAC308
:102B980094325010E924FE601114600E147005740C
:102BA800046A600B750C02022C9674106A70F57C2E
:102BB800B07D04120570E9F50C6003022C968508B7
:102BC80082850983E08E828F83F0022C96850A82A3
:102BD800850B83E0F50E850882850983E0FAE50E0A
:102BE80024FE600D14600A1470BA74046A70B5800B
:102BF8000574106A70AEE50A2402FEE50B3400FF86
:102C0800EEFCEFFDA90E12056AE9F50C7404650ED9
:102C1800707C8E828F831245A8850A82850B83A3D8
:102C2800A3A3E0F514E4F515F516F5177408781460
:102C3800121A9B78107914121ABA850A82850B83A6
:102C4800A3A3A3A3E0F514E4F51574107814121ADD
:102C58009B78107914121ABA850A82850B83A3A36C
:102C6800A3A3A3E0F508E4F509F50AF50B741878B1
:102C780008121A9B78107908121ABA90047E7810F4
:102C8800121B768009120360022BAC750C01A90C8B
:102C98007F10021DC074F4121CEE74F4121C978984
:102CA800088A828B83A3A3A3122D1AFEA3E0FDEE4C
:102CB8002400E43DFFE82402FCE93400FDE5082493
:102CC800F6602624F87044122D20121F0174021297
:102CD8001CE2AA82AB83120ED07402121CADE970FA
:102CE8002C122D34120E5E8024122D20121F017416
:102CF80002121CE2AA82AB83120EBE7402121CAD31
:102D0800E9700A122D34120E5880027901740C02EF
:102D180047ACA3125433E0228A828B83A3A3A3E097
:102D280024FEF50AE434FFF50B780A2290047D129C
:102D38003629EEFAEFFB2274EE121CEE74E7121C31
:102D480097890C8A0E8B0F8A828B83A3A3A3A31265
:102D58003CE28C828D83123CDDF9EA2400F50AE41A
:102D680039F50B75080E750991EC2403FAED34005A
:102D7800FBEC2402FEED3400FFE50C121F45011D9B
:102D8800A135C62D012E3E2E752ECA2E022F9D2F3F
:102D9800D52F9730CF300D3145318331BB31F931E3
:102DA8003132AF32E7325B33A135A1358933203474
:102DB8005834D834A1350635A135353576358518DA
:102DC800828519838582088583097808121F011274
:102DD800363612061E7402121CADE9F50D600302A8
:102DE80035A4851882851983AC82AD83AA0AAB0BFA
:102DF8001205BEE9F50D0235A4851882851983856B
:102E080082088583097808121F01850E82850F8341
:102E1800123D5F121F010C0CEFFD7A0079001206BB
:102E28002A7404121CADE9F50D60030235A41236AC
:102E38001E1209A880BD8518828519838582088598
:102E480083097808121F01123636120636740212E8
:102E58001CADE9F50D60030235A485188285198338
:102E6800AC82AD83AA0AAB0B1205C4808685188292
:102E78008519838582088583097808121F01850EC4
:102E880082850F83123D5F121F010C0CEFFD7A0043
:102E980079001206427404121CADE9F50D600302B4
:102EA80035A47402121CE2121F1890047DE0F97414
:102EB80002121CE21236061209CC7402121CAD0270
:102EC8002DFB8518828519838582088583097808F2
:102ED800121F0112363612064E7402121CADE9F5A5
:102EE8000D60030235A4851882851983AC82AD83F1
:102EF800AA0AAB0B1205CA022DFB85188285198315
:102F08008582108583117810121F011235F0121F67
:102F1800010C0CEFFD7A00790012065A7404121C99
:102F2800ADE9F50D60030235A47404121CE21235F4
:102F3800DE121F017407121CE285820E85830F784A
:102F48000E121F011235D0121CADE960428518829D
:102F5800851983E064017002A3E070337402121CC7
:102F6800E2E0F47003A3E0F47025123D3A121F0565
:102F78007408121CE2E0F97409121CE2AC82AD83F9
:102F8800AA0AAB0B1209B47401121CAD022DFB7511
:102F98000D020235A48518828519838582088583E8
:102FA800097808121F011236361206667402121CBE
:102FB800ADE9F50D60030235A4851882851983AC47
:102FC80082AD83AA0AAB0B1205D0022DFB851882AD
:102FD8008519838582088583097808121F01850E63
:102FE80082850F83123D5F121F011235C2121CAD7C
:102FF800E9F50D60030235A47404121CE21235E7EA
:10300800121F017407121CE285820885830978085B
:10301800121F017C027D007A087B911235D8121CA0
:10302800ADE9601B7402121CE2121F1890047DE0C7
:10303800F97402121CE21236061209BA022EC27480
:1030480004121CE21235E7121F017407121CE285F4
:1030580082088583097808121F017C027D007A06A0
:103068007B911235D8121CADE9601B7402121CE268
:10307800121F1890047DE0F97402121CE212360641
:103088001209C0022EC212361E1209D8022DFB8563
:1030980018828519838582088583097808121F019B
:1030A80012363612067E7402121CADE9F50D600365
:1030B8000235A4851882851983AC82AD83AA0AAB30
:1030C8000B1205D6022DFB85188285198385820887
:1030D8008583097808121F01850E82850F83123DAA
:1030E8005F121F010C0CEFFD7A00790012068A743A
:1030F80004121CADE9F50D60030235A412361E1248
:1031080009D2022DFB85188285198385820885835B
:10311800097808121F011236361206967402121C1C
:10312800ADE9F50D60030235A4851882851983ACD5
:1031380082AD83AA0AAB0B1205DC022DFB8518822F
:103148008519838582088583097808121F01850EF1
:1031580082850F83123D5F121F010C0CEFFD7A0070
:1031680079001206B47404121CADE9F50D6003026F
:1031780035A412361E1209DE022DFB851882851928
:10318800838582088583097808121F011236361252
:1031980006C07402121CADE9F50D60030235A48562
:1031A8001882851983AC82AD83AA0AAB0B1205E29B
:1031B800022DFB8518828519838582088583097805
:1031C80008121F01850E82850F83123D5F121F01B1
:1031D8000C0CEFFD7A0079001206CC7404121CADB9
:1031E800E9F50D60030235A412361E1209E4022D1A
:1031F800FB851882851983858208858309780812DA
:103208001F011236361206D87402121CADE9F50DEC
:1032180060030235A4851882851983AC82AD83AA20
:103228000AAB0B1205E8022DFB85188285198385E8
:1032380082108583117810121F011235F0121F01B8
:103248001235C2121CADE9F50D60030235A47404F1
:10325800121CE21235DE121F017407121CE285826D
:103268000E85830F780E121F011235D0121CADE99E
:103278007003022F97851882851983E06401700214
:10328800A3E06003022F977402121CE2E0F47003BB
:10329800A3E0F46003022F9790047DE0F9AA0AAB3B
:1032A8000B1209AE022DFB851882851983858208C9
:1032B8008583097808121F011236361206E4740253
:1032C800121CADE9F50D60030235A4851882851935
:1032D80083AC82AD83AA0AAB0B1205EE022DFB85E7
:1032E80018828519838582088583097808121F0149
:1032F800850E82850F83A3A3A3E024FC123D6912E7
:103308001F01EC2404FCED3400FD8A828B83E0FA73
:103318008E828F83E0F9123CF0121CADE9F50D6046
:10332800030235A47418121CE2E0700912361E124A
:1033380009F6022DFB7417121CE2124588AC82AD07
:1033480083AA0AAB0B70061209EA022DFB1209F0D8
:10335800022DFB8518828519838582088583097863
:1033680008121F011236361206A87402121CADE9A3
:10337800F50D60030235A4AA0AAB0B1205F4022D61
:10338800FB85188285198385820885830978081248
:103398001F01850E82850F83123D5F121F010C0CE1
:1033A800EFFD7A0079001206F07404121CADE9F5FD
:1033B8000D60030235A4900503123D53700F7A7314
:1033C8007B00120306900503EAF0A3EBF0900503D7
:1033D800123D53603D900502E0C394054003022F5F
:1033E80097851882851983C082C083900502E0758D
:1033F800F017A4F8A9F0900503E028FCA3E039FD34
:10340800D083D0827417121BAA900502E004F00240
:1034180035A4750D130235A4851882851983858214
:10342800088583097808121F011236361206FC74C3
:1034380002121CADE9F50D60030235A485188285DA
:103448001983AC82AD83AA0AAB0B1205FA022DFBD5
:103458008518828519838582088583097808121F53
:1034680001850E82850F83123D5F121F010C0CEF40
:10347800FD7A0179001207087404121CADE9F50DF4
:1034880060030235A4900503123D537003022F9781
:10349800123D3A121F057401121CE2123D3D121F23
:1034A80005900502E0F9900503123606120A027427
:1034B80002121CADE9F50D600A900503123CDDFB14
:1034C80012030C900503E4F0A3F0900502023416F1
:1034D8008518828519838582088583097808121FD3
:1034E8000112363612070E7402121CADE9F50D6092
:1034F800030235A4AA0AAB0B120600022DFB85189D
:10350800828519838582088583097808121F01122C
:10351800360E121F011235B3121CADE9F50D707C81
:103528008E828F83123621120ACE022DFB851882D5
:103538008519838582088583097808121F01123648
:103548000E121F011235B3121CADE9F50D704D12A4
:103558003D3A121F058E828F83E0F97401121CE236
:10356800AC82AD83AA0AAB0B120AC8022F8F85184A
:10357800828519838582088583097808121F0112BC
:1035880036361207207402121CADE9F50D700DAA2B
:103598000AAB0B1205B8022DFB750D01A90D12041B
:1035A800CE7419121CAD7F0A021DC00C0C0CEBFD69
:1035B8007A00790012071A7404220C0CEFFD7A00C5
:1035C80079001206727404227C027D00AA08AB09F5
:1035D80012072C740422E0F50E750F00780E22E015
:1035E800F508750900780822850E82850F83A3A344
:1035F800A3E024FEF50EE434FFF50F780E22123C0A
:10360800E2AA0AAB0B22850E82850F83A3A3A3E04F
:1036180024FD123D692290047D123629AA0AAB0BBB
:1036280022E0F9851882851983AC82AD8322850E44
:1036380082850F83A3A3A3E024FEFCE434FFFD1AD4
:10364800EFFB2274EA121CEE74E0121C97890E8AB2
:10365800828B83A3A3A3A3E0F508A3E0F50985085B
:1036680082F583E0FCA3E0F9EC2400F50CE439F5DD
:103678000DE5082405F512E5093400F513E50824DD
:1036880004F510E5093400F511E5082402FEE50902
:103698003400FFE5082403F50AE5093400F50BE5D5
:1036A8000E121FC1001602F23604E737063F37082C
:1036B800AD370A34380CB0380EF23810373712B03C
:1036C8003916E8391B3D3C1D7E3C30623732623783
:1036D8003476383634393871393AA33A3C813B3E2E
:1036E800C33B40053C42E839CB3C7407121CE285D9
:1036F80082088583097808121F01123D5B121F0199
:10370800EEFCEFFD7A00790012062A7404121CAD53
:10371800E9F50A6003023CCE123D32121CE2AC828B
:10372800AD83AA0CAB0D1209A8E9F50A023CCE122A
:103738003D061209AE80F2123D3A121F058A828BAD
:1037480083A3A3A3E024FEF9EEFCEFFDAA0CAB0DC6
:103758001209B47401121CAD80CF123CF6740468CF
:103768007001E9703A123D222400FCE439FD123D53
:1037780010F508E439F5097430650E7808701012F0
:103788001F01123D061209BA7402121CAD809A126A
:103798001F01123D061209C07402121CAD808A7501
:1037A8000A04023CCE7407121CE28582088583094C
:1037B8007808121F01123D5B121F01EEFC1235C47E
:1037C800121CADE9F50A6003023CCE123D32121C10
:1037D800E2AC82AD83AA0CAB0D1209C60237317474
:1037E80007121CE28582088583097808121F0112D6
:1037F8003D5B121F01EEFCEFFD7A007900120642D4
:103808007404121CADE9F50A6003023CCE74091277
:103818001CE2121F1890047DE0F97409121CE212D0
:103828003CE2AA0CAB0D1209CC0237907407121CAB
:10383800E28582088583097808121F01123D5B1210
:103848001F01EEFCEFFD7A00790012068A7404125B
:103858001CADE9F50A6003023CCE123D32121CE2AF
:10386800AC82AD83AA0CAB0D1209D20237317407B2
:10387800121CE28582088583097808121F01123D0F
:103888005B121F01EEFC1235C4121CADE9F50A608B
:1038980003023CCE123D32121CE2AC82AD83AA0C6C
:1038A800AB0D1209D80237317407121CE285820861
:1038B8008583097808121F01123D5B121F01EEFC77
:1038C800EFFD7A0079001206B47404121CADE9F514
:1038D8000A6003023CCE123D32121CE2AC82AD8378
:1038E800AA0CAB0D1209DE0237317407121CE285EF
:1038F80082088583097808121F01123D5B121F0197
:10390800EEFCEFFD7A0079001206CC7404121CADAF
:10391800E9F50A6003023CCE123D32121CE2AC8289
:10392800AD83AA0CAB0D1209E40237317407121CDF
:10393800E28582088583097808121F01123D5B120F
:103948001F01EEFCEFFD7A01123CEE121CADE9F509
:103958000A6003023CCE7407121CE2AC82AD83AA53
:103968000CAB0D1209EA0237317407121CE285828A
:10397800088583097808121F01123D5B121F01EEAA
:10398800FCEFFD7A017901123CF0121CADE9F50A51
:103998006003023CCE7407121CE2AC82AD83AA0C11
:1039A800AB0D1209F00237317407121CE285820848
:1039B8008583097808121F01123D5B121F01123C12
:1039C800E8121CADE9F50A6003023CCE123D321242
:1039D8001CE2AC82AD83AA0CAB0D1209F60237319A
:1039E8008A828B83A3A3A3E0FA24FEF8E434FFF9C8
:1039F800C3E89405E99400A2D265D0335003023796
:103A0800A774FA2AF5147404121CE2E514F0FA7B80
:103A1800001203067405121CE2EAF0A3EBF0740529
:103A2800121CE2123D53606D123D228518828519E1
:103A38008312463A123D10F87402121CE2124639FB
:103A48007404121CE2E0F50A750B00780A121F01D3
:103A5800E5082406FCE5093400FD7407121CE2128F
:103A68004580121CAD7416650E90047D7008123DD9
:103A7800431209FC8006123D43120A1AE9F50AE5C9
:103A88000A7003023CCE7405121CE2123CDDFB12E4
:103A9800030C023CCE750A13023CCE123CF6C3E876
:103AA8009401E99400A2D265D03350030237A78E5F
:103AB800828F83E0F50F74FF250FC394054003023E
:103AC8003B7BE50F75F017A4FAABF01203068A08E2
:103AD8008B09AE08AF09EE4F60BB850A08850B0954
:103AE8007510008059850882850983E02404F51241
:103AF800A3858208858309E51075F017A4F8A9F055
:103B0800EE28F50AEF39F50B780A121F0185120A1B
:103B1800750B00780A121F01AC08AD097A0079000C
:103B28001206F07404121CADE9F50A6003023CCEDB
:103B3800E5082512F508E5093400F5090510E51032
:103B4800C3950F40A0123D3A121F05750801780869
:103B5800121F05A90FEEFCEFFDAA0CAB0D120A020D
:103B68007402121CADE9F50A7003023CCEEEFAEFBE
:103B7800023A96750A02023CCE7407121CE285824C
:103B8800088583097808121F01123D5B121F01EE98
:103B9800FCEFFD7A00790012068A7404121CADE964
:103BA800F50A6003023CCE123D32121CE2AC82AD33
:103BB80083AA0CAB0D120A080237317407121CE2F3
:103BC8008582088583097808121F01123D5B121F40
:103BD80001EEFCEFFD7A0079001206B47404121CA1
:103BE800ADE9F50A6003023CCE123D32121CE2AC8C
:103BF80082AD83AA0CAB0D120A0E0237317407127C
:103C08001CE28582088583097808121F01123D5B32
:103C1800121F01123CE8121CADE9F50A6003023CD0
:103C2800CE123D32121CE2AC82AD83AA0CAB0D124F
:103C38000A140237317407121CE285820885830949
:103C48007808121F018A828B83123614121F01AC66
:103C58000AAD0B1235B8121CADE9F50A70688E82F0
:103C68008F83123D35121CE2AC82AD83AA0CAB0DDA
:103C7800120ACE0237317407121CE2858208858346
:103C8800097808121F018A828B83123614121F01C9
:103C9800AC0AAD0B1235B8121CADE9F50A70271243
:103CA8003D3A121F058E828F83E0F97408121CE2D8
:103CB800AC82AD83AA0CAB0D120AC87401121CADFC
:103CC800023731750A01A90A1204CE7420121CADFC
:103CD8007F0E021DC0E0FAA3E022E0FCA3E0FD2273
:103CE800EEFCEFFD7A00790012069C7404228A82A9
:103CF8008B83A3A3A3E024FEF8E434FFF922900405
:103D08007DE0F9AA0CAB0D22851082851183E0FABB
:103D1800851282851383E0F9EA228E828F83E0FA86
:103D2800850A82850B83E0F9EA2290047DE0F97424
:103D3800072290047DE0F508780822123629AA0C9B
:103D4800AB0D22A3A3A3A3A3A3A3A3E0F8A3E0F925
:103D5800E849228A828B83A3A3A3E024FE123D694B
:103D680022F508E434FFF50978082274EA121CEEFB
:103D780074A5121C978C0C8D0D8A828B83A3A3A328
:103D8800A3E0FEA3E0FFEE2402F50AEF3400F50BF2
:103D98008E828F83A3858208858309E97003023E9A
:103DA8003E24FD7003023F43147003023F991470D0
:103DB80003023FDB1470030240881470030240E2E0
:103DC8001470030240F9147003023FE514700302F3
:103DD80040771470030241041470030243F1147015
:103DE800030244901470030243741470030242FBEC
:103DF8001470030242F214700302403524E1700388
:103E080002440214700302443514700302447E1401
:103E1800700302449914700302450C1470030245A0
:103E280023147003024430147003024529147003EC
:103E38000244300245338E828F83E0F5147C10797A
:103E480000AA0AAB0B1202E8E97019750C10750D7F
:103E580000780C121F01AC0AAD0B7AE27B04124FFA
:103E68002F121CADEE2412F50AEF3400F50B7C106E
:103E78007900AA0AFB1202E8E97019750C10750D91
:103E880000780C121F01AC0AAD0B7AF27B04124FBA
:103E98002F121CADEE2422124555F50CE4F50DF554
:103EA8000EF50FEE2423F582EF124F621245A01291
:103EB8001A9B780C7910121ABAEE2424F582EF12A4
:103EC8004F62124575121A9B780C7910121ABAEEC5
:103ED8002425F582EF124F6212456A121A9B780C5C
:103EE8007910121ABAE50C450D450E450F60089079
:103EF800047E780C121B76750A7E750B04780A12FC
:103F08001F01750AF2750B04780A121F017CE27D05
:103F180004850882850983E0FBAA1490047DE0F9F2
:103F28001203667404121CADE9FE90047DE0FC7D6A
:103F3800007A237B001207B0024535750A00750B1D
:103F480000740A121CE2AC82AD837583907582629C
:103F58007406121BAA750C06F50D780C121F017455
:103F68000C121CE2AC82AD83AA08AB0912027C7465
:103F780002121CADE96401600685080A85090BAACE
:103F88000AAB0B8E828F83E0F91207C8E9FE02455F
:103F98003590047DE0C0E07410121CE2D0E01246B7
:103FA80025E0C0E07411121CE2D0E012464DC0E0DA
:103FB8007412121CE2D0E0124620E0C0E074131222
:103FC8001CE2D0E0F07410121CE2AA82AB83120744
:103FD8003880B990047DE0F912073E80AF90047DE7
:103FE800124588124625E0C0E07401121CE2D0E0B8
:103FF80012464DC0E07402121CE2D0E0124664C0C2
:10400800E07403121CE2D0E0124658121F01EEFCC5
:10401800EFFD7406121CE2124F2B121CAD8518829C
:10402800851983AA82AB83120786023F94124590B2
:1040380085188285198312463FFAA3E0F9EAF874D5
:1040480002121CE21246737404121CE212467374C4
:1040580006121CE21246737408121CE212463985D5
:104068001882851983AA82AB83120792023F9412A1
:10407800459AE439FB90047DE0F9120846023F9422
:104088008E828F8312458812464DC0E07401121C3F
:10409800E2D0E0124658121F01EEFCEFFD74041244
:1040A8001CE2124F2B121CADEE240612455FC0E035
:1040B8007408121CE2D0E0124620E0C0E074091235
:1040C8001CE2D0E0F0851882851983AA82AB839020
:1040D800047DE0F91208CA023F94AC0AAD0BE0FB7C
:1040E8008E828F83E0FA90047DE0F91208D0023FB7
:1040F8009490047DE0F91208D6023F94750C00757F
:104108000D007C187D0079007414121CE2AA82ABA1
:1041180083120282124590F87414121CE2E81246C7
:104128003FC0E07416121CE2D0E0124620AE82AF07
:1041380083E0C0E07417121CE2D0E01246200EAFF4
:10414800837508107509007808121F01EEFCEFFD51
:10415800741A121CE2124F2B121CAD12455CC0E0FF
:104168007428121CE2D0E0124664C0E0742B121CC2
:10417800E2D0E012462BA30E0EAF83A2E0E433FC9C
:10418800EAA2E15004D2F08002C2F0A2F0E433F8CF
:10419800EAA2E25004D2F08002C2F0A2F0E433F5C1
:1041A80008EAA2E35004D2F08002C2F0A2F0E4339D
:1041B800F50A750B00EAA2E45004D2F08002C2F0BE
:1041C800A2F0E433F50E750F00EAA2E55004D2F030
:1041D8008002C2F07429121CE21245CC121C84120F
:1041E800453C121C84EA450A54EFFA7404780E120E
:1041F8001C84EA450E124547121C84EA4508F874E7
:1042080029121CE21246398E828F83E0A30EAF83F7
:1042180070030242DFE0C0E0740A121CE2D0E01230
:104228004664C0E0740B121CE2D0E0124664C0E0A1
:10423800740C121CE2D0E0124664C0E0740D121C2B
:10424800E2D0E012462BA2E0E433FCEAA2E15004FB
:10425800D2F08002C2F0A2F0E433F8EAA2E25004FD
:10426800D2F08002C2F0A2F0E433F508EAA2E350EB
:1042780004D2F08002C2F0A2F0E433F50AEAA2E424
:104288005004D2F08002C2F0A2F0E433F50CEAA2A6
:10429800E55004D2F08002C2F0740E121CE21245FE
:1042A800CC121C8412453C121C84EA450A54EFFACD
:1042B8007404780C121C84EA450C124547121C84BD
:1042C800EA4508F8740E121CE2124639740A121CE8
:1042D800E285820C85830DAC0CAD0D7414121CE2C2
:1042E800AA82AB83120852023F941245B3120858AF
:1042F800023F941245EA121F01EEFCEFFD744212D0
:104308001CE2124F2B121CAD12455CFAA3E0F9EA2D
:10431800F87450121CE2124639124686750C087859
:104328000C121F01EEFCEFFD7454121CE2124F2B0D
:10433800121CAD8E828F83A3A3A3A3A3A3A3A3E080
:10434800C0E0745A121CE2D0E0F0750B01780B1231
:104358001F057441121CE2AC82AD83A90AAA08ABFE
:104368000912086A7401121CAD023F941245EA1240
:104378001F01EEFCEFFD742E121CE2124F2B121CD3
:10438800AD12455CF50CE4F50EF50FA31245A0122D
:104398001A9B780C7910121ABA8E828F83A3A312F3
:1043A8004575121A9B780C7910121ABA8E828F836F
:1043B800A3A3A312456A121A9B780C7910121ABA91
:1043C800743C121CE2E50CF0A3E50DF0A3E50EF039
:1043D800A3E50FF0742C121CE2AC82AD83A90AAAE3
:1043E80008AB0912084C023F9412459AFCE439FDC7
:1043F800AA0AAB0B12085E023F948E828F83E0FA02
:104408007B00850882850983E0FC850A82850B8309
:10441800E0F9EC2400E439FDEA6423600BEA942413
:1044280050061207B0023F947E0202453578FF79A4
:10443800FF8E828F83E0FA7B00F46024EA642360B5
:104448001FEAC3942450191207B68A088B09A808D2
:10445800A90974FF68700374FF6960047E00800214
:104468007E02850C82850D837402F0E89004B0F01A
:10447800E9A3F0024535EE2410FCEF3400FDEEFA16
:10448800EFFB120828023F941245B3120948023F75
:1044980094E0F50EF58285820C750D002404FAE48B
:1044A8003400FB1203068A088B09EA450960518E1D
:1044B800828F83E08A828B83F0A3E50EF0EA2402E0
:1044C800F8EB34000A0AFBE50824040808E5093477
:1044D80000F98A828B83124639780C121F01AC0AC4
:1044E800AD0B8A828B83124580121CADAA08AB09DA
:1044F8001208DCE9FE6036AA08AB0912030C802D0D
:104508007E1380298E828F83E0F91208E2EA4B70CD
:104518000302443012030C7E0080121208E8023FA6
:10452800947E028C828D83E402447A7E01EEF974D3
:104538005B023CD5EA450854F7FA7403780A22541A
:104548001FFAA2F0E433F5087405780822F582EF23
:1045580012517222EE2410FEEF3400FF8E828F83F8
:10456800E022E0F510E4F5127418781022E0F51056
:10457800E4F5117410781022123CDDFB125002226F
:10458800E08518828519832212459422124612F971
:10459800EA221245942400221245A87408781022B1
:1045A800E0F510E4F511F512F51322850A82850B62
:1045B80083E0F98E828F83E0FC850882850983E099
:1045C800FBECFA22E054FEFAA3E0FBEA4C54FDFAB5
:1045D800E8C333F8EA48F8EBF9E854FBFA740278D0
:1045E8000822124612F8E4C8F9EA2400F508E4396A
:1045F800F5090E0EAF0B8E828F83E0F50AA3AE820B
:10460800AF83750C10880D780C228E828F83E0FAA8
:10461800850882850983E022124625A322F08E822E
:104628008F8322124625A3E0FA22F985188285197C
:1046380083E8F0A3E9F022F0A3E9F00E0EAF0B8EA9
:10464800828F83E022F0AE08AF098E828F83E0224A
:10465800124669750806750900780822124669E04D
:1046680022F08E828F83A30EAF8322E8F0A3E9F0B5
:104678001246868E828F83123CDDF9EAF822EE24F8
:10468800020E0EEF3400FF2274F4121CEE74FE12B8
:104698001C97EAFEEBFF851882851983E4F0F5087C
:1046A800F50904121CE2E4F07C28FDF97A827B0407
:1046B8001202828E828F83E0245E604324F2605D62
:1046C80014700302475224E1600302477774011211
:1046D8001CE28582088583097808121F017402127A
:1046E8001CE28582088583097808121F017C827D77
:1046F80004EEFAEFFB1204B07404121CAD806C8552
:1047080018828519838582088583097808121F0114
:104718007C827D04EEFAEFFB1204B6804974011224
:104728001CE28582088583097808121F0174021229
:104738001CE28582088583097808121F017C827D26
:1047480004EEFAEFFB1204BC80AE8518828519834B
:104758008582088583097808121F017C827D04EE12
:10476800FAEFFB1204C27402121CAD8A088B09EE20
:10477800FAEFFB120294851882851983E0600AAC6F
:1047880008AD09FA79FF120E04E5084509601174AD
:1047980001121CE2E064017007AA08AB0912030CBD
:1047A80079007402121CAD7F04021DC074E8121C4B
:1047B800EE74FE121C97EAFEEBFF8C088D0975104B
:1047C80000750A00750B00EC2406F8ED3400F9ECCE
:1047D8002405FAED3400FBEC2404F516ED3400F55D
:1047E800178C828D83A3858214858315EE2403F5A7
:1047F8000EEF3400F50F8E828F83A3858212858396
:10480800138E828F83A3A3E0121F45000F024F3738
:1048180048B448B849CC49DF49F849AB4ACA4A2A9A
:104828004B484BEE4BBB4B4C4E814EB14DBA4D8C69
:10483800828D83E41250CE121F01124F88121CADD4
:10484800125131C0E0124F5AD0E0F0750A10780AC0
:10485800121F017CE27D04E508240CFA124F921223
:104868001CAD780A121F017CF27D04E508241CFAAD
:10487800124F92121CAD851282851383E070217C41
:10488800E27D047A10790212056A7CF27D047A10BE
:10489800790312056A7C7E7D047A04790412056A1C
:1048A80085080A85090B75102C024F02851282852E
:1048B8001383E0600302497B850E82850F83E070D5
:1048C8000302497B33333354F82404124F33700303
:1048D8000249728A828B837401F0A374061250AE67
:1048E8008512828513831250A7850E82850F831245
:1048F80050A78E828F83A3A3A3A3E0F8A3E0124658
:10490800327E00804E124FB11250A7124FB1A3123F
:1049180050A77516067517007816121F0174021233
:104928001CE2E02402FCA3E03400FDAA0CAB0D124B
:104938004F2F121CADE50C2406F50CE50D3400F5DF
:104948000D0E851882851983E02408F8A3E0340049
:10495800124632850E82850F83E0F8EEC39840A593
:10496800741C121CE2124FC48008851282851383BE
:104978007413F0851282851383E0700C850E82858E
:104988000F83E06003024F02850882850983740162
:104998001250818512828513831254E3F0850882B0
:1049A800850983A3A3A3E412509F751004024F0244
:1049B8008C828D83740212507374061250DA8C0A3A
:1049C8008D0B80E68C828D8374031251C18C0A8D05
:1049D8000B751005024F028C828D8374041250816E
:1049E8008E828F83124FAA125024751003024F0231
:1049F8008C828D83740512507304125195121F0115
:104A0800124F9B121CAD8E828F83A3A3A3A3A3A3D3
:104A1800A3A3A3A31254E812508AC0E0124F5AD09D
:104A2800E012504AC0E0E508240C124F5ED0E0F0D6
:104A3800124F81124F62A3E0C0E0E508240D124F27
:104A48005ED0E0F0EE240EF8124F67C0E0E50824CF
:104A58000E124F5ED0E012504FE0C0E0E508240F80
:104A6800124F5ED0E0F0EE24100808124F67C0E045
:104A7800E5082410124F5ED0E012504FE0C0E0E588
:104A8800082411124F5ED0E0F0EE2412124555C0F2
:104A9800E0E5082412124F5ED0E012509F75101303
:104AA800024F028C828D8374061250731250DA12F0
:104AB80051CC1250448A828B8312502675100602FC
:104AC8004F028C828D83740712507314F085128202
:104AD800851383124FAB12502C124FABA3A3A31212
:104AE80050448516828517831250568A828B83120A
:104AF8005067888289831250B712507B8C828D83CD
:104B0800A3A3A3A3A3A312502CA3A3A3A3A3124FAD
:104B1800AA12508A8C828D83A312501D75100B0225
:104B28004F028C828D837408125192121F01124F0A
:104B38009B121CAD85080A85090B75100A024F02E5
:104B48008C828D837409125192121F01124F9B128D
:104B58001CAD8E828F83A3A3A3A3A3A3A3A3A3A304
:104B6800780C121B67850882850983A3A3A3A3A3D6
:104B7800A3A3A3A3A312510D121B67E50DF50CE522
:104B880008240B125105121B677410780C121A8234
:104B9800E508240C125105121B677418780C121AB8
:104BA80082E508240D124F5EE50C12509F75100E19
:104BB800024F028C828D83740B1250CE121F011289
:104BC8004F88121CAD125131C0E0124F5AD0E0127A
:104BD800504AC0E0E508240C124F5ED0E012509F06
:104BE80075100D024F0275106A7A6A124F367003FB
:104BF800024D87741C121CE2124FC4F07C6A7D00BF
:104C08007900120282850A82850B83740A12517810
:104C1800850E82850F831250088E828F83A3A3A3EB
:104C2800A3A3125115F8A3E0F9E849604485088266
:104C3800850983740112511812511D121F018E82A9
:104C48008F83124FF1121CADE5082410124F431246
:104C58004FCA12511512505B121F018E828F83A307
:104C6800A3A3A3A3A3124FE2121CADE50824088056
:104C780004E508241C124F71123D536042850882D6
:104C8800850983740112516512511D121F01124FBB
:104C980081124F62124FF7121CADE5082410124F13
:104CA80071124FD012515E12505B121F01124F81C8
:104CB800124F62124FE2121CADE50824088004E589
:104CC80008241C124F43123D4B6047850882850912
:104CD800837401125125121F018E828F83124FEFA8
:104CE800121CADE5082410F508E5093400F509752E
:104CF8000C06780C121F018E828F83A3A3A3A3A393
:104D0800A3A3A3E02410124FE5121CADE508240666
:104D18008004E5082417124F54123D4B7003024FCC
:104D2800028508828509837401125125121F018E9C
:104D3800828F83A3A3124FEF121CADE50824101233
:104D48004F54A3A3124FCA780C121B6712519E121C
:104D58001B67E50D8508828509831251A6121B671A
:104D68007410780C121A8212519E121B67741878EC
:104D78000C121A82850882850983E50C024F018589
:104D88000882850983740A125081850882850983FF
:104D9800A3A37413F0850E82850F831254E3A3F046
:104DA8001251CC12509F0249D98C828D83740E0205
:104DB80049D28C828D83740F1251C18E828F83A346
:104DC800A3A3A3A3E08A828B831250568882898387
:104DD8001250678C828D83A3A3A3A3A3A3A312500D
:104DE800B7A312507BA2E0E433F50A8E828F83A327
:104DF800A3A3A3A3A3A3A3A3E054026004780280FF
:104E0800027800124F195404600478048002780074
:104E1800124F1954086004780880027800124F195C
:104E280054106004781080027800124F19542060E2
:104E380004782080027800E8450A8C828D8312501D
:104E48001D024B428C828D83740C1251C1750A0667
:104E5800780A121F01EE2405FCEF3400FD124F2FD3
:104E6800121CADEE240B124555C0E0124F5AD0E08B
:104E780012509F75100C024F02EE240C1245552457
:104E88000D124F33606B8A828B83740D1251788EAA
:104E9800828F83A3A3A3125008750C06750D0078A2
:104EA8000C121F01EE2405FCEF3400FDAA08AB0923
:104EB800124F2F121CADE5082406F508E509340049
:104EC800F509EE240BF582EF124F6212515E125172
:104ED8005FF50C780C121F01EE240DF582EF124FCE
:104EE80062124FF7121CAD741C121CE2124FC480E0
:104EF800088512828513837413F0741A121CE21247
:104F08004FB7E510F0AA0AAB0B7402121CAD022CC5
:104F180098E8420A8E828F83A3A3A3A3A3A3A3A383
:104F2800A3E022AA82AB8312500222F510FA7B007A
:104F38001203068A0A8B0BEA450B22124F4722F509
:104F480008E5093400F5098E828F8322124F47A3A2
:104F5800A322E508240BF582E5093400F58322EF46
:104F68003400F988828983E022F508E5093400F5E0
:104F780009124F813400F58322EE240CF582EF22CA
:104F8800AC0EAD0FE50824031A1AE5093400FB122C
:104F9800500222EE2404FCEF3400FD1AAB17125025
:104FA8000222A3E08C828D832285188285198312C0
:104FB8004FBB22E0F8A3E0F583888222124FBB742E
:104FC8000122A3A3A3A3A3A3124FD422E02410F881
:104FD800A3E03400F98882898322E02412FCA3E04C
:104FE8003400FD124FFE22A3A3A3A3A3A3A3A312DD
:104FF8003CE2124FFE22AA08AB0912026A7402228E
:1050080012500C22A312515612501422F0A385827A
:105018000885830922A3A3A3A3A3A3A3A3A3F08C16
:105028000A8D0B22A3A3125032221250362212509C
:105038003A22F08E828F83A3A3A3A322125032A315
:10504800E022F012516C22F088828983A322125048
:105058006DE022124FD512500C750C08780C2212F4
:10506800506DA3E022125036A3A322F08514828546
:105078001583221250C2A3E022125085221251DF5A
:10508800F022125090A3E022A3A3A3A3A3A3A3A357
:10509800A31250C6A3A322F085080A85090B22E0B3
:1050A800850C82850D83F0A385820C85830D2212E1
:1050B80050C21250FCA3A3A3A3221250C62212501E
:1050C8003AA3A3A3A3221250851250ED750A0678BD
:1050D8000A221250DE22F01250ED850E82850F83CF
:1050E8001250FCF022851282851383E08C828D8316
:1050F800A3A3F022E08C828D83A3A3A322F582E5EB
:10510800093400F583E50C125099780C221251529B
:105118001251B3E022241A124FD7125152125010D2
:10512800750C10750D00780C228E828F83A3A3A3B3
:10513800A3A3A3A3A3A31251521250901254FEA3E7
:10514800A3A3F0EE240B12516F2212515622E085D0
:10515800088285098322E085088285098312501018
:1051680012516C22EE240CF582EF3400F583E02214
:10517800F0A3740612501085128285138312500D05
:10518800850E82850F8312500D221251DB1250DEDC
:10519800750A06780A22850882850983E50C12516A
:1051A800B3A3A3A3A3124FD4780C221250148E8257
:1051B8008F83A3A3A3A3A3A3221251DB1250DE1251
:1051C80051CCF022850E82850F83A3E08516828557
:1051D8001783221251DF22F0851482851583740605
:1051E8002274EE121CEEEAFEEBFF8C088D09741295
:1051F800121CE2E0F510A3E0F511EE2405F50CEF22
:105208003400F50D8E828F83A385820A85830B8EE9
:10521800828F83A3A3121F18850A82850B83E0F966
:10522800850C82850D83E04480FC7D04AA08AB09C7
:105238001204C87402121CADE9F50E850A82850BAA
:1052480083E0703A890AE508250AFAE5093400FB83
:10525800EE2406FCEF3400FD850C82850D83E014F6
:10526800600A24F6600B24F8600C8012120EAC80E1
:1052780008120EC48003120ED6EA250EF50E85100C
:1052880082851183E50EF0AA08AB090235AE74EEEB
:10529800121CEE8A088B09ECFEEDFF7412121CE258
:1052A800E0F510A3E0F5117414121CE212543375E2
:1052B8000C00E4F0EA2404F50EEB3400F50F8A82C2
:1052C8008B83A385820A85830BE060030253ECEE8F
:1052D8002406FAEF3400FBE5082405FCE509340050
:1052E800FD850E82850F83E014605714605A1460A0
:1052F8005D14606014606314606614606814606A0A
:1053080014606C14606E146070146072146074140D
:10531800607614607814605214607714607924FC05
:1053280070030253D71470030253DC147003025342
:10533800E124FD70030253E624FE70030253E602E3
:1053480053EC1206180253E91206240253E9120616
:10535800300253E912063C0253E91206480253E9A7
:10536800120654807C120660807712066C807212D6
:105378000678806D12068480681206908063120693
:10538800AE805E1206BA80591206C680541206D242
:10539800804F1206DE804AE508241CF582E50912D2
:1053A80045588A828B83F0E508241DF582E50912A9
:1053B80045588E828F83A3A3A3A3A3A3A3F0EE24AF
:1053C800080A0AEF3400FB1206A2EA24028013122C
:1053D80006EA800D1206F6800812070280031207FB
:1053E80014EAF50C850882850983A3A3121F188582
:1053F8000A82850B83E0F9850E82850F83E0FC7DA8
:1054080005EEFAEFFB1204C87402121CAD8E828FEF
:1054180083A3A3A3A3A3E50CF07406250C8510822F
:10542800851183F0EEFAEFFB0235AEE0F8A3E0F960
:10543800888289832274F2121CEE8C088D09740EFE
:10544800121CE2E0FEA3E0FF750A00EA2404F8EB70
:105458003400F9E8FCE9FD8A828B83A3A882A9833A
:10546800E070268C828D83E0701FEA24051254D6E2
:105478001251521254F1F0EA24071254D61254E38E
:105488001254F1A3A3F0750A048A828B83A3A31292
:105498001F1888828983E0F98C828D83E04480FC20
:1054A8007D05AA08AB091204C87402121CAD850850
:1054B80082850983A3A3A3A3A3E50AF07406250A9A
:1054C8008E828F83F0AA08AB097F06021DC0F50AF9
:1054D800EB3400F50B850A82F583221254E8A322E7
:1054E8001254EC22125156A322A3A3A3A3A3A312DE
:1054F80055081254FE221254ECA3A3A3A3A3A3227B
:10550800F0850A82850B83A32274F7121CEEE9FE4C
:105518007409121CE2E0F8A3E0F9EC8A828B83F0AC
:10552800EDA3F0EE8A828B83A3A3F0E88A828B83B3
:10553800A3A3A3F0E98A828B83A3A3A3A3F079058D
:10554800022901E924FC600D14600E24F96012247C
:10555800FD600A800E7940800A7941800679428090
:1055680002794302012274F4121CEEE990076EF0EE
:10557800121452907800E0C4540F54076403700466
:10558800793F8002797F7508067509007808121F2F
:10559800017C5C7D077AEA7B071203A27402121C65
:1055A800AD90075CE0F47049A3E0F47044A3E0F424
:1055B800703FA3E0F4703AA3E0F47035A3E0F47010
:1055C8003090780EE090075CF090780FE090075DDF
:1055D800F0907810E090075EF0907811E090075F07
:1055E800F0907812E0900760F0907813E0900761EF
:1055F800F090076212574112792390078C7406F0D5
:10560800A3740D1263867430F0A37401F0900AC07D
:10561800125741900ABFE4F0900AC6F0A374A01292
:1056280063867403F0A37407126386742812638672
:1056380004F0A3E4F0900AEFF0900B151257419094
:105648000B14E4F0900B1B0412638612572FE4F03E
:10565800A304F0A3126386126384F0900B2C1257F4
:1056680041900B2BE4F0900B3204F0A3E412572F77
:10567800126384F0A37405F0900B3C74FFF0A3E46C
:10568800F0900B3EF0900B4004F0121158120F608E
:105698001213F879017A417B0B12129C900B41E0AE
:1056A80075F01484E5F004F0790C7A627B0B121221
:1056B8009C1212C07A0090076EE0F91203189078D5
:1056C80003E06442705E900B41E014F07056C2AF84
:1056D8001256DB00782AD0E0F618D0E0F6E59F54A1
:1056E80007F9700590909880039090FC7808121B39
:1056F80067E9C4C0E07829E65508F50808E65509C1
:10570800F509740B7808121C75D0E02508F890622A
:1057180070E0A2E740F8E8C333906272F0906270DC
:10572800E0D2E0F0026704125738125738F0A3228B
:10573800F0A37480F0A374022274FF125A55F0A3E8
:10574800F02274F6121CEEEAFEEBFFEEA2E05043E4
:10575800900770E0C39480E0500FC333F8E433F946
:1057680074C228F5827411800EF4C333F8E433F957
:1057780074D028F582741139F583126F62121CEC0B
:105788007A0090076EE0F9120318EE6401FAEFFB55
:1057980002592A54086045900B3A12597875080046
:1057A8007808121F05125951121C757808121F012A
:1057B800EA2430127451121F18125962121F01750F
:1057C80008B075090A7808121F01900AAFE0FD7C3D
:1057D80000125939121CADEE640880B1EE54106005
:1057E8003E7508007808121F05E4F5097808121FAD
:1057F800017808121F017808121F017508B0750991
:105808000A7808121F01900AAFE0FD7C007A007B3D
:1058180000790212594B121CADEE6410025795EE36
:10582800540260367508007808121F05E4F50978F7
:1058380008121F017808121F017808121F01750845
:10584800B075090A7808121F0112592D793C1259AE
:105858004B121CADEE6402025795EE5404604B9057
:10586800079B125978EA242A1272AFF508780812B1
:105878001F05125951121C757808121F01EA2420BD
:10588800127451121F18125962121F017508B0754F
:10589800090A7808121F01900AAFE0FD7C0112592D
:1058A80039121CADEE6404025795EE54406036750B
:1058B80008007808121F05E4F5097808121F017816
:1058C80008121F017808121F017508B075090A78B7
:1058D80008121F0112592D793B12594B121CADEEBB
:1058E8006440025795900775E064017031EE5420CA
:1058F800602C90076FE024F9600314701B793F90C7
:10590800079BE0FA75F006A4CAA8F028FB749D2A44
:10591800FA74073BFB12124EEE64200257957A0088
:105928007B0002641B900AAFE0FD7C017A007B00DB
:10593800228A828B83A3A3A3A3E0FA7B00790012B7
:10594800594B22120E10740922EA2432F582EB1206
:105958007458126F497404780822EA242E12679248
:10596800F508A3E0C313F509E50813F5087808223C
:10597800E0F875F006A4C8AAF0125985222AF9742D
:105988009D28FA740739FB22C082C083C2AF121463
:105998002EE5E170FC75E10112640A12146A7907B8
:1059A800121524790112152A79021214941214CAB4
:1059B800121506790012151879011215189090B869
:1059C800121B8512147C900AAFE4125743A3F0907F
:1059D8000AC6F0A3F0A3F0900ACA7407F0900AC9A7
:1059E8007403F0900ACFE4F0900ACEF0900AEFF03A
:1059F800900B1CF0900B33F0121236121362121235
:105A08005A7900121530900AB674FF125A55741F4D
:105A1800F0906012E4F0A3F0906063F075210090BC
:105A2800076FF0900771F0A3F0900ABBF0900ABCE2
:105A380004F0900774E4F090077504F090078B74F5
:105A480003F0900B3FE4F0D2AFF9026FC2F0A3F07D
:105A5800A3F0A3F0A322C082C08390075CE08A82EF
:105A68008B831268888A828B83A31268828A828BCE
:105A780083A3A312687C8A828B83A3A3A31268766C
:105A88008A828B83A3A3A3A3F0900761E08A828B09
:105A980083A3A3A3A3A3026FBFC082C0838A828B00
:105AA80083E0900762125AD7E0900763125AD7A38F
:105AB800E0900764125AD7A3A3E0900765125ADC56
:105AC800E0900766125ADCA3E0900767026FBF12E6
:105AD8005AE4A322125AE4A3A3A3A322F08A828B36
:105AE8008322C082C083900B1CE064017012125B99
:105AF800FF6009E8700AA3E064017004790C802350
:105B0800900B33E064017008900B39E0640160EC9D
:105B1800900AC6E064017006900ACBE070DE1214A9
