:020000040000FA
:0600000002011D021DF7C4
:03002B0002251299
:03005300021E6A20
:03006B000224E08C
:10008300021CABE5C754F84401F5C779012200000F
:100093000080FB120086B90003020107E47921788E
:1000A30008B800028004F709D8FCE479297802B87B
:1000B30000028004F709D8FCE490028178CA79072A
:1000C3008002F0A3D8FCD9FA781A90014D7A01BACC
:1000D30000028007E493A3F608DAF990094AAA829A
:1000E300AB8390014E783479048015E493A3AC82FA
:1000F300AD838A828B83F0A3AA82AB838C828D83A8
:10010300D8E9D9E775821C75839F740312012F7593
:100113008291758300740012012F75D00075813FA1
:10012300751881751902759F00020096C09FF59F8F
:10013300E473D09F22D083D082C09FE493C0E07445
:100143000193C0E0740293F59F2201FF0000B40005
:100153000028002800283075A000A000A000A000FF
:1001630000080008E001F00010001000100010006B
:100173001000100050005000500010001000D00775
:100183000000000000000F003075070010000100A0
:1001930081FF0000FF7F069D068506FF02020A0A13
:1001A300025000A0000000E803021A8201000003CD
:1001B300820216820100009B09020A82010000B23A
:1001C300020216820100009C09020C82010000C891
:1001D300020216820100009D09020E82030000CA7A
:1001E300020216820100009E09021082030000CB66
:1001F300020216820100009F09021282010000A080
:1002030009FF0100FF20021A82010000008202168A
:1002130082010000040A02148200000000000208A8
:10022300820300001803670C670C670C670C670CEC
:10023300670C670C670C670C670C670C670C670C23
:10024300F50E0D0FEF0EFFFF020202020202020281
:1002530002010D0000001001021A82010000FD815D
:10026300021682010000470A022A82010000750774
:10027300021682010000480A02288201000015814B
:10028300021682010000490A02268201000007814A
:100293000216820100004A0A022482010000A5809E
:1002A3000216820100004B0A022282010000B7807D
:1002B3000216820100004C0A022082010000938092
:1002C3000216820100004D0A021E82010000818095
:1002D3000216820100004E0A023A82010000F980F0
:1002E3000216820100004F0A024282010000500AF6
:1002F30001E803053F10FF0001307503020106000A
:1003030000000000000000000000000000000000EA
:100313000000000000000000000000FFFF06008056
:100323000CE803140953696D706C65424C455065C4
:10033300726970686572616C051250002003020ACD
:10034300000201050302F0FF53696D706C652042E2
:100353004C45205065726970686572616C151300B5
:10036300001B130A43686172616374657269737475
:100373006963203100024368617261637465726965
:100383007374696320320008436861726163746542
:100393007269737469632033001043686172616327
:1003A300746572697374696320340002436861720F
:1003B30061637465726973746963203500021A821C
:1003C300010000FA81021682010000620B023082F2
:1003D3000300003409020682010000630B02168247
:1003E300010000740B02328201000035090206820B
:1003F300010000750B021682010000860B02348295
:100403000200003609020682010000870B021682F1
:10041300010000980B0236820000003709020882AF
:100423000300003809020682010000990B021682BC
:10043300010000AA0B0238820400003E0902068272
:10044300010000AB0B104B6579205072657373206C
:10045300537461746500021A82010000F781021669
:1004630082010000440C024082000000430902089C
:10047300820300004409020682010000450C1201B8
:1004830038F493031201380B94031201383A94039E
:100493001201387394031201389B9403120138C973
:1004A3009403120138E09403120138F79403120104
:1004B300380D95031201383495031201384795031B
:1004C3001201385D950312013870950312013895B6
:1004D3009503120138FDA302120138FCA402120194
:1004E3003831A50212013852A50212013862A50261
:1004F30012013883A5021201388FA6021201385C5B
:10050300A702120138CFA70212013855A80212011F
:100513003898A802120138CFA80212013855A9024F
:1005230012013827AA0212013885AA021201389D46
:10053300AA0212013817AB021201381AAB021201D8
:10054300381DAB02120138C4AB02120138DCAB0216
:100553001201380CAC021201382CAC021201381A09
:10056300AD02120138D0AD0212013853DD0212017F
:10057300387BDD02120138A9DD02120138E0DD0209
:1005830012013848DE0212013891DE02120138DC12
:10059300DE021201381ADF0212013857DF0212019C
:1005A3003885DF021201382CE00212013836E002EE
:1005B30012013843E00212013876E00212013838A2
:1005C300E10212013844E1021201385CE102120136
:1005D3003866E102120138509D031201385E9D0313
:1005E300120138769D031201388E9D031201385390
:1005F300A901120138F1A90112013869AA011201F6
:10060300387EAB01120138B8AB0112013861AC017D
:1006130012013836AD011201389AAE01120138F1D8
:10062300AE0112013878AF011201385FB001120137
:1006330038ACB0011201383AB1011201385EB10190
:1006430012013833B30112013874B3011201389621
:10065300B30112013817B40112013801B5011201B7
:1006630038C7B5011201388FC50212013861C602BD
:100673001201380AC7021201384DC702120138DAD3
:10068300C70212013866C80212013847C9021201B3
:100693003876C90212013872CA02120138BACA0284
:1006A300120138BCCB0212013800CC0212013826E9
:1006B300CC0212013875FF01120138EDFB02120161
:1006C3003803FC0212013829FC0212013851FD02E1
:1006D3001201385BFD02120138B4FE02120138B474
:1006E300FF0212013860D8021201386DD9021201DB
:1006F30038A1D902120138E3D9021201389DDB0275
:10070300120138216D00120138846D00120138C9BD
:100713006E00120138D96E00120138FC6E0012010E
:1007230038476F00120138EC6F00120138E2700095
:10073300120138AC710012013824730012013866BB
:10074300730012013804740012013851740012014D
:10075300387774001201386576001201386A760022
:100763001201384B78001201389F780012013801CA
:100773007900120138297900120138CD790012016C
:10078300388F7A00120138C07A00120138C37A0018
:100793001201380B7B001201384D7B00120138B473
:1007A3007B001201381FFD0112013832FD011201D5
:1007B300384BFD0112013896FD0112013871FE011B
:1007C30012013800FF011201384BFF0112013838C2
:1007D30025001201384425001201387D250012013D
:1007E30038C22500120138792600120138FF26008D
:1007F300120138642700120138902700120138C90A
:100803002700120138DD2900120138B92B0012012B
:1008130038A42D00120138DB2E001201383B3100C1
:100823001201382732001201386D33001201387A71
:100833003400120138973400120138CF340012010A
:1008430038E93400120138513500120138EB390010
:100853001201388C3A00120138DD3A0012013804D3
:100863003B00120138523B00120138703B00120169
:1008730038C43B001201389D3C00120138243E006D
:10088300120138AC3E001201389BCC02120138A58C
:10089300CC021201386CCD02120138BBCD02120119
:1008A30038DFCD021201383ACE0212013872CE027D
:1008B3001201389ACE02120138CACF02120138F55A
:1008C300CF0212013820D0021201386FD002120178
:1008D3003885D002120138CBD00212013805D1027B
:1008E30012013847D1021201388FD102120138CBDD
:1008F300D10212013819D20212013862D202120156
:10090300388CD202120138B1D202120138F8F70240
:10091300120138C2F802120138AEF902120138246A
:10092300FA0212013866FA0212013893FB0212012D
:1009330038008002120138298002120138428002F5
:10094300120138878102120138658202120138844C
:1009530082021201381183021201385483021201F8
:1009630038A18402120138408502120138BF870280
:100973001201385688021201382A89021201380CF2
:100983008A02120138788B021201380B8C02120191
:10099300386E9803120138D798031201382B990344
:1009A3001201385299031201383EEB02120138AB9F
:1009B300EB02120138F6EB02120138EBEC021201E2
:1009C30038E7ED02120138D1EE021201383BAE02D4
:1009D3001201387DAE0212013857AF0212013830CE
:1009E300B0021201382BB1021201380AB20212010D
:1009F3003876B2021201383DB302120138A8B302AD
:100A03001201380FB4021201383AB402120138ABA2
:100A1300B4021201383EB502120138A7B502120121
:100A230038BCB50212013804B6021201381DB602F1
:100A330012013882B60212013885B6021201387EDD
:100A43007C00120138A67C00120138E47C001201FC
:100A530038A27D001201380D7E00120138297E0074
:100A6300120138517E00120138817E001201389044
:100A73007E001201380A7F00120138307F00120114
:100A83003849D40112013814D601120138D6D701DE
:100A9300120138A5D801120138F0D8011201383BF0
:100AA300D90112013859D9011201389BD901120118
:100AB30038B6D90112013802DA011201383CDA01E1
:100AC3001201385FDA01120138ACDA011201381F62
:100AD300DB0112013831DD01120138DBDE011201C5
:100AE300382BDF0112013870E001120138C6E00132
:100AF30012013834E1011201387FE101120138A9F2
:100B0300E101120138D4E101120138828C02120191
:100B130038AD8C02120138809302120138A4950279
:100B23001201385F9702120138BC98021201381380
:100B33003F00120138A43F00120138D13F001201D7
:100B430038174000120138564100120138ED4200B7
:100B5300120138424300120138B74300120138E64C
:100B63004400120138414600120138434700120184
:100B730038A04800120138B948001201381649005C
:100B8300120138F849001201382B4A001201389B30
:100B93004A00120138154B00120138644B00120150
:100BA30038304C00120138354D00120138144E0014
:100BB3001201389F4E001201380D4F001201388187
:100BC3004F00120138AA4F00120138695000120178
:100BD30038E351001201380052001201381F52004D
:100BE300120138B05200120138D55200120138FDFB
:100BF3005200120138785300120138D25300120107
:100C030038265500120138E35500120138B6560054
:100C13001201387AC601120138CAC601120138D648
:100C2300C601120138B3C701120138E3C70112012B
:100C3300381BC8011201389AC801120138D2C80101
:100C430012013824C90112013861C9011201388621
:100C5300CB01120138B2CD01120138ADCF0112011F
:100C63003888D101120138F57F001201384582011D
:100C73001201388F82011201386E8801120138EF98
:100C830089011201384E9001120138499101120174
:100C930038869101120138A99101120138EB9101B3
:100CA300120138F49101120138FE9101120138EA60
:100CB3009201120138DE9301120138E45600120149
:100CC300385C610012013862610012013866680005
:100CD300120138008003120138968003120138ACE8
:100CE30080031201382681031201387C810312012B
:100CF30038BA810312013817820312013894820330
:100D03001201389D8203120138A98203120138BCF3
:100D13008203120138F882031201380E8303120191
:100D2300386D830312013893EF02120138A0EF02EA
:100D3300120138BAEF02120138F9EF021201383703
:100D4300F0021201389CF002120138B1F0021201D4
:100D530038BCF002120138C9F002120138E0F00287
:100D6300120138EEF002120138F9F00212013805CF
:100D7300F10212013814F1021201381FF1021201BB
:100D83003842F102120138EBF102120138FBF10291
:100D930012013815F20212013832F2021201384EF2
:100DA300F20212013873F2021201387DF2021201CB
:100DB3003891F202120138B0F20212013811F30233
:100DC30012013817F3021201381DF30212013823FE
:100DD300F3021201382FF30212013862F3021201F7
:100DE3003895EF0112013817F001120138C0F001F4
:100DF30012013808F20112013816F401120138FC0D
:100E0300F40112013831F50112013853F5011201D1
:100E130038FCF501120138CCF701120138F5F7015E
:100E23001201386DF8011201389FF801120138AC34
:100E3300F801120138F7F8011201381BF901120108
:100E4300386CFB0112013876FC01120138D2FC0127
:100E5300120138FCB7011201380DB901120138F142
:100E6300B901120138FBB9011201381DBA0112018F
:100E73003829BA01120138CDBB01120138FABB017E
:100E830012013810BD0112013865BD01120138B4D9
:100E9300BE0112013889BF01120138E5BF011201F9
:100EA3003850C00112013885C001120138C8C00191
:100EB30012013892C301120138AAC3011201383B4F
:100EC300C40112013849C40112013896C401120148
:100ED30038A4C40112013810C5011201388BC501B1
:100EE300120138E2C501120138DF980212013801FC
:100EF3009902120138129B02120138D19D0212018C
:100F030038FB9E02120138B99F02120138A5A002D4
:100F13001201383B9203120138609203120138D652
:100F2300920312013872BE021201387BBE02120113
:100F33003884BE021201385CBF021201380DC102AF
:100F43001201383DC10212013868C10212013898FA
:100F5300C102120138C3C102120138F7C1021201E2
:100F63003823C20212013866C20212013891C2024A
:100F7300120138D8C2021201382DC3021201386F90
:100F8300C302120138C9C302120138F4C3021201A9
:100F93003843C40212013873C4021201389EC402DA
:100FA300120138CCC402120138EFC402120138789E
:100FB3007F00120138A47F00120138D17F00120193
:100FC30038DB7F00120138EB7F00120138D9D202DF
:100FD300120138E3D20212013824D3021201386D10
:100FE300D302120138A7D302120138FDD302120132
:100FF300381ED40212013827D4021201387BD402DE
:10100300120138A4D402120138AED4021201381CE2
:10101300D502120138ACD50212013807D6021201EB
:101023003835D602120138BDD602120138FCD60279
:1010330012013831D70212013843D7021201386244
:10104300D7021201386BD70212013832D8021201CB
:1010530038859A031201387B8E03120138B18E034F
:10106300120138E58E03120138329003120138273A
:101073009E031201383D9E03120138479E0312015D
:1010830038919E03120138BD9E031201389DE6027A
:10109300120138B0E60212013871E702120138B0CA
:1010A300E702120138CDE70212013806E802120105
:1010B3003853E80212013885E802120138BCE8020D
:1010C300120138C5EA0212013831EB021201387CF1
:1010D3009B031201389F9B03120138CE9B0312011D
:1010E30038E69B03120138289C0312013827870333
:1010F3001201384C870312013876870312013874C2
:101103009F03120138F69501120138C097011201AD
:10111300386B9901120138169A01120138969A0117
:101123001201381F9B01120138489B01120138013B
:101133009F01120138819F011201388CA001120115
:1011430038C6A00112013807A1011201384EA201CD
:10115300120138A4A201120138EDA2011201384490
:10116300A30112013892A301120138C0A301120195
:1011730038D8A301120138BDA401120138F3A40128
:10118300120138A2A501120138B9A501120138EBE9
:10119300A50112013888A7011201381CA801120108
:1011A300385AA801120138EBFF02120138CA9F0313
:1011B30012013809A00312013831A003120138715A
:1011C3009C03120138819C03120138969C0312017F
:1011D300384A9D03120138839903120138089A0390
:1011E3001201386C9A031201383F970312013861D8
:1011F3009703120138C29703120138D497031201DF
:101203003824980312013862980312013865980351
:10121300120138DFF302120138F3F3021201386DC1
:10122300F40212013851F50212013828F7021201B3
:10123300388DF702120138E4F702120138F87F0003
:10124300120138528C03120138D18D031201383246
:101253008E03120138788E03120138A79503120109
:1012630038F995031201386C9603120138D99603A5
:101273001201380B8A03120138358A03120138042C
:101283008B03120138E08B03120138A9B602120155
:101293003875B702120138B6B70212013814B80212
:1012A30012013868B802120138C6B8021201385C5C
:1012B300B90212013864BA02120138EEBB021201FC
:1012C300388CBC02120138F3BC021201380ABD0289
:1012D30012013829BE02120138FFE1011201387BE5
:1012E300E50112013807E70112013857E70112013E
:1012F3003871E701120138F1E701120138F7E9010A
:10130300120138E8ED01120138FBE10212013895B0
:10131300E402120138BEE50212013868E602120146
:10132300389D8303120138E28303120138FF8303DC
:10133300120138B58403120138088503120138D825
:101343008503120138EE86031201386C90031201F3
:1013530038B190031201380591031201388A9103C1
:10136300120138029203120138BEFF021201381330
:10137300A003E066701008A3E066700A08A3E066A5
:10138300700408A3E06622C3E7960809E7960809F4
:10139300E7960809E79622C3E09608A3E09608A318
:1013A300E09608A3E09622C008C3E096F50808A3D8
:1013B300E096420808A3E096420808A3E096450891
:1013C3007001D3D00822080808EAC0E0EBC0E08629
:1013D300F0E7A4FA180986F0E7A42AFA180986F0B8
:1013E300E7A42AFA180986F0E7A42AFA1986F0E78F
:1013F300A4FBE5F02AFA190886F0E7A42BFBE5F035
:101403003AFA190886F0E7A42BFBE5F03AFA181824
:101413000986F0E7A4C5F02BFBE43AFA1908E7C5FF
:10142300F0C6A426F6E5F03BFBE43AFA1886F0E7AB
:10143300A4F6E5F00826F6E43B08F6E43A08F6D00D
:10144300E0FBD0E0FA22E4CFC0E0E4CEC0E0E4CD9C
:10145300C0E0E4CCC0E075F020C3E633F608E63321
:10146300F608E633F608E633F6181818EC33FCED05
:1014730033FDEE33FEEF33FFC3EC9709ED9709EE2F
:101483009709EF97191919400FFFEC97FC09ED978E
:10149300FD09EE97FE191906D5F0BEECF709EDF735
:1014A30009EEF709EFF7191919D0E0FCD0E0FDD0E8
:1014B300E0FED0E0FF226016080808C6C313C61872
:1014C300C613C618C613C618C613C6D5E0EA2270DB
:1014D30009080808226016181818C6C333C608C6B8
:1014E30033C608C633C608C633C6D5E0EA22E627A4
:1014F300F60809E637F60809E637F60809E637F687
:1015030022E026F608A3E036F608A3E036F608A3A1
:10151300E036F622E026F008A3E036F008A3E03632
:10152300F008A3E036F022C3E697F60809E697F63B
:101533000809E697F60809E697F622C3E096F0084D
:10154300A3E096F008A3E096F008A3E096F022E06B
:1015530056F608A3E056F608A3E056F608A3E056AD
:10156300F622E056F008A3E056F008A3E056F00890
:10157300A3E056F022E0F608A3E0F608A3E0F6089D
:10158300A3E0F622E6F008A3E6F008A3E6F008A33A
:10159300E6F022E0FAA3E0FBA3E0FCA3E0FD22EAED
:1015A300F0A3EBF0A3ECF0A3EDF022CAC0E0E6F069
:1015B300A308DAFAD0E0FA22CAC0E0E0A3C582CCDD
:1015C300C582C583CDC583F0A3C582CCC582C5833F
:1015D300CDC583DAE6D0E0CA22C3E498F8E499F9EA
:1015E30012161D8026C3E49AFAE49BFBE920E7E97F
:1015F30012161DE498F8E499F922C3E498F8E499E3
:10160300F912161DE498F8E499F9C3E49AFAE49BF5
:10161300FB22EB20E7CFE920E7E0B90010BB00088D
:10162300E88AF084F8AAF022E4FBC8FA22EB7022DD
:101633007B10C833C8C933C9335007C39AC3DBF21D
:1016430080069A50012ADBEAC833F4C8C933F4C9C7
:10165300FA2275F008E4C833C8C933C933C99AC933
:101663009B5004C92AC93BD5F0ECFBC833F4C8E44A
:10167300C9FA22600D08C6A2E713C618C613C6D559
:10168300E0F322600C08C6C313C618C613C6D5E020
:10169300F422700422600D18C6C333C608C633C6CD
:1016A300D5E0F41822251810AF08F51840021519D3
:1016B3008008F51840021519D2AF22C0D0251810A2
:1016C300AF08F518500205198008F51850020519DE
:1016D300D2AFD0D0222518F58210AF08F5184002FA
:1016E30015198008F51840021519D2AF8519832200
:1016F3002518F582E43519F58322E4732518C5828C
:10170300C0E0E51934FFC583C0E0E518C395822422
:10171300F810AF0885831985821880088583198599
:101723008218D2AFCEF0A3E520F0A37808E608F044
:10173300A3DEFAEFF0A3E58124FAF8E608F0A3E6C6
:1017430008F0A3E608F0A30808E608F0A3E608F00B
:10175300A315811581D0E0FED0E0F8158115811520
:1017630081E8C0E0EEC0E0222518C582C0E0E5199B
:1017730034FFC583C0E0E518C3958224F910AF0890
:101783008583198582188008858319858218D2AFCD
:10179300CEF0A3E520F0A37808E608F0A3DEFAEF85
:1017A300F0A3E58124FBF8E608F0A3E608F0A3081C
:1017B30008E608F0A3E608F0A315811581D0E0FE42
:1017C300D0E0F815811581E8C0E0EEC0E02285196C
:1017D30083851882E0A3FEE0A3F5207808E0A3F652
:1017E30008DFFAE0A3FFE0A3C0E0E0A3C0E0E0A3CA
:1017F300C0E0E0A3C0E0E0A3C0E010AF088582181A
:101803008583198008858218858319D2AFD083D048
:1018130082020135851983851882E0A3FEE0A3F5D2
:10182300207808E0A3F608DFFAE0A3FFE0A3C0E016
:10183300E0A3C0E0E0A3C0E0E0A3C0E010AF0885F0
:1018430082188583198008858218858319D2AFD0C1
:1018530083D08222C0D02518C582C0E0E51934FFA9
:10186300C583C0E0E518C3958224F310AF088583D0
:10187300198582188008858319858218D2AFC8F02C
:10188300A3E9F0A3EAF0A3EBF0A37908E709F0A337
:10189300D8FAECF0A3EDF0A3EEF0A3EFF0A3D0E0C1
:1018A300F0A3D0E0F0A3D0E0F0A3E520F0A3E5F0AF
:1018B300F0A322851983851882E0C0E0A3E0F9A391
:1018C300E0FAA3E0FBA37808E0F608A3DFFAE0FC64
:1018D300A3E0FDA3E0FEA3E0FFA3E0C0E0A3E0C01C
:1018E300E0A3E0F5D0A3E0F520A3E0A3F5F010AF6B
:1018F300088583198582188008858319858218D203
:10190300AFD082D083D0E0F8D0E032740480067484
:101913000280027401C0E0F4041216D8D0E012155C
:10192300AE227404800474028000CCC0E0EDC0E0F9
:10193300E518C39CCCAD1950011D10AF068C188D52
:101943001980068C188D19D2AF1215BBD0E0FDD0CB
:10195300E0FC22D083D082E9C0E0E493A3C386F005
:10196300C5F095F0F908E493A386F0C5F095F070FF
:101973000BE493A3C3994005E9048002A3E475F043
:1019830002A42582F582E5F03583F583D0E0F9E4FE
:1019930093A3C0E0E493C0E022D083D082ECC0E004
:1019A300EDC0E0E493A3FCE493A3FDED4C600D12C2
:1019B30019E8EC24FFFCED34FFFD80EFE493A3FC76
:1019C300E493A3FDED4C600D121A27EC24FFFCED0C
:1019D30034FFFD80EFD0E0FDD0E0FCE493A3C0E052
:1019E300E493C0E022C0E0C3E493960874019396A5
:1019F30018400FE49366700808740193661870002A
:101A03007019A3A3C3E49396087401939618A3A330
:101A1300400DD0E0D0E0D0E00219D8A3A3A3A3A344
:101A2300A3D0E022C0E0C0F088F0E4936670080819
:101A330074019366187000A8F0A3A3700BD0F0D0C4
:0F1A4300E0D0E0D0E00219D8A3A3D0F0D0E02289
:101A540074F512176BEAFEEBFFEE2434F8EF340052
:101A6400F988088909EE2435F582EF3400F583E01E
:101A7400F8EE2437F582EF3400F583E0F50AEC85BF
:101A84000AF0A4FCAAF0850AF0EDA42AFDE82CF8DB
:101A9400E43DF97A257B0012161DEA850882850942
:101AA40083F05407F87401B800028004C333D8FCEF
:101AB400C0E0E0131313541FF8EE28F8EF3400F9D4
:101AC400E8245DF582E93400F583D0E0F8E058605D
:101AD40008EE2434F582EF801EEE2436F582EF34CE
:101AE40000F583E0F5F0EA84A8F0EE28F8EF34007E
:101AF400F9E82438F582E93400F583E0F97F04023B
:101B0400181774F512176BEAFEEBFFEE2434F58216
:101B1400EF3400F583E0C0E0EE2435F582EF3400C5
:101B2400F583D0E0F08E828F83A3A3A3A3A3A3A302
:101B3400C082C0838E828F83A3A3A3A3A3E0F8A350
:101B4400E0F9D083D082E0C398F508A3E099F509C1
:101B5400EE2480F582EF3400F583E064017047EEF3
:101B64002481F582EF3400F583E0FCA3E0FD8E824E
:101B74008F83A3A3A3A3A3A3A3E0FAA3E0FBC3E8D7
:101B84009AE99B4003021C2EC3EA9CEB9D40177C00
:101B9400FB7D04EEFAEFFB120BC5EE2480F582EF19
:101BA4003400F583E4F0EE2434F8EF3400F9E8FC73
:101BB400E9FDEE2435F582EF3400F583E0F8EE24F8
:101BC40037F582EF3400F583E0F50AE508850AF07D
:101BD400A4F508AAF0850AF0E509A42AF509E82580
:101BE40008F8E43509F97A257B0012161DEA8C827F
:101BF4008D83F05407F87401B800028004C333D80D
:101C0400FCC0E0E0131313541FF8EE28F8EF34007F
:101C1400F9E8245DF582E93400F583D0E0F8E05872
:101C24006015EE2434F582EF802BC3E89CE99D50C7
:101C340003021B93021B8CEE2436F582EF3400F56D
:101C440083E0F5F0EA84A8F0EE28F8EF3400F9E830
:101C54002438F582E93400F583E0F91224D2021B1A
:101C640001C082C083851882851983E0F8A3E0F956
:101C7400C3EA9CEB9D500BC3EC98ED99401279019B
:101C84008010C3EA98EB9940F5C3EC98ED9950EEB7
:101C94007900D083D08222EAC39CFAEB9DFB220018
:101CA4008521878522C622C0E0C0D0E8C0E0E9C013
:101CB400E0EAC0E0EBC0E0ECC0E0EDC0E0C008C08A
:101CC40009C00AC00BC082C083C0F0759B0090613C
:101CD40082E0A2E64003021D89E591A2E6400302E8
:101CE4001D897591BF9003C2E064057008120CFD54
:101CF400120D098003120D03752100120D63E99082
:101D040003C3F07900120D57120B417A017B009046
:101D140003C1E0F9121027907803E06442600302E3
:101D24001DD290055CE014F06003021DD2C2AF1214
:101D34001D3600782AD0E0F618D0E0F6E59F540767
:101D4400F97005908183800390817B78081215785F
:101D5400E9C4C0E07829E65508F50808E65509F510
:101D640009740B7808121686D0E02508F890627082
:101D7400E0A2E740F8E8C333906272F0906270E04A
:101D8400D2E0F08049E0A2E55024E591A2E5501E9E
:101D94007591DF9003C2E0640D70139003E4E004D6
:101DA400F064287002E4F07A00E0F9120DD5906135
:101DB40081E0A2E35009E5E9A2E3500375E9F7A342
:101DC400E0A2E75009E591A2E7500375917FD0F0B6
:101DD400D083D082D00BD00AD009D008D0E0FDD077
:101DE400E0FCD0E0FBD0E0FAD0E0F9D0E0F8D0D0CD
:101DF400D0E032C0E0C0D0C082C083906183E0A252
:101E0400E05009E5BFA2E0500375BFFEE0A2E15037
:101E140009E5BFA2E1500375BFFDE0A2E25009E568
:101E2400BFA2E2500375BFFBE0A2E35009E5BFA2E5
:101E3400E3500375BFF7E0A2E45009E5BFA2E45004
:101E44000375BFEFE0A2E55009E5BFA2E5500375B5
:101E5400BFDFE0A2E65009E5BFA2E6500375BFBFAD
:101E6400D083D0828088C0E0C0D0E8C0E0E9C0E080
:101E7400EAC0E0EBC0E0ECC0E0EDC0E0C0F0E5A7F4
:101E8400A2E6500FE5A1A2E6500953A7BF75A1BF72
:101E9400121ECFE5A7A2E5500CE5A1A2E55006531A
:101EA400A7DF75A1DFE5A7A2E15009E5A1A2E150F2
:101EB4000375A1FDE5A7A2E2500CE5A1A2E250063C
:101EC40053A7FB75A1FBD0F0021DE074F812176B49
:101ED4007521019003C2E064067015120C918A8288
:101EE4008B83A3A3A3A3A3A3E0FAA3E0FB120CEBAD
:101EF400A2AFE433FED2AF9003C8E0640170187A55
:101F0400207B009003C1E0F91210B17A207B00908D
:101F140003C1E0F912102D906182E0D2E6F0900541
:101F24005BE0602185C62280169003C7E0640170DF
:101F340008E5C654F84405F5C653BEFC121CA47447
:101F440001652160E4EEA2E092AF7F010218170060
:101F54008E238F248582288583278518828519837B
:101F6400E0CEA3E0CF852882852783EBC9EAC8EDBC
:101F7400CBECCA75F010C3E833C8E933C9EA33CAF5
:101F8400EB33CBC3EA9EF526EB9FF525B35004ABA8
:101F940025AA26EC33CCED33CDD5F0DAAE23AF242D
:101FA4002274EB12176B74FA1216A88A088B098C28
:101FB400148D159003C2E024F7C394055006908154
:101FC400EB022107120C918A0A8B0BAE0AAF0BEEBF
:101FD4004F7003022104AC08AD098518828519836A
:101FE400AA82AB83120D1B8E828F83A3A37808125F
:101FF40015789081D3780812155285188285198333
:10200400780C1215789081D3780C121552780879CF
:102014000C12138A501F7808790C12152A90816BC0
:1020240078081213AA4047850810850911850A12F9
:10203400850B138041850C10850D11850E12850FBB
:10204400137810790812152A90816B78101213AA4C
:10205400501C75100075110075120075130178106D
:10206400790C12152A781079081214F180089081DD
:10207400EB7810121578740978101214D29081DB61
:102084007808121578781079081214498E828F8393
:10209400A3A3A3A3A3A3E0F8A3E0F97AD07B03123C
:1020A400161D88088909E4F50AF50B7810790812D9
:1020B40014F174041216F3E0F8A3E0F97AD07B0368
:1020C40012161DE8FA8A08E4F50978107908121343
:1020D4008A50077810790812152A9003C2E0640820
:1020E400600AE064066005E06405701C90816F7806
:1020F400101213AA501290817378101215048008DC
:10210400908197781012157885148285158378103C
:1021140012158774061216BE7F0E02181774F71272
:10212400176B120D2D900559E064017010906245F3
:10213400E4F0A3F053F4F343FE0C5390F3120CD9E0
:10214400E5C654804449F5C6E59E547F644970F859
:10215400906185740FF0900557E0F47002A3E0607D
:102164004E900558E0600814601B14602E80407582
:102174000801750900900557E07808121695E508DE
:10218400F45280802A750801750900900557E0789B
:1021940008121695E508F452908014750801750923
:1021A40000900557E07808121695E508F452A079D6
:1021B400007F0202181774F712176BE9FE9025309E
:1021C400E493F46008E493F9120B35800953C68054
:1021D400E59E547F70FA120CDF900559E06401709B
:1021E40003120B4D900557E0F47002A3E0604B908E
:1021F4000558E0600814601A14602C803D750801CD
:10220400750900900557E07808121695E508428094
:102214008028750801750900900557E078081216A2
:1022240095E50842908013750801750900900557DB
:10223400E07808121695E50842A0120D2D120C91B3
:102244008A088B09A808A909E8496015E5E170FC2A
:10225400E82414F582E93400F583E0F46003E0F542
:10226400E174016E700A7A019003C1E0F912107BE7
:102274000221B574F112176B8A088B098C0A8D0B35
:10228400740F1216F3780C1215789081D378081213
:1022940015529081D3780C1215527808790C1213C8
:1022A4008A50157808790C12152A90816B780812D7
:1022B40013AA401579018013780C790812152A9015
:1022C400816B780C1213AA40EB79007F080218176F
:1022D40074ED12176B8A088B098C0A8D0B74131218
:1022E40016F3780C1215789081D378081215529051
:1022F40081D3780C121552780C790812138A401184
:102304007808790C12152AAA08AB09AC0AAD0B801F
:10231400227510007511007512007513017810797B
:102324000C12152A781079081214F1AA10AB11AC0A
:1023340012AD137F0C0218179081D3780812157808
:102344008A828B8378081215657F0402181774F546
:1023540012176B8C828D8378081215788A828B838E
:10236400780812153EEA2404F8EB3400F98C828DC7
:1023740083A3A3A3A3E0FCA3E0FD88828983C3E035
:102384009CF0A3E09DF088828983C3E09420A3E0BD
:10239400944E40229081F378081215788A828B83B8
:1023A40078081215178A828B83A3A3A3A3E02420A1
:1023B400F0A3E0344EF0808074F512176BE9FE90C0
:1023C4000511E0FAA3E0FBEEC333F8E433F974E952
:1023D40028F582748039F583E02AF508A3E03BF5FB
:1023E4000978081219129081EF121596121F54746D
:1023F400021216BE8A088B098C0A8D0B7410780899
:102404001214B9AA08AB097F0402181774F1121741
:102414006B8A0C8B0D8C0E8D0F740F1216F3E0FA71
:10242400A3E0FB74111216F3E0F508A3E0F50974B8
:10243400131216F3E0FEA3E0FF7808121912EA243F
:1024440001F508EB3400F509E4F50AF50B780C798D
:10245400081213C990817F7808121578780C7908CE
:102464001213C9AA0CAB0DAC0EAD0F121F5474029B
:102474001216BE8B09EA450960047A0180027A00CB
:10248400EC2AFCED3400FDECF8EDF97A717B0212D4
:10249400161D88088909E4F50AF50B8E828F837866
:1024A40008121587ECF8EDF97A717B0212161D8A71
:1024B400088B09740578081216958E828F83A3A35E
:1024C400A3A3E508F0A3E509F07F08021817C0826A
:1024D400C083E9906000F0D083D08222C0E074F21F
:1024E400121857A2AFE433FED2AFE589A2E040064A
:1024F400E589A2E15003121201758900758900C2B1
:10250400C5751A00EEA2E092AF7F010218B6C0E0D2
:10251400C0D0E8C0E0E5A8D2AFC2C7751A00A2E7F0
:0A25240092AFD0E0F8D0D0D0E03242
:10253000FFFFFFFFFFFFFFFFC082C083E9900A0398
:10254000F00227BC74F71216FFE99002E0F07C1845
:102550007D037AFF7BFF12085F9002E174FFF0A316
:10256000F0A3E4F0A3F079051207E79002E0E0F9A8
:1025700012070F7A7D7B08120A450234CA74F412DE
:1025800016FF8A088B09EB548060309002E0E0F976
:1025900012100F8A0A8B0BAE0AAF0BEE4F60138E30
:1025A000828F83E064B070031207FFEEFAEFFB1234
:1025B0000FFDAA08E5096480FB80047A007B000215
:1025C000278B74F21216FF74FC1216A8EAFEEBFFBA
:1025D00074121216F31239B1EE4F700302266574AD
:1025E000021216F3EEF0A3EF1229C6ECF0A3ED12DF
:1025F00029C6AA82AB83120709E9F50A706AE508C1
:10260000450960648E828F83123997EE4F60567A47
:10261000067B001210638A0C8B0DA80CA90DE849EB
:102620007005750A13804188828983E4122672EE50
:10263000F0A3EF1239C2E508F0A3E509F09002E635
:102640001226F99002E67005123474801B1234626F
:102650008003EAFCEBFD8C828D831226F970F38CEB
:10266000828D8380E3750A02A90A74041216BE02E1
:102670003BB1F0A3123968A32274F21216FF890A43
:10268000E975F017A4FEAFF09002E5E4F09002E3E4
:102690001226F9600A1210699002E3E4F0A3F0EE4A
:1026A000FAEFFB1210638A088B09EA4509602FEEE6
:1026B000FCEFFD7900120FEB9002E3E508F0A3E5D3
:1026C00009F07B0080081226E3E4F0A3F00BEBC3D3
:1026D000950A40F2E50A9002E5F07900800279134C
:1026E000023BB1EB75F017A4F8A9F09002E3E028E3
:1026F000FAA3E0398A82F58322123106EA4B22746A
:10270000F41216FF740C1216F312398CFEE9FF75E1
:102710000800750900800CE5082401F508E5093476
:1027200000F509C3E5089CE5099D503285080A8536
:10273000090B7403780A121695EA250AF8EB350B93
:10274000F988828983A3A3A3A3A3A3123549EE65C5
:102750000A7003EF650B70BFE8FAE9FB80047A00AA
:102760007B00802774F41216FF7900EAA2E0501B68
:1027700075085075098178081219127C047D007A59
:10278000057B0A1207E174021216BE7F040217D1FC
:10279000C082C0839002E61227C3601C88828983AE
:1027A000A3A3E06A7003A3E06B8882898370E8A327
:1027B000A3A3A312310280047A007B00D083D082CD
:1027C000020135123C97E8492274EE1216FF74FCA0
:1027D0001216A8EAFEEBFF851882851983E4F0A3A0
:1027E000F0EE2402123454EE240512396FEE240464
:1027F000F50EEF122D7BE024FE603924FC604624A8
:10280000FE605224FE605E24FE70030228DC24FE7B
:10281000700302294024FE700302294F24FE700336
:1028200002295E24FC700302296D24FE7003022934
:102830007C0229B99002FF7417F0A3E41229CE128A
:1028400004870229B9851882851983AC82AD831269
:102850000805022989851882851983AC82AD831207
:10286000080B022989850C08850D0974021216F3DC
:10287000AC82AD8385088285098312310212072D4F
:102880008A0C8B0DAC0CAD0DEC4D603BE4F50CF5FA
:102890000D780C121912750CFF750D02780C1219B7
:1028A00012750C00750D03780C12191274081216AB
:1028B000F3121929123E131216BEE9F50C700B1211
:1028C00030F812049F800F750C01850882850983FA
:1028D0001229BC123474850C0802298C7402121659
:1028E000F3AC82AD83850C82850D83122ECD603CC6
:1028F000850C82850D83A3A31219297510FF75110C
:10290000027810121912751000751103781012193F
:102910001274081216F3121929123E131216BEE988
:10292000F509700B1230F81204A5800F75090185A6
:102930000C82850D831229BC123474850908804CE1
:10294000851882851983AC82AD83120811803A857F
:102950001882851983AC82AD83120817802B8518E5
:1029600082851983AC82AD8312081D801C85188274
:10297000851983AC82AD83120823800D851882856A
:102980001983AC82AD83120829E9F508E5086029AE
:102990008E828F83A3E06414601F850E82850F836F
:1029A000E09002FF1229C6123C9390030012347487
:1029B000E508A31229CE120481023363123C9785E5
:1029C000188285198322F085188285198322F07C6C
:1029D000FF7D02850A82850B831231062274EE1276
:1029E00016FF74FC1216A88A0A8B0B8C0E8D0FEA48
:1029F0002405F508EB3400F5097C157D0079007A93
:102A0000FF7B02120FEBE5082402F50CE5091239F1
:102A1000728518828519838582108583117810123A
:102A20001912850882850983A3A3A3A3122EC412B9
:102A30001912E5082405F510E5093400F5117810A0
:102A4000121912850C82850D831232191207277410
:102A5000061216BE8A108B11AE10AF11E50A2402C1
:102A6000F50AE50B123457EE4F7003022B9B8017CB
:102A700074021216F312310288828983EAF0A3EB02
:102A8000F09002FFE004F09002FFE0C394054003E1
:102A9000022B9BE4F510F51178101219127510E84D
:102AA00075110278101219127510E975110278105B
:102AB00012191274061216F31219297910EEFCEF8E
:102AC000FD123E151216BEE9705E850882850983E7
:102AD000A3A3A3A3A3A3A3E0F89002E8E06870482F
:102AE000122EC41219127CE97D02E5082408FAE5C9
:102AF000093400FB120FE574021216BEE960298E3C
:102B0000828F83A3A3A3A31231029002FFE0F510EA
:102B10007402781012169574002510F5827403352E
:102B200011F583EAF0A3EBF074021216F38582101C
:102B3000858311781012191274021216F3121929D2
:102B4000850C82850D831231281216BE8A108B11D6
:102B5000AE10AF119002FFE0F5107511007402780D
:102B60001012169574FF2510F874023511F9888239
:102B70008983A31226F97003022A67E82403080850
:102B800008E93400F9EE4F6003022A7088828983D5
:102B900074FFF0A3F09002FFE004F09002FFE06009
:102BA0000A1230F81204937900800B850882850997
:102BB0008312346B790A02336374EA1216FF74FECF
:102BC0001216A88C128D13EA2405F50CEB123DFDAC
:102BD00012399B750800750900EA2402F510EB34E0
:102BE00000F51185188285198385820A85830B7803
:102BF0000A121912850C82850D83A3A3A3A3122D9B
:102C000091121912E50C2405F50AE50D12345778D6
:102C10000A121912850C82850D83122D9512072731
:102C200074061216BE8A0A8B0BEA450B7003022D3E
:102C300036EA2404F50EEB122D7B12399B8A828B27
:102C400083A3A3A3E0F985108285118312310C6060
:102C500003022D36E4F514F51578141219127514C3
:102C6000E875150278141219127514E975150278B1
:102C70001412191274061216F31219297913AC0AD8
:102C8000AD0B851082851183123E1B1216BEE9F52D
:102C9000096003022D369002E8E0F8E5087009E0CB
:102CA0002402900300F08014900300E0FCE824026A
:102CB000FAE43400FBEA6C7001EB707E850882AAAE
:102CC00082122EBB9414122EB3506B850E82850F88
:102CD00083E0C0E074012A122D72D0E0F00508856F
:102CE0000E82850F83A3E0C0E085080A7401250ADF
:102CF000122D72D0E0F005089002E8122D91121901
:102D0000127CE97D0285080A7401250A122D8512BC
:102D100016BE9002E8E02508F50874FF6E70037493
:102D2000FF6F6012EE24010EEF3400FFE508C3943C
:102D3000145003022BE3E50860131231168510824C
:102D400085118312310212049979008014E509700B
:102D50000375090A851282851383EEF0A3EFF0A9AB
:102D60000974021216BE7F0E0217D185080C740179
:102D7000250CF58274033400F583223400F50F85A9
:102D80000E82F58322FA74033400FB120FD374020F
:102D9000221239D122A3A3122D9B22123462FDEEFE
:102DA000FAEFFB2274EE1216FF74FE1216A88C0EB8
:102DB0008D0FEA2405F50CEB123972750B009002A9
:102DC000FFE4F0F50AEA2402F508EB3400F5098087
:102DD000449002FFE0FA9002E8E0F8122EBB94174C
:102DE000122EB3400D9002FFE0F87416C3989002C3
:102DF000E8F0122EC41219127CE97D0274002AFA3E
:102E00007403122D881216BE9002E8E0F89002FFBB
:102E1000E028F0050AE50C2416F582E50D122D7662
:102E2000E0F8E50AC39850749002FFE0C39416508E
:102E30006BE50AC333F8E433F9E50C28FEE50D39F8
:102E4000FF851882851983AC82AD838E828F8312B1
:102E50002ECD7008750B011234678050E4F510F523
:102E60001178101219127510E875110278101219E4
:102E7000127510E9751102781012191274061216E3
:102E8000F31219297916850882850983123E1B12CF
:102E900016BEE9F50B7003022DD180BB7CFF7D02CD
:102EA0008508828509831231021204ABA90B7402D2
:102EB000023365E99400C365D03322EA28F8E4348C
:102EC00000F9E822E0F51075110078102212335A4B
:102ED0008A108B11AC10AD11EC4D2274EA1216FF62
:102EE00074FC1216A88A0C8B0D8C128D13EA240523
:102EF000F50AEB123457750800750900E50A24023B
:102F0000F510E50B3400F51174021216F385820EEC
:102F100085830F780E121912850A82850B83A3A36D
:102F2000A3A3123977121912E50A2405F50EE50B51
:102F30003400F50F780E1219128510828511831254
:102F4000345D1230FC12072774061216BE8A0E8BEF
:102F50000FAE0EAF0FE50C2402F50EE50D3400F5B3
:102F60000F80388882898374FFF00508122D6B74F6
:102F7000FFF005089002E8E0F50C750D00780C12E2
:102F800019127CE97D0285080C7401250C122D852F
:102F90001216BE9002E8E02508F508EE4F60278E75
:102FA000828F83A3A3A3E0F9850E82850F8312315C
:102FB0000CEE240412396FE96027850C82850D839D
:102FC0001230EE123474E50870030230D412311658
:102FD000850E82850F831231021204B1790002300E
:102FE000E9E4F514F51578141219127514E875153D
:102FF0000278141219127514E97515027814121951
:103000001274081216F31219297911EEFCEFFD85DE
:103010000E82850F83123E1B1216BEE9F509709AC7
:10302000850882AA82EA9002E87009E024049003ED
:1030300000F08025E0F8900300E0F514E82404FC9B
:10304000E43400FDEC65147001ED7081122EBB9428
:1030500012122EB34003022FCD850C82850D83E022
:10306000C0E074012A122D72D0E0F00508850C82B0
:10307000850D83A3E0C0E0122D6BD0E012313185C5
:10308000820C85830D780C12191274041216F31237
:1030900019298510828511831231281216BE8A0CD7
:1030A0008B0DAE0CAF0D85080C7401250CF8740364
:1030B0003400F9EE4F7003022F638518828519835F
:1030C000E088828983123131A3E0C0E0122D6BD0F9
:1030D000E0022F71E509700375090A850A82850BE4
:1030E000831230EE123474A9097404022D63123C69
:1030F00097851282851383227CFF7D02850A828553
:103100000B8312310622E0FAA3E0FB2212310612F1
:103110000715E9F50922900300E0F5F0E508849031
:1031200002FFF07CFF7D0222122D9B1207337404F4
:1031300022F005088518828519832274EC1216FF87
:1031400074FE1216A88A088B098C0E8D0FEA2405CE
:10315000FEEB3400FF123344EE241812396FEA45B7
:103160000B70030231E712332D502912320C8A10F2
:103170008B11EA4511606B7912AC0AAD0B850882A0
:103180008509831231028510828511831216FDE9AB
:10319000F50A7058E4F50AF50B780A1219128E82B6
:1031A0008F83A3A3E0F50A780A121912EE24031202
:1031B0003454780A1219128E828F8312321912082F
:1031C0004D74061216BEE9F50A7021850C82850D34
:1031D00083E0701F8508828509831231021204B7CB
:1031E0008011750A0E8009750A018004E50A6003E2
:1031F000123467850C82850D83E0600479008002BB
:10320000A90A74021216BE7F0C0217D18518828596
:10321000198312310612083B22123462FD8508829E
:103220008509831231062274EE1216FF74FE1216FF
:10323000A88A088B098C0C8D0DEA2405FEEB34005E
:10324000FF750E00123344EA450B700302330B1274
:10325000332D502C12320C8A0E8B0FEA450F604A28
:103260007912AC0AAD0B850882850983123102857B
:103270000E82850F831216FDE9F50E600302330EF0
:10328000850882850983123549AA0AFB12331F700B
:10329000147AFF7BFF12331F606C88828983E50AF2
:1032A000F0A3E50BF0750A008007750E0E805F0530
:1032B0000A9002E5E0FAE50AC39A504AE50A75F079
:1032C00017A4FAABF088828983A3A3E02AFAA3E0CB
:1032D0003BFB8A828B8312345DEC4D70D2750A17EA
:1032E000750B00780A121912EEFCEFFD120FD37461
:1032F000021216BEEEFCEFFD8508828509831231AD
:10330000021204BD8014750E098003750E01123C73
:103310008F850C82850D83123474A90E022EAE1295
:10332000082F8A108B11A810A911E84922E508245A
:1033300002F508E5093400F5098A828B83A3A3A36B
:10334000E0A2E522851882851983AC82AD838E8246
:103350008F8312335A8A0A8B0B22E0FAA3E0FB1206
:10336000072D2274041216BE7F0A0217D174EC12C4
:1033700016FF8C108D11EA2405F50CEB12397275CD
:103380000F00EA2402F50AEB123457850A82F5830E
:10339000123102123EA17003023449750E00807191
:1033A000850C82850D83E06401704F8E828F83A32C
:1033B000A31219298E828F83A3A3A3A3E0F512750C
:1033C00013007812121912EE2405F512EF3400F5ED
:1033D0001378121219121230FC12084D74061216CC
:1033E000BEE9F50F6014850C82850D83E4F0123C74
:1033F0008F8510828511831234747C177D007900CB
:10340000EEFAEFFB120FEB8E828F83E4F0A3F00550
:103410000E9002E5E0F8E50EC398501EE50E75F03B
:1034200017A4F8A9F0850882850983A3A3123E0793
:1034300012345DEC4D60030233A085088285098358
:1034400074FFF0A3F0E50F70061230FC1204C3A95C
:103450000F023207F50AEF3400F50B22A312346293
:10346000FD22E0FCA3E0228E828F83123C97850E22
:1034700082850F83E8F0A3E9F022C082C083900226
:10348000E1E06A7003A3E06B70067AE17B028004DE
:103490007A007B000227BC74F71216FF7F00EF75DD
:1034A000F003A4F8A9F0EC28F8ED39F988828983B3
:1034B000E06A7003A3E06B7006E8FAE9FB800B0F8B
:1034C000EFC3940240D87A007B007F010217D174C9
:1034D000F61216FF123A8070067A007B008007A36E
:1034E000A3A3A3123102023B4174F21216FFE9FEBC
:1034F000740E1216F312354974101216F31239B104
:103500008C828D83E06402703BA3123C9388828995
:1035100083E0F50CA3E0F9A80C7402687003742929
:10352000697021750C02750D00780C12191278085B
:10353000121912780A121912EEF912087174061291
:1035400016BE80027901023BB1E0F50AA3E0F50B5B
:103550002274E81216FF74FB1216A8E985188285FA
:103560001983F08A168B178C0E8D0F741F1216F3A9
:103570001239B174211216F312354974231216F35D
:1035800012399B7510008C828D83A3A3A3E0A2E463
:10359000502A741D1216F31232128A828B83E5822E
:1035A0004583700302365D790AAC0EAD0FAA16ABE7
:1035B000171216FDE9F5106003023660850E82854C
:1035C0000F83E064026003023916A3123C9385085E
:1035D00082850983A3858212858313E50E2406F56F
:1035E0000CE50F12397288828983E0FAA3E0F9EAC8
:1035F0002400F514E439F515781412199C01000023
:10360000280128253607000228FC3603286C3600DE
:1036100029263801294E380229F53703292638048E
:1036200029B7381639EE4F703E850C82850D83120E
:10363000398CFAE9FB8A828B83E0850A82850B83C9
:103640001239C81219128A828B83A3123462FDAA1E
:1036500008AB09120FD374021216BE800375100E48
:10366000A9107405023DF575100B80F4EE4F70F74C
:10367000850A82850B837401F01239A18508828541
:103680000983F07C007D00850E82850F83A3A3A3B0
:10369000A3E02401FAA3E03400FB12072DEA4B60FB
:1036A000418A828B83E02402F8850A82850B83E0BD
:1036B00028F0EA2404F8EB3400F988828983E08555
:1036C00012828513831239DA1239C81219128A82CA
:1036D0008B8312345CE5082403FAE5093400FB020D
:1036E0003653850A82850B83E02404F07C047D0038
:1036F0007900AA12AB13120FEB023660EE4F600393
:103700000236671239A1FEA3E0FF850A82850B838A
:103710007404F0EE850882850983F0EF85128285B6
:103720001383F074031216F3AC82AD83EEFAEFFB51
:10373000123A6E70030237D28A828B83A3A31239A6
:103740009774011216F385820E85830F780E121975
:103750001274051216F31219297CFF7DFF1207332C
:1037600074041216BE8B0FEA450F7033850C8285E8
:103770000D83123977121912850C82850D83A312DD
:1037800019297C027D007A187B8212055F7404126D
:1037900016BEE9700A74011216F374FFF0A3F08EDE
:1037A000828F83E064027034750C02750D00780C12
:1037B0001219128E828F8312345CE5082404FAE514
:1037C00009122D881216BE850A82850B83E0240219
:1037D000800974011216F3EEF0A3EFF074011216D3
:1037E000F3123988F074011216F3A3123980A3A3DF
:1037F000A3F0023660EE4F6003023667850C8285C7
:103800000D8312345DAA16AB17120865850A8285EE
:103810000B837402F0EA850882850983F0851282A1
:10382000851383EB80CBEE4F60030236671239A11C
:10383000F8A3E0F9850A82850B837402F0E8850815
:1038400082850983F0E985128285138380A3850C24
:1038500082850D83123102120FCDEAFC8C82A88280
:10386000C39EE49F404BE86E7001EF70047C0080C3
:103870001F851882851983E0FAEE2AFAEF3400FBDF
:10388000C3EA98EB94005003E08004EECCC39CFCA8
:10389000EC850A82850B83F08C0A750B00780A127E
:1038A0001912850C82850D83E02EFCA3E03F0236C1
:1038B0004E751007023660EE4F6003023667850CC6
:1038C00082850D83123C93850A82850B837407F0F1
:1038D00088828983123980123968E08512828513C3
:1038E00083F0E82402FAE93400FB8A828B831239E0
:1038F000801239B9123988A31239C2123991F0E80D
:103900002405F8E93400F988828983123991A312D9
:1039100039DAA30237EE741D1216F3123A797003E6
:1039200002365D123C93880C890DE8450D70030248
:10393000365D8E108F117810121912780A12191232
:10394000780812191274061216F3E0F9AC0EAD0FD6
:10395000AA16AB17850C82850D831216FD7406120C
:1039600016BEE9F510023660F088828983A322F53D
:103970000CEF3400F50D22E0F50E750F00780E22E5
:10398000E0850882850983221239E122123C97E8FA
:10399000221239E1A3A322A3A3A3A3E0FEA3E0FF85
:1039A00022850C82850D83E0F8A3E0F5838882E010
:1039B00022E0F508A3E0F50922A3A3F08A828B8315
:1039C000A322122674A3A322F08A828B831239D1F8
:1039D00022E0F50A750B00780A221239681239E1E3
:1039E00022E0850882850983A3A32274EE1216FFC4
:1039F00074FE1216A88A0A8B0BECFAEDFB741412F3
:103A000016F3E0F510A3E0F51174161216F3E0FEBC
:103A100074181216F3E0F50EA3E0F50F85188285F1
:103A20001983AC82AD83123A6E603E851882851987
:103A300083123A79602FA3A31239B1E508450960D2
:103A400024780E1219127810121912EEF9AC0CAD7E
:103A50000DAA0AAB0B8508828509831216FD740432
:103A60001216BE8006790E80027901022EAE120770
:103A70002D8A0C8B0DEA450D22123106123A802256
:103A80001207F98A828B83E58245832274F6121627
:103A9000FF74FE1216A8740C1216F312398C8518D6
:103AA00082851983F074011216F3E9F0E4F508F544
:103AB000097808121912750802780812191274048C
:103AC0001216F385820885830978081219121208E4
:103AD0004D74061216BE74021216BE806474F7127C
:103AE00016FFEAFEEBFF89087C187D03120865EAE1
:103AF0005402600BA908EEFAEFFB1207218002794D
:103B0000010234CA74F61216FF74FF6A700374FF60
:103B10006B701C7B00EB75F003A4F8A9F0EC28F89F
:103B2000ED39F9123B460BEBC39402501480E612B8
:103B300008358A088B09A808A909E8496003123BDF
:103B4000467F020217D18882898374FF122672E4AD
:103B5000F02274F61216FF1208358A828B83E582F2
:103B600045836006A3A3E0FA80027A007B0080D13F
:103B700074F21216FF8A088B09ECFEEDFF740E1228
:103B800016F3E0F50A123BB6701CEEFCEFFD7AFF6F
:103B90007BFF123BB670047911801688828983E519
:103BA00008F0A3E509F088828983A3A3E50AF079E8
:103BB000007F060217D11208358A0C8B0DA80CA9BC
:103BC0000DE8492274EE1216FFEAFEEBFF8C088D19
:103BD00009890C74121216F3123C9374141216F322
:103BE00012345D74161216F3123102750D00EC4D8D
:103BF0006003023C877402650C6003023C82888289
:103C00008983123462F9EC2400F50EE439F50FEAE9
:103C1000F4F8EBF4F9EC58F8E50F59F9E849705D60
:103C2000E5082406F8E5093400F9880A890B88823A
:103C3000F583122D971208658A108B11E50E651019
:103C40007004E50F65116042780E121912850A8220
:103C5000850B83122D9712086B74021216BEE9F5BC
:103C60000D7027780E121912850882850983A3A387
:103C7000122D9512088374021216BE800D750D80E8
:103C80008008750D0D8003750D0BA90D0233688E2C
:103C9000828F83123C9722E0F8A3E0F92274E812A5
:103CA00016FF74E71216A8851882851983EAF0A317
:103CB000EBF08C168D17890E74311216F3E0F512A5
:103CC000A3E0F51374331216F3E0F514A3E0F51531
:103CD00074351216F3E0F50F750800750900E50953
:103CE00075F003A4F8A9F0851882851983123E07A0
:103CF000E0F47003A3E0F47003023DE5EE2402F566
:103D00000CEF123DFDE07003023DE585160A8517B4
:103D10000B780A121912AC14AD15AA12AB131207C4
:103D2000ED74021216BE8A0A8B0BEA450B70030271
:103D30003DE5E4F510F5117810121912740612160B
:103D4000F3858210858311781012191274091216E6
:103D5000F3858210858311781012191285128285DD
:103D60001383A3A3A3A31219297914AC0AAD0B8E54
:103D7000828F83123E1B1216BEE97069850A828506
:103D80000B83A3A3A3A3123C9374021216F3123461
:103D900074850C82850D83E0A2E05018A90E740290
:103DA0001216F3AC82AD838E828F8312310212071A
:103DB00045E94208850C82850D83E0A2E15026E5A5
:103DC0000FF50A780A121916A90E74031216F3AC2D
:103DD00082AD838E828F8312310212073F740112EB
:103DE00016BEE942080509E509C394025003023CE6
:103DF000DEA90874191216BE7F100217D13400F51F
:103E00000D850C82F58322E028FEA3E039FF8E8227
:103E10008F83227916850A82850B83123106120858
:103E20004774082274F21216FFEAFEEBFF890B7446
:103E300001650B600E7402650B70637901120A63F1
:103E4000E9705BEEFAEFFB123EA16047750A008055
:103E50000B7C177D007900120FEB050A9002E5E05C
:103E6000F8E50AC3985021E50A75F017A4F8A9F0FF
:103E7000850882850983A3A3E028FAA3E039FB8A99
:103E8000828B831227C370C985088285098374FFDA
:103E9000F0A3F07C187D03EEFAEFFB12085F023B03
:103EA000B112082F8A088B09EA45092274F212160A
:103EB000FF8A088B09ECFEEDFF740E1216F3123523
:103EC00049900A03E0F4603D7A097B00120FF7EA9B
:103ED0004B60328A828B8374B1F0A3E41239BBA3A6
:103EE0001239B9A3E508F0A3E509123F08EEF0A3E3
:103EF000EF123F08A3A3E50AF0A3E50BF0900A0335
:103F0000E0F9121003023BB1F08A828B83A3A3A3D2
:103F1000A3A322C082C0839061907404F0A374486C
:103F2000F0A37402F09061807440F09061BC74035F
:103F3000F09061877419F0906265741BF090619A3B
:103F40007433F0A37455F09061A0743AF090055961
:103F5000E064017009C2919003C674678005900304
:103F6000C67461F0902536E493906186F090253018
:103F7000E493F46027E493540FF8906185E068605F
:103F800012E5C654804449F5C6E59E547F644970E5
:103F9000F8E8F053C680E59E547F70FA7905120D5B
:103FA000B702414FC082C083E9540FF9906185E0A8
:103FB000696012E5C654804449F5C6E59E547F64A5
:103FC0004970F8E9F053C680E59E547F70FA0241CB
:103FD0004FC082C083E5A8F853A87E906181E4F0C9
:103FE000A3F0A3F0C2BA539AFEC289759B00C2C265
:103FF00075E90075910075BF0075A91175B9059037
:104000006181F0A374C0F0A3E4F0D2BA439A0174C2
:10401000805842A802414FC082C08374F81216A88B
:104020009003C4E0F8A3E0F9E84970030241459029
:1040300003C4E0544060237908851882851983AA57
:1040400082AB83120C1F851882851983AA82AB83E9
:104050001208F59003C4E054BFF0E054806010797A
:104060000C7A7D7B05120C1F9003C4E0547FF0E0B6
:10407000A2E0503190619A7433F0A37455F09061CE
:10408000A0743AF0900559E064017009C291900360
:10409000C6746780059003C67461F01208FB900334
:1040A000C4E054FEF0E05402603190619A743FF035
:1040B000A3745AF09061A0747FF0900559E06401F8
:1040C0007009D2919003C6747180059003C6746A1A
:1040D000F01208FB9003C4E054FDF0E054046013B8
:1040E000902534E493906186F01209019003C4E0B6
:1040F00054FBF0E054086013902535E493906186FA
:10410000F01209019003C4E054F7F0E0541060137A
:10411000902536E493906186F01209019003C4E083
:1041200054EFF0E05420600A1209019003C4E054F7
:10413000DFF0A3E05401600D120B4D12090790034C
:10414000C5E054FEF074081216BE8003F0A3F0D050
:1041500083D08202013574EC1216FF74F41216A893
:10416000851882851983AC82AD837583817582CB76
:1041700074041215BB90253493F460030242E3905B
:104180007808E0C3940250030242C374041216F389
:10419000AC82AD8375838175822A74081215BB8544
:1041A000188285198385821285831374041216F38D
:1041B000AC82AD83750EFF750FFF7FFF7E00750C1F
:1041C00048750D78801574086E70030242567409A4
:1041D0006E7003024256740A6E607B850C82850DF8
:1041E0008378081215788C828D83A909E50AC9F8AD
:1041F0008810741878081214B9E5104508F8C3E05F
:1042000098A3E099850C82850D8378081215784073
:10421000188C828D83741878081214B9E51045083B
:10422000F8E0C398F8A3E0801C741878081214B959
:10423000E5104508FAE9FB8C828D83E0F8A3E0F9EC
:10424000EAC398F8EB99F9C3E8950EE9950F500683
:10425000880E890FEEFF0EE50C2404F50CE50D34F5
:1042600000F50DEEC3941350030241C674FF650EB2
:10427000700474FF650F60238F08740278081216AB
:104280009574482508F58274783509F58378081205
:104290001578851282851383E508F0EC24020C0C56
:1042A000ED3400FD851282851383A38582128583F8
:1042B00013740C1216F3E5826C7003E5836D6003D2
:1042C0000241B475080175090078081219127402C8
:1042D0001216F3AC82AD837A4D7B091211DD7402A4
:1042E0001216BE740C1216BE7F0C0217D1C082C00B
:1042F0008390618674E1F09061AE7468F0A3746A93
:10430000F090624574FBF0A304F053F4FD43FE0209
:104310009005597401F090619A7433F0A37455F0CC
:104320009061A0743AF0740164017009C291900325
:10433000C6746780059003C6746102414E7F040213
:1043400017D1C082C08375E1F190050EE06055146D
:1043500060081460591460518059120B599005047B
:10436000E0F97A057B05120D399081C3121596127A
:104370000D6F9081D7121596120D4590050FE0F93B
:10438000120D517901120DAB900502E02416F8A32D
:10439000E03400F9888289837471F0A3740BF0799A
:1043A0000002414F120B5F80B4120B6580AF120BFD
:1043B0006B80AA791280EA74F41216FF75D90D90F9
:1043C00004F4E0A2E0E4331313F8900504E0C433EE
:1043D0003354C0484401F5D978027905888289832D
:1043E000A3A3A3E0F5D988828983A3A882A983E83F
:1043F00064087003E9640570E378F47904888289BD
:1044000083A3E0F5D988828983A3A882A983E8647D
:10441000FA7003E9640470E575E1959004F4E0F93D
:104420007AF57B04120D3F900A25740BF0A3740BF0
:10443000F0A37467F0A3740CF0A37467F0A3740C7A
:10444000F0A37467F0A3740CF0A37411F0A3740BC1
:10445000F0A37467F0A3740CF0A37429F0A3740B99
:10446000F0900A337467F0A3740CF0A37467F0A3A0
:10447000740CF0A37467F0A3740CF0A37467F0A33A
:10448000740CF0A37467F0A3740CF0A37467F0A32A
:10449000740CF0900502E0F8A3E0F5838882A3A3F2
:1044A000780812157890818F78081215049081D3BE
:1044B0007808121552900502E0240EF8A3E03400AB
:1044C000F9888289837808121587900502E0241400
:1044D000F8A3E03400F9888289837413F09003C252
:1044E0007402F002433DC082C083900514E02407AB
:1044F000F5D9900504E0C4333354C0F5D978027976
:104500000588828983A3A3A3E0F5D988828983A340
:10451000A882A983E864087003E9640570E3900544
:1045200014E0601F78027905FAE82413F582E93473
:1045300000F583E0F5D988828983A3A882A9831A2C
:10454000EA70E6900534E02407F5D9900504E0C44C
:10455000333354C04404F5D97802790588828983BD
:10456000A3A3A3E0F5D988828983A3A882A983E8BD
:1045700064087003E9640570E3900534E0601F7817
:10458000027905FAE82433F582E93400F583E0F591
:10459000D988828983A3A882A9831AEA70E675E183
:1045A00095900A257417F0A3740BF0A37467F0A319
:1045B000740CF0A37467F0A3740CF0A37467F0A3F9
:1045C000740CF0A37411F0A3740BF0A37467F0A340
:1045D000740CF0A37429F0A3740BF0900A33746781
:1045E000F0A3740CF0A37467F0A3740CF0A37467C9
:1045F000F0A3740CF0A37467F0A3740CF0A37467B9
:10460000F0A3740CF0A37467F0A3740CF09081F322
:10461000121596900502E0240EF8A3E03400F98804
:104620008289831215A2900502E02414F8A3E034D5
:1046300000F9888289837412F09003C274010241E8
:104640004EC082C083900514E02407F5D99005047C
:10465000E0C4333354C04402F5D978027905888226
:104660008983A3A3A3E0F5D988828983A3A882A91B
:1046700083E864087003E9640570E3900514E06062
:104680001F78027905FAE82413F582E93400F583EE
:10469000E0F5D988828983A3A882A9831AEA70E603
:1046A00075E195900A257423F0A3740BF0A374238D
:1046B000F0A3740BF0A37423F0A3740BF0A3742382
:1046C000F0A3740BF0A37423F0A3740BF0A3742372
:1046D000F0A3740BF0A37429F0A3740BF0900A33C9
:1046E0007467F0A3740CF0A37467F0A3740CF0A3C8
:1046F0007467F0A3740CF0A37467F0A3740CF0A3B8
:104700007467F0A3740CF0A37467F0A3740CF090BA
:1047100081F3121596900502E0240EF8A3E0340010
:10472000F9888289831215A2900502E02414F8A367
:10473000E03400F9888289837414F09003C2740411
:1047400002414EC082C083900514E02407F5D99041
:104750000504E0C4333354C04406F5D97802790522
:1047600088828983A3A3A3E0F5D988828983A3A83B
:1047700082A983E864087003E9640570E390051476
:10478000E0601F78027905FAE82413F582E9340025
:10479000F583E0F5D988828983A3A882A9831AEAE0
:1047A00070E6900534E02407F5D9900504E0C433A1
:1047B0003354C04404F5D97802790588828983A3EB
:1047C000A3A3E0F5D988828983A3A882A983E8649A
:1047D000087003E9640570E3900534E0601F780217
:1047E0007905FAE82433F582E93400F583E0F5D958
:1047F00088828983A3A882A9831AEA70E675E19565
:10480000900A25741DF0A3740BF0A37467F0A374D1
:104810000CF0A37467F0A3740CF0A37467F0A37496
:104820000CF0A37467F0A3740CF0A37467F0A37486
:104830000CF0A37429F0A3740BF0900A337467F0A2
:10484000A3740CF0A37467F0A3740CF0A37467F066
:10485000A3740CF0A37467F0A3740CF0A37467F056
:10486000A3740CF0A37467F0A3740CF09081F3129E
:104870001596900502E0240EF8A3E03400F9888232
:1048800089831215A2900502E02414F8A3E03400F5
:10489000F9888289837415F09003C2740302414E33
:1048A000C082C083900502E0F8A3E0F5838882A36C
:1048B000A3A3A3A3A3E402414C74F71216FF900331
:1048C000EEE0F875F004A4C8AAF02AF974F028F80C
:1048D000740339F9E82405FAE93400FB8A828B83F2
:1048E000E0FCA3E0FD88828983A3A3A3A3A3A3A3E1
:1048F000A3A3ECF0A3EDF088828983A3A3A3A3A3D1
:10490000A3A3E024FFF8A3E034FFF98A828B83E8B5
:10491000F0A3E9024B5E74F71216FFEAFEEBFF907C
:1049200061D0E060030249F375D90E75D90375D9DA
:1049300004EE248CF582EF3400F583E5822408F838
:10494000E5833400F9E0F5D9A3E865827003E965F1
:104950008370F2EE2484F582EF3400F583E582243F
:1049600004F8E5833400F9E0F5D9A3E86582700323
:10497000E9658370F275E1957908EE248CFAEF34DD
:1049800000FB120C137904EE2484FAEF3400FB12BE
:104990000C137C00EEF8EFF9ECFAC3E49AFA95E018
:1049A000FBEE2AFAEF3BFBEA248BF582EB3400F5B1
:1049B00083E0C0E0E824ABF582E93400F583D0E081
:1049C000F00C88828983A3A882A983ECC394084051
:1049D000C7EE2470F582EF3400F583E0F8A3E0F928
:1049E000EE2472F582EF3400F583E8F0A3E9F07964
:1049F0000180027900024B5FC082C08375D90275C5
:104A0000D90375D90575E195EA2470F582EB340078
:104A1000F583E0F8A3E0F9EA2472F582EB3400F5BF
:104A200083E8F0A3E9F0790102414F74F61216FF12
:104A3000EAFEEBFF90055D7406F075085D750905EB
:104A400078081219127C017903120C5B7402121699
:104A5000BE75D90675D90375825D758305E0F5D9F4
:104A6000A3E58264627004E583640570F075E195E6
:104A70009003C2E06408701EEE2470F582EF3400EB
:104A8000F583E0F8A3E0F9EE2472F582EF3400F547
:104A900083E8F0A3E9F07901024C2B74F61216FFBB
:104AA000EAFEEBFF9061D0E07066780190055D74DE
:104AB0000BF09003C2E06407701975085D75090575
:104AC00078081219127C017903120C5B7402121619
:104AD000BE7805740128F5D975D90375825D758393
:104AE00005E8FAE0F5D9A31AEA70F875E195EE2425
:104AF00070F582EF3400F583E0F8A3E0F9EE24725C
:104B0000F582EF3400F583E8F0A3E9F07901800243
:104B10007900024C2B74F71216FFEAFEEBFF75D9F1
:104B20000375D90375D90DEE24DEF582EF3400F557
:104B300083E0F5D975E1957904120D75EE2470F5D1
:104B400082EF3400F583E0F8A3E0F9EE2472F582F9
:104B5000EF3400F583E8F0A3E9F079018001F07FFC
:104B6000010217D174F61216FFEAFEEBFF9061D036
:104B7000E0F87480C398FAEE2483F582EF3400F5F0
:104B800083E06004780480027800E8240BF8EAC32C
:104B9000985003024C297D0990055DEDF0EE24E369
:104BA000F8EF3400F97A5E7B057C0888828983E01F
:104BB0008A828B83F088828983A3A882A9838A82D0
:104BC0008B83A3AA82AB831CEC70E0EE2483F58276
:104BD000EF3400F583E0601D75085D750905780800
:104BE0001219127C097903EEFAEFFB120C5B7402C6
:104BF0001216BE7D0D74012DF5D975D90375825D30
:104C00007583058D08E0F5D9A31508E50870F675DC
:104C1000E1957904120D75EE241DF582EF3400F54F
:104C200083E4F0A3F07901800279007F020217D1BA
:104C300074F61216FFEAFEEBFF9061D0E0F8748084
:104C4000C398FAEE2483F582EF3400F583E0600424
:104C5000780480027800E82408F8EAC39850030238
:104C60004D307D0690055D740CF09003DFE09005FB
:104C70005EF07AE07B03785F79057C028A828B8321
:104C8000E088828983F08A828B83A3AA82AB83889F
:104C9000828983A3A882A9831CEC70E07AE27B035B
:104CA0007C028A828B83E088828983F08A828B836C
:104CB000A3AA82AB8388828983A3A882A9831CECE0
:104CC00070E0EE2483F582EF3400F583E0601D751B
:104CD000085D75090578081219127C067903EEFA49
:104CE000EFFB120C5B74021216BE7D0A74012DF5E7
:104CF000D975D90375825D7583058D08E0F5D9A353
:104D00001508E50870F675E1957904120D75EE2425
:104D100070F582EF3400F583E0F8A3E0F9EE247239
:104D2000F582EF3400F583E8F0A3E9F07901800221
:104D30007900024C2B74F61216FFEAFEEBFF90612D
:104D4000D0E0F87480C398FAEE2483F582EF340043
:104D5000F583E06004780480027800E82404F8EA2F
:104D6000C3985003024E0F780290055DE8F0EE24E0
:104D7000F5F582EF3400F583E090055EF0EE2483D4
:104D8000F582EF3400F583E0601B75085D75090559
:104D900078081219127C027903EEFA120C5B740285
:104DA0001216BE7806740128F5D975D90375825D8F
:104DB0007583058808E0F5D9A31508E50870F67530
:104DC000E195EE2474F582EF3400F583E4F0EE24EF
:104DD00080F582EF3400F583E4F0EE241DF582EFD8
:104DE0003400F583E4F0A3F07904120D75EE240D80
:104DF000F582EF3400F583E0F8A3E0F9EE2472F5D4
:104E000082EF3400F583E8F0A3E9F07901800279BC
:104E100000024C2B74F61216FF9061D0E0F87480FB
:104E2000C398FCEA2483F582EB3400F583E0600448
:104E3000780480027800E82404F8ECC398405B7999
:104E40000290055D7407F0EA24F6F582EB3400F574
:104E500083E090055EF0EA2483F582EB3400F5836D
:104E6000E0601875085D75090578081219127C0252
:104E700009120C5B74021216BE7906740129F5D969
:104E800075D90375825D758305E9F8E0F5D9A31836
:104E9000E870F875E195790180027900024C2B7475
:104EA000F51216FFE9FCA2AFE433F50AC2AF7D00AC
:104EB00080010DEA246FF582EB3400F583E0F8ED14
:104EC000C398501A8D08EA2508F8EB3400F9E82455
:104ED0006BF582E93400F583E06C70D68024EA2417
:104EE0006FF8EB3400F9E0FEEA2EFAEB3400FBEA4F
:104EF000246BF582EB3400F583ECF088828983E043
:104F000004F0E50AA2E092AF7F030217D174F61213
:104F100016FFA2AFE433FDC2AFEA246FF582EB3493
:104F200000F583E014F07C0060368C08EA2508F870
:104F3000EB3400F9E8246CF582E93400F583E0C035
:104F4000E0E8246BF582E93400F583D0E0F00CEA68
:104F5000246FF582EB3400F583E0F8ECC39840CA87
:104F6000EA246EF582EB3400F58374FFF0EA246ADC
:104F7000F582EB3400F583E4F0EDA2E092AF024C51
:104F80002BC082C083E5A8F8C2AFEA246BF582EBA0
:104F90003400F583E9F0EA246AF582EB3400F58306
:104FA000E4F0E8A2E792AF02414F74F31216FFEA71
:104FB000FEEBFFECFAEDFB8A828B83A3A3A3A3E0B5
:104FC000541FF0EE2436F582EF3400F583E4F0F55B
:104FD0000AEEFCEFFD8A828B83E0C0E0EC245DF5F5
:104FE00082ED3400F583D0E0F0750B00E50A333331
:104FF0003354F8F50C8A828B83E0F508750900E5D7
:105000000B7808121676E508A2E0502FEE2436F849
:10501000EF3400F988828983E0F508EE2508F50869
:10502000EF3400F509E5082438F582E5093400F588
:1050300083E50CF088828983E004F0050B050CE51C
:105040000BC3940840AF050A8A828B83A3AA82AB64
:10505000838C828D83A3AC82AD83E50AC394055013
:1050600003024FD57F050217D174F71216FF900384
:10507000ECE0640170077A007B000251E07E009052
:1050800003F2E070F17401F0A3E4F0A3F090045295
:1050900004F0900455E4F0A3F090045804F0900359
:1050A000F5E4F0A3F0A3F0A3F09003FF04F0900464
:1050B00025E4F09081971215969004081215A2909D
:1050C000040CE4F0A3F0A3F0900470F0900464F0FA
:1050D0009004597480F0A3E4F090045FF0900457BA
:1050E000F09004DBF0A3F0A3F0A3F0A3F0A3F0A3EF
:1050F000F0A3F09004E4F0900473F09004C3F0A3E4
:10510000F09081971215969004C51215A290819780
:105110001215969004C91215A29004CFE4F09004E1
:10512000D1F09004CDF09004E7F0A3F0A3F0A3F049
:10513000A3F0A3F0A3F0A3F078EC7903E8246FF5D3
:1051400082E93400F58374FFF00E88828983A3A876
:1051500082A983EEC3940440E37AEC7B0378FB7965
:105160000488828983E0C0E0EA2461F582EB3400A0
:10517000F583D0E0F088828983A3A882A9838A82FC
:105180008B83A3AA82AB83E864007003E964057093
:10519000D07AEC7B0378D5790388828983A3E0C039
:1051A000E0EA24E7F582EB3400F583D0E0F0888272
:1051B0008983A3A882A9838A828B83A3AA82AB83D3
:1051C000E864DD7003E9640370CF9003ECE004F061
:1051D000640170089003F4E09003EEF07AF07B0332
:1051E000024B5FC082C0839003F3E4F09003F2F0BF
:1051F0009003ECF0A3F0A374FFF075E1F102414FCE
:10520000C082C083780079009003F3E0600478F0F6
:10521000790388828983A3A3A3A3E0F902414F7491
:10522000F61216FFEAFEEBFF8E828F83A3A3A3E0A4
:10523000600F8E828F83A3A3A3E4F09003EDE014AC
:10524000F09003ECE014F070069003EE74FFF08E23
:10525000828F83A3A3E4F0900500E0700D9003ED2E
:10526000E0640170057900120D57EE2465F582EFB8
:105270003400F583E0F8A3E0F9E8496029EE2465FD
:10528000F8EF3400F9880889098882F583E0FCA3E7
:10529000E0FD9003EEE0FA7B0012092B8508828581
:1052A0000983E4F0A3F0EEFAEFFB120C8B024C2B17
:1052B00074F71216FFEAFEEBFF8E828F83A3A3A37F
:1052C000A3E0FA7B0012096DEEFAEFFB120BDD1280
:1052D0000C73024B5FC082C08378D57903888289C2
:1052E00083A3E4F088828983A3A882A983E864DD8C
:1052F0007003E9640370E69003D602463C74F6122C
:1053000016FFEAFEEBFFEC2403F8ED3400F9880801
:105310008909EC2407F8ED3400F9E8FCE9FD8C82FA
:105320008D83E0F8A3E0F9850882850983E0FAA37C
:10533000E0FB12161DEE240DF582EF3400F583E834
:10534000F0A3E9F08C828D83E0F8A3E0F985088270
:10535000850983E0FAA3E0FB12161D8B09EA4509D3
:105360006013EE240DF582EF3400F583E02401F0A4
:10537000A3E03400F0024C2B74F61216FFEAFEEBA9
:10538000FFEE242EF582EF3400F583E0FCA3E0FD70
:10539000780079FAECFAEDFB12161DEE2470F58216
:1053A000EF3400F583E8F0A3E9F0780079FAECFA3D
:1053B000EDFB12161D8B09EA45096013EE2470F50A
:1053C00082EF3400F583E02401F0A3E03400F00222
:1053D0004C2B74F01216FFEAFEEBFF74101216F35A
:1053E0007808121578120D158A0C8B0D8C0E8D0F06
:1053F000908187780C1215049081D3780C12155285
:10540000780C12190E8E828F83E0F8A3E0F5838862
:1054100082A3A312159612227774041216BEE960B5
:105420000302551F8E828F83E02402F8A3E034002C
:10543000F9E8FAE9FB8A828B8378081215179081C4
:10544000D378081215788A828B837808121565EE56
:10545000240BF582EF3400F583C082C0838E828FE7
:1054600083A3A3A3A3A3E02401F8A3E03400F9D00D
:1054700083D082E0687003A3E0697005790102556A
:10548000218E828F83A3A3A3A3A3A3A3E02401F06F
:10549000A3E03400F0EE2474F582EF3400F583E0ED
:1054A00064017036EE2475F582EF3400F583E0F880
:1054B000A3E0F98E828F83A3A3A3A3A3A3A3E06891
:1054C0007003A3E0697013EE2475F582EF3400F5E4
:1054D00083E02401F0A3E03400F0EE2480F582EFB5
:1054E0003400F583E064017036EE2481F582EF34F8
:1054F00000F583E0F8A3E0F98E828F83A3A3A3A332
:10550000A3A3A3E0687003A3E0697013EE2481F500
:1055100082EF3400F583E02401F0A3E03400F07959
:10552000007F080217D174F71216FF9003EEE0F81F
:1055300075F004A4C8AAF02AF974F028FE7403399F
:10554000FF8028EE2465F8EF3400F988828983E033
:10555000FCA3E0FD88828983E4F0A3F08E828F8330
:10556000A3A3A3A3E0FA7B0012092BEE2465F58226
:10557000EF3400F583E0F8A3E0F9E849604FEE244A
:1055800064F582EF3400F583E0F508780812191607
:10559000EE2463F582EF3400F583E0F9EE2465F53F
:1055A00082EF3400F583E0FCA3E0FDEEFAEFFB129E
:1055B0000C0774011216BEE96089EE2465F582EFCE
:1055C0003400F583E0F8A3E0F9E84970137C007D2E
:1055D000008E828F83A3A3A3A3E0FA7B0012092B82
:1055E000024B5F74F21216FFEAFEEBFF890A740E9B
:1055F0001216F3E0FAEE2462F582EF3400F583E050
:10560000640160030256AF9061D0E0F87480C398E3
:10561000F50CEE2483F582EF3400F583E060047826
:1056200004800278008908E928F8E43400F9E824C5
:10563000020808E93400F9E50C98E499A2D265D093
:10564000334068EA7005750B028003750B01E0605A
:105650003975090078081219127A5D7B05120C3D24
:1056600074021216BE75085D7509057808121912C4
:10567000AC0AA90BEEFAEFFB120C5B74021216BE19
:105680007404250AF50A7C5D7D057401250AF5D9A7
:10569000850BD9E50A600D8C828D83F8E0F5D9A3DE
:1056A00018E870F875E1957900800679078002792D
:1056B000FF7F060217D1C082C083E960208C828DF3
:1056C00083E08A828B83F08C828D83A3AC82AD834E
:1056D0008A828B83A3AA82AB8319E970E0ECFAED8E
:1056E000FB02414F74EA1216FF907803E0644270A7
:1056F0005E90055CE014F07056C2AF1256FE007862
:105700002AD0E0F618D0E0F6E59F5407F97005902E
:105710008183800390817B7808121578E9C4C0E00A
:105720007829E65508F50808E65509F509740B7857
:1057300008121686D0E02508F8906270E0A2E740D3
:10574000F8E8C333906272F0906270E0D2E0F090BB
:1057500003EEE0F47003025B07E0F875F004A4C800
:10576000AAF02AF974F028FE740339FFEE2402F53A
:1057700082EF3401F583E0F8A3E0F9E849601EEE1A
:105780002402F582EF3401F583E0FAA3E0FBEE2476
:1057900001F582EF3401F583E0F91210278E828F34
:1057A00083A3A3A3A3A3A3A3E0F8A3E0F98E828F0E
:1057B00083A3A3A3A3A3E8F0A3E9F0906054E0902F
:1057C00003C9F0906055E09003CAF0906056E090F5
:1057D00003CBF0906057E09003CCF0906058E090DD
:1057E00003CDF0906059E09003CEF090605AE090C5
:1057F00003CFF090605BE09003D0F090605CE0FC41
:105800009003D1F090605DE0FB9003D2F090605E79
:10581000E0FD9003D3F090605FE0FA9003D4F09045
:1058200003CFE08C082508F8E43400F98D08E8255A
:1058300008F8E93400F98B08E82508F8E93400F99C
:105840008A08E82508FAE93400FBEE24F7F582EF30
:105850003400F583E02AF0A3E03BF08C08EE24F955
:10586000F582EF3400F583E02508F0A3E03400F082
:10587000EE24FBF582EF3400F583E02401F0A3E091
:105880003400F0EE24FFF582EF3400F583E0F8A356
:10589000E0F9E8496042906000E0C333FCE433FD86
:1058A000E82CF582E93DF583E02AF0A3E03BF09097
:1058B0006000E0FA9003D1E0FCEAC333FAE433FB82
:1058C000E82AF8E93BF9E8244AF582E93400F5834F
:1058D000E02CF0A3E03400F09003CFE070119003CF
:1058E000D2E0700BA3E07007A3E070030259E78ECB
:1058F000828F83A3A3A3A3A3E0F8A3E0F9EE240D72
:10590000F582EF3400F583E028F8A3E039F9EE24BE
:105910000BF582EF3400F583E8F0A3E9F0EE240FF5
:10592000F582EF3400F583E4F0EE241CF582EF34C9
:1059300000F583E06401701EEE2420F582EF340050
:10594000F583E0F8A3E0F9EE241DF582EF3400F5CD
:1059500083E8F0A3E9F09003CAE06052EE241CF55E
:1059600082EF3400F5837401F0EE246AF582EF349F
:1059700000F583E07038EE2474F582EF3400F5838F
:10598000E0702BEE2480F582EF3400F583E0701E8A
:10599000EE2420F582EF3400F583E0F8A3E0F9EE81
:1059A000241DF582EF3400F583E8F0A3E9F0906060
:1059B00062E07003025A9A8E828F83E0F8A3E0F9C6
:1059C000E82406FCE93400FDE82402FAE93400FB8F
:1059D000120D0F8E828F83E02412F8A3E03400F9B9
:1059E00088828983025AA49003D1E0603AEE240FA2
:1059F000F582EF3400F583E4F0EE241CF582EF34F9
:105A000000F583E064017040EE2420F582EF34005D
:105A1000F583E0F8A3E0F9EE241DF582EF3400F5FC
:105A200083E8F0A3E98020EE24FDF582EF3400F551
:105A300083E02401F0A3E03400F0EE241DF582EFB2
:105A40003400F583E4F0A3F0EE240BF582EF34008C
:105A5000F583E0F8A3E0F98E828F83A3A3A3A3A329
:105A6000E0687003A3E0696003025956EE240FF565
:105A700082EF3400F583E060128E828F83A3A3A3AC
:105A8000A3A3E064057002A3E0600B7908EEFAEFCF
:105A9000FB120BE38071793E80F3EE241DF582EF5B
:105AA0003400F583E4F0A3F0906060E0C0E0EE2401
:105AB00069F582EF3400F583D0E0F09003CFE0F891
:105AC000EE2467F582EF3400F583E028025C07904E
:105AD000055AE064017035120DC3EE2467F582EFBC
:105AE0003400F583E070069060607480F0EEFAEFA9
:105AF000FB120CCDE96401600E120C01120CC7E917
:105B000064016003120C737F0E0217D1EE2483F53B
:105B100082EF3400F583E06004780480027800E5C9
:105B20000CC398F912091F8A0A8B0BEA450B60A770
:105B3000EE2483F582EF3400F583E070048A088B4D
