:020000040000FA
:0600000002011D021D7E3D
:03002B00022407A5
:03005300021DF497
:03006B000223D598
:10008300021C6FE5C754F84401F5C779012200004B
:100093000080FB120086B90003020107E47921788E
:1000A30008B800028004F709D8FCE479297802B87B
:1000B30000028004F709D8FCE490028178CA79072A
:1000C3008002F0A3D8FCD9FA781A90014D7A01BACC
:1000D30000028007E493A3F608DAF990094AAA829A
:1000E300AB8390014E783479048015E493A3AC82FA
:1000F300AD838A828B83F0A3AA82AB838C828D83A8
:10010300D8E9D9E775823E758397740312012F7579
:100113008291758300740012012F75D00075813FA1
:10012300751881751902759F00020096C09FF59F8F
:10013300E473D09F22D083D082C09FE493C0E07445
:100143000193C0E0740293F59F2201FF0000B40005
:100153000028002800283075A000A000A000A000FF
:1001630000080008E001F00010001000100010006B
:100173001000100050005000500010001000D00775
:100183000000000000000F003075070010000100A0
:1001930081FF0000FF7F069D068506FF02020A0A13
:1001A300025000A0000000E803020690010000EFE7
:1001B3008F0202900100009B0902F68F010000B23A
:1001C300020202900100009C0902F88F010000C89E
:1001D300020202900100009D0902FA8F030000CA87
:1001E300020202900100009E0902FC8F030000CB73
:1001F300020202900100009F0902FE8F010000A08D
:1002030009FF0100FF20020690010000EC8F0202AB
:1002130090010000040A020090000000000002F4B4
:100223008F0300001803B50CB50CB50CB50CB50C59
:10023300B50CB50CB50CB50CB50CB50CB50CB50CB3
:100243008B0FA30F850FFFFF0202020202020202BD
:1002530002010D0000001001020690010000E98F69
:10026300020290010000470A021690010000750780
:10027300020290010000480A021490010000018F5D
:10028300020290010000490A021290010000E58E6B
:100293000202900100004A0A021090010000918EB0
:1002A3000202900100004B0A020E90010000A38E8F
:1002B3000202900100004C0A020C900100007F8EA4
:1002C3000202900100004D0A020A900100006D8EA7
:1002D3000202900100004E0A022690010000F38EF4
:1002E3000202900100004F0A022E90010000500A02
:1002F30001E803053F10FF0001307503020106000A
:1003030000000000000000000000000000000000EA
:100313000000000000000000000000FFFF06008056
:100323000CE803140953696D706C65424C455065C4
:10033300726970686572616C051250002003020ACD
:10034300000201050302F0FF53696D706C652042E2
:100353004C45205065726970686572616CAB13001F
:1003630000B1130A436861726163746572697374DF
:100373006963203100024368617261637465726965
:100383007374696320320008436861726163746542
:100393007269737469632033001043686172616327
:1003A300746572697374696320340002436861720F
:1003B3006163746572697374696320350002069022
:1003C300010000E68F020290010000620B021C9004
:1003D300030000340902F28F010000630B02029054
:1003E300010000740B021E90010000350902F28F18
:1003F300010000750B020290010000860B022090A1
:10040300020000360902F28F010000870B020290FE
:10041300010000980B022290000000370902F48FBC
:10042300030000380902F28F010000990B020290C9
:10043300010000AA0B0224900400003E0902F28F7F
:10044300010000AB0B104B6579205072657373206C
:10045300537461746500020690010000E38F020289
:1004630090010000440C022C90000000430902F4A8
:100473008F030000440902F28F010000450C1201B2
:10048300383F8C03120138568C03120138858C03D4
:10049300120138BE8C03120138E68C0312013814A2
:1004A3008D031201382B8D03120138428D03120183
:1004B30038588D031201387F8D03120138928D0352
:1004C300120138A88D03120138BB8D03120138E0E5
:1004D3008D031201381E8B021201381D8C0212018A
:1004E30038528C02120138738C02120138838C0249
:1004F300120138A48C02120138B08D021201387D2A
:100503008E02120138F08E02120138768F02120128
:1005130038B98F02120138F08F0212013876900237
:10052300120138489102120138A69102120138BE15
:1005330091021201383892021201383B92021201E1
:10054300383E9202120138E59202120138FD9202FE
:100553001201382D93021201384D93021201383BD8
:100563009402120138F194021201385FD30212018E
:100573003887D302120138B5D302120138ECD30203
:1005830012013854D4021201389DD402120138E802
:10059300D40212013826D50212013863D5021201A2
:1005A3003891D50212013838D60212013842D602E8
:1005B3001201384FD60212013882D6021201384492
:1005C300D70212013850D70212013868D70212013C
:1005D3003872D7021201386C94031201387A9403EB
:1005E300120138929403120138AA94031201388E2F
:1005F3009F011201382CA001120138A4A00112019D
:1006030038B9A101120138F3A1011201389CA201EA
:1006130012013871A301120138D5A4011201382C3B
:10062300A501120138B3A5011201389AA6011201DE
:1006330038E7A60112013875A70112013899A701FD
:100643001201386EA901120138AFA901120138D184
:10065300A90112013852AA011201383CAB0112015F
:100663003802AC01120138D9B602120138ABB70215
:1006730012013854B80212013897B8021201382413
:10068300B902120138B0B90212013891BA0212014B
:1006930038C0BA02120138BCBB0212013804BC02D2
:1006A30012013806BD021201384ABD021201387028
:1006B300BD02120138D99503120138ADED021201C2
:1006C30038C3ED02120138E9ED0212013811EF02CD
:1006D3001201381BEF0212013874F0021201387450
:1006E300F102120138AAC902120138B7CA02120173
:1006F30038EBCA021201382DCB02120138E7CC02C3
:10070300120138319001120138949001120138D945
:100713009101120138E991011201380C9201120181
:1007230038579201120138FC9201120138F29301F9
:10073300120138BC94011201383496011201387643
:1007430096011201381497011201386197011201C1
:10075300388797011201387599011201387A990186
:100763001201385B9B01120138AF9B011201381152
:100773009C01120138399C01120138DD9C011201E0
:10078300389F9D01120138D09D01120138D39D017C
:100793001201381B9E011201385D9E01120138C4FB
:1007A3009E011201380080031201381380031201E5
:1007B300382C8003120138778003120138528103E9
:1007C300120138E181031201382C82031201382C03
:1007D3002400120138382400120138712400120158
:1007E30038B624001201386D2500120138F32500B4
:1007F300120138582600120138842600120138BD30
:100803002600120138D12800120138AD2A00120146
:1008130038982C00120138CF2D001201382F3000E8
:100823001201381B31001201386132001201386E97
:1008330033001201388B3300120138C33300120125
:1008430038DD3300120138453400120138DF380037
:10085300120138803900120138D13900120138F8F9
:100863003900120138463A00120138643A00120185
:1008730038B83A00120138913B00120138183D0094
:10088300120138A03D00120138E5BD02120138EF14
:10089300BD02120138B6BE0212013805BF021201B1
:1008A3003829BF0212013884BF02120138BCBF02CB
:1008B300120138E4BF0212013814C1021201383F99
:1008C300C1021201386AC102120138B9C102120110
:1008D30038CFC10212013815C2021201384FC202C9
:1008E30012013891C202120138D9C202120138151D
:1008F300C30212013863C302120138ACC3021201EE
:1009030038D6C302120138FBC302120138B8E90218
:1009130012013882EA021201386EEB02120138E446
:10092300EB0212013826EC0212013853ED021201D8
:100933003851F3011201387AF30112013893F301AC
:10094300120138D8F401120138B6F501120138D575
:10095300F50112013862F601120138A5F601120100
:1009630038F2F70112013891F80112013810FB0136
:10097300120138A7FB011201387BFC011201385D1B
:10098300FD01120138C9FE011201385CFF01120199
:10099300388A8F03120138F38F031201384790030B
:1009A3001201386E90031201384AE102120138B77E
:1009B300E10212013802E202120138F7E2021201E7
:1009C30038F3E302120138DDE4021201383E770006
:1009D3001201388077001201385A78001201383337
:1009E30079001201382E7A001201380D7B001201B2
:1009F30038797B00120138407C00120138AB7C004F
:100A0300120138127D001201383D7D00120138AE0B
:100A13007D00120138417E00120138AA7E001201C6
:100A230038BF7E00120138077F00120138207F0093
:100A3300120138857F00120138887F001201389E29
:100A4300F802120138C6F80212013804F902120141
:100A530038C2F9021201382DFA0212013849FA029A
:100A630012013871FA02120138A1FA02120138B0E8
:100A7300FA021201382AFB0212013850FB0212015A
:100A83003837AE01120138C2AF011201385EB1012D
:100A930012013824B2011201386BB201120138B2CB
:100AA300B201120138D0B20112013812B30112019E
:100AB3003828B30112013874B301120138ACB30101
:100AC300120138DFB30112013830B4011201389A30
:100AD300B40112013894B70112013836B901120179
:100AE300387CB901120138B3BA0112013810BB01C5
:100AF30012013885BB01120138D9BB011201380636
:100B0300BC0112013831BC01120138FD9E021201F1
:100B1300381A9F02120138A7A402120138A9A502AC
:100B230012013823A702120138D1A7021201380794
:100B33003E00120138503E001201387D3E00120182
:100B430038B03E00120138BD3E00120138C93E00E4
:100B5300120138DB3E00120138B03F001201380E9B
:100B63004000120138434000120138DF41001201F6
:100B7300381942001201388742001201382C430011
:100B8300120138E843001201386744001201382B80
:100B930045001201383A4500120138BB45001201E5
:100BA300385A46001201388C460012013827470094
:100BB300120138854700120138BF4700120138403F
:100BC3004800120138094900120138B249001201E4
:100BD30038394A00120138914A00120138F24A00AA
:100BE3001201381B4B00120138D14B001201381B84
:100BF3004D001201385E4D001201387B4D00120189
:100C0300389A4D00120138E54D001201380A4E00A2
:100C1300120138334E00120138A24E00120138E49B
:100C23004E00120138E84F001201388250001201C1
:100C3300384E51001201386751001201385C950299
:100C4300120138AF9502120138BB95021201389098
:100C53009602120138B79602120138F29602120177
:100C6300385E9702120138929702120138CB97022D
:100C7300120138E397021201383C980212013855E9
:100C830098021201389E9802120138B1980212019B
:100C930038CB9802120138E19802120138FD99020B
:100CA3001201380E9B021201385B9C02120138407C
:100CB3009D02120138F57F001201386BE601120123
:100CC300389FE6011201380AEA0112013854EB0198
:100CD3001201381EEC01120138A8ED01120138830C
:100CE300EE01120138BDEE01120138E0EE011201EE
:100CF3003822EF011201382BEF0112013875EF0191
:100D03001201387FEF011201382BF001120138FF75
:100D1300F00112013853F101120138B5F10112014A
:100D23003808F20112013837F20112013876F20164
:100D3300120138F66400120138506D001201385662
:100D43006D00120138097300120138EF76001201A9
:100D5300387EF102120138F4F1021201380AF2026C
:100D630012013847F2021201387FF202120138FCF5
:100D7300F20212013837F302120138B2F302120100
:100D830038EEF302120138F7F30212013803F402CA
:100D93001201381DF40212013842F40212013858CC
:100DA300F40212013881F402120138E4F402120150
:100DB300389DCE02120138B0CE02120138CACE02DB
:100DC300120138F3CE0212013836CF021201387500
:100DD300CF02120138B3CF0212013818D002120128
:100DE300382DD00212013838D00212013845D00212
:100DF3001201385CD0021201386AD0021201387530
:100E0300D00212013881D00212013894D0021201AB
:100E1300389FD002120138C2D0021201386BD102BE
:100E23001201387BD10212013895D102120138B276
:100E3300D102120138CED102120138F3D1021201CC
:100E430038FDD10212013811D20212013830D20218
:100E530012013891D20212013897D2021201389D41
:100E6300D202120138A3D202120138AFD202120108
:100E730038E2D202120138E1D80112013863D901F4
:100E83001201380CDA0112013854DB011201386205
:100E9300DD0112013848DE011201387DDE01120145
:100EA300389FDE0112013848DF0112013818E101D1
:100EB30012013841E101120138B9E101120138EBA5
:100EC300E101120138F8E10112013843E201120194
:100ED3003867E201120138B8E401120138C2E501B2
:100EE3001201381EE601120138CDBC01120138DEB1
:100EF300BD01120138C2BE01120138CCBE0112017C
:100F030038EEBE01120138FABE011201389EC0014B
:100F1300120138CBC001120138E1C1011201383688
:100F2300C20112013885C3011201385AC4011201EA
:100F330038B6C40112013821C50112013856C50162
:100F430012013899C50112013863C8011201387BB7
:100F5300C8011201380CC9011201381AC901120162
:100F63003867C90112013875C901120138E1C90195
:100F73001201385CCA01120138B3CA0112013800E8
:100F830080021201382280021201383382021201D8
:100F930038F284021201381C8602120138DA860202
:100FA300120138C68702120138868A03120138AB50
:100FB3008A03120138218B03120138BCAF021201DC
:100FC30038C5AF02120138CEAF02120138A6B00203
:100FD30012013857B20212013887B202120138B235
:100FE300B202120138E2B2021201380DB302120149
:100FF3003841B3021201386DB302120138B0B302A3
:10100300120138DBB30212013822B402120138771D
:10101300B402120138B9B40212013813B502120135
:10102300383EB5021201388DB502120138BDB50242
:10103300120138E8B50212013816B6021201383926
:10104300B6021201386296031201388E960312011A
:1010530038BB9603120138C59603120138D596039F
:1010630012013823C4021201382DC4021201386E52
:10107300C402120138B7C402120138F1C4021201CA
:101083003847C50212013868C50212013871C5021A
:10109300120138C5C502120138EEC502120138F833
:1010A300C50212013866C602120138F6C6021201E1
:1010B3003851C7021201387FC70212013807C8022C
:1010C30012013846C8021201387BC8021201388D5A
:1010D300C802120138ACC802120138B5C8021201A5
:1010E300387CC902120138A19103120138C6860364
:1010F300120138FC86031201383087031201387D50
:1011030088031201384395031201385995031201DC
:1011130038639503120138AD9503120138DF960346
:10112300120138A9DC02120138BCDC021201387D3D
:10113300DD02120138BCDD02120138D9DD021201D1
:101143003812DE021201385FDE0212013891DE022C
:10115300120138C8DE02120138D1E0021201383D13
:10116300E102120138989203120138BB9203120173
:1011730038EA9203120138029303120138449303AD
:1011830012013898FB02120138BDFB02120138E745
:10119300FB0212013896970312013899510012018C
:1011A300386353001201380E5500120138B9550047
:1011B300120138395600120138C25600120138EBB9
:1011C3005600120138A45A00120138245B001201A0
:1011D300382F5C00120138695C00120138AA5C00E8
:1011E300120138F15D00120138475E001201389098
:1011F3005E00120138E75E00120138355F0012010C
:1012030038635F001201387B5F00120138606000B1
:101213001201389660001201384561001201385CF2
:1012230061001201388E61001201382B6300120134
:1012330038BF6300120138FD6300120138C9FF0291
:10124300120138AC7F00120138EB7F00120138DA4B
:10125300FF021201388D93031201389D930312018B
:1012630038B293031201386694031201389F900336
:101273001201382491031201388891031201387C3A
:10128300FE021201389EFE02120138FFFE02120115
:101293003811FF0212013861FF021201389FFF0269
:1012A300120138A2FF021201389FE502120138B37E
:1012B300E5021201382DE60212013811E70212018C
:1012C30038E8E8021201384DE902120138A4E902B4
:1012D300120138F87F001201389D84031201381C73
:1012E30086031201387D8603120138C38603120177
:1012F30038F28D03120138448E03120138B78E037E
:10130300120138248F0312013856820312013880E8
:1013130082031201384F83031201382B8403120115
:1013230038F3A702120138BFA80212013800A9023C
:101333001201385EA902120138B2A9021201381053
:10134300AA02120138A6AA02120138AEAB02120198
:101353003838AD02120138D6AD021201383DAE0263
:1013630012013854AE0212013873AF021201384B26
:10137300CB01120138C7CE0112013853D00112013B
:1013830038A3D001120138BDD0011201383DD1017B
:1013930012013843D30112013834D701120138073F
:1013A300D802120138A1DA02120138CADB02120193
:1013B3003874DC0212013814F50212013859F502AF
:1013C30012013876F5021201382CF6021201387F29
:1013D300F6021201384FF70212013865F8021201C2
:1013E30038B78803120138FC880312013850890387
:1013F300120138D589031201384D8A03120138D3FB
:10140300FF01120138ABFF02E066701008A3E0662B
:10141300700A08A3E066700408A3E06622C3E79697
:101423000809E7960809E7960809E79622C3E096B4
:1014330008A3E09608A3E09608A3E09622C008C399
:10144300E096F50808A3E096420808A3E096420850
:1014530008A3E09645087001D3D00822080808EADB
:10146300C0E0EBC0E086F0E7A4FA180986F0E7A431
:101473002AFA180986F0E7A42AFA180986F0E7A4DD
:101483002AFA1986F0E7A4FBE5F02AFA190886F090
:10149300E7A42BFBE5F03AFA190886F0E7A42BFB47
:1014A300E5F03AFA18180986F0E7A4C5F02BFBE437
:1014B3003AFA1908E7C5F0C6A426F6E5F03BFBE4C3
:1014C3003AFA1886F0E7A4F6E5F00826F6E43B08B6
:1014D300F6E43A08F6D0E0FBD0E0FA22E4CFC0E02D
:1014E300E4CEC0E0E4CDC0E0E4CCC0E075F020C3BE
:1014F300E633F608E633F608E633F608E633F6187D
:101503001818EC33FCED33FDEE33FEEF33FFC3EC81
:101513009709ED9709EE9709EF97191919400FFFEE
:10152300EC97FC09ED97FD09EE97FE191906D5F026
:10153300BEECF709EDF709EEF709EFF7191919D022
:10154300E0FCD0E0FDD0E0FED0E0FF22601608080A
:1015530008C6C313C618C613C618C613C618C613BF
:10156300C6D5E0EA22700908080822601618181880
:10157300C6C333C608C633C608C633C608C633C691
:10158300D5E0EA22E627F60809E637F60809E63742
:10159300F60809E637F622E026F608A3E036F60851
:1015A300A3E036F608A3E036F622E026F008A3E02F
:1015B30036F008A3E036F008A3E036F022C3E6973E
:1015C300F60809E697F60809E697F60809E697F696
:1015D30022C3E096F008A3E096F008A3E096F00893
:1015E300A3E096F022E056F608A3E056F608A3E03F
:1015F30056F608A3E056F622E056F008A3E056F0AC
:1016030008A3E056F008A3E056F022E0F608A3E0B2
:10161300F608A3E0F608A3E0F622E6F008A3E6F056
:1016230008A3E6F008A3E6F022E0FAA3E0FBA3E0B8
:10163300FCA3E0FD22EAF0A3EBF0A3ECF0A3EDF0B2
:1016430022CAC0E0E6F0A308DAFAD0E0FA22CAC060
:10165300E0E0A3C582CCC582C583CDC583F0A3C515
:1016630082CCC582C583CDC583DAE6D0E0CA22C366
:10167300E498F8E499F91216B38026C3E49AFAE4DD
:101683009BFBE920E7E91216B3E498F8E499F92201
:10169300C3E498F8E499F91216B3E498F8E499F9D5
:1016A300C3E49AFAE49BFB22EB20E7CFE920E7E0CF
:1016B300B90010BB0008E88AF084F8AAF022E4FB22
:1016C300C8FA22EB70227B10C833C8C933C9335020
:1016D30007C39AC3DBF280069A50012ADBEAC833B8
:1016E300F4C8C933F4C9FA2275F008E4C833C8C989
:1016F30033C933C99AC99B5004C92AC93BD5F0ECF5
:10170300FBC833F4C8E4C9FA22600D08C6A2E71384
:10171300C618C613C6D5E0F322600C08C6C313C6A9
:1017230018C613C6D5E0F422700422600D18C6C390
:1017330033C608C633C6D5E0F41822251810AF08FF
:10174300F518400215198008F51840021519D2AF93
:1017530022C0D0251810AF08F518500205198008CB
:10176300F51850020519D2AFD0D0222518F58210F2
:10177300AF08F518400215198008F518400215192D
:10178300D2AF851983222518F582E43519F5832212
:10179300E4732518C582C0E0E51934FFC583C0E0B2
:1017A300E518C3958224F810AF088583198582183C
:1017B3008008858319858218D2AFCEF0A3E520F087
:1017C300A37808E608F0A3DEFAEFF0A3E58124FA94
:1017D300F8E608F0A3E608F0A3E608F0A30808E695
:1017E30008F0A3E608F0A315811581D0E0FED0E050
:1017F300F8158115811581E8C0E0EEC0E0222518B7
:10180300C582C0E0E51934FFC583C0E0E518C39580
:101813008224F910AF08858319858218800885838F
:1018230019858218D2AFCEF0A3E520F0A37808E69D
:1018330008F0A3DEFAEFF0A3E58124FBF8E608F055
:10184300A3E608F0A30808E608F0A3E608F0A3154A
:10185300811581D0E0FED0E0F815811581E8C0E064
:10186300EEC0E022851983851882E0A3FEE0A3F58C
:10187300207808E0A3F608DFFAE0A3FFE0A3C0E0C6
:10188300E0A3C0E0E0A3C0E0E0A3C0E0E0A3C0E0C9
:1018930010AF08858218858319800885821885838F
:1018A30019D2AFD083D0820201358519838518827E
:1018B300E0A3FEE0A3F5207808E0A3F608DFFAE052
:1018C300A3FFE0A3C0E0E0A3C0E0E0A3C0E0E0A387
:1018D300C0E010AF088582188583198008858218B7
:1018E300858319D2AFD083D08222C0D02518C58278
:1018F300C0E0E51934FFC583C0E0E518C395822431
:10190300F310AF08858319858218800885831985AC
:101913008218D2AFC8F0A3E9F0A3EAF0A3EBF0A3D7
:101923007908E709F0A3D8FAECF0A3EDF0A3EEF001
:10193300A3EFF0A3D0E0F0A3D0E0F0A3D0E0F0A3B6
:10194300E520F0A3E5F0F0A322851983851882E052
:10195300C0E0A3E0F9A3E0FAA3E0FBA37808E0F674
:1019630008A3DFFAE0FCA3E0FDA3E0FEA3E0FFA3EE
:10197300E0C0E0A3E0C0E0A3E0F5D0A3E0F520A33E
:10198300E0A3F5F010AF08858319858218800885D8
:101993008319858218D2AFD082D083D0E0F8D0E00B
:1019A3003274048006740280027401C0E0F40412ED
:1019B300176ED0E01216442274048004740280006F
:1019C300CCC0E0EDC0E0E518C39CCCAD1950011DBF
:1019D30010AF068C188D1980068C188D19D2AF1292
:1019E3001651D0E0FDD0E0FC22D083D082E9C0E0E4
:1019F300E493A3C386F0C5F095F0F908E493A386B6
:101A0300F0C5F095F0700BE493A3C3994005E90486
:101A13008002A3E475F002A42582F582E5F0358304
:101A2300F583D0E0F9E493A3C0E0E493C0E022D0CF
:101A330083D082ECC0E0EDC0E0E493A3FCE493A385
:101A4300FDED4C600D121A7EEC24FFFCED34FFFD1E
:101A530080EFE493A3FCE493A3FDED4C600D121A15
:101A6300BDEC24FFFCED34FFFD80EFD0E0FDD0E0C2
:101A7300FCE493A3C0E0E493C0E022C0E0C3E4939A
:101A830096087401939618400FE4936670080874DF
:101A93000193661870007019A3A3C3E493960874A6
:101AA30001939618A3A3400DD0E0D0E0D0E0021A32
:101AB3006EA3A3A3A3A3A3D0E022C0E0C0F088F049
:101AC300E4936670080874019366187000A8F0A385
:101AD300A3700BD0F0D0E0D0E0D0E0021A6EA3A345
:101AE300D0F0D0E02274F5121801EAFEEBFFEE24E9
:101AF30034F8EF3400F988088909EE2435121C20E4
:101B0300F8EE2437121C20F50AEC850AF0A4FCAA8F
:101B1300F0850AF0EDA42AFDE82CF8E43DF97A25D6
:101B23007B001216B3EA850882850983F05407F80F
:101B33007401B800028004C333D8FCC0E0E013137F
:101B430013541FF8EE28F8EF3400F9E8245DF5820A
:101B5300E93400F583D0E0F8E05860088508828511
:101B63000983801DEE2436121C20F5F0EA84A8F0C8
:101B7300EE28F8EF3400F9E82438F582E93400F56B
:101B830083E0F97F040218AD74F5121801EAFEEB45
:101B9300FFEE2434121C20C0E0EE2435F582EF342E
:101BA30000F583D0E0F08E828F83A3A3A3A3A3E0E9
:101BB300FAA3E0FB8E828F83A3A3A3A3A3A3A3E033
:101BC300FCA3E0FDECC39AF50AED9BF50BEE248034
:101BD300F508EF3400F509850882F583E0640170A8
:101BE3002BEE2481F582EF3400F5831219BF121C0A
:101BF300297402121754E960137CFB7D04EEFAEF9B
:101C0300FB120BE3850882850983E4F0AC0AAD0B74
:101C1300EEFAEFFB121AE81223C7021B86F582EFD6
:101C23003400F583E022C082C0838518828519833E
:101C3300E0F8A3E0F9C3EA9CEB9D500BC3EC98EDED
:101C430099401279018010C3EA98EB9940F5C3ECEF
:101C530098ED9950EE7900D083D08222EAC39CFAA2
:101C6300EB9DFB22008521878522C622C0E074EF0D
:101C73001218ED759B00906182E0A2E64003021DFD
:101C830030E591A2E64003021D307591BF9003C277
:101C9300E064057008120D81120D8D8003120D870B
:101CA300752100120DF9E99003C3F07900120DEDCF
:101CB300120B537A017B009003C1E0F91210BD901F
:101CC3007803E064426003021D7990055CE014F040
:101CD3006003021D79C2AF121CDD00782AD0E0F642
:101CE30018D0E0F6E59F5407F97005908F6F8003D5
:101CF300908F6B780812160EE9C4C0E07829E65578
:101D030008F50808E65509F509740B780812171C3D
:101D1300D0E02508F8906270E0A2E740F8E8C3330A
:101D2300906272F0906270E0D2E0F08049E0A2E548
:101D33005024E591A2E5501E7591DF9003C2E06443
:101D43000D70139003E4E004F064287002E4F07A69
:101D530000E0F9120E6B906181E0A2E35009E5E91E
:101D6300A2E3500375E9F7A3E0A2E75009E591A2C6
:101D7300E7500375917F7F0402194CC0E0C0D0C0C7
:101D830082C083906183E0A2E05009E5BFA2E050E6
:101D93000375BFFEE0A2E15009E5BFA2E150037560
:101DA300BFFDE0A2E25009E5BFA2E2500375BFFB0D
:101DB300E0A2E35009E5BFA2E3500375BFF7E0A239
:101DC300E45009E5BFA2E4500375BFEFE0A2E5507C
:101DD30009E5BFA2E5500375BFDFE0A2E65009E5C0
:101DE300BFA2E6500375BFBFD083D082D0D0D0E06E
:101DF30032C0E074F21218EDE5A7A2E4500FE5A19A
:101E0300A2E4500953A7EF75A1EF121E48E5A7A25C
:101E1300E5500CE5A1A2E5500653A7DF75A1DFE568
:101E2300A7A2E15009E5A1A2E1500375A1FDE5A731
:101E3300A2E2500CE5A1A2E2500653A7FB75A1FB59
:101E43007F0102194C74F81218017521019003C225
:101E5300E0640670077A007B00120D69A2AFE433D9
:101E6300FED2AF9003C8E0640170187A207B009023
:101E730003C1E0F91211477A207B009003C1E0F916
:101E83001210C3906182E0D2E6F090055BE060211E
:101E930085C62280169003C7E064017008E5C65426
:101EA300F84405F5C653BEFC121C68740165216035
:101EB300E4EEA2E092AF7F010218AD00008E238F03
:101EC30024858228858327851882851983E0CEA3FC
:101ED300E0CF852882852783EBC9EAC8EDCBECCA1E
:101EE30075F010C3E833C8E933C9EA33CAEB33CB1F
:101EF300C3EA9EF526EB9FF525B35004AB25AA262E
:101F0300EC33CCED33CDD5F0DAAE23AF242274E934
:101F130012180174FA12173EEAFEEBFF8C088D09C2
:101F23009003C2E024F7C394055006908FD7022094
:101F330038120CE58A0A8B0BEA450B700302203535
:101F4300120D9F8A0C8B0D120D9FEA650C7003EB2B
:101F5300650D60ECEEFCEFFD851882851983AA827E
:101F6300AB83120DA5850A82850B83A3A3780C127C
:101F7300160E908FBF780C1215E885188285198389
:101F8300781412160E908FBF78141215E8780C7916
:101F930014121420501F780C79141215C0908F5707
:101FA300780C1214404047850C10850D11850E12D4
:101FB300850F138041851410851511851612851719
:101FC300137810790C1215C0908F577810121440A3
:101FD300501C7510007511007512007513017810EF
:101FE30079141215C07810790C1215878008908F18
:101FF300D7781012160E74097810121568908FC7CF
:10200300780C12160E7810790C1214DF9003C2E0CC
:102013006408600AE064066005E06405701C908F44
:102023009378101214405012908F5B781012159A07
:102033008008908F83781012160E85088285098395
:10204300781012161D74061217547F100218AD74FF
:10205300F7121801120DB7900559E0640170109042
:102063006245E4F0A3F053F4F343FE0C5390F312F0
:102073000D57E5C654804449F5C6E59E547F64492F
:1020830070F8906185740FF0900557E0F47002A327
:10209300E0602C750801750900900557E078081277
:1020A300172BE508F4FAA3E0600814600A14600C27
:1020B300800DEA52808008EA52908003EA52A079A8
:1020C300007F020218AD74F7121801E9FE90242470
:1020D300E493F46008E493F9120B35800953C68046
:1020E300E59E547F70FA120D5D900559E06401700E
:1020F30003120B6B900557E0F47002A3E0602A759E
:102103000801750900900557E0780812172BAA08F3
:10211300A3E0600814600A14600C800DEA4280801A
:1021230008EA42908003EA42A0120CE58A088B0970
:10213300A808A909E8496017E5E170FCE82414F54B
:1021430082E93400F583E0F874FF68600288E17483
:10215300016E700A7A019003C1E0F9121111022095
:10216300C474F11218018A088B098C0A8D0B740F41
:10217300121789780C12160E908FBF78081215E883
:10218300908FBF780C1215E87808790C1214205040
:10219300157808790C1215C0908F577808121440DF
:1021A300401579018013780C79081215C0908F5768
:1021B300780C12144040EB79007F080218AD74EDDF
:1021C3001218018A088B098C0A8D0B741312178954
:1021D300780C12160E908FBF78081215E8908FBFF7
:1021E300780C1215E8780C7908121420401178083D
:1021F300790C1215C0AA08AB09AC0AAD0B80227585
:1022030010007511007512007513017810790C1206
:1022130015C078107908121587AA10AB11AC12AD4E
:10222300137F0C0218AD908FBF780812160E8A82A6
:102233008B8378081215FB7F040218AD74F512180E
:10224300018C828D83780812160E8A828B8378081C
:102253001215D4122293C3E098F0A3E099122285B9
:10226300401E908FDF780812160E8A828B837808BF
:102273001215AD8E828F83E02420F0A3E0344EF05C
:1022830080A4F08E828F83C3E09420A3E0944E2237
:10229300EA2404F8EB3400F9E8FEE9FF8C828D832D
:1022A300A3A3A3A3E0F8A3E0F98E828F832274F59E
:1022B300121801E9FE900511E0FAA3E0FBEEC33327
:1022C300F8E433F974D528F582748E39F583E02A5E
:1022D300F508A3E03BF50978081219A8908FDB12E3
:1022E300162C121EC074021217548A088B098C0A0A
:1022F3008D0B7410780812154FAA08AB097F0402DE
:1023030018AD74F11218018A0C8B0D8C0E8D0F749D
:102313000F121789E0FAA3E0FB7411121789E0F595
:1023230008A3E0F5097413121789E0FEA3E0FF7810
:10233300081219A8EA2401F508EB3400F509E4F5BD
:102343000AF50B780C790812145F908F67780812DE
:10235300160E780C790812145FAA0CAB0DAC0EADF7
:102363000F121EC074021217548B09EA4509600448
:102373007A0180027A00EC2AFCED3400FDECF8EDE2
:10238300F97A717B021216B388088909E4F50AF514
:102393000B8E828F83780812161DECF8EDF97A7193
:1023A3007B021216B38A088B097405780812172B5F
:1023B3008E828F83A3A3A3A3E508F0A3E509F07F8F
:1023C300080218ADC082C083E9906000F0D083D0CA
:1023D3008222C0E074F21218EDA2AFE433FED2AF52
:1023E300E589A2E04006E589A2E150031212977540
:1023F3008900758900C2C5751A00EEA2E092AF7F0D
:102403000102194CC0E0C0D0E8C0E0E5A8D2AFC2D9
:10241300C7751A00A2E792AFD0E0F8D0D0D0E0326F
:10242400FFFFFFFFFFFFFFFFC082C083E9900A03A5
:10243400F00226B074F7121795E99002E0F07C18C8
:102444007D037AFF7BFF12085F9002E174FFF0A323
:10245400F0A3E4F0A3F079051207E79002E0E0F9B5
:1024640012070F7A7D7B08120A450233BE74F412F8
:1024740017958A088B09EB548060309002E0E0F9EC
:102484001210A58A0A8B0BAE0AAF0BEE4F60138EA7
:10249400828F83E064B070031207FFEEFAEFFB1241
:1024A4001093AA08E5096480FB80047A007B00028B
:1024B400267F74F212179574FC12173EEAFEEBFFA6
:1024C40074121217891238A5EE4F7003022559743D
:1024D40002121789EEF0A3EF1228BAECF0A3ED1262
:1024E40028BAAA82AB83120709E9F50A706AE508DB
:1024F400450960648E828F8312388BEE4F60567A62
:10250400067B001210F98A0C8B0DA80CA90DE84962
:102514007005750A13804188828983E4122566EE6A
:10252400F0A3EF1238B6E508F0A3E509F09002E64F
:102534001225ED9002E67005123368801B123356A3
:102544008003EAFCEBFD8C828D831225ED70F38C05
:10255400828D8380E3750A02A90A74041217540257
:102564003AA5F0A312385CA32274F2121795890AD3
:10257400E975F017A4FEAFF09002E5E4F09002E3F1
:102584001225ED600A1210FF9002E3E4F0A3F0EECE
:10259400FAEFFB1210F98A088B09EA4509602FEE5D
:1025A400FCEFFD79001210819002E3E508F0A3E549
:1025B40009F07B0080081225D7E4F0A3F00BEBC3ED
:1025C400950A40F2E50A9002E5F079008002791359
:1025D400023AA5EB75F017A4F8A9F09002E3E028FD
:1025E400FAA3E0398A82F58322122FFAEA4B227485
:1025F400F4121795740C121789123880FEE9FF75CE
:102604000800750900800CE5082401F508E5093483
:1026140000F509C3E5089CE5099D503285080A8543
:10262400090B7403780A12172BEA250AF8EB350B09
:10263400F988828983A3A3A3A3A3A312343DEE65DF
:102644000A7003EF650B70BFE8FAE9FB80047A00B7
:102654007B00802774F41217957900EAA2E0501BDE
:1026640075083C75098F78081219A87C047D007AD6
:10267400057B0A1207E174021217547F04021867DB
:10268400C082C0839002E61226B7601C88828983C8
:10269400A3A3E06A7003A3E06B8882898370E8A334
:1026A400A3A3A3122FF680047A007B00D083D082E8
:1026B400020135123B8BE8492274EE12179574FC23
:1026C40012173EEAFEEBFF851882851983E4F0A316
:1026D400F0EE2402123348EE2405123863EE24048B
:1026E400F50EEF122C6FE024FE603924FC604624C2
:1026F400FE605224FE605E24FE70030227D024FE96
:10270400700302283424FE700302284324FE70035D
:1027140002285224FC700302286124FE700302285C
:10272400700228AD9002FF7417F0A3E41228C212BD
:1027340004870228AD851882851983AC82AD831283
:10274400080502287D851882851983AC82AD831221
:10275400080B02287D850C08850D0974021217895F
:10276400AC82AD83850882850983122FF612072D6A
:102774008A0C8B0DAC0CAD0DEC4D603BE4F50CF507
:102784000D780C1219A8750CFF750D02780C12192E
:10279400A8750C00750D03780C1219A8740812178B
:1027A400891219BF123D07121754E9F50C700B1268
:1027B4002FEC12049F800F750C0185088285098314
:1027C4001228B0123368850C08022880740212178C
:1027D40089AC82AD83850C82850D83122DC1603C4A
:1027E400850C82850D83A3A31219BF7510FF751183
:1027F4000278101219A875100075110378101219B7
:10280400A874081217891219BF123D07121754E948
:10281400F509700B122FEC1204A5800F75090185C0
:102824000C82850D831228B0123368850908804C08
:10283400851882851983AC82AD83120811803A858C
:102844001882851983AC82AD83120817802B8518F2
:1028540082851983AC82AD8312081D801C85188281
:10286400851983AC82AD83120823800D8518828577
:102874001983AC82AD83120829E9F508E5086029BB
:102884008E828F83A3E06414601F850E82850F837C
:10289400E09002FF1228BA123B87900300123368BB
:1028A400E508A31228C2120481023257123B8B8519
:1028B400188285198322F085188285198322F07C79
:1028C400FF7D02850A82850B83122FFA2274EE1291
:1028D400179574FC12173E8A0A8B0B8C0E8D0FEA27
:1028E4002405F508EB3400F5097C157D0079007AA0
:1028F400FF7B02121081E5082402F50CE509123869
:102904006685188285198385821085831178101253
:1029140019A8850882850983A3A3A3A3122DB8123D
:1029240019A8E5082405F510E5093400F511781017
:102934001219A8850C82850D8312310D1207277494
:10294400061217548A108B11AE10AF11E50A240237
:10295400F50AE50B12334BEE4F7003022A8F8017F2
:102964007402121789122FF688828983EAF0A3EB86
:10297400F09002FFE004F09002FFE0C394054003EE
:10298400022A8FE4F510F51178101219A87510E8D1
:1029940075110278101219A87510E97511027810D2
:1029A4001219A874061217891219BF7910EEFCEFD8
:1029B400FD123D09121754E9705E8508828509836A
:1029C400A3A3A3A3A3A3A3E0F89002E8E06870483C
:1029D400122DB81219A87CE97D02E5082408FAE54D
:1029E400093400FB12107B7402121754E960298E1B
:1029F400828F83A3A3A3A3122FF69002FFE0F51006
:102A04007402781012172B74002510F582740335A4
:102A140011F583EAF0A3EBF0740212178985821092
:102A240085831178101219A874021217891219BF1C
:102A3400850C82850D8312301C1217548A108B1159
:102A4400AE10AF119002FFE0F5107511007402781A
:102A54001012172B74FF2510F874023511F98882AF
:102A64008983A31225ED700302295BE82403080877
:102A740008E93400F9EE4F600302296488828983EF
:102A840074FFF0A3F09002FFE004F09002FFE06016
:102A94000A122FEC1204937900800B8508828509B1
:102AA4008312335F790A02325774EA12179574FE5F
:102AB40012173E8C128D13EA2405F50CEB123CF12F
:102AC40012388F750800750900EA2402F510EB34FA
:102AD40000F51185188285198385820A85830B7810
:102AE4000A1219A8850C82850D83A3A3A3A3122C13
:102AF400851219A8E50C2405F50AE50D12334B7867
:102B04000A1219A8850C82850D83122C89120727B5
:102B140074061217548A0A8B0BEA450B7003022CB5
:102B24002AEA2404F50EEB122C6F12388F8A828B5A
:102B340083A3A3A3E0F9851082851183123000607A
:102B440003022C2AE4F514F51578141219A8751447
:102B5400E875150278141219A87514E97515027828
:102B6400141219A874061217891219BF7913AC0A22
:102B7400AD0B851082851183123D0F121754E9F5B0
:102B8400096003022C2A9002E8E0F8E5087009E0E5
:102B94002402900300F08014900300E0FCE8240277
:102BA400FAE43400FBEA6C7001EB707E850882AABB
:102BB40082122DAF9414122DA7506B850E82850FAF
:102BC40083E0C0E074012A122C66D0E0F005088589
:102BD4000E82850F83A3E0C0E085080A7401250AEC
:102BE400122C66D0E0F005089002E8122C85121928
:102BF400A87CE97D0285080A7401250A122C791241
:102C040017549002E8E02508F50874FF6E70037409
:102C1400FF6F6012EE24010EEF3400FFE508C39449
:102C2400145003022AD7E508601312300A85108273
:102C3400851183122FF612049979008014E5097026
:102C44000375090A851282851383EEF0A3EFF0A9B8
:102C54000974021217547F0E02186785080C740158
:102C6400250CF58274033400F583223400F50F85B6
:102C74000E82F58322FA74033400FB121069740285
:102C8400221238C522A3A3122C8F22123356FDEE32
:102C9400FAEFFB2274EE12179574FE12173E8C0E97
:102CA4008D0FEA2405F50CEB123866750B009002C3
:102CB400FFE4F0F50AEA2402F508EB3400F5098094
:102CC400449002FFE0FA9002E8E0F8122DAF941766
:102CD400122DA7400D9002FFE0F87416C3989002DD
:102CE400E8F0122DB81219A87CE97D0274002AFAC2
:102CF4007403122C7C1217549002E8E0F89002FF3F
:102D0400E028F0050AE50C2416F582E50D122C6A7C
:102D1400E0F8E50AC39850749002FFE0C39416509B
:102D24006BE50AC333F8E433F9E50C28FEE50D3905
:102D3400FF851882851983AC82AD838E828F8312BE
:102D44002DC17008750B0112335B8050E4F510F54A
:102D54001178101219A87510E8751102781012195B
:102D6400A87510E975110278101219A874061217C3
:102D7400891219BF7916850882850983123D0F12BD
:102D84001754E9F50B7003022CC580BB7CFF7D0250
:102D9400850882850983122FF61204ABA90B7402ED
:102DA400023259E99400C365D03322EA28F8E434A6
:102DB40000F9E822E0F51075110078102212324E65
:102DC4008A108B11AC10AD11EC4D2274EA121795D8
:102DD40074FC12173E8A0C8B0D8C128D13EA240599
:102DE400F50AEB12334B750800750900E50A240255
:102DF400F510E50B3400F511740212178985820E63
:102E040085830F780E1219A8850A82850B83A3A3E4
:102E1400A3A312386B1219A8E50A2405F50EE50BD5
:102E24003400F50F780E1219A885108285118312CB
:102E34003351122FF012072774061217548A0E8B7F
:102E44000FAE0EAF0FE50C2402F50EE50D3400F5C0
:102E54000F80388882898374FFF00508122C5F7410
:102E6400FFF005089002E8E0F50C750D00780C12EF
:102E740019A87CE97D0285080C7401250C122C79B3
:102E84001217549002E8E02508F508EE4F60278EEB
:102E9400828F83A3A3A3E0F9850E82850F8312306A
:102EA40000EE2404123863E96027850C82850D83C3
:102EB400122FE2123368E5087003022FC812300A99
:102EC400850E82850F83122FF61204B17900022F2A
:102ED400DDE4F514F51578141219A87514E87515C0
:102EE4000278141219A87514E975150278141219C8
:102EF400A874081217891219BF7911EEFCEFFD8529
:102F04000E82850F83123D0F121754E9F509709A4A
:102F1400850882AA82EA9002E87009E024049003FA
:102F240000F08025E0F8900300E0F514E82404FCA8
:102F3400E43400FDEC65147001ED7081122DAF9442
:102F440012122DA74003022EC1850C82850D83E049
:102F5400C0E074012A122C66D0E0F00508850C82CA
:102F6400850D83A3E0C0E0122C5FD0E012302585EC
:102F7400820C85830D780C1219A874041217891217
:102F840019BF85108285118312301C1217548A0CC4
:102F94008B0DAE0CAF0D85080C7401250CF8740371
:102FA4003400F9EE4F7003022E5785188285198379
:102FB400E088828983123025A3E0C0E0122C5FD020
:102FC400E0022E65E509700375090A850A82850BFE
:102FD40083122FE2123368A9097404022C57123B9E
:102FE4008B851282851383227CFF7D02850A82856C
:102FF4000B83122FFA22E0FAA3E0FB22122FFA121B
:103004000715E9F50922900300E0F5F0E50884903E
:1030140002FFF07CFF7D0222122C8F12073374040E
:1030240022F005088518828519832274EC121795FD
:1030340074FE12173E8A088B098C0E8D0FEA240544
:10304400FEEB3400FF123238EE2418123863EA45DE
:103054000B70030230DB12322150291231008A1026
:103064008B11EA4511606B7912AC0AAD0B850882AD
:10307400850983122FF6851082851183121793E92F
:10308400F50A7058E4F50AF50B780A1219A88E822D
:103094008F83A3A3E0F50A780A1219A8EE24031279
:1030A4003348780A1219A88E828F8312310D1208C0
:1030B4004D7406121754E9F50A7021850C82850DAA
:1030C40083E0701F850882850983122FF61204B7E6
:1030D4008011750A0E8009750A018004E50A6003EF
:1030E40012335B850C82850D83E0600479008002D5
:1030F400A90A74021217547F0C0218678518828576
:103104001983122FFA12083B22123356FD850882C6
:10311400850983122FFA2274EE12179574FE121782
:103124003E8A088B098C0C8D0DEA2405FEEB3400D5
:10313400FF750E00123238EA450B70030231FF129C
:103144003221502C1231008A0E8B0FEA450F604A4F
:103154007912AC0AAD0B850882850983122FF68596
:103164000E82850F83121793E9F50E600302320273
:1031740085088285098312343DAA0AFB1232137032
:10318400147AFF7BFF123213606C88828983E50A0C
:10319400F0A3E50BF0750A008007750E0E805F053D
:1031A4000A9002E5E0FAE50AC39A504AE50A75F086
:1031B40017A4FAABF088828983A3A3E02AFAA3E0D8
:1031C4003BFB8A828B83123351EC4D70D2750A1704
:1031D400750B00780A1219A8EEFCEFFD1210697441
:1031E40002121754EEFCEFFD850882850983122F25
:1031F400F61204BD8014750E098003750E01123B8E
:1032040083850C82850D83123368A90E022DA212C8
:10321400082F8A108B11A810A911E84922E5082467
:1032240002F508E5093400F5098A828B83A3A3A378
:10323400E0A2E522851882851983AC82AD838E8253
:103244008F8312324E8A0A8B0B22E0FAA3E0FB1220
:10325400072D2274041217547F0A02186774EC12A3
:1032640017958C108D11EA2405F50CEB1238667550
:103274000F00EA2402F50AEB12334B850A82F58328
:10328400122FF6123D95700302333D750E008071C6
:10329400850C82850D83E06401704F8E828F83A339
:1032A400A31219BF8E828F83A3A3A3A3E0F5127583
:1032B400130078121219A8EE2405F512EF3400F564
:1032C4001378121219A8122FF012084D740612174F
:1032D40054E9F50F6014850C82850D83E4F0123BEC
:1032E400838510828511831233687C177D007900F1
:1032F400EEFAEFFB1210818E828F83E4F0A3F005C7
:103304000E9002E5E0F8E50EC398501EE50E75F048
:1033140017A4F8A9F0850882850983A3A3123CFBAE
:10332400123351EC4D60030232948508828509837F
:1033340074FFF0A3F0E50F7006122FF01204C3A976
:103344000F0230FBF50AEF3400F50B22A3123356BB
:10335400FD22E0FCA3E0228E828F83123B8B850E3C
:1033640082850F83E8F0A3E9F022C082C083900233
:10337400E1E06A7003A3E06B70067AE17B028004EB
:103384007A007B000226B074F71217957F00EF7560
:10339400F003A4F8A9F0EC28F8ED39F988828983C0
:1033A400E06A7003A3E06B7006E8FAE9FB800B0F98
:1033B400EFC3940240D87A007B007F01021867743F
:1033C400F612179512397470067A007B008007A3F1
:1033D400A3A3A3122FF6023A3574F2121795E9FE4D
:1033E400740E12178912343D74101217891238A5FD
:1033F4008C828D83E06402703BA3123B87888289B0
:1034040083E0F50CA3E0F9A80C7402687003742936
:10341400697021750C02750D00780C1219A87808D2
:103424001219A8780A1219A8EEF912087174061272
:10343400175480027901023AA5E0F50AA3E0F50BDE
:103444002274E812179574FB12173EE985188285D9
:103454001983F08A168B178C0E8D0F741F1217891F
:103464001238A5742112178912343D742312178956
:1034740012388F7510008C828D83A3A3A3E0A2E47D
:10348400502A741D1217891231068A828B83E582B1
:1034940045837003023551790AAC0EAD0FAA16AB01
:1034A40017121793E9F5106003023554850E8285CF
:1034B4000F83E06402600302380AA3123B87850885
:1034C40082850983A3858212858313E50E2406F57C
:1034D4000CE50F12386688828983E0FAA3E0F9EAE2
:1034E4002400F514E439F5157814121A3201000099
:1034F400280128193507000228F035032860350013
:10350400291A37012942370229E93603291A3704CF
:1035140029AB370A38EE4F703E850C82850D831235
:103524003880FAE9FB8A828B83E0850A82850B83E3
:103534001238BC1219A88A828B83A3123356FDAAAF
:1035440008AB091210697402121754800375100E27
:10355400A9107405023CE975100B80F4EE4F70F766
:10356400850A82850B837401F0123895850882855B
:103574000983F07C007D00850E82850F83A3A3A3BD
:10358400A3E02401FAA3E03400FB12072DEA4B6008
:10359400418A828B83E02402F8850A82850B83E0CA
:1035A40028F0EA2404F8EB3400F988828983E08562
:1035B40012828513831238CE1238BC1219A88A825B
:1035C4008B83123350E5082403FAE5093400FB0227
:1035D4003547850A82850B83E02404F07C047D0052
:1035E4007900AA12AB13121081023554EE4F600316
:1035F40002355B123895FEA3E0FF850A82850B83B2
:103604007404F0EE850882850983F0EF85128285C3
:103614001383F07403121789AC82AD83EEFAEFFBC7
:1036240012396270030236C68A828B83A3A31238CE
:103634008B740112178985820E85830F780E1219F7
:10364400A874051217891219BF7CFF7DFF12073376
:1036540074041217548B0FEA450F7033850C82855E
:103664000D8312386B1219A8850C82850D83A31261
:1036740019BF7C027D007A047B9012055F740412EA
:103684001754E9700A740112178974FFF0A3F08EBD
:10369400828F83E064027034750C02750D00780C1F
:1036A4001219A88E828F83123350E5082404FAE598
:1036B40009122C7C121754850A82850B83E024029C
:1036C40080097401121789EEF0A3EFF07401121748
:1036D4008912387CF07401121789A3123874A3A3D9
:1036E400A3F0023554EE4F600302355B850C8285EE
:1036F4000D83123351AA16AB17120865850A828509
:103704000B837402F0EA850882850983F0851282AE
:10371400851383EB80CBEE4F600302355B12389543
:10372400F8A3E0F9850A82850B837402F0E8850822
:1037340082850983F0E985128285138380A3850C31
:1037440082850D83122FF6121063EAFC8C82A88204
:10375400C39EE49F404BE86E7001EF70047C0080D0
:103764001F851882851983E0FAEE2AFAEF3400FBEC
:10377400C3EA98EB94005003E08004EECCC39CFCB5
:10378400EC850A82850B83F08C0A750B00780A128B
:1037940019A8850C82850D83E02EFCA3E03F023539
:1037A40042751007023554EE4F600302355B850CF9
:1037B40082850D83123B87850A82850B837407F00B
:1037C4008882898312387412385CE08512828513EA
:1037D40083F0E82402FAE93400FB8A828B831238EE
:1037E400741238AD12387CA31238B6123885F0E85A
:1037F4002405F8E93400F988828983123885A312F4
:1038040038CEA30236E2741D12178912396D700383
:10381400023551123B87880C890DE8450D7003026F
:1038240035518E108F1178101219A8780A1219A820
:1038340078081219A87406121789E0F9AC0EAD0FB6
:10384400AA16AB17850C82850D8312179374061282
:103854001754E9F510023554F088828983A322F5C0
:103864000CEF3400F50D22E0F50E750F00780E22F2
:10387400E0850882850983221238D522123B8BE821
:10388400221238D5A3A322A3A3A3A3E0FEA3E0FF9F
:1038940022850C82850D83E0F8A3E0F5838882E01D
:1038A40022E0F508A3E0F50922A3A3F08A828B8322
:1038B400A322122568A3A322F08A828B831238C51F
:1038C40022E0F50A750B00780A2212385C1238D50A
:1038D40022E0850882850983A3A32274EE1217953A
:1038E40074FE12173E8A0A8B0BECFAEDFB74141269
:1038F4001789E0F510A3E0F5117416121789E0FE9C
:103904007418121789E0F50EA3E0F50F8518828567
:103914001983AC82AD83123962603E8518828519A1
:103924008312396D602FA3A31238A5E508450960F9
:1039340024780E1219A878101219A8EEF9AC0CAD5F
:103944000DAA0AAB0B8508828509831217937404A8
:103954001217548006790E80027901022DA21207F3
:103964002D8A0C8B0DEA450D22122FFA123974227E
:103974001207F98A828B83E58245832274F6121733
:103984009574FE12173E740C12178912388085182C
:1039940082851983F07401121789E9F0E4F508F5BA
:1039A4000978081219A875080278081219A874046D
:1039B40012178985820885830978081219A81208C4
:1039C4004D74061217547402121754806474F7125B
:1039D4001795EAFEEBFF89087C187D03120865EA57
:1039E4005402600BA908EEFAEFFB1207218002795A
:1039F400010233BE74F612179574FF6A700374FFE4
:103A04006B701C7B00EB75F003A4F8A9F0EC28F8AC
:103A1400ED39F9123A3A0BEBC39402501480E612D2
:103A240008358A088B09A808A909E8496003123AED
:103A34003A7F020218678882898374FF122566E43C
:103A4400F02274F61217951208358A828B83E58268
:103A540045836006A3A3E0FA80027A007B0080D14C
:103A640074F21217958A088B09ECFEEDFF740E129E
:103A74001789E0F50A123AAA701CEEFCEFFD7AFFF2
:103A84007BFF123AAA70047911801688828983E533
:103A940008F0A3E509F088828983A3A3E50AF079F5
:103AA400007F060218671208358A0C8B0DA80CA932
:103AB4000DE8492274EE121795EAFEEBFF8C088D8F
:103AC40009890C7412121789123B8774141217890E
:103AD4001233517416121789122FF6750D00EC4D1E
:103AE4006003023B7B7402650C6003023B768882B0
:103AF4008983123356F9EC2400F50EE439F50FEA04
:103B0400F4F8EBF4F9EC58F8E50F59F9E849705D6D
:103B1400E5082406F8E5093400F9880A890B888247
:103B2400F583122C8B1208658A108B11E50E651033
:103B34007004E50F65116042780E1219A8850A8297
:103B4400850B83122C8B12086B7402121754E9F53F
:103B54000D7027780E1219A8850882850983A3A3FE
:103B6400122C891208837402121754800D750D806B
:103B74008008750D0D8003750D0BA90D02325C8E46
:103B8400828F83123B8B22E0F8A3E0F92274E812BF
:103B9400179574E712173E851882851983EAF0A3F6
:103BA400EBF08C168D17890E7431121789E0F5121B
:103BB400A3E0F5137433121789E0F514A3E0F515A7
:103BC4007435121789E0F50F750800750900E509C9
:103BD40075F003A4F8A9F0851882851983123CFBBB
:103BE400E0F47003A3E0F47003023CD9EE2402F580
:103BF4000CEF123CF1E07003023CD985160A8517DC
:103C04000B780A1219A8AC14AD15AA12AB1312073B
:103C1400ED74021217548A0A8B0BEA450B700302E7
:103C24003CD9E4F510F51178101219A8740612178E
:103C34008985821085831178101219A874091217C6
:103C44008985821085831178101219A885128285BE
:103C54001383A3A3A3A31219BF7914AC0AAD0B8ECB
:103C6400828F83123D0F121754E97069850A828589
:103C74000B83A3A3A3A3123B8774021217891233E5
:103C840068850C82850D83E0A2E05018A90E7402A9
:103C9400121789AC82AD838E828F83122FF612079E
:103CA40045E94208850C82850D83E0A2E15026E5B2
:103CB4000FF50A780A1219ACA90E7403121789AC0D
:103CC40082AD838E828F83122FF612073F74011206
:103CD4001754E942080509E509C394025003023B5D
:103CE400D2A90874191217547F100218673400F50A
:103CF4000D850C82F58322E028FEA3E039FF8E8235
:103D04008F83227916850A82850B83122FFA120873
:103D14004774082274F2121795EAFEEBFF890B74BC
:103D240001650B600E7402650B70637901120A63FE
:103D3400E9705BEEFAEFFB123D956047750A00806F
:103D44000B7C177D007900121081050A9002E5E0D2
:103D5400F8E50AC3985021E50A75F017A4F8A9F00C
:103D6400850882850983A3A3E028FAA3E039FB8AA6
:103D7400828B831226B770C985088285098374FFF4
:103D8400F0A3F07C187D03EEFAEFFB12085F023A11
:103D9400A512082F8A088B09EA45092274F2121722
:103DA400958A088B09ECFEEDFF740E121789123404
:103DB4003D900A03E0F4603D7A097B0012108DEA1D
:103DC4004B60328A828B8374B1F0A3E41238AFA3C0
:103DD4001238ADA3E508F0A3E509123DFCEEF0A30B
:103DE400EF123DFCA3A3E50AF0A3E50BF0900A0350
:103DF400E0F9121099023AA5F08A828B83A3A3A357
:103E0400A3A322C082C0839061907404F0A3744879
:103E1400F0A3E4F09061807440F09061BC7407F00A
:103E24009061877469F09061B67416F07900120B92
:103E3400597902120B5F902424E493F46006E4930E
:103E4400F9120B357905120E4D024212C082C0835D
:103E5400E9540FF9906185E0696012E5C654804425
:103E640049F5C6E59E547F644970F8E9F053C6806D
:103E7400E59E547F70FA02421274F7121795E5A872
:103E8400FE53A87E120B41C2BA539AFEC289759B97
:103E940000C2C2120B4775A91175B905120B4DD298
:103EA400BA439A0174805E42A80247A0C082C083CC
:103EB400906181E4F0A302420F75E90075910075E9
:103EC400BF00020135C082C083906181E4F0A37415
:103ED400C0F0A3E4024211C082C08374F812173EFA
:103EE4009003C4124682E8497003023F929003C4CF
:103EF400E0544060237908851882851983AA82AB2F
:103F040083120C49851882851983AA82AB8312080F
:103F1400F59003C4E054BFF0E054806010790C7A4B
:103F24007D7B05120C499003C4E0547FF0E0A2E0CD
:103F340050087900123F9A54FEF0E0540260087968
:103F440001123F9A54FDF0E0540460087900123FD6
:103F5400A554FBF0E0540860087901123FA554F71A
:103F6400F0E0541060087902123FA554EFF0E054D9
:103F74002060087903123FA554DFF0A3E0540160E8
:103F84000D120B6B1209079003C5E054FEF0740880
:103F9400121754024212120B591208FB9003C4E088
:103FA40022120B5F1209019003C4E022C082C08375
:103FB400E9600514602A804F90619A7433F0A37409
:103FC40055F09061A0743AF0900559E064017009CD
:103FD400C2919003C67467802D9003C674618026D5
:103FE40090619A743FF0A3745AF09061A0747FF0CA
:103FF400900559E064017009D2919003C6747180F0
:10400400059003C6746AF0024212C082C083E9605C
:104014000B14600D14600F1460118020902428800C
:1040240015902429801090242A800B900559E0646F
:104034000160F390242BE493906186F002421274A1
:10404400EE12179574F412173E851882851983AC05
:1040540082AD8375838F7582B774041216519024D0
:104064002893F460030241D5907808E0C394025089
:10407400030241B57404121789AC82AD8375838F32
:104084007582167408121651F97AFF7BFF7FFF7E42
:10409400008982858210801874086E700302416A58
:1040A40074096E700302416A740A6E700302416AF5
:1040B400E510C333FCE433FD7404121789E5822C44
:1040C400F582E5833DF583E0F50EA3E0F50F8E0858
:1040D4007509007402780812172B74482508FC74BB
:1040E400783509FD8C828D83780812160E74087851
:1040F4000812154F85080C85090D8C828D8378086C
:1041040012160E7418780812154FE50C4508F508B8
:10411400E50DF509C3E50E9508E50F95098C828D2B
:1041240083780812160E8C828D83780812160E740A
:10413400187808401412154FE50C4508FCAD0DE540
:104144000EC39CFCE50F9D800F12154FE50C45082E
:10415400C3950EFCE50D950FFDC3EC9AED9B50063F
:10416400ECFAEDFBEEFF0EEEC39413500302409CF9
:1041740074FF6A700374FF6B602D8F0874027808F3
:1041840012172B7448124E2E74783509F58378086B
:1041940012160E851882851983E5822510F582E5AD
:1041A40083124BBBE508F009E9C3940450030240B1
:1041B4008D75080175090078081219A87402121780
:1041C40089AC82AD837A0A7B0912127374021217C6
:1041D40054740C1217547F0A021867C082C083906B
:1041E400618674D5F09061AE7468F0A3746AF0903F
:1041F400624574FBF0A304F053F4FD43FE02900502
:10420400597401F07900120B598003F0A3F0D083A4
:10421400D082020135C082C08375E1F190050EE0C1
:10422400604E14600814605214604A8052120B7776
:10423400900504E0F97A057B05120DCF908FAF123B
:10424400162C120E05908FC312162C120DDB90053E
:104254000FE0F9120DE77901120E41900502E024F6
:10426400161243A8748FF0A3740BF0790002421263
:10427400120B7D80BB120B8380B6120B8980B1793F
:104284001280EA74F412179575D90D9004F4E0A223
:10429400E0E4331313F8124314484401F5D97800C9
:1042A40012439240FB7800880874F5124E2E740471
:1042B40012439C40F275E1959004F4E0F97AF57BA1
:1042C40004120DD5900A25740BF0A3740B1243B796
:1042D4001243D71243CE12450F12431E780812160A
:1042E4000E908F7B780812159A908FBF780812155C
:1042F400E81243A2780812161D900502E024141255
:1043040043A87413F09003C27402F07F0402186788
:10431400900504E0C4333354C022900502E0F8A3AE
:10432400E0F5838882A3A32274F61217951244E061
:104334008AD9780012439240FB78008006124446E2
:10434400124592E8C39940F51244D212439240FBBD
:1043540078008008124E2A7405124592E8C39940E9
:10436400F375E195900A257417F0A3740B1243B703
:104374001243C112162C1243A2121638900502E001
:1043840024141243A87412F09003C202477D8808D3
:1043940074052508F58274051246EE9406229005EC
:1043A40002E0240EF8A3E01243AF223400F988821D
:1043B4008983221244F87411F0A3740B221243D798
:1043C4001243CE124513908FDF22F0A37429F0A379
:1043D400740B221243DB221243DF22F0A374B5F0E4
:1043E400A3740C2274F612179512443B124314441E
:1043F40002F5D9780012439240FB780080061244FB
:1044040046124592E8C39940F575E195900A251244
:104414004451F0A31244511243C412162C1243A265
:10442400121638900502E024141243A87414F09074
:1044340003C2740402477F900514E0F9740729F558
:10444400D922880874152508F5827405227423126C
:10445400445E12445EF0A3740B22F0A3740BF0A329
:1044640074232274F61217951244E074064AF5D99F
:10447400780012439240FB780080061244461245AD
:1044840092E8C39940F51244D212439240FB78005B
:104494008008124E2A7405124592E8C39940F375B8
:1044A400E195900A25741DF0A3740B1244EE124397
:1044B400C112162C1243A2121638900502E02414DD
:1044C4001243A87415F09003C2740302477F900549
:1044D4003412443E74044AF5D978002212443B90C5
:1044E4000504E0C4333354C0FA221244F874B5F01E
:1044F400A3740C221244FC2212450974B5F0A3746F
:104504000C124509221243DFF0A32212451322F0B4
:10451400900A3374B5F0A3740C1244FC74B5F0A380
:10452400740C1243DBF022C082C08312431EA3A387
:10453400A3A3E402420F74F7121795125070F87493
:104544000339F9E82405FAE93400FB8A828B8312E3
:104554004DDF88828983A3A3A3A3A3A3A3A3A3EC6E
:10456400F0A3EDF088828983A3A3A3A3A3A3A3E06C
:1045740024FFF8A3E034FFF98A828B83E8F0A3E9EF
:10458400F00247A08808745D2508F5827405124D71
:1045940006F5D90822EAFEEBFF9061D0E0F87480BA
:1045A400C398FAEE2483221245B1940422124BC913
:1045B400E0F5D90AEAC32274F6121795EAFEEBFF76
:1045C4009061D0E0707575D90E75D90375D9047AE8
:1045D400008A08EE250812513E248C12465440F1FC
:1045E4007A008A08EE250812513E24841245AB4015
:1045F400F175E1957908EE248C12464D2484124617
:10460400447C008C82AA82C3E49AF895E0F9EE28EF
:10461400F8EF39F9E8248BF582E9124D02C0E0EE97
:104624002A12513E24ABF582E9124BBBD0E0F00CC8
:10463400ECC3940840CD12470A80027900024780F7
:10464400FAEF3400FB120C3D221246447904EE22A8
:104654001245B1940822C082C08375D90275D9036A
:1046640075D90575E195EA2470F582EB12467FEA67
:104674002472F582EB12471C024212124BCC1246F2
:104684008622E0F8A3E0F92274F6121795EAFEEB0D
:10469400FF90055D74061246F81219A87C0179038F
:1046A400124A2412175475D90675D9037800124694
:1046B400DE40FB75E1959003C2E064087017EE24B8
:1046C40070F582EF12467FEE2472F582EF124BBB37
:1046D400E8F0A3E9F079010247808808745D2508B1
:1046E400F58274051246EE940522124BCCE0F5D9FE
:1046F40008E8C322F075085D75090578082275E19C
:10470400957904120E0BEE2470F582EF124BCC1245
:104714004686EE2472F582EF124BCCE8F0A3E9F062
:1047240079012274F6121795EAFEEBFF9061D0E04E
:104734007043790190055D740BF09003C2E0640747
:10474400701775085D75090578081219A87C0109A8
:1047540009124A241217547905740129F5D975D917
:104764000378008003124588E8C39940F875E19501
:1047740012470A8002790080037401F07F02021854
:104784006774F7121795EAFEEBFF75D90375D90321
:1047940075D90DEE24DE1247A51247027F010218D7
:1047A40067F582EF124D06F5D9227F03021867746C
:1047B40001250AF5D975D90378002274F5121795E5
:1047C4001248346004780480027800E8240BF8EA84
:1047D400C3984041750A0990055D7409F07908127F
:1047E400481D601475085D75090578081219A8122A
:1047F4004A1C121754750A0D1247B38003124588D8
:10480400E8C3950A40F775E1957904120E0B124935
:10481400997901800279008091EE24E3FCEF340061
:10482400FD7A5E7B05120C37850882850983E022B8
:10483400124599F8EF124DD3F583E02274F3121761
:10484400958A088B09124A2FFAE5082483F50AEBA6
:104854001248FE6004780480027800E82408F8EA2C
:10486400C39850030248F7750C0690055D740CF06C
:104874009003DFE090055EF07402C0E0F97CE07D17
:10488400037A5F7B05120C37D0E0F97CE27D0312DA
:104894000C37850A82850B83E0601C750A5D750BF5
:1048A40005780A1219A87C067903AA08AB09124AEA
:1048B40024121754750C0A7401250CF5D975D90303
:1048C40078008009880A745D250A12458EE8C3952C
:1048D4000C40F175E1957904120E0BE5082470F58E
:1048E40082E50912467FE5082472F582E50912473C
:1048F4001C800279007F050218673400F50B850AD5
:1049040082F583E02274F6121795EAFEEBFF124A51
:104914002FFCEE2483F8EF124A2A60047A04800202
:104924007A00EA2404FAECC39A405E7A0290055DA8
:10493400EAF0EE24F5F582EF1249A5601975085DD9
:1049440075090578081219A87C027903EEFA124A4F
:10495400241217547A0674012AF5D975D9037800FC
:104964008003124588E8C39A40F875E195EE2474F3
:10497400124992EE24801249921249997904120E36
:104984000BEE240D12470D80027900024780F58258
:10499400EF124B1522EE241DF582EF124B15A3F0F6
:1049A40022124D0690055EF088828983E02274F617
:1049B400121795124A2FFEEA2483F8EB124A2A6052
:1049C400047C0480027C00EC2404FCEEC39C404381
:1049D4007C0290055D7407F0EA24F6F582EB124937
:1049E400A5601575085D75090578081219A879037D
:1049F400124A241217547C0674012CF5D975D90374
:104A040078008003124588E8C39C40F875E19579E5
:104A140001800279000247807C097903EEFAEFFBFA
:104A2400120CA97402221243AFE0229061D0E0F884
:104A34007480C3982274F5121795E9FEA2AFE4338B
:104A4400F50AC2AF7F00EA246FF8EB3400F9800165
:104A54000F88828983E0FCEFC39C50188F08EA25F5
:104A640008FCEB3400FDEC246BF582ED124D026E74
:104A740070DE8010EA2CFAEB3400FB124BB5EE1218
:104A840049AB04F0E50AA2E092AF0247AE74F61215
:104A94001795A2AFE433FFC2AFEA246FF8EB1251CB
:104AA40040FCE9FD8C828D83E014F07E0080218E31
:104AB40008EA2508F8EB125140246CF582E9124DFE
:104AC40002C0E0E8246BF582E9124BBBD0E0F00EA3
:104AD4008C828D83E0F8EEC39840D4EA246E124BA6
:104AE400B874FF124B0AEFA2E092AF024780C08273
:104AF400C083E5A8F8C2AF124BB5E9124B0AE8A28D
:104B0400E792AF024212F0EA246AF582EB124B15E7
:104B140022124BCCE4F02274F21217958C828D830E
:104B2400A3A3A3A3E0541FF0EA2436124E778E8287
:104B34008F83E4F0F50C850C8285820AEC250AF853
:104B4400ED124DCFF583E0C0E0EA250AF8EB124BF5
:104B5400BFD0E0F0750D00850882850983E0F50A71
:104B6400750B00E50D780A12170CE50AA2E0502A2D
:104B7400E50C33333354F8250DC0E08E828F83E087
:104B8400F8EA28F8EB1251402438F582E9124BBBBD
:104B9400D0E0F08E828F83E004F0050DE50DC39420
:104BA4000840B4050CE50CC39405408A7F0602183E
:104BB40067EA246BF582EB124BCC223400F9E8242B
:104BC4005D124BC922F582E93400F5832274F61292
:104BD40017959003ECE0640170077A007B00024CA7
:104BE400FC7E009003F2E070F17401F0A3E4F0A302
:104BF400F090045204F0900455E4F0A3F0900458AB
:104C040004F09003F5E4124D139003FF04F09004B4
:104C140025E4F0908F8312162C9004081216389015
:104C2400040CE4F0A3F0A3F0900470F0900464F09A
:104C34009004597480F0A3E4F090045FF09004575A
:104C4400F09004DB124D0B9004E4F0900473F090A8
:104C540004C3F0A3F0908F8312162C9004C512168F
:104C640038908F8312162C9004C91216389004CFF2
:104C7400E4F09004D1F09004CDF09004E7124D0BD1
:104C84008E08745B124E2E7404124BBB74FFF00E2C
:104C9400EEC3940440EA7E008E82A88274FB28F559
:104CA400827404124D02C0E0744D28F5827404121B
:104CB4004BBBD0E0F00EEEC3940540DC7E008E8248
:104CC400A88274D628F5827403124D02C0E074D30E
:104CD40028F5827404124BBBD0E0F00EEEC39408A6
:104CE40040DC9003ECE004F0640170089003F4E00D
:104CF4009003EEF07AF07B03024780F582EF124DC9
:104D04000622124BCCE022124D13A3124D1322F0B3
:104D1400A3F0A3F0A3F022C082C083EA2403F582A7
:104D2400EB124D026008E4F09003EDE014F0900300
:104D3400ECE014F070069003EE74FFF08A828B832B
:104D4400A3A3E4F0900500E0700D9003EDE064018E
:104D540070057900120DED024212C082C0839003E7
:104D6400F3E4F09003F2F09003ECF0A3F0A374FFEB
:104D7400F075E1F1024212C082C08378007900909C
:104D840003F3E0600478F0790388828983A3A3A302
:104D9400A3E0F902421274F6121795EAFEEBFF1231
:104DA4000BEFEE2465F8EF124DCF124DDDEC4D60A4
:104DB400109003EE125068850882850983E4F0A3FD
:104DC400F0EEFAEFFB120CDF024780124DD32234CF
:104DD40000F988088909888222F583E0FCA3E0FDB4
:104DE4002274F7121795EAFEEBFF8E828F83A3A33A
:104DF400A3A3E0FA7B0012096DEEFAEFFB120C019B
:104E0400120CC10247A074F6121795780088087432
:104E1400D6124E2E740312499508E8C3940840ED47
:104E24009003D602477D880874352508F5822274DC
:104E3400F6121795EA240D124E77EC2403F8ED349C
:104E440000F988088909EC2407F8ED125140FCE9BF
:104E5400FD124E811216B38E828F83E8F0A3E9F01F
:104E6400124E811216B38B09EA45096003124E945F
:104E7400024780F8EB3400F9E8FEE9FF228C828DCA
:104E840083124686850882850983E0FAA3E0FB2223
:104E94008E828F83E02401F0A3E03400F02274F6C4
:104EA400121795EA242EF582EB3400124DDDEA2424
:104EB40070124E77780079FAECFAEDFB1216B38E85
:104EC400828F83E8F0A3E9F0780079FAECFAEDFB3D
:104ED4001216B38B09EA45096003124E9402478007
:104EE40074F0121795EAFEEBFF7410121789780814
:104EF40012160E120D998A0C8B0D8C0E8D0F908F3D
:104F040073780C12159A908FBF780C1215E8780CF0
:104F14001219A48E828F8312432112162C1221643B
:104F24007404121754E96003024FCC8E828F83E01D
:104F34002402F8A3E0125140FAE9FB8A828B8378B9
:104F4400081215AD908FBF780812160E8A828B83D3
:104F540078081215FBEE240BF582EF124BBBC082CE
:104F6400C0838E828F83A3A3A3A3A3E02401F8A309
:104F7400E03400F9D083D082E0687003A3E0697064
:104F84000479018045EE2407F8EF1243AF124E98DE
:104F9400EE24741251457014EE2475124FD370032D
:104FA400A3E06D70078A828B83124E98EE248012E0
:104FB40051457014EE2481124FD37003A3E06D7039
:104FC400078A828B83124E9879007F08021867FA49
:104FD400EF3400FB8A828B83E0FCA3E0FD888289A6
:104FE40083E06C2274F3121795125070FE74033927
:104FF400FFEE2404F50AEF3400F50BEE2465F50802
:10500400EF3400F5098010124DDF8508828509838D
:10501400E4F0A3F0125062850882850983124DDF03
:10502400EC4D6030EE2464124CFFF50C780C121930
:10503400ACEE2463124CFFF9EEFAEFFB120C2B7466
:1050440001121754E985088285098360BA124682E1
:10505400E84970077C007D001250620248F9850A15
:1050640082850B83E0FA7B0012092B229003EEE089
:10507400F875F004A4C8AAF02AF974F0282274F28E
:10508400121795EAFEEBFF890A740E121789E0FAEB
:10509400EE24621251456003025139124A2FF50C75
:1050A400EE2483124CFFFB600478048002780089AC
:1050B40008E928F8E412514024020808E93400F908
:1050C400E50C98E499A2D265D0334065EA70057581
:1050D4000B028003750B01EB60337509007808122D
:1050E40019A87A5D7B05120C7374021217547508A3
:1050F4005D75090578081219A8AC0AA90B124A2093
:105104001217547404250AF50A7C5D7D0574012583
:105114000AF5D9850BD97800800A8808EC124E2E3E
:10512400ED124592E8C3950A40F075E19579008047
:10513400067907800279FF024BB0F8EF3400F9E8F2
:1051440022F582EF124D06640122C082C0838003DF
:1051540012517CE9F874FF28190470F4ECFAEDFBA1
:10516400024212C082C083800312517CE9F874FFAA
:1051740028190470F40242128C828D83E08A828B97
:1051840083F08C828D83A3AC82AD838A828B83A3CC
:10519400AA82AB832274F4121795E9FF7E008A0871
:1051A4008B0978081219EC00040D3653CC51E851E0
:1051B400FD51125227523C52585271528352B152ED
:1051C400C052DC52F852165374016F70128C828DE7
:1051D40083E0C394035008E0900AEFF00253547E36
:1051E4001802535474026F70F68C828D83125A76AF
:1051F400900AF0E8F0A3E980E274016F70E18C8218
:105204008D83E0C3940250D7E090077E80CD740173
:105214006F70CC8C828D83E0C3940550C2E09007FC
:105224007F80B874016F70B78C828D83E0C3940261
:1052340050ADE090078080A374106F70A2750810C1
:105244008E0978081219A87A817B07125E41121719
:105254005402535474016F70868C828D83E0C3941E
:105264000240030251E3E09007910251DF74016FA1
:1052740060030251E38C828D83E0900AF3808D7485
:10528400046F60030251E3908FDB780812160E8DD1
:10529400838C82780812143040030251E38C828D8F
:1052A4008312162C900793121638025354EF60039E
:1052B4000251E31212011211F502535474016F608A
:1052C400030251E38C828D83E0C3940240030251B4
:1052D400E3E09007920251DF74016F60030251E32F
:1052E4008C828D83E0C3940A40030251E3E0900A68
:1052F400F20251DF74016F60030251E38C828D83EB
:10530400E024F9C3940A40030251E3E0900AF40252
:1053140051DF74016F60030251E3900825E0F88CBB
:10532400828D83E0900825F0E87025E06401702008
:105334008084C3EA9424EB9400501374026F700EBB
:105344008C828D83125A8112056BE9FE80020E0E47
:10535400EEF902535E740E1217547F040218677438
:10536400F012179574CC12173E8C0A8D0B744412EC
:105374001789E0FE7420121789AC82AD8375838F80
:1053840075822474061216517420121789AC82ADEA
:10539400831211A7E9F508C3940A40030254BB75AC
:1053A400F006E9A4F5097426121789AC82AD837A54
:1053B4000E74201255077432121789E0FF900AEF19
:1053C400E06402700474018001E4F50D780D121993
:1053D400ACEEFDEFFCA908AA0AAB0B12122B740168
:1053E4001217547C147D007900740C121789AA8258
:1053F400AB83121081740C121789AC82AD837A10BE
:105404007424125507E970347C1079FF740C121758
:10541400891254FE7026741C121789AC82AD837AEB
:10542400047425125507740C121789AC82AD83EFEE
:10543400A2E0E433F9AA0AAB0B1205F585188285BC
:105444001983AC82AD837A0C74702508125B1E70CC
:1054540055851882851983AA82AB831211D77508E2
:1054640000E50875F003A4F8A9F08518828519836E
:10547400E58228F8E583125C62125A81EC4D601DC6
:1054840088828983A3A3E0F50E750F00780E1219A4
:10549400A8AA0AAB0B12085374021217540508E5A4
:1054A40008C3940440BBEFA2E1500C90077DE0F9DF
:1054B400AA0AAB0B12085974046E702A900AEFE022
:1054C40064027022900791E060047A0180027A00FD
:1054D40090077EE06004780480027800E84AF9AA24
:1054E4000AAB0B1206B5790074341217547F080204
:1054F400186779FF851882851983AA82AB831210F5
:10550400E1E9222509F91213692274F0121795EAC8
:10551400FEEBFF8C088D09750A0AE9600C1460091A
:1055240014602E14607F0255B41211E9E9F50AC320
:10553400940A507CE50845096076750E06750F00DF
:10554400780E1219A8EEFCEFFD125E3D121754807E
:105554005F750B00750E06750F00780E1219A8EE14
:10556400FCEFFDE50B75F00EA4F8A9F0749F28FA82
:10557400740739FB12107B7402121754E9601B85FF
:105584000B0AE50AC3940A5027E50845096021AAD5
:1055940008AB09A90A1211E38016050BE50BC394A5
:1055A4000A500D80AF1211EFE9F50AC3940A40D9ED
:1055B400A90A0254F174F41217958908750915742F
:1055C400FF6A700374FF6B70277E00AC087A027B5D
:1055D40000EEF91211C5E960037509000EEEC394DB
:1055E4000A40E8E50860497A197B12120A7580407E
:1055F400120A578A0A8B0BAE0AAF0BEE4F602E7C51
:10560400007D00EE2405FAEF3400FB8E828F8312B6
:1056140056B4500CAC087A027B001211C57509000F
:10562400E508600CEEFAEFFB1212198003750914F9
:10563400A90902535E74F2121795ECFEEDFF740E85
:10564400121789E0F50AA3E0F50B75081574FF6AD3
:10565400700374FF6B7021750900AC0AAD0BEEFA90
:10566400EFFBA9091211CBE960037508000509E5F0
:1056740009C3940A503580E2120A578A828B83E563
:1056840082458360237C007D00E5822405FAE5835E
:105694003400FB1256B45013AC0AAD0BEEFAEFFB18
:1056A4001211CB7508008003750814A908025C2A3E
:1056B400A3A3A3A3E0F91211A7E9C3940A22C08209
:1056C400C083900797EAF0A3EBF090077DE0FC7DA0
:1056D400007A237B0012056B90077DE0F91207CF57
:1056E400D083D08202013574EA12179574EC121734
:1056F4003E8A088B09EA240CF514EB3400F515EA0C
:10570400240AF510EB3400F511EA2405F50EEB3408
:1057140000F50FEA2409F50AEB3400F50BEA24033B
:10572400FEEB3400FF8A828B83A3A3E024FA700388
:10573400025A4924FD70030259791470030257D4A4
:1057440014601024FD70030259451470030259AC0F
:10575400025A52125A99604AE0F5838882125A76A4
:10576400880C890DE8450D6039851482851583E020
:10577400F50E780E1219ACEA240BF582EB3400F521
:1057840083E0F9850A82850B83125A810A0A0AEF9B
:10579400FB850C82850D8312179374011217540232
:1057A4005A52850A82850B831219BF9007931216E9
:1057B4002C1206077402121754E97003025A527924
:1057C40001850A82850B8312613F120601025A5237
:1057D4008A828B83A3858212858313E06003025936
:1057E4001D850E82850F83E0A2E0400302591D7CD3
:1057F4000E7D007900851882851983AA82AB8312F5
:105804001081E5082408F50AE5093400F50B850A3A
:1058140082F583125A9C6019750C06750D00780C7C
:105824001219A8850A82850B83E02410FCA3E0806A
:105834001A125A69EA4B7003025A52750C06750D16
:1058440000780C1219A8EA2405FCEB3400FD74025C
:10585400121789AA82AB83125E41121754850E82F5
:10586400850F83E0A2E25004D2F08002C2F0A2F0DD
:10587400E433F8740C121789E048F085108285111E
:1058840083125A9C6015851082851183E02410F8D8
:10589400A3E03400F9888289838003908FDF780C39
:1058A40012160E851082851183125A9C600F851082
:1058B40082851183E0F510A3E0F5118006751000D0
:1058C400751100850A82850B83125A9C600F850A24
:1058D40082850B83E0F50AA3E0F50B8006750A00C8
:1058E400750B00780C1219A478101219A8780A12F2
:1058F40019A88514828515831219BF850882850924
:1059040083A3125A7C740A121789AA82AB831211D8
:10591400DD740A121754125A5C125A997003025A0F
:1059240052125A877003025A52851282851383E0F9
:10593400FC790112613B8882850983121793025A0C
:1059440052125A5C125A997003025A52E0F5838833
:1059540082A3A3125A76890BE8450B7003025A52AC
:10596400850882850983A3E0FC790212613B888261
:10597400850B8380C67C007D00EA2404FAEB3400A6
:10598400FB8E828F83E0F91211A7E9F8C3940A40D1
:1059940003025A52AC10AD117A0475F006E8A4243F
:1059A40025F9121363025A52900792E0600C900A90
:1059B400F2E0F98E828F830257CB900AEFE07004F5
:1059C400790580EF125A698A0C8B0DA80CA90DE891
:1059D4002404F50CE93400F50D850882850983A3B8
:1059E400A3A3A3A3A3A3E0A2E05037E849605F8583
:1059F4000C82850D83E0F5086028850A82850B8377
:105A0400E05410701D740E121789AC82AD83E82423
:105A140005FAE93400FBA9081211A7E97004790317
:105A24008091AC0EAD0F850C82850D83E0F9126177
:105A34003B121225125A996015125A8760107C0085
:105A440079000259371206CDE970031211F5741466
:105A54001217547F0E0218678E828F83E0FAA3E038
:105A6400FB121237228E828F83E0FAA3E0FB120A24
:105A74005722E0F8A3E0F922A3A3A3A3A3E0FCA385
:105A8400E0FD22E0F5838882A3A3E0F8A3E0F9898E
:105A940009E8450922900797E0F8A3E0F9E84922CC
:105AA40074F412179574F212173EEAFE8C0B75F01B
:105AB40006E9A42420F508851882851983AC82ADF3
:105AC400837A0E125B1E70407C061254F670397491
:105AD4000C121789125A76E8F509E50B6005EE42B7
:105AE400098004EEF45209850982AA82E86A7001E9
:105AF400E96011740C121789EAF0A3E4126088A912
:105B040008121363790180027900025359AC82AD03
:105B1400837A0E75F006E9A42420F9121369E922A8
:105B240074F212179574E612173E890A8A088B09D3
:105B3400ECFEEDFF740C121789125B116003025B1B
