:020000040000FA
:0600000002011D021F9227
:03002B00021CDED6
:0300530002200880
:03006B00021CACC8
:10008300021E83E5C754F84401F5C7790122000035
:100093000080FB120086B90003020107E47921788E
:1000A30008B800028004F709D8FCE479297802B87B
:1000B30000028004F709D8FCE490028178EF790705
:1000C3008002F0A3D8FCD9FA781A90014D7A01BACC
:1000D30000028007E493A3F608DAF990096FAA8275
:1000E300AB8390014E78BB79048015E493A3AC8273
:1000F300AD838A828B83F0A3AA82AB838C828D83A8
:10010300D8E9D9E77582B77583A4740312012F75F3
:100113008291758300740012012F75D00075813FA1
:10012300751881751902759F00020096C09FF59F8F
:10013300E473D09F22D083D082C09FE493C0E07445
:100143000193C0E0740293F59F2201FFFF0A41630C
:1001530063656C20456E61626C65000002140041AA
:100163006363656C2052616E676500001010104177
:100173006363656C20582D436F6F7264696E61749D
:10018300650000416363656C20592D436F6F726492
:10019300696E6174650000416363656C205A2D4389
:1001A3006F6F7264696E61746500000235900100BF
:1001B300000790025790010000710902619003004B
:1001C30000A002022D900100007209025790010065
:1001D300008009025F900100008109022D90010057
:1001E3000083090257900100009009025D9000000E
:1001F30000A102022990030000A402022D90010035
:100203000093090257900100009109025B900000DE
:1002130000A202022990030000AA02022D9001000D
:1002230000A70902579001000092090259900000AB
:1002330000A302022990030000B002022D900100E6
:1002430000BB0912640401023590010000FE8F0215
:100253005790010000670A025390010000680A02E8
:100263002990030000B802026590010000690A02A8
:100273000202020202020202010D0000001001024A
:1002830035900100000190025790010000930A028B
:100293004D90010000BE02025790010000940A0233
:1002A3004B90010000018F025790010000950A0254
:1002B3004990010000E58E025790010000960A0262
:1002C30047900100006D8E025790010000970A02CB
:1002D30045900100007F8E025790010000980A02AA
:1002E3004390010000A38E025790010000990A0277
:1002F3004190010000918E0257900100009A0A027A
:100303003F90010000F38E0257900100009B0A0208
:100313003D900100009C0A01E803053F100B094BC7
:100323006579666F6264656D6F02010507020318E4
:1003330002180418544920424C45204B6579666FD6
:100343006200000000000000003E08000044084A6C
:1003530008FF0001307503020106000000000000E1
:10036300000000000000000000000000000000008A
:10037300000000000000FFFF0600800CE8030A04F1
:10038300120235900100001090025790010000A264
:100393000B022B9003000088040235900100001328
:1003A30090025790010000A30B022B9002000089DA
:1003B300040235900100001690025790010000A43A
:1003C3000B021F900100008A040229900300008B96
:1003D30004104B65792050726573732053746174F4
:1003E30065000235900100000D9002579001000056
:1003F300F50B021D900000009104022990030000F8
:100403009204022D90010000F60BFF0000B40000DF
:1004130028002800283075A000A000A000A000003C
:10042300080008E001F00010001000100010001098
:1004330000100050005000500010001000D00700C2
:1004430000000000000F003075070010000100815C
:10045300FF0000FF4A0B680B500BFF02020A0A025F
:100463005000A0000000E8030235900100000A904C
:100473000257900100007F0C022790010000C9047D
:10048300025790010000800C022590010000DF0458
:10049300025790010000810C022390030000E10445
:1004A300025790010000820C022190030000E20435
:1004B300025790010000830C021990010000840C84
:1004C300FF0100FF200235900100000490025790C5
:1004D300010000E80C025190000000000002299086
:1004E3000300002F0580118011801180118011807D
:1004F300118011801180118011801180118011569B
:10050300146E14501412013838CF0212013842CF3E
:100513000212013883CF02120138CCCF0212013804
:1005230006D0021201385CD0021201387DD00212CB
:10053300013886D002120138DAD00212013803D111
:10054300021201380DD1021201387BD10212013897
:100553000BD20212013866D20212013894D202126F
:1005630001381CD3021201385BD30212013890D335
:1005730002120138A2D302120138C1D30212013888
:10058300CAD30212013891D4021201383D9F0312DB
:10059300013858A4031201383992031201386F92BB
:1005A30003120138A39203120138F09303120138A6
:1005B3004CFF0112013862FF011201386CFF011276
:1005C3000138B6FF011201381CE3021201382FE390
:1005D30002120138F0E3021201382FE4021201384B
:1005E3004CE40212013885E402120138D2E402120B
:1005F300013804E5021201383BE50212013844E7F1
:1006030002120138B0E70212013834A00312013894
:1006130057A00312013886A0031201389EA00312CB
:100623000138E0A003120138F1F7021201384CF847
:100633000212013869F80212013878F902120138FE
:10064300C3F90212013887FA021201386DFB021254
:1006530001380789031201383E890312013855898D
:1006630003120138018A03120138A28A03120138E6
:100673001D8B03120138DFA20312013800A30312FA
:10068300013891A303120138439E031201389C9E43
:1006930003120138BA9E03120138D99E031201389E
:1006A300169F03120138249F031201382386031275
:1006B30001384886031201387286031201380FA5E8
:1006C300031201386153001201382B55001201380F
:1006D300D656001201388157001201380158001212
:1006E30001388A5800120138B358001201386C5C83
:1006F30000120138EC5C00120138F75D001201387A
:10070300315E00120138725E00120138B95F0012C7
:1007130001380F6000120138586000120138AF60D1
:1007230000120138FD60001201382B6100120138FC
:100733004361001201382862001201385E62001220
:1007430001380D6300120138246300120138566327
:1007530000120138F3640012013887650012013872
:10076300C565001201389CA303120138ADA303121F
:1007730001384DA403120138E92500120138D9FFCD
:100783000212013829A10312013839A103120138D9
:100793004EA10312013802A203120138419D031234
:1007A3000138C69D031201382A9E03120138FD9AAF
:1007B300031201381F9B03120138809B0312013877
:1007C300929B03120138E29B03120138209C03120F
:1007D3000138239C0312013812EC0212013826EC73
:1007E30002120138A0EC0212013884ED0212013822
:1007F3005BEF02120138C0EF0212013817F0021248
:100803000138F87F001201381090031201388F91DC
:1008130003120138F09103120138369203120138A2
:100823008EB90212013878BB02120138ECBC0212F5
:100833000138C1BD0212013847BE021201386ABE37
:1008430002120138A6BF02120138EDBF02120138AD
:100853002FC002120138659903120138B7990312A8
:1008630001382A9A03120138979A03120138C98D65
:1008730003120138F38D03120138C28E03120138BB
:100883009E8F03120138C5B10212013891B20212D0
:100893000138D2B20212013830B30212013884B3E4
:1008A30002120138E2B30212013878B4021201389D
:1008B30080B5021201380AB702120138A8B7021232
:1008C30001380FB80212013826B80212013845B9AF
:1008D3000212013828CC01120138A4CF01120138C9
:1008E30030D10112013880D1011201389AD101129D
:1008F30001381AD20112013820D40112013811D85B
:10090300011201380080031201387E80031201387E
:100913009B80031201382381031201384E81031295
:100923000138E08103120138F082031201382A945E
:10093300031201386F9403120138C3940312013870
:10094300489503120138C09503120138B297031278
:100953000138C99703120138F89703120138319807
:10096300031201385998031201388798031201388A
:100973009E9803120138B59803120138CB980312DD
:100983000138F298031201380599031201381B99B3
:10099300031201382E9903120138539903120138B7
:1009A300828C02120138818D02120138B68D021237
:1009B3000138D78D02120138E78D02120138088EF3
:1009C30002120138148F02120138E18F021201382A
:1009D300549002120138DA90021201381D9102126A
:1009E3000138549102120138DA9102120138AC92A3
:1009F300021201380A9302120138229302120138BB
:100A03009C93021201389F9302120138A29302129F
:100A13000138499402120138619402120138919409
:100A230002120138B194021201389F950212013863
:100A330055960212013874DE021201389CDE02124E
:100A43000138CADE0212013801DF0212013869DF00
:100A530002120138B2DF02120138FDDF021201383F
:100A63003BE00212013878E002120138A6E00212DC
:100A730001384DE10212013857E10212013864E1F5
:100A83000212013897E10212013859E202120138C9
:100A930065E2021201387DE20212013887E2021296
:100AA300013808A20312013816A2031201382EA23C
:100AB3000312013846A20312013801AF01120138B3
:100AC3009FAF0112013817B0011201382CB1011286
:100AD300013866B1011201380FB201120138E4B2D4
:100AE3000112013848B4011201389FB401120138D0
:100AF30026B5011201380DB6011201385AB601129A
:100B03000138E8B6011201380CB701120138E1B817
:100B13000112013822B90112013844B90112013816
:100B2300C5B901120138AFBA0112013875BB011200
:100B330001382CC802120138FEC802120138A7C9B5
:100B430002120138EAC90212013877CA02120138C7
:100B530003CB02120138E4CB0212013813CC021288
:100B630001380FCD0212013857CD0212013859CE88
:100B7300021201389DCE02120138C3CE021201388F
:100B830050FF0212013820F40212013836F4021227
:100B930001385CF40212013884F5021201388EF533
:100BA30002120138E7F602120138E7F702120138A0
:100BB300BFD402120138CCD50212013800D602127A
:100BC300013842D602120138FCD70212013868906C
:100BD30001120138CB900112013810920112013831
:100BE3002092011201384392011201388E920112B0
:100BF3000138339301120138299401120138F39417
:100C0300011201386B9601120138AD9601120138B9
:100C13004B9701120138989701120138BE970112C0
:100C23000138AC9901120138B19901120138929B34
:100C330001120138E69B01120138489C0112013868
:100C4300709C01120138149D01120138D69D0112C6
:100C53000138079E011201380A9E01120138529E83
:100C630001120138949E01120138FB9E01120138D2
:100C7300738B03120138868B031201389F8B031287
:100C83000138EA8B03120138C58C03120138548DE5
:100C9300031201389F8D03120138F4250012013825
:100CA3000026001201383926001201387E26001270
:100CB3000138352700120138BB27001201382028DC
:100CC300001201384C28001201388528001201381F
:100CD300992A00120138752C00120138602E001277
:100CE3000138972F00120138F73100120138E3322F
:100CF3000012013829340012013836350012013848
:100D03005335001201388B3500120138A535001216
:100D130001380D3600120138A73A00120138483B5A
:100D230000120138993B00120138C03B0012013810
:100D33000E3C001201382C3C00120138803C00129A
:100D43000138593D00120138E03E00120138683F76
:100D530000120138067900120138107900120138A7
:100D6300D77900120138267A001201384A7A001224
:100D73000138A57A00120138DD7A00120138057BAB
:100D830000120138357C00120138607C00120138F2
:100D93008B7C00120138DA7C00120138F07C0012DF
:100DA3000138367D00120138707D00120138B27DA2
:100DB30000120138EC7D001201386B7E00120138FD
:100DC300B97E00120138027F001201382C7F001215
:100DD3000138517F001201382BF002120138F5F06F
:100DE30002120138E1F10212013857F202120138FE
:100DF30099F202120138C6F302120138008002127E
:100E03000138298002120138428002120138878199
:100E130002120138658202120138848202120138FB
:100E2300118302120138548302120138A184021281
:100E33000138408502120138BF87021201385688F3
:100E4300021201382A89021201380C8A021201386F
:100E5300788B021201380B8C021201382C9C03127E
:100E63000138959C03120138E99C03120138109D47
:100E730003120138BDE7021201382AE802120138D1
:100E830075E8021201386AE90212013866EA0212B1
:100E9300013850EB0212013857A90212013899A9FF
:100EA3000212013873AA021201384CAB0212013844
:100EB30047AC0212013826AD0212013892AD02127C
:100EC300013859AE02120138C4AE021201382BAFF9
:100ED3000212013856AF02120138C7AF02120138AD
:100EE3005AB002120138C3B002120138D8B002124C
:100EF300013820B10212013839B1021201389EB112
:100F030002120138A1B102120138298303120138F8
:100F13005183031201388F83031201384D84031266
:100F23000138B88403120138D48403120138FC84D5
:100F3300031201382C85031201383B850312013853
:100F4300B58503120138DB8503120138C59F0112F1
:100F5300013850A101120138ECA201120138B2A3E9
:100F630001120138F9A30112013840A4011201381A
:100F73005EA401120138A0A401120138B6A4011223
:100F8300013802A5011201383AA5011201386DA5F5
:100F930001120138BEA50112013828A60112013839
:100FA30022A901120138C4AA011201380AAB0112A5
:100FB300013841AC011201389EAC0112013813AD66
:100FC3000112013867AD011201388DAD01120138EC
:100FD30065AE0112013861A0021201387EA002122F
:100FE30001380BA6021201380DA70212013887A897
:100FF3000212013835A902120138CF3F001201381D
:1010030018400012013845400012013878400012A0
:101013000138854000120138914000120138A34085
:1010230000120138784100120138D641001201380C
:101033000B4200120138A74300120138E1430012AA
:1010430001384F4400120138F44400120138B0450E
:10105300001201382F4600120138F34600120138FE
:101063000247001201388347001201382248001258
:101073000138544800120138EF48001201384D4935
:1010830000120138874900120138084A001201385A
:10109300D14A001201387A4B00120138014C001278
:1010A3000138594C00120138BA4C00120138E34C94
:1010B30000120138994D00120138E34E0012013835
:1010C300264F00120138434F00120138624F0012BD
:1010D3000138AD4F00120138D24F00120138FB4FD7
:1010E300001201386A5000120138AC500012013866
:1010F300B051001201384A5200120138165300123F
:1011030001382F5300120138C09602120138139789
:10111300021201381F9702120138F49702120138A4
:101123001B9802120138569802120138C298021213
:101133000138F698021201382F99021201384799A3
:1011430002120138A09902120138B999021201382A
:10115300029A02120138159A021201382F9A0212CA
:101163000138459A02120138619B02120138729CC0
:1011730002120138BF9D02120138A49E02120138E7
:10118300EAFF0212013848E7011201387CE7011235
:101193000138E7EA0112013831EC01120138FBECA6
:1011A3000112013885EE0112013860EF0112013896
:1011B3009AEF01120138BDEF01120138FFEF01125E
:1011C300013808F00112013852F0011201385CF0C5
:1011D3000112013808F101120138DCF10112013862
:1011E30030F20112013892F201120138E5F20112D4
:1011F300013814F30112013853F301120138BE66AA
:1012030000120138186F001201381E6F00120138E6
:10121300D17400120138B77800120138BAFB0212F8
:10122300013830FC0212013846FC0212013883FCFB
:1012330002120138BBFC0212013838FD02120138D8
:1012430073FD02120138EEFD021201382AFE02126A
:10125300013833FE021201383FFE0212013859FEF3
:10126300021201387EFE0212013894FE0212013886
:10127300BDFE0212013820FF02120138B2D9021258
:101283000138C5D902120138DFD90212013808DA50
:10129300021201384BDA021201388ADA02120138DB
:1012A300C8DA021201382DDB0212013842DB0212C6
:1012B30001384DDB021201385ADB0212013871DBAF
:1012C300021201387FDB021201388ADB0212013875
:1012D30096DB02120138A9DB02120138B4DB0212D9
:1012E3000138D7DB0212013880DC0212013890DCAE
:1012F30002120138AADC02120138C7DC02120138DB
:10130300E3DC0212013808DD0212013812DD021299
:10131300013826DD0212013845DD02120138A6DD4F
:1013230002120138ACDD02120138B2DD02120138BB
:10133300B8DD02120138C4DD02120138F7DD0212F2
:101343000138BED90112013840DA01120138E9DA55
:101353000112013831DC011201383FDE011201387C
:1013630025DF011201385ADF011201387CDF011237
:10137300013825E001120138F5E1011201381EE2BE
:101383000112013896E201120138C8E20112013854
:10139300D5E20112013820E30112013844E30112BE
:1013A300013895E5011201389FE601120138FBE689
:1013B30001120138AABD01120138BBBE0112013866
:1013C3009FBF01120138A9BF01120138CBBF01121F
:1013D3000138D7BF011201387BC101120138A8C1FE
:1013E30001120138BEC20112013813C301120138C0
:1013F30062C40112013837C50112013893C50112C5
:101403000138FEC50112013833C60112013876C610
:101413000112013840C90112013858C901120138BB
:10142300E9C901120138F7C90112013844CA01128E
:10143300013852CA01120138BECA0112013839CB30
:101443000112013890CB011201382EF40112013838
:1014530050F40112013861F60112013820F901122A
:1014630001384AFA0112013808FB01120138F4FB72
:1014730001120138F995031201381E96031201383F
:101483009496031201380FC10212013818C10212D7
:10149300013821C102120138F9C102120138AAC36D
:1014A30002120138DAC30212013805C402120138EC
:1014B30035C40212013860C40212013894C4021206
:1014C3000138C0C40212013803C5021201382EC507
:1014D3000212013875C502120138CAC50212013859
:1014E3000CC60212013866C60212013891C60212F6
:1014F3000138E0C60212013810C7021201383BC797
:101503000212013869C7021201388CC7021201386E
:10151300797F00120138A57F00120138D27F0012B3
:101523000138DC7F00120138EC7F0012013865A519
:1015330003120138E2FF01E066701008A3E0667051
:101543000A08A3E066700408A3E06622C3E79608CE
:1015530009E7960809E7960809E79622C3E0960883
:10156300A3E09608A3E09608A3E09622C008C3E090
:1015730096F50808A3E096420808A3E096420808F7
:10158300A3E09645087001D3D00822080808EAC0F2
:10159300E0EBC0E086F0E7A4FA180986F0E7A42A96
:1015A300FA180986F0E7A42AFA180986F0E7A42AAC
:1015B300FA1986F0E7A4FBE5F02AFA190886F0E7A2
:1015C300A42BFBE5F03AFA190886F0E7A42BFBE518
:1015D300F03AFA18180986F0E7A4C5F02BFBE43AB1
:1015E300FA1908E7C5F0C6A426F6E5F03BFBE43A92
:1015F300FA1886F0E7A4F6E5F00826F6E43B08F6C9
:10160300E43A08F6D0E0FBD0E0FA22E4CFC0E0E40D
:10161300CEC0E0E4CDC0E0E4CCC0E075F020C3E68A
:1016230033F608E633F608E633F608E633F6181819
:1016330018EC33FCED33FDEE33FEEF33FFC3EC97D1
:1016430009ED9709EE9709EF97191919400FFFEC68
:1016530097FC09ED97FD09EE97FE191906D5F0BE23
:10166300ECF709EDF709EEF709EFF7191919D0E0CF
:10167300FCD0E0FDD0E0FED0E0FF221216E6181801
:101683001812160E1216D5191919221216D5191970
:1016930019080808E618181820E7E012160E1216A3
:1016A300E618181822090909E719191920E7DC08AF
:1016B3000808E618181820E70302160E1216E61893
:1016C300181812160E1216E61818181216D519192C
:1016D3001922E4C397F709E497F709E497F709E4B4
:1016E30097F722E4C396F608E496F608E496F6081C
:1016F300E496F6226017080808C6A2E713C618C6C0
:1017030013C618C613C618C613C6D5E0E922601659
:10171300080808C6C313C618C613C618C613C618C6
:10172300C613C6D5E0EA2270090808082260161815
:101733001818C6C333C608C633C608C633C608C698
:1017430033C6D5E0EA22E627F60809E637F60809A4
:10175300E637F60809E637F622E026F608A3E03670
:10176300F608A3E036F608A3E036F622E026F008F2
:10177300A3E036F008A3E036F008A3E036F022C376
:10178300E697F60809E697F60809E697F60809E6E4
:1017930097F622C3E096F008A3E096F008A3E0963C
:1017A300F008A3E096F022E056F608A3E056F60808
:1017B300A3E056F608A3E056F622E056F008A3E0AD
:1017C30056F008A3E056F008A3E056F022E0F6082E
:1017D300A3E0F608A3E0F608A3E0F622E6F008A3E8
:1017E300E6F008A3E6F008A3E6F022E0FAA3E0FBA4
:1017F300A3E0FCA3E0FD22EAF0A3EBF0A3ECF0A34B
:10180300EDF022CAC0E0E6F0A308DAFAD0E0FA224B
:10181300CAC0E0E0A3C582CCC582C583CDC583F031
:10182300A3C582CCC582C583CDC583DAE6D0E0CA21
:1018330022C3E498F8E499F91218758026C3E49A50
:10184300FAE49BFBE920E7E9121875E498F8E499B8
:10185300F922C3E498F8E499F9121875E498F8E4C6
:1018630099F9C3E49AFAE49BFB22EB20E7CFE92042
:10187300E7E0B90010BB0008E88AF084F8AAF02278
:10188300E4FBC8FA22EB70227B10C833C8C933C902
:10189300335007C39AC3DBF280069A50012ADBEA6E
:1018A300C833F4C8C933F4C9FA2275F008E4C8335D
:1018B300C8C933C933C99AC99B5004C92AC93BD57E
:1018C300F0ECFBC833F4C8E4C9FA22600D08C6A2E1
:1018D300E713C618C613C6D5E0F322600C08C6C3C7
:1018E30013C618C613C6D5E0F422700422600D187F
:1018F300C6C333C608C633C6D5E0F418222518106C
:10190300AF08F518400215198008F518400215199B
:10191300D2AF22C0D0251810AF08F5185002051910
:101923008008F51850020519D2AFD0D0222518F53A
:101933008210AF08F518400215198008F518400207
:101943001519D2AF851983222518F582E43519F5C7
:101953008322E4732518C582C0E0E51934FFC583EB
:10196300C0E0E518C3958224F810AF088583198574
:1019730082188008858319858218D2AFCEF0A3E53B
:1019830020F0A37808E608F0A3DEFAEFF0A3E581E0
:1019930024FAF8E608F0A3E608F0A3E608F0A308A3
:1019A30008E608F0A3E608F0A315811581D0E0FE50
:1019B300D0E0F8158115811581E8C0E0EEC0E02282
:1019C3002518C582C0E0E51934FFC583C0E0E518DA
:1019D300C3958224F910AF0885831985821880087E
:1019E300858319858218D2AFCEF0A3E520F0A378C2
:1019F30008E608F0A3DEFAEFF0A3E58124FBF8E69E
:101A030008F0A3E608F0A30808E608F0A3E608F048
:101A1300A315811581D0E0FED0E0F815811581E88A
:101A2300C0E0EEC0E022851983851882E0A3FEE0C2
:101A3300A3F5207808E0A3F608DFFAE0A3FFE0A30C
:101A4300C0E0E0A3C0E0E0A3C0E0E0A3C0E0E0A307
:101A5300C0E010AF08858218858319800885821835
:101A6300858319D2AFD083D082020135851983854E
:101A73001882E0A3FEE0A3F5207808E0A3F608DFD0
:101A8300FAE0A3FFE0A3C0E0E0A3C0E0E0A3C0E06E
:101A9300E0A3C0E010AF088582188583198008850C
:101AA3008218858319D2AFD083D08222C0D0251863
:101AB300C582C0E0E51934FFC583C0E0E518C395CE
:101AC3008224F310AF0885831985821880088583E3
:101AD30019858218D2AFC8F0A3E9F0A3EAF0A3EB0B
:101AE300F0A37908E709F0A3D8FAECF0A3EDF0A38B
:101AF300EEF0A3EFF0A3D0E0F0A3D0E0F0A3D0E0AA
:101B0300F0A3E520F0A3E5F0F0A32285198385185F
:101B130082E0C0E0A3E0F9A3E0FAA3E0FBA3780826
:101B2300E0F608A3DFFAE0FCA3E0FDA3E0FEA3E0F8
:101B3300FFA3E0C0E0A3E0C0E0A3E0F5D0A3E0F59D
:101B430020A3E0A3F5F010AF0885831985821880E0
:101B530008858319858218D2AFD082D083D0E0F86C
:101B6300D0E03274048006740280027401C0E0F491
:101B730004121930D0E0121806227404800474028F
:101B83008000CCC0E0EDC0E0E518C39CCCAD19509B
:101B9300011D10AF068C188D1980068C188D19D273
:101BA300AF121813D0E0FDD0E0FC22D083D082E93D
:101BB300C0E0E493A3C386F0C5F095F0F908E4937D
:101BC300A386F0C5F095F0700BE493A3C399400589
:101BD300E9048002A3E475F002A42582F582E5F00E
:101BE3003583F583D0E0F9E493A3C0E0E493C0E048
:101BF30022D083D082ECC0E0EDC0E0E493A3FCE408
:101C030093A3FDED4C600D121C40EC24FFFCED345E
:101C1300FFFD80EFE493A3FCE493A3FDED4C600D83
:101C2300121C7FEC24FFFCED34FFFD80EFD0E0FDC0
:101C3300D0E0FCE493A3C0E0E493C0E022C0E0C39F
:101C4300E49396087401939618400FE49366700822
:101C530008740193661870007019A3A3C3E49396E4
:101C6300087401939618A3A3400DD0E0D0E0D0E010
:101C7300021C30A3A3A3A3A3A3D0E022C0E0C0F01F
:101C830088F0E4936670080874019366187000A8DE
:101C9300F0A3A3700BD0F0D0E0D0E0D0E0021C3072
:071CA300A3A3D0F0D0E02262
:101CAC00C0E074F2121AAFA2AFE433FED2AFE589F2
:101CBC00A2E04006E589A2E150031207C67589002F
:101CCC00758900C2C5751A00EEA2E092AF7F0102C1
:101CDC001B0EC0E0C0D0E8C0E0E5A8D2AFC2C7750B
:101CEC001A00A2E792AFD0E0F8D0D0D0E03274F571
:101CFC001219C3EAFEEBFFEE2434F8EF3400F98836
:101D0C00088909EE2435121E32F8EE2437121E32E1
:101D1C00F50AEC850AF0A4FCAAF0850AF0EDA42AD9
:101D2C00FDE82CF8E43DF97A257B00121875EA855C
:101D3C000882850983F05407F87401B80002800406
:101D4C00C333D8FCC0E0E0131313541FF8EE28F88B
:101D5C00EF3400F9E8245DF582E93400F583D0E036
:101D6C00F8E0586008850882850983801DEE2436CA
:101D7C00121E32F5F0EA84A8F0EE28F8EF3400F9E0
:101D8C00E82438F582E93400F583E0F97F04021A7F
:101D9C006F74F51219C3EAFEEBFFEE2434121E32F7
:101DAC00C0E0EE2435F582EF3400F583D0E0F08E00
:101DBC00828F83A3A3A3A3A3E0FAA3E0FB8E828F5D
:101DCC0083A3A3A3A3A3A3A3E0FCA3E0FDECC39A6A
:101DDC00F50AED9BF50BEE2480F508EF3400F509C0
:101DEC00850882F583E06401702BEE2481F582EF87
:101DFC003400F583121B81121E3B7402121916E972
:101E0C0060137C127D07EEFAEFFB1210AE85088290
:101E1C00850983E4F0AC0AAD0BEEFAEFFB121CFA69
:101E2C001225DB021D98F582EF3400F583E022C009
:101E3C0082C083851882851983E0F8A3E0F9C3EA90
:101E4C009CEB9D500BC3EC98ED99401279018010DE
:101E5C00C3EA98EB9940F5C3EC98ED9950EE7900F4
:101E6C00D083D08222EAC39CFAEB9DFB22000000B7
:101E7C008521878522C622C0E074EF121AAF759BAC
:101E8C0000906182E0A2E64003021F44E591A2E6C5
:101E9C004003021F447591BF9005D9E0640570089A
:101EAC0012124C1212588003121252752100121287
:101EBC00C4E99005DAF079001212B812101E7A01FA
:101ECC007B009005D8E0F9120562907803E064423B
:101EDC006003021F8D900773E014F06003021F8DE6
:101EEC00C2AF121EF100782AD0E0F618D0E0F6E569
:101EFC009F5407F97005908FCE8003908F7A7808E5
:101F0C001217D0E9C4C0E07829E65508F50808E6B0
:101F1C005509F509740B78081218DED0E02508F87D
:101F2C00906270E0A2E740F8E8C333906272F090E0
:101F3C006270E0D2E0F08049E0A2E55024E591A285
:101F4C00E5501E7591DF9005D9E0640D7013900576
:101F5C00FBE004F064287002E4F07A00E0F912135C
:101F6C0036906181E0A2E35009E5E9A2E3500375E4
:101F7C00E9F7A3E0A2E75009E591A2E750037591B8
:101F8C007F7F04021B0EC0E0C0D0C082C083906172
:101F9C0083E0A2E05009E5BFA2E0500375BFFEE06C
:101FAC00A2E15009E5BFA2E1500375BFFDE0A2E23A
:101FBC005009E5BFA2E2500375BFFBE0A2E3500954
:101FCC00E5BFA2E3500375BFF7E0A2E45009E5BFFB
:101FDC00A2E4500375BFEFE0A2E55009E5BFA2E50E
:101FEC00500375BFDFE0A2E65009E5BFA2E650033F
:101FFC0075BFBFD083D082D0D0D0E032C0E074F2B5
:10200C00121AAFE5A7A2E4500FE5A1A2E4500953C0
:10201C00A7EF75A1EF12205CE5A7A2E5500CE5A196
:10202C00A2E5500653A7DF75A1DFE5A7A2E1500991
:10203C00E5A1A2E1500375A1FDE5A7A2E2500CE5D4
:10204C00A1A2E2500653A7FB75A1FB7F01021B0E58
:10205C0074F81219C37521019005D9E06406700754
:10206C007A007B00121234A2AFE433FED2AF90059B
:10207C00DFE0640170187A207B009005D8E0F9123B
:10208C0005EC7A207B009005D8E0F9120568906188
:10209C0082E0D2E6F0900772E0602185C6228016BD
:1020AC009005DEE064017008E5C654F84405F5C6F9
:1020BC0053BEFC121E7C7401652160E4EEA2E0921A
:1020CC00AF7F01021A6F00008E238F248582288532
:1020DC008327851882851983E0CEA3E0CF852882DB
:1020EC00852783EBC9EAC8EDCBECCA75F010C3E8C1
:1020FC0033C8E933C9EA33CAEB33CBC3EA9EF526BE
:10210C00EB9FF525B35004AB25AA26EC33CCED336D
:10211C00CDD5F0DAAE23AF242274E91219C374FAC8
:10212C00121900EAFEEBFF8C088D099005D9E0240A
:10213C00F7C394055006908FA602224C1211B08A58
:10214C000A8B0BEA450B700302224912126A8A0CA5
:10215C008B0D12126AEA650C7003EB650D60ECEEE8
:10216C00FCEFFD851882851983AA82AB831212704D
:10217C00850A82850B83A3A3780C1217D0908F8EBF
:10218C00780C1217AA85188285198378141217D027
:10219C00908F8E78141217AA780C791412154F5050
:1021AC001F780C7914121782908F6E780C12156FA1
:1021BC004047850C10850D11850E12850F1380413B
:1021CC008514108515118516128517137810790C46
:1021DC00121782908F6E781012156F501C751000AC
:1021EC00751100751200751301781079141217828D
:1021FC007810790C1217498008908FA67810121756
:10220C00D07409781012172A908FC6780C1217D038
:10221C007810790C12160E9005D9E06408600AE06B
:10222C0064066005E06405701C908FBA7810121576
:10223C006F5012908FB2781012175C8008908FAE8E
:10224C0078101217D085088285098378101217DF51
:10225C0074061219167F10021A6F74F71219C31232
:10226C001282900770E064017010906245E4F0A354
:10227C00F053F4F343FE0C5390F3121222E5C654C0
:10228C00804449F5C6E59E547F644970F890618599
:10229C00740FF090076EE0F47002A3E0602C7508E8
:1022AC000175090090076EE078081218EDE508F446
:1022BC00FAA3E0600814600A14600C800DEA5280E6
:1022CC008008EA52908003EA52A079007F02021A39
:1022DC006F74F71219C3E9FE9025ECE493F46008CF
:1022EC00E493F9121000800953C680E59E547F7068
:1022FC00FA121228900770E06401700312103690E5
:10230C00076EE0F47002A3E0602A750801750900FD
:10231C0090076EE078081218EDAA08A3E060081484
:10232C00600A14600C800DEA42808008EA429080BA
:10233C0003EA42A01211B08A088B09A808A909E87F
:10234C00496017E5E170FCE82414F582E93400F5E6
:10235C0083E0F874FF68600288E174016E700A7A99
:10236C00019005D8E0F91205BC0222D874F11219BB
:10237C00C38A088B098C0A8D0B740F12194B780CBD
:10238C001217D0908F8E78081217AA908F8E780C17
:10239C001217AA7808790C12154F50157808790C79
:1023AC00121782908F6E780812156F401579018084
:1023BC0013780C7908121782908F6E780C12156FA7
:1023CC0040EB79007F08021A6F74ED1219C38A086A
:1023DC008B098C0A8D0B741312194B780C1217D0B5
:1023EC00908F8E78081217AA908F8E780C1217AADD
:1023FC00780C790812154F40117808790C12178255
:10240C00AA08AB09AC0AAD0B80227510007511003F
:10241C007512007513017810790C121782781079E7
:10242C0008121749AA10AB11AC12AD137F0C021A8B
:10243C006F908F8E78081217D08A828B837808124F
:10244C0017BD7F04021A6F74F51219C38C828D8329
:10245C0078081217D08A828B837808121796122468
:10246C00A7C3E098F0A3E099122499401E908F86A0
:10247C0078081217D08A828B83780812176F8E8295
:10248C008F83E02420F0A3E0344EF080A4F08E8201
:10249C008F83C3E09420A3E0944E22EA2404F8EB4B
:1024AC003400F9E8FEE9FF8C828D83A3A3A3A3E09B
:1024BC00F8A3E0F98E828F832274F51219C3E9FE1A
:1024CC00900728E0FAA3E0FBEEC333F8E433F97489
:1024DC00D528F582748E39F583E02AF508A3E03B04
:1024EC00F5097808121B6A908F821217EE1220D40D
:1024FC0074021219168A088B098C0A8D0B741078C9
:10250C0008121711AA08AB097F04021A6F74F11292
:10251C0019C38A0C8B0D8C0E8D0F740F12194BE096
:10252C00FAA3E0FB741112194BE0F508A3E0F509CE
:10253C00741312194BE0FEA3E0FF7808121B6AEA31
:10254C002401F508EB3400F509E4F50AF50B780CD9
:10255C00790812158E908F7678081217D0780C792E
:10256C000812158EAA0CAB0DAC0EAD0F1220D47444
:10257C00021219168B09EA450960047A0180027A65
:10258C0000EC2AFCED3400FDECF8EDF97A717B02DD
:10259C0012187588088909E4F50AF50B8E828F8369
:1025AC0078081217DFECF8EDF97A717B02121875C6
:1025BC008A088B09740578081218ED8E828F83A314
:1025CC00A3A3A3E508F0A3E509F07F08021A6FC0E6
:1025DC0082C083E9906000F0D083D0822202013562
:1025EC00FFFFFFFFFFFFFFFFC082C083E9900CE7F6
:1025FC00F002287874F7121957E99004F7F07C2F41
:10260C007D057AFF7BFF120D2A9004F874FFF0A36E
:10261C00F0A3E4F0A3F07905120CB29004F7E0F902
:10262C00120BDA7A487B0D120F1002358674F412F5
:10263C0019578A088B09EB548060309004F7E0F945
:10264C0012054A8A0A8B0BAE0AAF0BEE4F60138E43
:10265C00828F83E064B07003120CCAEEFAEFFB12A7
:10266C000538AA08E5096480FB80047A007B000227
:10267C00284774F212195774FC121900EAFEEBFF8A
:10268C00741212194B123A6DEE4F7003022721741B
:10269C000212194BEEF0A3EF122A82ECF0A3ED120A
:1026AC002A82AA82AB83120BD4E9F50A706AE50878
:1026BC00450960648E828F83123A53EE4F60567ACE
:1026CC00067B001205A48A0C8B0DA80CA90DE849F9
:1026DC007005750A13804188828983E412272EEED7
:1026EC00F0A3EF123A7EE508F0A3E509F09004FDA3
:1026FC001227B59004FD7005123530801B12351E63
:10270C008003EAFCEBFD8C828D831227B570F38C71
:10271C00828D8380E3750A02A90A740412191602C9
:10272C003C6DF0A3123A24A32274F2121957890AB1
:10273C00E975F017A4FEAFF09004FCE4F09004FAF5
:10274C001227B5600A1205AA9004FAE4F0A3F0EE81
:10275C00FAEFFB1205A48A088B09EA4509602FEEF3
:10276C00FCEFFD79001205269004FAE508F0A3E5CC
:10277C0009F07B00800812279FE4F0A3F00BEBC359
:10278C00950A40F2E50A9004FCF079008002791376
:10279C00023C6DEB75F017A4F8A9F09004FAE02850
:1027AC00FAA3E0398A82F583221231C2EA4B2274F1
:1027BC00F4121957740C12194B123A48FEE9FF75B2
:1027CC000800750900800CE5082401F508E50934BA
:1027DC0000F509C3E5089CE5099D503285080A857A
:1027EC00090B7403780A1218EDEA250AF8EB350B7D
:1027FC00F988828983A3A3A3A3A3A3123605EE654C
:10280C000A7003EF650B70BFE8FAE9FB80047A00ED
:10281C007B00802774F41219577900EAA2E0501B50
:10282C0075082A75098F7808121B6A7C047D007A5A
:10283C00E97B0C120CAC74021219167F04021A29D3
:10284C00C082C0839004FD12287F601C888289831B
:10285C00A3A3E06A7003A3E06B8882898370E8A36A
:10286C00A3A3A31231BE80047A007B00D083D08254
:10287C00020135123D53E8492274EE12195774FCCB
:10288C00121900EAFEEBFF851882851983E4F0A388
:10289C00F0EE2402123510EE2405123A2BEE24042D
:1028AC00F50EEF122E37E024FE603924FC6046242E
:1028BC00FE605224FE605E24FE700302299824FE02
:1028CC0070030229FC24FE7003022A0B24FE700301
:1028DC00022A1A24FC7003022A2924FE7003022AFD
:1028EC0038022A759005167417F0A3E4122A8A127E
:1028FC000952022A75851882851983AC82AD831220
:10290C000CD0022A45851882851983AC82AD8312BE
:10291C000CD6022A45850C08850D09740212194B38
:10292C00AC82AD838508828509831231BE120BF807
:10293C008A0C8B0DAC0CAD0DEC4D603BE4F50CF53D
:10294C000D780C121B6A750C16750D05780C121B84
:10295C006A750C17750D05780C121B6A7408121920
:10296C004B121B81123ECF121916E9F50C700B128B
:10297C0031B412096A800F750C01850882850983B0
:10298C00122A78123530850C08022A487402121962
:10299C004BAC82AD83850C82850D83122F89603CF4
:1029AC00850C82850D83A3A3121B817510167511DE
:1029BC00057810121B6A7510177511057810121B0B
:1029CC006A740812194B121B81123ECF121916E9A8
:1029DC00F509700B1231B4120970800F750901855D
:1029EC000C82850D83122A78123530850908804CAB
:1029FC00851882851983AC82AD83120CDC803A85F4
:102A0C001882851983AC82AD83120CE2802B851859
:102A1C0082851983AC82AD83120CE8801C851882E8
:102A2C00851983AC82AD83120CEE800D85188285DE
:102A3C001983AC82AD83120CF4E9F508E508602922
:102A4C008E828F83A3E06414601F850E82850F83B2
:102A5C00E0900516122A82123D4F90051712353060
:102A6C00E508A3122A8A12094C02341F123D538521
:102A7C00188285198322F085188285198322F07CAF
:102A8C00167D05850A82850B831231C22274EE12E3
:102A9C00195774FC1219008A0A8B0B8C0E8D0FEAD5
:102AAC002405F508EB3400F5097C157D0079007AD6
:102ABC00167B05120526E5082402F50CE509123AE9
:102ACC002E851882851983858210858311781012C2
:102ADC001B6A850882850983A3A3A3A3122F8012E6
:102AEC001B6AE5082405F510E5093400F51178108A
:102AFC00121B6A850C82850D831232D5120BF2746F
:102B0C00061219168A108B11AE10AF11E50A2402A9
:102B1C00F50AE50B123513EE4F7003022C57801794
:102B2C00740212194B1231BE88828983EAF0A3EB2E
:102B3C00F0900516E004F0900516E0C394054003F0
:102B4C00022C57E4F510F5117810121B6A7510FF62
:102B5C007511047810121B6A751000751105781028
:102B6C00121B6A740612194B121B817910EEFCEFC2
:102B7C00FD123ED1121916E9705E85088285098313
:102B8C00A3A3A3A3A3A3A3E0F89004FFE068704859
:102B9C00122F80121B6A7C007D05E5082408FAE5DB
:102BAC00093400FB1205207402121916E960298EF3
:102BBC00828F83A3A3A3A31231BE900516E0F51058
:102BCC00740278101218ED74172510F582740535FF
:102BDC0011F583EAF0A3EBF0740212194B85821005
:102BEC008583117810121B6A740212194B121B8107
:102BFC00850C82850D831231E41219168A108B1103
:102C0C00AE10AF11900516E0F51075110074027836
:102C1C00101218ED74162510F874053511F9888208
:102C2C008983A31227B57003022B23E82403080819
:102C3C0008E93400F9EE4F6003022B2C888289835B
:102C4C0074FFF0A3F0900516E004F0900516E06018
:102C5C000A1231B412095E7900800B85088285094D
:102C6C0083123527790A02341F74EA12195774FE3D
:102C7C001219008C128D13EA2405F50CEB123EB9D7
:102C8C00123A57750800750900EA2402F510EB3466
:102C9C0000F51185188285198385820A85830B7846
:102CAC000A121B6A850C82850D83A3A3A3A3122E83
:102CBC004D121B6AE50C2405F50AE50D1235137847
:102CCC000A121B6A850C82850D83122E51120BF28F
:102CDC0074061219168A0A8B0BEA450B7003022D27
:102CEC00F2EA2404F50EEB122E37123A578A828B35
:102CFC0083A3A3A3E0F98510828511831231C860E8
:102D0C0003022DF2E4F514F5157814121B6A7514F0
:102D1C00FF7515047814121B6A7514007515057867
:102D2C0014121B6A740612194B121B817913AC0A0C
:102D3C00AD0B851082851183123ED7121916E9F559
:102D4C00096003022DF29004FFE0F8E5087009E039
:102D5C002402900517F08014900517E0FCE824027B
:102D6C00FAE43400FBEA6C7001EB707E850882AAF1
:102D7C0082122F779414122F6F506B850E82850F51
:102D8C0083E0C0E074182A122E2ED0E0F0050885DE
:102D9C000E82850F83A3E0C0E085080A7418250A0B
:102DAC00122E2ED0E0F005089004FF122E4D121BAF
:102DBC006A7C007D0585080A7418250A122E4112BA
:102DCC0019169004FFE02508F50874FF6E70037463
:102DDC00FF6F6012EE24010EEF3400FFE508C39480
:102DEC00145003022C9FE50860131231D285108217
:102DFC008511831231BE12096479008014E50970C3
:102E0C000375090A851282851383EEF0A3EFF0A9EE
:102E1C000974021219167F0E021A2985080C7418EF
:102E2C00250CF58274053400F583223400F50F85EA
:102E3C000E82F58322FA74053400FB12050E74021F
:102E4C0022123A8D22A3A3122E572212351EFDEE0A
:102E5C00FAEFFB2274EE12195774FE1219008C0E45
:102E6C008D0FEA2405F50CEB123A2E750B0090052C
:102E7C0016E4F0F50AEA2402F508EB3400F50980B3
:102E8C0044900516E0FA9004FFE0F8122F7794179F
:102E9C00122F6F400D900516E0F87416C39890042D
:102EAC00FFF0122F80121B6A7C007D0574172AFA22
:102EBC007405122E441219169004FFE0F8900516B2
:102ECC00E028F0050AE50C2416F582E50D122E32E9
:102EDC00E0F8E50AC3985074900516E0C3941650B8
:102EEC006BE50AC333F8E433F9E50C28FEE50D393C
:102EFC00FF851882851983AC82AD838E828F8312F5
:102F0C002F897008750B011235238050E4F510F5EC
:102F1C00117810121B6A7510FF7511047810121BB2
:102F2C006A7510007511057810121B6A7406121957
:102F3C004B121B817916850882850983123ED712A4
:102F4C001916E9F50B7003022E8D80BB7C167D05DE
:102F5C008508828509831231BE120976A90B740289
:102F6C00023421E99400C365D03322EA28F8E43412
:102F7C0000F9E822E0F510751100781022123416D1
:102F8C008A108B11AC10AD11EC4D2274EA1219574A
:102F9C0074FC1219008A0C8B0D8C128D13EA24050B
:102FAC00F50AEB123513750800750900E50A2402C1
:102FBC00F510E50B3400F511740212194B85820ED5
:102FCC0085830F780E121B6A850A82850B83A3A357
:102FDC00A3A3123A33121B6AE50A2405F50EE50B7E
:102FEC003400F50F780E121B6A851082851183123E
:102FFC0035191231B8120BF274061219168A0E8B8F
:10300C000FAE0EAF0FE50C2402F50EE50D3400F5F6
:10301C000F80388882898374FFF00508122E27747C
:10302C00FFF005089004FFE0F50C750D00780C120C
:10303C001B6A7C007D0585080C7418250C122E412A
:10304C001219169004FFE02508F508EE4F60278E44
:10305C00828F83A3A3A3E0F9850E82850F8312319F
:10306C00C8EE2404123A2BE96027850C82850D8367
:10307C001231AA123530E50870030231901231D2A8
:10308C00850E82850F831231BE12097C79000231C4
:10309C00A5E4F514F5157814121B6A7514FF751553
:1030AC00047814121B6A7514007515057814121B1C
:1030BC006A740812194B121B817911EEFCEFFD8515
:1030CC000E82850F83123ED7121916E9F509709AF4
:1030DC00850882AA82EA9004FF7009E02404900516
:1030EC0017F08025E0F8900517E0F514E82404FCAF
:1030FC00E43400FDEC65147001ED7081122F7794AF
:10310C0012122F6F4003023089850C82850D83E0EB
:10311C00C0E074182A122E2ED0E0F00508850C821F
:10312C00850D83A3E0C0E0122E27D0E01231ED858F
:10313C00820C85830D780C121B6A740412194B12C5
:10314C001B818510828511831231E41219168A0CA9
:10315C008B0DAE0CAF0D85080C7418250CF874058E
:10316C003400F9EE4F700302301F851882851983E5
:10317C00E0888289831231EDA3E0C0E0122E27D0C3
:10318C00E002302DE509700375090A850A82850B6A
:10319C00831231AA123530A9097404022E1F123D74
:1031AC0053851282851383227C167D05850A8285C0
:1031BC000B831231C222E0FAA3E0FB221231C212BD
:1031CC000BE0E9F50922900517E0F5F0E50884908D
:1031DC000516F07C167D0522122E57120BFE740478
:1031EC0022F005088518828519832274EC12195770
:1031FC0074FE1219008A088B098C0E8D0FEA2405B7
:10320C00FEEB3400FF123400EE2418123A2BEA4580
:10321C000B70030232A31233E950291232C88A1000
:10322C008B11EA4511606B7912AC0AAD0B850882E3
:10323C008509831231BE851082851183121955E9D7
:10324C00F50A7058E4F50AF50B780A121B6A8E829F
:10325C008F83A3A3E0F50A780A121B6AEE240312EB
:10326C003510780A121B6A8E828F831232D5120D9A
:10327C00187406121916E9F50A7021850C82850D51
:10328C0083E0701F8508828509831231BE12098282
:10329C008011750A0E8009750A018004E50A600325
:1032AC00123523850C82850D83E060047900800241
:1032BC00A90A74021219167F0C021A298518828524
:1032CC0019831231C2120D062212351EFD85088299
:1032DC008509831231C22274EE12195774FE121929
:1032EC00008A088B098C0C8D0DEA2405FEEB34004A
:1032FC00FF750E00123400EA450B70030233C7123F
:10330C0033E9502C1232C88A0E8B0FEA450F604AF3
:10331C007912AC0AAD0B8508828509831231BE8502
:10332C000E82850F83121955E9F50E60030233CA1C
:10333C00850882850983123605AA0AFB1233DB70D5
:10334C00147AFF7BFF1233DB606C88828983E50A79
:10335C00F0A3E50BF0750A008007750E0E805F0573
:10336C000A9004FCE0FAE50AC39A504AE50A75F0A3
:10337C0017A4FAABF088828983A3A3E02AFAA3E00E
:10338C003BFB8A828B83123519EC4D70D2750A1770
:10339C00750B00780A121B6AEEFCEFFD12050E7419
:1033AC0002121916EEFCEFFD850882850983123195
:1033BC00BE1209888014750E098003750E01123D2A
:1033CC004B850C82850D83123530A90E022F6A12A3
:1033DC000CFA8A108B11A810A911E84922E50824CF
:1033EC0002F508E5093400F5098A828B83A3A3A3AF
:1033FC00E0A2E522851882851983AC82AD838E828A
:10340C008F831234168A0A8B0B22E0FAA3E0FB128C
:10341C000BF82274041219167F0A021A2974EC1282
:10342C0019578C108D11EA2405F50CEB123A2E75F8
:10343C000F00EA2402F50AEB123513850A82F58394
:10344C001231BE123F5D7003023505750E0080719E
:10345C00850C82850D83E06401704F8E828F83A36F
:10346C00A3121B818E828F83A3A3A3A3E0F51275F5
:10347C0013007812121B6AEE2405F512EF3400F5D6
:10348C00137812121B6A1231B8120D187406121925
:10349C0016E9F50F6014850C82850D83E4F0123D5E
:1034AC004B8510828511831235307C177D00790095
:1034BC00EEFAEFFB1205268E828F83E4F0A3F00563
:1034CC000E9004FCE0F8E50EC398501EE50E75F066
:1034DC0017A4F8A9F0850882850983A3A3123EC31B
:1034EC00123519EC4D600302345C85088285098322
:1034FC0074FFF0A3F0E50F70061231B812098EA913
:10350C000F0232C3F50AEF3400F50B22A312351E5D
:10351C00FD22E0FCA3E0228E828F83123D53850EA8
:10352C0082850F83E8F0A3E9F022C082C083900467
:10353C00F8E06A7003A3E06B70067AF87B048004F1
:10354C007A007B0002287874F71219577F00EF7508
:10355C00F003A4F8A9F0EC28F8ED39F988828983F6
:10356C00E06A7003A3E06B7006E8FAE9FB800B0FCE
:10357C00EFC3940240D87A007B007F01021A2974B1
:10358C00F6121957123B3C70067A007B008007A399
:10359C00A3A3A31231BE023BFD74F2121957E9FE2C
:1035AC00740E12194B123605741012194B123A6D17
:1035BC008C828D83E06402703BA3123D4F8882891C
:1035CC0083E0F50CA3E0F9A80C740268700374296D
:1035DC00697021750C02750D00780C121B6A780845
:1035EC00121B6A780A121B6AEEF9120D3C74061251
:1035FC00191680027901023C6DE0F50AA3E0F50B87
:10360C002274E812195774FB121900E98518828587
:10361C001983F08A168B178C0E8D0F741F12194B91
:10362C00123A6D742112194B123605742312194B70
:10363C00123A577510008C828D83A3A3A3E0A2E4E9
:10364C00502A741D12194B1232CE8A828B83E5825A
:10365C0045837003023719790AAC0EAD0FAA16AB6D
:10366C0017121955E9F510600302371C850E828577
:10367C000F83E0640260030239D2A3123D4F850828
:10368C0082850983A3858212858313E50E2406F5B2
:10369C000CE50F123A2E88828983E0FAA3E0F9EA4E
:1036AC002400F514E439F5157814121BF40100000C
:1036BC00280128E13607000228B8370328283700EC
:1036CC0029E23801290A390229B1380329E23804E0
:1036DC00297339D239EE4F703E850C82850D8312D9
:1036EC003A48FAE9FB8A828B83E0850A82850B8350
:1036FC00123A84121B6A8A828B83A312351EFDAA8E
:10370C0008AB0912050E7402121916800375100EFF
:10371C00A9107405023EB175100B80F4EE4F70F7D2
:10372C00850A82850B837401F0123A5D85088285C7
:10373C000983F07C007D00850E82850F83A3A3A3F3
:10374C00A3E02401FAA3E03400FB120BF8EA4B606F
:10375C00418A828B83E02402F8850A82850B83E000
:10376C0028F0EA2404F8EB3400F988828983E08598
:10377C001282851383123A96123A84121B6A8A8239
:10378C008B83123518E5082403FAE5093400FB0293
:10379C00370F850A82850B83E02404F07C047D00BE
:1037AC007900AA12AB1312052602371CEE4F6003E8
:1037BC00023723123A5DFEA3E0FF850A82850B8354
:1037CC007404F0EE850882850983F0EF85128285FA
:1037DC001383F0740312194BAC82AD83EEFAEFFB3A
:1037EC00123B2A700302388E8A828B83A3A3123A6F
:1037FC0053740112194B85820E85830F780E121BA0
:10380C006A740512194B121B817CFF7DFF120BFE93
:10381C0074041219168B0FEA450F7033850C8285D0
:10382C000D83123A33121B6A850C82850D83A31209
:10383C001B817C027D007A337B90120A2A7404125D
:10384C001916E9700A740112194B74FFF0A3F08E6B
:10385C00828F83E064027034750C02750D00780C55
:10386C00121B6A8E828F83123518E5082404FAE540
:10387C0009122E44121916850A82850B83E0240244
:10388C008009740112194BEEF0A3EFF074011219B8
:10389C004B123A44F0740112194BA3123A3CA3A3F5
:1038AC00A3F002371CEE4F6003023723850C828590
:1038BC000D83123519AA16AB17120D30850A8285A5
:1038CC000B837402F0EA850882850983F0851282E5
:1038DC00851383EB80CBEE4F6003023723123A5DE6
:1038EC00F8A3E0F9850A82850B837402F0E8850859
:1038FC0082850983F0E985128285138380A3850C68
:10390C0082850D831231BE120508EAFC8C82A882D6
:10391C00C39EE49F404BE86E7001EF70047C008006
:10392C001F851882851983E0FAEE2AFAEF3400FB22
:10393C00C3EA98EB94005003E08004EECCC39CFCEB
:10394C00EC850A82850B83F08C0A750B00780A12C1
:10395C001B6A850C82850D83E02EFCA3E03F0237A9
:10396C000A75100702371CEE4F6003023723850CD3
:10397C0082850D83123D4F850A82850B837407F077
:10398C0088828983123A3C123A24E085128285138C
:10399C0083F0E82402FAE93400FB8A828B83123A22
:1039AC003C123A75123A44A3123A7E123A4DF0E8A0
:1039BC002405F8E93400F988828983123A4DA31260
:1039CC003A96A30238AA741D12194B123B35700398
:1039DC00023719123D4F880C890DE8450D70030212
:1039EC0037198E108F117810121B6A780A121B6A05
:1039FC007808121B6A740612194BE0F9AC0EAD0F65
:103A0C00AA16AB17850C82850D83121955740612F4
:103A1C001916E9F51002371CF088828983A322F568
:103A2C000CEF3400F50D22E0F50E750F00780E2228
:103A3C00E085088285098322123A9D22123D53E8C3
:103A4C0022123A9DA3A322A3A3A3A3E0FEA3E0FF0B
:103A5C0022850C82850D83E0F8A3E0F5838882E053
:103A6C0022E0F508A3E0F50922A3A3F08A828B8358
:103A7C00A322122730A3A322F08A828B83123A8DC1
:103A8C0022E0F50A750B00780A22123A24123A9DAC
:103A9C0022E0850882850983A3A32274EE121957AC
:103AAC0074FE1219008A0A8B0BECFAEDFB741412DB
:103ABC00194BE0F510A3E0F511741612194BE0FE4A
:103ACC00741812194BE0F50EA3E0F50F85188285DA
:103ADC001983AC82AD83123B2A603E85188285190E
:103AEC0083123B35602FA3A3123A6DE5084509609C
:103AFC0024780E121B6A7810121B6AEEF9AC0CAD0E
:103B0C000DAA0AAB0B85088285098312195574041A
:103B1C001219168006790E80027901022F6A120B97
:103B2C00F88A0C8B0DEA450D221231C2123B3C2255
:103B3C00120CC48A828B83E58245832274F6121997
:103B4C005774FE121900740C12194B123A4885184E
:103B5C0082851983F0740112194BE9F0E4F508F52C
:103B6C00097808121B6A7508027808121B6A74041B
:103B7C0012194B8582088583097808121B6A120D6D
:103B8C001874061219167402121916806474F7123E
:103B9C001957EAFEEBFF89087C2F7D05120D30EAE0
:103BAC005402600BA908EEFAEFFB120BEC800279C1
:103BBC000102358674F612195774FF6A700374FF8C
:103BCC006B701C7B00EB75F003A4F8A9F0EC28F8E3
:103BDC00ED39F9123C020BEBC39402501480E6123F
:103BEC000D008A088B09A808A909E8496003123C52
:103BFC00027F02021A298882898374FF12272EE41D
:103C0C00F02274F6121957120D008A828B83E5820A
:103C1C0045836006A3A3E0FA80027A007B0080D182
:103C2C0074F21219578A088B09ECFEEDFF740E1210
:103C3C00194BE0F50A123C72701CEEFCEFFD7AFF9A
:103C4C007BFF123C7270047911801688828983E59F
:103C5C0008F0A3E509F088828983A3A3E50AF0792B
:103C6C00007F06021A29120D008A0C8B0DA80CA9D4
:103C7C000DE8492274EE121957EAFEEBFF8C088D01
:103C8C0009890C741212194B123D4F741412194BF2
:103C9C00123519741612194B1231BE750D00EC4DFC
:103CAC006003023D437402650C6003023D3E888252
:103CBC00898312351EF9EC2400F50EE439F50FEA70
:103CCC00F4F8EBF4F9EC58F8E50F59F9E849705DA4
:103CDC00E5082406F8E5093400F9880A890B88827E
:103CEC00F583122E53120D308A108B11E50E6510D0
:103CFC007004E50F65116042780E121B6A850A820A
:103D0C00850B83122E53120D367402121916E9F517
:103D1C000D7027780E121B6A850882850983A3A370
:103D2C00122E51120D4E7402121916800D750D8043
:103D3C008008750D0D8003750D0BA90D0234248EB2
:103D4C00828F83123D5322E0F8A3E0F92274E8122B
:103D5C00195774E7121900851882851983EAF0A3A4
:103D6C00EBF08C168D17890E743112194BE0F5128D
:103D7C00A3E0F513743312194BE0F514A3E0F51519
:103D8C00743512194BE0F50F750800750900E5093B
:103D9C0075F003A4F8A9F0851882851983123EC327
:103DAC00E0F47003A3E0F47003023EA1EE2402F5EC
:103DBC000CEF123EB9E07003023EA185160A85177E
:103DCC000B780A121B6AAC14AD15AA12AB13120CA9
:103DDC00B874021219168A0A8B0BEA450B7003028F
:103DEC003EA1E4F510F5117810121B6A7406121935
:103DFC004B8582108583117810121B6A7409121975
:103E0C004B8582108583117810121B6A851282856E
:103E1C001383A3A3A3A3121B817914AC0AAD0B8E3D
:103E2C00828F83123ED7121916E97069850A828532
:103E3C000B83A3A3A3A3123D4F740212194B12358B
:103E4C0030850C82850D83E0A2E05018A90E740217
:103E5C0012194BAC82AD838E828F831231BE120C41
:103E6C0010E94208850C82850D83E0A2E15026E51D
:103E7C000FF50A780A121B6EA90E740312194BACBB
:103E8C0082AD838E828F831231BE120C0A740112A2
:103E9C001916E942080509E509C394025003023DCD
:103EAC009AA90874191219167F10021A293400F5F0
:103EBC000D850C82F58322E028FEA3E039FF8E826B
:103ECC008F83227916850A82850B831231C2120DDB
:103EDC001274082274F2121957EAFEEBFF890B7464
:103EEC0001650B600E7402650B70637901120F2E65
:103EFC00E9705BEEFAEFFB123F5D6047750A0080DC
:103F0C000B7C177D007900120526050A9004FCE055
:103F1C00F8E50AC3985021E50A75F017A4F8A9F042
:103F2C00850882850983A3A3E028FAA3E039FB8ADC
:103F3C00828B8312287F70C985088285098374FF60
:103F4C00F0A3F07C2F7D05EEFAEFFB120D2A023C5C
:103F5C006D120CFA8A088B09EA45092274F21219BF
:103F6C00578A088B09ECFEEDFF740E12194B1236B2
:103F7C0005900CE7E0F4603D7A097B00120532EA0B
:103F8C004B60328A828B8374B1F0A3E4123A77A32C
:103F9C00123A75A3E508F0A3E509123FC4EEF0A3AD
:103FAC00EF123FC4A3A3E50AF0A3E50BF0900CE7D6
:103FBC00E0F912053E023C6DF08A828B83A3A3A329
:103FCC00A3A322C082C0839061907404F0A37448B0
:103FDC00F0A3E4F09061807440F09061BC7407F041
:103FEC009061877469F09061B67416F079001210C4
:103FFC0024790212102A9025ECE493F46006E493E1
:10400C00F912100079051213180243DAC082C0832A
:10401C00E9540FF9906185E0696012E5C65480445B
:10402C0049F5C6E59E547F644970F8E9F053C680A3
:10403C00E59E547F70FA0243DA74F7121957E5A81B
:10404C00FE53A87E12100CC2BA539AFEC289759BFD
:10405C0000C2C212101275A91175B905121018D22E
:10406C00BA439A0174805E42A8024968C082C08338
:10407C00906181E4F0A30243D775E9007591007556
:10408C00BF00020135C082C083906181E4F0A3744B
:10409C00C0F0A3E40243D9C082C08374F8121900A3
:1040AC009005DB12484AE849700302415A9005DB3F
:1040BC00E0544060237908851882851983AA82AB65
:1040CC0083121114851882851983AA82AB83120D71
:1040DC00C09005DBE054BFF0E054806010790C7A9E
:1040EC00947B071211149005DBE0547FF0E0A2E002
:1040FC005008790012416254FEF0E05402600879D5
:10410C000112416254FDF0E0540460087900124140
:10411C006D54FBF0E054086008790112416D54F7BE
:10412C00F0E054106008790212416D54EFF0E05445
:10413C00206008790312416D54DFF0A3E054016054
:10414C000D121036120DD29005DCE054FEF07408FE
:10415C001219160243DA121024120DC69005DBE078
:10416C002212102A120DCC9005DBE022C082C083F3
:10417C00E9600514602A804F90619A7433F0A3743F
:10418C0055F09061A0743AF0900770E064017009EA
:10419C00C2919005DD7467802D9005DD74618026D9
:1041AC0090619A743FF0A3745AF09061A0747FF000
:1041BC00900770E064017009D2919005DD747180F4
:1041CC00059005DD746AF00243DAC082C083E960B1
:1041DC000B14600D14600F14601180209025F0807A
:1041EC00159025F180109025F2800B900770E064FB
:1041FC000160F39025F3E493906186F00243DA7446
:10420C00EE12195774F4121900851882851983ACB3
:10421C0082AD8375838F75825674041218139025A2
:10422C00F093F4600302439D907808E0C39402502D
:10423C000302437D740412194BAC82AD8375838FDA
:10424C0075820E7408121813F97AFF7BFF7FFF7EBC
:10425C00008982858210801874086E7003024332C4
:10426C0074096E7003024332740A6E700302433297
:10427C00E510C333FCE433FD740412194BE5822CB6
:10428C00F582E5833DF583E0F50EA3E0F50F8E088E
:10429C00750900740278081218ED74482508FC742E
:1042AC00783509FD8C828D8378081217D0740878C4
:1042BC000812171185080C85090D8C828D837808DE
:1042CC001217D074187808121711E50C4508F50868
:1042DC00E50DF509C3E50E9508E50F95098C828D62
:1042EC008378081217D08C828D8378081217D074BB
:1042FC001878084014121711E50C4508FCAD0DE5B3
:10430C000EC39CFCE50F9D800F121711E50C4508A0
:10431C00C3950EFCE50D950FFDC3EC9AED9B500675
:10432C00ECFAEDFBEEFF0EEEC39413500302426465
:10433C0074FF6A700374FF6B602D8F087402780829
:10434C001218ED7448124FF674783509F583780815
:10435C001217D0851882851983E5822510F582E520
:10436C0083124D83E508F009E9C39404500302421B
:10437C00557508017509007808121B6A7402121928
:10438C004BAC82AD837A7C7B091207A274021219A2
:10439C0016740C1219167F0A021A29C082C0839057
:1043AC00618674D5F09061AE7468F0A3746AF09075
:1043BC00624574FBF0A304F053F4FD43FE02900736
:1043CC00707401F079001210248003F0A3F0D083F4
:1043DC00D082020135C082C08375E1F1900725E0DF
:1043EC00604E14600814605214604A8052121042DD
:1043FC0090071BE0F97A1C7B0712129A908F4E12D1
:10440C0017EE1212D0908F921217EE1212A690077E
:10441C0026E0F91212B2790112130C900719E0245C
:10442C0016124570745AF0A37410F079000243DA36
:10443C0012104880BB12104E80B612105480B17905
:10444C001280EA74F412195775D90D90070BE0A27B
:10445C00E0E4331313F81244DC484401F5D9780036
:10446C0012455A40FB78008808740C124FF67407FA
:10447C0012456440F275E19590070BE0F97A0C7BDC
:10448C00071212A0900D0974D6F0A3740F12457F79
:10449C0012459F1245961246D71244E67808121719
:1044AC00D0908F66780812175C908F8E7808121750
:1044BC00AA12456A78081217DF900719E024141223
:1044CC0045707413F09005D97402F07F04021A2918
:1044DC0090071BE0C4333354C022900719E0F8A3B3
:1044EC00E0F5838882A3A32274F61219571246A80A
:1044FC008AD9780012455A40FB7800800612460E85
:10450C0012475AE8C39940F512469A12455A40FB95
:10451C0078008008124FF2740712475AE8C399408A
:10452C00F375E195900D0974E2F0A3740F12457FB9
:10453C001245891217EE12456A1217FA900719E004
:10454C0024141245707412F09005D902494588085C
:10455C00741C2508F58274071248B694062290073D
:10456C0019E0240EF8A3E0124577223400F9888272
:10457C008983221246C074DCF0A3740F2212459F6B
:10458C001245961246DB908F8622F0A374F4F0A3AA
:10459C00740F221245A3221245A722F0A37480F0B7
:1045AC00A374112274F61219571246031244DC44F8
:1045BC0002F5D9780012455A40FB78008006124665
:1045CC000E12475AE8C39940F575E195900D091202
:1045DC004619F0A312461912458C1217EE12456AB1
:1045EC001217FA900719E024141245707414F09005
:1045FC0005D9740402494790072BE0F9740729F593
:10460C00D9228808742C2508F58274072274EE12BE
:10461C004626124626F0A3740F22F0A3740FF0A3C3
:10462C0074EE2274F61219571246A874064AF5D97C
:10463C00780012455A40FB7800800612460E12474D
:10464C005AE8C39940F512469A12455A40FB780035
:10465C008008124FF2740712475AE8C39940F37559
:10466C00E195900D0974E8F0A3740F1246B612454B
:10467C00891217EE12456A1217FA900719E02414E2
:10468C001245707415F09005D974030249479007D0
:10469C004B12460674044AF5D97800221246039050
:1046AC00071BE0C4333354C0FA221246C07480F0A6
:1046BC00A37411221246C4221246D17480F0A37442
:1046CC00111246D1221245A7F0A3221246DB22F08A
:1046DC00900D177480F0A374111246C47480F0A36B
:1046EC0074111245A3F022C082C0831244E6A3A326
:1046FC00A3A3E40243D774F7121957125238F87473
:10470C000639F9E82405FAE93400FB8A828B831216
:10471C004FA788828983A3A3A3A3A3A3A3A3A3ECDA
:10472C00F0A3EDF088828983A3A3A3A3A3A3A3E0A2
:10473C0024FFF8A3E034FFF98A828B83E8F0A3E925
:10474C00F0024968880874742508F5827407124EC3
:10475C00CEF5D90822EAFEEBFF9061D0E0F8748028
:10476C00C398FAEE248322124779940422124D91B5
:10477C00E0F5D90AEAC32274F6121957EAFEEBFFE8
:10478C009061D0E0707575D90E75D90375D9047A1E
:10479C00008A08EE2508125306248C12481C40F19E
:1047AC007A008A08EE2508125306248412477340B7
:1047BC00F175E1957908EE248C1248152484124881
:1047CC000C7C008C82AA82C3E49AF895E0F9EE285E
:1047DC00F8EF39F9E8248BF582E9124ECAC0E0EE05
:1047EC002A12530624ABF582E9124D83D0E0F00C6B
:1047FC00ECC3940840CD1248D2800279000249489B
:10480C00FAEF3400FB1211082212480C7904EE2244
:10481C00124779940822C082C08375D90275D903D6
:10482C0075D90575E195EA2470F582EB124847EAD3
:10483C002472F582EB1248E40243DA124D941248CA
:10484C004E22E0F8A3E0F92274F6121957EAFEEBB7
:10485C00FF90077474061248C0121B6A7C0179031E
:10486C00124BEC12191675D90675D903780012483B
:10487C00A640FB75E1959005D9E064087017EE240D
:10488C0070F582EF124847EE2472F582EF124D83D9
:10489C00E8F0A3E9F0790102494888087474250806
:1048AC00F58274071248B6940522124D94E0F5D99E
:1048BC0008E8C322F075087475090778082275E1B9
:1048CC009579041212D6EE2470F582EF124D9412E3
:1048DC00484EEE2472F582EF124D94E8F0A3E9F005
:1048EC0079012274F6121957EAFEEBFF9061D0E0C1
:1048FC0070437901900774740BF09005D9E064074C
:10490C0070177508747509077808121B6A7C010901
:10491C0009124BEC1219167905740129F5D975D9C0
:10492C000378008003124750E8C39940F875E1956D
:10493C001248D28002790080037401F07F02021ABF
:10494C002974F7121957EAFEEBFF75D90375D903D1
:10495C0075D90DEE24DE12496D1248CA7F01021A78
:10496C0029F582EF124ECEF5D9227F03021A297453
:10497C0001250AF5D975D90378002274F512195757
:10498C001249FC6004780480027800E8240BF8EAF1
:10499C00C3984041750A099007747409F07908129C
:1049AC0049E560147508747509077808121B6A12BA
:1049BC004BE4121916750A0D12497B8003124750ED
:1049CC00E8C3950A40F775E19579041212D6124B9B
:1049DC00617901800279008091EE24E3FCEF3400D0
:1049EC00FD7A757B07121102850882850983E02206
:1049FC00124761F8EF124F9BF583E02274F3121902
:104A0C00578A088B09124BF7FAE5082483F50AEB51
:104A1C00124AC66004780480027800E82408F8EA98
:104A2C00C3985003024ABF750C06900774740CF0BF
:104A3C009005F6E0900775F07402C0E0F97CF77D04
:104A4C00057A767B07121102D0E0F97CF97D05120C
:104A5C001102850A82850B83E0601C750A74750B44
:104A6C0007780A121B6A7C067903AA08AB09124B59
:104A7C00EC121916750C0A7401250CF5D975D903AD
:104A8C0078008009880A7474250A124756E8C39581
:104A9C000C40F175E19579041212D6E5082470F5F5
:104AAC0082E509124847E5082472F582E5091248A7
:104ABC00E4800279007F05021A293400F50B850A7F
:104ACC0082F583E02274F6121957EAFEEBFF124BC3
:104ADC00F7FCEE2483F8EF124BF260047A048002A8
:104AEC007A00EA2404FAECC39A405E7A02900774C6
:104AFC00EAF0EE24F5F582EF124B6D60197508742F
:104B0C007509077808121B6A7C027903EEFA124BBE
:104B1C00EC1219167A0674012AF5D975D9037800A6
:104B2C008003124750E8C39A40F875E195EE24745F
:104B3C00124B5AEE2480124B5A124B61790412120A
:104B4C00D6EE240D1248D580027900024948F58230
:104B5C00EF124CDD22EE241DF582EF124CDDA3F09A
:104B6C0022124ECE900775F088828983E02274F66B
:104B7C00121957124BF7FEEA2483F8EB124BF26032
:104B8C00047C0480027C00EC2404FCEEC39C4043B7
:104B9C007C029007747407F0EA24F6F582EB124B52
:104BAC006D60157508747509077808121B6A79030E
:104BBC00124BEC1219167C0674012CF5D975D9031D
:104BCC0078008003124750E8C39C40F875E1957952
:104BDC0001800279000249487C097903EEFAEFFB67
:104BEC00121174740222124577E0229061D0E0F821
:104BFC007480C3982274F5121957E9FEA2AFE433FE
:104C0C00F50AC2AF7F00EA246FF8EB3400F980019B
:104C1C000F88828983E0FCEFC39C50188F08EA252B
:104C2C0008FCEB3400FDEC246BF582ED124ECA6EE1
:104C3C0070DE8010EA2CFAEB3400FB124D7DEE1284
:104C4C004B7304F0E50AA2E092AF02497674F612B7
:104C5C001957A2AFE433FFC2AFEA246FF8EB12533B
:104C6C0008FCE9FD8C828D83E014F07E0080218E9F
:104C7C0008EA2508F8EB125308246CF582E9124E69
:104C8C00CAC0E0E8246BF582E9124D83D0E0F00E47
:104C9C008C828D83E0F8EEC39840D4EA246E124DDA
:104CAC008074FF124CD2EFA2E092AF024948C0824E
:104CBC00C083E5A8F8C2AF124D7DE9124CD2E8A230
:104CCC00E792AF0243DAF0EA246AF582EB124CDD8C
:104CDC0022124D94E4F02274F21219578C828D83B7
:104CEC00A3A3A3A3E0541FF0EA243612503F8E82F4
:104CFC008F83E4F0F50C850C8285820AEC250AF88A
:104D0C00ED124F97F583E0C0E0EA250AF8EB124D5F
:104D1C0087D0E0F0750D00850882850983E0F50ADF
:104D2C00750B00E50D780A1218CEE50AA2E0502AA0
:104D3C00E50C33333354F8250DC0E08E828F83E0BD
:104D4C00F8EA28F8EB1253082438F582E9124D835F
:104D5C00D0E0F08E828F83E004F0050DE50DC39456
:104D6C000840B4050CE50CC39405408A7F06021A72
:104D7C0029EA246BF582EB124D94223400F9E824D5
:104D8C005D124D9122F582E93400F5832274F612FE
:104D9C001957900603E0640170077A007B00024EFD
:104DAC00C47E00900609E070F17401F0A3E4F0A356
:104DBC00F090066904F090066CE4F0A3F090066F96
:104DCC0004F090060CE4124EDB90061604F09006EC
:104DDC003CE4F0908FAE1217EE90061F1217FA906B
:104DEC000623E4F0A3F0A3F0900687F090067BF086
:104DFC009006707480F0A3E4F0900676F090066E46
:104E0C00F09006F2124ED39006FBF090068AF090CA
:104E1C0006DAF0A3F0908FAE1217EE9006DC1217A4
:104E2C00FA908FAE1217EE9006E01217FA9006E683
:104E3C00E4F09006E8F09006E4F09006FE124ED3F3
:104E4C008E087472124FF67406124D8374FFF00EB6
:104E5C00EEC3940440EA7E008E82A882741228F578
:104E6C00827407124ECAC0E0746428F5827406126C
:104E7C004D83D0E0F00EEEC3940540DC7E008E82B4
:104E8C00A88274ED28F5827405124ECAC0E074EA4B
:104E9C0028F5827406124D83D0E0F00EEEC3940810
:104EAC0040DC900603E004F06401700890060BE00F
:104EBC00900605F07A077B06024948F582EF124E00
:104ECC00CE22124D94E022124EDBA3124EDB22F0C6
:104EDC00A3F0A3F0A3F022C082C083EA2403F582DE
:104EEC00EB124ECA6008E4F0900604E014F0900651
:104EFC0003E014F0700690060574FFF08A828B8331
:104F0C00A3A3E4F0900717E0700D900604E0640191
:104F1C00700579001212B80243DAC082C083900681
:104F2C000AE4F0900609F0900603F0A3F0A374FFD6
:104F3C00F075E1F10243DAC082C083780079009009
:104F4C00060AE060047807790688828983A3A3A304
:104F5C00A3E0F90243DA74F6121957EAFEEBFF12DA
:104F6C0010BAEE2465F8EF124F97124FA5EC4D6076
:104F7C0010900605125230850882850983E4F0A34F
:104F8C00F0EEFAEFFB1211AA024948124F9B2234A1
:104F9C0000F988088909888222F583E0FCA3E0FDEA
:104FAC002274F7121957EAFEEBFF8E828F83A3A3AC
:104FBC00A3A3E0FA7B00120E38EEFAEFFB1210CC32
:104FCC0012118C02496874F612195778008808740B
:104FDC00ED124FF67405124B5D08E8C3940840EDD2
:104FEC009005ED0249458808744C2508F582227419
:104FFC00F6121957EA240D12503FEC2403F8ED3445
:10500C0000F988088909EC2407F8ED125308FCE92B
:10501C00FD1250491218758E828F83E8F0A3E9F0C7
:10502C001250491218758B09EA4509600312505C3D
:10503C00024948F8EB3400F9E8FEE9FF228C828D36
:10504C008312484E850882850983E0FAA3E0FB228F
:10505C008E828F83E02401F0A3E03400F02274F6FA
:10506C00121957EA242EF582EB3400124FA5EA24CC
:10507C007012503F780079FAECFAEDFB1218758E2D
:10508C00828F83E8F0A3E9F0780079FAECFAEDFB73
:10509C001218758B09EA4509600312505C024948E5
:1050AC0074F0121957EAFEEBFF741012194B7808C2
:1050BC001217D01212648A0C8B0D8C0E8D0F908FE0
:1050CC0072780C12175C908F8E780C1217AA780CD1
:1050DC00121B668E828F831244E91217EE1223780C
:1050EC007404121916E960030251948E828F83E0C6
:1050FC002402F8A3E0125308FAE9FB8A828B837826
:10510C000812176F908F8E78081217D08A828B83B3
:10511C0078081217BDEE240BF582EF124D83C08276
:10512C00C0838E828F83A3A3A3A3A3E02401F8A33F
:10513C00E03400F9D083D082E0687003A3E069709A
:10514C000479018045EE2407F8EF12457712506080
:10515C00EE247412530D7014EE247512519B7003CF
:10516C00A3E06D70078A828B83125060EE2480124C
:10517C00530D7014EE248112519B7003A3E06D70DB
:10518C00078A828B8312506079007F08021A29FAF1
:10519C00EF3400FB8A828B83E0FCA3E0FD888289DC
:1051AC0083E06C2274F3121957125238FE740639CC
:1051BC00FFEE2404F50AEF3400F50BEE2465F50838
:1051CC00EF3400F5098010124FA7850882850983FA
:1051DC00E4F0A3F012522A850882850983124FA7A6
:1051EC00EC4D6030EE2464124EC7F50C780C121B9B
:1051FC006EEE2463124EC7F9EEFAEFFB1210F67442
:10520C0001121916E985088285098360BA12484A89
:10521C00E84970077C007D0012522A024AC1850AB7
:10522C0082850B83E0FA7B00120DF622900605E0D6
:10523C00F875F004A4C8AAF02AF97407282274F2AD
:10524C00121957EAFEEBFF890A740E12194BE0FA99
:10525C00EE246212530D6003025301124BF7F50C4E
:10526C00EE2483124EC7FB60047804800278008918
:10527C0008E928F8E412530824020808E93400F974
:10528C00E50C98E499A2D265D0334065EA700575B7
:10529C000B028003750B01EB603375090078081263
:1052AC001B6A7A747B0712113E7402121916750868
:1052BC00747509077808121B6AAC0AA90B124BE823
:1052CC001219167404250AF50A7C747D07740125DD
:1052DC000AF5D9850BD97800800A8808EC124FF6AC
:1052EC00ED12475AE8C3950A40F075E195790080B4
:1052FC00067907800279FF024D78F8EF3400F9E85F
:10530C0022F582EF124ECE640122C082C08380034C
:10531C00125344E9F874FF28190470F4ECFAEDFB0D
:10532C000243DAC082C0838003125344E9F874FF4D
:10533C0028190470F40243DA8C828D83E08A828B04
:10534C0083F08C828D83A3AC82AD838A828B83A302
:10535C00AA82AB832274F4121957E9FF7E008A08E3
:10536C008B097808121BAE00040DFE549453B053F5
:10537C00C553DA53EF530454205439544B547954D5
:10538C008854A454C054DE5474016F70128C828DF6
:10539C0083E0C394035008E0900B3BF002551C7E55
:1053AC001802551C74026F70F68C828D83125C3E51
:1053BC00900B3CE8F0A3E980E274016F70E18C8201
:1053CC008D83E0C3940250D7E09002C780CD740166
:1053DC006F70CC8C828D83E0C3940550C2E0900238
:1053EC00C880B874016F70B78C828D83E0C394024F
:1053FC0050ADE09002C980A374106F70A2750810B4
:10540C008E097808121B6A7ACA7B0212600912197B
:10541C001602551C74016F70868C828D83E0C394C8
:10542C000240030253ABE09002DA0253A774016FFF
:10543C0060030253AB8C828D83E0900B3F808D74A4
:10544C00046F60030253AB908F8278081217D08DD3
:10545C00838C82780812155F40030253AB8C828DCB
:10546C00831217EE9002DC1217FA02551CEF600340
:10547C000253AB12072A12071E02551C74016F60EF
:10548C00030253AB8C828D83E0C39402400302531E
:10549C00ABE09002DB0253A774016F60030253ABC5
:1054AC008C828D83E0C3940A40030253ABE0900BD3
:1054BC003E0253A774016F60030253AB8C828D8341
:1054CC00E024F9C3940A40030253ABE0900B400272
:1054DC0053A774016F60030253AB90036EE0F88C1A
:1054EC00828D83E090036EF0E87025E064017020FB
:1054FC008084C3EA9424EB9400501374026F700EF2
:10550C008C828D83125C49120A36E9FE80020E0EE3
:10551C00EEF9025526740E1219167F04021A29741C
:10552C00F012195774CC1219008C0A8D0B7444129A
:10553C00194BE0FE742012194BAC82AD8375838F2E
:10554C007582307406121813742012194BAC82AD8C
:10555C00831206D0E9F508C3940A400302568375FA
:10556C00F006E9A4F509742612194BAC82AD837AC6
:10557C000E74201256CF743212194BE0FF900B3B75
:10558C00E06402700474018001E4F50D780D121BC7
:10559C006EEEFDEFFCA908AA0AAB0B1207547401BE
:1055AC001219167C147D007900740C12194BAA8206
:1055BC00AB83120526740C12194BAC82AD837A1096
:1055CC0074241256CFE970347C1079FF740C1219C4
:1055DC004B1256C67026741C12194BAC82AD837AD2
:1055EC000474251256CF740C12194BAC82AD83EF98
:1055FC00A2E0E433F9AA0AAB0B120AC08518828523
:10560C001983AC82AD837A0C74702508125CE67039
:10561C0055851882851983AA82AB831207007508F9
:10562C0000E50875F003A4F8A9F0851882851983A4
:10563C00E58228F8E583125E2A125C49EC4D601D68
:10564C0088828983A3A3E0F50E750F00780E121BD8
:10565C006AAA0AAB0B120D1E74021219160508E584
:10566C0008C3940440BBEFA2E1500C9002C6E0F9D1
:10567C00AA0AAB0B120D2474046E702A900B3BE03B
:10568C00640270229002DAE060047A0180027A00EF
:10569C009002C7E06004780480027800E84AF9AA16
:1056AC000AAB0B120B80790074341219167F0802A6
:1056BC001A2979FF851882851983AA82AB83120572
:1056CC0086E9222509F91208CE2274F0121957EA3C
:1056DC00FEEBFF8C088D09750A0AE9600C14600951
:1056EC0014602E14607F02577C120712E9F50AC36E
:1056FC00940A507CE50845096076750E06750F0016
:10570C00780E121B6AEEFCEFFD1260051219168062
:10571C005F750B00750E06750F00780E121B6AEE86
:10572C00FCEFFDE50B75F00EA4F8A9F074E828FA6F
:10573C00740239FB1205207402121916E9601B85DC
:10574C000B0AE50AC3940A5027E50845096021AA0B
:10575C0008AB09A90A12070C8016050BE50BC394BC
:10576C000A500D80AF120718E9F50AC3940A40D904
:10577C00A90A0256B974F4121957890875091574D7
:10578C00FF6A700374FF6B70277E00AC087A027B93
:10579C0000EEF91206EEE960037509000EEEC394F3
:1057AC000A40E8E50860497A427B07120F408040C6
:1057BC00120F228A0A8B0BAE0AAF0BEE4F602E7CB7
:1057CC00007D00EE2405FAEF3400FB8E828F8312ED
:1057DC00587C500CAC087A027B001206EE7509005E
:1057EC00E508600CEEFAEFFB120742800375091412
:1057FC00A90902552674F2121957ECFEEDFF740E2E
:10580C0012194BE0F50AA3E0F50B75081574FF6A45
:10581C00700374FF6B7021750900AC0AAD0BEEFAC6
:10582C00EFFBA9091206F4E960037508000509E508
:10583C0009C3940A503580E2120F228A828B83E5C9
:10584C0082458360237C007D00E5822405FAE58394
:10585C003400FB12587C5013AC0AAD0BEEFAEFFB84
:10586C001206F47508008003750814A908025DF28D
:10587C00A3A3A3A3E0F91206D0E9C3940A22C08221
:10588C00C0839002E0EAF0A3EBF09002C6E0FC7D4E
:10589C00007A237B00120A369002C6E0F9120C9AA9
:1058AC00D083D08202013574EA12195774EC1219A4
:1058BC00008A088B09EA240CF514EB3400F515EA80
:1058CC00240AF510EB3400F511EA2405F50EEB343F
:1058DC0000F50FEA2409F50AEB3400F50BEA240372
:1058EC00FEEB3400FF8A828B83A3A3E024FA7003BF
:1058FC00025C1124FD7003025B4114700302599C7D
:10590C0014601024FD7003025B0D147003025B74B1
:10591C00025C1A125C61604AE0F5838882125C3E7C
:10592C00880C890DE8450D6039851482851583E056
:10593C00F50E780E121B6EEA240BF582EB3400F593
:10594C0083E0F9850A82850B83125C490A0A0AEF07
:10595C00FB850C82850D83121955740112191602E0
:10596C005C1A850A82850B83121B819002DC12174C
:10597C00EE120AD27402121916E97003025C1A793B
:10598C0001850A82850B83126307120ACC025C1A0A
:10599C008A828B83A3858212858313E06003025A6B
:1059AC00E5850E82850F83E0A2E04003025AE57C78
:1059BC000E7D007900851882851983AA82AB83122B
:1059CC000526E5082408F50AE5093400F50B850AD7
:1059DC0082F583125C646019750C06750D00780CE9
:1059EC00121B6A850A82850B83E02410FCA3E080DD
:1059FC001A125C31EA4B7003025C1A750C06750DB9
:105A0C0000780C121B6AEA2405FCEB3400FD7402CE
:105A1C0012194BAA82AB83126009121916850E82D9
:105A2C00850F83E0A2E25004D2F08002C2F0A2F013
:105A3C00E433F8740C12194BE048F0851082851190
:105A4C0083125C646015851082851183E02410F844
:105A5C00A3E03400F9888289838003908F86780CC8
:105A6C001217D0851082851183125C64600F85102B
:105A7C0082851183E0F510A3E0F511800675100006
:105A8C00751100850A82850B83125C64600F850A90
:105A9C0082850B83E0F50AA3E0F50B8006750A00FE
:105AAC00750B00780C121B667810121B6A780A12A0
:105ABC001B6A851482851583121B818508828509D2
:105ACC0083A3125C44740A12194BAA82AB8312078B
:105ADC0006740A121916125C24125C617003025CC3
:105AEC001A125C4F7003025C1A851282851383E0D4
:105AFC00FC79011263038882850983121955025CB3
:105B0C001A125C24125C617003025C1AE0F5838843
:105B1C0082A3A3125C3E890BE8450B7003025C1A4E
:105B2C00850882850983A3E0FC79021263038882CD
