:020000040000FA
:0600000002010A0225A620
:03002B0002224D61
:0300330002226640
:0300530002261C66
:03007B0002220A54
:10008300022497E5C754F84401F5C779012200001B
:100093000080FB120086B900030200F4E4792178A2
:1000A3000FB800028004F709D8FCE479307802B86D
:1000B30000028004F709D8FCE490028178EF790DFF
:1000C3008002F0A3D8FCD9FA900F6FAA82AB839079
:1000D300013A785B79028015E493A3AC82AD838AFD
:1000E300828B83F0A3AA82AB838C828D83D8E9D9D8
:1000F300E77582A37583FF740312011C75829175E2
:100103008300740012011C75D00075813F7518813E
:10011300751902759F00020096C09FF59FE473D086
:100123009F22D083D082C09FE493C0E0740193C028
:10013300E0740293F59F22FF544920424C4520412D
:100143006C6C00000000000000000000001100FFC4
:100153000000033000310032003300340035003634
:1001630000370038003900300031003200330034EA
:100173000035003600370038003900D419291A2910
:100183001A291A291A311AE607F8072208EC07FF79
:100193000000B4000028002800283075A000A0004B
:1001A300A000A00000080008E001F000100010000B
:1001B30010001000100010005000500050001000FC
:1001C3001000D0070000000000000F00307507008A
:1001D3001000010081FF0000FF8A09A8099009FFB0
:1001E30002020A0A025000A0000000E803021E9166
:1001F3000100001B91023691010000181002329198
:100203000100002A04023691010000191002309106
:1002130001000040040236910100001A10022E91E1
:1002230003000042040236910100001B10022C91CE
:1002330003000043040236910100001C10022A91BE
:100243000100001D10FFFF0100FF20021E910100AD
:1002530000189102369101000082100228910000DB
:100263000000000234910300002405A413A413A486
:1002730013A413A413A413A413A413A413A413A4C3
:1002830013A413A4131A16381614165817701752FA
:1002930017120125FCFF0312012591F60312012514
:1002A3009BF603120125DCF60312012525F7031241
:1002B30001255FF703120125B5F703120125D6F7D0
:1002C30003120125DFF70312012533F80312012579
:1002D3005CF80312012566F80312012570F8031276
:1002E3000125DEF8031201256EF903120125C9F970
:1002F30003120125F7F9031201257FFA03120125E1
:10030300BEFA03120125F3FA0312012512FB0312AD
:1003130001251BFB03120125DDFB0312012527FC2D
:1003230003120125F9C204120125A7C804120125ED
:10033300C97D00120125FE7D00120125327E0012C7
:1003430001257F7F0012012547C8041201255DC8DE
:10035300041201254D9C04120125609C0412012501
:10036300249D04120125639D04120125809D04121E
:100373000125B99D04120125069E04120125389E0C
:10038300041201256F9E0412012582A00412012587
:10039300B97F00120125E87F001201253FC704122F
:1003A3000125EB7F00120125FCC8041201253BC97E
:1003B3000412012590C9041201251CC6041201254B
:1003C3002CC60412012544C604120125ACC604122E
:1003D3000125F7C1041201257CC204120125E0C2E4
:1003E30004120125DFC404120125E2C4041201250D
:1003F3001BC5041201256CC5041201256AA404124D
:1004030001257EA404120125F8A404120125DCA50C
:1004130004120125B3A7041201255FB104120125BB
:10042300FFB10412012546B20412012592B204124F
:10043300012551B30412012578B304120125A4B395
:1004430004120125B7B304120125CCB3041201250C
:10045300D5B304120125B429001201252F2A001255
:100463000125EE2A00120125482C00120125C62D74
:1004730000120125682E0012012574370012012590
:100483009C3E00120125B94700120125DD480012E8
:100493000125125300120125BF5300120125665591
:1004A300001201253A560012012574560012012547
:1004B3007EC504120125EFC504120125FAC50412F5
:1004C30001250AC60412012515C60412012507BF1A
:1004D3000412012559BF04120125CCBF04120125C2
:1004E30039C00412012587AE04120125B1AE0412EE
:1004F300012580AF041201255CB004120125EDB083
:100503000412012505DA03120125D1DA03120125AC
:1005130012DB0312012570DB03120125C4DB031276
:10052300012522DC03120125B8DC03120125C0DDFD
:10053300031201254ADF03120125E8DF0312012517
:100543004FE00312012566E00312012585E1031242
:100553000125C5C704120125F5C7041201252AC8C0
:10056300041201252CC8041201252EC804120125EA
:100573003FC80412012541C80412012544C80412CE
:100583000125BAB6041201252CB7041201254EB772
:100593000412012586B704120125BCB704120125F4
:1005A30052AB0412012595AB04120125B3AB04121F
:1005B3000125E9AD0412012521AE0412012545AE42
:1005C30004120125B5FF02120125EBE803120125F0
:1005D300C4E903120125AFEA03120125C0EA03129D
:1005E3000125D1EA031201251BEB03120125A7EC18
:1005F3000312012508EE0312012538EE031201252B
:1006030006EF0312012566EF03120125D8FD02123E
:10061300012511FE0212012527FE0212012554FEB7
:100623000212012584FE021201259BFE02120125FE
:10063300B2FE02120125EDFE021201251EFF021277
:1006430001256FFF0212012586FF021201259DFF7E
:100653000212012554BD041201256BBD04120125AC
:100663009ABD04120125D3BD04120125FBBD04125A
:10067300012529BE0412012540BE0412012557BEDF
:10068300041201256DBE0412012594BE0412012536
:10069300A7BE04120125BDBE04120125D0BE04125B
:1006A3000125F5BE0412012548A60212012547A71C
:1006B3000212012571A702120125BBA7021201250F
:1006C300C6A702120125E7A702120125FBA7021202
:1006D30001252AA8021201252CA8021201254DA8E2
:1006E3000212012546A90212012588AA0212012538
:1006F30045AB0212012512AC0212012576AC02129F
:1007030001250DAD0212012510AD0212012596AD92
:1007130002120125D9AD021201252BAE02120125C9
:100723002EAE0212012565AE021201258CAE021215
:10073300012522AF02120125ABAF02120125F4AF4E
:100743000212012501B00212012504B00212012593
:1007530062B00212012565B0021201258FB00212A8
:100763000125E3B0021201255DB10212012560B13A
:10077300021201259BB1021201259EB1021201252D
:1007830010B20212012513B202120125BAB20212EB
:100793000125BDB2021201254DB30212012565B335
:1007A3000212012595B302120125A2B302120125FB
:1007B300A5B30212012511B4021201251EB40212BF
:1007C30001250CB502120125C2B5021201253EAC6A
:1007D3000312012519AD0312012547AD03120125AB
:1007E300C7AD03120125E7AD0312012525AE0312A0
:1007F300012578AE03120125E0AE0312012571AF86
:10080300031201253CB0031201254BB3031201254A
:10081300B7B403120125DAB403120125BC8E041206
:100823000125509004120125A490041201258A91F8
:1008330004120125E99104120125F79104120125FF
:10084300209204120125E0EF0312012508F00312A0
:10085300012536F0031201256DF003120125CFF0B7
:100863000312012564F203120125ADF203120125DF
:10087300F8F20312012536F30312012573F3031271
:100883000125A1F30312012548F40312012552F4B3
:10089300031201255FF40312012592F403120125CB
:1008A30054F50312012560F50312012578F50312AF
:1008B300012582F50312012500F603120125F0C379
:1008C30004120125FEC30412012516C404120125D6
:1008D3002EC40412012546C4041201253AB602129D
:1008E3000125D8B60212012550B70212012565B8B9
:1008F300021201259FB80212012531B90212012506
:10090300DAB902120125AFBA0212012513BC021291
:1009130001256ABC02120125F1BC02120125D8BDD2
:100923000212012525BE02120125B3BE02120125C2
:10093300D7BE02120125ACC002120125EDC002127E
:1009430001250FC10212012590C1021201257AC2AD
:100953000212012540C30212012575C502120125A9
:10096300129703120125E497031201258D980312B0
:100973000125C998031201258199031201259A992A
:1009830003120125B49903120125419A031201258B
:10099300CD9A03120125AE9B03120125DD9B0312A1
:1009A3000125D99C03120125219D03120125D79D01
:1009B300031201253B9E03120125A79E0312012565
:1009C300D49E031201255F9F0312012528A1031260
:1009D30001256CA10312012592A103120125B6C6BC
:1009E300041201258FA004120125A5A004120125DC
:1009F300CBA004120125F3A104120125FDA10412C9
:100A0300012556A30412012556A40412012560A44E
:100A1300041201250185041201250E860412012505
:100A23004286041201258486041201253E8804129D
:100A33000125DBC50112012559C60112012569C62D
:100A430001120125AFC60112012535C70112012587
:100A530010C8011201253CC80112012579C80112F1
:100A6300012590C80112012517C90112012521C9C9
:100A73000112012533C9011201256BC90112012598
:100A8300BBC9011201251ACA011201255DCA01124F
:100A9300012568CA0112012573CA0112012522CB5F
:100AA3000112012525CB0112012528CB01120125B5
:100AB3002BCB011201252ECB0112012507CC0112EC
:100AC30001254ECC01120125B8CC011201252DCDF3
:100AD300011201254BCE011201254FD00112012530
:100AE30006D20112012582D2011201255FD3011220
:100AF30001258DD6011201252BD70112012588D896
:100B030001120125FBD901120125A4DA01120125E5
:100B1300EDDA0112012524DB01120125C9DB0112E3
:100B2300012547DC011201254DF101120125A2F136
:100B330001120125E7F201120125F7F20112012545
:100B43001AF3011201256AF30112012560F401125F
:100B530001252AF501120125A2F601120125E4F669
:100B63000112012582F701120125CFF70112012598
:100B7300F5F701120125E3F901120125E8F9011244
:100B83000125C9FB011201251DFC011201257FFC72
:100B930001120125A7FC011201254BFD01120125BC
:100BA3000DFE011201253EFE0112012541FE011237
:100BB300012589FE01120125CBFE0112012532FF19
:100BC300011201253CB9041201254FB90412012574
:100BD30058B90412012571B904120125BCB90412D4
:100BE300012597BA0412012526BB0412012571BB06
:100BF300041201259CAD01120125ACAD01120125A2
:100C03000FAE0112012554AE0112012504AF0112EA
:100C13000125DDAF0112012506B00112012536B011
:100C2300011201254AB20112012526B40112012540
:100C330006B6011201253EB701120125B7B901120B
:100C43000125A3BA01120125E9BB01120125F6BC56
:100C53000112012538BD0112012570BD01120125C4
:100C63008ABD01120125F2BD011201258CC20112B8
:100C7300012532C30112012570C3011201258FC35F
:100C830001120125E3C301120125EBC40112012561
:100C930074C501120125FBDC0112012505DD0112DA
:100CA3000125C8DD0112012503DE011201253BDE0A
:100CB3000112012584DE01120125B2DE0112012594
:100CC30007DF0112012561DF01120125A0DF0112F7
:100CD3000125FBDF01120125B9E001120125CFE057
:100CE3000112012507E1011201252BE10112012562
:100CF3006DE101120125B2E101120125EAE10112C0
:100D0300012509E20112012531E2011201255BE30C
:100D13000112012587E301120125C4E30112012514
:100D2300F3E30112012526E401120125ADE40112CA
:100D33000125F4E40112012541E60112012555E6DE
:100D43000112012574E60112012588E6011201252D
:100D5300BAE601120125ECE601120125A3E701120F
:100D63000125CBE70112012519E80112012528E825
:100D73000112012584E801120125BEE801120125B3
:100D8300FDE8011201253FE90112012572E9011273
:100D93000125A5E901120125D0E9011201252BEA5C
:100DA3000112012570EA01120125D4EA011201257D
:100DB30045EB011201258DEB01120125C9EB01124F
:100DC30001251BEC0112012557EC011201259AECB8
:100DD3000112012514ED011201254CED011201252B
:100DE30088ED01120125CFED01120125F9ED011264
:100DF300012536EE0112012560EE011201259DEE5B
:100E030001120125E1EE011201252AEF011201254C
:100E13007FEF01120125A8EF01120125FFEF011257
:100E2300012548F00112012572F00112012597F006
:100E33000112012525F101120125749304120125E4
:100E4300B093041201257A9404120125CD9404125F
:100E53000125B995041201252F96041201257196D7
:100E6300041201259E970412012584C5021201254F
:100E7300ADC502120125C6C5021201250BC7021218
:100E83000125E9C70212012508C80212012595C8E8
:100E930002120125D8C80212012510CA0212012527
:100EA3007CCA0212012572CC0212012500CF021264
:100EB300012593CF0212012567D0021201250AD121
:100EC30002120125F4D10212012560D30212012579
:100ED300F6D30212012561D4021201259FC0041228
:100EE300012508C1041201255CC1041201257EC13C
:100EF30004120125A5C104120125D6C1041201253E
:100F0300F89704120125659804120125B09804127C
:100F13000125A59904120125A19A041201258B9B91
:100F230004120125D1BF0312012513C003120125A9
:100F3300EDC003120125C6C103120125C1C203126C
:100F43000125A0C3031201250CC403120125B4C457
:100F530003120125D2C403120125EEC40312012595
:100F630097C50312012502C60312012569C60312A0
:100F730001256CC60312012597C60312012508C774
:100F8300031201259BC70312012504C8031201257F
:100F930019C80312012561C8031201257AC8031277
:100FA3000125DFC803120125E2C80312012518A891
:100FB3000412012554A80412012592A80412012544
:100FC3005CA904120125CFA9041201250AAA04125F
:100FD300012548AA0412012578AA041201259FAA13
:100FE300041201250AAB04120125975600120125AC
:100FF300735800120125B95A00120125875B0012AC
:101003000125CA5B00120125135C00120125575C00
:1010130000120125BF5C00120125315D001201257C
:10102300405D00120125565D00120125A25D0012EC
:101033000125DA5D00120125315E00120125545E9F
:1010430000120125885E00120125AB5E0012012506
:101053003F5F00120125695F00120125E25F001264
:101063000125336000120125976000120125626398
:10107300001201255F6400120125C26400120125DC
:10108300496500120125E966001201252F67001248
:1010930001253F6800120125706800120125C4680C
:1010A30000120125B769001201255C6B00120125AE
:1010B300B86B00120125FF6B00120125CA700012E4
:1010C3000125F270001201252F71001201251B73F7
:1010D30000120125107400120125A77500120125C5
:1010E300DC75001201254E760012012526770012C9
:1010F30001254E7700120125797700120125A47787
:1011030000120125C07700120125DA7700120125AC
:10111300F97700120125607800120125EB7800129F
:1011230001252F79001201255179001201257D7ABD
:1011330000120125417B00120125667B0012012567
:10114300507C001201256B7C00120125137D0012D7
:1011530001259E7D001201250DB4041201257FB4E3
:1011630004120125D5B40412012519B50412012571
:1011730039B50412012586B504120125CEB5041232
:10118300012521B60412012572B60412012506C9F0
:101193000312012523C903120125B0CE0312012531
:1011A300B2CF031201252CD103120125DAD1031288
:1011B3000125399101120125829101120125AF9177
:1011C30001120125E29101120125F291011201257B
:1011D300FE91011201250F9201120125E4920112E1
:1011E3000125429301120125779301120125AE9344
:1011F300011201254A950112012584950112012549
:10120300EF950112012581960112012527970112FD
:101213000125AC97011201252E980112012578981A
:1012230001120125A89901120125039B0112012531
:10123300DA9B01120125FF9B01120125449C011237
:101243000125549C01120125709C01120125739CF8
:10125300011201252D9D01120125F69D0112012583
:10126300869E01120125229F01120125479F01122B
:101273000125A69F0112012535A0011201258AA08F
:1012830001120125B3A00112012513A101120125A9
:10129300A1A1011201256AA20112012507A30112CE
:1012A30001258EA301120125E5A30112012546A400
:1012B3000112012580A40112012529A5011201258E
:1012C30077A50112012567A701120125B7A701120E
:1012D300012507A8011201257CA80112012506A9F1
:1012E3000112012551A90112012576A90112012537
:1012F300C7A901120125F0A90112012535AA01127E
:101303000125A4AA01120125E6AA01120125E6ABD3
:101313000112012580AC0112012551AD01120125F5
:101323006AAD0112012512B60312012565B6031237
:10133300012571B60312012546B7031201256DB7C6
:1013430003120125A8B70312012514B803120125BE
:1013530038B80312012566B8031201259FB803129A
:101363000125B7B80312012510B90312012529B9C4
:101373000312012572B90312012585B90312012550
:101383009FB903120125B5B903120125D1BA03127E
:101393000125E2BB031201252FBD0312012514BE53
:1013A30003120125FC7F00120125F4890412012593
:1013B300598D04120125718E04120125B6F0021213
:1013C3000125A9F602120125AFF6021201252FF914
:1013D30002120125008004120125AB8004120125AD
:1013E3005B81041201258081041201257783041295
:1013F3000125CA84041201250080021201253480CC
:1014030002120125398A02120125858B0212012558
:10141300A28C021201252C8E021201250E8F0212BC
:101423000125488F021201256B8F02120125AD8F12
:1014330002120125B68F0212012500900212012526
:101443000A9002120125B690021201258A91021216
:101453000125DE9102120125409202120125939289
:1014630002120125C29202120125019302120125E3
:101473000094021201255A9C02120125609C02125B
:10148300012513A202120125F9A50212012555FC1B
:1014930003120125CBFC03120125E1FC03120125F4
:1014A3001EFD0312012556FD03120125D3FD031270
:1014B30001250EFE0312012589FE03120125C5FE37
:1014C30003120125CEFE03120125DAFE03120125C4
:1014D300F4FE0312012519FF031201252FFF031246
:1014E300012573FF03120125FCD1031201250FD23D
:1014F3000312012529D20312012552D20312012519
:1015030095D203120125D4D20312012512D303125B
:10151300012577D3031201258CD30312012597D319
:1015230003120125A4D303120125BBD30312012502
:10153300C9D303120125D8D303120125EDD3031216
:10154300012502D4031201250DD40312012519D458
:101553000312012526D40312012539D403120125D0
:1015630044D40312012569D4031201256ED4031256
:1015730001250AD50312012570D50312012580D553
:101583000312012595D503120125AAD503120125BE
:10159300C4D503120125DFD503120125FCD503129F
:1015A300012507D603120125C3D603120125AFD7A0
:1015B30003120125CBD703120125E2D7031201251C
:1015C300ECD70312012500D80312012521D80312F9
:1015D300012582D80312012588D8031201258ED84C
:1015E3000312012594D8031201259AD80312012569
:1015F300C1D803120125FCD80312012515D9031202
:10160300012555D90312012588D90312012507A203
:101613000312012533A20312012517A30312012587
:10162300B1A503120125C7A603120125E4A70312DE
:10163300012587A8031201252DA9031201252CE3F7
:1016430002120125AEE30212012557E4021201251D
:101653009FE502120125ADE70212012593E802126C
:101663000125C8E802120125EAE80212012593E9DF
:101673000212012563EB021201258CEB02120125F4
:1016830004EC0212012536EC0212012543EC02128E
:1016930001258EEC02120125B2EC0212012503EFA3
:1016A300021201250DF00212012569F00212012533
:1016B3009FD402120125B0D50212012594D602123D
:1016C30001259ED602120125A8D602120125CAD6EB
:1016D30002120125D6D6021201257AD8021201255B
:1016E300A7D802120125BDD90212012512DA02126E
:1016F300012561DB0212012536DC0212012592DC91
:1017030002120125FDDC0212012532DD0212012540
:1017130075DD021201253FE00212012557E0021296
:101723000125E8E002120125F6E00212012543E15A
:101733000212012551E102120125BDE10212012528
:1017430038E2021201258FE202120125F48B031203
:101753000125168C03120125278E03120125E6901D
:1017630003120125109203120125CE9203120125C3
:10177300BA93031201259BBB04120125C0BB0412BB
:10178300012536BC04120125CEE103120125D7E160
:1017930003120125E0E103120125B8E2031201253A
:1017A30069E40312012599E403120125C4E4031239
:1017B3000125F4E4031201251FE50312012553E576
:1017C300031201257FE503120125C2E5031201255A
:1017D300EDE50312012534E60312012589E6031220
:1017E3000125CBE60312012525E70312012550E766
:1017F300031201259FE703120125CFE703120125F9
:10180300FAE70312012528E8031201254BE8031226
:1018130001250080031201253680031201257980FA
:10182300031201258480031201258F8003120125F1
:101833009A8003120125A58003120125E183031277
:101843000125B68403120125308503120125A785DE
:1018530003120125B48503120125C1850312012555
:10186300CB8503120125D58503120125F1850312CA
:101873000125018603120125438603120125828671
:10188300031201258C860312012596860312012576
:10189300A08603120125AD8603120125B786031224
:1018A3000125C18603120125CB8603120125D586A6
:1018B300031201251F87031201253C87031201250B
:1018C30059870312012569870312012573870312C0
:1018D3000125CE8703120125DB87031201259F888B
:1018E30003120125A98803120125B38803120125D8
:1018F300BD8803120125DA8803120125F788031234
:101903000125BB8903120125C48903120125D88946
:1019130003120125F58903120125028A0312012509
:101923000B8A03120125328A03120125598A0312F5
:101933000125668A03120125708A03120125808A14
:1019430003120125998A03120125A38A0312012593
:10195300B38A03120125C38A03120125CD8A031218
:101963000125DD8A03120125ED8A031201250C8B63
:1019730003120125198B03120125268B031201255E
:10198300368B03120125468B03120125568B031256
:101993000125888B03120125928B03120125A28B4B
:1019A30003120125AF8B03120125B98B0312012505
:1019B300C68B03120125D08B03120125E08B031282
:1019C3000125EA8B0312012545C90412012572C9B9
:1019D3000412010002020000205104AA16090001AA
:1019E30002030109024300020100801909040000F7
:1019F300010202010005240010010424020205244F
:101A03000600010524010001070582034000400987
:101A1300040100020A0000000705840240000107D8
:101A2300050402400001EF190000121A0000E066ED
:101A3300701008A3E066700A08A3E066700408A3A8
:101A4300E06622C3E7960809E7960809E7960809BE
:101A5300E79622C3E09608A3E09608A3E09608A3BE
:101A6300E09622C008C3E096F50808A3E096420872
:101A730008A3E096420808A3E09645087001D3D076
:101A83000822BB0102E722C082C08389828A83BB0A
:101A93000003E08002E493D083D08222BB000EC017
:101AA30082C0838A838982F0D083D08222BB0101E2
:101AB300F722080808EAC0E0EBC0E086F0E7A4FAE2
:101AC300180986F0E7A42AFA180986F0E7A42AFA87
:101AD300180986F0E7A42AFA1986F0E7A4FBE5F0D3
:101AE3002AFA190886F0E7A42BFBE5F03AFA19085D
:101AF30086F0E7A42BFBE5F03AFA18180986F0E71D
:101B0300A4C5F02BFBE43AFA1908E7C5F0C6A426EE
:101B1300F6E5F03BFBE43AFA1886F0E7A4F6E5F0C5
:101B23000826F6E43B08F6E43A08F6D0E0FBD0E0FA
:101B3300FA22E4CFC0E0E4CEC0E0E4CDC0E0E4CCE0
:101B4300C0E075F020C3E633F608E633F608E63363
:101B5300F608E633F6181818EC33FCED33FDEE33D4
:101B6300FEEF33FFC3EC9709ED9709EE9709EF9763
:101B7300191919400FFFEC97FC09ED97FD09EE9732
:101B8300FE191906D5F0BEECF709EDF709EEF709D2
:101B9300EFF7191919D0E0FCD0E0FDD0E0FED0E05A
:101BA300FF226016080808C6C313C618C613C61852
:101BB300C613C618C613C6D5E0EA2270090808087A
:101BC300226016181818C6C333C608C633C608C61B
:101BD30033C608C633C6D5E0EA22E627F60809E687
:101BE30037F60809E637F60809E637F622E026F65F
:101BF30008A3E036F608A3E036F608A3E036F6229B
:101C0300E026F008A3E036F008A3E036F008A3E0EE
:101C130036F022C3E697F60809E697F60809E69731
:101C2300F60809E697F622C3E096F008A3E096F0DB
:101C330008A3E096F008A3E096F022E657F6080919
:101C4300E657F60809E657F60809E657F622E0567E
:101C5300F608A3E056F608A3E056F608A3E056F606
:101C630022E056F008A3E056F008A3E056F008A3DC
:101C7300E056F022E066F608A3E066F608A3E06605
:101C8300F608A3E066F622E0F608A3E0F608A3E070
:101C9300F608A3E0F622E6F008A3E6F008A3E6F0D0
:101CA30008A3E6F022E0FAA3E0FBA3E0FCA3E0FD37
:101CB30022EAF0A3EBF0A3ECF0A3EDF022CAC0E01C
:101CC300E6F0A308DAFAD0E0FA22CAC0E0E0A3C53E
:101CD30082CCC582C583CDC583F0A3C582CCC58222
:101CE300C583CDC583DAE6D0E0CA22C3E498F8E41D
:101CF30099F9121D2F8026C3E49AFAE49BFBE9208D
:101D0300E7E9121D2FE498F8E499F922C3E498F85F
:101D1300E499F9121D2FE498F8E499F9C3E49AFAC7
:101D2300E49BFB22EB20E7CFE920E7E0B90010BBFF
:101D33000008E88AF084F8AAF022E4FBC8FA22EB50
:101D430070227B10C833C8C933C9335007C39AC341
:101D5300DBF280069A50012ADBEAC833F4C8C933A0
:101D6300F4C9FA2275F008E4C833C8C933C933C9C2
:101D73009AC99B5004C92AC93BD5F0ECFBC833F47C
:101D8300C8E4C9FA22600D08C6A2E713C618C61331
:101D9300C6D5E0F322600C08C6C313C618C613C623
:101DA300D5E0F422700422600D18C6C333C608C6FA
:101DB30033C6D5E0F41822251810AF08F5184002F1
:101DC30015198008F51840021519D2AF22C0D02585
:101DD3001810AF08F518500205198008F5185002BD
:101DE3000519D2AFD0D0222518F58210AF08F51807
:101DF300400215198008F51840021519D2AF85194C
:101E030083222518F582E43519F58322E473251816
:101E1300C582C0E0E51934FFC583C0E0E518C3956A
:101E23008224F810AF08858319858218800885837A
:101E330019858218D2AFCEF0A3E520F0A37808E687
:101E430008F0A3DEFAEFF0A3E58124FAF8E608F040
:101E5300A3E608F0A3E608F0A30808E608F0A3E663
:101E630008F0A315811581D0E0FED0E0F8158115A7
:101E7300811581E8C0E0EEC0E0222518C582C0E0EC
:101E8300E51934FFC583C0E0E518C3958224F91032
:101E9300AF08858319858218800885831985821880
:101EA300D2AFCEF0A3E520F0A37808E608F0A3DED6
:101EB300FAEFF0A3E58124FBF8E608F0A3E608F0C7
:101EC300A30808E608F0A3E608F0A315811581D05E
:101ED300E0FED0E0F815811581E8C0E0EEC0E02215
:101EE300851983851882E0A3FEE0A3F5207808E036
:101EF300A3F608DFFAE0A3FFE0A3C0E0E0A3C0E09D
:101F0300E0A3C0E0E0A3C0E0E0A3C0E010AF088519
:101F130082188583198008858218858319D2AFD0EA
:101F230083D082020122851983851882E0A3FEE013
:101F3300A3F5207808E0A3F608DFFAE0A3FFE0A307
:101F4300C0E0E0A3C0E0E0A3C0E0E0A3C0E010AFC6
:101F5300088582188583198008858218858319D29C
:101F6300AFD083D08222C0D02518C582C0E0E51946
:101F730034FFC583C0E0E518C3958224F310AF088E
:101F83008583198582188008858319858218D2AFC5
:101F9300C8F0A3E9F0A3EAF0A3EBF0A37908E709FB
:101FA300F0A3D8FAECF0A3EDF0A3EEF0A3EFF0A3C7
:101FB300D0E0F0A3D0E0F0A3D0E0F0A3E520F0A3BD
:101FC300E5F0F0A322851983851882E0C0E0A3E041
:101FD300F9A3E0FAA3E0FBA37808E0F608A3DFFA8D
:101FE300E0FCA3E0FDA3E0FEA3E0FFA3E0C0E0A3C9
:101FF300E0C0E0A3E0F5D0A3E0F520A3E0A3F5F073
:1020030010AF088583198582188008858319858216
:1020130018D2AFD082D083D0E0F8D0E032740480FD
:102023000A74038006740280027401C0E0F404128F
:102033001DEAD0E0121CC0227404800874038004DB
:1020430074028000CCC0E0EDC0E0E518C39CCCADC9
:102053001950011D10AF068C188D1980068C188D30
:1020630019D2AF121CCDD0E0FDD0E0FC22D083D03A
:1020730082C5F0E493A3C5F0C395F0F5F0E493A310
:10208300C395F04005E5F0048001E475F002A42552
:1020930082F582E5F03583F583E493A3C0E0E4930E
:1020A300C0E022D083D082E9C0E0E493A3C386F0EA
:1020B300C5F095F0F908E493A386F0C5F095F070A8
:1020C3000BE493A3C3994005E9048002A3E475F0EC
:1020D30002A42582F582E5F03583F583D0E0F9E4A7
:1020E30093A3C0E0E493C0E022D083D082CCC0E0CD
:1020F300E493A360061221161470FAE493A3600616
:102103001221351470FAD0E0FCE493A3C0E0E49309
:10211300C0E022C0E0E493A3D39C5010E493A3C394
:102123009C400AD0E0D0E0D0E0022109A3A3A3D0D1
:10213300E022C0E0E493A36C7009D0E0D0E0D0E0EB
:10214300022109A3A3D0E022D083D082ECC0E0ED2A
:10215300C0E0E493A3FCE493A3FDED4C600D1221D6
:1021630097EC24FFFCED34FFFD80EFE493A3FCE444
:1021730093A3FDED4C600D1221D6EC24FFFCED344E
:10218300FFFD80EFD0E0FDD0E0FCE493A3C0E0E4EA
:1021930093C0E022C0E0C3E49396087401939618B9
:1021A300400FE4936670080874019366187000701A
:1021B30019A3A3C3E49396087401939618A3A340A9
:1021C3000DD0E0D0E0D0E0022187A3A3A3A3A3A373
:1021D300D0E022C0E0C0F088F0E493667008087491
:1021E300019366187000A8F0A3A3700BD0F0D0E0A1
:0E21F300D0E0D0E0022187A3A3D0F0D0E022FC
:10220400C2AF02000022C0E074F2121F69A2AFE460
:1022140033FED2AFE58AA2E250079002CAE0D2E0D0
:10222400F0E58AA2E350079002CAE0D2E1F0758A91
:1022340000C2EB7A107B009002C6E0F91202FAEEBB
:10224400A2E092AF7F01021FC8C0E0C0D0E8C0E0A6
:10225400E5A8D2AFC2C7A2E792AFD0E0F8D0D0D001
:10226400E032C0E074F1121F69E59DA2E650FA90D5
:102274006206E0FAA2E25035A826E890620BF0F577
:102284000885270974047808121D98E508906207E8
:10229400F085260885270974097808121D98E50831
:1022A400543E906209F0906201E0D2E0F07823EAB3
:1022B40046F6906202E0F508750900740478081285
:1022C4001DA77823E50846F608E50946F69062045A
:1022D400E0F50875090074097808121DA77824E54B
:1022E4000946F6EAA2E0500375250174065A600314
:1022F400752500E58BA2E55006758BDF7525001268
:10230400057C758B00C2E87F02021FC874F5121E9B
:102314007DEAFEEBFFEE2434F8EF3400F9880889F7
:1023240009EE2435122448F8EE2437122448F50A1D
:10233400EC850AF0A4FCAAF0850AF0EDA42AFDE8D5
:102344002CF8E43DF97A257B00121D2FEA850882DA
:10235400850983F05407F87401B800028004C3337C
:10236400D8FCC0E0E0131313541FF8EE28F8EF3440
:1023740000F9E8245DF582E93400F583D0E0F8E063
:10238400586008850882850983801DEE243612244E
:1023940048F5F0EA84A8F0EE28F8EF3400F9E824D0
:1023A40038F582E93400F583E0F97F04021F2974CB
:1023B400F5121E7DEAFEEBFFEE2434122448C0E041
:1023C400EE2435F582EF3400F583D0E0F08E828F71
:1023D40083A3A3A3A3A3E0FAA3E0FB8E828F83A32A
:1023E400A3A3A3A3A3A3E0FCA3E0FDECC39AF50A73
:1023F400ED9BF50BEE2480F508EF3400F509850814
:1024040082F583E06401702BEE2481F582EF3400C1
:10241400F5831220431224517402121DD0E9601373
:102424007C617D09EEFAEFFB1212B48508828509FE
:1024340083E4F0AC0AAD0BEEFAEFFB122310122981
:102444009C0223AEF582EF3400F583E022C082C003
:1024540083851882851983E0F8A3E0F9C3EA9CEB2D
:102464009D500BC3EC98ED99401279018010C3EA9A
:1024740098EB9940F5C3EC98ED9950EE7900D08330
:10248400D08222EAC39CFAEB9DFB22008528878533
:1024940029C622C0E074EF121F69759B0090618207
:1024A400E0A2E64003022558E591A2E64003022596
:1024B400587591BF90061AE0640570081214BE1294
:1024C40014CA80031214C4752800121542E9900638
:1024D4001BF079001215241211D67A017B009006A4
:1024E40019E0F91202FA907803E0644260030225CD
:1024F400A19009ECE014F060030225A1C2AF1225FB
:1025040005007831D0E0F618D0E0F6E59F5407F9DD
:1025140070059090B080039091147808121C8AE999
:10252400C4C0E07830E65508F50808E65509F50911
:10253400740B7808121D98D0E02508F8906270E0BA
:10254400A2E740F8E8C333906272F0906270E0D280
:10255400E0F08049E0A2E55024E591A2E5501E7523
:1025640091DF90061AE0640D701390063CE004F0CD
:1025740064287002E4F07A00E0F912160290618196
:10258400E0A2E35009E5E9A2E3500375E9F7A3E00B
:10259400A2E75009E591A2E7500375917F7F0402F9
:1025A4001FC8C0E0C0D0C082C083906183E0A2E0B5
:1025B4005009E5BFA2E0500375BFFEE0A2E1500957
:1025C400E5BFA2E1500375BFFDE0A2E25009E5BFFB
:1025D400A2E2500375BFFBE0A2E35009E5BFA2E30A
:1025E400500375BFF7E0A2E45009E5BFA2E450032D
:1025F40075BFEFE0A2E55009E5BFA2E5500375BF42
:10260400DFE0A2E65009E5BFA2E6500375BFBFD0E4
:1026140083D082D0D0D0E032C0E074F2121F69E5DA
:10262400A7A2E4500FE5A1A2E4500953A7EF75A1B6
:10263400EF122670E5A7A2E5500CE5A1A2E550062D
:1026440053A7DF75A1DFE5A7A2E15009E5A1A2E147
:10265400500375A1FDE5A7A2E2500CE5A1A2E2504A
:102664000653A7FB75A1FB7F01021FC874F8121E55
:102674007D75280190061AE0640670077A007B00D5
:102684001214A6A2AFE433FED2AF900620E0640198
:1026940070187A207B00900619E0F91203787A20EA
:1026A4007B00900619E0F9120300906182E0D2E603
:1026B400F09009EBE0602185C629801690061FE0A2
:1026C40064017008E5C654F84405F5C653BEFC120F
:1026D40024907401652860E4EEA2E092AF7F0102C9
:1026E4001F2900008E2A8F2B85822F85832E851823
:1026F40082851983E0CEA3E0CF852F82852E83EBDC
:10270400C9EAC8EDCBECCA75F010C3E833C8E933A5
:10271400C9EA33CAEB33CBC3EA9EF52DEB9FF52C04
:10272400B35004AB2CAA2DEC33CCED33CDD5F0DA79
:10273400AE2AAF2B2274F1121E7D8A088B098C0AF3
:102744008D0B740F121E05780C121C8A9090D87889
:1027540008121C519090D8780C121C517808790CEE
:10276400121A4650157808790C121C169090BC78F1
:1027740008121A66401579018013780C7908121C26
:10278400169090BC780C121A6640EB79007F080210
:102794001F2974ED121E7D8A088B098C0A8D0B7417
:1027A40013121E05780C121C8A9090D87808121CFB
:1027B400519090D8780C121C51780C7908121A4652
:1027C40040117808790C121C16AA08AB09AC0AADA2
:1027D4000B802275100075110075120075130178B5
:1027E40010790C121C1678107908121BDDAA10AB94
:1027F40011AC12AD137F0C021F299090D8780812E7
:102804001C8A8A828B837808121C647F04021F2925
:1028140074F5121E7D8C828D837808121C8A8A823C
:102824008B837808121C2A122868C3E098F0A3E06E
:102834009912285A401E9090CC7808121C8A8A82D9
:102844008B837808121C038E828F83E02420F0A3EC
:10285400E0344EF080A4F08E828F83C3E09420A3F2
:10286400E0944E22EA2404F8EB3400F9E8FEE9FF90
:102874008C828D83A3A3A3A3E0F8A3E0F98E828FB7
:10288400832274F5121E7DE9FE900977E0FAA3E035
:10289400FBEEC333F8E433F9742728F582749039D6
:1028A400F583E02AF508A3E03BF50978081220280F
:1028B400909110121CA81226E87402121DD08A08E6
:1028C4008B098C0A8D0B74107808121BA5AA08AB0F
:1028D400097F04021F2974F1121E7D8A0C8B0D8C52
:1028E4000E8D0F740F121E05E0FAA3E0FB74111293
:1028F4001E05E0F508A3E0F5097413121E05E0FEB9
:10290400A3E0FF7808122028EA2401F508EB34003C
:10291400F509E4F50AF50B780C7908121AB59090CC
:10292400C87808121C8A780C7908121AB5AA0CAB5C
:102934000DAC0EAD0F1226E87402121DD08B09EAFD
:10294400450960047A0180027A00EC2AFCED340027
:10295400FDECF8EDF97A717B02121D2F88088909C4
:10296400E4F50AF50B8E828F837808121C99ECF833
:10297400EDF97A717B02121D2F8A088B0974057890
:1029840008121DA78E828F83A3A3A3A3E508F0A337
:10299400E509F07F08021F29C082C083E990600026
:0629A400F0D083D0822276
:1029AC00FFFFFFFFFFFFFFFF74F7121E11E99002FC
:1029BC00FCF01218309002FCE0F91209E4120A3211
:1029CC009002FCE0F9120A389002FCE0F9120BF4C8
:1029DC009090CC121CA8120A1A9090CC121CA8121F
:1029EC000C127A707B0F12029A7C707D0F79001298
:1029FC000A147C857D0F7A027901120A147C617DA0
:102A0C00037A10790212054C7C717D037A107903DC
:102A1C0012054C7CFD7D027A04790412054C7F0171
:102A2C00021EE374F4121E118A088B09EB548060A9
:102A3C00739002FCE0F91202E28A0A8B0BAE0AAF29
:102A4C000BEE4F60568E828F83E0246F600924FE5C
:102A5C00703C120462803AA3E0640E70378E828F51
:102A6C0083A3A3A3A3A3122043EE24FDF582EF348A
:102A7C00FFF583E024F9FC8E828F83A3A3A3123E7F
:102A8C0006FB790E120E947402121DD080061204ED
:102A9C0086E96007EEFAEFFB1202CAAA08E50964A0
:102AAC0080FB803BEB544060137CFD7D027A047903
:102ABC0004120546AA08E509644080E5EAA2E05044
:102ACC000AC2AF75C9AB75C95B80FE5402600C12AB
:102ADC002204E5086402FAAB0980047A007B000248
:102AEC0048D874F4121E1174F9121DBAEAFEEBFFE9
:102AFC00851882851983E4124749122E43C0E0746D
:102B0C0001121E05D0E0125178A882A983E0FCA323
:102B1C00E0FBECFA7402121E05EAF0A3EBF0E824D9
:102B2C00020808E9125091C0E07404121E05D0E0AE
:102B3C0012517808A9837405121E0512476274029B
:102B4C00121E05E0F508A3E085080AF50B7407785A
:102B5C000A121D98780A1220A6010004F42B742B7B
:102B6C008A2B9D2BBA2BD72B7401121E05AA82AB74
:102B7C0083E508547FF912046EE9F508806D740141
:102B8C00121E05AA82AB83E508547FF912047480E7
:102B9C00E8851882851983AC82AD837401121E05F9
:102BAC00AA82AB83E508547FF912047A80CB85188E
:102BBC0082851983AC82AD837401121E05AA82AB87
:102BCC0083E508547FF912048080AE85188285193C
:102BDC0083AC82AD837401121E05AA82AB83E50817
:102BEC00547FF91204688091750801EEFAEFFB121C
:102BFC0002CA900329747FF0A37406F0E508A3F0D1
:102C0C007402121E05E090032CF07402121E05A330
:102C1C00E044FC90032DF0851882851983E0900325
:102C2C002EF07C297D03851882851983E02406FA11
:102C3C0079FF120E9A790074070248D574E8121EB7
:102C4C00118A828B83ECFEEDFFA3A3A3A3E0F50A0C
:102C5C00A3E0F50B750C008E828F83E41256318540
:102C6C008208858309E96012146039147003022C00
:102C7C00FE147003022DB6022DBC850A82850B83CF
:102C8C00E09090B4701712203B7A017B009002FC0C
:102C9C00E0F912036C7404121DD0022DBF12203BFC
:102CAC007A0280E7850A82850B83E0F985088285A4
:102CBC000983E0FAC394325010E924FE60111460C9
:102CCC000E14700574046A600B750C02022DBF742F
:102CDC00106A70F57C2F7D0312054CE9F50C60032E
:102CEC00022DBF850882850983E08E828F83F002D6
:102CFC002DBF850A82850B83E0F50E850882850938
:102D0C0083E0FAE50E24FE600D14600A1470BA74A8
:102D1C00046A70B5800574106A70AEE50A2402FE70
:102D2C00E50B3400FFEEFCEFFDA90E120546E9F5AC
:102D3C000C7404650E707C8E828F831246D1850ACA
:102D4C0082850B83A3A3A3E0F514E4F515F516F522
:102D5C001774087814121BBE78107914121BDD85B9
:102D6C000A82850B83A3A3A3A3E0F514E4F51574E1
:102D7C00107814121BBE78107914121BDD850A8290
:102D8C00850B83A3A3A3A3A3E0F508E4F509F50A37
:102D9C00F50B74187808121BBE78107908121BDD1D
:102DAC009002FD7810121C998009120396022CD502
:102DBC00750C01A90C7F10021EE374F4121E117421
:102DCC00F4121DBA89088A828B83A3A3A3122E4303
:102DDC00FEA3E0FDEE2400E43DFFE82402FCE93410
:102DEC0000FDE50824F6602624F87044122E4912E2
:102DFC0020287402121E05AA82AB83120F6674027D
:102E0C00121DD0E9702C122E5D120EF48024122E9D
:102E1C00491220287402121E05AA82AB83120F5489
:102E2C007402121DD0E9700A122E5D120EEE800291
:102E3C007901740C0248D5A312555CE0228A828B6E
:102E4C0083A3A3A3E024FEF50AE434FFF50B780A70
:102E5C00229002FC123752EEFAEFFB2274EE121E95
:102E6C001174E7121DBA890C8A0E8B0F8A828B8320
:102E7C00A3A3A3A3123E0B8C828D83123E06F9EA08
:102E8C002400F50AE439F50B75081E750991EC243C
:102E9C0003FAED3400FBEC2402FEED3400FFE50CEC
:102EAC00122070011DCA36EF2E2A2F672F9E2FF38A
:102EBC002F2B30C630FE30C031F83136326E32AC8A
:102ECC0032E43222335A33D83310348434CA36CAFB
:102EDC0036B234493581350136CA362F36CA365E9C
:102EEC00369F3685188285198385820885830978F3
:102EFC000812202812375F1206B47402121DD0E992
:102F0C00F50D60030236CD851882851983AC82AD30
:102F1C0083AA0AAB0B120654E9F50D0236CD8518BF
:102F2C008285198385820885830978081220288573
:102F3C000E82850F83123E881220280C0CEFFD7A2E
:102F4C000079001206C07404121DD0E9F50D60035F
:102F5C000236CD123747120A3E80BD85188285197C
:102F6C0083858208858309780812202812375F121E
:102F7C0006CC7402121DD0E9F50D60030236CD8526
:102F8C001882851983AC82AD83AA0AAB0B12065A40
:102F9C00808685188285198385820885830978083F
:102FAC00122028850E82850F83123E881220280C51
:102FBC000CEFFD7A0079001206D87404121DD0E9CA
:102FCC00F50D60030236CD7402121E0512204390DB
:102FDC0002FCE0F97402121E0512372F120A6274F9
:102FEC0002121DD0022F2485188285198385820830
:102FFC00858309780812202812375F1206E47402C0
:10300C00121DD0E9F50D60030236CD8518828519A5
:10301C0083AC82AD83AA0AAB0B120660022F248507
:10302C0018828519838582108583117810122028C7
:10303C001237191220280C0CEFFD7A0079001206B9
:10304C00F07404121DD0E9F50D60030236CD740442
:10305C00121E051237071220287407121E058582CE
:10306C000E85830F780E1220281236F9121DD0E926
:10307C006042851882851983E064017002A3E070B8
:10308C00337402121E05E0F47003A3E0F4702512F1
:10309C003E6312202C7408121E05E0F97409121EEE
:1030AC0005AC82AD83AA0AAB0B120A4A7401121D3D
:1030BC00D0022F24750D020236CD85188285198316
:1030CC00858208858309780812202812375F12063A
:1030DC00FC7402121DD0E9F50D60030236CD851883
:1030EC0082851983AC82AD83AA0AAB0B12066602E9
:1030FC002F24851882851983858208858309780891
:10310C00122028850E82850F83123E8812202812E9
:10311C0036EB121DD0E9F50D60030236CD740412A6
:10312C001E051237101220287407121E05858208FE
:10313C0085830978081220287C027D007A267B91F1
:10314C00123701121DD0E9601B7402121E051220E9
:10315C00439002FCE0F97402121E0512372F120A7A
:10316C0050022FEB7404121E051237101220287413
:10317C0007121E0585820885830978081220287C91
:10318C00027D007A367B91123701121DD0E9601B4B
:10319C007402121E051220439002FCE0F974021214
:1031AC001E0512372F120A56022FEB123747120A3E
:1031BC006E022F24851882851983858208858309E0
:1031CC00780812202812375F1207147402121DD0CF
:1031DC00E9F50D60030236CD851882851983AC8222
:1031EC00AD83AA0AAB0B12066C022F2485188285BC
:1031FC0019838582088583097808122028850E8218
:10320C00850F83123E881220280C0CEFFD7A007972
:10321C00001207207404121DD0E9F50D600302366C
:10322C00CD123747120A68022F248518828519831C
:10323C00858208858309780812202812375F1207C7
:10324C002C7402121DD0E9F50D60030236CD8518E1
:10325C0082851983AC82AD83AA0AAB0B120672026B
:10326C002F2485188285198385820885830978081F
:10327C00122028850E82850F83123E881220280C7E
:10328C000CEFFD7A00790012074A7404121DD0E984
:10329C00F50D60030236CD123747120A74022F2443
:1032AC008518828519838582088583097808122000
:1032BC002812375F1207567402121DD0E9F50D6003
:1032CC00030236CD851882851983AC82AD83AA0A98
:1032DC00AB0B120678022F24851882851983858200
:1032EC00088583097808122028850E82850F8312A1
:1032FC003E881220280C0CEFFD7A00790012076230
:10330C007404121DD0E9F50D60030236CD12374757
:10331C00120A7A022F2485188285198385820885E2
:10332C008309780812202812375F12076E74021274
:10333C001DD0E9F50D60030236CD85188285198301
:10334C00AC82AD83AA0AAB0B12067E022F24851821
:10335C00828519838582108583117810122028129A
:10336C0037191220281236EB121DD0E9F50D600327
:10337C000236CD7404121E0512370712202874076A
:10338C00121E0585820E85830F780E1220281236A8
:10339C00F9121DD0E970030230C08518828519839B
:1033AC00E064017002A3E060030230C07402121EDC
:1033BC0005E0F47003A3E0F460030230C09002FC5B
:1033CC00E0F9AA0AAB0B120A44022F248518828555
:1033DC001983858208858309780812202812375FA3
:1033EC0012077A7402121DD0E9F50D60030236CD76
:1033FC00851882851983AC82AD83AA0AAB0B1206A1
:10340C0084022F2485188285198385820885830977
:10341C007808122028850E82850F83A3A3A3E024AD
:10342C00FC123E92122028EC2404FCED3400FD8AA0
:10343C00828B83E0FA8E828F83E0F9123E19121D83
:10344C00D0E9F50D60030236CD7418121E05E0703C
:10345C0009123747120A8C022F247417121E0512F8
:10346C0046B1AC82AD83AA0AAB0B7006120A80027D
:10347C002F24120A86022F248518828519838582AF
:10348C0008858309780812202812375F12073E74CA
:10349C0002121DD0E9F50D60030236CDAA0AAB0B62
:1034AC0012068A022F248518828519838582088545
:1034BC0083097808122028850E82850F83123E8896
:1034CC001220280C0CEFFD7A007900120786740488
:1034DC00121DD0E9F50D60030236CD900382123E29
:1034EC007C700F7A737B0012033C900382EAF0A38A
:1034FC00EBF0900382123E7C603D900381E0C3941C
:10350C000540030230C0851882851983C082C083B0
:10351C00900381E075F017A4F8A9F0900382E028DD
:10352C00FCA3E039FDD083D0827417121CCD90031C
:10353C0081E004F00236CD750D130236CD8518826C
:10354C00851983858208858309780812202812370B
:10355C005F1207927402121DD0E9F50D600302365A
:10356C00CD851882851983AC82AD83AA0AAB0B1268
:10357C000690022F248518828519838582088583FD
:10358C00097808122028850E82850F83123E881236
:10359C0020280C0CEFFD7A01790012079E7404129E
:1035AC001DD0E9F50D60030236CD900382123E7CEE
:1035BC0070030230C0123E6312202C7401121E05DF
:1035CC00123E6612202C900381E0F9900382123790
:1035DC002F120A987402121DD0E9F50D600A90039F
:1035EC0082123E06FB120342900382E4F0A3F09099
:1035FC00038102353F85188285198385820885836E
:10360C0009780812202812375F1207A47402121DC1
:10361C00D0E9F50D60030236CDAA0AAB0B12069663
:10362C00022F248518828519838582088583097861
:10363C00081220281237371220281236DC121DD01F
:10364C00E9F50D707C8E828F8312374A120B64025F
:10365C002F2485188285198385820885830978082B
:10366C001220281237371220281236DC121DD0E90E
:10367C00F50D704D123E6312202C8E828F83E0F973
:10368C007401121E05AC82AD83AA0AAB0B120B5E41
:10369C000230B8851882851983858208858309785C
:1036AC000812202812375F1207B67402121DD0E9D7
:1036BC00F50D700DAA0AAB0B12064E022F24750DD8
:1036CC0001A90D1204AA7419121DD07F0A021EE35F
:1036DC000C0C0CEBFD7A0079001207B07404220C70
:1036EC000CEFFD7A0079001207087404227C027D2D
:1036FC0000AA08AB091207C2740422E0F50E750F7C
:10370C0000780E22E0F508750900780822850E82F3
:10371C00850F83A3A3A3E024FEF50EE434FFF50F7D
:10372C00780E22123E0BAA0AAB0B22850E82850F55
:10373C0083A3A3A3E024FD123E92229002FC123735
:10374C0052AA0AAB0B22E0F9851882851983AC8248
:10375C00AD8322850E82850F83A3A3A3E024FEFCF8
:10376C00E434FFFD1AEFFB2274EA121E1174E0120E
:10377C001DBA890E8A828B83A3A3A3A3E0F508A3A9
:10378C00E0F509850882F583E0FCA3E0F9EC240060
:10379C00F50CE439F50DE5082405F512E5093400BE
:1037AC00F513E5082404F510E5093400F511E508D6
:1037BC002402FEE5093400FFE5082403F50AE509B7
:1037CC003400F50BE50E1220EC0016021B38041029
:1037DC003906683808D6380A5D390CD9390E1B3AC7
:1037EC0010603812D93A16113B1B663D1DA73D30AF
:1037FC008B38328B38349F39365D3A389A3A3ACC1A
:10380C003B3CAA3C3EEC3C402E3D42113BF43D740B
:10381C0007121E0585820885830978081220281254
:10382C003E84122028EEFCEFFD7A0079001206C0CF
:10383C007404121DD0E9F50A6003023DF7123E5BD9
:10384C00121E05AC82AD83AA0CAB0D120A3EE9F533
:10385C000A023DF7123E2F120A4480F2123E631206
:10386C00202C8A828B83A3A3A3E024FEF9EEFCEF29
:10387C00FDAA0CAB0D120A4A7401121DD080CF1296
:10388C003E1F7404687001E9703A123E4B2400FC30
:10389C00E439FD123E39F508E439F5097430650E4A
:1038AC0078087010122028123E2F120A507402123F
:1038BC001DD0809A122028123E2F120A5674021222
:1038CC001DD0808A750A04023DF77407121E058507
:1038DC0082088583097808122028123E8412202839
:1038EC00EEFC1236ED121DD0E9F50A6003023DF72D
:1038FC00123E5B121E05AC82AD83AA0CAB0D120AF4
:10390C005C02385A7407121E058582088583097873
:10391C0008122028123E84122028EEFCEFFD7A00BB
:10392C0079001206D87404121DD0E9F50A6003025E
:10393C003DF77409121E051220439002FCE0F97445
:10394C0009121E05123E0BAA0CAB0D120A620238AC
:10395C00B97407121E058582088583097808122020
:10396C0028123E84122028EEFCEFFD7A007900121A
:10397C0007207404121DD0E9F50A6003023DF7120A
:10398C003E5B121E05AC82AD83AA0CAB0D120A680D
:10399C0002385A7407121E05858208858309780837
:1039AC00122028123E84122028EEFC1236ED121D35
:1039BC00D0E9F50A6003023DF7123E5B121E05AC1E
:1039CC0082AD83AA0CAB0D120A6E02385A74071220
:1039DC001E058582088583097808122028123E84EA
:1039EC00122028EEFCEFFD7A00790012074A7404CD
:1039FC00121DD0E9F50A6003023DF7123E5B121E60
:103A0C0005AC82AD83AA0CAB0D120A7402385A7441
:103A1C0007121E0585820885830978081220281252
:103A2C003E84122028EEFCEFFD7A0079001207622A
:103A3C007404121DD0E9F50A6003023DF7123E5BD7
:103A4C00121E05AC82AD83AA0CAB0D120A7A023899
:103A5C005A7407121E05858208858309780812207E
:103A6C0028123E84122028EEFCEFFD7A01123E173C
:103A7C00121DD0E9F50A6003023DF77407121E050A
:103A8C00AC82AD83AA0CAB0D120A8002385A7407B3
:103A9C00121E058582088583097808122028123E9B
:103AAC0084122028EEFCEFFD7A017901123E1912E6
:103ABC001DD0E9F50A6003023DF77407121E05AC30
:103ACC0082AD83AA0CAB0D120A8602385A74071207
:103ADC001E058582088583097808122028123E84E9
:103AEC00122028123E11121DD0E9F50A6003023D86
:103AFC00F7123E5B121E05AC82AD83AA0CAB0D1205
:103B0C000A8C02385A8A828B83A3A3A3E0FA24FE80
:103B1C00F8E434FFF9C3E89405E99400A2D265D027
:103B2C003350030238D074FA2AF5147404121E05AB
:103B3C00E514F0FA7B0012033C7405121E05EAF042
:103B4C00A3EBF07405121E05123E7C606D123E4B09
:103B5C00851882851983124763123E39F874021254
:103B6C001E051247627404121E05E0F50A750B005F
:103B7C00780A122028E5082406FCE5093400FD74B7
:103B8C0007121E051246A9121DD07416650E90025E
:103B9C00FC7008123E6C120A928006123E6C120ADD
:103BAC00B0E9F50AE50A7003023DF77405121E052B
:103BBC00123E06FB120342023DF7750A13023DF753
:103BCC00123E1FC3E89401E99400A2D265D0335091
:103BDC00030238D08E828F83E0F50F74FF250FC35C
:103BEC0094054003023CA4E50F75F017A4FAABF062
:103BFC0012033C8A088B09AE08AF09EE4F60BB85F7
:103C0C000A08850B0975100080598508828509837F
:103C1C00E02404F512A3858208858309E51075F06C
:103C2C0017A4F8A9F0EE28F50AEF39F50B780A126B
:103C3C00202885120A750B00780A122028AC08ADD2
:103C4C00097A0079001207867404121DD0E9F50A6E
:103C5C006003023DF7E5082512F508E5093400F587
:103C6C00090510E510C3950F40A0123E6312202CDD
:103C7C00750801780812202CA90FEEFCEFFDAA0C98
:103C8C00AB0D120A987402121DD0E9F50A700302EA
:103C9C003DF7EEFAEF023BBF750A02023DF77407DF
:103CAC00121E058582088583097808122028123E89
:103CBC0084122028EEFCEFFD7A00790012072074A4
:103CCC0004121DD0E9F50A6003023DF7123E5B12A7
:103CDC001E05AC82AD83AA0CAB0D120A9E02385A9B
:103CEC007407121E0585820885830978081220281E
:103CFC00123E84122028EEFCEFFD7A0079001207A8
:103D0C004A7404121DD0E9F50A6003023DF7123E15
:103D1C005B121E05AC82AD83AA0CAB0D120AA40279
:103D2C00385A7407121E0585820885830978081293
:103D3C002028123E84122028123E11121DD0E9F5C3
:103D4C000A6003023DF7123E5B121E05AC82AD8386
:103D5C00AA0CAB0D120AAA02385A7407121E05855A
:103D6C00820885830978081220288A828B8312376F
:103D7C003D122028AC0AAD0B1236E1121DD0E9F52C
:103D8C000A70688E828F83123E5E121E05AC82AD65
:103D9C0083AA0CAB0D120B6402385A7407121E0561
:103DAC0085820885830978081220288A828B8312E1
:103DBC00373D122028AC0AAD0B1236E1121DD0E9AA
:103DCC00F50A7027123E6312202C8E828F83E0F945
:103DDC007408121E05AC82AD83AA0CAB0D120B5EDF
:103DEC007401121DD002385A750A01A90A1204AACC
:103DFC007420121DD07F0E021EE3E0FAA3E022E035
:103E0C00FCA3E0FD22EEFCEFFD7A007900120732F4
:103E1C007404228A828B83A3A3A3E024FEF8E434E7
:103E2C00FFF9229002FCE0F9AA0CAB0D228510825E
:103E3C00851183E0FA851282851383E0F9EA228EDC
:103E4C00828F83E0FA850A82850B83E0F9EA22905F
:103E5C0002FCE0F97407229002FCE0F508780822D5
:103E6C00123752AA0CAB0D22A3A3A3A3A3A3A3A303
:103E7C00E0F8A3E0F9E849228A828B83A3A3A3E0AC
:103E8C0024FE123E9222F508E434FFF5097808224C
:103E9C0074EA121E1174A5121DBA8C0C8D0D8A8237
:103EAC008B83A3A3A3A3E0FEA3E0FFEE2402F50AF9
:103EBC00EF3400F50B8E828F83A3858208858309EE
:103ECC00E97003023F6724FD700302406C14700319
:103EDC000240C21470030241041470030241B11475
:103EEC00700302420B14700302422214700302414D
:103EFC000E1470030241A014700302422D147003BF
:103F0C0002451A1470030245B914700302449D143F
:103F1C00700302442414700302441B147003024106
:103F2C005E24E1700302452B14700302455E14708D
:103F3C00030245A71470030245C2147003024635F0
:103F4C0014700302464C147003024559147003029A
:103F5C00465214700302455902465C8E828F83E0F0
:103F6C00F5147C107900AA0AAB0B12031EE9701928
:103F7C00750C10750D00780C122028AC0AAD0B7A5C
:103F8C00617B03125058121DD0EE2412F50AEF3447
:103F9C0000F50B7C107900AA0AFB12031EE97019BC
:103FAC00750C10750D00780C122028AC0AAD0B7A2C
:103FBC00717B03125058121DD0EE242212467EF54E
:103FCC000CE4F50DF50EF50FEE2423F582EF1250EF
:103FDC008B1246C9121BBE780C7910121BDDEE2415
:103FEC0024F582EF12508B12469E121BBE780C7970
:103FFC0010121BDDEE2425F582EF12508B12469326
:10400C00121BBE780C7910121BDDE50C450D450E0C
:10401C00450F60089002FD780C121C99750AFD750D
:10402C000B02780A122028750A71750B03780A1294
:10403C0020287C617D03850882850983E0FBAA1416
:10404C009002FCE0F912039C7404121DD0E9FE905E
:10405C0002FCE0FC7D007A237B0012084602465EDF
:10406C00750A00750B00740A121E05AC82AD8375BF
:10407C0083907582827406121CCD750C06F50D7832
:10408C000C122028740C121E05AC82AD83AA08AB4E
:10409C00091202B27402121DD0E96401600685088F
:1040AC000A85090BAA0AAB0B8E828F83E0F91208E2
:1040BC005EE9FE02465E9002FCE0C0E07410121E47
:1040CC0005D0E012474EE0C0E07411121E05D0E09E
:1040DC00124776C0E07412121E05D0E0124749E078
:1040EC00C0E07413121E05D0E0F07410121E05AA65
:1040FC0082AB831207CE80B99002FCE0F91207D490
:10410C0080AF9002FC1246B112474EE0C0E0740141
:10411C00121E05D0E0124776C0E07402121E05D0C4
:10412C00E012478DC0E07403121E05D0E0124781E7
:10413C00122028EEFCEFFD7406121E0512505412CC
:10414C001DD0851882851983AA82AB8312081C02A4
:10415C0040BD1246B9851882851983124768FAA3A7
:10416C00E0F9EAF87402121E0512479C7404121E40
:10417C000512479C7406121E0512479C7408121EE9
:10418C0005124762851882851983AA82AB831208AF
:10419C00280240BD1246C3E439FB9002FCE0F91240
:1041AC0008DC0240BD8E828F831246B1124776C066
:1041BC00E07401121E05D0E0124781122028EEFC9B
:1041CC00EFFD7404121E05125054121DD0EE24067D
:1041DC00124688C0E07408121E05D0E0124749E070
:1041EC00C0E07409121E05D0E0F085188285198391
:1041FC00AA82AB839002FCE0F91209600240BDACCC
:10420C000AAD0BE0FB8E828F83E0FA9002FCE0F9A2
:10421C001209660240BD9002FCE0F912096C0240E2
:10422C00BD750C00750D007C187D0079007414129E
:10423C001E05AA82AB831202B81246B9F874141286
:10424C001E05E8124768C0E07416121E05D0E01275
:10425C004749AE82AF83E0C0E07417121E05D0E070
:10426C001247490EAF8375081075090078081220A3
:10427C0028EEFCEFFD741A121E05125054121DD0BC
:10428C00124685C0E07428121E05D0E012478DC07E
:10429C00E0742B121E05D0E0124754A30E0EAF8310
:1042AC00A2E0E433FCEAA2E15004D2F08002C2F0B6
:1042BC00A2F0E433F8EAA2E25004D2F08002C2F099
:1042CC00A2F0E433F508EAA2E35004D2F08002C273
:1042DC00F0A2F0E433F50A750B00EAA2E45004D224
:1042EC00F08002C2F0A2F0E433F50E750F00EAA2E2
:1042FC00E55004D2F08002C2F07429121E05124659
:10430C00F5121DA7124665121DA7EA450A54EFFACD
:10431C007404780E121DA7EA450E124670121DA7E2
:10432C00EA4508F87429121E051247628E828F83A3
:10433C00E0A30EAF837003024408E0C0E0740A12DD
:10434C001E05D0E012478DC0E0740B121E05D0E0A4
:10435C0012478DC0E0740C121E05D0E012478DC0C0
:10436C00E0740D121E05D0E0124754A2E0E433FCB9
:10437C00EAA2E15004D2F08002C2F0A2F0E433F8D9
:10438C00EAA2E25004D2F08002C2F0A2F0E433F5CB
:10439C0008EAA2E35004D2F08002C2F0A2F0E433A7
:1043AC00F50AEAA2E45004D2F08002C2F0A2F0E4D2
:1043BC0033F50CEAA2E55004D2F08002C2F0740E80
:1043CC00121E051246F5121DA7124665121DA7EA0C
:1043DC00450A54EFFA7404780C121DA7EA450C1226
:1043EC004670121DA7EA4508F8740E121E051247F6
:1043FC0062740A121E0585820C85830DAC0CAD0D02
:10440C007414121E05AA82AB831208E80240BD1276
:10441C0046DC1208EE0240BD124713122028EEFCB7
:10442C00EFFD7442121E05125054121DD012468517
:10443C00FAA3E0F9EAF87450121E0512476212470B
:10444C00AF750C08780C122028EEFCEFFD7454129A
:10445C001E05125054121DD08E828F83A3A3A3A3CA
:10446C00A3A3A3A3E0C0E0745A121E05D0E0F0751C
:10447C000B01780B12202C7441121E05AC82AD83FB
:10448C00A90AAA08AB091209007401121DD0024036
:10449C00BD124713122028EEFCEFFD742E121E05E0
:1044AC00125054121DD0124685F50CE4F50EF50F82
:1044BC00A31246C9121BBE780C7910121BDD8E821A
:1044CC008F83A3A312469E121BBE780C7910121B6D
:1044DC00DD8E828F83A3A3A3124693121BBE780C8E
:1044EC007910121BDD743C121E05E50CF0A3E50DD2
:1044FC00F0A3E50EF0A3E50FF0742C121E05AC82B0
:10450C00AD83A90AAA08AB091208E20240BD124603
:10451C00C3FCE439FDAA0AAB0B1208F40240BD8EB1
:10452C00828F83E0FA7B00850882850983E0FC8515
:10453C000A82850B83E0F9EC2400E439FDEA64235C
:10454C00600BEA942450061208460240BD7E02021B
:10455C00465E78FF79FF8E828F83E0FA7B00F460F1
:10456C0024EA6423601FEAC39424501912084C8A6D
:10457C00088B09A808A90974FF68700374FF6960A7
:10458C00047E0080027E02850C82850D837402F00D
:10459C00E890032FF0E9A3F002465EEE2410FCEF46
:1045AC003400FDEEFAEFFB1208BE0240BD1246DCF1
:1045BC001209DE0240BDE0F50EF58285820C750D08
:1045CC00002404FAE43400FB12033C8A088B09EA49
:1045DC00450960518E828F83E08A828B83F0A3E53C
:1045EC000EF0EA2402F8EB34000A0AFBE508240476
:1045FC000808E5093400F98A828B83124762780C2B
:10460C00122028AC0AAD0B8A828B831246A9121D8C
:10461C00D0AA08AB09120972E9FE6036AA08AB09E8
:10462C00120342802D7E1380298E828F83E0F91233
:10463C000978EA4B70030245591203427E0080123E
:10464C0012097E0240BD7E028C828D83E40245A35A
:10465C007E01EEF9745B023DFEEA450854F7FA74EC
:10466C0003780A22541FFAA2F0E433F50874057893
:10467C000822F582EF12529B22EE2410FEEF34003A
:10468C00FF8E828F83E022E0F510E4F51274187827
:10469C001022E0F510E4F5117410781022123E0689
:1046AC00FB12512B22E0851882851983221246BDFC
:1046BC002212473BF9EA221246BD2400221246D1AF
:1046CC007408781022E0F510E4F511F512F51322B8
:1046DC00850A82850B83E0F98E828F83E0FC850846
:1046EC0082850983E0FBECFA22E054FEFAA3E0FB9E
:1046FC00EA4C54FDFAE8C333F8EA48F8EBF9E8540D
:10470C00FBFA740278082212473BF8E4C8F9EA2451
:10471C0000F508E439F5090E0EAF0B8E828F83E09D
:10472C00F50AA3AE82AF83750C10880D780C228E1F
:10473C00828F83E0FA850882850983E02212474E36
:10474C00A322F08E828F832212474EA3E0FA22F925
:10475C00851882851983E8F0A3E9F022F0A3E9F02B
:10476C000E0EAF0B8E828F83E022F0AE08AF098E57
:10477C00828F83E02212479275080675090078082B
:10478C0022124792E022F08E828F83A30EAF8322F7
:10479C00E8F0A3E9F01247AF8E828F83123E06F940
:1047AC00EAF822EE24020E0EEF3400FF2274F4120B
:1047BC001E1174FE121DBAEAFEEBFF8518828519D4
:1047CC0083E4F0F508F50904121E05E4F07C28FDDD
:1047DC00F97A017B031202B88E828F83E0245E602B
:1047EC004324F2605D14700302487B24E1600302F1
:1047FC0048A07401121E0585820885830978081269
:10480C0020287402121E05858208858309780812F7
:10481C0020287C017D03EEFAEFFB12048C74041249
:10482C001DD0806C85188285198385820885830943
:10483C0078081220287C017D03EEFAEFFB1204921B
:10484C0080497401121E0585820885830978081237
:10485C0020287402121E05858208858309780812A7
:10486C0020287C017D03EEFAEFFB12049880AE85C4
:10487C001882851983858208858309780812202877
:10488C007C017D03EEFAEFFB12049E7402121DD024
:10489C008A088B09EEFAEFFB1202CA851882851979
:1048AC0083E0600AAC08AD09FA79FF120E9AE508AC
:1048BC00450960117401121E05E064017007AA0815
:1048CC00AB0912034279007402121DD07F04021E40
:1048DC00E374E8121E1174FE121DBAEAFEEBFF8C93
:1048EC00088D09751000750A00750B00EC2406F88C
:1048FC00ED3400F9EC2405FAED3400FBEC2404F55E
:10490C0016ED3400F5178C828D83A3858214858374
:10491C0015EE2403F50EEF3400F50F8E828F83A372
:10492C008582128583138E828F83A3A3E01220705D
:10493C00000F2B506049DD49E14AF54A084B214BE9
:10494C00D44BF34B534C714C174DE44C754FAA4F51
:10495C00DA4EE34E8C828D83E41251F7122028122A
:10496C0050B1121DD012525AC0E0125083D0E0F058
:10497C00750A10780A1220287C617D03E508240C46
:10498C00FA1250BB121DD0780A1220287C717D03BC
:10499C00E508241CFA1250BB121DD0851282851317
:1049AC0083E070217C617D037A1079021205467CCC
:1049BC00717D037A1079031205467CFD7D027A0421
:1049CC00790412054685080A85090B75102C0250CE
:1049DC002B851282851383E06003024AA4850E8224
:1049EC00850F83E07003024AA433333354F8240454
:1049FC0012505C7003024A9B8A828B837401F0A371
:104A0C0074061251D78512828513831251D0850EEC
:104A1C0082850F831251D08E828F83A3A3A3A3E030
:104A2C00F8A3E012475B7E00804E1250DA1251D090
:104A3C001250DAA31251D07516067517007816129B
:104A4C0020287402121E05E02402FCA3E03400FDB1
:104A5C00AA0CAB0D125058121DD0E50C2406F50C07
:104A6C00E50D3400F50D0E851882851983E02408B8
:104A7C00F8A3E0340012475B850E82850F83E0F8C3
:104A8C00EEC39840A5741C121E051250ED800885CB
:104A9C0012828513837413F0851282851383E07060
:104AAC000C850E82850F83E0600302502B850882F3
:104ABC0085098374011251AA8512828513831256BB
:104ACC000CF0850882850983A3A3A3E41251C87551
:104ADC00100402502B8C828D83740212519C74062C
:104AEC001252038C0A8D0B80E68C828D8374031218
:104AFC0052EA8C0A8D0B75100502502B8C828D831B
:104B0C0074041251AA8E828F831250D312514D7598
:104B1C00100302502B8C828D83740512519C04124D
:104B2C0052BE1220281250C4121DD08E828F83A325
:104B3C00A3A3A3A3A3A3A3A3A31256111251B3C05F
:104B4C00E0125083D0E0125173C0E0E508240C123F
:104B5C005087D0E0F01250AA12508BA3E0C0E0E5D1
:104B6C0008240D125087D0E0F0EE240EF81250906D
:104B7C00C0E0E508240E125087D0E0125178E0C056
:104B8C00E0E508240F125087D0E0F0EE241008085E
:104B9C00125090C0E0E5082410125087D0E012515A
:104BAC0078E0C0E0E5082411125087D0E0F0EE2444
:104BBC001212467EC0E0E5082412125087D0E01293
:104BCC0051C875101302502B8C828D8374061251B0
:104BDC009C1252031252F512516D8A828B83125120
:104BEC004F75100602502B8C828D83740712519CCA
:104BFC0014F08512828513831250D4125155125021
:104C0C00D4A3A3A312516D85168285178312517FED
:104C1C008A828B83125190888289831251E01251BF
:104C2C00A48C828D83A3A3A3A3A3A3125155A3A3E6
:104C3C00A3A3A31250D31251B38C828D83A3125110
:104C4C004675100B02502B8C828D8374081252BB4C
:104C5C001220281250C4121DD085080A85090B7524
:104C6C00100A02502B8C828D8374091252BB1220B5
:104C7C00281250C4121DD08E828F83A3A3A3A3A38A
:104C8C00A3A3A3A3A3780C121C8A8508828509838D
:104C9C00A3A3A3A3A3A3A3A3A3A3125236121C8A58
:104CAC00E50DF50CE508240B12522E121C8A74101B
:104CBC00780C121BA5E508240C12522E121C8A74B7
:104CCC0018780C121BA5E508240D125087E50C1260
:104CDC0051C875100E02502B8C828D83740B12519F
:104CEC00F71220281250B1121DD012525AC0E012E5
:104CFC005083D0E0125173C0E0E508240C125087A9
:104D0C00D0E01251C875100D02502B75106A7A6ADA
:104D1C0012505F7003024EB0741C121E051250ED3F
:104D2C00F07C6A7D0079001202B8850A82850B83BB
:104D3C00740A1252A1850E82850F831251318E8214
:104D4C008F83A3A3A3A3A312523EF8A3E0F9E849CF
:104D5C0060448508828509837401125241125246BF
:104D6C001220288E828F8312511A121DD0E508242E
:104D7C001012506C1250F312523E12518412202811
:104D8C008E828F83A3A3A3A3A3A312510B121DD0B6
:104D9C00E50824088004E508241C12509A123E7C75
:104DAC006042850882850983740112528E12524624
:104DBC001220281250AA12508B125120121DD0E52D
:104DCC0008241012509A1250F91252871251841260
:104DDC0020281250AA12508B12510B121DD0E5082C
:104DEC0024088004E508241C12506C123E746047A1
:104DFC00850882850983740112524E1220288E82F6
:104E0C008F83125118121DD0E5082410F508E509FE
:104E1C003400F509750C06780C1220288E828F83CD
:104E2C00A3A3A3A3A3A3A3A3E0241012510E121DAA
:104E3C00D0E50824068004E508241712507D123EA4
:104E4C0074700302502B85088285098374011252F9
:104E5C004E1220288E828F83A3A3125118121DD0BC
:104E6C00E508241012507DA3A31250F3780C121CE9
:104E7C008A1252C7121C8AE50D8508828509831295
:104E8C0052CF121C8A7410780C121BA51252C71226
:104E9C001C8A7418780C121BA5850882850983E579
:104EAC000C02502A850882850983740A1251AA853E
:104EBC000882850983A3A37413F0850E82850F8362
:104ECC0012560CA3F01252F51251C8024B028C82EE
:104EDC008D83740E024AFB8C828D83740F1252EAFE
:104EEC008E828F83A3A3A3A3A3E08A828B83125108
:104EFC007F888289831251908C828D83A3A3A3A374
:104F0C00A3A3A31251E0A31251A4A2E0E433F50A27
:104F1C008E828F83A3A3A3A3A3A3A3A3A3E0540272
:104F2C0060047802800278001250425404600478C5
:104F3C000480027800125042540860047808800201
:104F4C0078001250425410600478108002780012DD
:104F5C00504254206004782080027800E8450A8C86
:104F6C00828D83125146024C6B8C828D83740C1291
:104F7C0052EA750A06780A122028EE2405FCEF3452
:104F8C0000FD125058121DD0EE240B12467EC0E0CC
:104F9C00125083D0E01251C875100C02502BEE2425
:104FAC000C12467E240D12505C606B8A828B8374CB
:104FBC000D1252A18E828F83A3A3A3125131750CB3
:104FCC0006750D00780C122028EE2405FCEF340039
:104FDC00FDAA08AB09125058121DD0E5082406F59D
:104FEC0008E5093400F509EE240BF582EF12508B1D
:104FFC00125287125288F50C780C122028EE240DD0
:10500C00F582EF12508B125120121DD0741C121EFF
:10501C00051250ED80088512828513837413F07489
:10502C001A121E051250E0E510F0AA0AAB0B74021E
:10503C00121DD0022DC1E8420A8E828F83A3A3A336
:10504C00A3A3A3A3A3A3E022AA82AB8312512B2276
:10505C00F510FA7B0012033C8A0A8B0BEA450B22F3
:10506C0012507022F508E5093400F5098E828F8301
:10507C0022125070A3A322E508240BF582E5093413
:10508C0000F58322EF3400F988828983E022F50849
:10509C00E5093400F5091250AA3400F58322EE24F8
:1050AC000CF582EF22AC0EAD0FE50824031A1AE5BD
:1050BC00093400FB12512B22EE2404FCEF3400FDCA
:1050CC001AAB1712512B22A3E08C828D83228518E8
:1050DC00828519831250E422E0F8A3E0F5838882DC
:1050EC00221250E4740122A3A3A3A3A3A31250FD84
:1050FC0022E02410F8A3E03400F98882898322E0AE
:10510C002412FCA3E03400FD12512722A3A3A3A375
:10511C00A3A3A3A3123E0B12512722AA08AB091278
:10512C0002A074022212513522A312527F12513D59
:10513C0022F0A385820885830922A3A3A3A3A3A39A
:10514C00A3A3A3F08C0A8D0B22A3A312515B2212F2
:10515C00515F2212516322F08E828F83A3A3A3A3EB
:10516C002212515BA3E022F012529522F088828920
:10517C0083A322125196E0221250FE125135750C67
:10518C0008780C22125196A3E02212515FA3A3229D
:10519C00F0851482851583221251EBA3E022125163
:1051AC00AE22125308F0221251B9A3E022A3A3A3FA
:1051BC00A3A3A3A3A3A31251EFA3A322F085080AD0
:1051CC0085090B22E0850C82850D83F0A385820C6A
:1051DC0085830D221251EB125225A3A3A3A32212F5
:1051EC0051EF22125163A3A3A3A3221251AE125268
:1051FC0016750A06780A2212520722F012521685E8
:10520C000E82850F83125225F0228512828513831C
:10521C00E08C828D83A3A3F022E08C828D83A3A3E8
:10522C00A322F582E5093400F583E50C1251C2780E
:10523C000C2212527B1252DCE022241A1251001260
:10524C00527B125139750C10750D00780C228E8220
:10525C008F83A3A3A3A3A3A3A3A3A312527B125133
:10526C00B9125627A3A3A3F0EE240B1252982212C4
:10527C00527F22E085088285098322E08508828599
:10528C00098312513912529522EE240CF582EF3417
:10529C0000F583E022F0A374061251398512828541
:1052AC001383125136850E82850F831251362212CA
:1052BC005304125207750A06780A2285088285095A
:1052CC0083E50C1252DCA3A3A3A31250FD780C228D
:1052DC0012513D8E828F83A3A3A3A3A3A3221253A7
:1052EC00041252071252F5F022850E82850F83A309
:1052FC00E08516828517832212530822F0851482CA
:10530C0085158374062274EE121E11EAFEEBFF8CD7
:10531C00088D097412121E05E0F510A3E0F511EECC
:10532C002405F50CEF3400F50D8E828F83A3858256
:10533C000A85830B8E828F83A3A3122043850A8256
:10534C00850B83E0F9850C82850D83E04480FC7D20
:10535C0004AA08AB091204A47402121DD0E9F50EBC
:10536C00850A82850B83E0703A890AE508250AFADA
:10537C00E5093400FBEE2406FCEF3400FD850C82BD
:10538C00850D83E014600A24F6600B24F8600C8011
:10539C0012120F428008120F5A8003120F6CEA256A
:1053AC000EF50E851082851183E50EF0AA08AB0967
:1053BC000236D774EE121E118A088B09ECFEEDFF33
:1053CC007412121E05E0F510A3E0F5117414121EF0
:1053DC000512555C750C00E4F0EA2404F50EEB3470
:1053EC0000F50F8A828B83A385820A85830BE0608C
:1053FC0003025515EE2406FAEF3400FBE5082405EC
:10540C00FCE5093400FD850E82850F83E01460579E
:10541C0014605A14605D1460601460631460661448
:10542C00606814606A14606C14606E1460701460B0
:10543C00721460741460761460781460521460777F
:10544C0014607924FC700302550014700302550596
:10545C0014700302550A24FD700302550F24FE70CC
:10546C000302550F0255151206AE0255121206BA5A
:10547C000255121206C60255121206D2025512120B
:10548C0006DE0255121206EA807C1206F6807712AE
:10549C000702807212070E806D12071A80681207BD
:1054AC00268063120744805E120750805912075CF5
:1054BC008054120768804F120774804AE508241C38
:1054CC00F582E5091246818A828B83F0E508241D5A
:1054DC00F582E5091246818E828F83A3A3A3A3A331
:1054EC00A3A3F0EE24080A0AEF3400FB120738EAF3
:1054FC0024028013120780800D12078C800812077B
:10550C009880031207AAEAF50C850882850983A303
:10551C00A3122043850A82850B83E0F9850E8285D0
:10552C000F83E0FC7D05EEFAEFFB1204A47402126B
:10553C001DD08E828F83A3A3A3A3A3E50CF07406C6
:10554C00250C851082851183F0EEFAEFFB0236D71D
:10555C00E0F8A3E0F9888289832274F2121E118C80
:10556C00088D09740E121E05E0FEA3E0FF750A00FB
:10557C00EA2404F8EB3400F9E8FCE9FD8A828B8319
:10558C00A3A882A983E070268C828D83E0701FEA29
:10559C0024051255FF12527B12561AF0EA240712F8
:1055AC0055FF12560C12561AA3A3F0750A048A82E0
:1055BC008B83A3A312204388828983E0F98C828D8C
:1055CC0083E04480FC7D05AA08AB091204A4740294
:1055DC00121DD0850882850983A3A3A3A3A3E50A82
:1055EC00F07406250A8E828F83F0AA08AB097F0619
:1055FC00021EE3F50AEB3400F50B850A82F58322D3
:10560C00125611A3221256152212527FA322A3A3C3
:10561C00A3A3A3A312563112562722125615A3A3E5
:10562C00A3A3A3A322F0850A82850B83A32274F77C
:10563C00121E11E9FE7409121E05E0F8A3E0F9EC44
:10564C008A828B83F0EDA3F0EE8A828B83A3A3F086
:10565C00E88A828B83A3A3A3F0E98A828B83A3A31A
:10566C00A3A3F07905022A2AE924FC600D14600E2C
:10567C0024F9601224FD600A800E7940800A794179
:10568C00800679428002794302012274F4121E11C1
:10569C00E9900619F01214E8907800E0C4540F5405
:1056AC000764037004793F8002797F7508067509D9
:1056BC000078081220287C077D067AEA7B07120303
:1056CC00D27402121DD0900607E0F47049A3E0F4E6
:1056DC007044A3E0F4703FA3E0F4703AA3E0F470DC
:1056EC0035A3E0F4703090780EE0900607F09078D7
:1056FC000FE0900608F0907810E0900609F0907892
:10570C0011E090060AF0907812E090060BF0907879
:10571C0013E090060CF090060D12586A127A4C9019
:10572C0006377406F0A3740D1264AF7430F0A374D2
:10573C0001F090096B12586A90096AE4F0900971B3
:10574C00F0A374A01264AF7403F0A374071264AFD7
:10575C0074281264AF04F0A3E4F090099AF0900955
:10576C00C012586A9009BFE4F09009C6041264AFE5
:10577C00125858E4F0A304F0A31264AF1264ADF015
:10578C009009D712586A9009D6E4F09009DD04F01C
:10579C00A3E41258581264ADF0A37405F09009E715
:1057AC0074FFF0A3E4F09009E9F09009EB04F01217
:1057BC0011EE120FF612148E79017AEC7B0912138A
:1057CC00329009ECE075F01484E5F004F0790C7A71
:1057DC000D7B0A1213321213567A00900619E0F957
:1057EC0012034E907803E06442705E9009ECE01472
:1057FC00F07056C2AF125804007831D0E0F618D0D1
:10580C00E0F6E59F5407F970059090B080039091F5
:10581C00147808121C8AE9C4C0E07830E65508F503
:10582C000808E65509F509740B7808121D98D0E0A4
:10583C002508F8906270E0A2E740F8E8C333906264
:10584C0072F0906270E0D2E0F002682D1258611292
:10585C005861F0A322F0A37480F0A374022274FFA9
:10586C00125B7EF0A3F02274F6121E11EAFEEBFF1F
:10587C00EEA2E0504390061BE0C39480E0500FC3AF
:10588C0033F8E433F974A328F5827410800EF4C352
:10589C0033F8E433F974B128F582741039F58312B6
:1058AC00708B121E0F7A00900619E0F912034EEE5F
:1058BC006401FAEFFB025A53540860459009E51253
:1058CC005AA1750800780812202C125A7A121D98C9
:1058DC007808122028EA243012757A122043125AC2
:1058EC008B12202875085B750909780812202890FE
:1058FC00095AE0FD7C00125A62121DD0EE64088039
:10590C00B1EE5410603E750800780812202CE4F5B6
:10591C0009780812202878081220287808122028E4
:10592C0075085B750909780812202890095AE0FD62
:10593C007C007A007B007902125A74121DD0EE643E
:10594C00100258BEEE54026036750800780812201A
:10595C002CE4F509780812202878081220287808F9
:10596C0012202875085B7509097808122028125A2C
:10597C0056793C125A74121DD0EE64020258BEEED7
:10598C005404604B900646125AA1EA242A1273D88A
:10599C00F508780812202C125A7A121D98780812E1
:1059AC002028EA242012757A122043125A8B1220D6
:1059BC002875085B750909780812202890095AE0A7
:1059CC00FD7C01125A62121DD0EE64040258BEEE28
:1059DC0054406036750800780812202CE4F50978DC
:1059EC000812202878081220287808122028750818
:1059FC005B7509097808122028125A56793B125AFD
:105A0C0074121DD0EE64400258BE900620E0640172
:105A1C007031EE5420602C90061AE024F9600314C7
:105A2C00701B793F900646E0FA75F006A4CAA8F000
:105A3C0028FB74482AFA74063BFB1212E4EE64202D
:105A4C000258BE7A007B0002654490095AE0FD7C46
:105A5C00017A007B00228A828B83A3A3A3A3E0FAA2
:105A6C007B007900125A7422120EA6740922EA24C1
:105A7C0032F582EB1275811270727404780822EA86
:105A8C00242E1268BBF508A3E0C313F509E508132F
:105A9C00F508780822E0F875F006A4C8AAF0125AA6
:105AAC00AE222AF9744828FA740639FB22C082C047
:105ABC0083C2AF1214C4E5E170FC75E101126533C9
:105ACC0012150079071215BA79011215C079021254
:105ADC00152A12156012159C79001215AE79011257
:105AEC0015AE9090D0121CA812151290095AE412FF
:105AFC00586CA3F0900971F0A3F0A3F090097574A1
:105B0C0007F09009747403F090097AE4F090097925
:105B1C00F090099AF09009C7F09009DEF01212CCBF
:105B2C001213F81212F079001215C690096174FF65
