:020000040000FA
:1000000002066DC2AFF508610DFFFFC2AFF50861D2
:100010001FFFFFC2AFF5086131FFFFC2AFF50861F6
:1000200043FFFFC2AFF5086155FFFFC2AFF508619E
:1000300067FFFFC2AFF5086179FFFFC2AFF5086146
:100040008BFFFFC2AFF508619DFFFFC2AFF50861EE
:10005000AFFFFFC2AFF50861C1FFFFC2AFF5086196
:10006000D3FFFFC2AFF50861E5FFFFC2AFF508613E
:10007000F7FFFFC2AFF5088109FFFFC2AFF50881A6
:100080001BFFFFC2AFF508812DFFFFC2AFF508814E
:100090003FFFFFFF758701002274F312053A890ABA
:1000A000750C00750D08780C12063E7C807D017A77
:1000B000007B0012045574021205FB850A0D9001A5
:1000C00086E0F50EA3E0F50F7409780E12064FE5F1
:1000D0000EF50B9001867409780E12062BE0C3F51D
:1000E0000EA3E0950FF50F7402780E12062BAE0EDC
:1000F000AF0FE50D250BF50B7401650D7006743E11
:10010000250BF50B53B4F375BC0075BC008042742D
:100110008028F582740139F583E0F5BDE8240108F3
:10012000E93400F9C39408402C050A7408650A7084
:1001300003750A46750E00750F08780E12063E7C90
:10014000807D017A007B00A90A1204557402120511
:10015000FB78007900E50D650A700AE849700678B9
:1001600003790080B7E50B650A70A4EE687002EFB2
:1001700069709CE5BD85BC0C850C0EAA0EFB7F0644
:100180000205A074F612053A890CEAFEEBFF53BE95
:10019000FBE59DA2E650FAE5C654804449F5C6E564
:1001A0009E547F644970F853C67FE59EA2E740FAEB
:1001B00053C680E59E547F70FA43BE04906270740B
:1001C00008F07409F5D575D4801200998E828F835A
:1001D000E0F8A3E0F9EA687002EB6970428E828F62
:1001E00083A3A3E8F0A3E9F08E828F8374FFF0A3CA
:1001F000F0750A01750B00780A12063EEEFCEFFD61
:10020000850C0A7409780A12062BFAAB0B1204D675
:1002100074021205FBC2AF75C9AB75C95B80FE7F66
:10022000030205A074FC120615750A04750B00780C
:100230000A12063E7402120689AC82AD837A007BF4
:1002400000790812045574021205FB851A82E0F445
:100250007003A3E0F4602D851A82851B83E0F8A368
:10026000E0F9E849601E7402120689E0687003A391
:10027000E0697010750901024030C2AF75C9AB75F5
:10028000C95B80FE780A12063E7402120689AC82AF
:10029000AD837A007B00790112045574021205FBCC
:1002A000851A82E0F47003A3E0F46051851A828518
:1002B0001B83E0F8A3E0F9E8496042740212068962
:1002C000E0F8A3E0F9851A82851B83E0687003A338
:1002D000E0697010750900020830C2AF75C9AB75CE
:1002E000C95B80FE74FF68700374FF69700F851A24
:1002F00082851B83AA82AB83790112018343BE03EB
:10030000120094C2AF75C9AB75C95B80FEE5096088
:1003100007E508D2AF024033E508D2AF020833E563
:10032000096007E508D2AF02403BE508D2AF0208FA
:100330003BE5096007E508D2AF024043E508D2AFCC
:10034000020843E5096007E508D2AF02404BE50823
:10035000D2AF02084BE5096007E508D2AF0240536F
:10036000E508D2AF020853E5096007E508D2AF02FD
:10037000405BE508D2AF02085BE5096007E508D2FB
:10038000AF024063E508D2AF020863E5096007E504
:1003900008D2AF02406BE508D2AF02086BE50960F6
:1003A00007E508D2AF024073E508D2AF020873E553
:1003B000096007E508D2AF02407BE508D2AF02082A
:1003C0007BE5096007E508D2AF024083E508D2AFBC
:1003D000020883E5096007E508D2AF02408BE50813
:1003E000D2AF02088BE5096007E508D2AF0240935F
:1003F000E508D2AF020893E5096007E508D2AF022D
:10040000409BE508D2AF02089BE5096007E508D2EA
:10041000AF0240A3E508D2AF0208A3E5096007E5F3
:1004200008D2AF0240ABE508D2AF0208ABE50960E5
:1004300007E508D2AF0240B3E508D2AF0208B3E542
:10044000096007E508D2AF0240BBE508D2AF020859
:10045000BB0002045174F512053A890A740B1206A6
:1004600089E0FEA3E0FF740F550AF50C750D0074CA
:100470000B780C12062BEA2400F8EB3480F9E82400
:1004800000E9350DF9E5C7FBA2AFE433F50BC2AFC8
:10049000E50AC4540FFAE5C754F84AF5C7EE4F60B1
:1004A0002888828983E08C828D83F088828983A367
:1004B000A882A9838C828D83A3AC82AD83EE24FFB6
:1004C0001EEF34FFFFEE4F70D88BC7E50BA2E09212
:1004D000AF7F040205A074F712053A740912068969
:1004E000E0F50AA3E0F50BED900980F0ECA3F0A392
:1004F0007462F0A37473F0A3E0541FF0E50A333381
:1005000054FCA3F07406780A12064FE50A90098499
:10051000F09009867412F0A37442F053D1FE75D6A0
:1005200001EA906271F0EBA3F0906270E0D2E1F02A
:10053000E0A2E740FB7F020205A0251AC582C0E0C9
:10054000E51B34FFC583C0E0E51AC3958224F9108A
:10055000AF0885831B85821A800885831B85821AD4
:10056000D2AFCEF0A3E520F0A3780AE608F0A3DE30
:10057000FAEFF0A3E58124FBF8E608F0A3E608F023
:10058000A30808E608F0A3E608F0A315811581D0BA
:10059000E0FED0E0F815811581E8C0E0EEC0E02271
:1005A000851B83851A82E0A3FEE0A3F520780AE08C
:1005B000A3F608DFFAE0A3FFE0A3C0E0E0A3C0E0F9
:1005C000E0A3C0E0E0A3C0E010AF0885821A8583F5
:1005D0001B800885821A85831BD2AFD083D08222EC
:1005E000251AF58210AF08F51A4002151B8008F590
:1005F0001A4002151BD2AF851B8322C0D0251A10CA
:10060000AF08F51A5002051B8008F51A5002051BA9
:10061000D2AFD0D022251A10AF08F51A4002151B10
:100620008008F51A4002151BD2AF22700422600D1B
:1006300018C6C333C608C633C6D5E0F41822740200
:100640008000C0E0F4041205E0D0E012067C2260D5
:100650000C08C6C313C618C613C6D5E0F42212068A
:1006600098B9000302066712022412069375D0009F
:1006700075813F751A80751B0102065ECAC0E0E6EF
:10068000F0A308DAFAD0E0FA22251AF582E4351B45
:10069000F5832200000080FB790122FFFFFFFFFFAE
:1006A000FFFFFFFFFFFFFFFFFFFFFFFFFFFFFFFF5A
:1006B000FFFFFFFFFFFFFFFFFFFFFFFFFFFFFFFF4A
:1006C000FFFFFFFFFFFFFFFFFFFFFFFFFFFFFFFF3A
:1006D000FFFFFFFFFFFFFFFFFFFFFFFFFFFFFFFF2A
:1006E000FFFFFFFFFFFFFFFFFFFFFFFFFFFFFFFF1A
:1006F000FFFFFFFFFFFFFFFFFFFFFFFFFFFFFFFF0A
:10070000FFFFFFFFFFFFFFFFFFFFFFFFFFFFFFFFF9
:10071000FFFFFFFFFFFFFFFFFFFFFFFFFFFFFFFFE9
:10072000FFFFFFFFFFFFFFFFFFFFFFFFFFFFFFFFD9
:10073000FFFFFFFFFFFFFFFFFFFFFFFFFFFFFFFFC9
:10074000FFFFFFFFFFFFFFFFFFFFFFFFFFFFFFFFB9
:10075000FFFFFFFFFFFFFFFFFFFFFFFFFFFFFFFFA9
:10076000FFFFFFFFFFFFFFFFFFFFFFFFFFFFFFFF99
:10077000FFFFFFFFFFFFFFFFFFFFFFFFFFFFFFFF89
:10078000FFFFFFFFFFFFFFFFFFFFFFFFFFFFFFFF79
:10079000FFFFFFFFFFFFFFFFFFFFFFFFFFFFFFFF69
:1007A000FFFFFFFFFFFFFFFFFFFFFFFFFFFFFFFF59
:1007B000FFFFFFFFFFFFFFFFFFFFFFFFFFFFFFFF49
:1007C000FFFFFFFFFFFFFFFFFFFFFFFFFFFFFFFF39
:1007D000FFFFFFFFFFFFFFFFFFFFFFFFFFFFFFFF29
:1007E000FFFFFFFFFFFFFFFFFFFFFFFFFFFFFFFF19
:1007F000FFFFFFFFFFFFFFFFFFFFFFFFFFFFFFFF09
:10080000E8EAFFFF0000007C41414141FFFFFFFF9C
:10081000FFFFFFFFFFFFFFFFFFFFFFFFFFFFFFFFE8
:10082000000102030405060708090A0BFFFFFFFF8A
:10083000020EE702190EFFFFFFFFFFFFFFFFFFFFA2
:10084000FFFFFFFFFFFFFFFFFFFFFFFFFFFFFFFFB8
:10085000FFFFFFFFFFFFFFFFFFFFFF02165DFFFF30
:10086000FFFFFF021641FFFFFFFFFFFFFFFFFFFF3C
:10087000FFFFFFFFFFFFFFFFFFFFFFFFFFFFFFFF88
:10088000FFFFFF021984FFFFFFFFFFFFFFFFFFFFD6
:10089000FFFFFFFFFFFFFFFFFFFFFF0215F4FFFF5A
:1008A000FFFFFFFFFFFFFFFFFFFFFF02161AFFFF23
:1008B000FFFFFF0217FF01FFFF0A0953656E736F09
:1008C00072546167051250002003020A00020105FC
:1008D000544920424C452053656E736F7220546119
:1008E0006700D007E803E4200000EA20F020F620AB
:1008F0000221FC2008210E2112416363656C2E2029
:1009000044617461000A416363656C2E20436F6E1D
:10091000662E000A4163632E20506572696F640081
:1009200002F083010000C98302EA83010000300A5B
:1009300010D380010000B102020884030000B40259
:1009400002D883010000310A02EA830100003D0A57
:1009500010E380030000BA0202D8830100003E0ABF
:1009600002EA830100004B0A10F380030000BB027F
:1009700002D8830100004C0A124261726F6D6574E7
:100980006572204461746100024261726F6D65742A
:1009900065722043616C692E000A4261726F6D6559
:1009A00074657220436F6E662E0002F083010000B2
:1009B000CC8302EA83010000B00A104381010000E9
:1009C000BE02020884030000C20202D883010000B4
:1009D000B10A02EA83010000D10A1063810300001A
:1009E000DE0202D883010000D20A02EA830100007D
:1009F000C00A105382010000C802020884030000EC
:100A0000D80202D883010000C10A020202020202D7
:100A1000020202010D000000100102F0830100003B
:100A2000B78302EA83010000420B02E88301000061
:100A3000DF0202EA83010000430B02E683010000AB
:100A4000048302EA83010000440B020684010000D3
:100A5000138302EA83010000460B02E083010000D9
:100A60009F8002EA83010000470B02DE8301000041
:100A70000E8302EA83010000450B02DC83010000C3
:100A8000098302EA83010000480B02DA83010000B7
:100A9000B18002EA83010000490B02E283010000F9
:100AA000838202EA830100004A0B02E48301000012
:100AB0004B0BFF0000B4000028002800283075A070
:100AC00000A000A000A00000080008E001F0001055
:100AD00000100010001000100010005000500050D6
:100AE0000010001000D0070000000000000F0030D0
:100AF0007507001000010081FF0000FF8A23A82372
:100B00009023FF01E803053F1002020A0A02500089
:100B1000A0000000E80302F083010000BD8302EAA8
:100B200083010000410C020484010000C10302EAB9
:100B300083010000420C020284010000D70302EA94
:100B400083010000430C020084030000D90302EA81
:100B500083010000440C02FE83030000DA0302EA72
:100B600083010000450C02FC83010000460CFF01DC
:100B700000FF2002F083010000C38302EA8301002A
:100B800000AA0C02FA83000000000002088403009F
:100B9000002704124779726F2E20446174610000AF
:100BA0000A4779726F2E20436F6E662E000002F0A6
:100BB00083010000C68302EA83010000CB0C1013FE
:100BC000810100002F04020884030000350402D8CC
:100BD00083010000CC0C02EA83010000D80C100352
:100BE000810300003B0402D883010000D90C03807C
:100BF000000080740061801248756D69642E204485
:100C0000617461000A48756D69642E20436F6E66D9
:100C10002E0002F083010000BA8302EA8301000083
:100C20002F0D108381010000F404020884030000EA
:100C3000F80402D883010000300D02EA83010000AD
:100C40003C0D109381030000FE0402D883010000D4
:100C50003D0D1249522054656D702E20446174611F
:100C6000000A49522054656D702E20436F6E662E27
:100C70000002F083010000B48302EA830100008ACD
:100C80000D104382010000010502088403000005E5
:100C90000502D8830100008B0D02EA830100009950
:100CA0000D1063820300000B0502D8830100009A37
:100CB0000D8A2C8A2C8A2C8A2C8A2C8A2C8A2C8AA3
:100CC0002C8A2C8A2C8A2C8A2C8A2C124D61672E15
:100CD0002044617461000A4D61672E20436F6E6687
:100CE0002E000A4D61672E20506572696F64000204
:100CF000F083010000D58302EA83010000030E1097
:100D0000F38101000008090208840300000E0902B3
:100D1000D883010000040E02EA830100000E0E10C9
:100D2000E381030000140902D8830100000F0E02C2
:100D3000EA830100001A0E10D38103000015090296
:100D4000D8830100001B0E1C02F083010000CF833A
:100D500002EA830100007F0E105080020000160995
:100D6000020884030000180902D883010000918260
:100D700002EA830100007F0E106080020000170964
:100D80000208840300001E0902D8830100009E822D
:100D9000FFFFFF00013075030201060000000000A4
:100DA0000000000000000000000000000000000043
:100DB00000000000000000FFFF0600800CE80310A8
:100DC0004B657920507265737320537461746500AC
:100DD00002F083010000C08302EA83010000F70EE5
:100DE00002F683000000D409020884030000D5093C
:100DF00002D883010000F80E74308C306E3002543B
:100E0000657374204461746100000A546573742032
:100E1000436F6E666967000002F083010000D283B1
:100E200002EA83010000360F101382030000E60976
:100E300002D883010000370F02EA83010000420F4D
:100E4000103382030000EE0902D883010000430F33
:100E5000E5C754F84405F5C779012200000080FB7E
:100E6000120E50B90003020ED1E479217808B800BF
:100E7000028004F709D8FCE479297802B8000280DE
:100E800004F709D8FCE4900280787079088002F0B9
:100E9000A3D8FCD9FA781C9008B67A01BA0002806F
:100EA00007E493A3F608DAF99009EFAA82AB8390DE
:100EB00008B7789A79068015E493A3AC82AD838A4B
:100EC000828B83F0A3AA82AB838C828D83D8E9D9ED
:100ED000E77582BA7583B27407120EF975825B7575
:100EE000830E7400120EF975D00075813F751A805B
:100EF000751B02759F00020E60C09FF59FE473D0C2
:100F00009F22D083D082C09FE493C0E0740193C03D
:100F1000E0740293F59F22E066701008A3E066700B
:100F20000A08A3E066700408A3E06622C3E79608F7
:100F300009E7960809E7960809E79622C3E09608AC
:100F4000A3E09608A3E09608A3E09622C00AC3E0B7
:100F500096F50A08A3E096420A08A3E096420A081A
:100F6000A3E096450A7001D3D00A22080808EAC017
:100F7000E0EBC0E086F0E7A4FA180986F0E7A42ABF
:100F8000FA180986F0E7A42AFA180986F0E7A42AD5
:100F9000FA1986F0E7A4FBE5F02AFA190886F0E7CB
:100FA000A42BFBE5F03AFA190886F0E7A42BFBE541
:100FB000F03AFA18180986F0E7A4C5F02BFBE43ADA
:100FC000FA1908E7C5F0C6A426F6E5F03BFBE43ABB
:100FD000FA1886F0E7A4F6E5F00826F6E43B08F6F2
:100FE000E43A08F6D0E0FBD0E0FA22E4CFC0E0E437
:100FF000CEC0E0E4CDC0E0E4CCC0E075F020C3E6B4
:1010000033F608E633F608E633F608E633F6181842
:1010100018EC33FCED33FDEE33FEEF33FFC3EC97FA
:1010200009ED9709EE9709EF97191919400FFFEC91
:1010300097FC09ED97FD09EE97FE191906D5F0BE4C
:10104000ECF709EDF709EEF709EFF7191919D0E0F8
:10105000FCD0E0FDD0E0FED0E0FF226016080808DA
:10106000C6C313C618C613C618C613C618C613C6F9
:10107000D5E0EA227009080808226016181818C678
:10108000C333C608C633C608C633C608C633C6D57A
:10109000E0EA22E627F60809E637F60809E637F619
:1010A0000809E637F622E026F608A3E036F608A39C
:1010B000E036F608A3E036F622E026F008A3E03694
:1010C000F008A3E036F008A3E036F022C3E697F676
:1010D0000809E697F60809E697F60809E697F62262
:1010E000C3E096F008A3E096F008A3E096F008A30A
:1010F000E096F022E056F608A3E056F608A3E05684
:10110000F608A3E056F622E056F008A3E056F008F1
:10111000A3E056F008A3E056F022E0F608A3E0F6BC
:1011200008A3E0F608A3E0F622E6F008A3E6F0083C
:10113000A3E6F008A3E6F022E0FAA3E0FBA3E0FCBC
:10114000A3E0FD22EAF0A3EBF0A3ECF0A3EDF02284
:10115000CAC0E0E6F0A308DAFAD0E0FA22CAC0E09A
:10116000E0A3C582CCC582C583CDC583F0A3C5826B
:10117000CCC582C583CDC583DAE6D0E0CA22C3E4FC
:1011800098F8E499F91211BF8026C3E49AFAE49B17
:10119000FBE920E7E91211BFE498F8E499F922C3CA
:1011A000E498F8E499F91211BFE498F8E499F9C3C6
:1011B000E49AFAE49BFB22EB20E7CFE920E7E0B9D1
:1011C0000010BB0008E88AF084F8AAF022E4FBC80B
:1011D000FA22EB70227B10C833C8C933C9335007D9
:1011E000C39AC3DBF280069A50012ADBEAC833F4C3
:1011F000C8C933F4C9FA2275F008E4C833C8C93342
:10120000C933C99AC99B5004C92AC93BD5F0ECFB24
:10121000C833F4C8E4C9FA22600D08C6A2E713C6B1
:1012200018C613C6D5E0F322600C08C6C313C6184F
:10123000C613C6D5E0F422700422600D18C6C3336D
:10124000C608C633C6D5E0F41822251A10AF08F533
:101250001A4002151B8008F51A4002151BD2AF2256
:10126000C0D0251A10AF08F51A5002051B8008F5EA
:101270001A5002051BD2AFD0D022251AF58210AF2A
:1012800008F51A4002151B8008F51A4002151BD2FA
:10129000AF851B8322251AF582E4351BF58322E4F2
:1012A00073251AC582C0E0E51B34FFC583C0E0E5A5
:1012B0001AC3958224F810AF0885831B85821A8093
:1012C0000885831B85821AD2AFCEF0A3E520F0A358
:1012D000780AE608F0A3DEFAEFF0A3E58124FAF835
:1012E000E608F0A3E608F0A3E608F0A30808E6087D
:1012F000F0A3E608F0A315811581D0E0FED0E0F858
:10130000158115811581E8C0E0EEC0E022251AC5DF
:1013100082C0E0E51B34FFC583C0E0E51AC39582B7
:1013200024F910AF0885831B85821A800885831BEA
:1013300085821AD2AFCEF0A3E520F0A3780AE608A2
:10134000F0A3DEFAEFF0A3E58124FBF8E608F0A3B2
:10135000E608F0A30808E608F0A3E608F0A3158164
:101360001581D0E0FED0E0F815811581E8C0E0EEEF
:10137000C0E022851B83851A82E0A3FEE0A3F5204E
:10138000780AE0A3F608DFFAE0A3FFE0A3C0E0E0FC
:10139000A3C0E0E0A3C0E0E0A3C0E0E0A3C0E01091
:1013A000AF0885821A85831B800885821A85831B76
:1013B000D2AFD083D082020EFF851B83851A82E0D4
:1013C000A3FEE0A3F520780AE0A3F608DFFAE0A385
:1013D000FFE0A3C0E0E0A3C0E0E0A3C0E0E0A3C062
:1013E000E010AF0885821A85831B800885821A85E4
:1013F000831BD2AFD083D08222C0D0251AC582C031
:10140000E0E51B34FFC583C0E0E51AC3958224F3F1
:1014100010AF0885831B85821A800885831B85820F
:101420001AD2AFC8F0A3E9F0A3EAF0A3EBF0A379D6
:101430000AE709F0A3D8FAECF0A3EDF0A3EEF0A3CD
:10144000EFF0A3D0E0F0A3D0E0F0A3D0E0F0A3E56C
:1014500020F0A3E5F0F0A322851B83851A82E0C06B
:10146000E0A3E0F9A3E0FAA3E0FBA3780AE0F60822
:10147000A3DFFAE0FCA3E0FDA3E0FEA3E0FFA3E00E
:10148000C0E0A3E0C0E0A3E0F5D0A3E0F520A3E036
:10149000A3F5F010AF0885831B85821A8008858329
:1014A0001B85821AD2AFD082D083D0E0F8D0E03250
:1014B00074048006740280027401C0E0F404121205
:1014C0007AD0E0121150227404800474028000CC9F
:1014D000C0E0EDC0E0E51AC39CCCAD1B50011D106F
:1014E000AF068C1A8D1B80068C1A8D1BD2AF121181
:1014F0005DD0E0FDD0E0FC22D083D082E9C0E0E402
:1015000093A3C386F0C5F095F0F908E493A386F0A1
:10151000C5F095F0700BE493A3C3994005E90480EE
:1015200002A3E475F002A42582F582E5F03583F587
:1015300083D0E0F9E493A3C0E0E493C0E022D08339
:10154000D082ECC0E0EDC0E0E493A3FCE493A3FD03
:10155000ED4C600D12158AEC24FFFCED34FFFD808C
:10156000EFE493A3FCE493A3FDED4C600D1215C9C9
:10157000EC24FFFCED34FFFD80EFD0E0FDD0E0FC7B
:10158000E493A3C0E0E493C0E022C0E0C3E49396F8
:10159000087401939618400FE4936670080874016C
:1015A00093661870007019A3A3C3E493960874019E
:1015B000939618A3A3400DD0E0D0E0D0E002157AB6
:1015C000A3A3A3A3A3A3D0E022C0E0C0F088F0E4CB
:1015D000936670080874019366187000A8F0A3A3BE
:1015E000700BD0F0D0E0D0E0D0E002157AA3A3D009
:1015F000F0D0E022C0E074F21213F9A2AFE433FE9F
:10160000D2AFE589A2E05003122768758900C2C5F0
:10161000EEA2E092AF7F01021458C0E074F2121300
:10162000F9A2AFE433FED2AFE58AA2E64006E58A2E
:10163000A2E75003122768758A00758A00C2EB8002
:10164000CFC0E0C0D0E8C0E0E5A8D2AF758B00C243
:10165000E8A2E792AFD0E0F8D0D0D0E032C0E0C04E
:10166000D0E8C0E0E5A8D2AFC2C7751C00A2E792DF
:10167000AFD0E0F8D0D0D0E03274F512130DEAFE0E
:10168000EBFFEE2434F8EF3400F9880A890BEE24DE
:10169000351217B1F8EE24371217B1F50CEC850CA2
:1016A000F0A4FCAAF0850CF0EDA42AFDE82CF8E4E7
:1016B0003DF97A257B001211BFEA850A82850B83EA
:1016C000F05407F87401B800028004C333D8FCC09A
:1016D000E0E0131313541FF8EE28F8EF3400F9E894
:1016E000245DF582E93400F583D0E0F8E058600825
:1016F000850A82850B83801DEE24361217B1F5F022
:10170000EA84A8F0EE28F8EF3400F9E82438F582EE
:10171000E93400F583E0F97F040213B974F512137C
:101720000DEAFEEBFFEE24341217B1C0E0EE2435D3
:10173000F582EF3400F583D0E0F08E828F83A3A38F
:10174000A3A3A3E0FAA3E0FB8E828F83A3A3A3A3AA
:10175000A3A3A3E0FCA3E0FDECC39AF50CED9BF57D
:101760000DEE2480F50AEF3400F50B850A82F5832F
:10177000E06401702BEE2481F582EF3400F58312D2
:1017800014CB1217BA7402121260E960137CB97D8F
:1017900006EEFAEFFB122BB8850A82850B83E4F084
:1017A000AC0CAD0DEEFAEFFB121679121F9E02176C
:1017B00017F582EF3400F583E022C082C083851ADA
:1017C00082851B83E0F8A3E0F9C3EA9CEB9D500BF4
:1017D000C3EC98ED99401279018010C3EA98EB9917
:1017E00040F5C3EC98ED9950EE7900D083D0822279
:1017F000EAC39CFAEB9DFB228521878522C622C085
:10180000E074EF1213F9759B00906182E0A2E6404C
:10181000030218C0E591A2E640030218C07591BF0B
:10182000900580E064057008122D50122D5C800335
:10183000122D56752100122EC4E9900581F0790011
:10184000122EB8122B287A017B0090057FE0F91246
:101850002006907803E06442600302190990071A99
:10186000E014F06003021909C2AF12186D00782A63
:10187000D0E0F618D0E0F6E59F5407F970059083A4
:10188000508003908390780A12111AE9C4C0E0785E
:1018900029E6550AF50A08E6550BF50B740B780A8C
:1018A000121228D0E0250AF8906270E0A2E740F812
:1018B000E8C333906272F0906270E0D2E0F0804949
:1018C000E0A2E55024E591A2E5501E7591DF900558
:1018D00080E0640D70139005A2E004F064287002AB
:1018E000E4F07A00E0F9122F36906181E0A2E35033
:1018F00009E5E9A2E3500375E9F7A3E0A2E750097F
:10190000E591A2E7500375917F7F04021458C0E06F
:10191000C0D0C082C083906183E0A2E05009E5BFDF
:10192000A2E0500375BFFEE0A2E15009E5BFA2E1CD
:10193000500375BFFDE0A2E25009E5BFA2E25003EB
:1019400075BFFBE0A2E35009E5BFA2E3500375BFFA
:10195000F7E0A2E45009E5BFA2E4500375BFEFE051
:10196000A2E55009E5BFA2E5500375BFDFE0A2E69E
:101970005009E5BFA2E6500375BFBFD083D082D027
:10198000D0D0E032C0E074F21213F9E5A7A2E6501D
:101990000FE5A1A2E6500953A7BF75A1BF1219D840
:1019A000E5A7A2E5500CE5A1A2E5500653A7DF7517
:1019B000A1DFE5A7A2E15009E5A1A2E1500375A1CD
:1019C000FDE5A7A2E2500CE5A1A2E2500653A7FB59
:1019D00075A1FB7F0102145874F812130D752101D3
:1019E000900580E064067015122CBA8A828B83A35E
:1019F000A3A3A3A3A3E0FAA3E0FB122D3EA2AFE4AE
:101A000033FED2AF900586E0640170187A207B0027
:101A100090057FE0F91220907A207B0090057FE00E
:101A2000F912200C906182E0D2E6F0900719E06094
:101A30002185C6228016900585E064017008E5C600
:101A400054F84405F5C653BEFC1217F8740165211D
:101A500060E4EEA2E092AF7F010213B98E238F24DF
:101A6000858228858327851A82851B83E0CEA3E0A3
:101A7000CF852882852783EBC9EAC8EDCBECCA75F0
:101A8000F010C3E833C8E933C9EA33CAEB33CBC338
:101A9000EA9EF526EB9FF525B35004AB25AA26EC6C
:101AA00033CCED33CDD5F0DAAE23AF242274EB1274
:101AB000130D74FA12124A8A0A8B0B8C168D17902A
:101AC0000580E024F7C394055006908378021C0239
:101AD000122CBA8A0C8B0DAE0CAF0DEE4F700302B8
:101AE0001BFFAC0AAD0B851A82851B83AA82AB83D0
:101AF000122D6E8E828F83A3A3780A12111A9083FF
:101B00009C780A1210F4851A82851B83780E1211B4
:101B10001A90839C780E1210F4780A790E120F2C0A
:101B2000501F780A790E1210CC908334780A120F65
:101B30004C4047850A12850B13850C14850D1580C2
:101B400041850E12850F13851014851115781279B1
:101B50000A1210CC9083347812120F4C501C75125C
:101B6000007513007514007515017812790E1210A6
:101B7000CC7812790A121093800890837878121228
:101B8000111A74097812121074908348780A12118D
:101B90001A7812790A120FEB8E828F83A3A3A3A364
:101BA000A3A3121C1C1211BF880A890BE4F50CF5C3
:101BB0000D7812790A1210937404121295121C1CDB
:101BC0001211BFE8F50AE4F50B7812790A120F2C0E
:101BD00050077812790A1210CC900580E0640860F2
:101BE0000AE064066005E06405701C90833078129A
:101BF000120F4C501290832C78121210A68008906D
:101C00008384781212111A8516828517837812122E
:101C1000112974061212607F0E0213B9E0F8A3E0D6
:101C2000F97AD07B032274F712130D122E8E9007CF
:101C300017E064017010906245E4F0A3F053F4F3F0
:101C400043FE0C5390F3122D2CE5C654804449F505
:101C5000C6E59E547F644970F8906185740FF090DA
:101C60000715E0F47002A3E0602C750A01750B0003
:101C7000900715E0780A121237E50AF4FAA3E0603B
:101C80000814600A14600C800DEA52808008EA5241
:101C9000908003EA52A079007F020213B974F71210
:101CA000130DE9FE903170E493F46008E493F912A7
:101CB0002B0A800953C680E59E547F70FA122D329C
:101CC000900717E064017003122B40900715E0F4B1
:101CD0007002A3E0602A750A01750B00900715E0F9
:101CE000780A121237AA0AA3E0600814600A146086
:101CF0000C800DEA42808008EA42908003EA42A00C
:101D0000122E8E122CBA8A0A8B0BA80AA90BE8494C
:101D10006017E5E170FCE82414F582E93400F583EE
:101D2000E0F874FF68600288E174016E700A7A015D
:101D300090057FE0F912205A021C9874F112130DDD
:101D40008A0A8B0B8C0C8D0D740F121295780E1263
:101D5000111A90839C780A1210F490839C780E12CA
:101D600010F4780A790E120F2C5015780A790E1299
:101D700010CC908334780A120F4C401579018013EF
:101D8000780E790A1210CC908334780E120F4C40E2
:101D9000EB79007F080213B974ED12130D8A0A8BD8
:101DA0000B8C0C8D0D7413121295780E12111A9063
:101DB000839C780A1210F490839C780E1210F478A9
:101DC0000E790A120F2C4011780A790E1210CCAA43
:101DD0000AAB0BAC0CAD0D802275120075130075AB
:101DE00014007515017812790E1210CC7812790A48
:101DF000121093AA12AB13AC14AD157F0C0213B9D9
:101E000090839C780A12111A8A828B83780A1211A5
:101E1000077F040213B974F512130D8C828D837839
:101E20000A12111A8A828B83780A1210E0121E6A33
:101E3000C3E098F0A3E099121E5C401E90831878CE
:101E40000A12111A8A828B83780A1210B98E828F35
:101E500083E02420F0A3E0344EF080A4F08E828F43
:101E600083C3E09420A3E0944E22EA2404F8EB34E8
:101E700000F9E8FEE9FF8C828D83A3A3A3A3E0F819
:101E8000A3E0F98E828F832274F512130DE9FE9080
:101E900006CFE0FAA3E0FBEEC333F8E433F9742392
:101EA00028F582748239F583E02AF50AA3E03BF530
:101EB0000B780A1214B490836C121138121A5C74E5
:101EC000021212608A0A8B0B8C0C8D0D7410780A2A
:101ED00012105BAA0AAB0B7F040213B974F1121340
:101EE0000D8A0E8B0F8C108D11740F121295E0FA63
:101EF000A3E0FB7411121295E0F50AA3E0F50B7450
:101F000013121295E0FEA3E0FF780A1214B4EA243B
:101F100001F50AEB3400F50BE4F50CF50D780E79BC
:101F20000A120F6B908328780A12111A780E790A18
:101F3000120F6BAA0EAB0FAC10AD11121A5C74022B
:101F40001212608B0BEA450B60047A0180027A0062
:101F5000EC2AFCED3400FDECF8EDF97A717B02120D
:101F600011BF880A890BE4F50CF50D8E828F8378FA
:101F70000A121129ECF8EDF97A717B021211BF8A6D
:101F80000A8B0B7405780A1212378E828F83A3A3F3
:101F9000A3A3E50AF0A3E50BF07F080213B9C08202
:101FA000C083E9906000F0D083D08222120F02E457
:101FB000C706120F02EEC706120F022FC806120F35
:101FC0000278C806120F02B2C806120F0208C9062C
:101FD000120F0229C906120F0232C906120F028619
:101FE000C906120F02AFC906120F02B9C906120FB5
:101FF0000227CA06120F02B7CA06120F0212CB0638
:10200000120F0240CB06120F02C8CB06120F0207B6
:10201000CC06120F023CCC06120F024ECC06120F59
:10202000026DCC06120F0276CC06120F023DCD06D1
:10203000120F0282AD07120F02DA9707120F021079
:102040009807120F02599807120F02A69907120F4C
:10205000021EB107120F0234B107120F023EB10780
:10206000120F0288B107120F0200B407120F020606
:10207000D706120F0219D706120F02DAD706120F6F
:102080000219D806120F0236D806120F026FD806B0
:10209000120F02BCD806120F02EED806120F02254C
:1020A000D906120F022EDB06120F029ADB06120F60
:1020B0000279AE07120F029CAE07120F02CBAE07D9
:1020C000120F02E3AE07120F0225AF07120F02CE66
:1020D000E605120F0234E905120F021FEC05120F7C
:1020E000024FEC05120F0212ED05120F0249EE0528
:1020F000120F02C7EE05120F0214EF05120F028B2A
:10210000EF05120F020DF005120F025FF005120F1E
:1021100002B8F005120F023BF105120F02E9F105BA
:10212000120F0225F006120F026AF006120F029338
:10213000F006120F021EF106120F0263F106120FD3
:102140000248F206120F02B5F306120F020FA107A2
:10215000120F0226A107120F0255A107120F028EBD
:10216000A107120F02B6A107120F02E4A107120F76
:1021700002FBA107120F0212A207120F0228A207E8
:10218000120F024FA207120F0262A207120F02786B
:10219000A207120F028BA207120F02B0A207120FA2
:1021A00002008006120F02FF8006120F0234810621
:1021B000120F02558106120F02658106120F028668
:1021C0008106120F02928206120F025F8306120F1F
:1021D00002D28306120F02588406120F029B840655
:1021E000120F02D28406120F02588506120F022A1D
:1021F0008606120F02888606120F02A08606120FAC
:10220000021A8706120F021D8706120F0220870688
:10221000120F02C78706120F02DF8706120F020F86
:102220008806120F022F8806120F021D8906120F50
:1022300002D38906120F026CE806120F02BCE806F0
:10224000120F02E0E806120F029EE906120F02F2D8
:10225000E906120F02EFEA06120F021BEC06120F3C
:1022600002868D07120F02AB8D07120F02D58D0764
:10227000120F025AB407120F025ED206120F028624
:10228000D206120F02B4D206120F02EBD206120FC0
:102290000253D306120F029CD306120F02E7D30695
:1022A000120F0225D406120F0262D406120F0290FA
:1022B000D406120F0237D506120F0241D506120FAF
:1022C000024ED506120F0281D506120F0243D60622
:1022D000120F024FD606120F0267D606120F0271B6
:1022E000D606120F0247B007120F0255B007120FA1
:1022F000026DB007120F0285B007120F0289950513
:10230000120F02279605120F029F9605120F02B4B4
:102310009705120F02EE9705120F02979805120FFC
:10232000026C9905120F02D09A05120F02279B0525
:10233000120F02AE9B05120F02959C05120F02E2CE
:102340009C05120F02709D05120F02949D05120F3D
:1023500002699F05120F02AA9F05120F02CC9F056A
:10236000120F024DA005120F0237A105120F02FD38
:10237000A105120F0232B406120F0204B506120FA5
:1023800002ADB506120F02F0B506120F027DB606B9
:10239000120F0209B706120F02EAB706120F02194E
:1023A000B806120F0215B906120F025DB906120F18
:1023B000025FBA06120F02A3BA06120F02C9BA06CA
:1023C000120F02B4B107120F0254EC06120F026A88
:1023D000EC06120F0290EC06120F02B8ED06120F77
:1023E00002C2ED06120F021BEF06120F021BF006CF
:1023F000120F020B8405120F02D58505120F028001
:102400008705120F022B8805120F02B48805120FE0
:1024100002DD8805120F02A98C05120F02B48D058A
:10242000120F02EE8D05120F022F8E05120F02768B
:102430008F05120F02CC8F05120F02159005120F97
:10244000026C9005120F02BA9005120F02E8900577
:10245000120F02009105120F02EF9105120F0221D7
:102460009205120F02BE9305120F02529405120F2D
:1024700002909405120F026BCD06120F0278CE0661
:10248000120F02ACCE06120F02EECE06120F02A8F9
:10249000D006120F028FEF04120F02F2EF04120F98
:1024A0000237F104120F0247F104120F026AF1041D
:1024B000120F02B5F104120F025AF204120F025069
:1024C000F304120F021AF404120F0292F504120F11
:1024D00002D4F504120F0272F604120F02BFF604C2
:1024E000120F02E5F604120F02D3F804120F02D8FD
:1024F000F804120F02B9FA04120F020DFB04120FB6
:10250000026FFB04120F0297FB04120F023BFC0444
:10251000120F02FDFC04120F022EFD04120F0231F5
:10252000FD04120F0279FD04120F02BBFD04120F0D
:102530000222FE04120F023D9307120F025093076E
:10254000120F02699307120F02B49307120F028F42
:102550009407120F021E9507120F02699507120FBA
:102560000200B004120F020CB004120F0245B004B6
:10257000120F028AB004120F0241B104120F02C7F7
:10258000B104120F022CB204120F0258B204120F3F
:102590000291B204120F02A5B404120F0281B60414
:1025A000120F026CB804120F02A3B904120F020337
:1025B000BC04120F02EFBC04120F0235BE04120F4E
:1025C0000242BF04120F025FBF04120F0297BF0442
:1025D000120F02B1BF04120F0219C004120F02B38E
:1025E000C404120F0254C504120F02A5C504120F31
:1025F00002CCC504120F021AC604120F0238C60418
:10260000120F028CC604120F0265C704120F02ECEF
:10261000C804120F0274C904120F026D8307120F4F
:1026200002A78307120F02CB8307120F024384070E
:10263000120F02808407120F02728507120F029A8E
:102640008607120F02FCA907120F0210AA07120F29
:10265000021BAA07120F023BAA07120F0250AA0779
:10266000120F02CEAA07120F022FB307120F023D5C
:10267000B307120F0256A707120F0281A707120F06
:10268000029EA707120F0216A807120F0236A8070C
:10269000120F02FBB407120F0206B507120F020B4E
:1026A000B507120F02EEFF04120F026EAF07120FF2
:1026B000027EAF07120F028DAF07120F0241B00763
:1026C000120F02ECFE04120F0271FF04120F02D56A
:1026D000FF04120F029B9D07120F02B09D07120FFD
:1026E00002E49D07120F025B9E07120F02DC9E0799
:1026F000120F02E89E07120F021C9F07120F0244DE
:10270000AB07120F0273AB07120F022CAC07120FAC
:1027100002ACA807120F02E0A807120F0209A907CE
:10272000120F0280A907120F02EFA907120F02C2AF
:10273000A207120F02CDA207120F02ECA207120F7E
:10274000020BA307120F028AA307120F0296A30718
:10275000120F02F5A507120F021DA607120F028F16
:10276000A607120F02A9A607120F0201A707120F50
:10277000024AA707120F024DA707120F02AEF70673
:10278000120F02BCF706120F0236F806120F020EE5
:10279000F906120F02C9FA06120F020EFB06120FFB
:1027A000023CFB06120F02DC9B07120F02E29B07A2
:1027B000120F021E9C07120F02529C07120F026A90
:1027C0009C07120F02F19C07120F02C0FE06120FA7
:1027D000020BFF06120F0266FF06120F02D4FF065D
:1027E000120F02F83F00120F02C9FD05120F025628
:1027F000FF05120F02B7FF05120F02FDFF05120FB2
:1028000002E2C106120F02ECC106120F02B3C206A9
:10281000120F0202C306120F0226C306120F028114
:10282000C306120F02B9C306120F02E1C306120F4C
:102830000211C506120F023CC506120F0267C5063B
:10284000120F02B6C506120F02CCC506120F0212F5
:10285000C606120F024CC606120F028EC606120FD3
:1028600002D6C606120F0224C706120F026DC70653
:10287000120F0297C706120F02BCC706120F0260A2
:10288000E406120F022AE506120F0205E606120FF1
:10289000027BE606120F02BBE606120F02E8E7060D
:1028A000120F024CDA05120F0275DA05120F028EB2
:1028B000DA05120F02D3DB05120F02B1DC05120F8D
:1028C00002D0DC05120F025DDD05120F02A0DD054E
:1028D000120F02EDDE05120F028CDF05120F020B44
:1028E000E205120F02A2E205120F0276E305120FB3
:1028F0000258E405120F02C4E505120F0257E6055F
:10290000120F023DB207120F0269B207120F0296B0
:10291000B207120F02A0B207120F02B0B207120FD5
:10292000024FFB06120F0294FB06120F02B8FB06C1
:10293000120F0230FC06120F026DFC06120F025F2E
:10294000FD06120F0287FE06120F02008007120F0B
:1029500002458007120F02698007120F02DF80070D
:10296000120F021A8107120F020C8207120F023493
:102970008307120F026DAC07120F02D6AC07120FBD
:10298000022AAD07120F0251AD07120F0203E00633
:10299000120F0270E006120F02BBE006120F02B027
:1029A000E106120F02ACE206120F0296E306120FC6
:1029B00002D59C06120F02179D06120F02F19D060A
:1029C000120F02CA9E06120F02C59F06120F02A422
:1029D000A006120F0210A106120F02D7A106120FB5
:1029E0000242A206120F02A9A206120F02D4A206E8
:1029F000120F0245A306120F02D8A306120F0241BE
:102A0000A406120F0256A406120F029EA406120F6D
:102A100002B7A406120F021CA506120F021FA5067C
:102A2000120F02699007120F02919007120F02CF46
:102A30009007120F028D9107120F02F89107120FE3
:102A400002149207120F023C9207120F026C9207B7
:102A5000120F027B9207120F02F59207120F023239
:102A6000A405120F02BDA505120F0259A705120FEA
:102A7000021EA805120F0265A805120F02ACA805D8
:102A8000120F02CAA805120F020CA905120F02228A
:102A9000A905120F026EA905120F02A6A905120FB1
:102AA00002D9A905120F022AAA05120F0294AA053B
:102AB000120F0228AD05120F02CAAE05120F021046
:102AC000AF05120F0247B005120F02A4B005120F96
:102AD0000219B105120F026DB105120F029AB1056C
:102AE000120F02DF9306120F02FC9306120F0289E7
:102AF0009906120F028B9A06120F02059C06120FFE
:102B000002B39C06120F02DBC904120F0225CA048D
:102B1000120F0252CA04120F0285CA04120F029247
:102B2000CA04120F029ECA04120F02B0CA04120F86
:102B30000285CB04120F02E3CB04120F0208CC046F
:102B4000120F02A4CD04120F02DECD04120F024CAC
:102B5000CE04120F02F1CE04120F02ADCF04120FF9
:102B6000022CD004120F02F0D004120F02FFD00486
:102B7000120F0280D104120F021FD204120F025151
:102B8000D204120F02ECD204120F024AD304120F25
:102B90000284D304120F0205D404120F02CED4040F
:102BA000120F0277D504120F02FED504120F02563F
:102BB000D604120F02B7D604120F02E0D604120F89
:102BC0000296D704120F02E0D804120F0223D90490
:102BD000120F0240D904120F025FD904120F02AA89
:102BE000D904120F02CFD904120F02F8D904120F20
:102BF0000267DA04120F02A9DA04120F02ADDB0435
:102C0000120F0247DC04120F0213DD04120F022C14
:102C1000DD04120F023E8A06120F02918A06120F7D
:102C2000029D8A06120F02728B06120F02998B0602
:102C3000120F02D48B06120F02408C06120F027480
:102C40008C06120F02AD8C06120F02C58C06120FF5
:102C5000021E8D06120F02378D06120F02808D069E
:102C6000120F02938D06120F02AD8D06120F02C3D2
:102C70008D06120F02DF8E06120F02F08F06120F62
:102C8000023D9106120F02229206120F02F23F003D
:102C9000120F0256CD05120F028ACD05120F02F552
:102CA000D005120F024FD205120F0219D305120FD1
:102CB00002A3D405120F027ED505120F02B8D50566
:102CC000120F02DBD505120F021DD605120F0226C8
:102CD000D605120F0270D605120F027AD605120F12
:102CE0000226D705120F02FAD705120F024ED80599
:102CF000120F02B0D805120F0203D905120F0232CB
:102D0000D905120F0271D905120F025EDD04120FF0
:102D100002AFE504120F02B5E504120F026AEB04DC
:102D2000120F0240EF04120F02348A07120F02AA98
:102D30008A07120F02C08A07120F02498B07120F6F
:102D4000028E8B07120F02C98B07120F02198C0714
:102D5000120F02908C07120F02998C07120F02A516
:102D60008C07120F02B88C07120F02DD8C07120FAE
:102D700002F38C07120F02568D07120F02EEF306B4
:102D8000120F0233F406120F025CF406120F02E374
:102D9000F406120F0223F506120F0208F606120FB0
:102DA0000275F706120F023EBB06120F0280BB0629
:102DB000120F029BBB06120F026CBC06120F024ED2
:102DC000BD06120F025BBF06120F02CDBF06120F27
:102DD00002B7C006120F029EC106120F025DA407C1
:102DE000120F02AFA407120F0222A507120F028FC3
:102DF000A507120F02939507120F02BD9507120F38
:102E0000028C9607120F02689707120F0243A5065D
:102E1000120F020FA606120F0250A606120F02AEE4
:102E2000A606120F0202A706120F0260A706120FD3
:102E300002F9A706120F0201A906120F028EAA06B6
:102E4000120F022CAB06120F0293AB06120F02AD4B
:102E5000AB06120F02CCAC06120F0236B205120FEF
:102E600002B2B505120F023EB705120F028EB7056A
:102E7000120F02A8B705120F0228B805120F022E72
:102E8000BA05120F021FBE05120F02A7DB06120FB2
:102E900002B4DB06120F02CEDB06120F020DDC06B7
:102EA000120F024BDC06120F02B0DC06120F02C535
:102EB000DC06120F02D0DC06120F02DDDC06120F58
:102EC00002F4DC06120F0202DD06120F020DDD060F
:102ED000120F0219DD06120F0228DD06120F02334F
:102EE000DD06120F0256DD06120F0203DE06120F78
:102EF0000213DE06120F022DDE06120F024ADE0654
:102F0000120F0266DE06120F028BDE06120F02950A
:102F1000DE06120F02A9DE06120F02C8DE06120F2D
:102F20000230DF06120F0236DF06120F023CDF0608
:102F3000120F0242DF06120F0253DF06120F028643
:102F4000DF06120F020D9A07120F02529A07120F94
:102F500002A69A07120F022B9B07120F02A39B07D0
:102F6000120F02CCBF05120F024EC005120F02F75E
:102F7000C005120F023FC205120F024DC405120F09
:102F80000233C505120F0268C505120F028AC50576
:102F9000120F0233C605120F0203C805120F022CCE
:102FA000C805120F02A4C805120F02D6C805120FD9
:102FB00002E3C805120F022EC905120F0252C905FD
:102FC000120F02A3CB05120F02ADCC05120F02099E
:102FD000CD05120F02743100120F02853200120F5C
:102FE00002693300120F02733300120F029533008F
:102FF000120F02A13300120F02453500120F0272A8
:103000003500120F02883600120F02DD3600120F53
:10301000022C3800120F02013900120F025D390034
:10302000120F02C83900120F02FD3900120F0240C0
:103030003A00120F020A3D00120F02223D00120F49
:1030400002B33D00120F02C13D00120F020E3E00FE
:10305000120F021C3E00120F02883E00120F0203E4
:103060003F00120F025A3F00120F02ABF205120F7F
:1030700002CDF205120F02DEF405120F029DF705D4
:10308000120F02C7F805120F0285F905120F02711F
:10309000FA05120F02569F07120F027B9F07120FAD
:1030A00002F19F07120F0215AD06120F021EAD06A8
:1030B000120F0227AD06120F02FFAD06120F02B06B
:1030C000AF06120F02E0AF06120F020BB006120F8E
:1030D000023BB006120F0266B006120F029AB0064B
:1030E000120F02C6B006120F0209B106120F023407
:1030F000B106120F027BB106120F02D0B106120FF9
:103100000212B206120F026CB206120F0297B2063A
:10311000120F02E6B206120F0216B306120F024198
:10312000B306120F026FB306120F0292B306120F0C
:1031300002A0B307120F02D38607120F02188707E7
:10314000120F023C8707120F02B28707120F02ED1F
:103150008707120F02D78807120F02FB8907120F89
:1031600002B0B407120F02DDB407FFFFFFFFFFFF3D
:10317000FFFFFFFF74EE1212A1890D8A0E8C108DD5
:10318000117412121295E0F50AA3E0F50B750C000C
:1031900012327A60057911023258E50A450B603C1B
:1031A0007A1F7B0012227C8A128B13A812A913E5C6
:1031B0000A2415FEE50B3400FF8E828F83E0C3984E
:1031C000E49940187A207B0012227C8A128E828F2A
:1031D00083E0FAC3E5129AEB9400500479028078F8
:1031E0007A637B001220429009DDEAF0A3EBF01233
:1031F000327A7004791380607C637D007900121F3D
:10320000CA12325DE4F09009DDE0123FE6E50D12EE
:103210003272E50E123272A3E510F0A3E511F090C0
:1032200009DD123958A3E50AF0A3E50BF0123CE0E2
:10323000E4F0A3F09009DDE0241A123EE7E4F0E5A3
:103240000D600612301AE9F50C12325D7401F0E5DA
:103250000C6003123050A90C7F0A02137312326102
:10326000229009DD12326822E0F8A3E0F58388821B
:10327000A322F0123261A322E9FE9009DDE0F8A357
:10328000E0F9E8492274F61212A17E0012327A7037
:1032900005791202334D9009DDE0241A123EFAF846
:1032A000740268600A740368600574046870E2124E
:1032B000335E6C7003A3E06D6005790202334D75D7
:1032C0000A108E0B780A1214B4EAFCEB1233501277
:1032D0003A2E12126079109009DDE0242BFAA3E057
:1032E0003400FB122FA29009DDE0241BF50AA3E0B5
:1032F0003400F50B780A1214B4123A341233501217
:10330000300874021212609009DDE02401123EFAC6
:10331000FA9009DDE0FBA3E0F5838B82E0600D7499
:10332000036A7027888289837402801974046A7022
:1033300009888289837402F0801174036A700C8892
:103340008289837405F0123020E9FEEEF9023DA473
:10335000FD9009DDE02407FAA3E03400FB22900988
:10336000DDE0F8A3123D01E022C082C0839009DFB6
:103370000236D174F71212A112327860131233643C
:103380006A7003A3E06B700874016E700312305012
:103390007F01021373C082C0837917123056023640
:1033A000D674F41212A174ED12124AEAF8EBF98500
:1033B0001A82851B83E4F088828983A3A3A3A3A335
:1033C000A3123D808A828B83E0F50CE82402080872
:1033D000E93400F9E8FEE9FFE50C146036146033C7
:1033E00014604F14607A14700302346E1470030278
:1033F000347C14700302348A1470030234981470FD
:10340000030234A61470030234B41470030234C3EC
:103410000234D27401121295AC82AD831230B6E937
:10342000F8741268701A851A82851B837406F0027C
:10343000352B7401121295AC82AD831230C2E9F8BB
:10344000E86003023522750D078E828F83123D805E
:10345000122A38EA4B60030234DD750A0802351976
:103460007401121295AC82AD831230CE80D07401FB
:10347000121295AC82AD831230DA80C2740112123E
:1034800095AC82AD831230E680B47401121295AC13
:1034900082AD831230F280A67401121295AC82AD17
:1034A0008312310480987401121295AC82AD83129C
:1034B000310A808A7401121295AC82AD83123116E2
:1034C00002343E7401121295AC82AD831231220295
:1034D000343E851A82851B83740702342E9002E7DE
:1034E000E0A2E350059009E180039009DF12327DEC
:1034F00060241239B1F8A3E0F9890BE8450B601696
:103500007401121295AC82AD83A90C8882850B835D
:1035100012129FE9F50D850D0A851A82851B83E538
:103520000AF0851A82851B83E0600DAC82AD838E24
:10353000828F831238F88003122F7E741312126068
:103540007F0402137374F61212A1ECFEEDFF750AEC
:10355000D4750B30780A1214B47902123DAD1212F0
:1035600060E9F50A8E828F83E0F9123056A90A02CB
:103570003DA474F41212A1EAFEEBFF890A12327A1A
:10358000700302365E1233646E7003A3E06F600353
:1035900002365E9009DDE0240108A3E03400F9E87A
:1035A000FAE9FB8A828B83E0F874066860030236CE
:1035B0004E123821607C9009DE123CFAF8A3E0F943
:1035C0009009DDE02418FCA3E03400FD8C828D839B
:1035D000E0FCA3E0FDE82413123FDDF8A2E0501761
:1035E0008C828D83A3A3A3A3A3E0A2E050098A82C7
:1035F0008B837407F0804BE8540260168C828D83B5
:10360000A3A3A3A3A3E0540260088A828B83740956
:1036100080E2E8540460168C828D83A3A3A3A3A345
:10362000E0540460088A828B83740B80C79009E1A0
:1036300080039009DF12327D60081236BE600312EB
:10364000129F1236B7703C790012305680357411D3
:1036500068700BE50A6003750A32A90A80EBE50A77
:103660007018EEFAEFFB122A388A828B83E58245C6
:10367000836007A3A3A3E0D2E4F0EEFAEFFBA90A6C
:1036800012235A7901023540C082C08312327A6017
:10369000241239B170059009DF80039009E11232DC
:1036A0007D60081236BE600312129F1236B7700595
:1036B0007900123056801F123261E0641222123FEC
:1036C000ECA3A3E0F8A3E0F988828983E58245832F
:1036D00022EAF0A3EBF0D083D082020EFF74E8124E
:1036E00012A174E912124A851A82851B83EAF0A39B
:1036F000EBF08C188D19742F121295E0F516A3E0DB
:10370000F51712327A700579120238171239B6128B
:103710002A388A0A8B0BAE0AAF0BEE4F700579146C
:103720000238177402121295AA82AB831230621209
:103730003CEAFAA3E0FBEE2405F514EF3400F5159E
:10374000EE2404F512EF3400F513123821602F74C3
:103750000212129585820E85830FEAFEEBFF12227C
:10376000CAE9F51079001222D08A0C8B0D851282DD
:10377000851383E0F51185140A85150B802B8A0EBD
:103780008B0F7402121295AE82AF831222CAE9F532
:103790001179001222D08A0A8B0B8512828513833D
:1037A000E0F51085140C85150D7410121295AC827D
:1037B000AD83EEFAEFFB1230AA7409121295AC82B7
:1037C000AD83AA0EAB0F1230A478161214B4780A87
:1037D0001214B4E511F50A780A1214B8780C121410
:1037E000B4741012129585820A85830B780A12141C
:1037F000B4741912129585820A85830B780A121403
:10380000B4A910AC18AD19740B121295123D8012A8
:103810002F90740B12126074171212607F10021333
:10382000739009DDE0F8A3123FECE02274F6121267
:10383000A174F712124AEAFEEBFF8C0A8D0B900975
:10384000DF12327D70030238F3123FE812327D70CE
:10385000030238F38C828D83E0C0E074021212956B
:10386000D0E0F08C828D83A3E0C0E0740312129547
:10387000D0E0F08C828D83A3A3E0F974041212953A
:10388000AA82AB83122FAE850A82850B83A3A3A3E2
:10389000E0C0E07406121295D0E0F0850A82850B34
:1038A00083A3A3A3A3C082C0837407121295AC8222
:1038B000AD83D083D082740212115D74021212950E
:1038C000AC82AD837901EEFAEFFB9009DF12382468
:1038D000123FE612129FE9851A82851B83F060135E
:1038E0007401121295E9F0AC82AD838E828F83A3AE
:1038F0001238F87409023DA1E0FAA3E0FB122FF69A
:103900002274F21212A1890A740E121295E0F50CBB
:10391000A3E0F50D7410121295E0F50EA3E0F50F7B
:103920009009E112327D60299009E1123958E0FED8
:10393000A3E0FFEE4F601A780E1214B4780C121444
:10394000B4A90A8E828F8312129F740412126080AF
:103950000279027F060213731239C2A32274F6128F
:1039600012A174F912124A12327A603B851A8285CA
:103970001B83AA82AB831230621239B61239AE6051
:103980001E750AA4750B30780A1214B47402121250
:1039900095AC82AD837907123DAD121260800A7535
:1039A0000AAA750B3080E079017407023DA19009E5
:1039B000DE123FECE0229009DD1239C2E0FAA3E00A
:1039C000FB22123268A3A32274F61212A174F01221
:1039D000124A750A10750B00780A1214B49009DDAA
:1039E000E0241BFCA3E03400FD7402121295123A8D
:1039F0002A121260750ABC750B30023D8674F612ED
:103A000012A174F012124A750A10750B00780A128E
:103A100014B4123A34FD7402121295123A2A121298
:103A200060750AC8750B30023D86AA82AB83121FEF
:103A3000B27402229009DDE0242BFCA3E0340022C2
:103A400074F01212A18A0A8B0B750C007A077B00A6
:103A5000122042123CE0EAF0A3EBF088828983E076
:103A6000FA4B7003023CB2123CF4FEA3E0FF750E69
:103A700007750F00780E1214B4AC0AAD0B123A2E73
:103A80001212601238216003023C11EE2413FCEF85
:103A90003400FD123CEA2405F50EA3E03400F50FD6
:103AA0008C828D83E0F8A3E0F9850E82850F83E098
:103AB000A2E092F0E8A2E020F001B35007A2E0E417
:103AC00033FA80027A00E854FE4AF88C828D831221
:103AD0003CCEC313A2E092F0E8C313A2E020F001B1
:103AE000B35012E854026004D2F08002C2F0A2F097
:103AF000E433FA80027A00E854FDF8EAC333FAE4CA
:103B000033FBE84AF8E94B123CDA543FA2E092F06A
:103B1000E81313543FA2E020F001B35013E854041B
:103B20006004D2F08002C2F0A2F0E433F51080030A
:103B3000751000751100E854FBFAE9FB7402781067
:103B4000121237EA4510F8EB4511123CDA13541FF4
:103B5000A2E092F0E8131313541FA2E020F001B387
:103B60005013E854086004D2F08002C2F0A2F0E4DE
:103B700033F5108003751000751100E854F7FAE969
:103B8000FB74037810121237123CBC540FA2E0925F
:103B9000F0E8C4540FA2E020F001B35013E8541031
:103BA0006004D2F08002C2F0A2F0E433F51080038A
:103BB000751000751100E854EFFAE9FB74047810F1
:103BC000121237123CBC135407A2E092F0E8C4135F
:103BD0005407A2E020F001B35013E854206004D24F
:103BE000F08002C2F0A2F0E433F50E8003750E00FF
:103BF000750F00E854DFFAE9FB7405780E121237EE
:103C0000EA450EF8EB450FF98C828D83E8F0A3E9C5
:103C1000F09009DDE0241AF8A3E03400F9850A8267
:103C2000850B83A3E060118E828F83A3E0600988F7
:103C30008289837405F0807D850A82850B83A3A326
:103C4000E054047015EE2412F582EF123FE0A2E278
:103C5000400888828983740180DB850A82850B8312
:103C6000E0FA8E828F83E0FB9009DDE0FCA3E0F5B3
:103C7000838C82E06006EBFEEAFD8004EBFDEAFE49
:103C8000EEC394055027EDC3940550218E0AED75BF
:103C9000F005A4FAABF074702AFA74803BFBEA25B5
:103CA0000AF582EB123FE0888289838088750C18C0
:103CB0008003750C13A90C7F08021373EA4510F8F2
:103CC000EB4511123CC8C422F98C828D83E8F0A325
:103CD000E9F0850E82850F83E022123CC81313227F
:103CE0009009DDE02418123EEB229009DDE0241853
:103CF000123EFE229009DDE0F8A3123D01A3A3E0ED
:103D000022E0F5838882A3A3A32274F61212A17580
:103D10000AE0750B30780A1214B47911123DAD0225
:103D20003DA174F61212A174EE12124AEAFEEBFFE4
:103D3000741C121295123D80851A82851B83ECF04B
:103D4000A3EDF0750A08750B00780A1214B4EAFCAA
:103D5000EBFD7404121295123A2A121260750AECE5
:103D6000750B30780A1214B47402121295AC82AD3D
:103D700083790B123DA9121260741280249009DD20
:103D8000E0FAA3E0FB22780A1214B474021212952E
:103D9000AC82AD8379111239B6123DAD1212607446
:103DA000101212607F02021373EEFAEFFB12312839
:103DB00074022274F61212A1750AF8750B30023DD6
:103DC0001574F41212A174F912124AEAFEEBFF857F
:103DD0001A82851B83E9F0750C06750D00780C12AC
:103DE00014B47403121295123A2A121260750CFE62
:103DF000750D30780C1214B47402121295AC82ADA9
:103E0000837908123DA9121260740702353D74F6D9
:103E10001212A1750A10750B31023D15C082C083C4
:103E200012327A60539009DDE02418123E7E60035E
:103E30001220489009DDE0245B123E7E60031220D0
:103E4000489009DDE0245D123E7E60031220489018
:103E500009DDE0245F123E7E60031220489009DDF8
:103E6000E02461123E7E6003122048123D7D122044
:103E7000489009DDE4F0A3F0122F840236D6123EFA
:103E8000FEFAA3E0FBEA4B2274F71212A112327879
:103E900060529009DDE02461123EE71214CB9009D4
:103EA000DDE0245F123EE71214CB9009DDE0245DD3
:103EB000123EE71214CB9009DDE0245B123EE712BC
:103EC00014CB9009DDE02417123EFAFB12335EFC9E
:103ED000A3E0FD1239AEFAEEF912236C7408121247
:103EE00060123050023390123EEB22123EEF22F865
:103EF000A3E03400F98882898322123EFE22123E1A
:103F0000EFE022C082C0837910123D7DEA4B60470A
:103F10009009DDE02418FAA3E03400FB8A828B8349
:103F2000123D80EA4B6030123CF4FCA3E0FDEC4D06
:103F30006025EC2415F8ED3400F9EA2404FAEB349A
:103F400000FB88828983E0FC8A828B83E0C39C40EB
:103F50000488828983E0F90236D674F61212A1EA47
:103F6000FEEBFF12327A6069123FE8A3A3A3A3A37A
:103F700012327D605C880A890B88828983E08E8298
:103F80008F83F088828983A3E08E828F83A3F0E8F9
:103F90002412123FDDF9EE24020A0AEF3400FB126C
:103FA0002FAEE50A2415F582E50B123FE08E828FD5
:103FB00083A3A3A3A3F0E50A2413F582E50B340041
:103FC000F583EE2405FCEF3400FD740212115D80D0
:103FD000097C077D007900121FCA023DA4F582E921
:103FE0003400F583E022F8A3123FEC22E0F5838849
:103FF0008222020EFFFFFFFF851C87C2AF020EFF69
:020000040002F8
:10300000C082C083E9900CA9F002B28474F7121256
:10301000A1E99003EFF07C277D047AFF7BFF122566
:10302000EE9003F074FFF0A3F0A3E4F0A3F07905B1
:103030001225769003EFE0F912249E7A0C7B26127B
:103040002A2602BF9274F41212A18A0A8B0BEB5447
:103050008060309003EFE0F9121FEE8A0C8B0DAE0A
:103060000CAF0DEE4F60138E828F83E064B070035F
:1030700012258EEEFAEFFB121FDCAA0AE50B648024
:10308000FB80047A007B0002B25374F21212A17426
:10309000FC12124AEAFEEBFF741212129512C47966
:1030A000EE4F700302B12D7402121295EEF0A3EFF1
:1030B00012B48EECF0A3ED12B48EAA82AB8312246C
:1030C00098E9F50C706AE50A450B60648E828F837F
:1030D00012C45FEE4F60567A067B001220428A0EC1
:1030E0008B0FA80EA90FE8497005750C1380418855
:1030F000828983E412B13AEEF0A3EF12C48AE50AA2
:10310000F0A3E50BF09003F512B1C19003F5700543
:1031100012BF3C801B12BF2A8003EAFCEBFD8C82AD
:103120008D8312B1C170F38C828D8380E3750C02A4
:10313000A90C740412126002C679F0A312C430A361
:103140002274F21212A1890CE975F017A4FEAFF0F7
:103150009003F4E4F09003F212B1C1600A12204827
:103160009003F2E4F0A3F0EEFAEFFB1220428A0A99
:103170008B0BEA450B602FEEFCEFFD7900121FCAA6
:103180009003F2E50AF0A3E50BF07B00800812B192
:10319000ABE4F0A3F00BEBC3950C40F2E50C90030D
:1031A000F4F079008002791302C679EB75F017A468
:1031B000F8A9F09003F2E028FAA3E0398A82F583B7
:1031C0002212BBCEEA4B2274F41212A1740C12121A
:1031D0009512C454FEE9FF750A00750B00800CE5DA
:1031E0000A2401F50AE50B3400F50BC3E50A9CE55A
:1031F0000B9D5032850A0C850B0D7403780C12124E
:1032000037EA250CF8EB350DF988828983A3A3A34F
:10321000A3A3A312C011EE650C7003EF650D70BF80
:10322000E8FAE9FB80047A007B00802774F412122C
:10323000A17900EAA2E0501B750AFE750B82780A9C
:103240001214B47C047D007AAB7B0C1225707402DE
:103250001212607F04021373C082C0839003F512C0
:10326000B28B601C88828983A3A3E06A7003A3E009
:103270006B8882898370E8A3A3A3A312BBCA8004CE
:103280007A007B00D083D082020EFF12C75FE8492C
:103290002274EE1212A174FC12124AEAFEEBFF85B0
:1032A0001A82851B83E4F0A3F0EE240212BF1CEE09
:1032B000240512C437EE2404F510EF12B843E024BD
:1032C000FE603924FC604624FE605224FE605E24C9
:1032D000FE700302B3A424FE700302B40824FE703F
:1032E0000302B41724FE700302B42624FC70030208
:1032F000B43524FE700302B44402B48190040E7409
:1033000017F0A3E412B49612215002B481851A82F8
:10331000851B83AC82AD8312259402B451851A8239
:10332000851B83AC82AD8312259A02B451850E0AA7
:10333000850F0B7402121295AC82AD83850A8285CB
:103340000B8312BBCA1224BC8A0E8B0FAC0EAD0FBE
:10335000EC4D603BE4F50EF50F780E1214B4750ECB
:103360000E750F04780E1214B4750E0F750F0478D5
:103370000E1214B474081212951214CB12C8DB1278
:103380001260E9F50E700B12BBC0122168800F7538
:103390000E01850A82850B8312B48412BF3C850E10
:1033A0000A02B4547402121295AC82AD83850E8267
:1033B000850F8312B995603C850E82850F83A3A388
:1033C0001214CB75120E75130478121214B4751200
:1033D0000F75130478121214B47408121295121493
:1033E000CB12C8DB121260E9F50B700B12BBC012D6
:1033F000216E800F750B01850E82850F8312B484B8
:1034000012BF3C850B0A804C851A82851B83AC82D7
:10341000AD831225A0803A851A82851B83AC82ADCC
:10342000831225A6802B851A82851B83AC82AD83EF
:103430001225AC801C851A82851B83AC82AD831259
:1034400025B2800D851A82851B83AC82AD8312253F
:10345000B8E9F50AE50A60298E828F83A3E0641437
:10346000601F851082851183E090040E12B48E12C5
:10347000C75B90040F12BF3CE50AA312B496122159
:103480004A02BE2B12C75F851A82851B8322F085F4
:103490001A82851B8322F07C0E7D04850C82850DAB
:1034A0008312BBCE2274EE1212A174FC12124A8A4D
:1034B0000C8B0D8C108D11EA2405F50AEB3400F508
:1034C0000B7C157D0079007A0E7B04121FCAE50A79
:1034D0002402F50EE50B12C43A851A82851B8385FA
:1034E000821285831378121214B4850A82850B83A5
:1034F000A3A3A3A312B98C1214B4E50A2405F512F0
:10350000E50B3400F51378121214B4850E82850F82
:103510008312BCE11224B674061212608A128B1355
:10352000AE12AF13E50C2402F50CE50D12BF1FEE31
:103530004F700302B6638017740212129512BBCA51
:1035400088828983EAF0A3EBF090040EE004F09007
:10355000040EE0C39405400302B663E4F512F513CC
:1035600078121214B47512F775130378121214B48A
:103570007512F875130378121214B47406121295AA
:103580001214CB7910EEFCEFFD12C8DD121260E9C7
:10359000705E850A82850B83A3A3A3A3A3A3A3E0E4
:1035A000F89003F7E068704812B98C1214B47CF8F4
:1035B0007D03E50A2408FAE50B3400FB121FC474EE
:1035C00002121260E960298E828F83A3A3A3A31243
:1035D000BBCA90040EE0F51274027812121237740E
:1035E0000F2512F58274043513F583EAF0A3EBF08E
:1035F000740212129585821285831378121214B404
:1036000074021212951214CB850E82850F8312BBA1
:10361000F01212608A128B13AE12AF1390040EE0F8
:10362000F51275130074027812121237740E2512F7
:10363000F874043513F988828983A312B1C1700329
:1036400002B52FE82403080808E93400F9EE4F60BA
:103650000302B5388882898374FFF0A3F090040ECA
:10366000E004F090040EE0600A12BBC012215C7905
:1036700000800B850A82850B8312BF33790A02BE54
:103680002B74EA1212A174FE12124A8C148D15EAE0
:103690002405F50EEB12C8C512C463750A00750B3C
:1036A00000EA2402F512EB3400F513851A82851B1B
:1036B0008385820C85830D780C1214B4850E828567
:1036C0000F83A3A3A3A312B8591214B4E50E2405C3
:1036D000F50CE50F12BF1F780C1214B4850E82850D
:1036E0000F8312B85D1224B674061212608A0C8B16
:1036F0000DEA450D700302B7FEEA2404F510EB1243
:10370000B84312C4638A828B83A3A3A3E0F9851212
:103710008285138312BBD4600302B7FEE4F516F56D
:103720001778161214B47516F77517037816121455
:10373000B47516F875170378161214B474061212BD
:10374000951214CB7913AC0CAD0D851282851383C1
:1037500012C8E3121260E9F50B600302B7FE900392
:10376000F7E0F8E50A7009E0240290040FF08014F5
:1037700090040FE0FCE82402FAE43400FBEA6C70E9
:1037800001EB707E850A82AA8212B983941412B961
:103790007B506B851082851183E0C0E074102A1283
:1037A000B83AD0E0F0050A851082851183A3E0C005
:1037B000E0850A0C7410250C12B83AD0E0F0050A26
:1037C0009003F712B8591214B47CF87D03850A0CE3
:1037D0007410250C12B84D1212609003F7E0250A00
:1037E000F50A74FF6E700374FF6F6012EE24010E11
:1037F000EF3400FFE50AC39414500302B6ABE50AA8
:10380000601312BBDE85128285138312BBCA12219C
:103810006279008014E50B7003750B0A85148285AC
:103820001583EEF0A3EFF0A90B74021212607F0E65
:10383000021373850A0E7410250EF5827404340089
:10384000F583223400F511851082F58322FA740481
:103850003400FB121FB274022212C49922A3A312D5
:10386000B8632212BF2AFDEEFAEFFB2274EE1212A9
:10387000A174FE12124A8C108D11EA2405F50EEB8C
:1038800012C43A750D0090040EE4F0F50CEA24021F
:10389000F50AEB3400F50B804490040EE0FA900337
:1038A000F7E0F812B983941712B97B400D90040E1B
:1038B000E0F87416C3989003F7F012B98C1214B4A0
:1038C0007CF87D03740F2AFA740412B85012126047
:1038D0009003F7E0F890040EE028F0050CE50E24C4
:1038E00016F582E50F12B83EE0F8E50CC398507467
:1038F00090040EE0C39416506BE50CC333F8E43328
:10390000F9E50E28FEE50F39FF851A82851B83AC89
:1039100082AD838E828F8312B9957008750D011266
:10392000BF2F8050E4F512F51378121214B47512FB
:10393000F775130378121214B47512F8751303781F
:10394000121214B474061212951214CB7916850A49
:1039500082850B8312C8E3121260E9F50D70030231
:10396000B89980BB7C0E7D04850A82850B8312BBCF
:10397000CA122174A90D740202BE2DE99400C36518
:10398000D03322EA28F8E43400F9E822E0F5127591
:10399000130078122212BE228A128B13AC12AD13BE
:1039A000EC4D2274EA1212A174FC12124A8A0E8B98
:1039B0000F8C148D15EA2405F50CEB12BF1F750A48
:1039C00000750B00E50C2402F512E50D3400F5132B
:1039D000740212129585821085831178101214B426
:1039E000850C82850D83A3A3A3A312C43F1214B434
:1039F000E50C2405F510E50D3400F51178101214CE
:103A0000B485128285138312BF2512BBC41224B65B
:103A100074061212608A108B11AE10AF11E50E24DD
:103A200002F510E50F3400F511803888828983741F
:103A3000FFF0050A12B83374FFF0050A9003F7E0AF
:103A4000F50E750F00780E1214B47CF87D03850A0C
:103A50000E7410250E12B84D1212609003F7E02577
:103A60000AF50AEE4F60278E828F83A3A3A3E0F9A5
:103A700085108285118312BBD4EE240412C437E969
:103A80006027850E82850F8312BBB612BF3CE50A04
:103A9000700302BB9C12BBDE85108285118312BBB2
:103AA000CA12217A790002BBB1E4F516F51778162F
:103AB0001214B47516F775170378161214B4751628
:103AC000F875170378161214B474081212951214AC
:103AD000CB7911EEFCEFFD85108285118312C8E3CE
:103AE000121260E9F50B709A850A82AA82EA9003A5
:103AF000F77009E0240490040FF08025E0F89004AA
:103B00000FE0F516E82404FCE43400FDEC651670C3
:103B100001ED708112B983941212B97B400302BA8D
:103B200095850E82850F83E0C0E074102A12B83AA2
:103B3000D0E0F0050A850E82850F83A3E0C0E01275
:103B4000B833D0E012BBF985820E85830F780E1250
:103B500014B474041212951214CB85128285138347
:103B600012BBF01212608A0E8B0FAE0EAF0F850AD9
:103B70000E7410250EF874043400F9EE4F70030231
:103B8000BA2B851A82851B83E08882898312BBF950
:103B9000A3E0C0E012B833D0E002BA39E50B7003FD
:103BA000750B0A850C82850D8312BBB612BF3CA92A
:103BB0000B740402B82B12C75F851482851583220B
:103BC0007C0E7D04850C82850D8312BBCE22E0FA2B
:103BD000A3E0FB2212BBCE1224A4E9F50B22900431
:103BE0000FE0F5F0E50A8490040EF07C0E7D0422CF
:103BF00012B8631224C2740422F0050A851A828561
:103C00001B832274EC1212A174FE12124A8A0A8BD0
:103C10000B8C108D11EA2405FEEB3400FF12BE0C54
:103C2000EE241812C437EA450D700302BCAF12BD72
:103C3000F5502912BCD48A128B13EA4513606B79B4
:103C400012AC0CAD0D850A82850B8312BBCA85129E
:103C50008285138312129FE9F50C7058E4F50CF578
:103C60000D780C1214B48E828F83A3A3E0F50C7828
:103C70000C1214B4EE240312BF1C780C1214B48E70
:103C8000828F8312BCE11225DC7406121260E9F502
:103C90000C7021850E82850F83E0701F850A828556
:103CA0000B8312BBCA1221808011750C0E8009751E
:103CB0000C018004E50C600312BF2F850E82850F76
:103CC00083E0600479008002A90C74021212607F04
:103CD0000C021373851A82851B8312BBCE1225CA70
:103CE0002212BF2AFD850A82850B8312BBCE227465
:103CF000EE1212A174FE12124A8A0A8B0B8C0E8DE0
:103D00000FEA2405FEEB3400FF75100012BE0CEA2A
:103D1000450D700302BDD312BDF5502C12BCD48AE0
:103D2000108B11EA4511604A7912AC0CAD0D850A71
:103D300082850B8312BBCA85108285118312129F64
:103D4000E9F510600302BDD6850A82850B8312C097
:103D500011AA0CFB12BDE770147AFF7BFF12BDE7BE
:103D6000606C88828983E50CF0A3E50DF0750C008A
:103D7000800775100E805F050C9003F4E0FAE50CE7
:103D8000C39A504AE50C75F017A4FAABF088828903
:103D900083A3A3E02AFAA3E03BFB8A828B8312BFB2
:103DA00025EC4D70D2750C17750D00780C1214B4FB
:103DB000EEFCEFFD121FB27402121260EEFCEFFD7A
:103DC000850A82850B8312BBCA1221868014751066
:103DD00009800375100112C757850E82850F831263
:103DE000BF3CA91002B9761225BE8A128B13A81205
:103DF000A913E84922E50A2402F50AE50B3400F587
:103E00000B8A828B83A3A3A3E0A2E522851A828575
:103E10001B83AC82AD838E828F8312BE228A0C8B71
:103E20000D22E0FAA3E0FB1224BC227404121260FB
:103E30007F0A02137374EC1212A18C128D13EA2400
:103E400005F50EEB12C43A751100EA2402F50CEBED
:103E500012BF1F850C82F58312BBCA12C969700399
:103E600002BF117510008071850E82850F83E0649A
:103E700001704F8E828F83A3A31214CB8E828F8307
:103E8000A3A3A3A3E0F51475150078141214B4EEDF
:103E90002405F514EF3400F51578141214B412BB90
:103EA000C41225DC7406121260E9F5116014850E47
:103EB00082850F83E4F012C757851282851383121F
:103EC000BF3C7C177D007900EEFAEFFB121FCA8E13
:103ED000828F83E4F0A3F005109003F4E0F8E5107E
:103EE000C398501EE51075F017A4F8A9F0850A8252
:103EF000850B83A3A312C8CF12BF25EC4D6003022C
:103F0000BE68850A82850B8374FFF0A3F0E511700B
:103F10000612BBC412218CA91102BCCFF50CEF34E0
:103F200000F50D22A312BF2AFD22E0FCA3E0228EA1
:103F3000828F8312C75F851082851183E8F0A3E921
:103F4000F022C082C0839003F0E06A7003A3E06BAC
:103F500070067AF07B0380047A007B0002B28474DE
:103F6000F71212A17F00EF75F003A4F8A9F0EC2876
:103F7000F8ED39F988828983E06A7003A3E06B70F9
:103F800006E8FAE9FB800B0FEFC3940240D87A00F1
:103F90007B007F0102137374F61212A112C54870E0
:103FA000067A007B008007A3A3A3A312BBCA02C6A4
:103FB0000974F21212A1E9FE740E12129512C011C8
:103FC000741012129512C4798C828D83E064027091
:103FD0003BA312C75B88828983E0F50EA3E0F9A8B2
:103FE0000E74026870037429697021750E02750FD2
:103FF00000780E1214B4780A1214B4780C1214B4A7
:10400000EEF912260074061212608002790102C6CF
:1040100079E0F50CA3E0F50D2274E81212A174FB0F
:1040200012124AE9851A82851B83F08A188B198C33
:10403000108D11741F12129512C4797421121295E9
:1040400012C011742312129512C4637512008C826F
:104050008D83A3A3A3E0A2E4502A741D121295122B
:10406000BCDA8A828B83E5824583700302C125799D
:104070000AAC10AD11AA18AB1912129FE9F5126023
:104080000302C128851082851183E0640260030267
:10409000C3DEA312C75B850A82850B83A3858214C6
:1040A000858315E5102406F50EE51112C43A8882C1
:1040B0008983E0FAA3E0F9EA2400F516E439F5175C
:1040C000781612153E010000280128EDC0070002F5
:1040D00028C4C1032834C10029EEC2012916C30235
:1040E00029BDC20329EEC204297FC3DEC3EE4F708F
:1040F0003E850E82850F8312C454FAE9FB8A828BB7
:1041000083E0850C82850D8312C4901214B48A82D8
:104110008B83A312BF2AFDAA0AAB0B121FB2740233
:10412000121260800375120EA912740502C8BD75C3
:10413000120B80F4EE4F70F7850C82850D837401AD
:10414000F012C469850A82850B83F07C007D0085AE
:104150001082851183A3A3A3A3E02401FAA3E03472
:1041600000FB1224BCEA4B60418A828B83E024026C
:10417000F8850C82850D83E028F0EA2404F8EB34FE
:1041800000F988828983E085148285158312C4A290
:1041900012C4901214B48A828B8312BF24E50A24BD
:1041A00003FAE50B3400FB02C11B850C82850D83ED
:1041B000E02404F07C047D007900AA14AB15121FE2
:1041C000CA02C128EE4F600302C12F12C469FEA3C8
:1041D000E0FF850C82850D837404F0EE850A8285EC
:1041E0000B83F0EF851482851583F074031212950A
:1041F000AC82AD83EEFAEFFB12C536700302C29AB1
:104200008A828B83A3A312C45F74011212958582E4
:104210001085831178101214B474051212951214BB
:10422000CB7CFF7DFF1224C274041212608B11EA52
:1042300045117033850E82850F8312C43F1214B46A
:10424000850E82850F83A31214CB7C027D007AEE4B
:104250007B831222287404121260E9700A7401121E
:10426000129574FFF0A3F08E828F83E064027034A5
:10427000750E02750F00780E1214B48E828F8312A1
:10428000BF24E50A2404FAE50B12B8501212608527
:104290000C82850D83E0240280097401121295EED0
:1042A000F0A3EFF0740112129512C450F0740112D1
:1042B0001295A312C448A3A3A3F002C128EE4F6035
:1042C0000302C12F850E82850F8312BF25AA18AB6A
:1042D000191225F4850C82850D837402F0EA850A93
:1042E00082850B83F0851482851583EB80CBEE4F9E
:1042F000600302C12F12C469F8A3E0F9850C82851E
:104300000D837402F0E8850A82850B83F0E9851439
:104310008285158380A3850E82850F8312BBCA1206
:104320001FACEAFC8C82A882C39EE49F404BE86EDF
:104330007001EF70047C00801F851A82851B83E06A
:10434000FAEE2AFAEF3400FBC3EA98EB940050032C
:10435000E08004EECCC39CFCEC850C82850D83F0E0
:104360008C0C750D00780C1214B4850E82850F83A9
:10437000E02EFCA3E03F02C11675120702C128EE31
:104380004F600302C12F850E82850F8312C75B85A4
:104390000C82850D837407F08882898312C44812C9
:1043A000C430E0851482851583F0E82402FAE934EC
:1043B00000FB8A828B8312C44812C48112C450A3AA
:1043C00012C48A12C459F0E82405F8E93400F988C7
:1043D00082898312C459A312C4A2A302C2B6741D57
:1043E00012129512C541700302C12512C75B880ED7
:1043F000890FE8450F700302C1258E128F137812C2
:104400001214B4780C1214B4780A1214B47406128C
:104410001295E0F9AC10AD11AA18AB19850E828582
:104420000F8312129F7406121260E9F51202C1285E
:10443000F088828983A322F50EEF3400F50F22E085
:10444000F510751100781022E0850A82850B832211
:1044500012C4A92212C75FE82212C4A9A3A322A3EF
:10446000A3A3A3E0FEA3E0FF22850E82850F83E0D5
:10447000F8A3E0F5838882E022E0F50AA3E0F50BDB
:1044800022A3A3F08A828B83A32212B13CA3A3228E
:10449000F08A828B8312C49922E0F50C750D0078A6
:1044A0000C2212C43012C4A922E0850A82850B8333
:1044B000A3A32274EE1212A174FE12124A8A0C8B6C
:1044C0000DECFAEDFB7414121295E0F512A3E0F571
:1044D000137416121295E0FE7418121295E0F5107E
:1044E000A3E0F511851A82851B83AC82AD8312C5CA
:1044F00036603E851A82851B8312C541602FA3A3B7
:1045000012C479E50A450B602478101214B47812AD
:104510001214B4EEF9AC0EAD0FAA0CAB0D850A82E5
:10452000850B8312129F74041212608006790E802C
:1045300002790102B9761224BC8A0E8B0FEA450F6C
:104540002212BBCE12C548221225888A828B83E5AF
:104550008245832274F61212A174FE12124A740C60
:1045600012129512C454851A82851B83F0740112AD
:104570001295E9F0E4F50AF50B780A1214B4750AFD
:1045800002780A1214B4740412129585820A858383
:104590000B780A1214B41225DC740612126074022D
:1045A000121260806474F71212A1EAFEEBFF890A0E
:1045B0007C277D041225F4EA5402600BA90AEEFA66
:1045C000EFFB1224B08002790102BF9274F612123E
:1045D000A174FF6A700374FF6B701C7B00EB75F0B5
:1045E00003A4F8A9F0EC28F8ED39F912C60E0BEB8C
:1045F000C39402501480E61225C48A0A8B0BA80AC1
:10460000A90BE849600312C60E7F02021373888269
:10461000898374FF12B13AE4F02274F61212A112E7
:1046200025C48A828B83E58245836006A3A3E0FAD2
:1046300080027A007B0080D174F21212A18A0A8B68
:104640000BECFEEDFF740E121295E0F50C12C67E17
:10465000701CEEFCEFFD7AFF7BFF12C67E700479C2
:1046600011801688828983E50AF0A3E50BF0888221
:104670008983A3A3E50CF079007F0602137312254A
:10468000C48A0E8B0FA80EA90FE8492274EE1212ED
:10469000A1EAFEEBFF8C0A8D0B890E7412121295A3
:1046A00012C75B741412129512BF2574161212955C
:1046B00012BBCA750F00EC4D600302C74F74026550
:1046C0000E600302C74A8882898312BF2AF9EC244C
:1046D00000F510E439F511EAF4F8EBF4F9EC58F8C8
:1046E000E51159F9E849705DE50A2406F8E50B344F
:1046F00000F9880C890D8882F58312B85F1225F4C1
:104700008A128B13E51065127004E511651360427F
:1047100078101214B4850C82850D8312B85F1225AF
:10472000FA7402121260E9F50F702778101214B4AF
:10473000850A82850B83A3A312B85D122612740228
:10474000121260800D750F808008750F0D80037543
:104750000F0BA90F02BE308E828F8312C75F22E03B
:10476000F8A3E0F92274E81212A174E712124A8544
:104770001A82851B83EAF0A3EBF08C188D1989103F
:104780007431121295E0F514A3E0F515743312128A
:1047900095E0F516A3E0F5177435121295E0F511C2
:1047A000750A00750B00E50B75F003A4F8A9F085F8
:1047B0001A82851B8312C8CFE0F47003A3E0F47063
:1047C0000302C8ADEE2402F50EEF12C8C5E0700377
:1047D00002C8AD85180C85190D780C1214B4AC16EE
:1047E000AD17AA14AB1512257C74021212608A0C44
:1047F0008B0DEA450D700302C8ADE4F512F5137890
:10480000121214B4740612129585821285831378DD
:10481000121214B4740912129585821285831378CA
:10482000121214B4851482851583A3A3A3A31214B2
:10483000CB7914AC0CAD0D8E828F8312C8E31212AB
:1048400060E97069850C82850D83A3A3A3A312C7B9
:104850005B740212129512BF3C850E82850F83E0B5
:10486000A2E05018A9107402121295AC82AD838E8A
:10487000828F8312BBCA1224D4E9420A850E828534
:104880000F83E0A2E15026E511F50C780C1214B864
:10489000A9107403121295AC82AD838E828F83129D
:1048A000BBCA1224CE7401121260E9420A050BE55C
:1048B0000BC39402500302C7A6A90A74191212600E
:1048C0007F100213733400F50F850E82F58322E00A
:1048D00028FEA3E039FF8E828F83227916850C8211
:1048E000850D8312BBCE1225D674082274F21212E3
:1048F000A1EAFEEBFF890D7401650D600E7402657F
:104900000D70637901122A44E9705BEEFAEFFB1235
:10491000C9696047750C00800B7C177D0079001217
:104920001FCA050C9003F4E0F8E50CC3985021E58C
:104930000C75F017A4F8A9F0850A82850B83A3A350
:10494000E028FAA3E039FB8A828B8312B28B70C90C
:10495000850A82850B8374FFF0A3F07C277D04EE2B
:10496000FAEFFB1225EE02C6791225BE8A0A8B0BDE
:10497000EA450B2274F21212A18A0A8B0BECFEEDAF
:10498000FF740E12129512C011900CA9E0F4603D54
:104990007A097B00121FD6EA4B60328A828B8374BD
:1049A000B1F0A3E412C483A312C481A3E50AF0A367
:1049B000E50B12C9D0EEF0A3EF12C9D0A3A3E50C0A
:1049C000F0A3E50DF0900CA9E0F9121FE202C67900
:1049D000F08A828B83A3A3A3A3A322C082C0839067
:1049E00061907404F0A37448F0A37402F0906180A5
:1049F0007440F09061BC7403F09061877419F0907A
:104A00006265741BF07900122B2E7902122B349000
:104A10003170E493F46006E493F9122B0A790512DD
:104A20002F1802CDD7C082C083E9540FF990618559
:104A3000E0696012E5C654804449F5C6E59E547F9E
:104A4000644970F8E9F053C680E59E547F70FA021D
:104A5000CDD774F71212A1E5A8FE53A87E122B162B
:104A6000C2BA539AFEC289759B00C2C2122B1C7532
:104A7000A91175B905122B22D2BA439A0174805E2E
:104A800042A802D365C082C083906181E4F0A30292
:104A9000CDD475E90075910075BF00020EFFC0828C
:104AA000C083906181E4F0A374C0F0A3E402CDD68A
:104AB000C082C08374F812124A90058212D247E86D
:104AC00049700302CB67900582E054406023790867
