:020000040000FA
:0600000002010A0224BB0C
:03002B000220941C
:0300330002207632
:03003B000220ADF3
:0300430002202A6E
:0300530002252E55
:03006B0002205020
:1000830002236FE5C754F84401F5C7790122000044
:100093000080FB120086B900030200F4E4792178A2
:1000A30008B800028004F709D8FCE479297802B87B
:1000B30000028004F709D8FCE49002817844790FA8
:1000C3008002F0A3D8FCD9FA9010C4AA82AB839023
:1000D300013A782579028015E493A3AC82AD838A33
:1000E300828B83F0A3AA82AB838C828D83D8E9D9D8
:1000F300E77582BB7583D9740412011C75829175EF
:100103008300740012011C75D00075813F7518813E
:10011300751902759F00020096C09FF59FE473D086
:100123009F22D083D082C09FE493C0E0740193C028
:10013300E0740293F59F22FF544920424C4520412D
:100143006C6C00000000000000000000001100FFC4
:1001530000500762078C075607FF0000B400002811
:10016300002800283075A000A000A000A00000080F
:100173000008E001F0001000100010001000100053
:10018300100050005000500010001000D007000075
:10019300000000000F00307507001000010081FF10
:1001A3000000FFF4081209FA08FF02020A0A0250CB
:1001B30000A0000000E80302308301000015830261
:1001C300268301000037110220830100007F05020E
:1001D30026830100003811021883010000950502EF
:1001E30026830100003911021A83030000970502D8
:1001F30026830100003A11021C83030000980502C4
:1002030026830100003B110224830100003C11FFFF
:10021300FF0100FF200230830100001283022683C6
:10022300010000A111022C830000000000022A83B8
:100233000300007906A812A812A812A812A812A8EF
:1002430012A812A812A812A812A812A812A812D0B3
:1002530014EE14CA140E162616081612012514DA03
:1002630004120125CE8D04120125D88D0412012517
:10027300198E04120125628E041201259C8E04122C
:100283000125F28E04120125138F041201251C8F00
:1002930004120125708F04120125998F0412012580
:1002A300A38F04120125AD8F041201251B900412A4
:1002B3000125AB9004120125069104120125349106
:1002C30004120125BC9104120125FB91041201259E
:1002D3003092041201254F92041201255892041200
:1002E30001251A93041201256493041201257AD47B
:1002F3000412012517DA04120125D6C804120125B8
:100303000CC90412012540C9041201258DCA041227
:1003130001255BD90412012571D90412012504B109
:100323000412012517B104120125DBB104120125C2
:100333001AB20412012537B20412012570B2041255
:100343000125BDB204120125EFB20412012526B323
:100353000412012539B504120125B5DA0412012569
:10036300E4DA04120125D5D80412012560D604125B
:10037300012571D6041201256CDA04120125ABDACA
:100383000412012514DB04120125AFD70412012541
:10039300BFD704120125DAD70412012542D804126B
:1003A3000125F0FE0212012575FF02120125D9FF76
:1003B30002120125A8D104120125D1D1041201256D
:1003C3003CD2041201258DD204120125E8D2041275
:1003D300012514C60412012529C60412012541C7AB
:1003E30004120125B5C704120125CFC70412012544
:1003F300E2C704120125F0C7041201250AC804123A
:10040300012521C8041201254BC804120125A1C8E6
:1004130004120125427C00120125597C001201259A
:10042300D37C00120125B77D001201258E7F0012B7
:10043300012521B904120125B1B9041201253ABAE3
:1004430004120125D6BA0412012567BB0412012543
:1004530017BC0412012525BC04120125A3BC0412F8
:100463000125B6BC04120125CCBC04120125D6BC5F
:1004730004120125E9BC04120125DC280012012520
:10048300722900120125312A001201258B2B00123B
:100493000125092D00120125AB2D00120125B736C8
:1004A30000120125DF3D00120125FC460012012543
:1004B3002048001201255552001201250253001253
:1004C3000125A954001201257D5500120125B755B8
:1004D3000012012511D70412012582D70412012528
:1004E3008DD7041201259DD704120125A8D7041224
:1004F300012510D00412012562D004120125D5D0A4
:100503000412012542D1041201253CC30412012522
:1005130066C30412012535C40412012511C5041252
:100523000125A2C50412012527F702120125F3F7BD
:100533000212012534F80212012592F80212012554
:10054300E6F80212012544F902120125DAF9021232
:100553000125E2FA021201256CFC021201250AFDB3
:100563000212012571FD0212012588FD02120125E7
:10057300A7FE02120125C7CA0412012500CB0412EB
:10058300012516CB0412012543CB0412012573CB9D
:10059300041201258ACB04120125A1CB04120125E3
:1005A300DCCB041201250DCC041201255ECC041210
:1005B300012575CC041201258CCC041201255DCED6
:1005C3000412012574CE04120125A3CE04120125C1
:1005D300DCCE0412012504CF0412012532CF04120C
:1005E300012549CF0412012560CF0412012576CFDE
:1005F300041201259DCF04120125B0CF0412012559
:10060300C6CF04120125D9CF04120125FECF04124F
:1006130001258FAA021201258EAB02120125B8AB68
:100623000212012502AC021201250DAC02120125B2
:100633002EAC0212012542AC0212012571AC02124A
:10064300012573AC0212012594AC021201258DAD74
:1006530002120125CFAE021201258CAF0212012531
:1006630059B002120125BDB00212012554B1021284
:10067300012557B102120125DDB10212012520B275
:100683000212012572B20212012575B2021201256E
:10069300ACB202120125D3B20212012569B30212D0
:1006A3000125F2B3021201253BB40212012548B41D
:1006B300021201254BB402120125A9B4021201252D
:1006C300ACB402120125D6B4021201252AB50212D6
:1006D3000125A4B502120125A7B502120125E2B531
:1006E30002120125E5B50212012557B602120125B2
:1006F3005AB60212012501B70212012504B70212EC
:10070300012594B702120125ACB702120125DCB70B
:1007130002120125E9B702120125ECB702120125E5
:1007230058B80212012565B80212012553B9021205
:10073300012509BA02120125FEE203120125D9E3BC
:100743000312012507E40312012587E4031201259F
:10075300A7E403120125E5E40312012538E503129A
:100763000125A0E50312012531E603120125FCE66C
:10077300031201250BEA0312012577EB031201256E
:100783009AEB0312012573A30412012507A5041292
:1007930001255BA50412012541A604120125A0A68B
:1007A30004120125AEA604120125D7A604120125C1
:1007B3001D8704120125458704120125738704123E
:1007C3000125AA87041201250C8804120125A18999
:1007D30004120125EA8904120125358A0412012530
:1007E300738A04120125B08A04120125DE8A0412D9
:1007F3000125858B041201258F8B041201259C8B07
:1008030004120125CF8B04120125918C04120125BA
:100813009D8C04120125B58C04120125BF8C041292
:1008230001253D8D0412012571D5041201257FD5C3
:100833000412012597D504120125AFD50412012511
:10084300C7D50412012513CA02120125B1CA021227
:10085300012529CB021201253ECC0212012578CCB9
:10086300021201250ACD02120125B3CD0212012580
:1008730088CE02120125ECCF0212012543D00212C9
:100883000125CAD002120125B1D102120125FED1E0
:10089300021201258CD202120125B0D202120125C7
:1008A30085D402120125C6D402120125E8D402120E
:1008B300012569D50212012553D60212012519D744
:1008C300021201254ED902120125D2CD03120125B0
:1008D300A4CE031201254DCF0312012589CF0312A4
:1008E300012541D0031201255AD00312012574D0EA
:1008F3000312012501D1031201258DD10312012514
:100903006ED2031201259DD20312012599D303123E
:100913000125E1D30312012597D403120125FBD44A
:100923000312012567D50312012594D5031201256E
:100933001FD603120125E8D7031201252CD8031271
:10094300012552D8031201254CD80412012546B5BE
:10095300041201255CB50412012582B50412012598
:10096300AAB604120125B4B6041201250DB8041267
:1009730001250DB90412012517B904120125809E22
:10098300041201258D9F04120125C19F0412012524
:1009930003A004120125BDA104120125CCE6011216
:1009A30001254AE7011201255AE701120125A0E7B3
:1009B3000112012526E80112012501E90112012591
:1009C3002DE9011201256AE90112012581E90112CC
:1009D300012508EA0112012512EA0112012524EA80
:1009E300011201255CEA01120125ACEA011201257D
:1009F3000BEB011201254EEB0112012559EB0112FC
:100A0300012564EB0112012513EC0112012516ECFB
:100A13000112012519EC011201251CEC011201251B
:100A23001FEC01120125F8EC011201253FED011223
:100A33000125A9ED011201251EEE011201253CEF4E
:100A43000112012540F101120125F7F201120125DE
:100A530073F30112012550F4011201257EF70112EF
:100A630001251CF80112012579F901120125ECFA7F
:100A73000112012595FB01120125DEFB011201255F
:100A830015FC01120125BAFC0112012538FD0112E2
:100A9300012578E802120125CDE80212012512EAA8
:100AA3000212012522EA0212012545EA021201255A
:100AB30095EA021201258BEB0212012555EC021275
:100AC3000125CDED021201250FEE02120125ADEE37
:100AD30002120125FAEE0212012520EF021201256E
:100AE3000EF10212012513F102120125F4F2021292
:100AF300012548F302120125AAF302120125D2F3BC
:100B03000212012576F40212012538F5021201259D
:100B130069F5021201256CF502120125B4F50212E2
:100B23000125F6F5021201255DF6021201259AFD53
:100B330003120125ADFD03120125B6FD03120125A4
:100B4300CFFD031201251AFE03120125F5FE031240
:100B5300012584FF03120125CFFF031201258DCE4A
:100B6300011201259DCE0112012500CF011201259D
:100B730045CF01120125F5CF01120125CED0011277
:100B83000125F7D00112012527D1011201253BD3FD
:100B93000112012517D501120125F7D601120125EE
:100BA3002FD801120125A8DA0112012594DB0112C5
:100BB3000125DADC01120125E7DD0112012529DE19
:100BC3000112012561DE011201257BDE01120125DF
:100BD300E3DE011201257DE30112012523E4011265
:100BE300012561E40112012580E401120125D4E409
:100BF30001120125DCE50112012565E6011201253B
:100C03003D96021201254796021201250A97021208
:100C130001254597021201257D9702120125C697EA
:100C230002120125F49702120125499802120125A7
:100C3300A39802120125E298021201253D9902129E
:100C43000125FB9902120125119A02120125499AE5
:100C5300021201256D9A02120125AF9A0212012593
:100C6300F49A021201252C9B021201254B9B0212BE
:100C73000125739B021201259D9C02120125C99C2B
:100C830002120125069D02120125359D021201253E
:100C9300689D02120125EF9D02120125369E021264
:100CA3000125839F02120125979F02120125B69FFA
:100CB30002120125CA9F02120125FC9F021201257F
:100CC3002EA002120125E5A0021201250DA1021298
:100CD30001255BA1021201256AA102120125C6A109
:100CE3000212012500A2021201253FA202120125D0
:100CF30081A202120125B4A202120125E7A2021267
:100D0300012512A3021201256DA302120125B2A32C
:100D13000212012516A40212012587A4021201253D
:100D2300CFA4021201250BA5021201255DA5021213
:100D3300012599A502120125DCA50212012556A65B
:100D4300021201258EA602120125CAA6021201254E
:100D530011A7021201253BA70212012578A702124F
:100D63000125A2A702120125DFA70212012523A84C
:100D7300021201256CA802120125C1A80212012545
:100D8300EAA80212012541A9021201258AA9021229
:100D93000125B4A902120125D9A90212012567AAC6
:100DA300021201252BA80412012567A804120125AC
:100DB30031A90412012584A90412012570AA041281
:100DC3000125E6AA0412012528AB0412012555AC1E
:100DD300041201255DD90212012586D902120125CB
:100DE3009FD902120125E4DA02120125C2DB0212A5
:100DF3000125E1DB021201256EDC02120125B1DCC3
:100E030002120125E9DD0212012555DE0212012538
:100E13004BE002120125D9E2021201256CE3021212
:100E2300012540E402120125E3E402120125CDE588
:100E33000212012539E702120125CFE7021201252B
:100E43003AE80212012522D3041201258BD304129E
:100E53000125DFD30412012501D40412012528D46E
:100E63000412012559D404120125AFAC0412012543
:100E73001CAD0412012567AD041201255CAE0412FA
:100E8300012558AF0412012542B004120125D2EC0A
:100E93000312012514ED03120125EEED03120125C2
:100EA300C7EE03120125C2EF03120125A1F00312BD
:100EB30001250DF103120125B5F103120125D3F12B
:100EC30003120125EFF10312012598F20312012504
:100ED30003F3031201256AF3031201256DF30312D1
:100EE300012598F30312012509F4031201259CF44B
:100EF3000312012505F5031201251AF50312012535
:100F030062F5031201257BF503120125E0F50312B7
:100F13000125E3F503120125ECBC0412012528BDCC
:100F23000412012566BD0412012530BE04120125F9
:100F3300A3BE04120125DEBE041201251CBF041248
:100F430001254CBF0412012573BF04120125DEBF26
:100F5300041201253383011201257B85011201252A
:100F63001F8801120125F68801120125418901120A
:100F730001258C8901120125D389011201253E8A9D
:100F830001120125AA8A01120125B98A011201253C
:100F9300D48A01120125208B011201255A8B0112DB
:100FA3000125CA8B01120125FC8B01120125388C06
:100FB300011201255B8C011201252F8D01120125E0
:100FC300628D01120125048E011201258B8E0112FF
:100FD30001255F8F011201250892011201256693F5
:100FE30001120125DA9301120125549401120125FE
:100FF300FE95011201254E960112012593970112C8
:101003000125B497011201250A98011201250299BD
:1010130001120125BA9A01120125709B01120125C3
:101023000A9C0112012550A1011201256EA1011292
:101033000125B5A101120125DFA3011201251DA57B
:10104300011201251BA70112012587A70112012502
:1010530026A801120125ECA80112012514A90112E9
:1010630001253FA9011201256AA90112012586A9BB
:1010730001120125A0A901120125BFA90112012511
:1010830035AA01120125ABAA01120125F3AA011207
:10109300012515AB011201250FAC01120125E3ACAB
:1010A3000112012503AD011201250DAE0112012527
:1010B3006DAE0112012550AF01120125D4AF01120B
:1010C3000125ECFD011201258CFF0112012563AA04
:1010D300031201258EAA0312012561B10312012512
:1010E30085B30312012540B5031201259DB60312F2
:1010F3000125DA55001201256B5600120125B15660
:1011030000120125BE5600120125F45700120125D5
:10111300525800120125775800120125AE580012CB
:101123000125455A001201259A5A001201250F5B29
:10113300001201253E5C001201259E5D001201256F
:10114300A05E0012012509600012012559600012FA
:101153000125C461001201252E64001201250A65D0
:101163000012012523650012012580650012012567
:101173009F6500120125BE6500120125C16500129D
:1011830001254767001201253C68001201253869D3
:10119300001201251F6A00120125526A001201255F
:1011A300C26A00120125346B00120125AE6B0012D6
:1011B3000125F86B00120125D36C001201259D6DEA
:1011C30000120125A46E00120125836F0012012570
:1011D3000E70001201257C7000120125F0700012C0
:1011E3000125197100120125D871001201252C72F5
:1011F300001201253B75001201258475001201259B
:10120300C775001201254A7600120125EE760012F9
:1012130001257F7700120125A47700120125EE77BF
:10122300001201251678001201255B7800120125B2
:10123300D67800120125307900120125847A001234
:101243000125417B00120125147C00120125888EA3
:1012530003120125D88E03120125E48E0312012502
:10126300C18F03120125F18F031201252990031267
:101273000125A390031201252591031201255D91F8
:1012830003120125AF9103120125EC9103120125ED
:101293001194031201253D96031201253898031278
:1012A3000125139A03120125F37F0012012592935E
:1012B30004120125B0970412012500990412012597
:1012C30081BA0212012553C10212012559C102122A
:1012D300012509C402120125439904120125EF993E
:1012E30004120125BD9A04120125E79A041201256F
:1012F300359D04120125FFAF0112012549B00112EA
:1013030001253DBF01120125BEC001120125B6C151
:101313000112012515C80112012510C90112012569
:101323004DC90112012570C901120125B2C901126B
:101333000125BBC901120125C5C901120125B1CA85
:1013430001120125A5CB011201253ECC0112012575
:10135300008002120125788A021201257E8A021278
:10136300012582910212012526C00412012524C100
:10137300041201257AC104120125B8C10412012502
:1013830015C20412012592C2041201259BC2041244
:101393000125A7C204120125BAC204120125F6C20F
:1013A300041201250CC30412012507F603120125BB
:1013B30014F6031201252EF6031201256DF603120E
:1013C3000125ABF60312012510F70312012525F7BA
:1013D3000312012530F7031201253DF703120125FE
:1013E30054F70312012562F70312012571F7031263
:1013F300012586F7031201259BF703120125A6F7A2
:1014030003120125B2F703120125BFF703120125C9
:10141300CEF703120125D9F703120125FEF70312B4
:10142300012503F8031201259FF80312012505F98D
:101433000312012515F9031201252AF903120125C7
:101443003FF90312012559F90312012574F9031217
:10145300012591F9031201259CF90312012558FA7C
:101463000312012544FB0312012560FB031201252E
:1014730077FB0312012581FB0312012595FB031260
:101483000125B6FB0312012517FC031201251DFCE0
:101493000312012523FC0312012529FC0312012554
:1014A3002FFC0312012556FC0312012591FC0312A4
:1014B3000125AAFC03120125EAFC031201251DFDE7
:1014C30003120125C7D803120125F3D803120125FE
:1014D300D7D90312012571DC0312012587DD03121D
:1014E3000125A4DE0312012547DF03120125EDDFE9
:1014F30003120125D99C031201255B9D03120125CB
:10150300049E031201254C9F031201255AA10312C5
:10151300012540A20312012575A20312012597A2FA
:101523000312012540A30312012510A5031201256F
:1015330039A503120125B1A503120125E3A5031261
:101543000125F0A5031201253BA6031201255FA681
:1015530003120125B0A803120125BAA9031201251C
:1015630016AA03120125008003120125118103121B
:101573000125F58103120125FF810312012509824B
:10158300031201252B820312012537820312012541
:10159300DB83031201250884031201251E85031230
:1015A3000125738503120125C2860312012597873E
:1015B30003120125F387031201255E880312012517
:1015C300938803120125D68803120125A08B0312E9
:1015D3000125B88B03120125498C03120125578C71
:1015E30003120125A48C03120125B28C03120125D9
:1015F3001E8D03120125998D03120125F08D03120F
:101603000125B4C203120125D6C203120125E7C482
:1016130003120125A6C703120125D0C80312012511
:101623008EC9031201257ACA03120125A4CC041220
:101633000125C9CC041201253FCD041201250080E8
:1016430004120125098004120125128004120125C8
:10165300EA80041201259B8204120125CB82041225
:101663000125F682041201252683041201255183E4
:1016730004120125858304120125B1830412012577
:10168300F483041201251F840412012566840412C5
:101693000125BB8404120125FD840412012557850D
:1016A30004120125828504120125D1850412012526
:1016B3000186041201252C86041201255A86041280
:1016C30001257D8604120125C0B603120125F6B655
:1016D3000312012539B70312012544B7031201256B
:1016E3004FB7031201255AB70312012565B7031239
:1016F3000125A1BA0312012576BB03120125F0BB14
:101703000312012567BC0312012574BC03120125D2
:1017130081BC031201258BBC0312012595BC031266
:101723000125B1BC03120125C1BC0312012503BD70
:101733000312012542BD031201254CBD03120125ED
:1017430056BD0312012560BD031201256DBD0312B1
:10175300012577BD0312012581BD031201258BBD30
:101763000312012595BD03120125DFBD03120125D7
:10177300FCBD0312012519BE0312012529BE031264
:10178300012533BE031201258EBE031201259BBE24
:10179300031201255FBF0312012569BF031201254F
:1017A30073BF031201257DBF031201259ABF0312E4
:1017B3000125B7BF031201257BC00312012584C095
:1017C3000312012598C003120125B5C00312012598
:1017D300C2C003120125CBC003120125F2C00312BC
:1017E300012519C10312012526C10312012530C1A8
:1017F3000312012540C10312012559C1031201251A
:1018030063C10312012573C10312012583C10312AE
:1018130001258DC1031201259DC103120125ADC10F
:1018230003120125CCC103120125D9C103120125DD
:10183300E6C103120125F6C10312012506C20312F4
:10184300012516C20312012548C20312012552C203
:101853000312012562C2031201256FC2031201257F
:1018630079C20312012586C20312012590C2031215
:101873000125A0C203120125AAC203120125E7DA3A
:1018830004120125E2FF01E066701008A3E0667010
:101893000A08A3E066700408A3E06622C3E796087B
:1018A30009E7960809E7960809E79622C3E0960830
:1018B300A3E09608A3E09608A3E09622C008C3E03D
:1018C30096F50808A3E096420808A3E096420808A4
:1018D300A3E09645087001D3D00822080808EAC09F
:1018E300E0EBC0E086F0E7A4FA180986F0E7A42A43
:1018F300FA180986F0E7A42AFA180986F0E7A42A59
:10190300FA1986F0E7A4FBE5F02AFA190886F0E74E
:10191300A42BFBE5F03AFA190886F0E7A42BFBE5C4
:10192300F03AFA18180986F0E7A4C5F02BFBE43A5D
:10193300FA1908E7C5F0C6A426F6E5F03BFBE43A3E
:10194300FA1886F0E7A4F6E5F00826F6E43B08F675
:10195300E43A08F6D0E0FBD0E0FA22E4CFC0E0E4BA
:10196300CEC0E0E4CDC0E0E4CCC0E075F020C3E637
:1019730033F608E633F608E633F608E633F61818C6
:1019830018EC33FCED33FDEE33FEEF33FFC3EC977E
:1019930009ED9709EE9709EF97191919400FFFEC15
:1019A30097FC09ED97FD09EE97FE191906D5F0BED0
:1019B300ECF709EDF709EEF709EFF7191919D0E07C
:1019C300FCD0E0FDD0E0FED0E0FF2260160808085E
:1019D300C6C313C618C613C618C613C618C613C67D
:1019E300D5E0EA227009080808226016181818C6FC
:1019F300C333C608C633C608C633C608C633C6D5FE
:101A0300E0EA22E627F60809E637F60809E637F69C
:101A13000809E637F622E026F608A3E036F608A31F
:101A2300E036F608A3E036F622E026F008A3E03617
:101A3300F008A3E036F008A3E036F022C3E697F6F9
:101A43000809E697F60809E697F60809E697F622E5
:101A5300C3E096F008A3E096F008A3E096F008A38D
:101A6300E096F022E657F60809E657F60809E65726
:101A7300F60809E657F622E056F608A3E056F608FC
:101A8300A3E056F608A3E056F622E056F008A3E0DA
:101A930056F008A3E056F008A3E056F022E066F6FD
:101AA30008A3E066F608A3E066F608A3E066F6225C
:101AB300E0F608A3E0F608A3E0F608A3E0F622E6C2
:101AC300F008A3E6F008A3E6F008A3E6F022E0FAA4
:101AD300A3E0FBA3E0FCA3E0FD22EAF0A3EBF0A369
:101AE300ECF0A3EDF022CAC0E0E6F0A308DAFAD0E6
:101AF300E0FA22CAC0E0E0A3C582CCC582C583CD8B
:101B0300C583F0A3C582CCC582C583CDC583DAE680
:101B1300D0E0CA22C3E498F8E499F9121B5880264E
:101B2300C3E49AFAE49BFBE920E7E9121B58E49823
:101B3300F8E499F922C3E498F8E499F9121B58E4FC
:101B430098F8E499F9C3E49AFAE49BFB22EB20E7C3
:101B5300CFE920E7E0B90010BB0008E88AF084F879
:101B6300AAF022E4FBC8FA22EB70227B10C833C828
:101B7300C933C9335007C39AC3DBF280069A5001B5
:101B83002ADBEAC833F4C8C933F4C9FA2275F0086A
:101B9300E4C833C8C933C933C99AC99B5004C92A95
:101BA300C93BD5F0ECFBC833F4C8E4C9FA22600D95
:101BB30008C6A2E713C618C613C6D5E0F322600C05
:101BC30008C6C313C618C613C6D5E0F42270042290
:101BD300600D18C6C333C608C633C6D5E0F4182251
:101BE300251810AF08F518400215198008F518409C
:101BF300021519D2AF22C0D0251810AF08F518501E
:101C03000205198008F51850020519D2AFD0D02269
:101C13002518F58210AF08F518400215198008F54C
:101C23001840021519D2AF851983222518F582E4CD
:101C33003519F58322E4732518C582C0E0E519340C
:101C4300FFC583C0E0E518C3958224F810AF08856B
:101C530083198582188008858319858218D2AFCEAF
:101C6300F0A3E520F0A37808E608F0A3DEFAEFF08E
:101C7300A3E58124FAF8E608F0A3E608F0A3E60852
:101C8300F0A30808E608F0A3E608F0A31581158180
:101C9300D0E0FED0E0F8158115811581E8C0E0EEB3
:101CA300C0E0222518C582C0E0E51934FFC583C012
:101CB300E0E518C3958224F910AF0885831985825E
:101CC300188008858319858218D2AFCEF0A3E5204A
:101CD300F0A37808E608F0A3DEFAEFF0A3E5812489
:101CE300FBF8E608F0A3E608F0A30808E608F0A36B
:101CF300E608F0A315811581D0E0FED0E0F8158148
:101D03001581E8C0E0EEC0E022851983851882E0E2
:101D1300A3FEE0A3F5207808E0A3F608DFFAE0A32A
:101D2300FFE0A3C0E0E0A3C0E0E0A3C0E0E0A3C005
:101D3300E0E0A3C0E010AF0885821885831980080E
:101D4300858218858319D2AFD083D0820201228580
:101D53001983851882E0A3FEE0A3F5207808E0A3A9
:101D6300F608DFFAE0A3FFE0A3C0E0E0A3C0E0E0F1
:101D7300A3C0E0E0A3C0E010AF08858218858319F3
:101D83008008858218858319D2AFD083D08222C080
:101D9300D02518C582C0E0E51934FFC583C0E0E54E
:101DA30018C3958224F310AF0885831985821880A0
:101DB30008858319858218D2AFC8F0A3E9F0A3EA96
:101DC300F0A3EBF0A37908E709F0A3D8FAECF0A3AA
:101DD300EDF0A3EEF0A3EFF0A3D0E0F0A3D0E0F09A
:101DE300A3D0E0F0A3E520F0A3E5F0F0A32285194A
:101DF30083851882E0C0E0A3E0F9A3E0FAA3E0FB47
:101E0300A37808E0F608A3DFFAE0FCA3E0FDA3E073
:101E1300FEA3E0FFA3E0C0E0A3E0C0E0A3E0F5D0B1
:101E2300A3E0F520A3E0A3F5F010AF08858319859F
:101E330082188008858319858218D2AFD082D08317
:101E4300D0E0F8D0E032740480067402800274019A
:101E5300C0E0F404121C13D0E0121AE922740480C7
:101E63000474028000CCC0E0EDC0E0E518C39CCC54
:101E7300AD1950011D10AF068C188D1980068C18F2
:101E83008D19D2AF121AF6D0E0FDD0E0FC22D08338
:101E9300D082C5F0E493A3C5F0C395F0F5F0E493C5
:101EA300A3C395F04005E5F0048001E475F002A4B6
:101EB3002582F582E5F03583F583E493A3C0E0E45E
:101EC30093C0E022D083D082E9C0E0E493A3C38629
:101ED300F0C5F095F0F908E493A386F0C5F095F00A
:101EE300700BE493A3C3994005E9048002A3E4754E
:101EF300F002A42582F582E5F03583F583D0E0F97D
:101F0300E493A3C0E0E493C0E022D083D082CCC0AA
:101F1300E0E493A36006121F371470FAE493A360FE
:101F230006121F561470FAD0E0FCE493A3C0E0E459
:101F330093C0E022C0E0E493A3D39C5010E493A3A6
:101F4300C39C400AD0E0D0E0D0E0021F2AA3A3A3A1
:101F5300D0E022C0E0E493A36C7009D0E0D0E0D0DD
:101F6300E0021F2AA3A3D0E022D083D082ECC0E0FA
:101F7300EDC0E0E493A3FCE493A3FDED4C600D12EC
:101F83001FB8EC24FFFCED34FFFD80EFE493A3FCCA
:101F9300E493A3FDED4C600D121FF7EC24FFFCED61
:101FA30034FFFD80EFD0E0FDD0E0FCE493A3C0E07C
:101FB300E493C0E022C0E0C3E493960874019396CF
:101FC30018400FE493667008087401936618700054
:101FD3007019A3A3C3E49396087401939618A3A35B
:101FE300400DD0E0D0E0D0E0021FA8A3A3A3A3A399
:101FF300A3D0E022C0E0C0F088F0E4936670080844
:1020030074019366187000A8F0A3A3700BD0F0D0EE
:0F201300E0D0E0D0E0021FA8A3A3D0F0D0E022DD
:10202400C2AF02000022C0E074F2121D92A2AFE41B
:1020340033FED2AFC2C0E5D1A2E4500653D1EF12B1
:102044000474EEA2E092AF7F01021DF1C0E074F2CD
:10205400121D92A2AFE433FED2AFE589A2E1500390
:102064001203CC758900C2C5EEA2E092AF7F0102D3
:102074001DF1C0E074F2121D92A2AFE433FED2AFA0
:10208400E58BA2E050031203CC758B00C2E880D824
:10209400C0E0C0D0E8C0E0E5A8D2AFC2C7A2E792D2
:1020A400AFD0E0F8D0D0D0E032C0E0C0D0E8C0E09B
:1020B400E9C0E0C008C009C082C083A2AFE433F91C
:1020C400D2AF900477E0F8A3E0687008539AFBA3BA
:1020D40074018026C2E9900477E0F50874012508AC
:1020E400F074F72508F58274033400F583E0F5C134
:1020F400900477E0C394804002E4F0E9A2E092AF58
:10210400D083D082D009D008D0E0F9D0E0F8D0D084
:10211400D0E03274F5121CA6EAFEEBFFEE2434F88C
:10212400EF3400F988088909EE2435F582EF34008C
:10213400F583E0F8EE2437F582EF3400F583E0F51B
:102144000AEC850AF0A4FCAAF0850AF0EDA42AFDA5
:10215400E82CF8E43DF97A257B00121B58EA85083F
:1021640082850983F05407F87401B800028004C31F
:1021740033D8FCC0E0E0131313541FF8EE28F8EF33
:102184003400F9E8245DF582E93400F583D0E0F801
:10219400E0586008EE2434F582EF801EEE2436F514
:1021A40082EF3400F583E0F5F0EA84A8F0EE28F835
:1021B400EF3400F9E82438F582E93400F583E0F9D6
:1021C4007F04021D5274F5121CA6EAFEEBFFEE24F6
:1021D40034F582EF3400F583E0C0E0EE2435F58277
:1021E400EF3400F583D0E0F08E828F83A3A3A3A302
:1021F400A3A3A3C082C0838E828F83A3A3A3A3A31C
:10220400E0F8A3E0F9D083D082E0C398F508A3E016
:1022140099F509EE2480F582EF3400F583E064013A
:102224007047EE2481F582EF3400F583E0FCA3E0EF
:10223400FD8E828F83A3A3A3A3A3A3A3E0FAA3E0A9
:10224400FBC3E89AE99B40030222F1C3EA9CEB9D9D
:1022540040177CB67D0AEEFAEFFB1211E2EE248001
:10226400F582EF3400F583E4F0EE2434F8EF340023
:10227400F9E8FCE9FDEE2435F582EF3400F583E05E
:10228400F8EE2437F582EF3400F583E0F50AE5082B
:10229400850AF0A4F508AAF0850AF0E509A42AF550
:1022A40009E82508F8E43509F97A257B00121B585A
:1022B400EA8C828D83F05407F87401B8000280041C
:1022C400C333D8FCC0E0E0131313541FF8EE28F80E
:1022D400EF3400F9E8245DF582E93400F583D0E0B9
:1022E400F8E0586015EE2434F582EF802BC3E89CA7
:1022F400E99D500302225602224FEE2436F582EF66
:102304003400F583E0F5F0EA84A8F0EE28F8EF3421
:1023140000F9E82438F582E93400F583E0F912285D
:10232400C40221C4C082C083851882851983E0F861
:10233400A3E0F9C3EA9CEB9D500BC3EC98ED9940E4
:102344001279018010C3EA98EB9940F5C3EC98ED3B
:102354009950EE7900D083D08222EAC39CFAEB9D97
:10236400FB2200008521878522C622C0E0C0D0E878
:10237400C0E0E9C0E0EAC0E0EBC0E0ECC0E0EDC0E2
:10238400E0C008C009C00AC00BC082C083C0F07599
:102394009B00906182E0A2E6400302244DE591A2F5
:1023A400E6400302244D7591BF90076FE064057009
:1023B40008121386121392800312138C75210012D3
:1023C40013F8E9900770F079001213DA1211047A05
:1023D400017B0090076EE0F91202C4907803E06478
:1023E400426003022496900B41E014F0600302243F
:1023F40096C2AF1223FA00782AD0E0F618D0E0F69D
:10240400E59F5407F9700590828A80039082FE78D4
:1024140008121AB3E9C4C0E07829E65508F508089B
:10242400E65509F509740B7808121BC1D0E025089C
:10243400F8906270E0A2E740F8E8C333906272F06B
:10244400906270E0D2E0F08049E0A2E55024E5918A
:10245400A2E5501E7591DF90076FE0640D70139034
:102464000791E004F064287002E4F07A00E0F912C5
:1024740014B8906181E0A2E35009E5E9A2E35003B6
:1024840075E9F7A3E0A2E75009E591A2E7500375C7
:10249400917FD0F0D083D082D00BD00AD009D0085D
:1024A400D0E0FDD0E0FCD0E0FBD0E0FAD0E0F9D001
:1024B400E0F8D0D0D0E032C0E0C0D0C082C0839079
:1024C4006183E0A2E05009E5BFA2E0500375BFFEBE
:1024D400E0A2E15009E5BFA2E1500375BFFDE0A20F
:1024E400E25009E5BFA2E2500375BFFBE0A2E3504E
:1024F40009E5BFA2E3500375BFF7E0A2E45009E584
:10250400BFA2E4500375BFEFE0A2E55009E5BFA206
:10251400E5500375BFDFE0A2E65009E5BFA2E6502F
:102524000375BFBFD083D0828088C0E0C0D0E8C02C
:10253400E0E9C0E0EAC0E0EBC0E0ECC0E0EDC0E000
:10254400C0F0E5A7A2E6500FE5A1A2E6500953A703
:10255400BF75A1BF122593E5A7A2E5500CE5A1A282
:10256400E5500653A7DF75A1DFE5A7A2E15009E511
:10257400A1A2E1500375A1FDE5A7A2E2500CE5A1DB
:10258400A2E2500653A7FB75A1FBD0F00224A47469
:10259400F8121CA675210190076FE06406701512ED
:1025A40013208A828B83A3A3A3A3A3A3E0FAA3E0AB
:1025B400FB121374A2AFE433FED2AF900775E0644C
:1025C4000170187A207B0090076EE0F91203427ABA
:1025D400207B0090076EE0F91202CA906182E0D27B
:1025E400E6F0900B40E0602185C6228016900774C7
:1025F400E064017008E5C654F84405F5C653BEFC12
:102604001223687401652160E4EEA2E092AF7F01B9
:10261400021D52008E238F248582288583278518E6
:1026240082851983E0CEA3E0CF852882852783EBBA
:10263400C9EAC8EDCBECCA75F010C3E833C8E93376
:10264400C9EA33CAEB33CBC3EA9EF526EB9FF525E3
:10265400B35004AB25AA26EC33CCED33CDD5F0DA58
:10266400AE23AF242274F1121CA68A088B098C0AAB
:102674008D0B740F121C2E780C121AB39082DA7818
:1026840008121A7A9082DA780C121A7A7808790C7D
:1026940012189F50157808790C121A3F9082B2785C
:1026A400081218BF401579018013780C7908121AA2
:1026B4003F9082B2780C1218BF40EB79007F080279
:1026C4001D5274ED121CA68A088B098C0A8D0B749A
:1026D40013121C2E780C121AB39082DA7808121A8C
:1026E4007A9082DA780C121A7A780C790812189F88
:1026F40040117808790C121A3FAA08AB09AC0AAD4C
:102704000B80227510007511007512007513017885
:1027140010790C121A3F78107908121A06AA10AB15
:1027240011AC12AD137F0C021D529082DA7808129C
:102734001AB38A828B837808121A8D7F04021D5281
:1027440074F5121CA68C828D837808121AB38A82BF
:102754008B837808121A53EA2404F8EB3400F98CBA
:10276400828D83A3A3A3A3E0FCA3E0FD88828983D5
:10277400C3E09CF0A3E09DF088828983C3E09420A9
:10278400A3E0944E40229082C27808121AB38A823F
:102794008B837808121A2C8A828B83A3A3A3A3E0C9
:1027A4002420F0A3E0344EF0808074F5121CA6E9D6
:1027B400FE900ACCE0FAA3E0FBEEC333F8E433F96D
:1027C400740528F582748239F583E02AF508A3E0BC
:1027D4003BF5097808121E4D9082CE121AD11226AA
:1027E400187402121BF98A088B098C0A8D0B741059
:1027F40078081219CEAA08AB097F04021D5274F19D
:10280400121CA68A0C8B0D8C0E8D0F740F121C2EAD
:10281400E0FAA3E0FB7411121C2EE0F508A3E0F526
:10282400097413121C2EE0FEA3E0FF7808121E4D5B
:10283400EA2401F508EB3400F509E4F50AF50B7810
:102844000C79081218DE9082AE7808121AB3780C4C
:1028540079081218DEAA0CAB0DAC0EAD0F122618B7
:102864007402121BF98B09EA450960047A0180029B
:102874007A00EC2AFCED3400FDECF8EDF97A717B7A
:1028840002121B5888088909E4F50AF50B8E828F19
:10289400837808121AC2ECF8EDF97A717B02121BE4
:1028A400588A088B0974057808121BD08E828F838E
:1028B400A3A3A3A3E508F0A3E509F07F08021D5232
:0E28C400C082C083E9906000F0D083D08222F1
:1028D400FFFFFFFFFFFFFFFF74F7121C3AE99004AC
:1028E4007DF01216E690047DE0F912094E12099C5F
:1028F40090047DE0F91209A290047DE0F9120B5EC8
:102904009082C2121AD11209849082C2121AD11270
:102914000B7C7AC57B101202647CC57D1079001291
:10292400097E7CDA7D107A02790112097E79017AB6
:10293400337B821203D879027A257B821203D879F9
:10294400037A407B821203D87CE27D047A107902F8
:102954001205707CF27D047A1079031205707C7E76
:102964007D047A0479041205707F01021D0C74F44D
:10297400121C3A8A088B09EB5480607390047DE042
:10298400F91202AC8A0A8B0BAE0AAF0BEE4F6056FB
:102994008E828F83E0246F600924FE703C120486CB
:1029A400803AA3E0640E70378E828F83A3A3A3A31F
:1029B400A3121E64EE24FDF582EF34FFF583E024B8
:1029C400F9FC8E828F83A3A3A3123D49FB790E12D7
:1029D4000DFE7402121BF980061204AAE96007EEC8
:1029E400FAEFFB120294AA08E5096480FB803BEB32
:1029F400544060137C7E7D047A04790412056AAA2B
:102A040008E509644080E5EAA2E0500AC2AF75C94E
:102A1400AB75C95B80FE5402600C122024E5086487
:102A240002FAAB0980047A007B0002481B74F4129A
:102A34001C3A74F9121BE3EAFEEBFF851882851930
:102A440083E412468C122D86C0E07401121C2ED031
:102A5400E01250BBA882A983E0FCA3E0FBECFA746B
:102A640002121C2EEAF0A3EBF0E824020808E91293
:102A74004FD4C0E07404121C2ED0E01250BB08A93D
:102A8400837405121C2E1246A57402121C2EE0F546
:102A940008A3E085080AF50B7407780A121BC178AD
:102AA4000A121EC7010004372BB72ACD2AE02AFDDB
:102AB4002A1A2B7401121C2EAA82AB83E508547FB8
:102AC400F9120492E9F508806D7401121C2EAA8291
:102AD400AB83E508547FF912049880E88518828551
:102AE4001983AC82AD837401121C2EAA82AB83E5D8
:102AF40008547FF912049E80CB851882851983AC13
:102B040082AD837401121C2EAA82AB83E508547F24
:102B1400F91204A480AE851882851983AC82AD8332
:102B24007401121C2EAA82AB83E508547FF91204A7
:102B34008C8091750801EEFAEFFB1202949004AABE
:102B4400747FF0A37406F0E508A3F07402121C2E3F
:102B5400E09004ADF07402121C2EA3E044FC900437
:102B6400AEF0851882851983E09004AFF07CAA7DCD
:102B740004851882851983E02406FA79FF120E046D
:102B84007900740702481874E8121C3A8A828B830D
:102B9400ECFEEDFFA3A3A3A3E0F50AA3E0F50B75F8
:102BA4000C008E828F83E412557485820885830914
:102BB400E96012146039147003022C41147003028A
:102BC4002CF9022CFF850A82850B83E09082927097
:102BD40017121E607A017B0090047DE0F91203361F
:102BE4007404121BF9022D02121E607A0280E7851A
:102BF4000A82850B83E0F9850882850983E0FAC39C
:102C040094325010E924FE601114600E147005749F
:102C1400046A600B750C02022D0274106A70F57C54
:102C2400B07D04120570E9F50C6003022D028508DD
:102C340082850983E08E828F83F0022D02850A82C9
:102C4400850B83E0F50E850882850983E0FAE50E9D
:102C540024FE600D14600A1470BA74046A70B5809E
:102C64000574106A70AEE50A2402FEE50B3400FF19
:102C7400EEFCEFFDA90E12056AE9F50C7404650E6D
:102C8400707C8E828F83124614850A82850B83A3FF
:102C9400A3A3E0F514E4F515F516F51774087814F4
:102CA4001219E778107914121A06850A82850B83A3
:102CB400A3A3A3A3E0F514E4F51574107814121972
:102CC400E778107914121A06850A82850B83A3A368
:102CD400A3A3A3E0F508E4F509F50AF50B74187845
:102CE400081219E778107908121A0690047E7810F1
:102CF400121AC28009120360022C18750C01A90C67
:102D04007F10021D0C74F4121C3A74F4121BE38934
:102D1400088A828B83A3A3A3122D86FEA3E0FDEE73
:102D24002400E43DFFE82402FCE93400FDE5082426
:102D3400F6602624F87044122D8C121E4D74021273
:102D44001C2EAA82AB83120ED07402121BF9E970F6
:102D54002C122DA0120E5E8024122D8C121E4D7486
:102D640002121C2EAA82AB83120EBE7402121BF92D
:102D7400E9700A122DA0120E5880027901740C0217
:102D84004818A312549FE0228A828B83A3A3A3E052
:102D940024FEF50AE434FFF50B780A2290047D1230
:102DA4003695EEFAEFFB2274EE121C3A74E7121B0E
:102DB400E3890C8A0E8B0F8A828B83A3A3A3A312AD
:102DC4003D4E8C828D83123D49F9EA2400F50AE4D4
:102DD40039F50B750830750983EC2403FAED3400DA
:102DE400FBEC2402FEED3400FFE50C121E91011DE4
:102DF4000D36322E6D2EAA2EE12E362F6E2F09306F
:102E0400413003313B317931B131EF312732653211
:102E14009D321B335333C7330D360D36F5338C34A3
:102E2400C43444350D3672350D36A135E235851876
:102E3400828519838582088583097808121E4D12BC
:102E440036A212061E7402121BF9E9F50D60030284
:102E54003610851882851983AC82AD83AA0AAB0B20
:102E64001205BEE9F50D0236108518828519838591
:102E740082088583097808121E4D850E82850F838A
:102E8400123DCB121E4D0C0CEFFD7A007900120698
:102E94002A7404121BF9E9F50D6003023610123688
:102EA4008A1209A880BD85188285198385820885C0
:102EB40083097808121E4D1236A2120636740212C5
:102EC4001BF9E9F50D600302361085188285198314
:102ED400AC82AD83AA0AAB0B1205C4808685188226
:102EE4008519838582088583097808121E4D850E0D
:102EF40082850F83123DCB121E4D0C0CEFFD7A0020
:102F040079001206427404121BF9E9F50D600302FC
:102F140036107402121C2E121E6490047DE0F974A3
:102F240002121C2E1236721209CC7402121BF90200
:102F34002E67851882851983858208858309780818
:102F4400121E4D1236A212064E7402121BF9E9F536
:102F54000D6003023610851882851983AC82AD8317
:102F6400AA0AAB0B1205CA022E678518828519833B
:102F74008582108583117810121E4D12365C121E44
:102F84004D0C0CEFFD7A00790012065A7404121BE2
:102F9400F9E9F50D60030236107404121C2E123682
:102FA4004A121E4D7407121C2E85820E85830F78DB
:102FB4000E121E4D12363C121BF9E960428518822E
:102FC400851983E064017002A3E070337402121C5B
:102FD4002EE0F47003A3E0F47025123DA6121E51F6
:102FE4007408121C2EE0F97409121C2EAC82AD83F5
:102FF400AA0AAB0B1209B47401121BF9022E6775ED
:103004000D0202361085188285198385820885830E
:10301400097808121E4D1236A21206667402121B9B
:10302400F9E9F50D6003023610851882851983AC21
:1030340082AD83AA0AAB0B1205D0022E67851882D3
:103044008519838582088583097808121E4D850EAB
:1030540082850F83123DCB121E4D12362E121BF9A0
:10306400E9F50D60030236107404121C2E12365357
:10307400121E4D7407121C2E858208858309780858
:10308400121E4D7C027D007A287B83123644121B6B
:10309400F9E9601B7402121C2E121E6490047DE078
:1030A400F97402121C2E1236721209BA022F2E74EF
:1030B40004121C2E123653121E4D7407121C2E8538
:1030C40082088583097808121E4D7C027D007A26C9
:1030D4007B83123644121BF9E9601B7402121C2E06
:1030E400121E6490047DE0F97402121C2E123672D2
:1030F4001209C0022F2E12368A1209D8022E6785B1
:1031040018828519838582088583097808121E4DE3
:103114001236A212067E7402121BF9E9F50D600341
:10312400023610851882851983AC82AD83AA0AAB56
:103134000B1205D6022E67851882851983858208AD
:103144008583097808121E4D850E82850F83123DF2
:10315400CB121E4D0C0CEFFD7A00790012068A7416
:1031640004121BF9E9F50D600302361012368A12B7
:1031740009D2022E67851882851983858208858382
:10318400097808121E4D1236A21206967402121BFA
:10319400F9E9F50D6003023610851882851983ACB0
:1031A40082AD83AA0AAB0B1205DC022E6785188256
:1031B4008519838582088583097808121E4D850E3A
:1031C40082850F83123DCB121E4D0C0CEFFD7A004D
:1031D40079001206B47404121BF9E9F50D600302B8
:1031E400361012368A1209DE022E67851882851976
:1031F400838582088583097808121E4D1236A2122F
:1032040006C07402121BF9E9F50D6003023610853D
:103214001882851983AC82AD83AA0AAB0B1205E22E
:10322400022E67851882851983858208858309782B
:1032340008121E4D850E82850F83123DCB121E4D42
:103244000C0CEFFD7A0079001206CC7404121BF901
:10325400E9F50D600302361012368A1209E4022ED3
:103264006785188285198385820885830978081201
:103274001E4D1236A21206D87402121BF9E9F50D7E
:103284006003023610851882851983AC82AD83AA47
:103294000AAB0B1205E8022E67851882851983850F
:1032A40082108583117810121E4D12365C121E4D49
:1032B40012362E121BF9E9F50D6003023610740460
:1032C400121C2E12364A121E4D7407121C2E8582B1
:1032D4000E85830F780E121E4D12363C121BF9E92F
:1032E4007003023003851882851983E0640170023B
:1032F400A3E060030230037402121C2EE0F4700396
:10330400A3E0F4600302300390047DE0F9AA0AAB61
:103314000B1209AE022E67851882851983858208EF
:103324008583097808121E4D1236A21206E474022F
:10333400121BF9E9F50D6003023610851882851910
:1033440083AC82AD83AA0AAB0B1205EE022E67850D
:1033540018828519838582088583097808121E4D91
:10336400850E82850F83A3A3A3E024FC123DD5120E
:103374001E4DEC2404FCED3400FD8A828B83E0FABC
:103384008E828F83E0F9123D5C121BF9E9F50D6022
:10339400030236107418121C2EE0700912368A12B9
:1033A40009F6022E677417121C2E1245F4AC82AD76
:1033B40083AA0AAB0B70061209EA022E671209F0FF
:1033C400022E67851882851983858208858309788A
:1033D40008121E4D1236A21206A87402121BF9E935
:1033E400F50D6003023610AA0AAB0B1205F4022E87
:1033F4006785188285198385820885830978081270
:103404001E4D850E82850F83123DCB121E4D0C0C72
:10341400EFFD7A0079001206F07404121BF9E9F545
:103424000D6003023610900503123DBF700F7A73CE
:103434007B00120306900503EAF0A3EBF09005036A
:10344400123DBF603D900502E0C394054003023085
:1034540003851882851983C082C083900502E075B4
:10346400F017A4F8A9F0900503E028FCA3E039FDC7
:10347400D083D0827417121AF6900502E004F00289
:103484003610750D130236108518828519838582CE
:10349400088583097808121E4D1236A21206FC74A0
:1034A40002121BF9E9F50D600302361085188285B6
:1034B4001983AC82AD83AA0AAB0B1205FA022E67FC
:1034C4008518828519838582088583097808121EE8
:1034D4004D850E82850F83123DCB121E4D0C0CEFD1
:1034E400FD7A0179001207087404121BF9E9F50D3D
:1034F4006003023610900503123DBF7003023003CF
:10350400123DA6121E517401121C2E123DA9121E48
:1035140051900502E0F9900503123672120A027402
:1035240002121BF9E9F50D600A900503123D49FBEF
:1035340012030C900503E4F0A3F090050202348218
:103544008518828519838582088583097808121E67
:103554004D1236A212070E7402121BF9E9F50D6022
:1035640003023610AA0AAB0B120600022E67851856
:10357400828519838582088583097808121E4D1275
:10358400367A121E4D12361F121BF9E9F50D707CA6
:103594008E828F8312368D120ACE022E6785188290
:1035A4008519838582088583097808121E4D123691
:1035B4007A121E4D12361F121BF9E9F50D704D12C9
:1035C4003DA6121E518E828F83E0F97401121C2EC7
:1035D400AC82AD83AA0AAB0B120AC8022FFB851872
:1035E400828519838582088583097808121E4D1205
:1035F40036A21207207402121BF9E9F50D700DAA08
:103604000AAB0B1205B8022E67750D01A90D120441
:10361400CE7419121BF97F0A021D0C0C0C0CEBFD65
:103624007A00790012071A7404220C0CEFFD7A0058
:1036340079001206727404227C027D00AA08AB0988
:1036440012072C740422E0F50E750F00780E22E0A8
:10365400F508750900780822850E82850F83A3A3D7
:10366400A3E024FEF50EE434FFF50F780E22123D9C
:103674004EAA0AAB0B22850E82850F83A3A3A3E077
:1036840024FD123DD52290047D123695AA0AAB0B77
:1036940022E0F9851882851983AC82AD8322850ED8
:1036A40082850F83A3A3A3E024FEFCE434FFFD1A68
:1036B400EFFB2274EA121C3A74E0121BE3890E8AAF
:1036C400828B83A3A3A3A3E0F508A3E0F5098508EF
:1036D40082F583E0FCA3E0F9EC2400F50CE439F571
:1036E4000DE5082405F512E5093400F513E5082471
:1036F40004F510E5093400F511E5082402FEE50996
:103704003400FFE5082403F50AE5093400F50BE568
:103714000E121F0D0016025E3704533806AB37082D
:1037240019380AA0380C1C390E5E3910A337121C44
:103734003A16543A1BA93C1DEA3C30CE3732CE37F8
:1037440034E23836A03938DD393A0F3B3CED3B3EA4
:103754002F3C40713C42543A373D7407121C2E856D
:1037640082088583097808121E4D123DC7121E4D2A
:10377400EEFCEFFD7A00790012062A7404121BF99C
:10378400E9F50A6003023D3A123D9E121C2EAC82FA
:10379400AD83AA0CAB0D1209A8E9F50A023D3A1251
:1037A4003D721209AE80F2123DA6121E518A828B1E
:1037B40083A3A3A3E024FEF9EEFCEFFDAA0CAB0D5A
:1037C4001209B47401121BF980CF123D62740468AB
:1037D4007001E9703A123D8E2400FCE439FD123D7B
:1037E4007CF508E439F5097430650E780870101218
:1037F4001E4D123D721209BA7402121BF9809A12FC
:103804001E4D123D721209C07402121BF9808A7592
:103814000A04023D3A7407121C2E85820885830926
:103824007808121E4D123DC7121E4DEEFC123630A2
:10383400121BF9E9F50A6003023D3A123D9E121C7F
:103844002EAC82AD83AA0CAB0D1209C602379D744F
:1038540007121C2E8582088583097808121E4D12D2
:103864003DC7121E4DEEFCEFFD7A007900120642B0
:103874007404121BF9E9F50A6003023D3A74091253
:103884001C2E121E6490047DE0F97409121C2E1281
:103894003D4EAA0CAB0D1209CC0237FC7407121C66
:1038A4002E8582088583097808121E4D123DC712A1
:1038B4001E4DEEFCEFFD7A00790012068A740412A4
:1038C4001BF9E9F50A6003023D3A123D9E121C2ED3
:1038D400AC82AD83AA0CAB0D1209D202379D7407DA
:1038E400121C2E8582088583097808121E4D123D0C
:1038F400C7121E4DEEFC123630121BF9E9F50A60B0
:1039040003023D3A123D9E121C2EAC82AD83AA0CDA
:10391400AB0D1209D802379D7407121C2E8582083C
:103924008583097808121E4D123DC7121E4DEEFC08
:10393400EFFD7A0079001206B47404121BF9E9F55C
:103944000A6003023D3A123D9E121C2EAC82AD83E6
:10395400AA0CAB0D1209DE02379D7407121C2E85CA
:1039640082088583097808121E4D123DC7121E4D28
:10397400EEFCEFFD7A0079001206CC7404121BF9F8
:10398400E9F50A6003023D3A123D9E121C2EAC82F8
:10399400AD83AA0CAB0D1209E402379D7407121C07
:1039A4002E8582088583097808121E4D123DC712A0
:1039B4001E4DEEFCEFFD7A01123D5A121BF9E9F59A
:1039C4000A6003023D3A7407121C2EAC82AD83AA2E
:1039D4000CAB0D1209EA02379D7407121C2E858266
:1039E400088583097808121E4D123DC7121E4DEE3C
:1039F400FCEFFD7A017901123D5C121BF9E9F50A2D
:103A04006003023D3A7407121C2EAC82AD83AA0CEB
:103A1400AB0D1209F002379D7407121C2E85820823
:103A24008583097808121E4D123DC7121E4D123DA2
:103A340054121BF9E9F50A6003023D3A123D9E1245
:103A44001C2EAC82AD83AA0CAB0D1209F602379D75
:103A54008A828B83A3A3A3E0FA24FEF8E434FFF95B
:103A6400C3E89405E99400A2D265D0335003023828
:103A74001374FA2AF5147404121C2EE514F0FA7B5C
:103A8400001203067405121C2EEAF0A3EBF0740571
:103A9400121C2E123DBF606D123D8E851882851951
:103AA400831246A6123D7CF87402121C2E1246A5FF
:103AB4007404121C2EE0F50A750B00780A121E4DD0
:103AC400E5082406FCE5093400FD7407121C2E12D7
:103AD40045EC121BF97416650E90047D7008123DB6
:103AE400AF1209FC8006123DAF120A1AE9F50AE585
:103AF4000A7003023D3A7405121C2E123D49FB1252
:103B0400030C023D3A750A13023D3A123D62C3E8C2
:103B14009401E99400A2D265D03350030238138E85
:103B2400828F83E0F50F74FF250FC39405400302D1
:103B34003BE7E50F75F017A4FAABF01203068A0809
:103B44008B09AE08AF09EE4F60BB850A08850B09E7
:103B54007510008059850882850983E02404F512D4
:103B6400A3858208858309E51075F017A4F8A9F0E8
:103B7400EE28F50AEF39F50B780A121E4D85120A64
:103B8400750B00780A121E4DAC08AD097A00790055
:103B94001206F07404121BF9E9F50A6003023D3AB7
:103BA400E5082512F508E5093400F5090510E510C6
:103BB400C3950F40A0123DA6121E51750801780846
:103BC400121E51A90FEEFCEFFDAA0CAB0D120A0256
:103BD4007402121BF9E9F50A7003023D3AEEFAEF9A
:103BE400023B02750A02023D3A7407121C2E8582BA
:103BF400088583097808121E4D123DC7121E4DEE2A
:103C0400FCEFFD7A00790012068A7404121BF9E9AC
:103C1400F50A6003023D3A123D9E121C2EAC82ADA1
:103C240083AA0CAB0D120A0802379D7407121C2ECE
:103C34008582088583097808121E4D123DC7121E1D
:103C44004DEEFCEFFD7A0079001206B47404121BE9
:103C5400F9E9F50A6003023D3A123D9E121C2EACAE
:103C640082AD83AA0CAB0D120A0E02379D740712A3
:103C74001C2E8582088583097808121E4D123DC7C3
:103C8400121E4D123D54121BF9E9F50A6003023D60
:103C94003A123D9E121C2EAC82AD83AA0CAB0D12BF
:103CA4000A1402379D7407121C2E85820885830925
:103CB4007808121E4D8A828B83123680121E4DACF8
:103CC4000AAD0B123624121BF9E9F50A70688E82CC
:103CD4008F83123DA1121C2EAC82AD83AA0CAB0DB6
:103CE400120ACE02379D7407121C2E858208858322
:103CF400097808121E4D8A828B83123680121E4D5B
:103D0400AC0AAD0B123624121BF9E9F50A7027121E
:103D14003DA6121E518E828F83E0F97408121C2E68
:103D2400AC82AD83AA0CAB0D120AC87401121BF944
:103D340002379D750A01A90A1204CE7420121BF9D8
:103D44007F0E021D0CE0FAA3E022E0FCA3E0FD22BA
:103D5400EEFCEFFD7A00790012069C7404228A823C
:103D64008B83A3A3A3E024FEF8E434FFF922900498
:103D74007DE0F9AA0CAB0D22851082851183E0FA4F
:103D8400851282851383E0F9EA228E828F83E0FA1A
:103D9400850A82850B83E0F9EA2290047DE0F974B8
:103DA400072290047DE0F508780822123695AA0CC3
:103DB400AB0D22A3A3A3A3A3A3A3A3E0F8A3E0F9B9
:103DC400E849228A828B83A3A3A3E024FE123DD573
:103DD40022F508E434FFF50978082274EA121C3A43
:103DE40074A5121BE38C0C8D0D8A828B83A3A3A371
:103DF400A3E0FEA3E0FFEE2402F50AEF3400F50B86
:103E04008E828F83A3858208858309E97003023E2D
:103E1400AA24FD7003023FAF14700302400514701E
:103E2400030240471470030240F414700302414E2D
:103E340014700302416514700302405114700302AC
:103E440040E314700302417014700302445D147063
:103E5400030244FC1470030243E01470030243673A
:103E640014700302435E1470030240A124E1700342
:103E740002446E1470030244A11470030244EA1451
:103E8400700302450514700302457814700302455B
:103E94008F14700302449C1470030245951470033C
:103EA40002449C02459F8E828F83E0F5147C107936
:103EB40000AA0AAB0B1202E8E97019750C10750D13
:103EC40000780C121E4DAC0AAD0B7AE27B04124F43
:103ED4009B121BF9EE2412F50AEF3400F50B7C104B
:103EE4007900AA0AFB1202E8E97019750C10750D25
:103EF40000780C121E4DAC0AAD0B7AF27B04124F03
:103F04009B121BF9EE24221245C1F50CE4F50DF5C4
:103F14000EF50FEE2423F582EF124FCE12460C124B
:103F240019E7780C7910121A06EE2424F582EF12A0
:103F34004FCE1245E11219E7780C7910121A06EEE9
:103F44002425F582EF124FCE1245D61219E7780CCC
:103F54007910121A06E50C450D450E450F600890C0
:103F6400047E780C121AC2750A7E750B04780A1244
:103F74001E4D750AF2750B04780A121E4D7CE27D03
:103F840004850882850983E0FBAA1490047DE0F986
:103F94001203667404121BF9E9FE90047DE0FC7DB3
:103FA400007A237B001207B00245A1750A00750B45
:103FB40000740A121C2EAC82AD83758382758274E0
:103FC4007406121AF6750C06F50D780C121E4D7453
:103FD4000C121C2EAC82AD83AA08AB0912027C74AD
:103FE40002121BF9E96401600685080A85090BAA17
:103FF4000AAB0B8E828F83E0F91207C8E9FE0245F3
:10400400A190047DE0C0E07410121C2ED0E0124692
:1040140091E0C0E07411121C2ED0E01246B9C0E049
:104024007412121C2ED0E012468CE0C0E0741312FD
:104034001C2ED0E0F07410121C2EAA82AB8312073F
:104044003880B990047DE0F912073E80AF90047D7A
:104054001245F4124691E0C0E07401121C2ED0E027
:104064001246B9C0E07402121C2ED0E01246D0C031
:10407400E07403121C2ED0E01246C4121E4DEEFC56
:10408400EFFD7406121C2E124F97121BF98518822D
:10409400851983AA82AB831207860240001245FC6D
:1040A4008518828519831246ABFAA3E0F9EAF874FD
:1040B40002121C2E1246DF7404121C2E1246DF74E8
:1040C40006121C2E1246DF7408121C2E1246A585F9
:1040D4001882851983AA82AB8312079202400012C8
:1040E4004606E439FB90047DE0F9120846024000DC
:1040F4008E828F831245F41246B9C0E07401121CFB
:104104002ED0E01246C4121E4DEEFCEFFD740412D4
:104114001C2E124F97121BF9EE24061245CBC0E059
:104124007408121C2ED0E012468CE0C0E074091210
:104134001C2ED0E0F0851882851983AA82AB839067
:10414400047DE0F91208CA024000AC0AAD0BE0FBA2
:104154008E828F83E0FA90047DE0F91208D0024049
:104164000090047DE0F91208D6024000750C007539
:104174000D007C187D0079007414121C2EAA82ABE9
:10418400831202821245FCF87414121C2EE81246A3
:10419400ABC0E07416121C2ED0E012468CAE82AF77
:1041A40083E0C0E07417121C2ED0E012468C0EAFD0
:1041B400837508107509007808121E4DEEFCEFFD9A
:1041C400741A121C2E124F97121BF91245C8C0E024
:1041D4007428121C2ED0E01246D0C0E0742B121C9E
:1041E4002ED0E0124697A30E0EAF83A2E0E433FC78
:1041F400EAA2E15004D2F08002C2F0A2F0E433F863
:10420400EAA2E25004D2F08002C2F0A2F0E433F554
:1042140008EAA2E35004D2F08002C2F0A2F0E43330
:10422400F50A750B00EAA2E45004D2F08002C2F051
:10423400A2F0E433F50E750F00EAA2E55004D2F0C3
:104244008002C2F07429121C2E124638121BD0129E
:1042540045A8121BD0EA450A54EFFA7404780E12EA
:104264001BD0EA450E1245B3121BD0EA4508F87478
:1042740029121C2E1246A58E828F83E0A30EAF83D3
:10428400700302434BE0C0E0740A121C2ED0E0120B
:1042940046D0C0E0740B121C2ED0E01246D0C0E011
:1042A400740C121C2ED0E01246D0C0E0740D121C07
:1042B4002ED0E0124697A2E0E433FCEAA2E15004D7
:1042C400D2F08002C2F0A2F0E433F8EAA2E2500491
:1042D400D2F08002C2F0A2F0E433F508EAA2E3507F
:1042E40004D2F08002C2F0A2F0E433F50AEAA2E4B8
:1042F4005004D2F08002C2F0A2F0E433F50CEAA23A
:10430400E55004D2F08002C2F0740E121C2E124644
:1043140038121BD01245A8121BD0EA450A54EFFAF2
:104324007404780C121BD0EA450C1245B3121BD04E
:10433400EA4508F8740E121C2E1246A5740A121CC3
:104344002E85820C85830DAC0CAD0D7414121C2EBD
:10435400AA82AB8312085202400012461F12085868
:10436400024000124656121E4DEEFCEFFD7442123E
:104374001C2E124F97121BF91245C8FAA3E0F9EA52
:10438400F87450121C2E1246A51246F2750C0878C9
:104394000C121E4DEEFCEFFD7454121C2E124F979E
:1043A400121BF98E828F83A3A3A3A3A3A3A3A3E0C9
:1043B400C0E0745A121C2ED0E0F0750B01780B1279
:1043C4001E517441121C2EAC82AD83A90AAA08ABFB
:1043D4000912086A7401121BF902400012465612AF
:1043E4001E4DEEFCEFFD742E121C2E124F97121B65
:1043F400F91245C8F50CE4F50EF50FA312460C129C
:1044040019E7780C7910121A068E828F83A3A312EF
:1044140045E11219E7780C7910121A068E828F83FF
:10442400A3A3A31245D61219E7780C7910121A0621
:10443400743C121C2EE50CF0A3E50DF0A3E50EF080
:10444400A3E50FF0742C121C2EAC82AD83A90AAA2A
:1044540008AB0912084C024000124606FCE439FD80
:10446400AA0AAB0B12085E0240008E828F83E0FA28
:104474007B00850882850983E0FC850A82850B839D
:10448400E0F9EC2400E439FDEA6423600BEA9424A7
:1044940050061207B00240007E020245A178FF795F
:1044A400FF8E828F83E0FA7B00F46024EA64236049
:1044B4001FEAC3942450191207B68A088B09A80866
:1044C400A90974FF68700374FF6960047E008002A8
:1044D4007E02850C82850D837402F0E89004B0F0AE
:1044E400E9A3F00245A1EE2410FCEF3400FDEEFA3E
:1044F400EFFB12082802400012461F12094802402E
:1045040000E0F50EF58285820C750D002404FAE4B2
:104514003400FB1203068A088B09EA450960518EB0
:10452400828F83E08A828B83F0A3E50EF0EA240273
:10453400F8EB34000A0AFBE50824040808E509340A
:1045440000F98A828B831246A5780C121E4DAC0AA0
:10455400AD0B8A828B831245EC121BF9AA08AB09B6
:104564001208DCE9FE6036AA08AB0912030C802DA0
:104574007E1380298E828F83E0F91208E2EA4B7061
:104584000302449C12030C7E0080121208E80240CD
:10459400007E028C828D83E40244E67E01EEF9748F
:1045A4005B023D41EA450854F7FA7403780A225441
:1045B4001FFAA2F0E433F5087405780822F582EFB7
:1045C4001251DE22EE2410FEEF3400FF8E828F8320
:1045D400E022E0F510E4F5127418781022E0F510EA
:1045E400E4F5117410781022123D49FB12506E222A
:1045F400E0851882851983221246002212467EF92C
:10460400EA2212460024002212461474087810226A
:10461400E0F510E4F511F512F51322850A82850BF5
:1046240083E0F98E828F83E0FC850882850983E02C
:10463400FBECFA22E054FEFAA3E0FBEA4C54FDFA48
:10464400E8C333F8EA48F8EBF9E854FBFA74027863
:10465400082212467EF8E4C8F9EA2400F508E43991
:10466400F5090E0EAF0B8E828F83E0F50AA3AE829E
:10467400AF83750C10880D780C228E828F83E0FA3C
:10468400850882850983E022124691A322F08E8256
:104694008F8322124691A3E0FA22F98518828519A4
:1046A40083E8F0A3E9F022F0A3E9F00E0EAF0B8E3D
:1046B400828F83E022F0AE08AF098E828F83E022DE
:1046C4001246D57508067509007808221246D5E009
:1046D40022F08E828F83A30EAF8322E8F0A3E9F049
:1046E4001246F28E828F83123D49F9EAF822EE24B3
:1046F400020E0EEF3400FF2274F4121C3A74FE1200
:104704001BE3EAFEEBFF851882851983E4F0F508C4
:10471400F50904121C2EE4F07C28FDF97A827B044E
:104724001202828E828F83E0245E604324F2605DF5
:104734001470030247BE24E160030247E3740112CC
:104744001C2E8582088583097808121E4D74021276
:104754001C2E8582088583097808121E4D7C827D73
:1047640004EEFAEFFB1204B07404121BF9806C859A
:1047740018828519838582088583097808121E4D5D
:104784007C827D04EEFAEFFB1204B68049740112B8
:104794001C2E8582088583097808121E4D74021226
:1047A4001C2E8582088583097808121E4D7C827D23
:1047B40004EEFAEFFB1204BC80AE851882851983DF
:1047C4008582088583097808121E4D7C827D04EE5B
:1047D400FAEFFB1204C27402121BF98A088B09EE69
:1047E400FAEFFB120294851882851983E0600AAC03
:1047F40008AD09FA79FF120E04E508450960117441
:1048040001121C2EE064017007AA08AB0912030C04
:1048140079007402121BF97F04021D0C74E8121C47
:104824003A74FE121BE3EAFEEBFF8C088D09751047
:1048340000750A00750B00EC2406F8ED3400F9EC61
:104844002405FAED3400FBEC2404F516ED3400F5F0
:10485400178C828D83A3858214858315EE2403F53A
:104864000EEF3400F50F8E828F83A3858212858329
:10487400138E828F83A3A3E0121E91000F6E4FA3A9
:10488400482049244A384A4B4A644A174B364B96C7
:104894004BB44B5A4C274CB84EED4E1D4E264E8C05
:1048A400828D83E412513A121E4D124FF4121BF9F9
:1048B40012519DC0E0124FC6D0E0F0750A10780A7C
:1048C400121E4D7CE27D04E508240CFA124FFE1200
:1048D4001BF9780A121E4D7CF27D04E508241CFAAB
:1048E400124FFE121BF9851282851383E070217C1E
:1048F400E27D047A10790212056A7CF27D047A1052
:10490400790312056A7C7E7D047A04790412056AAF
:1049140085080A85090B75102C024F6E8512828555
:104924001383E060030249E7850E82850F83E070FC
:10493400030249E733333354F82404124F9F7003BE
:104944000249DE8A828B837401F0A3740612511A21
:10495400851282851383125113850E82850F83126B
:1049640051138E828F83A3A3A3A3E0F8A3E012467E
:104974009E7E00804E12501D12511312501DA31220
:1049840051137516067517007816121E4D7402120F
:104994001C2EE02402FCA3E03400FDAA0CAB0D1293
:1049A4004F9B121BF9E50C2406F50CE50D3400F5BC
:1049B4000D0E851882851983E02408F8A3E03400DD
:1049C40012469E850E82850F83E0F8EEC39840A5BB
:1049D400741C121C2E125030800885128285138399
:1049E4007413F0851282851383E0700C850E828522
:1049F4000F83E06003024F6E85088285098374018A
:104A04001250ED85128285138312554FF08508826A
:104A1400850983A3A3A3E412510B751004024F6EFE
:104A24008C828D8374021250DF74061251468C0AF4
:104A34008D0B80E68C828D83740312522D8C0A8D2B
:104A44000B751005024F6E8C828D8374041250ED29
:104A54008E828F83125016125090751003024F6E7F
:104A64008C828D8374051250DF04125201121E4D84
:104A7400125007121BF98E828F83A3A3A3A3A3A3AF
:104A8400A3A3A3A31255541250F6C0E0124FC6D0EC
:104A9400E01250B6C0E0E508240C124FCAD0E0F092
:104AA400124FED124FCEA3E0C0E0E508240D124FE3
:104AB400CAD0E0F0EE240EF8124FD3C0E0E508248B
:104AC4000E124FCAD0E01250BBE0C0E0E508240F3C
:104AD400124FCAD0E0F0EE24100808124FD3C0E001
:104AE400E5082410124FCAD0E01250BBE0C0E0E544
:104AF400082411124FCAD0E0F0EE24121245C1C0AE
:104B0400E0E5082412124FCAD0E012510B751013BD
:104B1400024F6E8C828D8374061250DF125146123E
:104B240052381250B08A828B83125092751006024A
:104B34004F6E8C828D8374071250DF14F0851282BD
:104B4400851383125017125098125017A3A3A3125F
:104B540050B08516828517831250C28A828B8312C5
:104B640050D3888289831251231250E78C828D831B
:104B7400A3A3A3A3A3A3125098A3A3A3A3A31250D4
:104B8400161250F68C828D83A312508975100B0275
:104B94004F6E8C828D8374081251FE121E4D12507A
:104BA40007121BF985080A85090B75100A024F6E56
:104BB4008C828D8374091251FE121E4D12500712FD
:104BC4001BF98E828F83A3A3A3A3A3A3A3A3A3A34D
:104BD400780C121AB3850882850983A3A3A3A3A31F
:104BE400A3A3A3A3A3125179121AB3E50DF50CE5FF
:104BF40008240B125171121AB37410780C1219CEC6
:104C0400E508240C125171121AB37418780C121995
:104C1400CEE508240D124FCAE50C12510B75100E87
:104C2400024F6E8C828D83740B12513A121E4D12F8
:104C34004FF4121BF912519DC0E0124FC6D0E0127E
:104C440050B6C0E0E508240C124FCAD0E012510B54
:104C540075100D024F6E75106A7A6A124FA27003B6
:104C6400024DF3741C121C2E125030F07C6A7D002D
:104C74007900120282850A82850B83740A1251E438
:104C8400850E82850F831250748E828F83A3A3A313
:104C9400A3A3125181F8A3E0F9E84960448508828E
:104CA4008509837401125184125189121E4D8E821A
:104CB4008F8312505D121BF9E5082410124FAF12B6
:104CC40050361251811250C7121E4D8E828F83A30B
:104CD400A3A3A3A3A312504E121BF9E50824088032
:104CE40004E508241C124FDD123DBF604285088292
:104CF40085098374011251D1125189121E4D124F2C
:104D0400ED124FCE125063121BF9E5082410124F16
:104D1400DD12503C1251CA1250C7121E4D124FEDF3
:104D2400124FCE12504E121BF9E50824088004E5F8
:104D340008241C124FAF123DB760478508828509CD
:104D4400837401125191121E4D8E828F8312505B17
:104D5400121BF9E5082410F508E5093400F5097576
:104D64000C06780C121E4D8E828F83A3A3A3A3A3DB
:104D7400A3A3A3E02410125051121BF9E508240642
:104D84008004E5082417124FC0123DB77003024F88
:104D94006E8508828509837401125191121E4D8E0D
:104DA400828F83A3A312505B121BF9E5082410120F
:104DB4004FC0A3A3125036780C121AB312520A121F
:104DC4001AB3E50D850882850983125212121AB3AB
:104DD4007410780C1219CE12520A121AB37418787D
:104DE4000C1219CE850882850983E50C024F6D8566
:104DF4000882850983740A1250ED85088285098327
:104E0400A3A37413F0850E82850F8312554FA3F06C
:104E140012523812510B024A458C828D83740E0251
:104E24004A3E8C828D83740F12522D8E828F83A3FF
:104E3400A3A3A3A3E08A828B831250C288828983AE
:104E44001250D38C828D83A3A3A3A3A3A3A3125133
:104E540023A31250E7A2E0E433F50A8E828F83A3E2
:104E6400A3A3A3A3A3A3A3A3E05402600478028092
:104E7400027800124F85540460047804800278009C
:104E8400124F8554086004780880027800124F8518
:104E940054106004781080027800124F855420600A
:104EA40004782080027800E8450A8C828D831250B1
:104EB40089024BAE8C828D83740C12522D750A06B6
:104EC400780A121E4DEE2405FCEF3400FD124F9BB0
:104ED400121BF9EE240B1245C1C0E0124FC6D0E0FC
:104EE40012510B75100C024F6EEE240C1245C124A6
:104EF4000D124F9F606B8A828B83740D1251E48E66
:104F0400828F83A3A3A3125074750C06750D0078C9
:104F14000C121E4DEE2405FCEF3400FDAA08AB096B
:104F2400124F9B121BF9E5082406F508E509340025
:104F3400F509EE240BF582EF124FCE1251CA12512D
:104F4400CBF50C780C121E4DEE240DF582EF124FAA
:104F5400CE125063121BF9741C121C2E1250308096
:104F6400088512828513837413F0741A121C2E128E
:104F74005023E510F0AA0AAB0B7402121BF9022DA0
:104F840004E8420A8E828F83A3A3A3A3A3A3A3A3AB
:104F9400A3E022AA82AB8312506E22F510FA7B00A2
:104FA4001203068A0A8B0BEA450B22124FB322F531
:104FB40008E5093400F5098E828F8322124FB3A3CA
:104FC400A322E508240BF582E5093400F58322EFDA
:104FD4003400F988828983E022F508E5093400F574
:104FE40009124FED3400F58322EE240CF582EF22F2
:104FF400AC0EAD0FE50824031A1AE5093400FB12C0
:10500400506E22EE2404FCEF3400FD1AAB1712504C
:105014006E22A3E08C828D832285188285198312E7
:10502400502722E0F8A3E0F58388822212502774E7
:105034000122A3A3A3A3A3A312504022E02410F8A7
:10504400A3E03400F98882898322E02412FCA3E0DF
:105054003400FD12506A22A3A3A3A3A3A3A3A31203
:105064003D4E12506A22AA08AB0912026A74022247
:1050740012507822A31251C212508022F0A38582CA
:105084000885830922A3A3A3A3A3A3A3A3A3F08CAA
:105094000A8D0B22A3A312509E221250A222125058
:1050A400A622F08E828F83A3A3A3A32212509EA3D1
:1050B400E022F01251D822F088828983A322125070
:1050C400D9E022125041125078750C08780C221243
:1050D40050D9A3E0221250A2A3A322F08514828502
:1050E40015832212512EA3E0221250F12212524BA8
:1050F400F0221250FCA3E022A3A3A3A3A3A3A3A37F
:10510400A3125132A3A322F085080A85090B22E0D9
:10511400850C82850D83F0A385820C85830D221274
:10512400512E125168A3A3A3A3221251322212506A
:10513400A6A3A3A3A3221250F1125159750A06780B
:105144000A2212514A22F0125159850E82850F8388
:10515400125168F022851282851383E08C828D833C
:10516400A3A3F022E08C828D83A3A3A322F582E57E
:10517400093400F583E50C125105780C221251BE56
:1051840012521FE022241A1250431251BE12507CB4
:10519400750C10750D00780C228E828F83A3A3A347
:1051A400A3A3A3A3A3A31251BE1250FC12556AA336
:1051B400A3A3F0EE240B1251DB221251C222E0858C
:1051C400088285098322E085088285098312507C40
:1051D4001251D822EE240CF582EF3400F583E0223C
:1051E400F0A3740612507C851282851383125079C1
:1051F400850E82850F831250792212524712514A2A
:10520400750A06780A22850882850983E50C1252FC
:105214001FA3A3A3A3125040780C221250808E82A5
:105224008F83A3A3A3A3A3A32212524712514A120A
:105234005238F022850E82850F83A3E0851682857D
:1052440017832212524B22F085148285158374062B
:105254002274EE121C3AEAFEEBFF8C088D097412DC
:10526400121C2EE0F510A3E0F511EE2405F50CEF69
:105274003400F50D8E828F83A385820A85830B8E7D
:10528400828F83A3A3121E64850A82850B83E0F9AF
:10529400850C82850D83E04480FC7D04AA08AB095B
:1052A4001204C87402121BF9E9F50E850A82850BF3
:1052B40083E0703A890AE508250AFAE5093400FB17
:1052C400EE2406FCEF3400FD850C82850D83E0148A
:1052D400600A24F6600B24F8600C8012120EAC8075
:1052E40008120EC48003120ED6EA250EF50E8510A0
:1052F40082851183E50EF0AA08AB0902361A74EE12
:10530400121C3A8A088B09ECFEEDFF7412121C2E53
:10531400E0F510A3E0F5117414121C2E12549F75BD
:105324000C00E4F0EA2404F50EEB3400F50F8A8255
:105334008B83A385820A85830BE06003025458EEB5
:105344002406FAEF3400FBE5082405FCE5093400E3
:10535400FD850E82850F83E014605714605A146033
:105364005D14606014606314606614606814606A9D
:1053740014606C14606E14607014607214607414A1
:10538400607614607814605214607714607924FC99
:1053940070030254431470030254481470030254FB
:1053A4004D24FD700302545224FE70030254520231
:1053B4005458120618025455120624025455120663
:1053C4003002545512063C025455120648025455F4
:1053D400120654807C120660807712066C8072126A
:1053E4000678806D12068480681206908063120627
:1053F400AE805E1206BA80591206C680541206D2D6
:10540400804F1206DE804AE508241CF582E5091265
:1054140045C48A828B83F0E508241DF582E50912D0
:1054240045C48E828F83A3A3A3A3A3A3A3F0EE24D6
:10543400080A0AEF3400FB1206A2EA2402801312BF
:1054440006EA800D1206F68008120702800312078E
:1054540014EAF50C850882850983A3A3121E6485CA
:105464000A82850B83E0F9850E82850F83E0FC7D3B
:1054740005EEFAEFFB1204C87402121BF98E828F38
:1054840083A3A3A3A3A3E50CF07406250C851082C3
:10549400851183F0EEFAEFFB02361AE0F8A3E0F987
:1054A400888289832274F2121C3A8C088D09740E46
:1054B400121C2EE0FEA3E0FF750A00EA2404F8EBB8
:1054C4003400F9E8FCE9FD8A828B83A3A882A983CE
:1054D400E070268C828D83E0701FEA240512554209
:1054E4001251BE12555DF0EA240712554212554F6F
:1054F40012555DA3A3F0750A048A828B83A3A312B9
:105504001E6488828983E0F98C828D83E04480FC68
:105514007D05AA08AB091204C87402121BF9850898
:1055240082850983A3A3A3A3A3E50AF07406250A2D
:105534008E828F83F0AA08AB097F06021D0CF50A40
:10554400EB3400F50B850A82F58322125554A3220D
:10555400125558221251C2A322A3A3A3A3A3A31298
:10556400557412556A22125558A3A3A3A3A3A322C8
:10557400F0850A82850B83A32274F7121C3AE9FE94
:105584007409121C2EE0F8A3E0F9EC8A828B83F0F4
:10559400EDA3F0EE8A828B83A3A3F0E88A828B8347
:1055A400A3A3A3F0E98A828B83A3A3A3A3F0790521
:1055B40002296DE924FC600D14600E24F9601224A4
:1055C400FD600A800E7940800A7941800679428024
:1055D400027943020122C082C0839061907404F076
:1055E400A37448F0A37402F09061807440F0906159
:1055F400BC7403F09061877419F0906265741BF0B9
:1056040090619A7433F0A37455F09061A0743AF0E9
:10561400900B3EE064017009C29190077374678037
:10562400059007737461F09028DAE493906186F032
:105634009028D4E493F46027E493540FF8906185A0
:10564400E0686012E5C654804449F5C6E59E547F7F
:10565400644970F8E8F053C680E59E547F70FA7987
:1056640005121482026002C082C083E5A8F853A820
:105674007E906181E4F0A3F0A3F0C2BA539AFEC213
:1056840089759B00C2C275E90075910075BF0075EC
:10569400A91175B905906181F0A374C0F0A3E4F079
:1056A400D2BA439A0174805842A8026002C082C0F0
:1056B40083906181E4F0A3025D98C082C08374F892
:1056C400121BE3900771E0F8A3E0F9E849700302C4
:1056D40057EC900771E0544060237908851882855F
:1056E4001983AA82AB8312125A851882851983AA58
:1056F40082AB83120D86900771E054BFF0E05480B2
:105704006010790C7A627B0B12125A900771E05484
:105714007FF0E0A2E0503190619A7433F0A37455A5
:10572400F09061A0743AF0900B3EE064017009C2FD
:1057340091900773746780059007737461F0120D7C
:105744008C900771E054FEF0E05402603190619A4D
:10575400743FF0A3745AF09061A0747FF0900B3EF4
:10576400E064017009D29190077374718005900709
:1057740073746AF0120D8C900771E054FDF0E054DC
:105784000460139028D8E493906186F0120D9290EF
:105794000771E054FBF0E0540860139028D9E493B7
:1057A400906186F0120D92900771E054F7F0E05486
:1057B4001060139028DAE493906186F0120D9290B1
:1057C4000771E054EFF0E05420600A120D92900744
:1057D40071E054DFF0A3E05401600D121122120DA8
:1057E4009E900772E054FEF07408121BF9026002E6
:1057F400C082C083E9600514602A804F90619A7466
:1058040033F0A37455F09061A0743AF0900B3EE02D
:1058140064017009C2919007737467802D900773B7
:105824007461802690619A743FF0A3745AF0906179
:10583400A0747FF0900B3EE064017009D291900750
:105844007374718005900773746AF0026002C082F9
:10585400C083E9600814600A14600C80139028D88F
:1058640080089028D980039028DAE493906186F028
:1058740002600274F6121C3A906186E0F875080022
:105884007582D8758328E49368701074702508F5C0
:105894008274823400F583E0F9800C0508A3E508DE
:1058A400C3940340E17980026E9F74EC121C3A7435
:1058B400F4121BE3851882851983AC82AD8375834A
:1058C400827582F67404121AF69028D893F4600351
:1058D400025A3B907808E0C394025003025A1B74A6
:1058E40004121C2EAC82AD8375838275825C7408AD
:1058F400121AF6851882851983858212858313749A
:1059040004121C2EAC82AD83750EFF750FFF7FFF52
:105914007E00750C48750D78801574086E7003024E
:1059240059AE74096E70030259AE740A6E607B85B9
:105934000C82850D837808121AB38C828D83A90991
:10594400E50AC9F88810741878081219CEE51045CC
:1059540008F8C3E098A3E099850C82850D83780844
:10596400121AB340188C828D83741878081219CED9
:10597400E5104508F8E0C398F8A3E0801C74187893
:10598400081219CEE5104508FAE9FB8C828D83E0F4
:10599400F8A3E0F9EAC398F8EB99F9C3E8950EE99E
:1059A400950F5006880E890FEEFF0EE50C2404F5C2
:1059B4000CE50D3400F50DEEC39413500302591E8B
:1059C40074FF650E700474FF650F60238F08740202
:1059D4007808121BD074482508F58274783509F5C7
:1059E400837808121AB3851282851383E508F0ECD4
:1059F40024020C0CED3400FD851282851383A385EB
:105A04008212858313740C121C2EE5826C7003E5DC
:105A1400836D600302590C7508017509007808123A
:105A24001E4D7402121C2EAC82AD837A367B0A1290
:105A340003A87402121BF9740C121BF97F0C021DCB
:105A44000CC082C08390618674E1F09061AE74688A
:105A5400F0A3746AF090624574FBF0A304F053F46D
:105A6400FD43FE02900B3E7401F090619A7433F092
:105A7400A37455F09061A0743AF074016401700944
:105A8400C291900773746780059007737461025D17
:105A94009A7F04021D0CC082C08375E1F1900AC98B
:105AA400E060551460081460591460518059121153
:105AB4002E900ABFE0F97AC07B0A1213BC9082F2DE
:105AC400121AD112140A9082D2121AD11213C89047
:105AD4000ACAE0F91213D47901121476900ABDE0CF
:105AE4002416F8A3E03400F988828983745EF0A355
:105AF4007411F0790002600212113480B412113A68
:105B040080AF12114080AA791280EA74F4121C3A10
:105B140075D90D900AAFE0A2E0E4331313F8900AAC
:105B2400BFE0C4333354C0484401F5D978BD790A81
