:020000040000FA
:0600000002011D021D6F4C
:03002B000222B7F7
:030033000222990D
:03005300021DE2A9
:03006B00022270FE
:10008300021C23E5C754F84401F5C7790122000097
:100093000080FB120086B90003020107E4791B7894
:1000A30002B800028004F709D8FCE4791D7802B88D
:1000B30000028004F709D8FCE490028178FF790DEF
:1000C3008002F0A3D8FCD9FA781A90014D7A01BACC
:1000D30000028007E493A3F608DAF9900F7FAA825F
:1000E300AB8390014E78CF79018015E493A3AC8262
:1000F300AD838A828B83F0A3AA82AB838C828D83A8
:10010300D8E9D9E775828D7583C8740312012F75F9
:100113008291758300740012012F75D00075813FA1
:10012300751881751902759F00020096C09FF59F8F
:10013300E473D09F22D083D082C09FE493C0E07445
:100143000193C0E0740293F59F2201A803BA03E46C
:1001530003AE03FF0000B400002800280028307518
:10016300A000A000A000A00000080008E001F0002B
:10017300100010001000100010001000500050007C
:10018300500010001000D0070000000000000F0016
:10019300307507001000010081FF0000FF0202021A
:1001A3001483010000FB82020E83010000D10F02C1
:1001B3000083010000B102020E83010000D20F028E
:1001C300FE82010000C702FFFF0100FF200214832B
:1001D300010000F882020E83010000001002048374
:1001E3000000000000020283030000A403220B228C
:1001F3000B220B220B220B220B220B220B220B2294
:100203000B220B220B220B020D200DFC0CFFFF0116
:10021300E803053F10FF00FEFF12013828C0031258
:1002230001383EC0031201386BC0031201389BC072
:1002330003120138B2C003120138D3C003120138CC
:1002430004C10312013855C1031201386CC10312F2
:100253000138B3B903120138CAB903120138F9B925
:100263000312013832BA031201385ABA03120138A1
:1002730088BA031201389FBA03120138B6BA0312BF
:100283000138CCBA03120138F3BA0312013806BBA2
:10029300031201381CBB0312013844BB031201389B
:1002A30004A90212013803AA021201382DAA02126C
:1002B300013882AA02120138A3AA02120138BCAA89
:1002C30002120138BEAA02120138DFAA0212013853
:1002D300E2AB021201389FAC021201386CAD02127C
:1002E3000138D0AD0212013867AE021201386AAE8E
:1002F30002120138F0AE0212013833AF0212013894
:1003030085AF0212013888AF02120138BFAF021263
:100313000138E6AF021201387CB00212013805B190
:10032300021201384EB1021201385BB102120138D8
:100333005EB102120138BCB102120138D4B102120B
:1003430001384EB20212013851B20212013874B2AE
:100353000212013877B2021201381EB302120138B9
:1003630041B30212013859B30212013889B30212A0
:10037300013896B30212013899B30212013805B459
:1003830002120138F3B402120138A9B5021201387E
:1003930058C00212013833C10212013861C102127E
:1003A3000138E1C10212013801C2021201383FC211
:1003B3000212013892C202120138FAC20212013843
:1003C3008BC30212013856C40212013865C70212E8
:1003D3000138D1C802120138F4C8021201389E9ABA
:1003E30003120138329C03120138919C0312013825
:1003F300F09C03120138FE9C03120138279D03125F
:100403000138008003120138288003120138568016
:10041300031201388D8003120138F580031201386D
:100423003E8103120138898103120138C781031207
:100433000138048203120138328203120138D9824F
:1004430003120138E38203120138F08203120138E8
:10045300238303120138E58303120138F183031266
:10046300013809840312013813840312013891847B
:100473000312013889C40312013897C403120138E7
:10048300AFC403120138C7C403120138DFC4031217
:1004930001387BEB0112013819EC0112013891ECA0
:1004A30001120138A6ED01120138E0ED0112013805
:1004B30089EE011201385EEF01120138C2F0011218
:1004C300013819F101120138A0F10112013887F244
:1004D30001120138D4F20112013862F3011201381A
:1004E30086F3011201385BF5011201389CF5011204
:1004F3000138BEF50112013883F60112013849F7BC
:10050300011201387EF9011201387B9E0312013872
:10051300919E03120138B79E03120138DF9F031225
:100523000138E99F0312013842A10312013842A2A4
:1005330003120138C38903120138658A0312013893
:10054300998A03120138DB8A03120138958C03124E
:1005530001382EAC01120138ACAC01120138BCAC2D
:10056300011201389FAD01120138A9AD0112013802
:10057300D7AD01120138E2AD01120138BBAE011251
:1005830001381DAF01120138B9AF01120138BDB1F5
:100593000112013874B301120138F0B301120138AA
:1005A300CDB401120138FBB70112013899B8011219
:1005B3000138F6B90112013869BB0112013812BCC6
:1005C300011201385BBC0112013892BC01120138DF
:1005D30037BD01120138B5BD01120138FBCD01123F
:1005E300013850CE0112013895CF01120138A5CF41
:1005F30001120138C8CF0112013813D0011201389A
:10060300B8D001120138AED10112013878D20112EB
:100613000138F0D30112013832D401120138D0D499
:1006230001120138F6D401120138E4D6011201385F
:10063300E9D601120138CAD8011201381ED90112B4
:10064300013880D901120138A8D9011201384CDAD6
:10065300011201380EDB011201383FDB01120138B0
:1006630042DB011201388ADB01120138CCDB0112B3
:10067300013833DC011201388BAF031201389EAF0E
:1006830003120138A7AF03120138C0AF03120138B8
:100693000BB003120138E6B00312013875B103122F
:1006A3000138C0B103120138615C00120138715C7A
:1006B30000120138D45C00120138195D00120138B0
:1006C300C95D00120138A25E00120138CB5E001230
:1006D3000138FB5E001201380F6100120138EB6232
:1006E30000120138CB64001201380366001201388E
:1006F3007C6800120138686900120138AE6A001282
:100703000138BB6B00120138FD6B00120138356CE8
:10071300001201384F6C00120138B76C0012013817
:10072300517100120138F271001201384672001241
:1007330001386D7200120138AB7200120138CA72AF
:10074300001201381E73001201382674001201389A
:10075300AF74001201381AE10212013824E10212C7
:100763000138E7E10212013836E2021201385AE297
:1007730002120138A4E202120138DCE2021201384B
:1007830004E30212013897E302120138D3E30212A1
:10079300013818E50212013839E5021201385CE527
:1007A300021201388EE50212013861E602120138A5
:1007B3009BE602120138EFE60212013839E7021212
:1007C300013882E702120138ABE702120138D0E7A1
:1007D30002120138A99603120138739703120138E4
:1007E3005F9803120138D598031201381799031241
:1007F3000138449A03120138CF8D02120138F88D63
:1008030002120138118E02120138568F021201387A
:10081300349002120138539002120138E090021210
:1008230001382391021201385B9202120138C792F8
:1008330002120138BD94021201384B97021201389B
:10084300DE9702120138B29802120138559902124A
:100853000138689A02120138FE9A0212013883C1E4
:1008630003120138ECC10312013840C203120138EC
:100873006FC203120138388E03120138A58E03129A
:100883000138F08E03120138E58F03120138E1902D
:1008930003120138CB9103120138F8E70212013831
:1008A3003FE80212013818E90212013813EA021272
:1008B3000138F2EA021201385EEB021201387AECD7
:1008C30002120138E1EC02120138E4EC02120138A1
:1008D3000FED0212013880ED0212013823EE0212ED
:1008E300013838EE0212013880EE0212013899EE17
:1008F300021201389CEE02120138E9A503120138F5
:1009030025A60312013863A6031201382DA703128B
:100913000138A0A703120138DBA70312013819A875
:100923000312013849A80312013870A803120138D1
:10093300DBA8031201381DA9031201381883011221
:10094300013824850112013899860112013849873B
:1009530001120138948701120138DF87011201382F
:100963001888011201387588011201389088011224
:100973000138DC88011201381689011201383989DE
:1009830001120138C08901120138988A0112013815
:10099300D18B01120138C98C01120138818E0112E9
:1009A3000138A09301120138BE9301120138059456
:1009B30001120138369601120138349801120138B8
:1009C30013B403120138B3B503120138DC22001249
:1009D30001386D23001201389A2300120138E023F5
:1009E30000120138162500120138AD260012013815
:1009F3000027001201385C2700120138C7280012B3
:100A03000138322B001201380E2C001201382D2C24
:100A1300001201384C2C001201384F2C00120138FF
:100A2300D52D00120138CA2E00120138C62F00122C
:100A33000138363000120138A8300012013827314E
:100A43000012013802320012013809330012013852
:100A5300E83300120138733400120138E134001214
:100A630001385535001201387E35001201383D3604
:100A7300001201384C39001201389539001201383F
:100A8300D839001201385B3A00120138FF3A0012DC
:100A93000138903B00120138B53B00120138FF3B8F
:100AA30000120138293C001201386E3C0012013853
:100AB300E93C00120138433D00120138973E001211
:100AC3000138543F001201382740001201380080DA
:100AD300021201385080021201385C800212013880
:100AE300398102120138698102120138A18102128F
:100AF3000138208202120138588202120138AA8278
:100B030002120138E782021201380C850212013801
:100B13003887021201383389021201380E8B021210
:100B23000138F37F00120138BFF402120138DDF8F7
:100B3300021201382DFA0212013869BE011201387E
:100B43003BC50112013841C501120138F1C7011239
:100B5300013870FA021201381CFB02120138EAFB59
:100B63000212013814FC0212013862FE021201382B
:100B73005540001201389F4000120138514D0012B8
:100B83000138D24E00120138CA4F001201382956DB
:100B9300001201382457001201386157001201383E
:100BA300845700120138C65700120138D05700127B
:100BB3000138BC5800120138B05900120138495AA3
:100BC300001201384CA203120138E2A203120138C9
:100BD300F8A20312013872A303120138C8A3031247
:100BE300013806A40312013863A403120138E0A4F8
:100BF30003120138E9A403120138F5A403120138E2
:100C030008A50312013844A5031201385AA503129B
:100C13000138B9A5031201388DF9011201389AF987
:100C230001120138B4F901120138F3F90112013844
:100C330031FA0112013896FA01120138ABFA0112A6
:100C43000138C2FA01120138D0FA01120138DFFA71
:100C530001120138F4FA0112013809FB01120138BB
:100C630014FB0112013820FB011201382DFB011284
:100C730001383CFB0112013847FB011201386CFBC0
:100C83000112013815FC011201382AFC0112013846
:100C93003FFC0112013859FC0112013874FC0112A6
:100CA300013891FC011201389CFC0112013858FDF6
:100CB3000112013844FE0112013869FE01120138A4
:100CC30073FE0112013887FE01120138A6FE0112DC
:100CD300013807FF011201380DFF0112013813FF1C
:100CE3000112013819FF0112013825FF01120138E1
:100CF30058FF0112013821B6021201384DB6021213
:100D0300013831B702120138CBB902120138E1BA06
:100D130002120138FEBB02120138A1BC02120138D3
:100D230047BD021201387A9B02120138FC9B021262
:100D33000138A59C02120138ED9D02120138FB9F78
:100D430002120138E1A00212013816A10212013881
:100D530038A102120138E1A102120138B1A3021233
:100D63000138DAA30212013852A40212013884A412
:100D73000212013891A402120138DCA402120138D4
:100D830000A50212013851A7021201385BA8021212
:100D93000138B7A802120138FDDC011201380EDE5A
:100DA30001120138F2DE01120138FCDE01120138B2
:100DB3001EDF011201382ADF01120138CEE00112D1
:100DC3000138FBE00112013811E20112013866E239
:100DD30001120138B5E3011201388AE40112013826
:100DE300E6E40112013851E50112013886E50112EA
:100DF3000138C9E50112013893E801120138ABE863
:100E0300011201383CE9011201384AE901120138A3
:100E130097E901120138A5E90112013811EA01121B
:100E230001388CEA01120138E3EA01120138FAB7FA
:100E3300031201381FB80312013895B803120138A1
:100E43002BDA0212013834DA021201383DDA0212C7
:100E5300013815DB02120138C6DC02120138F6DC58
:100E63000212013821DD0212013851DD021201386C
:100E73007CDD02120138B0DD02120138DCDD021222
:100E830001381FDE021201384ADE0212013891DEF8
:100E930002120138E6DE0212013828DF021201389D
:100EA30082DF02120138ADDF02120138FCDF0212C9
:100EB30001382CE00212013857E0021201387AE0BF
:100EC30002120138A1C703120138CDC7031201383A
:100ED300FAC70312013804C80312013814C80312F5
:100EE30001382CCA0212013836CA0212013877CAF5
:100EF30002120138C0CA02120138FACA02120138BA
:100F030050CB0212013871CB0212013820CE0212EB
:100F1300013829CE021201387DCE02120138A6CE45
:100F230002120138B0CE021201381ECF021201386C
:100F3300AECF0212013809D00212013837D00212A3
:100F43000138BFD002120138FED00212013833D16A
:100F53000212013845D10212013864D1021201385C
:100F63006DD10212013834D20212013892C3031236
:100F7300013809B6031201383FB60312013873B6BC
:100F830003120138C0B7031201380BC7031201382B
:100F930021C7031201382BC70312013875C7031287
:100FA3000138228503120138358503120138F6858D
:100FB30003120138358603120138528603120138B1
:100FC3008B8603120138D886031201380A8703126D
:100FD30001384187031201384A8903120138B6895F
:100FE30003120138947F0012013890BE03120138B6
:100FF300B3BE03120138E2BE031201387ABF0312F3
:10100300013892BF03120138D4BF03120138C0EE76
:101013000212013802EF0212013882EF0212013884
:1010230095EF02120138EAEF021201383EF0021284
:10103300013883F00212013892F00212013841F1B3
:10104300021201389CF102120138EBF1021201384D
:1010530045F20212013852F3021201384AF4021225
:10106300013887F4021201381EC8031201385F9851
:1010730001120138299A01120138D79B0112013854
:10108300849C01120138049D011201388A9D0112CA
:101093000138B39D01120138059E01120138ADA13B
:1010A300011201382DA20112013833A301120138B4
:1010B3006CA301120138B6A301120138FDA4011279
:1010C300013828A5011201387EA501120138C7A5F0
:1010D300011201381FA60112013866A60112013858
:1010E30095A601120138AEA60112013893A7011289
:1010F3000138C7A70112013878A8011201388FA857
:1011030001120138C1A80112013863AA0112013882
:10111300F7AA0112013835AB011201385AC603127E
:1011230001386BC603120138ADFF02120138ECFF20
:101133000212013866C90312013878C50312013857
:1011430088C503120138A0C50312013854C603121F
:10115300013890C20312013815C30312013879C351
:101163000312013856BB031201387FBB0312013847
:10117300E5BB0312013805BC0312013856BC031248
:101183000138B1BC03120138EBBC03120138EEBCC9
:101193000312013865A9031201387AA90312013831
:1011A3009BAA031201381EAB0312013892AB031240
:1011B3000138ACAB03120138BFAB03120138CDAB1E
:1011C30003120138E7AB03120138FEAB03120138F7
:1011D30028AC031201387EAC031201388D9203123E
:1011E3000138A492031201381E93031201380294AA
:1011F30003120138D995031201383E9603120138C0
:10120300959603120138F87F00120138EAB10312F0
:10121300013869B303120138CAB30312013810B499
:1012230003120138F8BC031201384ABD0312013816
:10123300BDBD031201382ABE03120138B3AC031239
:101243000138DDAC03120138ACAD0312013888AEAE
:101253000312013819AF0312013862D202120138A6
:101263002ED3021201386FD302120138CDD30212EA
:10127300013821D4021201387FD40212013815D566
:10128300021201381DD602120138A7D70212013803
:1012930045D802120138ACD802120138C3D8021261
:1012A3000138E2D9021201381675001201381D7691
:1012B30000120138FB76001201381C790012013844
:1012C300ED7900120138147A001201384B7C0012B8
:1012D30001389B7C00120138397D001201386A7E87
:1012E30000120138127F001201381BC903120138A2
:1012F300E5C803120138D5FF0112013848C903E0DC
:1013030066701008A3E066700A08A3E0667004081C
:10131300A3E06622C3E7960809E7960809E796085B
:1013230009E79622C3E09608A3E09608A3E096088F
:10133300A3E09622C008C3E096F50808A3E096420E
:101343000808A3E096420808A3E09645087001D375
:10135300D00822080808EAC0E0EBC0E086F0E7A462
:10136300FA180986F0E7A42AFA180986F0E7A42AEE
:10137300FA180986F0E7A42AFA1986F0E7A4FBE530
:10138300F02AFA190886F0E7A42BFBE5F03AFA19DC
:101393000886F0E7A42BFBE5F03AFA18180986F063
:1013A300E7A4C5F02BFBE43AFA1908E7C5F0C6A495
:1013B30026F6E5F03BFBE43AFA1886F0E7A4F6E5F7
:1013C300F00826F6E43B08F6E43A08F6D0E0FBD052
:1013D300E0FA22E4CFC0E0E4CEC0E0E4CDC0E0E434
:1013E300CCC0E075F020C3E633F608E633F608E632
:1013F30033F608E633F6181818EC33FCED33FDEE3C
:1014030033FEEF33FFC3EC9709ED9709EE9709EF2E
:1014130097191919400FFFEC97FC09ED97FD09EE99
:1014230097FE191906D5F0BEECF709EDF709EEF7AB
:1014330009EFF7191919D0E0FCD0E0FDD0E0FED098
:10144300E0FF226016080808C6C313C618C613C6F1
:1014530018C613C618C613C6D5E0EA2270090808D1
:1014630008226016181818C6C333C608C633C60840
:10147300C633C608C633C6D5E0EA22E627F608090E
:10148300E637F60809E637F60809E637F622E026D6
:10149300F608A3E036F608A3E036F608A3E036F62E
:1014A30022E026F008A3E036F008A3E036F008A314
:1014B300E036F022C3E697F60809E697F60809E650
:1014C30097F60809E697F622C3E096F008A3E0969C
:1014D300F008A3E096F008A3E096F022E657F6089A
:1014E30009E657F60809E657F60809E657F622E033
:1014F30056F608A3E056F608A3E056F608A3E0560E
:10150300F622E056F008A3E056F008A3E056F008F0
:10151300A3E056F022E066F608A3E066F608A3E02F
:1015230066F608A3E066F622E0F608A3E0F608A351
:10153300E0F608A3E0F622E6F008A3E6F008A3E647
:10154300F008A3E6F022E0FAA3E0FBA3E0FCA3E0AB
:10155300FD22EAF0A3EBF0A3ECF0A3EDF022CAC066
:10156300E0E6F0A308DAFAD0E0FA22CAC0E0E0A38A
:10157300C582CCC582C583CDC583F0A3C582CCC546
:1015830082C583CDC583DAE6D0E0CA22C3E498F8E6
:10159300E499F91215D08026C3E49AFAE49BFBE997
:1015A30020E7E91215D0E498F8E499F922C3E49806
:1015B300F8E499F91215D0E498F8E499F9C3E49A98
:1015C300FAE49BFB22EB20E7CFE920E7E0B9001028
:1015D300BB0008E88AF084F8AAF022E4FBC8FA22E8
:1015E300EB70227B10C833C8C933C9335007C39A81
:1015F300C3DBF280069A50012ADBEAC833F4C8C978
:1016030033F4C9FA2275F008E4C833C8C933C933BF
:10161300C99AC99B5004C92AC93BD5F0ECFBC8330E
:10162300F4C8E4C9FA22600D08C6A2E713C618C6B7
:1016330013C6D5E0F322600C08C6C313C618C6133D
:10164300C6D5E0F422700422600D18C6C333C60861
:10165300C633C6D5E0F41822251810AF08F5184094
:101663000215198008F51840021519D2AF22C0D00F
:10167300251810AF08F518500205198008F5185001
:10168300020519D2AFD0D0222518F58210AF08F584
:1016930018400215198008F51840021519D2AF85B4
:1016A3001983222518F582E43519F58322E473257D
:1016B30018C582C0E0E51934FFC583C0E0E518C34F
:1016C300958224F810AF08858319858218800885D0
:1016D3008319858218D2AFCEF0A3E520F0A3780852
:1016E300E608F0A3DEFAEFF0A3E58124FAF8E608B2
:1016F300F0A3E608F0A3E608F0A30808E608F0A3C1
:10170300E608F0A315811581D0E0FED0E0F815813D
:1017130015811581E8C0E0EEC0E0222518C582C01E
:10172300E0E51934FFC583C0E0E518C3958224F9C9
:1017330010AF0885831985821880088583198582EF
:1017430018D2AFCEF0A3E520F0A37808E608F0A303
:10175300DEFAEFF0A3E58124FBF8E608F0A3E60840
:10176300F0A30808E608F0A3E608F0A315811581A5
:10177300D0E0FED0E0F815811581E8C0E0EEC0E0CE
:1017830022851983851882E0A3FEE0A3F52078085B
:10179300E0A3F608DFFAE0A3FFE0A3C0E0E0A3C004
:1017A300E0E0A3C0E0E0A3C0E0E0A3C0E010AF0826
:1017B3008582188583198008858218858319D2AF9D
:1017C300D083D082020135851983851882E0A3FE78
:1017D300E0A3F5207808E0A3F608DFFAE0A3FFE032
:1017E300A3C0E0E0A3C0E0E0A3C0E0E0A3C0E0103A
:1017F300AF08858218858319800885821885831927
:10180300D2AFD083D08222C0D02518C582C0E0E5F4
:101813001934FFC583C0E0E518C3958224F310AFE4
:10182300088583198582188008858319858218D2D3
:10183300AFC8F0A3E9F0A3EAF0A3EBF0A37908E7BC
:1018430009F0A3D8FAECF0A3EDF0A3EEF0A3EFF0C8
:10185300A3D0E0F0A3D0E0F0A3D0E0F0A3E520F024
:10186300A3E5F0F0A322851983851882E0C0E0A3E5
:10187300E0F9A3E0FAA3E0FBA37808E0F608A3DF0E
:10188300FAE0FCA3E0FDA3E0FEA3E0FFA3E0C0E0D9
:10189300A3E0C0E0A3E0F5D0A3E0F520A3E0A3F527
:1018A300F010AF0885831985821880088583198510
:1018B3008218D2AFD082D083D0E0F8D0E032740463
:1018C3008006740280027401C0E0F40412168BD007
:1018D300E0121561227404800474028000CCC0E01D
:1018E300EDC0E0E518C39CCCAD1950011D10AF0647
:1018F3008C188D1980068C188D19D2AF12156ED0E5
:10190300E0FDD0E0FC22D083D082E9C0E0E493A3E1
:10191300C386F0C5F095F0F908E493A386F0C5F00B
:1019230095F0700BE493A3C3994005E9048002A3E7
:10193300E475F002A42582F582E5F03583F583D0C2
:10194300E0F9E493A3C0E0E493C0E022D083D08223
:10195300ECC0E0EDC0E0E493A3FCE493A3FDED4C05
:10196300600D12199BEC24FFFCED34FFFD80EFE4C6
:1019730093A3FCE493A3FDED4C600D1219DAEC2460
:10198300FFFCED34FFFD80EFD0E0FDD0E0FCE493FD
:10199300A3C0E0E493C0E022C0E0C3E493960874DC
:1019A30001939618400FE4936670080874019366D8
:1019B3001870007019A3A3C3E49396087401939657
:1019C30018A3A3400DD0E0D0E0D0E002198BA3A36D
:1019D300A3A3A3A3D0E022C0E0C0F088F0E4936601
:1019E30070080874019366187000A8F0A3A3700B25
:1019F300D0F0D0E0D0E0D0E002198BA3A3D0F0D098
:021A0300E022DF
:101A080074F512171EEAFEEBFFEE2434F8EF3400EB
:101A1800F988088909EE2435F582EF3400F583E06A
:101A2800F8EE2437F582EF3400F583E0F50AEC850B
:101A38000AF0A4FCAAF0850AF0EDA42AFDE82CF827
:101A4800E43DF97A257B001215D0EA8508828509DC
:101A580083F05407F87401B800028004C333D8FC3B
:101A6800C0E0E0131313541FF8EE28F8EF3400F920
:101A7800E8245DF582E93400F583D0E0F8E05860A9
:101A880008EE2434F582EF801EEE2436F582EF341A
:101A980000F583E0F5F0EA84A8F0EE28F8EF3400CA
:101AA800F9E82438F582E93400F583E0F97F040287
:101AB80017CA74F512171EEAFEEBFFEE2434F582FE
:101AC800EF3400F583E0C0E0EE2435F582EF340012
:101AD800F583D0E0F08E828F83A3A3A3A3A3A3A34F
:101AE800C082C0838E828F83A3A3A3A3A3E0F8A39D
:101AF800E0F9D083D082E0C398F508A3E099F5090E
:101B0800EE2480F582EF3400F583E064017047EE3F
:101B18002481F582EF3400F583E0FCA3E0FD8E829A
:101B28008F83A3A3A3A3A3A3A3E0FAA3E0FBC3E823
:101B38009AE99B4003021BE2C3EA9CEB9D40177C99
:101B4800E07D07EEFAEFFB120A68EE2480F582EFDB
:101B58003400F583E4F0EE2434F8EF3400F9E8FCBF
:101B6800E9FDEE2435F582EF3400F583E0F8EE2444
:101B780037F582EF3400F583E0F50AE508850AF0C9
:101B8800A4F508AAF0850AF0E509A42AF509E825CC
:101B980008F8E43509F97A257B001215D0EA8C8219
:101BA8008D83F05407F87401B800028004C333D859
:101BB800FCC0E0E0131313541FF8EE28F8EF3400CC
:101BC800F9E8245DF582E93400F583D0E0F8E058BF
:101BD8006015EE2434F582EF802BC3E89CE99D5014
:101BE80003021B47021B40EE2436F582EF3400F552
:101BF80083E0F5F0EA84A8F0EE28F8EF3400F9E87D
:101C08002438F582E93400F583E0F9122262021AD9
:101C1800B5000000851B87851CC622C0E0C0D0E83F
:101C2800C0E0E9C0E0EAC0E0EBC0E0ECC0E0EDC035
:101C3800E0C008C009C00AC00BC082C083C0F075EC
:101C48009B00906182E0A2E64003021D01E591A29B
:101C5800E64003021D017591BF900499E064057088
:101C680008120BEE120BFA8003120BF4751B00120C
:101C78000C5AE990049AF07900120C3C1209DE7AA9
:101C8800017B00900498E0F9120F42907803E06419
:101C9800426003021D4A900815E014F06003021D1B
:101CA8004AC2AF121CAE00781ED0E0F618D0E0F69B
:101CB800E59F5407F970059082E480039082C87804
:101CC8000812152BE9C4C0E0781DE65508F5080888
:101CD800E65509F509740B7808121639D0E025087D
:101CE800F8906270E0A2E740F8E8C333906272F0BF
:101CF800906270E0D2E0F08049E0A2E55024E591DE
:101D0800A2E5501E7591DF900499E0640D70139060
:101D180004BBE004F064287002E4F07A00E0F912F1
:101D28000CEA906181E0A2E35009E5E9A2E35003DF
:101D380075E9F7A3E0A2E75009E591A2E75003751A
:101D4800917FD0F0D083D082D00BD00AD009D008B0
:101D5800D0E0FDD0E0FCD0E0FBD0E0FAD0E0F9D054
:101D6800E0F8D0D0D0E032C0E0C0D0C082C08390CC
:101D78006183E0A2E05009E5BFA2E0500375BFFE11
:101D8800E0A2E15009E5BFA2E1500375BFFDE0A262
:101D9800E25009E5BFA2E2500375BFFBE0A2E350A1
:101DA80009E5BFA2E3500375BFF7E0A2E45009E5D7
:101DB800BFA2E4500375BFEFE0A2E55009E5BFA25A
:101DC800E5500375BFDFE0A2E65009E5BFA2E65083
:101DD8000375BFBFD083D0828088C0E0C0D0E8C080
:101DE800E0E9C0E0EAC0E0EBC0E0ECC0E0EDC0E054
:101DF800C0F0E5A7A2E6500FE5A1A2E6500953A757
:101E0800BF75A1BF121E47E5A7A2E5500CE5A1A228
:101E1800E5500653A7DF75A1DFE5A7A2E15009E564
:101E2800A1A2E1500375A1FDE5A7A2E2500CE5A12E
:101E3800A2E2500653A7FB75A1FBD0F0021D58740F
:101E4800F812171E751B01900499E06406701512AC
:101E58000B9A8A828B83A3A3A3A3A3A3E0FAA3E08C
:101E6800FB120BDCA2AFE433FED2AF90049FE06418
:101E78000170187A207B00900498E0F9120FC67A56
:101E8800207B00900498E0F9120F48906182E0D21C
:101E9800E6F0900814E0602185C61C801690049E28
:101EA800E064017008E5C654F84405F5C653BEFC65
:101EB800121C1C7401651B60E4EEA2E092AF7F0166
:101EC8000217CA74EB12171E74FA12165B8A088B73
:101ED800098C148D15900499E024F7C394055006D5
:101EE8009082D402202D120B9A8A0A8B0BAE0AAF6D
:101EF8000BEE4F700302202AAC08AD0985188285C5
:101F08001983AA82AB83120C0C8E828F83A3A378C9
:101F18000812152B90826878081214F285188285A9
:101F28001983780C12152B908268780C1214F278A9
:101F380008790C121317501F7808790C1214B790EF
:101F4800827478081213374047850810850911856F
:101F58000A12850B138041850C10850D11850E1210
:101F6800850F13781079081214B7908274781012BC
:101F78001337501C75100075110075120075130188
:101F88007810790C1214B77810790812147E80082A
:101F98009082D4781012152B7409781012145F905F
:101FA8008294780812152B781079081213D68E822D
:101FB8008F83A3A3A3A3A3A3E0F8A3E0F97AD07B1C
:101FC800031215D088088909E4F50AF50B78107909
:101FD8000812147E74041216A6E0F8A3E0F97AD069
:101FE8007B031215D0E8FA8A08E4F5097810790815
:101FF8001213175007781079081214B7900499E053
:102008006408600AE064066005E06405701C90825C
:102018005478101213375012908298781012149135
:102028008008908258781012152B851482851583A4
:10203800781012153A74061216717F0E0217CA74B8
:10204800F712171E120C1E900812E064017010900F
:102058006245E4F0A3F053F4F343FE0C5390F312FB
:102068000BCAE5C654804449F5C6E59E547F6449C9
:1020780070F8906185740FF0900810E0F47002A376
:10208800E0604E900811E0600814601B14602E8018
:1020980040750801750900900810E0780812164884
:1020A800E508F45280802A75080175090090081027
:1020B800E07808121648E508F45290801475080173
:1020C800750900900810E07808121648E508F452DF
:1020D800A079007F020217CA74F712171EE9FE9052
:1020E80022D4E493F46008E493F91209D2800953E6
:1020F800C680E59E547F70FA120BD0900812E064F7
:102108000170031209EA900810E0F47002A3E0607D
:102118004B900811E0600814601A14602C803D751B
:102128000801750900900810E07808121648E508BB
:1021380042808028750801750900900810E0780829
:10214800121648E508429080137508017509009039
:102158000810E07808121648E50842A0120C1E1272
:102168000B9A8A088B09A808A909E8496015E5E1CE
:1021780070FCE82414F582E93400F583E0F4600388
:10218800E0F5E174016E700A7A01900498E0F912A2
:102198000F960220DB74F112171E8A088B098C0A2D
:1021A8008D0B740F1216A6780C12152B9082687876
:1021B800081214F2908268780C1214F27808790CDC
:1021C80012131750157808790C1214B79082747886
:1021D80008121337401579018013780C7908121406
:1021E800B7908274780C12133740EB79007F08029D
:1021F80017CA74ED12171E8A088B098C0A8D0B7486
:10220800131216A6780C12152B90826878081214EF
:10221800F2908268780C1214F2780C79081213176D
:1022280040117808790C1214B7AA08AB09AC0AADAA
:102238000B80227510007511007512007513017856
:1022480010790C1214B77810790812147EAA10AB02
:1022580011AC12AD137F0C0217CAC082C083E9907B
:102268006000F0D083D08222C0E074F212180AA273
:10227800AFE433FED2AFE589A2E1500312118275B3
:102288008900C2C5751A00EEA2E092AF7F0102185C
:1022980069C0E074F212180AA2AFE433FED2AFE5C7
:1022A8008BA2E05003121182758B00C2E880D5C062
:1022B800E0C0D0E8C0E0E5A8D2AFC2C7751A00A256
:0B22C800E792AFD0E0F8D0D0D0E032B9
:1022D400FFFFFFFFFFFFFFFFC082C0839061907488
:1022E40004F0A37448F0A37402F09061807440F089
:1022F4009061BC7403F09061877419F09062657406
:102304001BF090619A7433F0A37455F09061A0743B
:102314003AF0900812E064017009C29190049D742F
:1023240067800590049D7461F09022DAE4939061D3
:1023340086F09022D4E493F46027E493540FF89049
:102344006185E0686012E5C654804449F5C6E59E9F
:10235400547F644970F8E8F053C680E59E547F705A
:10236400FA7905120CCC022755C082C083E9540FB8
:10237400F9906185E0696012E5C654804449F5C668
:10238400E59E547F644970F8E9F053C680E59E5495
:102394007F70FA022755C082C083E5A8F853A87E4F
:1023A400906181E4F0A3F0A3F0C2BA539AFEC2890B
:1023B400759B00C2C275E90075910075BF0075A9CF
:1023C4001175B905906181F0A374C0F0A3E4F0D253
:1023D400BA439A0174805842A8022755C082C08328
:1023E40074F812165B90049BE0F8A3E0F9E84970D6
:1023F4000302250E90049BE054406023790885185D
:1024040082851983AA82AB83120ADA851882851918
:1024140083AA82AB831207BC90049BE054BFF0E014
:1024240054806010790C7A367B08120ADA90049B87
:10243400E0547FF0E0A2E0503190619A7433F0A34D
:102444007455F09061A0743AF0900812E064017041
:1024540009C29190049D7467800590049D7461F095
:102464001207C290049BE054FEF0E05402603190E5
:10247400619A743FF0A3745AF09061A0747FF09055
:102484000812E064017009D29190049D7471800572
:1024940090049D746AF01207C290049BE054FDF00E
:1024A400E0540460139022D8E493906186F01207FC
:1024B400C890049BE054FBF0E0540860139022D9C8
:1024C400E493906186F01207C890049BE054F7F0FF
:1024D400E0541060139022DAE493906186F01207BE
:1024E400C890049BE054EFF0E05420600A1207C83F
:1024F40090049BE054DFF0A3E05401600D1209EA5C
:102504001207CE90049CE054FEF074081216710277
:10251400275574EC1216B274F412165B8518828572
:102524001983AC82AD837583827582887404121515
:102534006E9022D893F460030226A3907808E0C337
:102544009402500302268374041216A6AC82AD834F
:1025540075838275821F740812156E851882851919
:102564008385821285831374041216A6AC82AD830C
:10257400750EFF750FFF7FFF7E00750C48750D7893
:10258400801574086E700302261674096E700302B7
:102594002616740A6E607B850C82850D837808127A
:1025A400152B8C828D83A909E50AC9F88810741843
:1025B4007808121446E5104508F8C3E098A3E0999A
:1025C400850C82850D83780812152B40188C828D1A
:1025D4008374187808121446E5104508F8E0C39887
:1025E400F8A3E0801C74187808121446E510450816
:1025F400FAE9FB8C828D83E0F8A3E0F9EAC398F84A
:10260400EB99F9C3E8950EE9950F5006880E890FEA
:10261400EEFF0EE50C2404F50CE50D3400F50DEE8B
:10262400C39413500302258674FF650E700474FF6F
:10263400650F60238F0874027808121648744825C1
:1026440008F58274783509F583780812152B8512FC
:1026540082851383E508F0EC24020C0CED3400FDB4
:10266400851282851383A3858212858313740C12C9
:1026740016A6E5826C7003E5836D6003022574750C
:10268400080175090078081218C574021216A6AC60
:1026940082AD837AB67B08121158740212167174D3
:1026A4000C1216717F0C021784C082C0839061865D
:1026B40074E1F09061AE7468F0A3746AF0906245BE
:1026C40074FBF0A304F053F4FD43FE02900812746B
:1026D40001F090619A7433F0A37455F09061A07482
:1026E4003AF0740164017009C29190049D7467808A
:1026F4000590049D74618000F0022755C082C08358
:102704009007FA7425F09007F87401F0A3E4F07AC6
:1027140001FB120C489007E6E02416F8A3E034000D
:10272400F9888289837408F0A3740AF09007F7E0AB
:10273400640170169007F6E070107901120CA8126B
:102744000C78120CA27900120CB48005E0F9122264
:1027540062D083D082020135C082C08374FA12161B
:102764005B9007EFE0640170081209F09007EFE452
:10277400F075E1F19007E6E02415F8A3E03400F9E0
:10278400888289837401F09007F1E0640170769087
:10279400823AC082851882851983AC82AD837583A1
:1027A40082D082740612156E75D90D9007E8E0C4C4
:1027B400333354C04403F5D978E679078882898392
:1027C400A3A3A3E0F5D988828983A3A882A983E877
:1027D40064EC7003E9640770E3851882851983A8A3
:1027E40082A98388828983E0F5D9A3A882A9837406
:1027F400061216A6E582687003E5836970E575E143
:1028040095790180027900120C4E9010217452F0D7
:10281400A3740BF0A37458F0A3740BF0A37452F0D8
:10282400A3740BF0A37452F0A3740BF0A37422F0FE
:10283400A3740BF0A37422F0A3740BF0A3745EF0E2
:10284400A3740BF090102F7422F0A3740BF0A374F4
:1028540022F0A3740BF0A37422F0A3740BF0A374FE
:1028640022F0A3740BF0A37422F0A3740BF0A374EE
:1028740022F0A3740BF09007E8E0F97AE97B0712E1
:102884000C2A9007FAE0F91222627901120C549092
:10289400824C121549120C6C908278121549120C54
:1028A400367900120CC09007E6E02414F8A3E03453
:1028B40000F9888289837416F09004997405F004F1
:1028C40002251074F71216B28908A808E875F006F4
:1028D400A4C8AAF02AF974C728FE740439FF900723
:1028E400FFE0F97A007B08120C2A90080DE0701AB8
:1028F4007900120C8A9007D9E0700B79007ADA7BA0
:1029040007120C308009790180F37901120C8A7561
:10291400E1F175D9239007FFE0C4333354C0440573
:10292400F5D978FD790788828983A3A3A3E0F5D933
:1029340088828983A3A882A983E864037003E96475
:102944000870E375D90075D90075D90075D900757B
:10295400D90075D900EEF8EFF9E82404FAE9340057
:10296400FBE82422F582E93400F583E0F5D9888276
:102974008983A3A882A983EA687002EB6970E2EEF6
:10298400F8EFF9E824031AE93400FBE82426F58279
:10299400E93400F583E0F5D988828983A3A882A964
:1029A40083EA687002EB6970E2EE242BF582EF345F
:1029B40000F583E0F5D9EEF8EFF9E824021AE934DA
:1029C40000FBE8242CF582E93400F583E0F5D9888E
:1029D400828983A3A882A983EA687002EB6970E202
:1029E400EEF8EFF9E8242EF582E93400F583E0F5FA
:1029F400D988828983A3A882A983EA687002EB69D3
:102A040070E2EEF8EFF9E82430F582E93400F5835A
:102A1400E0F5D988828983A3A882A983EA68700231
:102A2400EB6970E2EEF8EFF9E82432F582E934005C
:102A3400F583E0F5D988828983A3A882A983EA680B
:102A44007002EB6970E2EEF8EFF9E824050A0A0A6D
:102A5400E93400FBE8245DF582E93400F583E0F510
:102A6400D988828983A3A882A983EA687002EB6962
:102A740070E2EE2437F582EF3400F583E0541FF85A
:102A8400EE242AF582EF3400F583E0C43354E048A1
:102A9400F5D975E1959010217428F0A3740BF0A377
:102AA400742EF0A3740BF0A37422F0A3740BF0A3A0
:102AB4007422F0A3740BF0A37422F0A3740BF0A39C
:102AC4007422F0A3740BF0A37434F0A3740BF0908D
:102AD400102F7422F0A3740BF0A37422F0A3740BD0
:102AE400F0A37422F0A3740BF0A37422F0A3740B6C
:102AF400F0A37422F0A3740BF0A37422F0A3740B5C
:102B0400F090080CE0F912226290824C12154912DE
:102B14000C6C908278121549120C3690600DE4F01A
:102B24007901120CC09004997406F002312274ECFD
:102B34001216B29007FDE0F8A3E0F5838882A3A300
:102B4400781012152B90080EE0FAF875F006A4C858
:102B5400ACF02CF974F528F582740439F583E0FEA1
:102B6400A3E0FFEEC333FEEF33FF8E0CF50D750EBD
:102B740000750F0085100885110985120A85130B4D
:102B84009082E8780812149178081218C185100808
:102B940085110985120A85130B7808790C12147EA5
:102BA4007810790C1213D6E4F50EF50F7808790C29
:102BB4001214B78A0C750D007403780C1216487839
:102BC40008790C12147E90826878081214F2AA080C
:102BD400AB09AC0AAD0B1221FA74041216718A08FF
:102BE4008B09A808A909C3EE98EF995006E82EF8B6
:102BF400E93FF9E890600EF0E9A3F0EEA3F0EFA34B
:102C0400F090600D74C1F00226A8C082C0839007C2
:102C1400E6E0F8A3E0F5838882A3A3A3A3A3A3E437
:102C2400F0A3F09007FA022750C082C0839007FDFA
:102C3400E0F8A3E0F5838882A3A3A3A3A3A3E4F00D
:102C4400A3F090080C02275002013574F61216B254
:102C54009061D0E0F87480C398FCEA2483F582EB99
:102C64003400F583E06004780480027800E8240EE0
:102C7400F8ECC3985003022DD07E0C900816E4F0B3
:102C8400EA2477F582EB3400F583E0900817F0EA44
:102C94002478FCEB3400FD781879087F028C828D4F
:102CA40083E088828983F08C828D83A3AC82AD8398
:102CB40088828983A3A882A9831FEF70E0EA247A1B
:102CC400FCEB3400FD7F028C828D83E08882898353
:102CD400F08C828D83A3AC82AD8388828983A3A880
:102CE40082A9831FEF70E0EA247CFCEB3400FD7FB3
:102CF400028C828D83E088828983F08C828D83A309
:102D0400AC82AD8388828983A3A882A9831FEF70D4
:102D1400E0EA247EFCEB3400FD7F028C828D83E0AC
:102D240088828983F08C828D83A3AC82AD83888270
:102D34008983A3A882A9831FEF70E0EA2475FCEBC2
:102D44003400FD8A828B83A3A3A3A3A3E0F508A385
:102D5400E0F5098C828D83E02508F0A3E03509F0C5
:102D64007F028C828D83E088828983F08C828D83BC
:102D7400A3AC82AD8388828983A3A882A9831FEF31
:102D840070E0EA2483F582EB3400F583E060197582
:102D9400081675090878081218C57C0C7903120BFB
:102DA4001674021216717E1074012EF5D975D903AA
:102DB400758216758308EEFFE0F5D9A31FEF70F84E
:102DC40075E1957904120C7279018002790002335D
:102DD4000474F61216B29061D0E0F87480C398FCC3
:102DE400EA2483F582EB3400F583E0600478048000
:102DF400027800E8240AF8ECC3985003022EC57543
:102E040008089008167401F07CE07D0778177908AB
:102E14007E058C828D83E088828983F08C828D8309
:102E2400A3AC82AD8388828983A3A882A9831EEE82
:102E340070E0EA2481FCEB3400FD8A828B83A3A337
:102E4400A3A3A3E0FEA3E0FF8C828D83E02EF0A376
:102E5400E03FF07E028C828D83E088828983F08C4F
:102E6400828D83A3AC82AD8388828983A3A882A93F
:102E7400831EEE70E0EA2483F582EB3400F583E0F0
:102E8400601A75081675090878081218C57C08793F
:102E940003120B16740212167175080C74012508BE
:102EA400F5D975D903758216758308AE08E0F5D98E
:102EB400A31EEE70F875E1957904120C7279018005
:102EC40002790002330474F71216B2EAFEEBFF90A3
:102ED40061D0E06003022FC175D91875D90375D983
:102EE40003EEF8EFF9E82408FAE93400FBE8249C3F
:102EF400F582E93400F583E0F5D988828983A3A8B3
:102F040082A983EA687002EB6970E2EEF8EFF9E8EF
:102F14002402FAE93400FBE824A4F582E93400F53C
:102F240083E0F5D988828983A3A882A983EA68709B
:102F340002EB6970E2EE2494F582EF3400F583E548
:102F4400822408F8E5833400F9E0F5D9A3E8658222
:102F54007003E9658370F2EE2488F582EF3400F59E
:102F640083E5822404F8E5833400F9E0F5D9A3E885
:102F740065827003E9658370F275E1957908EE2442
:102F840094FAEF3400FB120ACE7904EE2488FAEFA7
:102F94003400FB120ACE7904120C72EE2470F5820E
:102FA400EF3400F583E0F8A3E0F9EE2472F582EF44
:102FB4003400F583E8F0A3E9F07901800279000296
:102FC400312274F61216B2EAFEEBFF90081674066C
:102FD400F075081675090878081218C57C0179037C
:102FE400120B16740212167175D90675D9037582FF
:102FF40016758308E0F5D9A3E582641B7004E583A4
:10300400640870F075E195900499E06408701EEE10
:103014002470F582EF3400F583E0F8A3E0F9EE24A0
:1030240072F582EF3400F583E8F0A3E9F079010248
:10303400330474F61216B2EAFEEBFF9061D0E0702E
:103044005E900816740AF075081675090878081257
:1030540018C57C017903120B16740212167175D906
:103064000675D903758216758308E0F5D9A3E58240
:10307400641B7004E583640870F075E195EE2470B8
:10308400F582EF3400F583E0F8A3E0F9EE2472F55D
:1030940082EF3400F583E8F0A3E9F0790180027946
:1030A4000002330474F61216B2EAFEEBFF9061D00C
:1030B400E070667801900816740BF0900499E0644F
:1030C40007701975081675090878081218C57C0167
:1030D4007903120B1674021216717805740128F51F
:1030E400D975D903758216758308E8FAE0F5D9A372
:1030F4001AEA70F875E195EE2470F582EF3400F564
:1031040083E0F8A3E0F9EE2472F582EF3400F5834E
:10311400E8F0A3E9F07901800279000233047F0129
:1031240002178474F61216B2EAFEEBFF9061D0E047
:10313400F87480C398FAEE2483F582EF3400F583A3
:10314400E06004780480027800E8240BF8EAC3986D
:1031540050030231FD7D099008167408F0EE24E551
:10316400F8EF3400F97A177B087C0888828983E0B9
:103174008A828B83F088828983A3A882A9838A8226
:103184008B83A3AA82AB831CEC70E0EE2483F582CC
:10319400EF3400F583E0601D75081675090878089A
:1031A4001218C57C097903EEFAEFFB120B167402B0
:1031B4001216717D0D74012DF5D975D9037582161A
:1031C4007583088D08E0F5D9A31508E50870F67530
:1031D400E1957904120C72EE2470F582EF3400F557
:1031E40083E0F8A3E0F9EE2472F582EF3400F5836E
:1031F400E8F0A3E9F079018002790002330474F65F
:103204001216B2EAFEEBFF9061D0E0F87480C39826
:10321400FAEE2483F582EF3400F583E06004780449
:1032240080027800E82408F8EAC3985003023302C5
:103234007D06900816740CF09004B6E0900817F020
:103244007AB77B04781879087C028A828B83E088B9
:10325400828983F08A828B83A3AA82AB8388828942
:1032640083A3A882A9831CEC70E07AB97B047C0256
:103274008A828B83E088828983F08A828B83A3AAE3
:1032840082AB8388828983A3A882A9831CEC70E023
:10329400EE2483F582EF3400F583E0601D75081693
:1032A40075090878081218C57C067903EEFAEFFB55
:1032B400120B1674021216717D0A74012DF5D9755C
:1032C400D9037582167583088D08E0F5D9A315080E
:1032D400E50870F675E1957904120C72EE2470F528
:1032E40082EF3400F583E0F8A3E0F9EE2472F5826E
:1032F400EF3400F583E8F0A3E9F079018002790066
:103304007F0202178474F61216B2EAFEEBFF906194
:10331400D0E0F87480C398FAEE2483F582EF340089
:10332400F583E06004780480027800E82404F8EA75
:10333400C39850030233E37802900816E8F0EE24B1
:10334400F7F582EF3400F583E0900817F0EE24835C
:10335400F582EF3400F583E0601B750816750908E3
:1033640078081218C57C027903EEFA120B1674025F
:103374001216717806740128F5D975D90375821669
:103384007583088808E0F5D9A31508E50870F67573
:10339400E195EE2474F582EF3400F583E4F0EE2435
:1033A40080F582EF3400F583E4F0EE241DF582EF1E
:1033B4003400F583E4F0A3F07904120C72EE240DCA
:1033C400F582EF3400F583E0F8A3E0F9EE2472F51A
:1033D40082EF3400F583E8F0A3E9F0790180027903
:1033E4000002330474F61216B29061D0E0F87480CF
:1033F400C398FCEA2483F582EB3400F583E060048F
:10340400780480027800E82404F8ECC398405B79DF
:10341400029008167407F0EA24F8F582EB3400F5FC
:1034240083E0900817F0EA2483F582EB3400F583F7
:10343400E0601875081675090878081218C57C022A
:1034440009120B1674021216717906740129F5D942
:1034540075D903758216758308E9F8E0F5D9A318C0
:10346400E870F875E19579018002790002330474FB
:10347400F51216B2E9FCA2AFE433F50AC2AF7D003F
:1034840080010DEA246FF582EB3400F583E0F8ED5A
:10349400C398501A8D08EA2508F8EB3400F9E8249B
:1034A4006BF582E93400F583E06C70D68024EA245D
:1034B4006FF8EB3400F9E0FEEA2EFAEB3400FBEA95
:1034C400246BF582EB3400F583ECF088828983E089
:1034D40004F0E50AA2E092AF7F0302178474F612A7
:1034E40016B2A2AFE433FDC2AFEA246FF582EB3427
:1034F40000F583E014F07C0060368C08EA2508F8B7
:10350400EB3400F9E8246CF582E93400F583E0C07B
:10351400E0E8246BF582E93400F583D0E0F00CEAAE
:10352400246FF582EB3400F583E0F8ECC39840CACD
:10353400EA246EF582EB3400F58374FFF0EA246A22
:10354400F582EB3400F583E4F0EDA2E092AF0233B0
:1035540004C082C083E5A8F8C2AFEA246BF582EB0D
:103564003400F583E9F0EA246AF582EB3400F5834C
:10357400E4F0E8A2E792AF02275574F31216B2EA18
:10358400FEEBFFECFAEDFB8A828B83A3A3A3A3E0FB
:10359400541FF0EE2436F582EF3400F583E4F0F5A1
:1035A4000AEEFCEFFD8A828B83E0C0E0EC245DF53B
:1035B40082ED3400F583D0E0F0750B00E50A333377
:1035C4003354F8F50C8A828B83E0F508750900E51D
:1035D4000B7808121629E508A2E0502FEE2436F8DD
:1035E400EF3400F988828983E0F508EE2508F508B0
:1035F400EF3400F509E5082438F582E5093400F5CF
:1036040083E50CF088828983E004F0050B050CE562
:103614000BC3940840AF050A8A828B83A3AA82ABAA
:10362400838C828D83A3AC82AD83E50AC394055059
:10363400030235A97F0502178474F71216B29004A9
:10364400C3E0640370077A007B000231227B0078B8
:10365400C3790488828983A3A3A3A3A3A3E06003FB
:10366400023937EBF875F006A4C8AAF02AF974C732
:1036740028F8740439F988828983A3A37401F08833
:10368400828983A3A3A3E4F0EB88828983A3A3A301
:10369400A3F0E82462F582E93400F5837401F0E8CC
:1036A4002465F582E93400F583E4F0A3F0E82468A6
:1036B400F582E93400F5837401F088828983A3A339
:1036C400A3A3A3E4F0A3F088828983A3A3A3A3A361
:1036D400A3A3F0A3F0E8240FF582E93400F5837482
:1036E40001F0E82435F582E93400F583E4F09082B2
:1036F40058121549E82418F582E93400F5831215A7
:1037040055E8241CF582E93400F583E4F0E8241D2F
:10371400F582E93400F583E4F0A3F0E82480F5822F
:10372400E93400F583E4F0E82474F582E93400F523
:1037340083E4F0E82469F582E93400F5837480F0C9
:10374400E8246AF582E93400F583E4F0E8246FF5AF
:1037540082E93400F583E4F0E82467F582E9340073
:10376400F583E4F0E824EDF582E93400F583E4F030
:10377400E824EEF582E93400F583E4F0E824EFF57B
:1037840082E93400F583E4F0E824F0F582E93400BA
:10379400F583E4F0E824F1F582E93400F583E4F0FC
:1037A400A3F0E824F3F582E93400F583E4F0A3F010
:1037B400E824F6F582E93400F583E4F0E82483F59F
:1037C40082E93400F583E4F0E824D3F582E9340097
:1037D400F583E4F0E824D4F582E93400F583E4F0D9
:1037E400908258121549E824D5F582E93400F5830E
:1037F400121555908258121549E824D9F582E934F6
:1038040000F583121555E824DFF582E93400F583C9
:10381400E4F0E824E1F582E93400F583E4F0E824F7
:10382400DDF582E93400F583E4F0E824E2F582E989
:103834003400F583E4F0E824E3F582E93400F58309
:10384400E4F0E824F9F582E93400F583E4F0A3F028
:10385400E824FBF582E93400F583E4F0A3F0E824DE
:10386400FDF582E93400F583E4F0A3F0E824FFF5E4
:1038740082E93400F583E4F0A3F0E8FAE9FBEA24F2
:1038840004FCEB3400FDEA246BF582EB3400F58391
:1038940074FFF08A828B83A3AA82AB83EC6A7002E2
:1038A400ED6B70E2E8FAE9FB7CE07D078C828D83A6
:1038B400E0C0E0EA245DF582EB3400F583D0E0F06B
:1038C4008C828D83A3AC82AD838A828B83A3AA82EC
:1038D400AB83EC64E57003ED640770D0E8FAE9FBB0
:1038E4007CAC7D048C828D83A3E0C0E0EA24E5F502
:1038F40082EB3400F583D0E0F08C828D83A3AC821C
:10390400AD838A828B83A3AA82AB83EC64B47003F5
:10391400ED640470CF9004C3E004F06401700D887A
:10392400828983A3A3A3A3E09004C5F0E8FAE9FB8A
:1039340002364E0BE82406F8E93401F9EBC394038C
:10394400400302364A023657C082C0838A828B8380
:10395400A3A3A3E0600F8A828B83A3A3A3E4F090C4
:1039640004C4E014F09004C3E014F070069004C59D
:1039740074FFF08A828B83A3A3E4F09007E5E070E0
:103984000D9004C4E0640170057900120C3C022718
:1039940055C082C08378C3790488828983A3A3A392
:1039A400A3A3A3A3E4F088828983A3A3A3A3A3A3CB
:1039B400F0E82406F8E93401F9E864D57003E96411
:1039C4000770D69004C3E4F0A3F0A374FFF075E18C
:1039D400F102275574F31216B275080075090075C3
:1039E4000C00750AC7750B04AE0AAF0B8E828F8369
:1039F400A3A3A3E0603FE5084509700AEEF8EFF9D8
:103A040088088909802F850882850983E0F8A3E066
:103A1400F5838882A3A31218D88E828F83E0F8A33B
:103A2400E0F5838882A3A312154912219D74041220
:103A34001671E960C7050CEE2406F50AEF3401F5AA
:103A44000BE50CC3940340A0850882850983A3A3D6
:103A5400A3A3E0F902363874F61216B278FF79FFA0
:103A64007508007EC77F04EEFCEFFD8C828D83A376
:103A7400A3A3E0606474FF68700374FF697025ECAD
:103A84002474F582ED3400F583E064017011EC24B4
:103A94007AF582ED3400F583E0F8A3E0F9803AEC9E
:103AA400242E80EDEC2474F582ED3400F583E0647B
:103AB400017014EC247AF582ED3400F583C3E098A8
:103AC400A3E099501480C7EC242EF582ED3400F560
:103AD40083C3E098A3E09940C60508EE2406FEEFF0
:103AE4003401FFE508C394035003023A6BC3EA9818
:103AF400EB994004E8FAE9FB02330474F61216B2B7
:103B0400EAFEEBFF8E828F83A3A3A3E0600F8E8275
:103B14008F83A3A3A3E4F09004C4E014F09004C33F
:103B2400E014F070069004C574FFF08E828F83A3B6
:103B3400A3E4F09007E5E0700D9004C4E064017024
:103B4400057900120C3CEE2465F582EF3400F58310
:103B5400E0F8A3E0F9E8496029EE2465F8EF3400C1
:103B6400F9880889098882F583E0FCA3E0FD9004C4
:103B7400C5E0FA7B001207F2850882850983E4F028
:103B8400A3F0EEFAEFFB120B9402330474F712164F
:103B9400B2EAFEEBFF8E828F83A3A3A3A3E0FA7B9A
:103BA4000012083AEEFAEFFB120A8C120B7602317D
:103BB40022C082C0837C007AC77B04EAF8EBF988D0
:103BC400828983A3A3A3E0601EE8246FF582E9340D
:103BD40000F583E06011E8246BF582E93400F58395
:103BE400E07004790180110CEA2406FAEB3401FB3D
:103BF400ECC3940340C57900022755C082C0837882
:103C0400AC790488828983A3E4F088828983A3A899
:103C140082A983E864B47003E9640470E69004AD97
:103C240074010226FCC082C08374FC12165B90826D
:103C340058121549851882851983121555120AD40C
:103C4400E9851882851983F0120AD474011216A624
:103C5400E9F0120AD474021216A6E9F085188285D6
:103C64001983121549740402251074F61216B2EA67
:103C7400FEEBFFEC2403F8ED3400F988088909EC25
:103C84002407F8ED3400F9E8FCE9FD8C828D83E02B
:103C9400F8A3E0F9850882850983E0FAA3E0FB1222
:103CA40015D0EE240DF582EF3400F583E8F0A3E996
:103CB400F08C828D83E0F8A3E0F98508828509837E
:103CC400E0FAA3E0FB1215D08B09EA45096013EE74
:103CD400240DF582EF3400F583E02401F0A3E034F1
:103CE40000F002330474F61216B2EAFEEBFFEE247F
:103CF4002EF582EF3400F583E0FCA3E0FD78007933
:103D0400FAECFAEDFB1215D0EE2470F582EF3400D4
:103D1400F583E8F0A3E9F0780079FAECFAEDFB1208
:103D240015D08B09EA45096013EE2470F582EF344F
:103D340000F583E02401F0A3E03400F002330474BE
:103D4400F01216B2EAFEEBFF74101216A6780812EF
:103D5400152B120C068A0C8B0D8C0E8D0F9082F095
:103D6400780C121491908268780C1214F2780C1268
:103D740018C18E828F83E0F8A3E0F5838882A3A321
:103D840012154912219D7404121671E96003023E52
:103D9400908E828F83E02402F8A3E03400F9E8FADD
:103DA400E9FB8A828B8378081214A49082687808CD
:103DB40012152B8A828B837808121505EE240BF5D5
:103DC40082EF3400F583C082C0838E828F83A3A3E5
:103DD400A3A3A3E02401F8A3E03400F9D083D082A4
:103DE400E0687003A3E06970057901023E928E8257
:103DF4008F83A3A3A3A3A3A3A3E02401F0A3E0348C
:103E040000F0EE2474F582EF3400F583E064017071
:103E140036EE2475F582EF3400F583E0F8A3E0F97B
:103E24008E828F83A3A3A3A3A3A3A3E0687003A399
:103E3400E0697013EE2475F582EF3400F583E02415
:103E440001F0A3E03400F0EE2480F582EF3400F5B5
:103E540083E064017036EE2481F582EF3400F5834B
:103E6400E0F8A3E0F98E828F83A3A3A3A3A3A3A363
:103E7400E0687003A3E0697013EE2481F582EF34E7
:103E840000F583E02401F0A3E03400F079007F081A
:103E940002178474F71216B29004C5E0F875F006A0
:103EA400A4C8AAF02AF974C728FE740439FF80282C
:103EB400EE2465F8EF3400F988828983E0FCA3E0FE
:103EC400FD88828983E4F0A3F08E828F83A3A3A369
:103ED400A3E0FA7B001207F2EE2465F582EF3400CA
:103EE400F583E0F8A3E0F9E849604FEE2464F58235
:103EF400EF3400F583E0F50878081218C9EE24635E
:103F0400F582EF3400F583E0F9EE2465F582EF34B1
:103F140000F583E0FCA3E0FDEEFAEFFB120AC274A5
:103F240001121671E96089EE2465F582EF3400F51B
:103F340083E0F8A3E0F9E84970137C007D008E82E9
:103F44008F83A3A3A3A3E0FA7B001207F20231221A
:103F540074F21216B2EAFEEBFF890A740E1216A668
:103F6400E0FAEE2462F582EF3400F583E064016048
:103F7400030240209061D0E0F87480C398F50CEE01
:103F84002483F582EF3400F583E060047804800232
:103F940078008908E928F8E43400F9E824020808DC
:103FA400E93400F9E50C98E499A2D265D03340686D
:103FB400EA7005750B028003750B01E06039750921
:103FC4000078081218C57A167B08120AF8740212CF
:103FD400167175081675090878081218C5AC0AA96F
:103FE4000BEEFAEFFB120B16740212167174042511
:103FF4000AF50A7C167D087401250AF5D9850BD9C2
:10400400E50A600D8C828D83F8E0F5D9A318E87079
:10401400F875E195790080067907800279FF7F06BB
:10402400021784C082C083E960208C828D83E08A79
:10403400828B83F08C828D83A3AC82AD838A828B46
:1040440083A3AA82AB8319E970E0ECFAEDFB0227A3
:1040540055C082C0837867790888828983A3A3A323
:10406400A3A3A3E4F088828983A3A3A3A3A374FFD7
:10407400F0E82418F8E93400F9E864C77003E96447
:104084000870D690086974FFF0900868E4F090080E
:1040940067F090086AF0A3F002577D74EC1216B230
:1040A40090086AE0F508A3E0F509E50845097006FB
:1040B4001209DE024D4C850882850983E0146018DC
:1040C40014601524FE601124C4700302480E24C039
:1040D400700302480E024D4CE0F9120B888A0A8BD9
:1040E4000BAE0AAF0B9004C4E0700302448C120AB6
:1040F40080E9F875F006A4C8AAF02AF974C728F56F
:104104000C740439F50D850C82F583E0F50AA3E0FF
:10411400F50BAC0AFDEEFAEFFB120B82E9F50E7417
:1041240002650E700302444B8E828F83E024FE608E
:104134000A24FE7003024343024D4CEE65087003EB
:10414400EF650960211209F69007F7E06401701623
:104154009007F6E070107901120CA8120C78120C7A
:10416400A27900120CAEE50E6021E5082415F58253
:10417400E5093400F583E060129007F2E0F8A3E06B
:10418400F9A3E0687003A3E0697026120C068A0C98
:104194008B0D8C0E8D0F90827C780C121491908272
:1041A40068780C1214F28E828F83A3A3780C1215F4
:1041B4003AE5082415F582E5093400F583E0640145
:1041C4006003024269850A82850B83A3A3780C12DB
:1041D400152B908270780C121491780C1218C18EE1
:1041E400828F83A3A3C082C0839007F4E0F508A361
:1041F400E085080CF50DE4F50EF50FD083D0827838
:104204000C121491AA0CAB0DAC0EAD0F12219D74BF
:1042140004121671E9703C8E828F83A3A3C082C0FE
:10422400839007F4E0F508A3E0F509E4F50AF50B3B
:10423400D083D0827808121491908268780812147E
:10424400F2EE240EF582EF3400F583780812153A65
:1042540002433B850A82850B83A3A3780812152B9E
:1042640090827080CFEE240EF582EF3400F5831235
:1042740018D88E828F83A3A312154912219D74042A
:10428400121671E96401600302433B850A82850BBF
:1042940083A3A3780C12152B908270780C121491BE
:1042A400780C1218C18E828F83A3A3C082C083901E
:1042B40007F4E0F508A3E085080CF50DE4F50EF528
:1042C4000FD083D082780C121491AA0CAB0DAC0ED3
:1042D400AD0F12219D7404121671E9701F8E828F26
:1042E40083A3A3C082C0839007F4E0F508A3E0F59C
:1042F40009E4F50AF50BD083D0828010850A828503
:104304000B83A3A3780812152B90827078081214DB
:104314009190826878081214F2EE240EF582EF343C
:1043240000F583780812153A9007FAE064277004C0
:1043340074258002E004F09008697402024D44EE92
:1043440065087003EF6509603190080EE0F9120901
:10435400FC850882850983E06402701E9007F7E0FB
:10436400640170169007F6E070107900120CA81220
:104374000C78120CA27901120CAEE50E60129008B2
:1043840008E0F8A3E0F9A3E0687003A3E0697026ED
:10439400120C068A0C8B0D8C0E8D0F90827C780C7F
:1043A400121491908268780C1214F28E828F83A377
:1043B400A3780C12153A850A82850B83A3A3780C83
:1043C40012152B908270780C121491780C1218C16B
:1043D4008E828F83A3A3C082C08390080AE0F5086D
:1043E400A3E085080CF50DE4F50EF50FD083D0821B
:1043F400780C121491AA0CAB0DAC0EAD0F12219DCA
:104404007404121671E9701F8E828F83A3A3C08275
:10441400C08390080AE0F508A3E0F509E4F50AF57D
:104424000BD083D0828010850A82850B83A3A37866
:104434000812152B90827078081214919082687873
:10444400081214F2024D2D850882850983E0640266
:1044540070139007F7E06401700B9007F6E07005A5
:104464007900120CA8E50C2404FEE50D3400FF8E3F
:10447400828F83E0F9120BBE8E828F83E09004C595
:10448400F0AA0AAB0B024D49EE65087003EF65090B
:104494008E828F836003024670E024FE600A24FE4D
:1044A40070030245CB024D45EE2415F582EF34002E
:1044B400F583E060419007F2E0F8A3E0F9A3E06837
:1044C4007003A3E069602F120C068A088B098C0A1A
:1044D4008D0B9082C4780812149178081218C18E3A
:1044E400828F83A3A312154912219D74041216719D
:1044F400E96003024D45120C068A088B098C0A8D6B
:104504000B90827C780812149190826878081214B7
:10451400F28E828F83A3A3780812153AEE2415F540
:1045240082EF3400F583E0640170348E828F83A3BC
:10453400A3C082C0839007F4E0F508A3E0F509E482
:10454400F50AF50BD083D0827808121491EE240E6C
:10455400F582EF3400F583780812153A024D45EEE2
:10456400240EF582EF3400F5831218D88E828F83DF
:10457400A3A312154912219D7404121671E9640152
:104584006003024D458E828F83A3A3C082C08390B3
:1045940007F4E0F508A3E0F509E4F50AF50BD08388
:1045A400D0827808121491EE240EF582EF3400F5CF
:1045B40083780812153A9007FAE064277005742589
:1045C400024D44E00480F9900808E0F8A3E0F9A360
:1045D400E0687003A3E069602C120C068A088B095A
:1045E4008C0A8D0B9082C4780812149178081218E2
:1045F400C18E828F83A3A312154912219D740412C4
:104604001671E97064EE2402F508EF3400F509121E
:104614000C068A0C8B0D8C0E8D0F90827C780C12FC
:104624001491908268780C1214F2850882850983AB
:10463400780C12153A850882850983C082C083905C
:10464400080AE0F508A3E0F509E4F50AF50BD083C0
:10465400D0827808121491EE240EF582EF3400F51E
:1046640083780812153A120A02024D45E024FE60CE
:104674000A24FE7003024736024D4C1209F69007D5
:10468400F7E0640170169007F6E070107901120CDF
:10469400A8120C78120CA27900120CAE9007F2E06A
:1046A400F8A3E0F9A3E0687003A3E069602F120C9B
:1046B400068A088B098C0A8D0B9082C47808121420
:1046C4009178081218C18E828F83A3A31215491200
:1046D400219D7404121671E9600302433BEE240227
:1046E400F508EF3400F509120C068A0C8B0D8C0EBC
:1046F4008D0F90827C780C121491908268780C1241
:1047040014F2850882850983780C12153A8508828B
:10471400850983C082C0839007F4E0F508A3E0F51F
:1047240009E4F50AF50BD083D082780812149102BB
:10473400424590080EE0F91209FC85088285098338
:10474400E06402701E9007F7E0640170169007F6AB
:10475400E070107900120CA8120C78120CA27901E6
:10476400120CAE900808E0F8A3E0F9A3E068700327
:10477400A3E069602C120C068A088B098C0A8D0B45
:104784009082C4780812149178081218C18E828F0E
:1047940083A3A312154912219D7404121671E970A2
:1047A40066EE2402F8EF3400F988088909120C0631
:1047B4008A0C8B0D8C0E8D0F90827C780C121491C8
:1047C400908268780C1214F2850882850983780C2B
:1047D40012153A850882850983C082C08390080A2D
:1047E400E0F508A3E0F509E4F50AF50BD083D082DF
:1047F4007808121491EE240EF582EF3400F58378D4
:104804000812153A120A02024D3F9004C4E07003E4
:10481400024BA4120A80E9F875F006A4C8AAF02A8B
:10482400F974C728F510740439F511851082F583DD
:10483400E0F508A3E0F5099004C5E0F875F006A4D6
:10484400C8AAF02AF974C728F50C740439F50D9038
:104854000868E054077003024ACDA3E0F9120B88FC
:104864008A0A8B0BAE0AAF0BAC08AD09120B82E9B6
:10487400F50E7402650E7003024ACD850C82850D17
:1048840083A3A3A3A3E0F875F08AA4C8AAF02AF925
:1048940074CC28F50A740839F50BAA0AFB120BB27A
:1048A400AA0AAB0B120BAC751280751300781212A6
:1048B40018C57C007D60E50A2406FAE50B3401FB8B
:1048C400120AF87402121671A80AA90B906195E0F5
:1048D400C0E0E82486F582E93401F583D0E0F09065
:1048E4006196E0C0E0E82487F582E93401F583D0DD
:1048F400E0F0906197E0C0E0E82488F582E93401B3
:10490400F583D0E0F0906198E0C0E0E82489F58276
:10491400E93401F583D0E0F08E828F83E024FE60D9
:104924000A24FE7003024A08024ACD1209F69007CF
:10493400F7E0640170119007F6E0700B120C781226
:104944000CA27900120CAEE50E60129007F2E0F8AA
:10495400A3E0F9A3E0687003A3E0697026120C06D3
:104964008A0C8B0D8C0E8D0F90827C780C12149116
:10497400908268780C1214F28E828F83A3A3780C31
:1049840012153A850882850983A3A3780C12152B86
:10499400908270780C121491780C1218C18E828F48
:1049A40083A3A3C082C0839007F4E0F50CA3E0F5D1
:1049B4000DE4F50EF50FD083D082780C121491AA71
:1049C4000CAB0DAC0EAD0F12219D7404121671E9DF
:1049D400701F8E828F83A3A3C082C0839007F4E0EC
:1049E400F508A3E0F509E4F50AF50BD083D082803D
:1049F40010850882850983A3A3780812152B908259
:104A04007002423890080EE0F91209FCE50E6012BB
:104A1400900808E0F8A3E0F9A3E0687003A3E06954
:104A24007026120C068A0C8B0D8C0E8D0F90827CD6
:104A3400780C121491908268780C1214F28E828F82
:104A440083A3A3780C12153A850882850983A3A34E
:104A5400780C12152B908270780C121491780C1229
:104A640018C18E828F83A3A3C082C08390080AE0FA
:104A7400F50CA3E0F50DE4F50EF50FD083D08278A4
:104A84000C121491AA0CAB0DAC0EAD0F12219D7437
:104A940004121671E9701F8E828F83A3A3C082C093
:104AA4008390080AE0F508A3E0F509E4F50AF50B9C
:104AB400D083D0828010850882850983A3A37808D7
:104AC40012152B90827002443BE510650C7004E5CE
:104AD40011650D7003024B9D850C82850D83A3A384
:104AE400A3E07003024B81850C82850D83A3A3A3ED
:104AF400A3E0F875F08AA4C8AAF02AF974CC28FEB9
:104B0400740839FFEEFAEFFB120BB2EEFAEFFB1268
:104B14000BAC750A80750B00780A1218C57C007DF1
:104B240060EE2406FAEF3401FB120AF8740212163E
:104B340071906195E0C0E0EE2486F582EF3401F5D2
:104B440083D0E0F0906196E0C0E0EE2487F582EF38
:104B54003401F583D0E0F0906197E0C0E0EE248862
:104B6400F582EF3401F583D0E0F0906198E0C0E085
:104B7400EE2489F582EF3401F583D0E0F0E51024CA
:104B840004FEE5113400FF8E828F83E0F9120BBE20
:104B94008E828F83E09004C5F0AA08AB09024D49C8
:104BA400900868E054077003024D4CA3E0F9120B1F
:104BB400888A088B09AE08AF098E828F83E024FEB1
:104BC400600A24FE7003024C93024D4C1209F690C5
:104BD40007F7E0640170169007F6E070107901128F
:104BE4000CA8120C78120CA27900120CAE9007F2E9
:104BF400E0F8A3E0F9A3E0687003A3E069602C1275
:104C04000C068A088B098C0A8D0B9082C4780812D2
:104C1400149178081218C18E828F83A3A3121549A8
:104C240012219D7404121671E97061EE2402F508D4
:104C3400EF3400F509120C068A0C8B0D8C0E8D0FC7
:104C440090827C780C121491908268780C1214F281
:104C5400850882850983780C12153A8508828509AE
:104C640083C082C0839007F4E0F508A3E0F509E46B
:104C7400F50AF50BD083D0827808121491EE240E35
:104C8400F582EF3400F583780812153A02433B901D
:104C9400080EE0F91209FC900808E0F8A3E0F9A373
:104CA400E0687003A3E069602C120C068A088B0983
:104CB4008C0A8D0B9082C47808121491780812180B
:104CC400C18E828F83A3A312154912219D740412ED
:104CD4001671E97063EE2402F8EF3400F98808894C
:104CE40009120C068A0C8B0D8C0E8D0F90827C7829
:104CF4000C121491908268780C1214F28508828543
:104D04000983780C12153A850882850983C082C00C
:104D14008390080AE0F508A3E0F509E4F50AF50B29
:104D2400D083D0827808121491EE240EF582EF34E9
:104D340000F583780812153A120A0290086974047F
:104D4400F0EEFAEFFB120B7C7F0C02178474F01266
:104D540016B2EAFEEBFFEE2402F8EF3400F98808FD
:104D64008909EE2406F8EF3400F9880A890B888251
:104D7400F5831218DC850882850983121549120B04
:104D8400E27402121671850A82850B831218DC857F
:104D94000882850983121549120BD6740212167102
:104DA400EE240EF582EF3400F583121549120BE858
:104DB4008E828F83E06440701CEE2412F8EF34007E
:104DC400F988828983E0906064F088828983A3E013
:104DD4009060658006906064E4F0A3F090086AEE49
:104DE400F0A3EFF0EE2416F582EF3400F583E0F83B
:104DF400A3E0F58388821216B0906054E4F0A3F027
:104E0400A3F0A3F0A3F0A3F0A3F0A3F0A3F0A3F006
:104E1400A3F0A3F0906182E0C2E6F07591BFEE24A6
:104E240015F582EF3400F583E064017003120C1E63
:104E3400E5E170FCEE2414F582EF3400F583E0F430
:104E44006003E0F5E1EE2415F582EF3400F5837498
:104E540001F090049FE06401706F120C068A088BC5
:104E6400098C0A8D0B78081218C18E828F83A3A334
:104E74001215491221FA74041216718A088B098CCE
:104E84000A8D0B9082EC780C12152B7808790C1291
:104E9400135674037808121446E50824F4F508E55B
:104EA400093401F509900814E06003120F6CE4F56D
:104EB4000AF50B78081218C17A207B00900498E058
:104EC400F9120FBA74041216717F0802178474EC75
:104ED4001216B2EAFEEBFF8C088D09EE4F700579CD
:104EE40002024FC7120C068A0C8B0D8C0E8D0F908C
:104EF40082D4780C121491908268780C1214F28E79
:104F0400828F83E06402701F9007F2E0F8A3E0F957
:104F1400A3E0687003A3E06970248E828F83A3A347
:104F2400780C12153A8017E064047012900808E0B7
:104F3400F8A3E0F9A3E0687003A3E06960DC780CEF
:104F44001218C1850882850983A3A3121549122169
:104F5400FA74041216718A108B118C128D139082BC
:104F6400DC78101213374003024EE385088285096A
:104F740083A3A3780812152B9082B0780812149199
:104F840078081218C18E828F83A3A31215491221A7
:104F94009D7404121671E96003024EE39082D07886
:104FA4000C121491780C1218C18E828F83A3A31251
:104FB400154912219D7404121671E9700479008058
:104FC400027901024D4C74F01216B2890874FF651F
:104FD400086003025156900868E0540770030256B3
:104FE400227A007867790888828983A3A3A3A3A37C
:104FF400E064047050EA75F018A4F8A9F0746D2800
:10500400F582740839F583E0640170487A007867A2
:10501400790888828983A3A3A3A3A3E0640460031B
:105024000250AE88828983A3A3A3A3A3A3E064014F
:105034007078EA75F018A4F8A9F0746C28FA74086A
:1050440039FB0256260AE82418F8E93400F9EAC3C1
:10505400940440937A007867790888828983A3A3AB
:10506400A3A3A3E064017057EA75F018A4F8A9F0AB
:10507400746D28F582740839F583E06401704F7A01
:10508400007867790888828983A3A3A3A3A3E06433
:1050940001600302513288828983A3A3A3A3A3A33B
:1050A400E06401600302513280880AE82418F8E9B8
:1050B4003400F9EAC3940450030250160256220A3B
:1050C400E82418F8E93400F9EAC39404408C7A001F
:1050D4007867790888828983A3A3A3A3A3E06402E1
:1050E4007061EA75F018A4F8A9F0746D28F582745B
:1050F4000839F583E0640170597A00786779088883
:10510400828983A3A3A3A3A3E06402707A8882891B
:1051140083A3A3A3A3A3A3E06401706BEA75F018AF
:10512400A4F8A9F0746C28FA740839FB806F0AE8B3
:105134002418F8E93400F9EAC394045003025089AE
:105144000256220AE82418F8E93400F9EAC3940460
:1051540040827A007867790888828983A3A3A3A30D
:10516400A3E06508703D88828983A3A3A3A3A3A3B6
:10517400E06401702EEA75F018A4F8A9F0746C28A4
:10518400FE740839FF802F0AE82418F8E93400F97E
:10519400EAC3940450030251037A007B00025626AA
:1051A4000256220AE82418F8E93400F9EAC3940400
:1051B40040A67E007F007A00786779088882898318
:1051C400A3A3A3A3A3E06508701BEA75F018A4F8D1
:1051D400A9F0746D28F582740839F583E0640170D0
:1051E400137A0180110AE82418F8E93400F9EAC3B3
:1051F400940440C87A00E50814600F147003025345
:10520400BF24FE700302551980967B0078677908E5
:1052140088828983A3A3A3A3A3E064027055EB75DA
:10522400F018A4F8A9F0746D28F582740839F58390
:10523400E06401704D7B007867790888828983A3D4
:10524400A3A3A3A3E0640260030252F588828983C6
:10525400A3A3A3A3A3A3E0640160030252F5EB7527
:10526400F018A4F8A9F0746C28F50A740839F50B41
:1052740002530D0BE82418F8E93400F9EBC3940445
:10528400408E7B007867790888828983A3A3A3A3CF
:10529400A3E064046003025349EB75F018A4F8A971
:1052A400F0746D28F582740839F583E064016003B5
:1052B40002535B7B007867790888828983A3A3A360
:1052C400A3A3E06404600302536688828983A3A3D2
:1052D400A3A3A3A3E064016003025366EB75F01873
:1052E400A4F8A9F0746C28F50A740839F50B025374
:1052F4007E0BE82418F8E93400F9EBC39404500356
:1053040002523F750A00750B00EAA2E04003025303
:10531400B1850A82850B83A3A3780C12152B908286
:105324008C780C121491780C1218C18E828F83A37E
:10533400A312154912219D7404121671E9706EEEC0
:10534400FAEF0250450BE82418F8E93400F9EBC3EE
:105354009404500302528CEAA2E05058EEFAEFFB98
:1053640080560BE82418F8E93400F9EBC394045090
:10537400030252BD750A00750B00EAA2E0502E85A7
:105384000A82850B83A3A3780C12152B90828C7848
:105394000C121491780C1218C18E828F83A3A3125D
:1053A400154912219D7404121671E96092AA0AAB80
:1053B4000B0256267A007B000256267B007867791A
:1053C4000888828983A3A3A3A3A3E064047052EB97
:1053D40075F018A4F8A9F0746D28F582740839F5ED
:1053E40083E06401704A7B00786779088882898346
:1053F400A3A3A3A3A3E06404600302548D88828959
:1054040083A3A3A3A3A3A3E06401707DEB75F018A9
:10541400A4F8A9F0746C28F50A740839F50B025441
:10542400A50BE82418F8E93400F9EBC3940440917F
:105434007B007867790888828983A3A3A3A3A3E068
:10544400640160030254E1EB75F018A4F8A9F07448
:105454006D28F582740839F583E064016003025411
:10546400F37B007867790888828983A3A3A3A3A325
:10547400E0640160030254FE88828983A3A3A3A38A
:10548400A3A3E06401707380830BE82418F8E93463
:1054940000F9EBC3940450030253F0750A00750B32
:1054A40000EAA2E040030253B1850A82850B83A37C
:1054B400A3780C12152B90828C780C121491780C12
:1054C4001218C18E828F83A3A312154912219D74D1
:1054D40004121671E960030253B10253430BE8242A
:1054E40018F8E93400F9EBC39404500302543AEA7F
:1054F400A2E0501AEEFAEFFB80180BE82418F8E942
:105504003400F9EBC39404500302546B808D7A0089
:105514007B000256267B007867790888828983A3FA
:10552400A3A3A3A3E064017040EB75F018A4F8A949
:10553400F0746D28F582740839F583E064017038DD
:105544007B007867790888828983A3A3A3A3A3E057
:10555400640160030255DE88828983A3A3A3A3A305
:10556400A3E0640170740254100BE82418F8E934C1
:1055740000F9EBC3940440A37B0078677908888220
:105584008983A3A3A3A3A3E064027063EB75F0185B
:10559400A4F8A9F0746D28F582740839F583E064E1
:1055A40001705B7B007867790888828983A3A3A351
:1055B400A3A3E06402704F88828983A3A3A3A3A357
:1055C400A3E064017040EB75F018A4F8A9F0746CC2
:1055D40028F50A740839F50B80410BE82418F8E91A
:1055E4003400F9EBC39404500302554A02549F0B50
:1055F400E82418F8E93400F9EBC394044080EAA2E3
:10560400E0501B0253430BE82418F8E93400F9EB8B
:10561400C394044094750A00750B000254A57A00E3
:105624007B00024ECD74F61216B289097508007813
:1056340067790888828983A3A3A3A3A3A3E0600353
:10564400025705E50875F018A4F8A9F0746C28FE53
:10565400740839FF8E828F83A37401F08E828F8346
:10566400E509F0120C068E828F83A3A31215558EC2
:10567400828F83A3A3A3A3A3A3E4F0A3F0908264E3
:10568400121549EE240EF582EF3400F583121555F8
:10569400EE2414F582EF3400F5837401F0EE241542
:1056A400F582EF3400F5837401F0EE2416F582EFF1
:1056B4003400F583E4F0A3F0900868E04509F09025
:1056C4000867E004F06401600C7480650960067486
:1056D4004065097019E50875F018A4F8A9F0746C10
:1056E40028F8740839F990086AE8F0A3E9F0E508A5
:1056F40075F018A4F8A9F0746C28FA740839FB80C2
:10570400180508E82418F8E93400F9E508C39404F6
:1057140050030256377A007B0080007F0202178410
:10572400C082C0838A828B83E0F8A3E0F98A828BEB
:1057340083E4F0A3F088828983A3F088828983E0DC
:10574400F4F8900868E058F0900867E014F0700BE3
:1057540090086AE4F0A3F0900499F0801CC082C021
:1057640083900867E0600A90086AE0FAA3E0FB808F
:10577400047A007B008002E0F9D083D082020135F4
:10578400C082C083E9FB7A007867790888828983BC
:10579400A3A3A3A3A3E06B7016EA75F018A4F8A959
:1057A400F0746D28F582740839F583E0F980110AE4
:1057B400E82418F8E93400F9EAC3940440CE7900E7
:1057C40080B7C082C08390086702577B74F61216B4
:1057D400B2EAFEEBFF9061D0E0C0E0EE2400F58277
:1057E400EF3401F583D0E0F09061D7E0FA9061D511
:1057F400E0C39A547FC0E0EE2401F582EF3401F552
:1058040083D0E0F0EE2402F8EF3401F99061D6E0A1
:10581400C39A547F88828983F0701A9061C5E0A28C
:10582400E45012E0A2E7500DEE2402F582EF3401B9
:10583400F5837480F0120CD2EE2401F582EF34016A
:10584400F583E07034EE2402F582EF3401F583E051
:1058540070279061C5E0A2E4501FE0A2E7501AEE61
:105864002402F582EF3401F5837480F0EE2401F50F
:1058740082EF3401F5837480F075E1957800EE24AD
:1058840000F582EF3401F583E060279061D3E0C036
:10589400E08808EE2508F582EF3400F583D0E0F0C7
:1058A40008EE2400F582EF3401F583E0F9E8C399AA
:1058B40040D975E19102571F74F61216B2EAFEEB55
:1058C400FF9061C8E0C0E0EE2403F582EF3401F5F7
:1058D40083D0E0F09061CFE0FA9061CDE0C39A54B8
:1058E4007FC0E0EE2404F582EF3401F583D0E0F0CC
:1058F400EE2405F8EF3401F99061CEE0C39A547FA9
:1059040088828983F0701A9061C5E0A2E05012E0A9
:10591400A2E3500DEE2405F582EF3401F583748083
:10592400F0120CD8EE2404F582EF3401F583E07014
:1059340034EE2405F582EF3401F583E0702790619D
:10594400C5E0A2E0501FE0A2E3501AEE2405F58260
:10595400EF3401F5837480F0EE2404F582EF340112
:10596400F5837480F0120CDE7A00EE2403F582EFE6
:105974003401F583E0602F9061CBE0C0E08A08EE4B
:105984002508F8EF3400F9E82480F582E93400F5BD
:1059940083D0E0F00AEE2403F582EF3401F583E0CE
:1059A400F8EAC39840D175E18102571F74F41216C6
:1059B400B28908A808E875F08AA4C8AAF02AF9747C
:1059C400CC28FE740839FFEEFAEFFB120BB2EEFAA4
:1059D400EFFB120BAC750A80750B00780A1218C520
:1059E4007C007D60EE2406FAEF3401FB120AF874A1
:1059F40002121671906195E0C0E0EE2486F582EF04
:105A04003401F583D0E0F0906196E0C0E0EE2487A5
:105A1400F582EF3401F583D0E0F0906197E0C0E0C7
:105A2400EE2488F582EF3401F583D0E0F09061989C
:105A3400E0C0E0EE2489F582EF3401F583D0E0F094
:105A44007F0402178474F21216B28908A808E87554
:105A5400F08AA4C8AAF02AF974CC28F8740839F991
:105A64009061C6E0FDE054F0F075E1817C00E8242B
:105A740003F582E93401F583E0602B8C0AE8250AFA
:105A8400FAE93400FBEA2480F582EB3400F583E084
:105A94009061CAF00CE82403F582E93401F583E04F
:105AA400FAECC39A40D5E82405F582E93401F5837C
:105AB400E060049061CEF0E82404F582E93401F555
:105AC40083E060049061CDF0ED9061C6F0A808E831
:105AD40075F08AA4C8AAF02AF974CC28F874083995
:105AE400F9E0FCE0540FF075E1917A00E82400F548
:105AF40082E93401F583E060238A0AE8250AF58205
:105B0400E93400F583E09061D2F00AE82400F582DC
:105B1400E93401F583E0FBEAC39B40DDE82402F5A8
:105B240082E93401F583E060049061D6F0E8240151
