:020000040000FA
:0600000002011D021D4279
:03002B0002220DA1
:030033000221EFB8
:03005300021DB8D3
:03006B000221A8C7
:03007B000221D18E
:10008300021C33E5C754F84401F5C7790122000087
:100093000080FB120086B90003020107E4791B7894
:1000A30002B800028004F709D8FCE4791D7802B88D
:1000B30000028004F709D8FCE490028178FF790DEF
:1000C3008002F0A3D8FCD9FA781A90014D7A01BACC
:1000D30000028007E493A3F608DAF9900F7FAA825F
:1000E300AB8390014E78CF79018015E493A3AC8262
:1000F300AD838A828B83F0A3AA82AB838C828D83A8
:10010300D8E9D9E775823A7583BD740312012F7557
:100113008291758300740012012F75D00075813FA1
:10012300751881751902759F00020096C09FF59F8F
:10013300E473D09F22D083D082C09FE493C0E07445
:100143000193C0E0740293F59F2201A803BA03E46C
:1001530003AE03FF0000B400002800280028307518
:10016300A000A000A000A00000080008E001F0002B
:10017300100010001000100010001000500050007C
:10018300500010001000D0070000000000000F0016
:10019300307507001000010081FF0000FF0202021A
:1001A3000491010000EB9002FE90010000D10F02C8
:1001B300F090010000B10202FE90010000D20F0294
:1001C300EE90010000C702FFFF0100FF200204912F
:1001D300010000E89002FE90010000001002F4907C
:1001E300000000000002F290030000A403940B94AB
:1001F3000B940B940B940B940B940B940B940B9404
:100203000B940B940B940BB00DCE0DAA0DFFFF01B5
:10021300E803053F10FF00FEFF12013876B4031216
:1002230001388CB403120138B9B403120138E9B4AC
:100233000312013800B50312013821B50312013846
:1002430052B503120138A3B503120138BAB503122C
:1002530001380AAE0312013821AE0312013850AE41
:100263000312013889AE03120138B1AE031201380B
:10027300DFAE03120138F6AE031201380DAF0312DD
:10028300013823AF031201384AAF031201385DAFBF
:100293000312013873AF031201389BAF0312013805
:1002A300228D02120138218E021201384B8E021266
:1002B3000138A08E02120138C18E02120138DA8E83
:1002C30002120138DC8E02120138FD8E021201384F
:1002D300009002120138BD90021201388A91021275
:1002E3000138EE9102120138859202120138889288
:1002F300021201380E93021201385193021201388F
:10030300A39302120138A69302120138DD9302125D
:1003130001380494021201389A9402120138239589
:10032300021201386C9502120138799502120138D4
:100333007C9502120138DA9502120138F295021205
:1003430001386C96021201386F96021201389296A8
:10035300021201389596021201383C9702120138B5
:100363005F9702120138779702120138A79702129A
:100373000138B49702120138B79702120138239853
:1003830002120138119902120138C7990212013879
:10039300F4AE02120138CFAF02120138FDAF0212E0
:1003A30001387DB0021201389DB002120138DBB072
:1003B300021201382EB10212013896B1021201382D
:1003C30027B202120138F2B20212013801B6021248
:1003D30001386DB70212013890B7021201386B95DC
:1003E30003120138FF96031201385E970312013896
:1003F300BD9703120138CB9703120138F497031208
:100403000138BBED02120138E3ED0212013811EE9F
:100413000212013848EE02120138B0EE021201381E
:10042300F9EE0212013844EF0212013882EF021290
:100433000138BFEF02120138EDEF0212013894F0D8
:10044300021201389EF002120138ABF00212013899
:10045300DEF002120138A0F102120138ACF10212EF
:100463000138C4F102120138CEF1021201384CF204
:1004730002120138D7B803120138E5B80312013864
:10048300FDB80312013815B9031201382DB903124F
:100493000138E2D20112013880D301120138F8D3B6
:1004A300011201380DD50112013847D50112013867
:1004B300F0D501120138C5D60112013829D801122D
:1004C300013880D80112013807D901120138EED959
:1004D300011201383BDA01120138C9DA011201387D
:1004E300EDDA01120138C2DC0112013803DD011219
:1004F300013825DD01120138EADD01120138B0DED1
:1005030001120138E5E00112013829FC011201381A
:100513003FFC0112013865FC011201388DFD011207
:10052300013897FD01120138F0FE01120138F0FF86
:1005330001120138A18403120138438503120138E3
:10054300778503120138B9850312013873870312C3
:1005530001380891011201388691011201389691F0
:100563000112013879920112013883920112013884
:10057300B19201120138BC92011201389593011214
:100583000138F793011201389394011201389796B9
:10059300011201384E9801120138CA98011201382C
:1005A300A79901120138D59C01120138739D0112DC
:1005B3000138D09E0112013843A001120138ECA08A
:1005C3000112013835A1011201386CA10112013861
:1005D30011A2011201388FA20112013862B5011272
:1005E3000138B7B501120138FCB6011201380CB756
:1005F300011201382FB7011201387AB701120138FD
:100603001FB80112013815B901120138DFB90112FF
:10061300013857BB0112013899BB0112013837BCAD
:10062300011201385DBC011201384BBE01120138C1
:1006330050BE0112013831C00112013885C00112C8
:100643000138E7C0011201380FC101120138B3C1EB
:100653000112013875C201120138A6C20112013814
:10066300A9C201120138F1C20112013833C30112C8
:1006730001389AC301120138D8A503120138EBA53A
:1006830003120138F4A5031201380DA60312013831
:1006930058A60312013833A703120138C2A7031265
:1006A30001380DA803120138342200120138442204
:1006B30000120138A72200120138EC22001201387F
:1006C3009C23001201387524001201389E24001265
:1006D3000138CE2400120138E22600120138BE2868
:1006E300001201389E2A00120138D62B001201385D
:1006F3004F2E001201383B2F0012013881300012B7
:1007030001388E3100120138D0310012013808321D
:10071300001201382232001201388A3200120138E5
:10072300243700120138C537001201381938001276
:1007330001384038001201387E38001201389D38E4
:1007430000120138F13800120138F939001201386A
:10075300823A0012013857D90212013861D90212C4
:10076300013824DA0212013873DA0212013897DAF7
:1007730002120138E1DA0212013819DB02120138E0
:1007830041DB02120138D4DB0212013810DC021201
:10079300013855DD0212013876DD0212013899DD88
:1007A30002120138CBDD021201389EDE021201383B
:1007B300D8DE021201382CDF0212013876DF021272
:1007C3000138BFDF02120138E8DF021201380DE001
:1007D3000212013876910312013840920312013854
:1007E3002C9303120138A29303120138E4930312EA
:1007F3000138119503120138F4E0011201381DE1AB
:100803000112013836E1011201387BE2011201388D
:1008130059E30112013878E30112013805E40112AA
:10082300013848E40112013880E501120138ECE592
:1008330001120138E2E70112013870EA01120138AE
:1008430003EB01120138D7EB011201387AEC0112E4
:1008530001388DED0112013823EE01120138D1B5B3
:10086300031201383AB6031201388EB60312013867
:10087300BDB60312013816890312013883890312A6
:100883000138CE8903120138C38A03120138BF8BA2
:1008930003120138A98C0312013835E00212013822
:1008A3007CE00212013855E10212013850E20212D3
:1008B30001382FE3021201389BE302120138B7E437
:1008C300021201381EE50212013821E50212013835
:1008D3004CE502120138BDE50212013860E602124E
:1008E300013875E602120138BDE602120138D6E678
:1008F30002120138D9E602120138DE9C03120138D4
:100903001A9D03120138589D03120138229E0312C7
:100913000138959E03120138D09E031201380E9FB1
:10092300031201383E9F03120138659F03120138F9
:10093300D09F0312013812A0031201385C66001223
:1009430001380C68001201387569001201381C6AFD
:1009530000120138636A00120138A76A00120138D5
:10096300DD6A00120138406B00120138566B001229
:100973000138A16B00120138E16B00120138046CDD
:1009830000120138556C00120138BA6C001201389C
:100993000A6E00120138F36E0012013894700012CF
:1009A30001382875001201385075001201388D7511
:1009B30000120138A177001201384779001201387B
:1009C30032A303120138A4A303120138FAA30312BA
:1009D30001383EA4031201385EA403120138ABA40C
:1009E30003120138F3A40312013846A50312013898
:1009F30097A503120138E93A00120138323B00127D
:100A030001385F3B00120138923B00120138A23BD0
:100A130000120138AE3B00120138BF3B001201380F
:100A2300943C00120138F23C00120138273D0012B9
:100A33000138C33E001201380F3F001201386B3FEB
:100A430000120138674000120138ED4100120138ED
:100A5300C44200120138D44200120138F04200129D
:100A63000138F34200120138AD43001201387644D5
:100A7300001201381C45001201387B450012013871
:100A8300034600120138684600120138F746001287
:100A93000138C047001201385D4800120138E448AC
:100AA300001201383B49001201389C4900120138F9
:100AB300D64900120138844A001201387C4C0012D6
:100AC3000138CC4C001201380F4D00120138844D0F
:100AD30000120138104E001201385B4E001201382B
:100AE300804E00120138D14E00120138F34E00122D
:100AF3000138384F00120138A74F00120138E94F6F
:100B030000120138E9500012013871510012013806
:100B13004252001201385B5200120138C8B8021267
:100B230001381BB90212013827B902120138FCB986
:100B33000212013823BA021201385EBA02120138D6
:100B4300CABA02120138FEBA0212013837BB0212C6
:100B530001384FBB02120138A8BB02120138C1BBD6
:100B6300021201380ABC021201381DBC02120138FC
:100B730037BC021201384DBC0212013869BD0212A2
:100B830001387ABE02120138C7BF02120138ACC065
:100B930002120138292200120138DEF7021201384D
:100BA30043FB021201385BFC02120138008002127F
:100BB3000138F38502120138F98502120138798868
:100BC30002120138DDF20212013888F302120138F1
:100BD30038F4021201385DF40212013854F602129D
:100BE3000138A7F70212013843A30112013877A392
:100BF30001120138CBAB0112013817AD01120138D4
:100C030034AE01120138BEAF01120138A0B0011297
:100C13000138DAB001120138FDB0011201383FB1D9
:100C23000112013889B10112013893B1011201385F
:100C33003FB20112013813B30112013867B3011235
:100C43000138C9B3011201381CB4011201384BB485
:100C5300011201388AB4011201384899031201388C
:100C6300BE9903120138D49903120138119A031261
:100C73000138499A03120138C69A03120138019BBD
:100C8300031201387C9B03120138B89B031201380D
:100C9300C19B03120138CD9B03120138E79B03125A
:100CA30001380C9C03120138229C031201384B9C1F
:100CB30003120138AE9C03120138FDE6021201381B
:100CC30010E7021201382AE70212013853E7021231
:100CD300013896E702120138D5E70212013813E80A
:100CE3000212013878E8021201388DE80212013845
:100CF300A4E802120138B2E802120138C1E8021274
:100D03000138D6E802120138EBE802120138F6E89E
:100D13000212013802E9021201380FE90212013806
:100D230022E9021201382DE90212013852E90212B6
:100D33000138FBE90212013810EA0212013825EAF0
:100D4300021201383FEA021201385AEA021201384C
:100D530077EA0212013882EA021201383EEB0212EC
:100D630001382AEC021201384FEC0212013859EC17
:100D7300021201386DEC021201388CEC02120138B8
:100D8300EDEC02120138F3EC02120138F9EC021215
:100D93000138FFEC021201380BED021201383EED6F
:100DA30002120138BDA402120138E9A4021201386B
:100DB300CDA50212013867A8021201387DA90212DB
:100DC30001389AAA021201383DAB02120138E3AB93
:100DD300021201389FEE0112013821EF011201388E
:100DE300CAEF0112013812F10112013820F3011286
:100DF300013806F4011201383BF4011201385DF4A5
:100E03000112013806F501120138D6F60112013834
:100E1300FFF60112013877F701120138A9F7011221
:100E23000138B6F70112013801F80112013825F82B
:100E33000112013876FA0112013880FB01120138E0
:100E4300DCFB0112013864C40112013875C50112BB
:100E5300013859C60112013863C60112013885C62B
:100E63000112013891C60112013835C80112013847
:100E730062C80112013878C901120138CDC90112C3
:100E830001381CCB01120138F1CB011201384DCCD2
:100E930001120138B8CC01120138EDCC011201382E
:100EA30030CD01120138FACF0112013812D00112EC
:100EB3000138A3D001120138B1D001120138FED09C
:100EC300011201380CD10112013878D10112013815
:100ED300F3D1011201384AD20112013851AC031285
:100EE300013876AC03120138ECAC0312013868D236
:100EF3000212013871D2021201387AD20212013879
:100F030052D30212013803D50212013833D502122B
:100F130001385ED5021201388ED502120138B9D5D7
:100F230002120138EDD50212013819D60212013826
:100F33005CD60212013887D602120138CED60212CD
:100F4300013823D70212013865D702120138BFD7FF
:100F530002120138EAD70212013839D802120138D5
:100F630069D80212013894D802120138B7D8021294
:100F73000138EFBB031201381BBC0312013848BC14
:100F83000312013852BC0312013862BC0312013848
:100F930069C20212013873C202120138B4C20212CA
:100FA3000138FDC20212013837C3021201388DC362
:100FB30002120138AEC3021201385DC602120138B3
:100FC30066C602120138BAC602120138E3C602121B
:100FD3000138EDC6021201385BC702120138EBC7B4
:100FE3000212013846C80212013874C802120138CD
:100FF300FCC8021201383BC90212013870C902123F
:10100300013882C902120138A1C902120138AAC9E2
:101013000212013871CA02120138E0B70312013813
:1010230060AA0312013896AA03120138CAAA03124E
:10103300013817AC0312013859BB031201386FBBD7
:101043000312013879BB03120138C3BB0312013801
:10105300008003120138138003120138D480031275
:101063000138138103120138308103120138698179
:1010730003120138B68103120138E88103120138E3
:101083001F82031201382884031201389484031247
:101093000138DBBC03120138E7B2031201380AB38B
:1010A3000312013839B303120138D1B303120138E3
:1010B300E9B3031201382BB403120138E6790012A5
:1010C3000138287A00120138A87A00120138BB7A55
:1010D30000120138107B00120138647B00120138C2
:1010E300A97B00120138B87B00120138677C00121B
:1010F3000138C27C00120138117D001201386B7D6A
:1011030000120138787E00120138707F0012013816
:10111300AD7F001201386CBC031201388D520012EE
:101123000138575400120138055600120138B256DF
:1011330000120138325700120138B8570012013833
:10114300E15700120138335800120138DB5B0012FB
:1011530001385B5C00120138615D001201389A5D51
:1011630000120138E45D001201382B5F00120138D0
:10117300565F00120138AC5F00120138F55F0012B0
:1011830001384D6000120138946000120138C360C9
:1011930000120138DC6000120138C161001201380D
:1011A300F56100120138A66200120138BD62001217
:1011B3000138EF620012013891640012013825658D
:1011C30000120138636500120138A8BA031201380E
:1011D300B9BA0312013892BD03120138D1BD03120B
:1011E3000138E57F00120138C6B903120138D6B9B8
:1011F30003120138EEB903120138A2BA03120138FF
:10120300DEB60312013863B703120138C7B70312FE
:101213000138ADAF03120138D6AF031201383CB029
:10122300031201385CB003120138ADB00312013868
:1012330008B10312013842B10312013845B1031258
:101243000138A6FC02120138BBFC02120138DCFD96
:10125300021201385FFE02120138D3FE0212013876
:10126300EDFE0212013800FF021201380EFF0212D6
:10127300013828FF021201383FFF0212013869FFCB
:1012830002120138BFFF021201386B8D03120138BD
:10129300828D03120138FC8D03120138E08E031294
:1012A3000138B790031201381C910312013863917E
:1012B30003120138F87F0012013837A803120138EE
:1012C300B6A90312013817AA031201385DAA031243
:1012D30001384FB103120138A1B10312013814B21E
:1012E3000312013881B2031201385AA003120138E4
:1012F30084A00312013853A1031201382FA2031251
:101303000138C0A2031201389FCA021201386BCB05
:1013130002120138ACCB021201380ACC0212013896
:101323005ECC02120138BCCC0212013852CD02123B
:1013330001385ACE02120138E4CF0212013882D0AA
:1013430002120138E9D00212013800D10212013829
:101353001FD2021201383F9A02120138469B021231
:101363000138249C02120138459E02120138169F4F
:10137300021201383D9F0212013874A10212013892
:10138300C4A10212013862A20212013893A302120D
:1013930001383BA40212013811BE03120138DBBD30
:1013A300031201383EBE0312013866BE03E06670C5
:1013B3001008A3E066700A08A3E066700408A3E0BF
:1013C3006622C3E7960809E7960809E7960809E73E
:1013D3009622C3E09608A3E09608A3E09608A3E04C
:1013E3009622C008C3E096F50808A3E096420808D1
:1013F300A3E096420808A3E09645087001D3D008FD
:1014030022080808EAC0E0EBC0E086F0E7A4FA1877
:101413000986F0E7A42AFA180986F0E7A42AFA183D
:101423000986F0E7A42AFA1986F0E7A4FBE5F02A77
:10143300FA190886F0E7A42BFBE5F03AFA190886B7
:10144300F0E7A42BFBE5F03AFA18180986F0E7A4B5
:10145300C5F02BFBE43AFA1908E7C5F0C6A426F653
:10146300E5F03BFBE43AFA1886F0E7A4F6E5F0086A
:1014730026F6E43B08F6E43A08F6D0E0FBD0E0FABF
:1014830022E4CFC0E0E4CEC0E0E4CDC0E0E4CCC0D1
:10149300E075F020C3E633F608E633F608E633F6E4
:1014A30008E633F6181818EC33FCED33FDEE33FE83
:1014B300EF33FFC3EC9709ED9709EE9709EF9719FF
:1014C3001919400FFFEC97FC09ED97FD09EE97FE04
:1014D300191906D5F0BEECF709EDF709EEF709EF98
:1014E300F7191919D0E0FCD0E0FDD0E0FED0E0FF01
:1014F300226016080808C6C313C618C613C618C642
:1015030013C618C613C6D5E0EA22700908080822D4
:101513006016181818C6C333C608C633C608C633C0
:10152300C608C633C6D5E0EA22E627F60809E63739
:10153300F60809E637F60809E637F622E026F60844
:10154300A3E036F608A3E036F608A3E036F622E079
:1015530026F008A3E036F008A3E036F008A3E0364F
:10156300F022C3E697F60809E697F60809E697F628
:101573000809E697F622C3E096F008A3E096F00880
:10158300A3E096F008A3E096F022E657F60809E6F2
:1015930057F60809E657F60809E657F622E056F625
:1015A30008A3E056F608A3E056F608A3E056F62291
:1015B300E056F008A3E056F008A3E056F008A3E0D5
:1015C30056F022E066F608A3E066F608A3E066F6A6
:1015D30008A3E066F622E0F608A3E0F608A3E0F627
:1015E30008A3E0F622E6F008A3E6F008A3E6F00875
:1015F300A3E6F022E0FAA3E0FBA3E0FCA3E0FD22D4
:10160300EAF0A3EBF0A3ECF0A3EDF022CAC0E0E60E
:10161300F0A308DAFAD0E0FA22CAC0E0E0A3C58258
:10162300CCC582C583CDC583F0A3C582CCC582C595
:1016330083CDC583DAE6D0E0CA22C3E498F8E499FF
:10164300F912167E8026C3E49AFAE49BFBE920E7AD
:10165300E912167EE498F8E499F922C3E498F8E4D1
:1016630099F912167EE498F8E499F9C3E49AFAE436
:101673009BFB22EB20E7CFE920E7E0B90010BB009A
:1016830008E88AF084F8AAF022E4FBC8FA22EB7097
:10169300227B10C833C8C933C9335007C39AC3DB8D
:1016A300F280069A50012ADBEAC833F4C8C933F43E
:1016B300C9FA2275F008E4C833C8C933C933C99AD3
:1016C300C99B5004C92AC93BD5F0ECFBC833F4C805
:1016D300E4C9FA22600D08C6A2E713C618C613C6EA
:1016E300D5E0F322600C08C6C313C618C613C6D5CB
:1016F300E0F422700422600D18C6C333C608C63353
:10170300C6D5E0F41822251810AF08F518400215C5
:10171300198008F51840021519D2AF22C0D0251838
:1017230010AF08F518500205198008F51850020586
:1017330019D2AFD0D0222518F58210AF08F5184082
:101743000215198008F51840021519D2AF851983BF
:10175300222518F582E43519F58322E4732518C58B
:1017630082C0E0E51934FFC583C0E0E518C3958264
:1017730024F810AF0885831985821880088583199A
:10178300858218D2AFCEF0A3E520F0A37808E6084F
:10179300F0A3DEFAEFF0A3E58124FAF8E608F0A35C
:1017A300E608F0A3E608F0A30808E608F0A3E608B5
:1017B300F0A315811581D0E0FED0E0F815811581E5
:1017C3001581E8C0E0EEC0E0222518C582C0E0E53F
:1017D3001934FFC583C0E0E518C3958224F910AF1F
:1017E300088583198582188008858319858218D214
:1017F300AFCEF0A3E520F0A37808E608F0A3DEFA65
:10180300EFF0A3E58124FBF8E608F0A3E608F0A3D4
:101813000808E608F0A3E608F0A315811581D0E0D7
:10182300FED0E0F815811581E8C0E0EEC0E0228526
:101833001983851882E0A3FEE0A3F5207808E0A3CE
:10184300F608DFFAE0A3FFE0A3C0E0E0A3C0E0E016
:10185300A3C0E0E0A3C0E0E0A3C0E010AF0885822E
:10186300188583198008858218858319D2AFD083A0
:10187300D082020135851983851882E0A3FEE0A397
:10188300F5207808E0A3F608DFFAE0A3FFE0A3C0A1
:10189300E0E0A3C0E0E0A3C0E0E0A3C0E010AF0835
:1018A3008582188583198008858218858319D2AFAC
:1018B300D083D08222C0D02518C582C0E0E5193478
:1018C300FFC583C0E0E518C3958224F310AF0885F4
:1018D30083198582188008858319858218D2AFC839
:1018E300F0A3E9F0A3EAF0A3EBF0A37908E709F08A
:1018F300A3D8FAECF0A3EDF0A3EEF0A3EFF0A3D09E
:10190300E0F0A3D0E0F0A3D0E0F0A3E520F0A3E55E
:10191300F0F0A322851983851882E0C0E0A3E0F9E3
:10192300A3E0FAA3E0FBA37808E0F608A3DFFAE05C
:10193300FCA3E0FDA3E0FEA3E0FFA3E0C0E0A3E07F
:10194300C0E0A3E0F5D0A3E0F520A3E0A3F5F010F9
:10195300AF088583198582188008858319858218C5
:10196300D2AFD082D083D0E0F8D0E03274048006C6
:10197300740280027401C0E0F404121739D0E0123B
:10198300160F227404800474028000CCC0E0EDC002
:10199300E0E518C39CCCAD1950011D10AF068C189F
:1019A3008D1980068C188D19D2AF12161CD0E0FD4C
:1019B300D0E0FC22D083D082E9C0E0E493A3C386C5
:1019C300F0C5F095F0F908E493A386F0C5F095F01F
:1019D300700BE493A3C3994005E9048002A3E47563
:1019E300F002A42582F582E5F03583F583D0E0F992
:1019F300E493A3C0E0E493C0E022D083D082ECC0A0
:101A0300E0EDC0E0E493A3FCE493A3FDED4C600D93
:101A1300121A49EC24FFFCED34FFFD80EFE493A39D
:101A2300FCE493A3FDED4C600D121A88EC24FFFC3B
:101A3300ED34FFFD80EFD0E0FDD0E0FCE493A3C0E4
:101A4300E0E493C0E022C0E0C3E4939608740193FA
:101A53009618400FE4936670080874019366187033
:101A6300007019A3A3C3E49396087401939618A373
:101A7300A3400DD0E0D0E0D0E0021A39A3A3A3A382
:101A8300A3A3D0E022C0E0C0F088F0E4936670081E
:101A93000874019366187000A8F0A3A3700BD0F02C
:101AA300D0E0D0E0D0E0021A39A3A3D0F0D0E022F6
:101AB40074F51217CCEAFEEBFFEE2434F8EF340091
:101AC400F988088909EE2435121BECF8EE24371244
:101AD4001BECF50AEC850AF0A4FCAAF0850AF0EDEB
:101AE400A42AFDE82CF8E43DF97A257B0012167E41
:101AF400EA850882850983F05407F87401B8000266
:101B04008004C333D8FCC0E0E0131313541FF8EE71
:101B140028F8EF3400F9E8245DF582E93400F58310
:101B2400D0E0F8E0586008850882850983801DEEBE
:101B34002436121BECF5F0EA84A8F0EE28F8EF3412
:101B440000F9E82438F582E93400F583E0F97F04EC
:101B540002187874F51217CCEAFEEBFFEE24341267
:101B64001BECC0E0EE2435F582EF3400F583D0E0C1
:101B7400F08E828F83A3A3A3A3A3E0FAA3E0FB8E3A
:101B8400828F83A3A3A3A3A3A3A3E0FCA3E0FDEC00
:101B9400C39AF50AED9BF50BEE2480F508EF3400AB
:101BA400F509850882F583E06401702BEE2481F544
:101BB40082EF3400F58312198A121BF5740212178E
:101BC4001FE960137CE07D07EEFAEFFB120AB08593
:101BD4000882850983E4F0AC0AAD0BEEFAEFFB1240
:101BE4001AB412219A021B52F582EF3400F583E0F5
:101BF40022C082C083851882851983E0F8A3E0F9A6
:101C0400C3EA9CEB9D500BC3EC98ED99401279010B
:101C14008010C3EA98EB9940F5C3EC98ED9950EE27
:101C24007900D083D0822200851B87851CC622C000
:101C3400E074EF1218B8759B00906182E0A2E64050
:101C440003021CF4E591A2E64003021CF47591BF63
:101C5400900499E064057008120C8A120C968003B3
:101C6400120C90751B00120D08E990049AF079008B
:101C7400120CEA120A1A7A017B00900498E0F91215
:101C84000FF0907803E064426003021D3D90081554
:101C9400E014F06003021D3DC2AF121CA100781EC7
:101CA400D0E0F618D0E0F6E59F5407F9700590905F
:101CB400D880039090D478081215D9E9C4C0E0788C
:101CC4001DE65508F50808E65509F509740B78086A
:101CD4001216E7D0E02508F8906270E0A2E740F819
:101CE400E8C333906272F0906270E0D2E0F0804911
:101CF400E0A2E55024E591A2E5501E7591DF900421
:101D040099E0640D70139004BBE004F06428700241
:101D1400E4F07A00E0F9120D98906181E0A2E350BA
:101D240009E5E9A2E3500375E9F7A3E0A2E7500946
:101D3400E591A2E7500375917F7F04021917C0E073
:101D4400C0D0C082C083906183E0A2E05009E5BFA7
:101D5400A2E0500375BFFEE0A2E15009E5BFA2E195
:101D6400500375BFFDE0A2E25009E5BFA2E25003B3
:101D740075BFFBE0A2E35009E5BFA2E3500375BFC2
:101D8400F7E0A2E45009E5BFA2E4500375BFEFE019
:101D9400A2E55009E5BFA2E5500375BFDFE0A2E666
:101DA4005009E5BFA2E6500375BFBFD083D082D0EF
:101DB400D0D0E032C0E074F21218B8E5A7A2E45023
:101DC4000FE5A1A2E4500953A7EF75A1EF121E0C71
:101DD400E5A7A2E5500CE5A1A2E5500653A7DF75DF
:101DE400A1DFE5A7A2E15009E5A1A2E1500375A195
:101DF400FDE5A7A2E2500CE5A1A2E2500653A7FB21
:101E040075A1FB7F0102191774F81217CC751B0119
:101E1400900499E0640670077A007B00120C72A2A9
:101E2400AFE433FED2AF90049FE0640170187A20CF
:101E34007B00900498E0F91210747A207B009004DF
:101E440098E0F9120FF6906182E0D2E6F09008145F
:101E5400E0602185C61C801690049EE06401700831
:101E6400E5C654F84405F5C653BEFC121C2C740197
:101E7400651B60E4EEA2E092AF7F0102187874E97A
:101E84001217CC74FA121709EAFEEBFF8C088D09BD
:101E9400900499E024F7C3940550069090C4021F5F
:101EA400A9120C128A0A8B0BEA450B7003021FA6B7
:101EB400120CA88A0C8B0D120CA8EA650C7003EBAB
:101EC400650D60ECEEFCEFFD851882851983AA820E
:101ED400AB83120CAE850A82850B83A3A3780C1204
:101EE40015D99090E0780C1215A085188285198375
:101EF40078141215D99090E078141215A0780C7902
:101F0400141213C5501F780C79141215659090643F
:101F1400780C1213E54047850C10850D11850E12BF
:101F2400850F1380418514108515118516128517A8
:101F3400137810790C12156590906478101213E5DB
:101F4400501C75100075110075120075130178107E
:101F540079141215657810790C12152C800890905C
:101F6400C478101215D97409781012150D90908444
:101F7400780C1215D97810790C121484900499E015
:101F84006408600AE064066005E06405701C9090D3
:101F94004478101213E55012909078781012153F7F
:101FA40080089090E478101215D9850882850983F9
:101FB40078101215E8740612171F7F10021878742F
:101FC400F71217CC120CC0900812E0640170109044
:101FD4006245E4F0A3F053F4F343FE0C5390F31280
:101FE4000C60E5C654804449F5C6E59E547F6449B7
:101FF40070F8906185740FF0900810E0F47002A3FB
:10200400E0602C750801750900900810E07808124A
:1020140016F6E508F4FAA3E0600814600A14600CEC
:10202400800DEA52808008EA52908003EA52A07937
:10203400007F0202187874F71217CCE9FE90222C64
:10204400E493F46008E493F91209FC800953C68010
:10205400E59E547F70FA120C66900812E0640170D9
:1020640003120A32900810E0F47002A3E0602A75AB
:102074000801750900900810E078081216F6AA08FD
:10208400A3E0600814600A14600C800DEA428080AA
:1020940008EA42908003EA42A0120C128A088B09D3
:1020A400A808A909E8496017E5E170FCE82414F5DB
:1020B40082E93400F583E0F874FF68600288E17413
:1020C400016E700A7A01900498E0F912104402201B
:1020D4003574F11217CC8A088B098C0A8D0B740F96
:1020E400121754780C1215D99090E078081215A0A4
:1020F4009090E0780C1215A07808790C1213C55052
:10210400157808790C12156590906478081213E517
:10211400401579018013780C790812156590906444
:10212400780C1213E540EB79007F0802187874EDFF
:102134001217CC8A088B098C0A8D0B74131217544E
:10214400780C1215D99090E078081215A09090E0C0
:10215400780C1215A0780C79081213C54011780870
:10216400790C121565AA08AB09AC0AAD0B8022756F
:1021740010007511007512007513017810790C1296
:1021840015657810790812152CAA10AB11AC12AD94
:10219400137F0C021878C082C083E9906000F0D0ED
:1021A40083D08222C0E074F21218B8A2AFE433FEE6
:1021B400D2AFE589A2E15003121230758900C2C57D
:1021C400751A00EEA2E092AF7F01021917C0E07405
:1021D400F21218B8A2AFE433FED2AFE589A2E150FF
:1021E40003121230758900C2EB80D5C0E074F2127C
:1021F40018B8A2AFE433FED2AFE58BA2E0500312CD
:102204001230758B00C2E880B7C0E0C0D0E8C0E0EF
:10221400E5A8D2AFC2C7751A00A2E792AFD0E0F822
:10222400D0D0D0E032020135FFFFFFFFFFFFFFFFF8
:10223400C082C083E9900FFFF0D083D082020135C1
:1022440074F6121760E9900364F07CA47D037AFFAE
:102254007BFF1207327A008A087509007402780835
:102264001216F674652508F874033509122293A32F
:10227400F00AEAC3940340DF79051206C0900364B0
:10228400E0F91205E87A4A7B07120900023814F9CA
:102294008882898374FF1222A0E4F022F0A312360C
:1022A400A1A32274F41217608A088B09EB5480608E
:1022B40030900364E0F9120FD88A0A8B0BAE0AAF90
:1022C4000BEE4F60138E828F83E064B070031206AE
:1022D400D2EEFAEFFB120FC6AA08E5096480FB8070
:1022E400047A007B0002247074F212176074FC12EA
:1022F4001709EAFEEBFF74121217541236EAEE4F76
:10230400700302238F7402121754EEF0A3EF122607
:10231400CBECF0A3ED1226CBAA82AB831205E2E943
:10232400F50A706AE508450960648E828F83123667
:10233400CBEE4F60567A067B0012102C8A0C8B0D64
:10234400A80CA90DE8497005750A13804188828993
:1023540083E41222A0EEF0A3EF1236FBE508F0A30B
:10236400E509F090037212246A9003727005123129
:1023740088801B1231768003EAFCEBFD8C828D830E
:1023840012246A70F38C828D8380E3750A02A90A91
:10239400740412171F0238DE74F2121760890AE9F6
:1023A40075F045A4FEAFF0900371E4F0900367125A
:1023B400246A6028121032790089087509007402B1
:1023C40078081216F674672508F58274033509F542
:1023D40083E4F0A3F009E9C3940340DDEEFAEFFBD4
:1023E40012102C8A088B09EA45096075EEFCEFFD92
:1023F4007900120FAE7D008D0C750D007402780CFF
:102404001216F67467250CF87403350DF9E50AF510
:10241400F0EDA475F017A4FAABF0E5082AFAE50983
:102424003BFB88828983EAF0A3EBF07E00801BEEFD
:1024340075F017A4FAABF088828983E02AFCA3E044
:102444003B8C82F583E4F0A3F00EEEC3950A40DFE3
:102454000DEDC3940340A0E50A900371F079008068
:102464000279130238DE122E1AEA4B227F04021874
:102474003274F41217607900EAA2E0501B75082048
:1024840075099078081219737C047D007A017B1019
:102494001206BA740212171F80D2C082C08390033E
:1024A400721236E549601C88828983A3A3E06A70AE
:1024B40003A3E06B8882898370E7A3A3A3A3122EEE
:1024C4001680047A007B0002223D74EE12176074B9
:1024D400FC121709EAFEEBFF851882851983E4F0E4
:1024E400A3F0EE2402123168EE24051236A8EE247D
:1024F40004F50EEF122A75E024FE603924FC6046D0
:1025040024FE605224FE605E24FE70030225E12452
:10251400FE700302264524FE700302265424FE7036
:102524000302266324FC700302267224FE70030255
:1025340026810226BE90038B7417F0A3E41226D3DF
:102544001202580226BE851882851983AC82AD8397
:102554001206D802268E851882851983AC82AD8333
:102564001206DE02268E850C08850D0974021217E8
:1025740054AC82AD83850882850983122E16120617
:10258400068A0C8B0DAC0CAD0DEC4D603BE4F50CE8
:10259400F50D780C121973750C8B750D03780C12EC
:1025A4001973750C8C750D03780C12197374081259
:1025B400175412198A1239E812171FE9F50C700B17
:1025C400122E0C120270800F750C01850882850989
:1025D400831226C1123188850C08022691740212D6
:1025E4001754AC82AD83850C82850D83122BC86091
:1025F4003C850C82850D83A3A312198A75108B75F3
:102604001103781012197375108C75110378101258
:102614001973740812175412198A1239E812171F01
:10262400E9F509700B122E0C120276800F75090160
:10263400850C82850D831226C11231888509088094
:102644004C851882851983AC82AD831206E4803AE6
:10265400851882851983AC82AD831206EA802B85A6
:102664001882851983AC82AD831206F0801C85180C
:1026740082851983AC82AD831206F6800D8518829B
:10268400851983AC82AD831206FCE9F508E5086080
:10269400298E828F83A3E06414601F850E82850FC8
:1026A40083E090038B1226CB1239C090038C123135
:1026B40088E508A31226D31202520230771239C4D5
:1026C40085188285198322F085188285198322F062
:1026D4007C8B7D03850A82850B83122E1A2274EE6D
:1026E40012176074FC1217098A0A8B0B8C0E8D0F5B
:1026F400EA2405F508EB3400F5097C157D00790022
:102704007A8B7B03120FAEE5082402F50CE509125F
:1027140036AB8518828519838582108583117810DC
:10272400121973850882850983A3A3A3A3122BBF5F
:10273400121973E5082405F510E5093400F511783C
:1027440010121973850C82850D83122F2D12060029
:10275400740612171F8A108B11AE10AF11E50A24EC
:1027640002F50AE50B12316BEE4F70030228A080CC
:10277400177402121754122E1688828983EAF0A362
:10278400EBF090038BE004F090038BE0C3940540DE
:10279400030228A0E4F510F51178101219737510CE
:1027A4007475110378101219737510757511037807
:1027B40010121973740612175412198A7910EEFC48
:1027C400EFFD1239EA12171FE9705E850882850948
:1027D40083A3A3A3A3A3A3A3E0F8900374E0687066
:1027E40048122BBF1219737C757D03E5082408FA7F
:1027F400E5093400FB120FA8740212171FE96029BF
:102804008E828F83A3A3A3A3122E1690038BE0F5CD
:1028140010740278101216F6748C2510F582740365
:102824003511F583EAF0A3EBF07402121754858294
:102834001085831178101219737402121754121927
:102844008A850C82850D83122E3C12171F8A108BE9
:1028540011AE10AF1190038BE0F5107511007402E6
:1028640078101216F6748B2510F874033511F98854
:10287400828983A312246A700302276CE824030864
:102884000808E93400F9EE4F60030227758882894D
:102894008374FFF0A3F090038BE004F090038BE0CB
:1028A400600A122E0C1202647900800B850882855E
:1028B400098312317F790A02307774EA121760743F
:1028C400FE1217098C128D13EA2405F50CEB12394C
:1028D400D21236CF750800750900EA2402F510EB10
:1028E4003400F51185188285198385820A85830B46
:1028F400780A121973850C82850D83A3A3A3A312EE
:102904002A8B121973E50C2405F50AE50D12316BB7
:10291400780A121973850C82850D83122A8F120688
:1029240000740612171F8A0A8B0BEA450B70030208
:102934002A40EA2404F50EEB122A751236CF8A8255
:102944008B83A3A3A3E0F9851082851183122E2023
:102954006003022A40E4F514F5157814121973750E
:102964001474751503781412197375147575150399
:102974007814121973740612175412198A7913AC45
:102984000AAD0B8510828511831239F012171FE9E5
:10299400F5096003022A40900374E0F8E508700921
:1029A400E0240290038CF0801790038CE0FCE82470
:1029B40002FAE43400FBEA6C7001EB6003022A447F
:1029C400850882AA82122BB69414122BAE506D8500
:1029D4000E82850F83E0C0E0122DE6D0E0F00508FA
:1029E400850E82850F83A3E0C0E085080A748D25D7
:1029F4000AF58274033400F583D0E0F005089003EF
:102A040074122A8B1219737C757D0385080A748DE0
:102A1400250A122A7F12171F900374E02508F5086F
:102A240074FF6E700374FF6F6012EE24010EEF34B6
:102A340000FFE508C3941450030228E8E508601376
:102A4400122E2A851082851183122E1612026A799B
:102A5400008014E509700375090A851282851383C1
:102A6400EEF0A3EFF0A909740212171F7F0E0218EB
:102A7400323400F50F850E82F58322FA7403340094
:102A8400FB120F9674022212370A22A3A3122A956C
:102A940022123176FDEEFAEFFB2274EE1217607407
:102AA400FE1217098C0E8D0FEA2405F50CEB123675
:102AB400AB750B0090038BE4F0F50AEA2402F508E9
:102AC400EB3400F509804490038BE0FA900374E042
:102AD400F8122BB69417122BAE400D90038BE0F82E
:102AE4007416C398900374F0122BBF1219737C757B
:102AF4007D03748C2AFA7403122A8212171F90031E
:102B040074E0F890038BE028F0050AE50C2416F530
:102B140082E50D3400F583E0F8E50AC3985074901B
:102B2400038BE0C39416506BE50AC333F8E433F91E
:102B3400E50C28FEE50D39FF851882851983AC82E2
:102B4400AD838E828F83122BC87008750B011231EE
:102B54007B8050E4F510F511781012197375107418
:102B640075110378101219737510757511037810A7
:102B7400121973740612175412198A791685088269
:102B84008509831239F012171FE9F50B7003022A25
:102B9400CB80BB7C8B7D03850882850983122E162E
:102BA40012027CA90B7402023079E99400C365D047
:102BB4003322EA28F8E43400F9E822E0F51075112C
:102BC4000078102212306E8A108B11AC10AD11EC0B
:102BD4004D2274EA12176074FC1217098A0C8B0DCB
:102BE4008C128D13EA2405F50AEB12316B7508007B
:102BF400750900E50A2402F510E50B3400F511749B
:102C04000212175485820E85830F780E121973856C
:102C14000A82850B83A3A3A3A31236B0121973E50A
:102C24000A2405F50EE50B3400F50F780E1219731E
:102C3400851082851183123171122E1012060074D0
:102C44000612171F8A0E8B0FAE0EAF0FE50C24026F
:102C5400F50EE50D3400F50F80388882898374FF02
:102C6400F00508122DF274FFF00508900374E0F5E6
:102C74000C750D00780C1219737C757D0385080C96
:102C8400748D250C122A7F12171F900374E02508F7
:102C9400F508EE4F60278E828F83A3A3A3E0F98506
:102CA4000E82850F83122E20EE24041236A8E960CA
:102CB40027850C82850D83122E02123188E5087057
:102CC40003022DCC122E2A850E82850F83122E1616
:102CD4001202827900022DE1E4F514F5157814123C
:102CE40019737514747515037814121973751475A2
:102CF4007515037814121973740812175412198A6B
:102D04007911EEFCEFFD850E82850F831239F012E6
:102D1400171FE9F509709A850882AA82EA9003745C
:102D24007009E0240490038CF08025E0F890038C73
:102D3400E0F514E82404FCE43400FDEC65147001AF
:102D4400ED7081122BB69412122BAE4003022CC8E4
:102D5400850C82850D83E0C0E0122DE6D0E0F005FD
:102D640008850C82850D83A3E0C0E0122DF2D0E02B
:102D7400122E4585820C85830D780C121973740408
:102D840012175412198A851082851183122E3C124F
:102D9400171F8A0C8B0DAE0CAF0D85080C748D2596
:102DA4000CF874033400F9EE4F7003022C5E85189E
:102DB40082851983E088828983122E45A3E0C0E0CE
:102DC400122DF2D0E0022C6CE509700375090A8516
:102DD4000A82850B83122E02123188A90974040217
:102DE4002A6D748D2AF58274033400F583228508D4
:102DF4000C748D250CF58274033400F5832212398A
:102E0400C4851282851383227C8B7D03850A828587
:102E14000B83122E1A22E0FAA3E0FB22122E1A12BE
:102E240005EEE9F5092290038CE0F5F0E5088490BD
:102E3400038BF07C8B7D0322122A9512060C7404FA
:102E440022F005088518828519832274EC12176014
:102E540074FE1217098A088B098C0E8D0FEA24055B
:102E6400FEEB3400FF123058EE24181236A8EA455F
:102E74000B7003022EFB1230415029122F208A10AE
:102E84008B11EA4511606B7912AC0AAD0B8508828F
:102E9400850983122E1685108285118312175EE927
:102EA400F50A7058E4F50AF50B780A1219738E8244
:102EB4008F83A3A3E0F50A780A121973EE24031290
:102EC4003168780A1219738E828F83122F2D12079C
:102ED40020740612171FE9F50A7021850C82850DEE
:102EE40083E0701F850882850983122E16120288DA
:102EF4008011750A0E8009750A018004E50A6003D1
:102F040012317B850C82850D83E060047900800298
:102F1400A90A740212171F7F0C02183285188285C1
:102F24001983122E1A12070E22123176FD85088299
:102F3400850983122E1A2274EE12176074FE12177A
:102F4400098A088B098C0C8D0DEA2405FEEB3400EC
:102F5400FF750E00123058EA450B700302301F1241
:102F64003041502C122F208A0E8B0FEA450F604AF5
:102F74007912AC0AAD0B850882850983122E168559
:102F84000E82850F8312175EE9F50E60030230226C
:102F9400850882850983123282AA0AFB12303370B3
:102FA400147AFF7BFF123033606C88828983E50AD0
:102FB400F0A3E50BF0750A008007750E0E805F051F
:102FC4000A900371E0FAE50AC39A504AE50A75F0DB
:102FD40017A4FAABF088828983A3A3E02AFAA3E0BA
:102FE4003BFB8A828B83123171EC4D70D2750A17C8
:102FF400750B00780A121973EEFCEFFD120F96742C
:103004000212171FEEFCEFFD850882850983122E3C
:103014001612028E8014750E098003750E01123982
:10302400BC850C82850D83123188A90E022BA9124E
:1030340007028A108B11A810A911E84922E5082477
:1030440002F508E5093400F5098A828B83A3A3A35A
:10305400E0A2E522851882851983AC82AD838E8235
:103064008F8312306E8A0A8B0B22E0FAA3E0FB12E4
:10307400060622740412171F7F0A02183274EC1217
:1030840017608C108D11EA2405F50CEB1236AB7524
:103094000F00EA2402F50AEB12316B850A82F583EC
:1030A400122E16123A77700302315D750E0080718C
:1030B400850C82850D83E06401704F8E828F83A31B
:1030C400A312198A8E828F83A3A3A3A3E0F512759A
:1030D40013007812121973EE2405F512EF3400F57B
:1030E400137812121973122E101207207406121775
:1030F4001FE9F50F6014850C82850D83E4F0123905
:10310400BC8510828511831231887C177D0079007B
:10311400EEFAEFFB120FAE8E828F83E4F0A3F0057C
:103124000E900371E0F8E50EC398501EE50E75F09D
:1031340017A4F8A9F0850882850983A3A31239DCB2
:10314400123171EC4D60030230B485088285098325
:1031540074FFF0A3F0E50F7006122E10120294A96A
:103164000F022F1BF50AEF3400F50B22A312317660
:10317400FD22E0FCA3E0228E828F831239C4850EE7
:1031840082850F83E8F0A3E9F02274F61217607CBD
:10319400008C08750900740278081216F61231C002
:1031A4006A7003A3E06B7006E8FAE9FB800B0CEC91
:1031B400C3940340DC7A007B00023814746525084C
:1031C400F874033509F988828983E02274F71217A9
:1031D400607F00EF75F003A4F8A9F0EC28F8ED394E
:1031E400F988828983E06A7003A3E06B7006E8FAC9
:1031F400E9FB800B0FEFC3940440D87A007B007F77
:103204000102183274F61217601237B970067A0088
:103214007B008007A3A3A3A3122E1602381474F212
:10322400121760E9FE740E121754123282741012CF
:1032340017541236EA8C828D83E06402703BA31229
:1032440039C088828983E0F50CA3E0F9A80C7402E4
:103254006870037429697021750C02750D00780C6F
:103264001219737808121973780A121973EEF91285
:103274000744740612171F800279010238DEE0F554
:103284000AA3E0F50B2274E812176074FB12170905
:10329400E9851882851983F08A168B178C0E8D0F99
:1032A400741F1217541236EA742112175412328200
:1032B40074231217541236CF7510008C828D83A399
:1032C400A3A3E0A2E4502A741D121754122F268AD5
:1032D400828B83E58245837003023396790AAC0EB0
:1032E400AD0FAA16AB1712175EE9F510600302338F
:1032F40099850E82850F83E06402600302364FA332
:103304001239C0850882850983A3858212858313B7
:10331400E50E2406F50CE50F1236AB88828983E0AE
:10332400FAA3E0F9EA2400F514E439F51578141247
:1033340019FD0100002801285E33070002283534F6
:103344000328A53300295F350129873502292E3545
:1033540003295F350429F0354F36EE4F703E850C56
:1033640082850D831236E5FAE9FB8A828B83E08538
:103374000A82850B831237011219738A828B83A305
:10338400123176FDAA08AB09120F96740212171FA8
:10339400800375100EA91074050239CA75100B80CC
:1033A400F4EE4F70F7850A82850B837401F01236B0
:1033B400D5850882850983F07C007D00850E828591
:1033C4000F83A3A3A3A3E02401FAA3E03400FB1218
:1033D4000606EA4B60418A828B83E02402F8850A60
:1033E40082850B83E028F0EA2404F8EB3400F988A2
:1033F400828983E085128285138312371312370181
:103404001219738A828B83123170E5082403FAE55A
:10341400093400FB02338C850A82850B83E0240483
:10342400F07C047D007900AA12AB13120FAE0233B4
:1034340099EE4F60030233A01236D5FEA3E0FF8558
:103444000A82850B837404F0EE850882850983F073
:10345400EF851282851383F07403121754AC82AD86
:1034640083EEFAEFFB1237A7700302350B8A828BC7
:1034740083A3A31236CB740112175485820E85835D
:103484000F780E121973740512175412198A7CFFDF
:103494007DFF12060C740412171F8B0FEA450F7080
:1034A40033850C82850D831236B0121973850C8214
:1034B400850D83A312198A7C027D007AF87B901211
:1034C4000384740412171FE9700A740112175474E8
:1034D400FFF0A3F08E828F83E064027034750C02D7
:1034E400750D00780C1219738E828F83123170E57A
:1034F400082404FAE509122A8212171F850A828514
:103504000B83E0240280097401121754EEF0A3EF38
:10351400F074011217541236C1F07401121754A337
:103524001236B9A3A3A3F0023399EE4F600302331A
:10353400A0850C82850D83123171AA16AB17120770
:1035440038850A82850B837402F0EA85088285092E
:1035540083F0851282851383EB80CBEE4F600302E8
:1035640033A01236D5F8A3E0F9850A82850B83745B
:1035740002F0E8850882850983F0E98512828513C3
:103584008380A3850C82850D83122E16120F90EA78
:10359400FC8C82A882C39EE49F404BE86E7001EFCE
:1035A40070047C00801F851882851983E0FAEE2A56
:1035B400FAEF3400FBC3EA98EB94005003E0800474
:1035C400EECCC39CFCEC850A82850B83F08C0A75D7
:1035D4000B00780A121973850C82850D83E02EFC8A
:1035E400A3E03F023387751007023399EE4F60035F
:1035F4000233A0850C82850D831239C0850A828529
:103604000B837407F0888289831236B91236A1E0DD
:10361400851282851383F0E82402FAE93400FB8AD8
:10362400828B831236B91236F21236C1A31236FBDC
:103634001236C5F0E82405F8E93400F98882898354
:103644001236C5A3123713A3023527741D1217545B
:103654001237B270030233961239C0880C890DE810
:10366400450D70030233968E108F11781012197362
:10367400780A12197378081219737406121754E031
:10368400F9AC0EAD0FAA16AB17850C82850D83120B
:10369400175E740612171FE9F510023399F0888239
:1036A4008983A322F50CEF3400F50D22E0F50E75A5
:1036B4000F00780E22E08508828509832212371ACA
:1036C4002212371AA3A322A3A3A3A3E0FEA3E0FF1D
:1036D40022850C82850D83E0F8A3E0F5838882E0DF
:1036E400221239C4E822E0F508A3E0F50922A3A3D5
:1036F400F08A828B83A3221222A2A3A322F08A82BD
:103704008B8312370A22E0F50A750B00780A22121D
:1037140036A112371A22E0850882850983A3A322E1
:1037240074EE12176074FE1217098A0A8B0BECFAF6
:10373400EDFB7414121754E0F510A3E0F5117416A0
:10374400121754E0FE7418121754E0F50EA3E0F5B6
:103754000F851882851983AC82AD831237A7603E2A
:103764008518828519831237B2602FA3A31236EA13
:10377400E50845096024780E12197378101219733C
:10378400EEF9AC0CAD0DAA0AAB0B85088285098352
:1037940012175E740412171F8006790E80027901D5
:1037A400022BA91206068A0C8B0DEA450D22122E55
:1037B4001A1237B9221206CC8A828B83E58245839A
:1037C4002274F612176074FE121709740C1217543F
:1037D4001236E5851882851983F07401121754E9AD
:1037E400F0E4F508F50978081219737508027808E9
:1037F4001219737404121754858208858309780892
:10380400121973120720740612171F740212171F5D
:103814007F0202183274F7121760EAFEEBFF890880
:103824007CA47D03120738EA5402600BA908EEFA5F
:10383400EFFB1205FA8002790102320374F61217C3
:103844006074FF6A700374FF6B701B7B00EB75F090
:1038540003A4F8A9F0EC28F8ED391222930BEBC37A
:103864009404501480E71207088A088B09A808A951
:1038740009E8496003122294809674F612176012C4
:1038840007088A828B83E58245836006A3A3E0FA56
:1038940080027A007B0002381474F21217608A08DE
:1038A4008B09ECFEEDFF740E121754E0F50A123882
:1038B400E3701CEEFCEFFD7AFF7BFF1238E370042B
:1038C4007911801688828983E508F0A3E509F088D8
:1038D400828983A3A3E50AF079007F0602183212D5
:1038E40007088A0C8B0DA80CA90DE8492274EE1266
:1038F4001760EAFEEBFF8C088D09890C741212170D
:10390400541239C0741412175412317174161217E8
:1039140054122E16750D00EC4D60030239B4740276
:10392400650C60030239AF88828983123176F9EC21
:103934002400F50EE439F50FEAF4F8EBF4F9EC5849
:10394400F8E50F59F9E849705DE5082406F8E5093A
:103954003400F9880A890B8882F583122A911207A8
:10396400388A108B11E50E65107004E50F6511603F
:1039740042780E121973850A82850B83122A9112DA
:10398400073E740212171FE9F50D7027780E1219FD
:1039940073850882850983A3A3122A8F12075074A2
:1039A4000212171F800D750D808008750D0D8003A0
:1039B400750D0BA90D02307C8E828F831239C422BF
:1039C400E0F8A3E0F92212171F7F10021832340026
:1039D400F50D850C82F58322E028FEA3E039FF8EE5
:1039E400828F83227916850A82850B83122E1A12FE
:1039F400071A74082274F2121760EAFEEBFF890BAF
:103A04007401650B600E7402650B70647901120910
:103A14001EE9705CEEFAEFFB123A776048750A0013
:103A2400800B7C177D007900120FAE050A9003719C
:103A3400E0F8E50AC3985022E50A75F017A4F8A93E
:103A4400F0850882850983A3A3E028FAA3E039FB63
:103A54008A828B831236E54970C88508828509837A
:103A640074FFF0A3F07CA47D03EEFAEFFB1207329F
:103A74000238DE1207028A088B09EA45092274F229
:103A84001217608A088B09ECFEEDFF740E121754AE
:103A9400123282900FFFE0F4603D7A097B00120F2E
:103AA400C0EA4B60328A828B8374B1F0A3E412368D
:103AB400F4A31236F2A3E508F0A3E509123ADEEE08
:103AC400F0A3EF123ADEA3A3E50AF0A3E50BF0900E
:103AD4000FFFE0F9120FCC0238DEF08A828B83A349
:103AE400A3A3A3A322C082C0839061907404F0A313
:103AF4007448F0A3E4F09061807440F09061BC7469
:103B040007F09061877469F09061B67416F07900DB
:103B1400120A207902120A2690222CE493F46006F9
:103B2400E493F91209FC7905120D7A023EF6C0827B
:103B3400C083E9540FF9906185E0696012E5C654C9
:103B4400804449F5C6E59E547F644970F8E9F05312
:103B5400C680E59E547F70FA023EF674F712176031
:103B6400E5A8FE53A87E120A08C2BA539AFEC28977
:103B7400759B00C2C2120A0E75A91175B905120A05
:103B840014D2BA439A0174805E42A8024DFEC082E8
:103B9400C083906181E4F0A3F0A3F0023EF675E9DE
:103BA4000075910075BF00020135C082C083906129
:103BB40081E4F0A374C0F0A3E480DFC082C0837406
:103BC400F812170990049B124571E8497003023CEE
:103BD4007690049BE0544060237908851882851907
:103BE40083AA82AB83120B28851882851983AA8243
:103BF400AB831207BC90049BE054BFF0E054806098
:103C040010790C7A367B08120B2890049BE0547FC1
:103C1400F0E0A2E050087900123C7E54FEF0E0543B
:103C24000260087901123C7E54FDF0E054046008FF
:103C34007900123C8954FBF0E054086008790112C1
:103C44003C8954F7F0E0541060087902123C89541E
:103C5400EFF0E0542060087903123C8954DFF0A3AC
:103C6400E05401600D120A321207CE90049CE05415
:103C7400FEF0740812171F023EF6120A201207C241
:103C840090049BE022120A261207C890049BE022AB
:103C9400C082C083E9600514602A804F90619A74E1
:103CA40033F0A37455F09061A0743AF0900812E0D8
:103CB40064017009C29190049D7467802D90049DE5
:103CC4007461802690619A743FF0A3745AF09061F5
:103CD400A0747FF0900812E064017009D2919004FE
:103CE4009D7471800590049D746AF0023EF6C08252
:103CF400C083E9600B14600D14600F146011802000
:103D040090223080159022318010902232800B90C6
:103D14000812E0640160F3902233E493906186F02A
:103D2400023EF674EE12176074F4121709851882B5
:103D3400851983AC82AD8375839075827474041283
:103D4400161C90223093F46003023EB9907808E088
:103D5400C394025003023E997404121754AC82AD0A
:103D640083758390758203740812161CF97AFF7B9D
:103D7400FF7FFF7E008982858210801874086E7030
:103D840003023E4E74096E7003023E4E740A6E7056
:103D940003023E4EE510C333FCE433FD74041217F2
:103DA40054E5822CF582E5833DF583E0F50EA3E02E
:103DB400F50F8E08750900740278081216F6744817
:103DC4002508FC74783509FD8C828D8378081215DA
:103DD400D9740878081214F485080C85090D8C82AE
:103DE4008D8378081215D9741878081214F4E50C28
:103DF4004508F508E50DF509C3E50E9508E50F95A9
:103E0400098C828D8378081215D98C828D83780869
:103E14001215D97418780840141214F4E50C4508E6
:103E2400FCAD0DE50EC39CFCE50F9D800F1214F450
:103E3400E50C4508C3950EFCE50D950FFDC3EC9A02
:103E4400ED9B5006ECFAEDFBEEFF0EEEC39413501F
:103E540003023D8074FF6A700374FF6B602D8F084A
:103E6400740278081216F67448124A7F7478350979
:103E7400F58378081215D9851882851983E582257A
:103E840010F582E5831249BDE508F009E9C39404FD
:103E94005003023D71750801750900780812197301
:103EA4007402121754AC82AD837A8C7B081212060A
:103EB400740212171F740C12171F7F0A021832C0E3
:103EC40082C08390618674D5F09061AE7468F0A36B
:103ED400746AF090624574FBF0A304F053F4FD435C
:103EE400FE029008127401F07900120A2080031275
:103EF4004058D083D0820201357F04021832124523
:103F0400C9940622E0C4333354C022C082C08390D3
:103F140007FA7425F09007F87401F0A3E4F07A012D
:103F2400FB120CF69007E6E02416123F5C7450F086
:103F3400A3740AF09007F7E0640170169007F6E0A6
:103F440070107901120D56120D26120D50790012BF
:103F54000D62023EF6E02414F8A3E0123F6322341B
:103F640000F9888289832274F612176074FA121792
:103F7400099007EFE064017008120A389007EFE433
:103F8400F075E1F19007E6E02415123F5C7401F04E
:103F94009007F1E064017053909026C082851882E6
:103FA400851983AC82AD83758390D0827406121612
:103FB4001C75D90D9007E8123F084403F5D9780021
:103FC400880874E9124A7F7407123F0240F27800AD
:103FD4008808851882851983E582124A7FE5831251
:103FE4003F0240EC75E195790180027900120CFCE6
:103FF40090102112405E74CAF0A3740BF0A3124017
:104004005E12405E1241BD74D0F0A3740B1241D213
:104014009007E8E0F97AE97B07120CD89007FA12C6
:1040240040587901120D029090381215F7120D1AAA
:104034009090681215F7120CE47900120D6E900737
:10404400E6123F597416F09004997405F00412179F
:104054001F02465AE0F912219A2274C4F0A3740B89
:10406400F0A32274F41217608908A8081241A190E1
:1040740007FFE0F97A007B08120CD890080DE07075
:104084001A7900120D389007D9E0700B79007ADAAA
:104094007B07120CDE8009790180F37901120D3857
:1040A40075E1F175D9239007FF123F084405F5D94E
:1040B4007800880A7400250AF5827408123F0240C9
:1040C400F175D90075D90075D90075D90075D90075
:1040D40075D9007A0012522D24221244EC40F67A4B
:1040E4000012522D2426F582E91246620AEAC3948C
:1040F4000340EEEE242B12465F7A0012522D242C3C
:104104001244F240F67A0012522D242E1244F24048
:10411400F67A0012522D24301244F240F67A00123C
:10412400522D24321244F240F67A008A0AEE250A0D
:10413400F8EF124A6D1244FF940540EFEE24371253
:104144004CBF541FF8EE242A124CBFC43354E04829
:10415400F5D975E195901021749AF0A3740BF0A32E
:1041640074A0F0A3740B1241B474A6F0A3740B12E0
:1041740041D290080C1240589090381215F7120D45
:104184001A9090681215F7120CE490600DE4F0791F
:1041940001120D6E9004997406F0023EFDE875F06C
:1041A40006A4C8AAF02AF974C728FE740439FF22A9
:1041B400F0A31241BD1241BD221241C1227494F0F8
:1041C400A3740BF0A37494F0A3740BF0A322124114
:1041D400D622F090102F1241E2A31241E2221241A2
:1041E400C17494F0A3740BF02274EC12176090075E
:1041F400FD124D7578101215D990080EE0FAF87575
:10420400F006A4C8ACF02CF974F528F582740439CE
:10421400F583E0FEA3E0FFEEC333FEEF33FF8E0C25
:10422400F50D750E00750F008510088511098512AE
:104234000A85130B909088780812153F7808121994
:104244006F85100885110985120A85130B78087982
:104254000C12152C7810790C121484E4F50EF50F59
:104264007808790C1215658A0C750D007403780CA6
:104274001216F67808790C12152C9090E078081232
:1042840015A0AA08AB09AC0AAD0B122132740412B2
:10429400171F8A088B09A808A909C3EE98EF99503B
:1042A40006E82EF8E93FF9E890600EF0E9A3F0EE95
:1042B400A3F0EFA3F090600D74C1F07F0C021832EC
:1042C400C082C0839007E61242E49007FA023EF3EC
:1042D400C082C0839007FD1242E490080C023EF3B2
:1042E400124D79A3A3A3A3E4F0A3F0220201357431
:1042F400F212176012443EF50AEF1247B5600478D3
:104304000480027800E8240EF8EAC39850030243BC
:104314009C75080C900816E4F0EE2477124CBF90BC
:104324000817F07902EE2478FCEF3400FD7A187B4C
:1043340008120B167902EE247A1243A1247C12434C
:10434400A1247EFCEF3400FD120B16EE24751244FA
:1043540054850A82850B83E0601675081675090872
:1043640078081219737C0C1248C912171F750810AB
:1043740074012508F5D975D90378008009880A7471
:1043840016250A124433E8C3950840F175E195797E
:1043940004120D20790180027900024A68FCEF348E
:1043A40000FD120B167902EE2274F2121760124409
:1043B4003EF508EF3400F509850882F583E06004D2
:1043C400780480027800E8240AF8EAC39840557516
:1043D4000A089008167401F079057CE07D077A17C5
:1043E4007B08120B16EE2481124454850882850939
:1043F40083E0601675081675090878081219737C2D
:10440400081248C912171F750A0C1246BC80031201
:10441400442DE8C3950A40F775E1957904120D20FF
:10442400790180027900024A68880874162508F523
:10443400827408124CC6F5D9082212444222EAFEBC
:10444400EBFF9061D0E0F87480C398FAEE248322E5
:10445400FCEF3400FD8E828F83A3A3A3A3A3124594
:10446400758C828D83E028F0A3E039F07902120B79
:10447400162274F6121760EAFEEBFF9061D0E0702A
:104484006275D91875D90375D9037A008A08EE259F
:1044940008125232249C12451640F17A008A08EE22
:1044A400250812523224A41244F240F17A008A08F8
:1044B400EE2508125232249412451640F17A008AED
:1044C40008EE250812523224881244EC40F175E1BA
:1044D400957908EE249412450F2488124506124556
:1044E400E18002790002465A1244F89404221244EC
:1044F400F8940222F582E93400F583E0F5D90AEA5A
:10450400C322FAEF3400FB120B1C22124506790475
:10451400EE221244F894082274F6121760EAFEEBB5
:10452400FF90081674061245D41219737C0179039E
:104534001248CF12171F75D90675D9037800124592
:10454400B940FB75E195900499E064087017EE2476
:1045540070F582EF12456EEE2472F582EF1249BDBA
:10456400E8F0A3E9F0790102465A124A7A12457535
:1045740022E0F8A3E0F92274F6121760EAFEEBFFDA
:104584009061D0E0702A900816740A1245D412196A
:10459400737C0179031248CF12171F75D90675D998
:1045A4000378001245B940FB75E1951245E6800297
:1045B400790002465A880874162508F58274081290
:1045C40045C99405223400F583E0F5D908E8C322EF
:1045D400F075081675090878082275E195790412B2
:1045E4000D20EE2470F582EF124A7A124575EE24FE
:1045F40072F582EF124A7AE8F0A3E9F079012274A5
:10460400F6121760EAFEEBFF9061D0E07043790187
:10461400900816740BF0900499E0640770177508FD
:104624001675090878081219737C0109091248CF14
:1046340012171F7905740129F5D975D903780080FB
:104644000312442DE8C39940F875E1951245E680BC
:104654000279008001F07F02021832F582EF124CD9
:10466400C6F5D92274F51217601246EB600478047B
:1046740080027800E8240BF8EAC3984036750A09EA
:104684009008167408F0F91246D46014750816756B
:10469400090878081219731248C712171F750A0DF2
:1046A4001246BC800312442DE8C3950A40F7124514
:1046B400DE800279000249367401250AF5D975D9DC
:1046C40003780022EE241DF582EF1249CFA3F022D5
:1046D400EE24E5FCEF3400FD7A177B08120B1685F7
:1046E4000882850983E022124442F8EF124E49F50C
:1046F40083E02274F31217608A088B091248DAFAED
:10470400E5082483F50AEB1247B5600478048002B7
:104714007800E82408F8EAC39850030247AE750C01
:1047240006900816740CF09004B6E0900817F07424
:1047340002C0E0F97CB77D047A187B08120B16D00E
:10474400E0F97CB97D04120B16850A82850B83E09F
:10475400601C750A16750B08780A1219737C0679A1
:1047640003AA08AB091248CF12171F750C0A74016B
:10477400250CF5D975D90378008009880A741625A3
:104784000A124433E8C3950C40F175E1957904129B
:104794000D20E5082470F582E50912456EE508242C
:1047A40072F582E5091245F8800279007F05021846
:1047B400323400F50B850A82F583E02274F6121771
:1047C40060EAFEEBFF1248DAFCEE2483F8EF1248AD
:1047D400D560047A0480027A00EA2404FAECC39ACD
:1047E400405E7A02900816EAF0EE24F7F582EF12A2
:1047F4004850601975081675090878081219737CF1
:10480400027903EEFA1248CF12171F7A0674012AAE
:10481400F5D975D9037800800312442DE8C39A4072
:10482400F875E195EE2474124849EE248012484943
:104834001246C87904120D20EE240D1245E98002B7
:10484400790002465AF582EF1249CF22124CC690E3
:104854000817F088828983E02274F61217601248E0
:10486400DAFEEA2483F8EB1248D560047C04800263
:104874007C00EC2404FCEEC39C40437C02900816AC
:104884007407F0EA24F8F582EB12485060157508B5
:1048940016750908780812197379031248CF12178C
:1048A4001F7C0674012CF5D975D903780080031296
:1048B400442DE8C39C40F875E195790180027900A4
:1048C40002465A7C097903EEFAEFFB120B88740254
:1048D40022123F63E0229061D0E0F87480C39822F2
:1048E40074F5121760E9FEA2AFE433F50AC2AF7F94
:1048F40000EA246FF8EB3400F980010F8882898381
:10490400E0FCEFC39C50188F08EA2508FCEB340048
:10491400FDEC246BF582ED124CC26E70DE800DEA64
:104924002CFAEB124C52EE12485604F0E50AA2E0BF
:1049340092AF7F0302183274F6121760A2AFE43309
:10494400FFC2AFEA246FF8EB125234FCE9FD8C820B
:104954008D83E014F07E00801E8E08EA2508F8EBB3
:10496400125234246CF582E9124CC2C0E0E8246B84
:104974001249BAD0E0F00E8C828D83E0F8EEC39831
:1049840040D7EA246EF582EB1249BD74FF1249C187
:10499400EFA2E092AF02465AC082C083E5A8F8C2F3
:1049A400AFEA246BF582EB1249BDE91249C1E8A2D2
:1049B400E792AF023EF6F582E9124A7A22F0EA243F
:1049C4006AF582EB1249CF22F582E93400F583E4DB
:1049D400F02274F21217608C828D83A3A3A3A3E048
:1049E400541FF0EA2436124F7C8E828F83E4F0F554
:1049F4000C850C8285820AEC250AF8ED124E45F5E9
:104A040083E0C0E0EA250AF8EB124A6DD0E0F075C5
:104A14000D00850882850983E0F50A750B00E50D14
:104A2400780A1216D7E50AA2E05027E50C3333338F
:104A340054F8250DC0E08E828F83E0F8EA28F8EB65
:104A440012523424381249BAD0E0F08E828F83E0B7
:104A540004F0050DE50DC3940840B7050CE50CC33F
:104A64009405408D7F060218323400F9E8245D1263
:104A74004A7722F582E93400F583222508F582225B
:104A840074F61217609004C3E0640370077A007B25
:104A94000002465A7C00ECF875F006A4C8AAF02A75
:104AA400F974C928F582740439F583E06003024C73
:104AB40036124EBE124C64E4F0E82404FAE93400E1
:104AC400FBEAFEEBFFEC8E828F83F0E82462124C4B
:104AD400432465124C7324681249BA124C64A3A38C
:104AE400E4F0A3124D08A3124C77240F124C432474
:104AF40035124C4B1215F7E824181249BA12160352
:104B0400E8241C124C5F241D124C732480124C5F49
:104B14002474124C5F24691249BA7480F0E8246A40
:104B2400124C5F246F124C5F2467124C5F24ED1209
:104B34004C5F24EE124C5F24EF124C5F24F0124CB5
:104B44005F24F1124C7324F3124C7324F6124C5F5D
:104B54002483124C5F24D3124C5F24D4124C4B1286
:104B640015F7E824D51249BA1216039090E41215E9
:104B7400F7E824D91249BA121603E824DF124C5F6D
:104B840024E1124C5F24DD124C5F24E2124C5F24BA
:104B9400E3124C5F24F9124C7324FB124C7324FD72
:104BA400124C7324FFF582E91246CEFC8C08E825EA
:104BB40008FAE9124C5274FFF00CECC3940440EC74
:104BC4007C008C82AA8274E02AF5827407124CC29B
:104BD400C0E0E82AFAE93400FBEA245DF582EB122E
:104BE40049BDD0E0F00CECC3940540D67C008C8227
:104BF400AA8274AD2AF5827404124CC2C0E0E82A79
:104C0400FAE93400FBEA24E5F582EB1249BDD0E071
:104C1400F00CECC3940840D69004C3E004F06401A3
:104C240070098E828F83E09004C5F0E8FAE9FB02F4
:104C34004A950CECC394034003024A91024A9A1227
:104C44004A777401F0E8221249CC9090E4223400AF
:104C5400FBEA246BF582EB124A7A221249CCE82251
:104C64007401124C6A22F088828983A3A3A32212BE
:104C74004A77E4F0A3F0E822C082C083EA2403F573
:104C840082EB124CC26008E4F09004C4E014F0908B
:104C940004C3E014F070069004C574FFF08A828B9C
:104CA40083A3A3E4F09007E5E0700D9004C4E064EE
:104CB4000170057900120CEA023EF6F582EF124CFF
:104CC400C6223400F583E022C082C0837B00EBF867
:104CD40075F006A4C8AAF02AF974C328F87404125B
:104CE4004EC8A3A3A3A3A3E4124D08F00BEBC394F3
:104CF4000340DB9004C3E4F0A3F0A374FFF075E178
:104D0400F1023EF6124C6AA3A3A32274F5121760B3
:104D1400750800750900750A00A80A1241A18E825F
:104D24008F83A3A3A3E0602DE5084509700AEEF87C
:104D3400EFF988088909801D850882850983124D49
:104D440075121986124D711215F71220D5740412BA
:104D5400171FE960D9050AE50AC3940340BB850817
:104D640082850983A3A3A3A3E0F90249368E828F27
:104D740083124D7922E0F8A3E0F5838882A3A3226D
:104D840074F712176078FF79FF7F00EFFC75F00667
:104D9400A4CCAEF02EFD74C72CFC74043DFD8C82B3
:104DA4008D83A3A3A3E06040EC2474F582ED124C40
:104DB400C2FE74FF68700374FF69701574016E702D
:104DC4000BEC247AF582ED12456E801CEC242E80C7
:104DD400F374016E700AEC247A124E03500A80E1D7
:104DE400EC242E124E0340E40FEFC39403409CC303
:104DF400EA98EB994004E8FAE9FB7F01021832F5DE
:104E040082ED124A7AC3E098A3E0992274F612174D
:104E140060EAFEEBFF120ABCEE2465F8EF124E4581
:104E2400124E53EC4D60109004C5125169850882EE
:104E3400850983E4F0A3F0EEFAEFFB120C0C0246B2
:104E44005A124E49223400F988088909888222F5C9
:104E540083E0FCA3E0FD2274F7121760EAFEEBFF87
:104E64008E828F83A3A3A3A3E0FA7B0012083AEEF9
:104E7400FAEFFB120AD4120BEE024DFEC082C0837D
:104E84007B00EBF875F006A4C8AAF02AF9124EBE0E
:104E9400A3E0601AE8246FF582E9124CC2600FE8BF
:104EA400246BF582E9124CC27004790180090BEB82
:104EB400C3940340CD7900023EF674C728F8740405
:104EC400124EC82239F988828983A3A32274F61268
:104ED40017607800880874AD124A7F740412484C35
:104EE40008E8C3940840ED9004AD7401024659C02B
:104EF40082C08374FC1217099090E41215F7851888
:104F040082851983121603120B22E98518828519EA
:104F140083F0120B227401121754E9F0120B22745D
:104F240002121754E9F08518828519831215F77453
:104F340004023C7874F6121760EA240D124F7CECDC
:104F44002403F8ED3400F988088909EC2407F8ED06
:104F5400125234FCE9FD124F8612167E8E828F8324
:104F6400E8F0A3E9F0124F8612167E8B09EA450990
:104F74006003124F9902465AF8EB3400F9E8FEE94F
:104F8400FF228C828D83124575850882850983E012
:104F9400FAA3E0FB228E828F83E02401F0A3E034A5
:104FA40000F02274F6121760EA242EF582EB340026
:104FB400124E53EA2470124F7C780079FAECFAED21
:104FC400FB12167E8E828F83E8F0A3E9F0780079D5
:104FD400FAECFAEDFB12167E8B09EA45096003121E
:104FE4004F9902465A74F0121760EAFEEBFF7410F0
:104FF40012175478081215D9120CA28A0C8B0D8C36
:105004000E8D0F909060780C12153F9090E0780C04
:105014001215A0780C12196F124D711215F7122087
:10502400D5740412171FE960030250CD8E828F835A
:10503400E02402F8A3E0125234FAE9FB8A828B835B
:1050440078081215529090E078081215D98A828B4C
:105054008378081215B3EE240BF582EF1249BDC014
:1050640082C0838E828F83A3A3A3A3A3E02401F829
:10507400A3E03400F9D083D082E0687003A3E06930
:10508400700479018045EE2407F8EF123F63124F54
:105094009DEE24741252397014EE24751250D4709B
:1050A40003A3E06D70078A828B83124F9DEE2480E8
:1050B4001252397014EE24811250D47003A3E06D9F
:1050C40070078A828B83124F9D79007F0802183201
:1050D400FAEF3400FB8A828B83E0FCA3E0FD888234
:1050E4008983E06C2274F31217609004C5E0F8120F
:1050F40041A2EE2404F50AEF3400F50BEE2465F525
:1051040008EF3400F5098010124E55850882850990
:1051140083E4F0A3F0125163850882850983124E5B
:1051240055EC4D6030EE2464124CBFF50C780C1233
:105134001977EE2463124CBFF9EEFAEFFB120B0A57
:10514400740112171FE985088285098360BA124524
:1051540071E84970077C007D001251630247B085F5
:105164000A82850B83E0FA7B001207F22274F212A2
:105174001760EAFEEBFF890A740E121754E0FAEE88
:10518400246212523960030252281248DAF50CEEF6
:105194002483124CBFFB60047804800278008908E1
:1051A400E928F8E412523424020808E93400F9E545
:1051B4000C98E499A2D265D0334065EA7005750B6A
:1051C400028003750B01EB6033750900780812192E
:1051D400737A167B08120B52740212171F75081685
:1051E4007509087808121973AC0AA90B1248CB1276
:1051F400171F7404250AF50A7C167D087401250A14
:10520400F5D9850BD97800800A8808EC124A7FED1D
:10521400124437E8C3950A40F075E1957900800699
:105224007907800279FF024A688A0AEE250AF8EFB4
:105234003400F9E822F582EF124CC6640122C082E0
:10524400C0838003125270E9F874FF28190470F4C3
:10525400ECFAEDFB023EF6C082C08380031252706A
:10526400E9F874FF28190470F4023EF68C828D83E9
:10527400E08A828B83F08C828D83A3AC82AD838A97
:10528400828B83A3AA82AB832274F4121760E9FF92
:105294007E008A088B0978081219B700040D2A5475
:1052A400C052DC52F15206531B5330534C536553D6
:1052B4007753A553B453D053EC530A5474016F700D
:1052C400128C828D83E0C394035008E0901043F065
:1052D4000254487E1802544874026F70F68C828D12
:1052E40083125BBD901044E8F0A3E980E274016F7F
:1052F40070E18C828D83E0C3940250D7E0900DDA84
:1053040080CD74016F70CC8C828D83E0C394055082
:10531400C2E0900DDB80B874016F70B78C828D830E
:10532400E0C3940250ADE0900DDC80A374106F7064
:10533400A27508108E0978081219737ADD7B0D1294
:105344005FA612171F02544874016F70868C828DF9
:1053540083E0C3940240030252D7E0900DED025261
:10536400D374016F60030252D78C828D83E0901056
:1053740047808D74046F60030252D7909050780870
:105384001215D98D838C8278081213D540030252EA
:10539400D78C828D831215F7900DEF1216030254E9
:1053A40048EF60030252D712118E12118202544840
:1053B40074016F60030252D78C828D83E0C3940220
:1053C40040030252D7E0900DEE0252D374016F6095
:1053D400030252D78C828D83E0C3940A40030252A5
:1053E400D7E09010460252D374016F60030252D783
:1053F4008C828D83E024F9C3940A40030252D7E0DF
:105404009010480252D374016F60030252D7900E79
:1054140081E0F88C828D83E0900E81F0E87025E0C5
:10542400640170208084C3EA9424EB9400501374C4
:10543400026F700E8C828D83125BC8120402E9FE27
:1054440080020E0EEEF9025452740E12171F7F04DE
:1054540002183274F212176074DA121709890AEC0E
:10546400FEEDFF7434121754E0F50B742012175438
:10547400AC82AD83758390758232740612161C74E7
:1054840020121754AC82AD83121128E9F508C39495
:105494000A40030255AA12116AE9F509901043E083
:1054A4006402700474018001E4F50C780C1219771D
:1054B400AD0BAC09A908EEFAEFFB1211B874011296
:1054C400171F7C147D007900740C121754AA82AB48
:1054D40083120FAE75F006E508A4F50B740C1217D1
:1054E40054AC82AD837A107424250B125C55703849
:1054F4007C1079FF740C1217541255F1702A741C25
:10550400121754AC82AD837A047425250BF9121357
:1055140050740C121754AC82AD83E509A2E0E43355
:10552400F9EEFAEFFB120498851882851983AC8290
:10553400AD837A0C74702508125C557055851882F9
:10554400851983AA82AB8312115E750800E508757C
:10555400F003A4F8A9F0851882851983E58228F858
:10556400E583125D93125BC8EC4D601D88828983CC
:10557400A3A3E0F50C750D00780C121973EEFAEF85
:10558400FB120726740212171F0508E508C39404CA
:1055940040BBE509A2E15046900DD9E0F9EEFAEFDF
:1055A400FB12072C80387408650B7032901043E0AE
:1055B4006402702A7C007D00A90AEEFAEFFB121146
:1055C400B21255FA6018125BCE88828983E582454F
:1055D40083600B7C007900EEFAEFFB12175E790012
:1055E400742602647879FF851882851983AA82ABB0
:1055F40083121014E922900DF3E0F8A3E0F9E849CE
:105604002274F0121760EAFEEBFF8C088D09750A0C
:105614000AE9600C14600914602E14607F0256AB12
:10562400121176E9F50AC3940A507CE5084509602D
:1056340076750E06750F00780E121973EEFCEFFDE9
:10564400125FA212171F805F750B00750E06750F8F
:1056540000780E121973EEFCEFFDE50B75F00EA445
:10566400F8A9F074FB28FA740D39FB120FA8740220
:1056740012171FE9601B850B0AE50AC3940A502719
:10568400E50845096021AA08AB09A90A121170802E
:1056940016050BE50BC3940A500D80AF12117CE97B
:1056A400F50AC3940A40D9A90A7F0802183274F48F
:1056B400121760890875091574FF6A700374FF6B0B
:1056C40070277E00AC087A027B00EEF912114CE9D7
:1056D40060037509000EEEC3940A40E8E5086049CA
:1056E4007AA67B1112093080401209128A0A8B0BA8
:1056F400AE0AAF0BEE4F602E7C007D00EE2405FA5F
:10570400EF3400FB8E828F831257AD500CAC087AB5
:10571400027B0012114C750900E508600CEEFAEFEB
:10572400FB1211A68003750914A90902545274F2DC
:10573400121760ECFEEDFF740E121754E0F50AA385
:10574400E0F50B75081574FF6A700374FF6B702124
:10575400750900AC0AAD0BEEFAEFFBA90912115260
:10576400E960037508000509E509C3940A5035800A
:10577400E21209128A828B83E582458360237C00CE
:105784007D00E5822405FAE5833400FB1257AD5011
:1057940013AC0AAD0BEEFAEFFB1211527508008040
:1057A40003750814A90802647BA3A3A3A3125BA72F
:1057B400C3940A22C082C083900DF3EAF0A3EBF0F5
:1057C400900DD9E0FC7D007A237B00120402900D39
:1057D400D9E0F91206A8D083D08202013574EC1204
:1057E40017608A088B09E9FE7414121754780C1296
:1057F40015D97F00EE702E780812197390905078A6
:10580400101215D9780C7910121484AA10AB11ACAB
:1058140012AD131204AA740212171FE9FF6009796A
:1058240001AA08AB091204A4EFF97F0C0218327420
:10583400EA12176074EC121709EAFEEBFFEE240C6F
:10584400F514EF3400F515EE240AF510EF3400F5E5
:1058540011EE2403F508EF3400F5098E828F83A33B
:10586400A3E024FA7003025B9424FD7003025ABD82
:10587400147003025914146010147003025AEF24B4
:10588400FE7003025A92025B9DEE2409F50AEF347E
:1058940000F50B1255FA604AE0F5838882125BBD6D
:1058A400880C890DE8450D6039851482851583E0DF
:1058B400F50E780E121977EE240BF582EF3400F50D
:1058C40083E0F9850A82850B83125BC80A0A0AAB56
:1058D40009850C82850D8312175E740112171F024D
:1058E4005B9D850A82850B8312198A900DEF121530
:1058F400F71204AA740212171FE97003025B9D7960
:1059040001850A82850B831262A01204A4025B9DA6
:105914008E828F83A3858212858313E06003025AEB
:1059240065EE2405F50CEF3400F50D850C82F58346
:10593400E0A2E04003025A657C0E7D0079008518E0
:1059440082851983AA82AB83120FAEEE2408F50A6E
:10595400EF3400F50B850A82F5831255FD60197545
:105964000E06750F00780E121973850A82850B8353
:10597400E02410FCA3E0801D12629A120912EA4B83
:105984007003025B9D750E06750F00780E12197375
:10599400EA2405FCEB3400FD7402121754AA82AB0E
:1059A40083125FA612171F850C82850D83E0A2E285
:1059B4005004D2F08002C2F0A2F0E433F8740C1266
:1059C4001754E048F08510828511831255FD601547
:1059D400851082851183E02410F8A3E03400F9884F
:1059E4008289838003909054780C1215D985108293
:1059F4008511831255FD600F851082851183E0F5B2
:105A040010A3E0F5118006751000751100850A8257
:105A1400850B831255FD600F850A82850B83E0F5A3
:105A24000AA3E0F50B8006750A00750B00780C12CA
:105A3400196F7810121973780A12197385148285F4
:105A4400158312198A8E828F83A3125BC3740A1280
:105A54001754AA82AB83121164740A12171F125BC3
:105A6400AE1255FA7003025B9D125BCEE8FEE9FFAD
:105A7400EE4F7003025B9D851282851383E0FC79EF
:105A84000112629A8E828F8312175E025B9D125BF3
:105A9400AE1255FA7003025B9D125BCE890BE8458A
:105AA4000B7003025B9D8E828F83A3E0FC7902124C
:105AB400629A8882850B8380CF7C007D00EE24046B
:105AC400FAEF3400FB850882850983125BA7F8C3CB
:105AD400940A4003025B9DAC10AD117A0475F00684
:105AE400E8A42425F912134A025B9D8508828509DE
:105AF40083E0F508A3E0F509740E121754AC82ADE7
:105B04008375839075822C740612161CAA08AB093F
:105B14001209128A0A8B0BA80AA90BE849607A9029
:105B24001043E064026072E82404FEE93400FF7468
