:020000040000FA
:0600000002011D021D7E3D
:03002B0002242E7E
:03005300021DF497
:03006B000223D598
:03007B000224104C
:10008300021C6FE5C754F84401F5C779012200004B
:100093000080FB120086B90003020107E47921788E
:1000A30008B800028004F709D8FCE479297802B87B
:1000B30000028004F709D8FCE490028178CA79072A
:1000C3008002F0A3D8FCD9FA781A90014D7A01BACC
:1000D30000028007E493A3F608DAF990094AAA829A
:1000E300AB8390014E783479048015E493A3AC82FA
:1000F300AD838A828B83F0A3AA82AB838C828D83A8
:10010300D8E9D9E7758209758397740312012F75AE
:100113008291758300740012012F75D00075813FA1
:10012300751881751902759F00020096C09FF59F8F
:10013300E473D09F22D083D082C09FE493C0E07445
:100143000193C0E0740293F59F2201FF0000B40005
:100153000028002800283075A000A000A000A000FF
:1001630000080008E001F00010001000100010006B
:100173001000100050005000500010001000D00775
:100183000000000000000F003075070010000100A0
:1001930081FF0000FF7F069D068506FF02020A0A13
:1001A300025000A0000000E803020690010000EFE7
:1001B3008F0202900100009B0902F68F010000B23A
:1001C300020202900100009C0902F88F010000C89E
:1001D300020202900100009D0902FA8F030000CA87
:1001E300020202900100009E0902FC8F030000CB73
:1001F300020202900100009F0902FE8F010000A08D
:1002030009FF0100FF20020690010000EC8F0202AB
:1002130090010000040A020090000000000002F4B4
:100223008F0300001803B50CB50CB50CB50CB50C59
:10023300B50CB50CB50CB50CB50CB50CB50CB50CB3
:100243008B0FA30F850FFFFF0202020202020202BD
:1002530002010D0000001001020690010000E98F69
:10026300020290010000470A021690010000750780
:10027300020290010000480A021490010000018F5D
:10028300020290010000490A021290010000E58E6B
:100293000202900100004A0A021090010000918EB0
:1002A3000202900100004B0A020E90010000A38E8F
:1002B3000202900100004C0A020C900100007F8EA4
:1002C3000202900100004D0A020A900100006D8EA7
:1002D3000202900100004E0A022690010000F38EF4
:1002E3000202900100004F0A022E90010000500A02
:1002F30001E803053F10FF0001307503020106000A
:1003030000000000000000000000000000000000EA
:100313000000000000000000000000FFFF06008056
:100323000CE803140953696D706C65424C455065C4
:10033300726970686572616C051250002003020ACD
:10034300000201050302F0FF53696D706C652042E2
:100353004C45205065726970686572616CAB13001F
:1003630000B1130A436861726163746572697374DF
:100373006963203100024368617261637465726965
:100383007374696320320008436861726163746542
:100393007269737469632033001043686172616327
:1003A300746572697374696320340002436861720F
:1003B3006163746572697374696320350002069022
:1003C300010000E68F020290010000620B021C9004
:1003D300030000340902F28F010000630B02029054
:1003E300010000740B021E90010000350902F28F18
:1003F300010000750B020290010000860B022090A1
:10040300020000360902F28F010000870B020290FE
:10041300010000980B022290000000370902F48FBC
:10042300030000380902F28F010000990B020290C9
:10043300010000AA0B0224900400003E0902F28F7F
:10044300010000AB0B104B6579205072657373206C
:10045300537461746500020690010000E38F020289
:1004630090010000440C022C90000000430902F4A8
:100473008F030000440902F28F010000450C1201B2
:1004830038868A031201389D8A03120138CC8A0305
:10049300120138058B031201382D8B031201385BCF
:1004A3008B03120138728B03120138898B031201FB
:1004B300389F8B03120138C68B03120138D98B0383
:1004C300120138EF8B03120138028C031201382713
:1004D3008C031201381E8B021201381D8C0212018B
:1004E30038528C02120138738C02120138838C0249
:1004F300120138A48C02120138B08D021201387D2A
:100503008E02120138F08E02120138768F02120128
:1005130038B98F02120138F08F0212013876900237
:10052300120138489102120138A69102120138BE15
:1005330091021201383892021201383B92021201E1
:10054300383E9202120138E59202120138FD9202FE
:100553001201382D93021201384D93021201383BD8
:100563009402120138F194021201385FD30212018E
:100573003887D302120138B5D302120138ECD30203
:1005830012013854D4021201389DD402120138E802
:10059300D40212013826D50212013863D5021201A2
:1005A3003891D50212013838D60212013842D602E8
:1005B3001201384FD60212013882D6021201384492
:1005C300D70212013850D70212013868D70212013C
:1005D3003872D70212013837940312013845940355
:1005E3001201385D94031201387594031201388E99
:1005F3009F011201382CA001120138A4A00112019D
:1006030038B9A101120138F3A1011201389CA201EA
:1006130012013871A301120138D5A4011201382C3B
:10062300A501120138B3A5011201389AA6011201DE
:1006330038E7A60112013875A70112013899A701FD
:100643001201386EA901120138AFA901120138D184
:10065300A90112013852AA011201383CAB0112015F
:100663003802AC01120138D9B602120138ABB70215
:1006730012013854B80212013897B8021201382413
:10068300B902120138B0B90212013891BA0212014B
:1006930038C0BA02120138BCBB0212013804BC02D2
:1006A30012013806BD021201384ABD021201387028
:1006B300BD02120138A4950312013876ED0212012E
:1006C300388CED02120138B2ED02120138DAEE0273
:1006D300120138E4EE021201383DF0021201383DF6
:1006E300F102120138AAC902120138B7CA02120173
:1006F30038EBCA021201382DCB02120138E7CC02C3
:10070300120138319001120138949001120138D945
:100713009101120138E991011201380C9201120181
:1007230038579201120138FC9201120138F29301F9
:10073300120138BC94011201383496011201387643
:1007430096011201381497011201386197011201C1
:10075300388797011201387599011201387A990186
:100763001201385B9B01120138AF9B011201381152
:100773009C01120138399C01120138DD9C011201E0
:10078300389F9D01120138D09D01120138D39D017C
:100793001201381B9E011201385D9E01120138C4FB
:1007A3009E011201380080031201381380031201E5
:1007B300382C8003120138778003120138528103E9
:1007C300120138E181031201382C820312013854DB
:1007D3002400120138602400120138992400120108
:1007E30038DE24001201389525001201381B26003B
:1007F300120138802600120138AC2600120138E5B8
:100803002600120138F92800120138D52A001201F6
:1008130038C02C00120138F72D0012013857300070
:10082300120138433100120138893200120138961F
:100833003300120138B33300120138EB33001201D5
:10084300380534001201386D3400120138073900BD
:10085300120138A83900120138F939001201382081
:100863003A001201386E3A001201388C3A00120134
:1008730038E03A00120138B93B00120138403D001C
:10088300120138C83D00120138E5BD02120138EFEC
:10089300BD02120138B6BE0212013805BF021201B1
:1008A3003829BF0212013884BF02120138BCBF02CB
:1008B300120138E4BF0212013814C1021201383F99
:1008C300C1021201386AC102120138B9C102120110
:1008D30038CFC10212013815C2021201384FC202C9
:1008E30012013891C202120138D9C202120138151D
:1008F300C30212013863C302120138ACC3021201EE
:1009030038D6C302120138FBC30212013881E9024F
:100913001201384BEA0212013837EB02120138ADEB
:10092300EB02120138EFEB021201381CED02120147
:100933003851F3011201387AF30112013893F301AC
:10094300120138D8F401120138B6F501120138D575
:10095300F50112013862F601120138A5F601120100
:1009630038F2F70112013891F80112013810FB0136
:10097300120138A7FB011201387BFC011201385D1B
:10098300FD01120138C9FE011201385CFF01120199
:10099300385E8F03120138C78F031201381B90038F
:1009A30012013842900312013824E10212013891F6
:1009B300E102120138DCE102120138D1E202120134
:1009C30038CDE302120138B7E4021201386677002A
:1009D300120138A877001201388278001201385BBF
:1009E3007900120138567A00120138357B00120162
:1009F30038A17B00120138687C00120138D37C00D7
:100A03001201383A7D00120138657D00120138D693
:100A13007D00120138697E00120138D27E00120176
:100A230038E77E001201382F7F00120138487F001B
:100A3300120138AD7F00120138B07F001201386710
:100A4300F8021201388FF802120138CDF8021201B0
:100A5300388BF902120138F6F90212013812FA0240
:100A63001201383AFA021201386AFA02120138798D
:100A7300FA02120138F3FA0212013819FB021201C9
:100A83003837AE01120138C2AF011201385EB1012D
:100A930012013824B2011201386BB201120138B2CB
:100AA300B201120138D0B20112013812B30112019E
:100AB3003828B30112013874B301120138ACB30101
:100AC300120138DFB30112013830B4011201389A30
:100AD300B40112013894B70112013836B901120179
:100AE300387CB901120138B3BA0112013810BB01C5
:100AF30012013885BB01120138D9BB011201380636
:100B0300BC0112013831BC01120138FD9E021201F1
:100B1300381A9F02120138A7A402120138A9A502AC
:100B230012013823A702120138D1A7021201382F6C
:100B33003E00120138783E00120138A53E00120132
:100B430038D83E00120138E53E00120138F13E006C
:100B5300120138033F00120138D83F001201383622
:100B630040001201386B40001201380742001201A5
:100B730038414200120138AF420012013854430099
:100B83001201381044001201388F44001201385307
:100B93004500120138624500120138E34500120195
:100BA30038824600120138B446001201384F47001C
:100BB300120138AD4700120138E7470012013868C7
:100BC3004800120138314900120138DA4900120194
:100BD30038614A00120138B94A001201381A4B0031
:100BE300120138434B00120138F94B00120138430C
:100BF3004D00120138864D00120138A34D00120139
:100C030038C24D001201380D4E00120138324E0029
:100C13001201385B4E00120138CA4E001201380C23
:100C23004F00120138105000120138AA500012016F
:100C3300387651001201388F51001201385C950249
:100C4300120138AF9502120138BB95021201389098
:100C53009602120138B79602120138F29602120177
:100C6300385E9702120138929702120138CB97022D
:100C7300120138E397021201383C980212013855E9
:100C830098021201389E9802120138B1980212019B
:100C930038CB9802120138E19802120138FD99020B
:100CA3001201380E9B021201385B9C02120138407C
:100CB3009D02120138F27F001201386BE601120126
:100CC300389FE6011201380AEA0112013854EB0198
:100CD3001201381EEC01120138A8ED01120138830C
:100CE300EE01120138BDEE01120138E0EE011201EE
:100CF3003822EF011201382BEF0112013875EF0191
:100D03001201387FEF011201382BF001120138FF75
:100D1300F00112013853F101120138B5F10112014A
:100D23003808F20112013837F20112013876F20164
:100D33001201381E6500120138786D001201387EE9
:100D43006D00120138317300120138177700120158
:100D53003847F102120138BDF102120138D3F10212
:100D630012013810F20212013848F202120138C59A
:100D7300F20212013800F3021201387BF30212016E
:100D830038B7F302120138C0F302120138CCF30270
:100D9300120138E6F3021201380BF4021201382172
:100DA300F4021201384AF402120138ADF4021201BE
:100DB300389DCE02120138B0CE02120138CACE02DB
:100DC300120138F3CE0212013836CF021201387500
:100DD300CF02120138B3CF0212013818D002120128
:100DE300382DD00212013838D00212013845D00212
:100DF3001201385CD0021201386AD0021201387530
:100E0300D00212013881D00212013894D0021201AB
:100E1300389FD002120138C2D0021201386BD102BE
:100E23001201387BD10212013895D102120138B276
:100E3300D102120138CED102120138F3D1021201CC
:100E430038FDD10212013811D20212013830D20218
:100E530012013891D20212013897D2021201389D41
:100E6300D202120138A3D202120138AFD202120108
:100E730038E2D202120138E1D80112013863D901F4
:100E83001201380CDA0112013854DB011201386205
:100E9300DD0112013848DE011201387DDE01120145
:100EA300389FDE0112013848DF0112013818E101D1
:100EB30012013841E101120138B9E101120138EBA5
:100EC300E101120138F8E10112013843E201120194
:100ED3003867E201120138B8E401120138C2E501B2
:100EE3001201381EE601120138CDBC01120138DEB1
:100EF300BD01120138C2BE01120138CCBE0112017C
:100F030038EEBE01120138FABE011201389EC0014B
:100F1300120138CBC001120138E1C1011201383688
:100F2300C20112013885C3011201385AC4011201EA
:100F330038B6C40112013821C50112013856C50162
:100F430012013899C50112013863C8011201387BB7
:100F5300C8011201380CC9011201381AC901120162
:100F63003867C90112013875C901120138E1C90195
:100F73001201385CCA01120138B3CA0112013800E8
:100F830080021201382280021201383382021201D8
:100F930038F284021201381C8602120138DA860202
:100FA300120138C6870212013845FE021201386A5F
:100FB300FE02120138E0FE02120138BCAF02120138
:100FC30038C5AF02120138CEAF02120138A6B00203
:100FD30012013857B20212013887B202120138B235
:100FE300B202120138E2B2021201380DB302120149
:100FF3003841B3021201386DB302120138B0B302A3
:10100300120138DBB30212013822B402120138771D
:10101300B402120138B9B40212013813B502120135
:10102300383EB5021201388DB502120138BDB50242
:10103300120138E8B50212013816B6021201383926
:10104300B6021201382D9603120138599603120184
:1010530038869603120138909603120138A096033E
:1010630012013823C4021201382DC4021201386E52
:10107300C402120138B7C402120138F1C4021201CA
:101083003847C50212013868C50212013871C5021A
:10109300120138C5C502120138EEC502120138F833
:1010A300C50212013866C602120138F6C6021201E1
:1010B3003851C7021201387FC70212013807C8022C
:1010C30012013846C8021201387BC8021201388D5A
:1010D300C802120138ACC802120138B5C8021201A5
:1010E300387CC902120138759103120138C6860390
:1010F300120138FC86031201383087031201387D50
:1011030088031201380E9503120138249503120146
:10111300382E9503120138789503120138AA9603E5
:1011230012013807D8021201381AD802120138DB2B
:10113300D8021201381AD90212013837D902120122
:101143003870D902120138BDD902120138EFD90221
:1011530012013826DA021201382FDC021201389B01
:10116300DC021201386C92031201388F92031201D0
:1011730038BE9203120138D6920312013818930332
:1011830012013861FB0212013886FB02120138B0EA
:10119300FB02120138619703120138C15100120199
:1011A300388B5300120138365500120138E15500CF
:1011B300120138615600120138EA56001201381341
:1011C3005700120138CC5A001201384C5B0012014F
:1011D30038575C00120138915C00120138D25C0070
:1011E300120138195E001201386F5E00120138B81F
:1011F3005E001201380F5F001201385D5F001201BB
:10120300388B5F00120138A35F0012013888600039
:10121300120138BE60001201386D6100120138847A
:101223006100120138B661001201385363001201E4
:1012330038E763001201382564001201380098036F
:10124300120138B79703120138F6970312013811C8
:10125300980312013858930312013868930312015B
:10126300387D9303120138319403120138739003CC
:10127300120138F890031201385C9103120138D13E
:101283008D03120138FF8D031201387C8E03120186
:10129300389E8E03120138FE8E03120138528F03DB
:1012A300120138558F0312013879E5021201388D86
:1012B300E50212013807E602120138EBE6021201D9
:1012C30038C2E80212013827E9021201386EE90236
:1012D300120138F87F001201389D84031201381C73
:1012E30086031201387D8603120138C38603120177
:1012F30038398C031201388B8C03120138FE8C03AE
:101303001201386B8D0312013856820312013880A3
:1013130082031201384F83031201382B8403120115
:1013230038F3A702120138BFA80212013800A9023C
:101333001201385EA902120138B2A9021201381053
:10134300AA02120138A6AA02120138AEAB02120198
:101353003838AD02120138D6AD021201383DAE0263
:1013630012013854AE0212013873AF021201384B26
:10137300CB01120138C7CE0112013853D00112013B
:1013830038A3D001120138BDD0011201383DD1017B
:1013930012013843D30112013834D701120138A89E
:1013A300DC021201381CDF0212013845E00212018F
:1013B30038EFE002120138DDF40212013822F5029F
:1013C3001201383FF502120138F5F50212013848CF
:1013D300F60212013818F7021201382EF802120130
:1013E30038B78803120138FC880312013850890387
:1013F300120138D589031201384D8A03120138D3FB
:10140300FF01120138D47F00E066701008A3E06684
:10141300700A08A3E066700408A3E06622C3E79697
:101423000809E7960809E7960809E79622C3E096B4
:1014330008A3E09608A3E09608A3E09622C008C399
:10144300E096F50808A3E096420808A3E096420850
:1014530008A3E09645087001D3D00822080808EADB
:10146300C0E0EBC0E086F0E7A4FA180986F0E7A431
:101473002AFA180986F0E7A42AFA180986F0E7A4DD
:101483002AFA1986F0E7A4FBE5F02AFA190886F090
:10149300E7A42BFBE5F03AFA190886F0E7A42BFB47
:1014A300E5F03AFA18180986F0E7A4C5F02BFBE437
:1014B3003AFA1908E7C5F0C6A426F6E5F03BFBE4C3
:1014C3003AFA1886F0E7A4F6E5F00826F6E43B08B6
:1014D300F6E43A08F6D0E0FBD0E0FA22E4CFC0E02D
:1014E300E4CEC0E0E4CDC0E0E4CCC0E075F020C3BE
:1014F300E633F608E633F608E633F608E633F6187D
:101503001818EC33FCED33FDEE33FEEF33FFC3EC81
:101513009709ED9709EE9709EF97191919400FFFEE
:10152300EC97FC09ED97FD09EE97FE191906D5F026
:10153300BEECF709EDF709EEF709EFF7191919D022
:10154300E0FCD0E0FDD0E0FED0E0FF22601608080A
:1015530008C6C313C618C613C618C613C618C613BF
:10156300C6D5E0EA22700908080822601618181880
:10157300C6C333C608C633C608C633C608C633C691
:10158300D5E0EA22E627F60809E637F60809E63742
:10159300F60809E637F622E026F608A3E036F60851
:1015A300A3E036F608A3E036F622E026F008A3E02F
:1015B30036F008A3E036F008A3E036F022C3E6973E
:1015C300F60809E697F60809E697F60809E697F696
:1015D30022C3E096F008A3E096F008A3E096F00893
:1015E300A3E096F022E056F608A3E056F608A3E03F
:1015F30056F608A3E056F622E056F008A3E056F0AC
:1016030008A3E056F008A3E056F022E0F608A3E0B2
:10161300F608A3E0F608A3E0F622E6F008A3E6F056
:1016230008A3E6F008A3E6F022E0FAA3E0FBA3E0B8
:10163300FCA3E0FD22EAF0A3EBF0A3ECF0A3EDF0B2
:1016430022CAC0E0E6F0A308DAFAD0E0FA22CAC060
:10165300E0E0A3C582CCC582C583CDC583F0A3C515
:1016630082CCC582C583CDC583DAE6D0E0CA22C366
:10167300E498F8E499F91216B38026C3E49AFAE4DD
:101683009BFBE920E7E91216B3E498F8E499F92201
:10169300C3E498F8E499F91216B3E498F8E499F9D5
:1016A300C3E49AFAE49BFB22EB20E7CFE920E7E0CF
:1016B300B90010BB0008E88AF084F8AAF022E4FB22
:1016C300C8FA22EB70227B10C833C8C933C9335020
:1016D30007C39AC3DBF280069A50012ADBEAC833B8
:1016E300F4C8C933F4C9FA2275F008E4C833C8C989
:1016F30033C933C99AC99B5004C92AC93BD5F0ECF5
:10170300FBC833F4C8E4C9FA22600D08C6A2E71384
:10171300C618C613C6D5E0F322600C08C6C313C6A9
:1017230018C613C6D5E0F422700422600D18C6C390
:1017330033C608C633C6D5E0F41822251810AF08FF
:10174300F518400215198008F51840021519D2AF93
:1017530022C0D0251810AF08F518500205198008CB
:10176300F51850020519D2AFD0D0222518F58210F2
:10177300AF08F518400215198008F518400215192D
:10178300D2AF851983222518F582E43519F5832212
:10179300E4732518C582C0E0E51934FFC583C0E0B2
:1017A300E518C3958224F810AF088583198582183C
:1017B3008008858319858218D2AFCEF0A3E520F087
:1017C300A37808E608F0A3DEFAEFF0A3E58124FA94
:1017D300F8E608F0A3E608F0A3E608F0A30808E695
:1017E30008F0A3E608F0A315811581D0E0FED0E050
:1017F300F8158115811581E8C0E0EEC0E0222518B7
:10180300C582C0E0E51934FFC583C0E0E518C39580
:101813008224F910AF08858319858218800885838F
:1018230019858218D2AFCEF0A3E520F0A37808E69D
:1018330008F0A3DEFAEFF0A3E58124FBF8E608F055
:10184300A3E608F0A30808E608F0A3E608F0A3154A
:10185300811581D0E0FED0E0F815811581E8C0E064
:10186300EEC0E022851983851882E0A3FEE0A3F58C
:10187300207808E0A3F608DFFAE0A3FFE0A3C0E0C6
:10188300E0A3C0E0E0A3C0E0E0A3C0E0E0A3C0E0C9
:1018930010AF08858218858319800885821885838F
:1018A30019D2AFD083D0820201358519838518827E
:1018B300E0A3FEE0A3F5207808E0A3F608DFFAE052
:1018C300A3FFE0A3C0E0E0A3C0E0E0A3C0E0E0A387
:1018D300C0E010AF088582188583198008858218B7
:1018E300858319D2AFD083D08222C0D02518C58278
:1018F300C0E0E51934FFC583C0E0E518C395822431
:10190300F310AF08858319858218800885831985AC
:101913008218D2AFC8F0A3E9F0A3EAF0A3EBF0A3D7
:101923007908E709F0A3D8FAECF0A3EDF0A3EEF001
:10193300A3EFF0A3D0E0F0A3D0E0F0A3D0E0F0A3B6
:10194300E520F0A3E5F0F0A322851983851882E052
:10195300C0E0A3E0F9A3E0FAA3E0FBA37808E0F674
:1019630008A3DFFAE0FCA3E0FDA3E0FEA3E0FFA3EE
:10197300E0C0E0A3E0C0E0A3E0F5D0A3E0F520A33E
:10198300E0A3F5F010AF08858319858218800885D8
:101993008319858218D2AFD082D083D0E0F8D0E00B
:1019A3003274048006740280027401C0E0F40412ED
:1019B300176ED0E01216442274048004740280006F
:1019C300CCC0E0EDC0E0E518C39CCCAD1950011DBF
:1019D30010AF068C188D1980068C188D19D2AF1292
:1019E3001651D0E0FDD0E0FC22D083D082E9C0E0E4
:1019F300E493A3C386F0C5F095F0F908E493A386B6
:101A0300F0C5F095F0700BE493A3C3994005E90486
:101A13008002A3E475F002A42582F582E5F0358304
:101A2300F583D0E0F9E493A3C0E0E493C0E022D0CF
:101A330083D082ECC0E0EDC0E0E493A3FCE493A385
:101A4300FDED4C600D121A7EEC24FFFCED34FFFD1E
:101A530080EFE493A3FCE493A3FDED4C600D121A15
:101A6300BDEC24FFFCED34FFFD80EFD0E0FDD0E0C2
:101A7300FCE493A3C0E0E493C0E022C0E0C3E4939A
:101A830096087401939618400FE4936670080874DF
:101A93000193661870007019A3A3C3E493960874A6
:101AA30001939618A3A3400DD0E0D0E0D0E0021A32
:101AB3006EA3A3A3A3A3A3D0E022C0E0C0F088F049
:101AC300E4936670080874019366187000A8F0A385
:101AD300A3700BD0F0D0E0D0E0D0E0021A6EA3A345
:101AE300D0F0D0E02274F5121801EAFEEBFFEE24E9
:101AF30034F8EF3400F988088909EE2435121C20E4
:101B0300F8EE2437121C20F50AEC850AF0A4FCAA8F
:101B1300F0850AF0EDA42AFDE82CF8E43DF97A25D6
:101B23007B001216B3EA850882850983F05407F80F
:101B33007401B800028004C333D8FCC0E0E013137F
:101B430013541FF8EE28F8EF3400F9E8245DF5820A
:101B5300E93400F583D0E0F8E05860088508828511
:101B63000983801DEE2436121C20F5F0EA84A8F0C8
:101B7300EE28F8EF3400F9E82438F582E93400F56B
:101B830083E0F97F040218AD74F5121801EAFEEB45
:101B9300FFEE2434121C20C0E0EE2435F582EF342E
:101BA30000F583D0E0F08E828F83A3A3A3A3A3E0E9
:101BB300FAA3E0FB8E828F83A3A3A3A3A3A3A3E033
:101BC300FCA3E0FDECC39AF50AED9BF50BEE248034
:101BD300F508EF3400F509850882F583E0640170A8
:101BE3002BEE2481F582EF3400F5831219BF121C0A
:101BF300297402121754E960137CFB7D04EEFAEF9B
:101C0300FB120BE3850882850983E4F0AC0AAD0B74
:101C1300EEFAEFFB121AE81223C7021B86F582EFD6
:101C23003400F583E022C082C0838518828519833E
:101C3300E0F8A3E0F9C3EA9CEB9D500BC3EC98EDED
:101C430099401279018010C3EA98EB9940F5C3ECEF
:101C530098ED9950EE7900D083D08222EAC39CFAA2
:101C6300EB9DFB22008521878522C622C0E074EF0D
:101C73001218ED759B00906182E0A2E64003021DFD
:101C830030E591A2E64003021D307591BF9003C277
:101C9300E064057008120D81120D8D8003120D870B
:101CA300752100120DF9E99003C3F07900120DEDCF
:101CB300120B537A017B009003C1E0F91210BD901F
:101CC3007803E064426003021D7990055CE014F040
:101CD3006003021D79C2AF121CDD00782AD0E0F642
:101CE30018D0E0F6E59F5407F97005908F6F8003D5
:101CF300908F6B780812160EE9C4C0E07829E65578
:101D030008F50808E65509F509740B780812171C3D
:101D1300D0E02508F8906270E0A2E740F8E8C3330A
:101D2300906272F0906270E0D2E0F08049E0A2E548
:101D33005024E591A2E5501E7591DF9003C2E06443
:101D43000D70139003E4E004F064287002E4F07A69
:101D530000E0F9120E6B906181E0A2E35009E5E91E
:101D6300A2E3500375E9F7A3E0A2E75009E591A2C6
:101D7300E7500375917F7F0402194CC0E0C0D0C0C7
:101D830082C083906183E0A2E05009E5BFA2E050E6
:101D93000375BFFEE0A2E15009E5BFA2E150037560
:101DA300BFFDE0A2E25009E5BFA2E2500375BFFB0D
:101DB300E0A2E35009E5BFA2E3500375BFF7E0A239
:101DC300E45009E5BFA2E4500375BFEFE0A2E5507C
:101DD30009E5BFA2E5500375BFDFE0A2E65009E5C0
:101DE300BFA2E6500375BFBFD083D082D0D0D0E06E
:101DF30032C0E074F21218EDE5A7A2E4500FE5A19A
:101E0300A2E4500953A7EF75A1EF121E48E5A7A25C
:101E1300E5500CE5A1A2E5500653A7DF75A1DFE568
:101E2300A7A2E15009E5A1A2E1500375A1FDE5A731
:101E3300A2E2500CE5A1A2E2500653A7FB75A1FB59
:101E43007F0102194C74F81218017521019003C225
:101E5300E0640670077A007B00120D69A2AFE433D9
:101E6300FED2AF9003C8E0640170187A207B009023
:101E730003C1E0F91211477A207B009003C1E0F916
:101E83001210C3906182E0D2E6F090055BE060211E
:101E930085C62280169003C7E064017008E5C65426
:101EA300F84405F5C653BEFC121C68740165216035
:101EB300E4EEA2E092AF7F010218AD00008E238F03
:101EC30024858228858327851882851983E0CEA3FC
:101ED300E0CF852882852783EBC9EAC8EDCBECCA1E
:101EE30075F010C3E833C8E933C9EA33CAEB33CB1F
:101EF300C3EA9EF526EB9FF525B35004AB25AA262E
:101F0300EC33CCED33CDD5F0DAAE23AF242274E934
:101F130012180174FA12173EEAFEEBFF8C088D09C2
:101F23009003C2E024F7C394055006908FD7022094
:101F330038120CE58A0A8B0BEA450B700302203535
:101F4300120D9F8A0C8B0D120D9FEA650C7003EB2B
:101F5300650D60ECEEFCEFFD851882851983AA827E
:101F6300AB83120DA5850A82850B83A3A3780C127C
:101F7300160E908FBF780C1215E885188285198389
:101F8300781412160E908FBF78141215E8780C7916
:101F930014121420501F780C79141215C0908F5707
:101FA300780C1214404047850C10850D11850E12D4
:101FB300850F138041851410851511851612851719
:101FC300137810790C1215C0908F577810121440A3
:101FD300501C7510007511007512007513017810EF
:101FE30079141215C07810790C1215878008908F18
:101FF300D7781012160E74097810121568908FC7CF
:10200300780C12160E7810790C1214DF9003C2E0CC
:102013006408600AE064066005E06405701C908F44
:102023009378101214405012908F5B781012159A07
:102033008008908F83781012160E85088285098395
:10204300781012161D74061217547F100218AD74FF
:10205300F7121801120DB7900559E0640170109042
:102063006245E4F0A3F053F4F343FE0C5390F312F0
:102073000D57E5C654804449F5C6E59E547F64492F
:1020830070F8906185740FF0900557E0F47002A327
:10209300E0602C750801750900900557E078081277
:1020A300172BE508F4FAA3E0600814600A14600C27
:1020B300800DEA52808008EA52908003EA52A079A8
:1020C300007F020218AD74F7121801E9FE90244C48
:1020D300E493F46008E493F9120B35800953C68046
:1020E300E59E547F70FA120D5D900559E06401700E
:1020F30003120B6B900557E0F47002A3E0602A759E
:102103000801750900900557E0780812172BAA08F3
:10211300A3E0600814600A14600C800DEA4280801A
:1021230008EA42908003EA42A0120CE58A088B0970
:10213300A808A909E8496017E5E170FCE82414F54B
:1021430082E93400F583E0F874FF68600288E17483
:10215300016E700A7A019003C1E0F9121111022095
:10216300C474F11218018A088B098C0A8D0B740F41
:10217300121789780C12160E908FBF78081215E883
:10218300908FBF780C1215E87808790C1214205040
:10219300157808790C1215C0908F577808121440DF
:1021A300401579018013780C79081215C0908F5768
:1021B300780C12144040EB79007F080218AD74EDDF
:1021C3001218018A088B098C0A8D0B741312178954
:1021D300780C12160E908FBF78081215E8908FBFF7
:1021E300780C1215E8780C7908121420401178083D
:1021F300790C1215C0AA08AB09AC0AAD0B80227585
:1022030010007511007512007513017810790C1206
:1022130015C078107908121587AA10AB11AC12AD4E
:10222300137F0C0218AD908FBF780812160E8A82A6
:102233008B8378081215FB7F040218AD74F512180E
:10224300018C828D83780812160E8A828B8378081C
:102253001215D4122293C3E098F0A3E099122285B9
:10226300401E908FDF780812160E8A828B837808BF
:102273001215AD8E828F83E02420F0A3E0344EF05C
:1022830080A4F08E828F83C3E09420A3E0944E2237
:10229300EA2404F8EB3400F9E8FEE9FF8C828D832D
:1022A300A3A3A3A3E0F8A3E0F98E828F832274F59E
:1022B300121801E9FE900511E0FAA3E0FBEEC33327
:1022C300F8E433F974D528F582748E39F583E02A5E
:1022D300F508A3E03BF50978081219A8908FDB12E3
:1022E300162C121EC074021217548A088B098C0A0A
:1022F3008D0B7410780812154FAA08AB097F0402DE
:1023030018AD74F11218018A0C8B0D8C0E8D0F749D
:102313000F121789E0FAA3E0FB7411121789E0F595
:1023230008A3E0F5097413121789E0FEA3E0FF7810
:10233300081219A8EA2401F508EB3400F509E4F5BD
:102343000AF50B780C790812145F908F67780812DE
:10235300160E780C790812145FAA0CAB0DAC0EADF7
:102363000F121EC074021217548B09EA4509600448
:102373007A0180027A00EC2AFCED3400FDECF8EDE2
:10238300F97A717B021216B388088909E4F50AF514
:102393000B8E828F83780812161DECF8EDF97A7193
:1023A3007B021216B38A088B097405780812172B5F
:1023B3008E828F83A3A3A3A3E508F0A3E509F07F8F
:1023C300080218ADC082C083E9906000F0D083D0CA
:1023D3008222C0E074F21218EDA2AFE433FED2AF52
:1023E300E589A2E0400CE589A2E14006E589A2E483
:1023F3005003121297758900758900758900C2C54B
:10240300751A00EEA2E092AF7F0102194CC0E0748E
:10241300F21218EDA2AFE433FED2AFE58AA2E25086
:1024230003121297758A00C2EB80D5C0E0C0D0E8D2
:10243300C0E0E5A8D2AFC2C7751A00A2E792AFD039
:07244300E0F8D0D0D0E03238
:10244C00FFFFFFFFFFFFFFFFC082C083E9900A037D
:10245C00F00226D874F7121795E99002E0F07C1878
:10246C007D037AFF7BFF12085F9002E174FFF0A3FB
:10247C00F0A3E4F0A3F079051207E79002E0E0F98D
:10248C0012070F7A7D7B08120A450233E674F412A8
:10249C0017958A088B09EB548060309002E0E0F9C4
:1024AC001210A58A0A8B0BAE0AAF0BEE4F60138E7F
:1024BC00828F83E064B070031207FFEEFAEFFB1219
:1024CC001093AA08E5096480FB80047A007B000263
:1024DC0026A774F212179574FC12173EEAFEEBFF56
:1024EC0074121217891238CDEE4F700302258174C5
:1024FC0002121789EEF0A3EF1228E2ECF0A3ED1212
:10250C0028E2AA82AB83120709E9F50A706AE5088A
:10251C00450960648E828F831238B3EE4F60567A11
:10252C00067B001210F98A0C8B0DA80CA90DE8493A
:10253C007005750A13804188828983E412258EEE1A
:10254C00F0A3EF1238DEE508F0A3E509F09002E6FF
:10255C001226159002E67005123390801B12337E02
:10256C008003EAFCEBFD8C828D8312261570F38CB4
:10257C00828D8380E3750A02A90A7404121754022F
:10258C003ACDF0A3123884A32274F2121795890A5B
:10259C00E975F017A4FEAFF09002E5E4F09002E3C9
:1025AC00122615600A1210FF9002E3E4F0A3F0EE7D
:1025BC00FAEFFB1210F98A088B09EA4509602FEE35
:1025CC00FCEFFD79001210819002E3E508F0A3E521
:1025DC0009F07B0080081225FFE4F0A3F00BEBC39D
:1025EC00950A40F2E50A9002E5F079008002791331
:1025FC00023ACDEB75F017A4F8A9F09002E3E028AD
:10260C00FAA3E0398A82F58322123022EA4B227433
:10261C00F4121795740C1217891238A8FEE9FF757D
:10262C000800750900800CE5082401F508E509345B
:10263C0000F509C3E5089CE5099D503285080A851B
:10264C00090B7403780A12172BEA250AF8EB350BE1
:10265C00F988828983A3A3A3A3A3A3123465EE658F
:10266C000A7003EF650B70BFE8FAE9FB80047A008F
:10267C007B00802774F41217957900EAA2E0501BB6
:10268C0075083C75098F78081219A87C047D007AAE
:10269C00057B0A1207E174021217547F04021867B3
:1026AC00C082C0839002E61226DF601C8882898378
:1026BC00A3A3E06A7003A3E06B8882898370E8A30C
:1026CC00A3A3A312301E80047A007B00D083D08297
:1026DC00020135123BB3E8492274EE12179574FCD3
:1026EC0012173EEAFEEBFF851882851983E4F0A3EE
:1026FC00F0EE2402123370EE240512388BEE240413
:10270C00F50EEF122C97E024FE603924FC60462471
:10271C00FE605224FE605E24FE70030227F824FE45
:10272C00700302285C24FE700302286B24FE7003E5
:10273C0002287A24FC700302288924FE70030228E4
:10274C00980228D59002FF7417F0A3E41228EA121D
:10275C0004870228D5851882851983AC82AD831233
:10276C0008050228A5851882851983AC82AD8312D1
:10277C00080B0228A5850C08850D0974021217890F
:10278C00AC82AD8385088285098312301E12072D19
:10279C008A0C8B0DAC0CAD0DEC4D603BE4F50CF5DF
:1027AC000D780C1219A8750CFF750D02780C121906
:1027BC00A8750C00750D03780C1219A87408121763
:1027CC00891219BF123D2F121754E9F50C700B1218
:1027DC00301412049F800F750C01850882850983C3
:1027EC001228D8123390850C080228A874021217EC
:1027FC0089AC82AD83850C82850D83122DE9603CFA
:10280C00850C82850D83A3A31219BF7510FF75115A
:10281C000278101219A8751000751103781012198E
:10282C00A874081217891219BF123D2F121754E9F8
:10283C00F509700B1230141204A5800F750901856F
:10284C000C82850D831228D8123390850908804C90
:10285C00851882851983AC82AD83120811803A8564
:10286C001882851983AC82AD83120817802B8518CA
:10287C0082851983AC82AD8312081D801C85188259
:10288C00851983AC82AD83120823800D851882854F
:10289C001983AC82AD83120829E9F508E508602993
:1028AC008E828F83A3E06414601F850E82850F8354
:1028BC00E09002FF1228E2123BAF9003001233901B
:1028CC00E508A31228EA12048102327F123BB38579
:1028DC00188285198322F085188285198322F07C51
:1028EC00FF7D02850A82850B831230222274EE1240
:1028FC00179574FC12173E8A0A8B0B8C0E8D0FEAFF
:10290C002405F508EB3400F5097C157D0079007A77
:10291C00FF7B02121081E5082402F50CE509123840
:10292C008E85188285198385821085831178101203
:10293C0019A8850882850983A3A3A3A3122DE012ED
:10294C0019A8E5082405F510E5093400F5117810EF
:10295C001219A8850C82850D831231351207277444
:10296C00061217548A108B11AE10AF11E50A24020F
:10297C00F50AE50B123373EE4F7003022AB780177A
:10298C00740212178912301E88828983EAF0A3EB35
:10299C00F09002FFE004F09002FFE0C394054003C6
:1029AC00022AB7E4F510F51178101219A87510E881
:1029BC0075110278101219A87510E97511027810AA
:1029CC001219A874061217891219BF7910EEFCEFB0
:1029DC00FD123D31121754E9705E8508828509831A
:1029EC00A3A3A3A3A3A3A3E0F89002E8E068704814
:1029FC00122DE01219A87CE97D02E5082408FAE5FD
:102A0C00093400FB12107B7402121754E960298EF2
:102A1C00828F83A3A3A3A312301E9002FFE0F510B4
:102A2C007402781012172B74002510F5827403357C
:102A3C0011F583EAF0A3EBF074021217898582106A
:102A4C0085831178101219A874021217891219BFF4
:102A5C00850C82850D831230441217548A108B1109
:102A6C00AE10AF119002FFE0F510751100740278F2
:102A7C001012172B74FF2510F874023511F9888287
:102A8C008983A31226157003022983E824030808FE
:102A9C0008E93400F9EE4F600302298C888289839F
:102AAC0074FFF0A3F09002FFE004F09002FFE060EE
:102ABC000A1230141204937900800B850882850960
:102ACC0083123387790A02327F74EA12179574FEE7
:102ADC0012173E8C128D13EA2405F50CEB123D19DE
:102AEC001238B7750800750900EA2402F510EB34AA
:102AFC0000F51185188285198385820A85830B78E8
:102B0C000A1219A8850C82850D83A3A3A3A3122CEA
:102B1C00AD1219A8E50C2405F50AE50D12337378EE
:102B2C000A1219A8850C82850D83122CB112072765
:102B3C0074061217548A0A8B0BEA450B7003022C8D
:102B4C0052EA2404F50EEB122C971238B78A828BBA
:102B5C0083A3A3A3E0F9851082851183123028602A
:102B6C0003022C52E4F514F51578141219A87514F7
:102B7C00E875150278141219A87514E97515027800
:102B8C00141219A874061217891219BF7913AC0AFA
:102B9C00AD0B851082851183123D37121754E9F560
:102BAC00096003022C529002E8E0F8E5087009E095
:102BBC002402900300F08014900300E0FCE824024F
:102BCC00FAE43400FBEA6C7001EB707E850882AA93
:102BDC0082122DD79414122DCF506B850E82850F37
:102BEC0083E0C0E074012A122C8ED0E0F005088539
:102BFC000E82850F83A3E0C0E085080A7401250AC4
:102C0C00122C8ED0E0F005089002E8122CAD1219AF
:102C1C00A87CE97D0285080A7401250A122CA112F0
:102C2C0017549002E8E02508F50874FF6E700374E1
:102C3C00FF6F6012EE24010EEF3400FFE508C39421
:102C4C00145003022AFFE5086013123032851082FB
:102C5C0085118312301E12049979008014E50970D5
:102C6C000375090A851282851383EEF0A3EFF0A990
:102C7C000974021217547F0E02186785080C740130
:102C8C00250CF58274033400F583223400F50F858E
:102C9C000E82F58322FA74033400FB12106974025D
:102CAC00221238ED22A3A3122CB72212337EFDEE92
:102CBC00FAEFFB2274EE12179574FE12173E8C0E6F
:102CCC008D0FEA2405F50CEB12388E750B00900273
:102CDC00FFE4F0F50AEA2402F508EB3400F509806C
:102CEC00449002FFE0FA9002E8E0F8122DD7941716
:102CFC00122DCF400D9002FFE0F87416C39890028D
:102D0C00E8F0122DE01219A87CE97D0274002AFA71
:102D1C007403122CA41217549002E8E0F89002FFEE
:102D2C00E028F0050AE50C2416F582E50D122C922C
:102D3C00E0F8E50AC39850749002FFE0C394165073
:102D4C006BE50AC333F8E433F9E50C28FEE50D39DD
:102D5C00FF851882851983AC82AD838E828F831296
:102D6C002DE97008750B011233838050E4F510F5D2
:102D7C001178101219A87510E87511027810121933
:102D8C00A87510E975110278101219A8740612179B
:102D9C00891219BF7916850882850983123D37126D
:102DAC001754E9F50B7003022CED80BB7CFF7D0200
:102DBC0085088285098312301E1204ABA90B74029C
:102DCC00023281E99400C365D03322EA28F8E43456
:102DDC0000F9E822E0F51075110078102212327615
:102DEC008A108B11AC10AD11EC4D2274EA121795B0
:102DFC0074FC12173E8A0C8B0D8C128D13EA240571
:102E0C00F50AEB123373750800750900E50A240204
:102E1C00F510E50B3400F511740212178985820E3A
:102E2C0085830F780E1219A8850A82850B83A3A3BC
:102E3C00A3A31238931219A8E50A2405F50EE50B85
:102E4C003400F50F780E1219A885108285118312A3
:102E5C00337912301812072774061217548A0E8B06
:102E6C000FAE0EAF0FE50C2402F50EE50D3400F598
:102E7C000F80388882898374FFF00508122C8774C0
:102E8C00FFF005089002E8E0F50C750D00780C12C7
:102E9C0019A87CE97D0285080C7401250C122CA163
:102EAC001217549002E8E02508F508EE4F60278EC3
:102EBC00828F83A3A3A3E0F9850E82850F83123042
:102ECC0028EE240412388BE96027850C82850D834B
:102EDC0012300A123390E5087003022FF0123032D0
:102EEC00850E82850F8312301E1204B179000230D8
:102EFC0005E4F514F51578141219A87514E8751570
:102F0C000278141219A87514E9751502781412199F
:102F1C00A874081217891219BF7911EEFCEFFD8500
:102F2C000E82850F83123D37121754E9F509709AFA
:102F3C00850882AA82EA9002E87009E024049003D2
:102F4C0000F08025E0F8900300E0F514E82404FC80
:102F5C00E43400FDEC65147001ED7081122DD794F2
:102F6C0012122DCF4003022EE9850C82850D83E0D1
:102F7C00C0E074012A122C8ED0E0F00508850C827A
:102F8C00850D83A3E0C0E0122C87D0E012304D8574
:102F9C00820C85830D780C1219A8740412178912EF
:102FAC0019BF8510828511831230441217548A0C74
:102FBC008B0DAE0CAF0D85080C7401250CF8740349
:102FCC003400F9EE4F7003022E7F85188285198329
:102FDC00E08882898312304DA3E0C0E0122C87D0A8
:102FEC00E0022E8DE509700375090A850A82850BAE
:102FFC008312300A123390A9097404022C7F123BFD
:10300C00B3851282851383227CFF7D02850A82851B
:10301C000B8312302222E0FAA3E0FB2212302212A0
:10302C000715E9F50922900300E0F5F0E508849016
:10303C0002FFF07CFF7D0222122CB71207337404BE
:10304C0022F005088518828519832274EC121795D5
:10305C0074FE12173E8A088B098C0E8D0FEA24051C
:10306C00FEEB3400FF123260EE241812388BEA4566
:10307C000B700302310312324950291231288A1085
:10308C008B11EA4511606B7912AC0AAD0B85088285
:10309C0085098312301E851082851183121793E9DE
:1030AC00F50A7058E4F50AF50B780A1219A88E8205
:1030BC008F83A3A3E0F50A780A1219A8EE24031251
:1030CC003370780A1219A88E828F83123135120848
:1030DC004D7406121754E9F50A7021850C82850D82
:1030EC0083E0701F85088285098312301E1204B795
:1030FC008011750A0E8009750A018004E50A6003C7
:10310C00123383850C82850D83E060047900800284
:10311C00A90A74021217547F0C021867851882854D
:10312C00198312302212083B2212337EFD8508824D
:10313C008509831230222274EE12179574FE121731
:10314C003E8A088B098C0C8D0DEA2405FEEB3400AD
:10315C00FF750E00123260EA450B70030232271223
:10316C003249502C1231288A0E8B0FEA450F604AD7
:10317C007912AC0AAD0B85088285098312301E8545
:10318C000E82850F83121793E9F50E600302322A23
:10319C00850882850983123465AA0AFB12323B70BA
:1031AC00147AFF7BFF12323B606C88828983E50ABC
:1031BC00F0A3E50BF0750A008007750E0E805F0515
:1031CC000A9002E5E0FAE50AC39A504AE50A75F05E
:1031DC0017A4FAABF088828983A3A3E02AFAA3E0B0
:1031EC003BFB8A828B83123379EC4D70D2750A17B4
:1031FC00750B00780A1219A8EEFCEFFD1210697419
:10320C0002121754EEFCEFFD8508828509831230FB
:10321C001E1204BD8014750E098003750E01123B3D
:10322C00AB850C82850D83123390A90E022DCA1228
:10323C00082F8A108B11A810A911E84922E508243F
:10324C0002F508E5093400F5098A828B83A3A3A350
:10325C00E0A2E522851882851983AC82AD838E822B
:10326C008F831232768A0A8B0B22E0FAA3E0FB12D0
:10327C00072D2274041217547F0A02186774EC127B
:10328C0017958C108D11EA2405F50CEB12388E7500
:10329C000F00EA2402F50AEB123373850A82F583D8
:1032AC0012301E123DBD7003023365750E00807125
:1032BC00850C82850D83E06401704F8E828F83A311
:1032CC00A31219BF8E828F83A3A3A3A3E0F512755B
:1032DC00130078121219A8EE2405F512EF3400F53C
:1032EC001378121219A812301812084D74061217FE
:1032FC0054E9F50F6014850C82850D83E4F0123BC4
:10330C00AB8510828511831233907C177D00790078
:10331C00EEFAEFFB1210818E828F83E4F0A3F0059E
:10332C000E9002E5E0F8E50EC398501EE50E75F020
:10333C0017A4F8A9F0850882850983A3A3123D235D
:10334C00123379EC4D60030232BC85088285098307
:10335C0074FFF0A3F0E50F70061230181204C3A925
:10336C000F023123F50AEF3400F50B22A312337E42
:10337C00FD22E0FCA3E0228E828F83123BB3850EEC
:10338C0082850F83E8F0A3E9F022C082C08390020B
:10339C00E1E06A7003A3E06B70067AE17B028004C3
:1033AC007A007B000226D874F71217957F00EF7510
:1033BC00F003A4F8A9F0EC28F8ED39F98882898398
:1033CC00E06A7003A3E06B7006E8FAE9FB800B0F70
:1033DC00EFC3940240D87A007B007F010218677417
:1033EC00F612179512399C70067A007B008007A3A1
:1033FC00A3A3A312301E023A5D74F2121795E9FED4
:10340C00740E12178912346574101217891238CD84
:10341C008C828D83E06402703BA3123BAF8882895F
:10342C0083E0F50CA3E0F9A80C740268700374290E
:10343C00697021750C02750D00780C1219A87808AA
:10344C001219A8780A1219A8EEF91208717406124A
:10345C00175480027901023ACDE0F50AA3E0F50B8E
:10346C002274E812179574FB12173EE985188285B1
:10347C001983F08A168B178C0E8D0F741F121789F7
:10348C001238CD74211217891234657423121789DE
:10349C001238B77510008C828D83A3A3A3E0A2E42D
:1034AC00502A741D12178912312E8A828B83E58261
:1034BC0045837003023579790AAC0EAD0FAA16ABB1
:1034CC0017121793E9F510600302357C850E82857F
:1034DC000F83E064026003023832A3123BAF85080D
:1034EC0082850983A3858212858313E50E2406F554
:1034FC000CE50F12388E88828983E0FAA3E0F9EA92
:10350C002400F514E439F5157814121A3201000070
:10351C002801284135070002281836032888350071
:10352C0029423701296A3702291137032942370406
:10353C0029D3373238EE4F703E850C82850D8312BD
:10354C0038A8FAE9FB8A828B83E0850A82850B8393
:10355C001238E41219A88A828B83A312337EFDAA37
:10356C0008AB091210697402121754800375100EFF
:10357C00A9107405023D1175100B80F4EE4F70F715
:10358C00850A82850B837401F01238BD850882850B
:10359C000983F07C007D00850E82850F83A3A3A395
:1035AC00A3E02401FAA3E03400FB12072DEA4B60E0
:1035BC00418A828B83E02402F8850A82850B83E0A2
:1035CC0028F0EA2404F8EB3400F988828983E0853A
:1035DC0012828513831238F61238E41219A88A82E3
:1035EC008B83123378E5082403FAE5093400FB02D7
:1035FC00356F850A82850B83E02404F07C047D0002
:10360C007900AA12AB1312108102357CEE4F6003C5
:10361C000235831238BDFEA3E0FF850A82850B8339
:10362C007404F0EE850882850983F0EF851282859B
:10363C001383F07403121789AC82AD83EEFAEFFB9F
:10364C0012398A70030236EE8A828B83A3A3123856
:10365C00B3740112178985820E85830F780E1219A7
:10366C00A874051217891219BF7CFF7DFF1207334E
:10367C0074041217548B0FEA450F7033850C828536
:10368C000D831238931219A8850C82850D83A31211
:10369C0019BF7C027D007A047B9012055F740412C2
:1036AC001754E9700A740112178974FFF0A3F08E95
:1036BC00828F83E064027034750C02750D00780CF7
:1036CC001219A88E828F83123378E5082404FAE548
:1036DC0009122CA4121754850A82850B83E024024C
:1036EC0080097401121789EEF0A3EFF07401121720
:1036FC00891238A4F07401121789A312389CA3A361
:10370C00A3F002357CEE4F6003023583850C828575
:10371C000D83123379AA16AB17120865850A8285B8
:10372C000B837402F0EA850882850983F085128286
:10373C00851383EB80CBEE4F60030235831238BDCB
:10374C00F8A3E0F9850A82850B837402F0E88508FA
:10375C0082850983F0E985128285138380A3850C09
:10376C0082850D8312301E121063EAFC8C82A882B3
:10377C00C39EE49F404BE86E7001EF70047C0080A8
:10378C001F851882851983E0FAEE2AFAEF3400FBC4
:10379C00C3EA98EB94005003E08004EECCC39CFC8D
:1037AC00EC850A82850B83F08C0A750B00780A1263
:1037BC0019A8850C82850D83E02EFCA3E03F023511
:1037CC006A75100702357CEE4F6003023583850C59
:1037DC0082850D83123BAF850A82850B837407F0BB
:1037EC008882898312389C123884E0851282851372
:1037FC0083F0E82402FAE93400FB8A828B831238C6
:10380C009C1238D51238A4A31238DE1238ADF0E869
:10381C002405F8E93400F9888289831238ADA312A3
:10382C0038F6A302370A741D1217891239957003E2
:10383C00023579123BAF880C890DE8450D700302F7
:10384C0035798E108F1178101219A8780A1219A8D0
:10385C0078081219A87406121789E0F9AC0EAD0F8E
:10386C00AA16AB17850C82850D831217937406125A
:10387C001754E9F51002357CF088828983A322F570
:10388C000CEF3400F50D22E0F50E750F00780E22CA
:10389C00E0850882850983221238FD22123BB3E8A9
:1038AC00221238FDA3A322A3A3A3A3E0FEA3E0FF4F
:1038BC0022850C82850D83E0F8A3E0F5838882E0F5
:1038CC0022E0F508A3E0F50922A3A3F08A828B83FA
:1038DC00A322122590A3A322F08A828B831238EDA7
:1038EC0022E0F50A750B00780A221238841238FD92
:1038FC0022E0850882850983A3A32274EE12179512
:10390C0074FE12173E8A0A8B0BECFAEDFB74141240
:10391C001789E0F510A3E0F5117416121789E0FE73
:10392C007418121789E0F50EA3E0F50F851882853F
:10393C001983AC82AD8312398A603E851882851951
:10394C0083123995602FA3A31238CDE50845096081
:10395C0024780E1219A878101219A8EEF9AC0CAD37
:10396C000DAA0AAB0B850882850983121793740480
:10397C001217548006790E80027901022DCA1207A3
:10398C002D8A0C8B0DEA450D2212302212399C2205
:10399C001207F98A828B83E58245832274F612170B
:1039AC009574FE12173E740C1217891238A88518DC
:1039BC0082851983F07401121789E9F0E4F508F592
:1039CC000978081219A875080278081219A8740445
:1039DC0012178985820885830978081219A812089C
:1039EC004D74061217547402121754806474F71233
:1039FC001795EAFEEBFF89087C187D03120865EA2F
:103A0C005402600BA908EEFAEFFB12072180027931
:103A1C00010233E674F612179574FF6A700374FF93
:103A2C006B701C7B00EB75F003A4F8A9F0EC28F884
:103A3C00ED39F9123A620BEBC39402501480E61282
:103A4C0008358A088B09A808A909E8496003123AC5
:103A5C00627F020218678882898374FF12258EE4C4
:103A6C00F02274F61217951208358A828B83E58240
:103A7C0045836006A3A3E0FA80027A007B0080D124
:103A8C0074F21217958A088B09ECFEEDFF740E1276
:103A9C001789E0F50A123AD2701CEEFCEFFD7AFFA2
:103AAC007BFF123AD270047911801688828983E5E3
:103ABC0008F0A3E509F088828983A3A3E50AF079CD
:103ACC00007F060218671208358A0C8B0DA80CA90A
:103ADC000DE8492274EE121795EAFEEBFF8C088D67
:103AEC0009890C7412121789123BAF7414121789BE
:103AFC00123379741612178912301E750D00EC4DA5
:103B0C006003023BA37402650C6003023B9E888237
:103B1C00898312337EF9EC2400F50EE439F50FEAB3
:103B2C00F4F8EBF4F9EC58F8E50F59F9E849705D45
:103B3C00E5082406F8E5093400F9880A890B88821F
:103B4C00F583122CB31208658A108B11E50E6510E3
:103B5C007004E50F65116042780E1219A8850A826F
:103B6C00850B83122CB312086B7402121754E9F5EF
:103B7C000D7027780E1219A8850882850983A3A3D6
:103B8C00122CB11208837402121754800D750D801B
:103B9C008008750D0D8003750D0BA90D0232848EF6
:103BAC00828F83123BB322E0F8A3E0F92274E8126F
:103BBC00179574E712173E851882851983EAF0A3CE
:103BCC00EBF08C168D17890E7431121789E0F512F3
:103BDC00A3E0F5137433121789E0F514A3E0F5157F
:103BEC007435121789E0F50F750800750900E509A1
:103BFC0075F003A4F8A9F0851882851983123D236A
:103C0C00E0F47003A3E0F47003023D01EE2402F52E
:103C1C000CEF123D19E07003023D0185160A851761
:103C2C000B780A1219A8AC14AD15AA12AB13120713
:103C3C00ED74021217548A0A8B0BEA450B700302BF
:103C4C003D01E4F510F51178101219A8740612173D
:103C5C008985821085831178101219A8740912179E
:103C6C008985821085831178101219A88512828596
:103C7C001383A3A3A3A31219BF7914AC0AAD0B8EA3
:103C8C00828F83123D37121754E97069850A828539
:103C9C000B83A3A3A3A3123BAF7402121789123395
:103CAC0090850C82850D83E0A2E05018A90E740259
:103CBC00121789AC82AD838E828F8312301E12074D
:103CCC0045E94208850C82850D83E0A2E15026E58A
:103CDC000FF50A780A1219ACA90E7403121789ACE5
:103CEC0082AD838E828F8312301E12073F740112B5
:103CFC001754E942080509E509C394025003023B35
:103D0C00FAA90874191217547F100218673400F5B9
:103D1C000D850C82F58322E028FEA3E039FF8E820C
:103D2C008F83227916850A82850B83123022120822
:103D3C004774082274F2121795EAFEEBFF890B7494
:103D4C0001650B600E7402650B70637901120A63D6
:103D5C00E9705BEEFAEFFB123DBD6047750A00801F
:103D6C000B7C177D007900121081050A9002E5E0AA
:103D7C00F8E50AC3985021E50A75F017A4F8A9F0E4
:103D8C00850882850983A3A3E028FAA3E039FB8A7E
:103D9C00828B831226DF70C985088285098374FFA4
:103DAC00F0A3F07C187D03EEFAEFFB12085F023AE9
:103DBC00CD12082F8A088B09EA45092274F21217D2
:103DCC00958A088B09ECFEEDFF740E1217891234DC
:103DDC0065900A03E0F4603D7A097B0012108DEACD
:103DEC004B60328A828B8374B1F0A3E41238D7A370
:103DFC001238D5A3E508F0A3E509123E24EEF0A392
:103E0C00EF123E24A3A3E50AF0A3E50BF0900A03FE
:103E1C00E0F9121099023ACDF08A828B83A3A3A306
:103E2C00A3A322C082C0839061907404F0A3744851
:103E3C00F0A3E4F09061807440F09061BC7407F0E2
:103E4C009061877469F09061B67416F07900120B6A
:103E5C00597902120B5F90244CE493F46006E493BE
:103E6C00F9120B357905120E4D02423AC082C0830D
:103E7C00E9540FF9906185E0696012E5C6548044FD
:103E8C0049F5C6E59E547F644970F8E9F053C68045
:103E9C00E59E547F70FA02423A74F7121795E5A822
:103EAC00FE53A87E120B41C2BA539AFEC289759B6F
:103EBC0000C2C2120B4775A91175B905120B4DD270
:103ECC00BA439A0174805E42A80247C8C082C0837C
:103EDC00906181E4F0A302423775E9007591007599
:103EEC00BF00020135C082C083906181E4F0A374ED
:103EFC00C0F0A3E4024239C082C08374F812173EAA
:103F0C009003C41246AAE8497003023FBA9003C456
:103F1C00E0544060237908851882851983AA82AB06
:103F2C0083120C49851882851983AA82AB831208E7
:103F3C00F59003C4E054BFF0E054806010790C7A23
:103F4C007D7B05120C499003C4E0547FF0E0A2E0A5
:103F5C0050087900123FC254FEF0E0540260087918
:103F6C0001123FC254FDF0E0540460087900123F86
:103F7C00CD54FBF0E0540860087901123FCD54F7A2
:103F8C00F0E0541060087902123FCD54EFF0E05489
:103F9C002060087903123FCD54DFF0A3E054016098
:103FAC000D120B6B1209079003C5E054FEF0740858
:103FBC0012175402423A120B591208FB9003C4E038
:103FCC0022120B5F1209019003C4E022C082C0834D
:103FDC00E9600514602A804F90619A7433F0A374E1
:103FEC0055F09061A0743AF0900559E064017009A5
:103FFC00C2919003C67467802D9003C674618026AD
:10400C0090619A743FF0A3745AF09061A0747FF0A1
:10401C00900559E064017009D2919003C6747180C7
:10402C00059003C6746AF002423AC082C083E9600C
:10403C000B14600D14600F146011802090245080BC
:10404C00159024518010902452800B900559E064F7
:10405C000160F3902453E493906186F002423A7429
:10406C00EE12179574F412173E851882851983ACDD
:10407C0082AD8375838F7582B774041216519024A8
:10408C005093F460030241FD907808E0C394025011
:10409C00030241DD7404121789AC82AD8375838FE2
:1040AC007582167408121651F97AFF7BFF7FFF7E1A
:1040BC00008982858210801874086E700302419208
:1040CC0074096E7003024192740A6E70030241927D
:1040DC00E510C333FCE433FD7404121789E5822C1C
:1040EC00F582E5833DF583E0F50EA3E0F50F8E0830
:1040FC007509007402780812172B74482508FC7493
:10410C00783509FD8C828D83780812160E74087828
:10411C000812154F85080C85090D8C828D83780843
:10412C0012160E7418780812154FE50C4508F50890
:10413C00E50DF509C3E50E9508E50F95098C828D03
:10414C0083780812160E8C828D83780812160E74E2
:10415C00187808401412154FE50C4508FCAD0DE518
:10416C000EC39CFCE50F9D800F12154FE50C450806
:10417C00C3950EFCE50D950FFDC3EC9AED9B500617
:10418C00ECFAEDFBEEFF0EEEC3941350030240C4A9
:10419C0074FF6A700374FF6B602D8F0874027808CB
:1041AC0012172B7448124E5674783509F58378081B
:1041BC0012160E851882851983E5822510F582E585
:1041CC0083124BE3E508F009E9C394045003024061
:1041DC00B575080175090078081219A87402121730
:1041EC0089AC82AD837A147B091212737402121794
:1041FC0054740C1217547F0A021867C082C0839043
:10420C00618674D5F09061AE7468F0A3746AF09016
:10421C00624574FBF0A304F053F4FD43FE029005D9
:10422C00597401F07900120B598003F0A3F0D0837C
:10423C00D082020135C082C08375E1F190050EE099
:10424C00604E14600814605214604A8052120B774E
:10425C00900504E0F97A057B05120DCF908FAF1213
:10426C00162C120E05908FC312162C120DDB900516
:10427C000FE0F9120DE77901120E41900502E024CE
:10428C00161243D0748FF0A3740BF0790002423AEB
:10429C00120B7D80BB120B8380B6120B8980B17917
:1042AC001280EA74F412179575D90D9004F4E0A2FB
:1042BC00E0E4331313F812433C484401F5D9780079
:1042CC001243BA40FB7800880874F5124E567404F9
:1042DC001243C440F275E1959004F4E0F97AF57B51
:1042EC0004120DD5900A25740BF0A3740B1243DF46
:1042FC001243FF1243F61245371243467808121642
:10430C000E908F7B780812159A908FBF7808121533
:10431C00E81243CA780812161D900502E024141204
:10432C0043D07413F09003C27402F07F0402186738
:10433C00900504E0C4333354C022900502E0F8A386
:10434C00E0F5838882A3A32274F612179512450810
:10435C008AD978001243BA40FB7800800612446E6A
:10436C001245BAE8C39940F51244FA1243BA40FB1D
:10437C0078008008124E5274051245BAE8C3994071
:10438C00F375E195900A257417F0A3740B1243DFB3
:10439C001243E912162C1243CA121638900502E089
:1043AC0024141243D07412F09003C20247A588085B
:1043BC0074052508F582740512471694062290059B
:1043CC0002E0240EF8A3E01243D7223400F98882CD
:1043DC008983221245207411F0A3740B221243FF1F
:1043EC001243F612453B908FDF22F0A37429F0A301
:1043FC00740B221244032212440722F0A374B5F06A
:10440C00A3740C2274F612179512446312433C44A5
:10441C0002F5D978001243BA40FB780080061244AA
:10442C006E1245BAE8C39940F575E195900A2512CC
:10443C004479F0A31244791243EC12162C1243CA9D
:10444C00121638900502E024141243D07414F09024
:10445C0003C274040247A7900514E0F9740729F508
:10446C00D922880874152508F58274052274231244
:10447C004486124486F0A3740B22F0A3740BF0A3B1
:10448C0074232274F612179512450874064AF5D94E
:10449C0078001243BA40FB7800800612446E124535
:1044AC00BAE8C39940F51244FA1243BA40FB7800BB
:1044BC008008124E5274051245BAE8C39940F37540
:1044CC00E195900A25741DF0A3740B124516124346
:1044DC00E912162C1243CA121638900502E0241465
:1044EC001243D07415F09003C274030247A79005D1
:1044FC003412446674044AF5D9780022124463904D
:10450C000504E0C4333354C0FA2212452074B5F0CC
:10451C00A3740C221245242212453174B5F0A374F5
:10452C000C12453122124407F0A32212453B22F013
:10453C00900A3374B5F0A3740C12452474B5F0A32F
:10454C00740C124403F022C082C083124346A3A30E
:10455C00A3A3E402423774F7121795125098F8741B
:10456C000339F9E82405FAE93400FB8A828B8312BB
:10457C004E0788828983A3A3A3A3A3A3A3A3A3EC1D
:10458C00F0A3EDF088828983A3A3A3A3A3A3A3E044
:10459C0024FFF8A3E034FFF98A828B83E8F0A3E9C7
:1045AC00F00247C88808745D2508F5827405124D21
:1045BC002EF5D90822EAFEEBFF9061D0E0F874806A
:1045CC00C398FAEE2483221245D9940422124BF19B
:1045DC00E0F5D90AEAC32274F6121795EAFEEBFF4E
:1045EC009061D0E0707575D90E75D90375D9047AC0
:1045FC00008A08EE2508125166248C12467C40F184
:10460C007A008A08EE250812516624841245D3409C
:10461C00F175E1957908EE248C12467524841246C6
:10462C006C7C008C82AA82C3E49AF895E0F9EE289F
:10463C00F8EF39F9E8248BF582E9124D2AC0E0EE47
:10464C002A12516624ABF582E9124BE3D0E0F00C50
:10465C00ECC3940840CD124732800279000247A87F
:10466C00FAEF3400FB120C3D2212466C7904EE2258
:10467C001245D9940822C082C08375D90275D9031A
:10468C0075D90575E195EA2470F582EB1246A7EA17
:10469C002472F582EB12474402423A124BF4124652
:1046AC00AE22E0F8A3E0F92274F6121795EAFEEBBD
:1046BC00FF90055D74061247201219A87C0179033E
:1046CC00124A4C12175475D90675D9037800124743
:1046DC000640FB75E1959003C2E064087017EE2468
:1046EC0070F582EF1246A7EE2472F582EF124BE3BF
:1046FC00E8F0A3E9F079010247A88808745D250861
:10470C00F5827405124716940522124BF4E0F5D984
:10471C0008E8C322F075085D75090578082275E173
:10472C00957904120E0BEE2470F582EF124BF412F5
:10473C0046AEEE2472F582EF124BF4E8F0A3E9F0EA
:10474C0079012274F6121795EAFEEBFF9061D0E026
:10475C007043790190055D740BF09003C2E064071F
:10476C00701775085D75090578081219A87C010980
:10477C0009124A4C1217547905740129F5D975D9C7
:10478C0003780080031245B0E8C39940F875E195B1
:10479C001247328002790080037401F07F02021804
:1047AC006774F7121795EAFEEBFF75D90375D903F9
:1047BC0075D90DEE24DE1247CD12472A7F0102185F
:1047CC0067F582EF124D2EF5D9227F03021867741C
:1047DC0001250AF5D975D90378002274F5121795BD
:1047EC0012485C6004780480027800E8240BF8EA34
:1047FC00C3984041750A0990055D7409F079081257
:10480C004845601475085D75090578081219A812D9
:10481C004A44121754750A0D1247DB80031245B037
:10482C00E8C3950A40F775E1957904120E0B12490D
:10483C00C17901800279008091EE24E3FCEF340011
:10484C00FD7A5E7B05120C37850882850983E02290
:10485C001245C1F8EF124DFBF583E02274F31217E9
:10486C00958A088B09124A57FAE5082483F50AEB56
:10487C001249266004780480027800E82408F8EADB
:10488C00C398500302491F750C0690055D740CF01B
:10489C009003DFE090055EF07402C0E0F97CE07DEF
:1048AC00037A5F7B05120C37D0E0F97CE27D0312B2
:1048BC000C37850A82850B83E0601C750A5D750BCD
:1048CC0005780A1219A87C067903AA08AB09124AC2
:1048DC004C121754750C0A7401250CF5D975D903B3
:1048EC0078008009880A745D250A1245B6E8C395DC
:1048FC000C40F175E1957904120E0BE5082470F566
:10490C0082E5091246A7E5082472F582E5091247EB
:10491C0044800279007F050218673400F50B850A84
:10492C0082F583E02274F6121795EAFEEBFF124A29
:10493C0057FCEE2483F8EF124A5260047A0480028A
:10494C007A00EA2404FAECC39A405E7A0290055D80
:10495C00EAF0EE24F5F582EF1249CD601975085D89
:10496C0075090578081219A87C027903EEFA124A27
:10497C004C1217547A0674012AF5D975D9037800AC
:10498C0080031245B0E8C39A40F875E195EE2474A3
:10499C001249BAEE24801249BA1249C17904120E96
:1049AC000BEE240D124735800279000247A8F582E0
:1049BC00EF124B3D22EE241DF582EF124B3DA3F07E
:1049CC0022124D2E90055EF088828983E02274F6C7
:1049DC00121795124A57FEEA2483F8EB124A5260DA
:1049EC00047C0480027C00EC2404FCEEC39C404359
:1049FC007C0290055D7407F0EA24F6F582EB12490F
:104A0C00CD601575085D75090578081219A879032C
:104A1C00124A4C1217547C0674012CF5D975D90323
:104A2C00780080031245B0E8C39C40F875E1957995
:104A3C0001800279000247A87C097903EEFAEFFBAA
:104A4C00120CA97402221243D7E0229061D0E0F834
:104A5C007480C3982274F5121795E9FEA2AFE43363
:104A6C00F50AC2AF7F00EA246FF8EB3400F980013D
:104A7C000F88828983E0FCEFC39C50188F08EA25CD
:104A8C0008FCEB3400FDEC246BF582ED124D2A6E24
:104A9C0070DE8010EA2CFAEB3400FB124BDDEE12C8
:104AAC0049D304F0E50AA2E092AF0247D674F6129D
:104ABC001795A2AFE433FFC2AFEA246FF8EB1251A3
:104ACC0068FCE9FD8C828D83E014F07E0080218EE1
:104ADC0008EA2508F8EB125168246CF582E9124DAE
:104AEC002AC0E0E8246BF582E9124BE3D0E0F00E2B
:104AFC008C828D83E0F8EEC39840D4EA246E124B7E
:104B0C00E074FF124B32EFA2E092AF0247A8C082D2
:104B1C00C083E5A8F8C2AF124BDDE9124B32E8A214
:104B2C00E792AF02423AF0EA246AF582EB124B3D6F
:104B3C0022124BF4E4F02274F21217958C828D83BE
:104B4C00A3A3A3A3E0541FF0EA2436124E9F8E8237
:104B5C008F83E4F0F50C850C8285820AEC250AF82B
:104B6C00ED124DF7F583E0C0E0EA250AF8EB124BA5
:104B7C00E7D0E0F0750D00850882850983E0F50A21
:104B8C00750B00E50D780A12170CE50AA2E0502A05
:104B9C00E50C33333354F8250DC0E08E828F83E05F
:104BAC00F8EA28F8EB1251682438F582E9124BE345
:104BBC00D0E0F08E828F83E004F0050DE50DC394F8
:104BCC000840B4050CE50CC39405408A7F06021816
:104BDC0067EA246BF582EB124BF4223400F9E824DB
:104BEC005D124BF122F582E93400F5832274F61242
:104BFC0017959003ECE0640170077A007B00024D7E
:104C0C00247E009003F2E070F17401F0A3E4F0A3B1
:104C1C00F090045204F0900455E4F0A3F090045882
:104C2C0004F09003F5E4124D3B9003FF04F0900464
:104C3C0025E4F0908F8312162C90040812163890ED
:104C4C00040CE4F0A3F0A3F0900470F0900464F072
:104C5C009004597480F0A3E4F090045FF090045732
:104C6C00F09004DB124D339004E4F0900473F09058
:104C7C0004C3F0A3F0908F8312162C9004C5121667
:104C8C0038908F8312162C9004C91216389004CFCA
:104C9C00E4F09004D1F09004CDF09004E7124D3381
:104CAC008E08745B124E567404124BE374FFF00EB4
:104CBC00EEC3940440EA7E008E82A88274FB28F531
:104CCC00827404124D2AC0E0744D28F582740412CB
:104CDC004BE3D0E0F00EEEC3940540DC7E008E82F8
:104CEC00A88274D628F5827403124D2AC0E074D3BE
:104CFC0028F5827404124BE3D0E0F00EEEC3940856
:104D0C0040DC9003ECE004F0640170089003F4E0E4
:104D1C009003EEF07AF07B030247A8F582EF124D78
:104D2C002E22124BF4E022124D3BA3124D3B22F0EB
:104D3C00A3F0A3F0A3F022C082C083EA2403F5827F
:104D4C00EB124D2A6008E4F09003EDE014F09003B0
:104D5C00ECE014F070069003EE74FFF08A828B8303
:104D6C00A3A3E4F0900500E0700D9003EDE0640166
:104D7C0070057900120DED02423AC082C083900397
:104D8C00F3E4F09003F2F09003ECF0A3F0A374FFC3
:104D9C00F075E1F102423AC082C08378007900904C
:104DAC0003F3E0600478F0790388828983A3A3A3DA
:104DBC00A3E0F902423A74F6121795EAFEEBFF12E1
:104DCC000BEFEE2465F8EF124DF7124E05EC4D602B
:104DDC00109003EE125090850882850983E4F0A3AD
:104DEC00F0EEFAEFFB120CDF0247A8124DFB223457
:104DFC0000F988088909888222F583E0FCA3E0FD8C
:104E0C002274F7121795EAFEEBFF8E828F83A3A311
:104E1C00A3A3E0FA7B0012096DEEFAEFFB120C0172
:104E2C00120CC10247C874F61217957800880874E2
:104E3C00D6124E5674031249BD08E8C3940840EDCF
:104E4C009003D60247A5880874352508F58222748C
:104E5C00F6121795EA240D124E9FEC2403F8ED344C
:104E6C0000F988088909EC2407F8ED125168FCE96F
:104E7C00FD124EA91216B38E828F83E8F0A3E9F0CF
:104E8C00124EA91216B38B09EA45096003124EBCE7
:104E9C000247A8F8EB3400F9E8FEE9FF228C828D7A
:104EAC00831246AE850882850983E0FAA3E0FB22D3
:104EBC008E828F83E02401F0A3E03400F02274F69C
:104ECC00121795EA242EF582EB3400124E05EA24D3
:104EDC0070124E9F780079FAECFAEDFB1216B38E35
:104EEC00828F83E8F0A3E9F0780079FAECFAEDFB15
:104EFC001216B38B09EA45096003124EBC0247A88F
:104F0C0074F0121795EAFEEBFF74101217897808EB
:104F1C0012160E120D998A0C8B0D8C0E8D0F908F14
:104F2C0073780C12159A908FBF780C1215E8780CC8
:104F3C001219A48E828F8312434912162C122164EB
:104F4C007404121754E96003024FF48E828F83E0CD
:104F5C002402F8A3E0125168FAE9FB8A828B837869
:104F6C00081215AD908FBF780812160E8A828B83AB
:104F7C0078081215FBEE240BF582EF124BE3C0827E
:104F8C00C0838E828F83A3A3A3A3A3E02401F8A3E1
:104F9C00E03400F9D083D082E0687003A3E069703C
:104FAC000479018045EE2407F8EF1243D7124EC066
:104FBC00EE247412516D7014EE2475124FFB7003B5
:104FCC00A3E06D70078A828B83124EC0EE24801290
:104FDC00516D7014EE2481124FFB7003A3E06D70C1
:104FEC00078A828B83124EC079007F08021867FAF9
:104FFC00EF3400FB8A828B83E0FCA3E0FD8882897E
:10500C0083E06C2274F3121795125098FE740339D6
:10501C00FFEE2404F50AEF3400F50BEE2465F508D9
:10502C00EF3400F5098010124E078508828509833C
:10503C00E4F0A3F012508A850882850983124E078A
:10504C00EC4D6030EE2464124D27F50C780C1219DF
:10505C00ACEE2463124D27F9EEFAEFFB120C2B7415
:10506C0001121754E985088285098360BA1246AA91
:10507C00E84970077C007D0012508A024921850A9C
:10508C0082850B83E0FA7B0012092B229003EEE061
:10509C00F875F004A4C8AAF02AF974F0282274F266
:1050AC00121795EAFEEBFF890A740E121789E0FAC3
:1050BC00EE246212516D6003025161124A57F50CD5
:1050CC00EE2483124D27FB6004780480027800895B
:1050DC0008E928F8E412516824020808E93400F9B8
:1050EC00E50C98E499A2D265D0334065EA70057559
:1050FC000B028003750B01EB603375090078081205
:10510C0019A87A5D7B05120C73740212175475087A
:10511C005D75090578081219A8AC0AA90B124A4842
:10512C001217547404250AF50A7C5D7D057401255B
:10513C000AF5D9850BD97800800A8808EC124E56EE
:10514C00ED1245BAE8C3950A40F075E195790080F7
:10515C00067907800279FF024BD8F8EF3400F9E8A2
:10516C0022F582EF124D2E640122C082C08380038F
:10517C001251A4E9F874FF28190470F4ECFAEDFB51
:10518C0002423AC082C08380031251A4E9F874FF32
:10519C0028190470F402423A8C828D83E08A828B47
:1051AC0083F08C828D83A3AC82AD838A828B83A3A4
:1051BC00AA82AB832274F4121795E9FF7E008A0849
:1051CC008B0978081219EC00040D5E53F45110523F
:1051DC0025523A524F52645280529952AB52D95284
:1051EC00E852045320533E5374016F70128C828D1D
:1051FC0083E0C394035008E0900AEFF002537C7EE6
:10520C001802537C74026F70F68C828D83125A9E36
:10521C00900AF0E8F0A3E980E274016F70E18C82EF
:10522C008D83E0C3940250D7E090077E80CD74014B
:10523C006F70CC8C828D83E0C3940550C2E09007D4
:10524C007F80B874016F70B78C828D83E0C3940239
:10525C0050ADE090078080A374106F70A275081099
:10526C008E0978081219A87A817B07125E691217C9
:10527C005402537C74016F70868C828D83E0C394CE
:10528C0002400302520BE090079102520774016F27
:10529C00600302520B8C828D83E0900AF3808D7434
:1052AC00046F600302520B908FDB780812160E8D80
:1052BC00838C827808121430400302520B8C828D3E
:1052CC008312162C90079312163802537CEF60034E
:1052DC0002520B1212011211F502537C74016F6011
:1052EC000302520B8C828D83E0C394024003025262
:1052FC000BE090079202520774016F600302520B8D
:10530C008C828D83E0C3940A400302520BE0900A16
:10531C00F202520774016F600302520B8C828D8370
:10532C00E024F9C3940A400302520BE0900AF40201
:10533C00520774016F600302520B900825E0F88C41
:10534C00828D83E0900825F0E87025E064017020E0
:10535C008084C3EA9424EB9400501374026F700E93
:10536C008C828D83125AA912056BE9FE80020E0EF7
:10537C00EEF9025386740E1217547F0402186774E8
:10538C00F012179574CC12173E8C0A8D0B744412C4
:10539C001789E0FE7420121789AC82AD8375838F58
:1053AC0075822474061216517420121789AC82ADC2
:1053BC00831211A7E9F508C3940A40030254E3755C
:1053CC00F006E9A4F5097426121789AC82AD837A2C
:1053DC000E742012552F7432121789E0FF900AEFC9
:1053EC00E06402700474018001E4F50D780D12196B
:1053FC00ACEEFDEFFCA908AA0AAB0B12122B740140
:10540C001217547C147D007900740C121789AA822F
:10541C00AB83121081740C121789AC82AD837A1095
:10542C00742412552FE970347C1079FF740C121708
:10543C00891255267026741C121789AC82AD837A9A
:10544C0004742512552F740C121789AC82AD83EF9E
:10545C00A2E0E433F9AA0AAB0B1205F58518828594
:10546C001983AC82AD837A0C74702508125B46707C
:10547C0055851882851983AA82AB831211D77508BA
:10548C0000E50875F003A4F8A9F085188285198346
:10549C00E58228F8E583125C8A125AA9EC4D601D4E
:1054AC0088828983A3A3E0F50E750F00780E12197C
:1054BC00A8AA0AAB0B12085374021217540508E57C
:1054CC0008C3940440BBEFA2E1500C90077DE0F9B7
:1054DC00AA0AAB0B12085974046E702A900AEFE0FA
:1054EC0064027022900791E060047A0180027A00D5
:1054FC0090077EE06004780480027800E84AF9AAFC
:10550C000AAB0B1206B5790074341217547F0802DB
:10551C00186779FF851882851983AA82AB831210CC
:10552C00E1E9222509F91213692274F0121795EAA0
:10553C00FEEBFF8C088D09750A0AE9600C146009F2
:10554C0014602E14607F0255DC1211E9E9F50AC3D0
:10555C00940A507CE50845096076750E06750F00B7
:10556C00780E1219A8EEFCEFFD125E65121754802E
:10557C005F750B00750E06750F00780E1219A8EEEC
:10558C00FCEFFDE50B75F00EA4F8A9F0749F28FA5A
:10559C00740739FB12107B7402121754E9601B85D7
:1055AC000B0AE50AC3940A5027E50845096021AAAD
:1055BC0008AB09A90A1211E38016050BE50BC3947D
:1055CC000A500D80AF1211EFE9F50AC3940A40D9C5
:1055DC00A90A02551974F4121795890875091574DE
:1055EC00FF6A700374FF6B70277E00AC087A027B35
:1055FC0000EEF91211C5E960037509000EEEC394B3
:10560C000A40E8E50860497A197B12120A75804055
:10561C00120A578A0A8B0BAE0AAF0BEE4F602E7C28
:10562C00007D00EE2405FAEF3400FB8E828F83128E
:10563C0056DC500CAC087A027B001211C5750900BF
:10564C00E508600CEEFAEFFB1212198003750914D1
:10565C00A90902538674F2121795ECFEEDFF740E35
:10566C00121789E0F50AA3E0F50B75081574FF6AAB
:10567C00700374FF6B7021750900AC0AAD0BEEFA68
:10568C00EFFBA9091211CBE960037508000509E5C8
:10569C0009C3940A503580E2120A578A828B83E53B
:1056AC0082458360237C007D00E5822405FAE58336
:1056BC003400FB1256DC5013AC0AAD0BEEFAEFFBC8
:1056CC001211CB7508008003750814A908025C52EE
:1056DC00A3A3A3A3E0F91211A7E9C3940A22C082E1
:1056EC00C083900797EAF0A3EBF090077DE0FC7D78
:1056FC00007A237B0012056B90077DE0F91207CF2F
:10570C00D083D08202013574EA12179574EC12170B
:10571C003E8A088B09EA240CF514EB3400F515EAE3
:10572C00240AF510EB3400F511EA2405F50EEB34E0
:10573C0000F50FEA2409F50AEB3400F50BEA240313
:10574C00FEEB3400FF8A828B83A3A3E024FA700360
:10575C00025A7124FD70030259A11470030257FC04
:10576C0014601024FD700302596D1470030259D497
:10577C00025A7A125AC1604AE0F5838882125A9E04
:10578C00880C890DE8450D6039851482851583E0F8
:10579C00F50E780E1219ACEA240BF582EB3400F5F9
:1057AC0083E0F9850A82850B83125AA90A0A0AEF4B
:1057BC00FB850C82850D831217937401121754020A
:1057CC005A7A850A82850B831219BF900793121699
:1057DC002C1206077402121754E97003025A7A79D4
:1057EC0001850A82850B83126167120601025A7ABF
:1057FC008A828B83A3858212858313E0600302590E
:10580C0045850E82850F83E0A2E040030259457C5A
:10581C000E7D007900851882851983AA82AB8312CC
:10582C001081E5082408F50AE5093400F50B850A12
:10583C0082F583125AC46019750C06750D00780C2C
:10584C001219A8850A82850B83E02410FCA3E08042
:10585C001A125A91EA4B7003025A7A750C06750D9E
:10586C0000780C1219A8EA2405FCEB3400FD740234
:10587C00121789AA82AB83125E69121754850E82A5
:10588C00850F83E0A2E25004D2F08002C2F0A2F0B5
:10589C00E433F8740C121789E048F08510828511F6
:1058AC0083125AC46015851082851183E02410F888
:1058BC00A3E03400F9888289838003908FDF780C11
:1058CC0012160E851082851183125AC4600F851032
:1058DC0082851183E0F510A3E0F5118006751000A8
:1058EC00751100850A82850B83125AC4600F850AD4
:1058FC0082850B83E0F50AA3E0F50B8006750A00A0
:10590C00750B00780C1219A478101219A8780A12C9
:10591C0019A88514828515831219BF8508828509FB
:10592C0083A3125AA4740A121789AA82AB83121188
:10593C00DD740A121754125A84125AC17003025A97
:10594C007A125AAF7003025A7A851282851383E059
:10595C00FC79011261638882850983121793025ABC
:10596C007A125A84125AC17003025A7AE0F583886B
:10597C0082A3A3125A9E890BE8450B7003025A7A34
:10598C00850882850983A3E0FC7902126163888211
:10599C00850B8380C67C007D00EA2404FAEB34007E
:1059AC00FB8E828F83E0F91211A7E9F8C3940A40A9
:1059BC0003025A7AAC10AD117A0475F006E8A424EF
:1059CC0025F9121363025A7A900792E0600C900A40
:1059DC00F2E0F98E828F830257F3900AEFE07004A5
:1059EC00790580EF125A918A0C8B0DA80CA90DE841
:1059FC002404F50CE93400F50D850882850983A390
:105A0C00A3A3A3A3A3A3E0A2E05037E849605F855A
:105A1C000C82850D83E0F5086028850A82850B834E
:105A2C00E05410701D740E121789AC82AD83E824FB
:105A3C0005FAE93400FBA9081211A7E970047903EF
:105A4C008091AC0EAD0F850C82850D83E0F912614F
:105A5C0063121225125AC16015125AAF60107C00E5
:105A6C00790002595F1206CDE970031211F5741416
:105A7C001217547F0E0218678E828F83E0FAA3E010
:105A8C00FB121237228E828F83E0FAA3E0FB120AFC
:105A9C005722E0F8A3E0F922A3A3A3A3A3E0FCA35D
:105AAC00E0FD22E0F5838882A3A3E0F8A3E0F98966
:105ABC0009E8450922900797E0F8A3E0F9E84922A4
:105ACC0074F412179574F212173EEAFE8C0B75F0F3
:105ADC0006E9A42420F508851882851983AC82ADCB
:105AEC00837A0E125B4670407C0612551E70397418
:105AFC000C121789125A9EE8F509E50B6005EE4267
:105B0C00098004EEF45209850982AA82E86A7001C0
:105B1C00E96011740C121789EAF0A3E41260B0A9C1
:105B2C0008121363790180027900025381AC82ADB3
