:020000040000FA
:0600000002010A021C9E31
:03002B00021F07AA
:03005300021D1477
:03006B00021EB1C1
:03007B00021EE979
:10008300021B8FE5C754F84401F5C779012200002C
:100093000080FB120086B900030200F4E4791A78A9
:1000A30002B800028004F709D8FCE4791C7802B88E
:1000B30000028004F709D8FCE490028178EF790DFF
:1000C3008002F0A3D8FCD9FA900F6FAA82AB839079
:1000D300013A784079028015E493A3AC82AD838A18
:1000E300828B83F0A3AA82AB838C828D83D8E9D9D8
:1000F300E77582FA7583A7740312011C75829175E3
:100103008300740012011C75D00075813F7518813E
:10011300751902759F00020096C09FF59FE473D086
:100123009F22D083D082C09FE493C0E0740193C028
:10013300E0740293F59F22ED03FF032904F303FF09
:100143000000B4000028002800283075A000A0009B
:10015300A000A00000080008E001F000100010005B
:10016300100010001000100050005000500010004C
:100173001000D0070000000000000F0030750700DA
:100183001000010081FF0000FF0202026B8F0100DB
:10019300005B8F02658F010000C10F02738F0100A6
:1001A30000B10202658F010000C20F02698F0100D6
:1001B30000C702FFFF0100FF20026B8F0100005EFA
:1001C3008F02658F010000F00F02618F00000000B5
:1001D30000027F8F030000A403C70BC70BC70BC725
:1001E3000BC70BC70BC70BC70BC70BC70BC70BC77C
:1001F3000BC70BDD0DFB0DD70DFFFF01E803053F1B
:1002030010FF00FEFF55AA74657374207661723186
:1002130000007465737420766172320000656E614C
:10022300626C65000002026B8F010000588F02654B
:100233008F0100005D1002798F0300003D100263FF
:100243008F0100003F1002658F0100005D10027BEB
:100253008F0300003E1002638F0100004A10026505
:100263008F0100005D10027D8F0300006E0F02639B
:100273008F0100005510120125F69E031201250C73
:100283009F03120125399F03120125699F03120160
:10029300258A9F03120125BB9F031201250CA0038E
:1002A30012012523A003120125517E0012012568A6
:1002B3007E00120125977E00120125D07E001201D7
:1002C30025F87E00120125267F001201253D7F00BF
:1002D300120125547F001201256A7F001201259126
:1002E3007F00120125A47F00120125BA7F001201AD
:1002F30025E27F00120125228D02120125218E02A3
:100303001201254B8E02120125A08E02120125C176
:100313008E02120125DA8E02120125DC8E021201F1
:1003230025FD8E02120125009002120125BD9002C7
:100333001201258A9102120125EE910212012585EF
:1003430092021201258892021201250E93021201D4
:1003530025519302120125A39302120125DA930278
:10036300120125609402120125E99402120125323B
:1003730095021201253F95021201254295021201B1
:1003830025A09502120125B8950212012532960285
:100393001201253596021201255896021201255B9A
:1003A30096021201250297021201252597021201D6
:1003B300253D97021201256D97021201257A9702B6
:1003C3001201257D9702120125E99702120125D713
:1003D30098021201258D99021201252FA402120100
:1003E300250FA5021201258FA502120125AFA50233
:1003F300120125EDA50212012540A602120125A82E
:10040300A60212012539A70212012504A80212012E
:100413002513AB021201257FAC02120125A2AC0207
:10042300120125008003120125948103120125F393
:1004330081031201255282031201256082031201F6
:10044300258982031201254AD90212012572D90294
:10045300120125A0D902120125D7D9021201253F85
:10046300DA0212012588DA02120125D3DA02120117
:100473002511DB021201254EDB021201257CDB0272
:1004830012012523DC021201252DDC021201253A7B
:10049300DC021201256DDC021201252FDD0212019F
:1004A300253BDD0212012553DD021201255DDD022C
:1004B300120125DBDD0212012574A403120125823A
:1004C300A4031201259AA403120125B2A403120165
:1004D30025CAA40312012549EC01120125C1EC012F
:1004E300120125D6ED0112012510EE01120125B9E5
:1004F300EE011201258EEF01120125F2F001120126
:100503002549F101120125D0F101120125B7F201AC
:1005130012012504F30112012592F301120125B6FC
:10052300F3011201258BF501120125CCF50112010E
:1005330025EEF501120125B3F60112012579F70124
:10054300120125AEF901120125DD8303120125F302
:100553008303120125198403120125418503120126
:10056300254B8503120125A48603120125A48703C5
:1005730012012516ED02120125B8ED02120125EC38
:10058300ED021201252EEE02120125E8EF021201FF
:1005930025A1A1011201251FA2011201252FA201EC
:1005A30012012512A30112012540A3011201254BBB
:1005B300A30112012535A401120125D1A4011201C1
:1005C30025D5A6011201258CA80112012508A90130
:1005D300120125E5A90112012513AD01120125B16F
:1005E300AD011201250EAF0112012581B0011201E7
:1005F300252AB10112012573B101120125AAB10106
:100603001201254FB201120125CDB201120125813C
:10061300B301120125D6B3011201251BB501120145
:10062300252BB5011201254EB50112012599B501FE
:100633001201253EB60112012534B701120125FE30
:10064300B70112012576B901120125B8B9011201CA
:100653002556BA011201257CBA011201256ABC0193
:100663001201256FBC0112012550BE01120125A400
:10067300BE0112012506BF011201252EBF01120181
:1006830025D2BF0112012594C001120125C5C00165
:10069300120125C8C00112012510C1011201255202
:1006A300C101120125B9C101120125A49703120149
:1006B30025B79703120125C09703120125D9970384
:1006C300120125249803120125FF98031201258E98
:1006D3009903120125D99903120125281F0012013C
:1006E30025381F001201259B1F00120125E01F0062
:1006F3001201259020001201256921001201259283
:100703002100120125C22100120125D62300120166
:1007130025B22500120125922700120125CA2800BF
:10072300120125432B001201252F2C0012012575E0
:100733002D00120125822E00120125C42E00120164
:1007430025FC2E00120125162F001201257E2F00F5
:10075300120125183400120125B934001201250DA8
:1007630035001201253435001201257235001201BE
:1007730025913500120125E53500120125ED3600DE
:100783001201257637001201256ABE021201257473
:10079300BE0212012537BF0212012586BF021201D4
:1007A30025AABF02120125F4BF021201252CC002A3
:1007B30012012554C002120125E7C00212012523AC
:1007C300C10212012568C20212012589C202120167
:1007D30025ACC202120125DEC202120125B1C302F9
:1007E300120125EBC3021201253FC4021201258920
:1007F300C402120125D2C402120125FBC402120154
:100803002520C50212012522FA02120125ECFA0263
:10081300120125D8FB021201254EFC02120125907C
:10082300FC02120125BDFD0212012501D1011201B5
:10083300252AD10112012543D10112012588D201B4
:1008430012012566D30112012585D3011201251258
:10085300D40112012555D4011201258DD5011201B0
:1008630025F9D501120125EFD7011201257DDA0102
:1008730012012510DB01120125E4DB01120125879A
:10088300DC011201259ADD0112012530DE0112017E
:10089300256EA103120125D7A1031201252BA20363
:1008A3001201255AA2031201258BF102120125F828
:1008B300F10212012543F20212012538F30212015B
:1008C3002534F4021201251EF50212012548C50242
:1008D3001201258FC50212012568C6021201256384
:1008E300C70212012542C802120125AEC802120135
:1008F30025CAC90212012531CA0212012534CA02CE
:100903001201255FCA02120125D0CA021201257302
:10091300CB0212012588CB02120125D0CB02120192
:1009230025E9CB02120125ECCB021201255C8B03D6
:10093300120125988B03120125D68B03120125A0E2
:100943008C03120125138D031201254E8D03120111
:10095300258C8D03120125BC8D03120125E38D0324
:100963001201254E8E03120125908E03120125815B
:100973004F001201253151001201259A5200120134
:1009830025415300120125885300120125CC530041
:100993001201250254001201256554001201257B22
:1009A3005400120125C654001201250655001201F8
:1009B300252955001201257A5500120125DF55001E
:1009C3001201252F5700120125185800120125B9CD
:1009D30059001201254D5E00120125755E001201BA
:1009E30025B25E00120125C660001201256C62006B
:1009F300120125FE9403120125709503120125C6E9
:100A030095031201250A96031201252A9603120162
:100A130025779603120125BF96031201251297032A
:100A2300120125639703120125DD370012012526E4
:100A330038001201255338001201258638001201AF
:100A430025963800120125A23800120125B338007B
:100A5300120125883900120125E639001201251BF0
:100A63003A00120125B73B00120125033C00120195
:100A7300255F3C001201255B3D00120125E13E008C
:100A8300120125B83F00120125C83F00120125E4D9
:100A93003F00120125E73F00120125A1400012018A
:100AA300256A41001201251042001201256F420000
:100AB300120125F742001201255C4300120125EBC8
:100AC3004300120125B444001201255145001201CF
:100AD30025D845001201252F460012012590460016
:100AE300120125CA4600120125784700120125701C
:100AF3004900120125C04900120125034A001201D1
:100B030025784A00120125044B001201254F4B00A2
:100B1300120125744B00120125C54B00120125E774
:100B23004B001201252C4C001201259B4C00120195
:100B330025DD4C00120125DD4D00120125654E0017
:100B4300120125364F001201254F4F00120125DAFD
:100B5300AD021201252DAE0212012539AE0212019A
:100B6300250EAF0212012535AF0212012570AF0227
:100B7300120125DCAF0212012510B0021201254932
:100B8300B00212012561B002120125BAB0021201AE
:100B930025D3B0021201251CB1021201252FB10287
:100BA30012012549B1021201255FB1021201257B11
:100BB300B2021201258CB302120125D9B40212012B
:100BC30025BEB502120125F47F001201254EE8026D
:100BD300120125B3EB02120125CBEC021201250011
:100BE3008002120125F38502120125F98502120103
:100BF300257988021201256CDE0212012517DF0216
:100C0300120125C7DF02120125ECDF02120125E3E1
:100C1300E10212012536E302120125828F0112013E
:100C230025B68F011201250A980112012556990153
:100C3300120125739A01120125FD9B01120125DF83
:100C43009C01120125199D011201253C9D011201F0
:100C5300257E9D01120125C89D01120125D29D010A
:100C63001201257E9E01120125529F01120125A624
:100C73009F0112012508A0011201255BA0011201A9
:100C8300258AA001120125C9A001120125D88E03CE
:100C93001201254E8F03120125648F03120125A132
:100CA3008F03120125D98F031201255690031201D8
:100CB300259190031201250C9103120125489103FC
:100CC3001201255191031201255D9103120125772C
:100CD30091031201259C9103120125B29103120184
:100CE30025F6910312012510CC0212012523CC0213
:100CF3001201253DCC0212012566CC02120125A961
:100D0300CC02120125E8CC0212012526CD021201E4
:100D1300258BCD02120125A0CD02120125B7CD02EC
:100D2300120125C5CD02120125D4CD02120125E9F8
:100D3300CD02120125FECD0212012509CE021201B8
:100D43002515CE0212012522CE0212012535CE022F
:100D530012012540CE0212012565CE021201250E95
:100D6300CF0212012523CF0212012538CF0212012F
:100D73002552CF021201256DCF021201258ACF021F
:100D830012012595CF0212012551D0021201253DF2
:100D9300D10212012562D1021201256CD102120186
:100DA3002580D1021201259FD10212012500D20212
:100DB30012012506D2021201250CD20212012512BC
:100DC300D2021201251ED20212012551D2021201B2
:100DD30025F89902120125249A02120125089B0283
:100DE300120125A29D02120125B89E02120125D5EA
:100DF3009F0212012578A0021201251EA1021201F1
:100E030025ACDE011201252EDF01120125D7DF01FA
:100E13001201251FE1011201252DE3011201251302
:100E2300E40112012548E4011201256AE4011201DB
:100E33002513E501120125E3E6011201250CE70163
:100E430012012584E701120125B6E701120125C32A
:100E5300E7011201250EE80112012532E801120112
:100E63002583EA011201258DEB01120125E9EB012E
:100E730012012583C20112012594C30112012578B1
:100E8300C40112012582C401120125A4C401120167
:100E930025B0C40112012554C60112012581C601E2
:100EA30012012597C701120125ECC7011201253B49
:100EB300C90112012510CA011201256CCA011201D0
:100EC30025D7CA011201250CCB011201254FCB01F5
:100ED30012012519CE0112012531CE01120125C2BD
:100EE300CE01120125D0CE011201251DCF01120121
:100EF300252BCF0112012597CF0112012512D00115
:100F030012012569D00112012517FE021201253CA9
:100F1300FE02120125B2FE021201257BB702120165
:100F23002584B7021201258DB70212012565B80287
:100F330012012516BA0212012546BA0212012571C1
:100F4300BA02120125A1BA02120125CCBA0212017A
:100F53002500BB021201252CBB021201256FBB0227
:100F63001201259ABB02120125E1BB0212012536AB
:100F7300BC0212012578BC02120125D2BC02120167
:100F830025FDBC021201254CBD021201257CBD02C8
:100F9300120125A7BD02120125CABD021201254F68
:100FA300A6031201257BA603120125A8A60312019D
:100FB30025B2A603120125C2A603120125BDF9011C
:100FC300120125C7F90112012508FA011201255161
:100FD300FA011201258BFA01120125E1FA0112012E
:100FE3002502FB011201250BFB011201255FFB0109
:100FF30012012588FB0112012592FB011201250034
:10100300FC0112012590FC01120125EBFC011201E8
:101013002519FD01120125A1FD01120125E0FD01A4
:1010230012012515FE0112012527FE011201254695
:10103300FE011201254FFE0112012511FF011201CC
:10104300257DA303120125039A03120125399A036F
:101053001201256D9A03120125BA9B031201253B48
:10106300A70312012551A703120125E0F50212017E
:1010730025F3F502120125B7F602120125F6F60251
:1010830012012513F7021201254CF70212012599CB
:10109300F702120125CBF70212012502F802120111
:1010A3002515FA021201259BA70312012563A50347
:1010B30012012586A503120125B5A503120125CD2D
:1010C300A5031201250FA6031201256DE3021201E8
:1010D30025AFE30212012536E4021201258BE40257
:1010E300120125D0E4021201252BE5021201257A13
:1010F300E502120125D4E502120125E1E6021201FF
:1011030025D9E70212012516E802120125CCA60310
:101113001201250B6300120125D5640012012583FA
:101123006600120125306700120125B06700120125
:10113300253668001201255F6800120125076C003F
:10114300120125876C001201258D6D00120125C641
:101153006D00120125106E00120125576F00120158
:1011630025826F00120125D86F001201252170001E
:10117300120125797000120125C07000120125EFBC
:101183007000120125087100120125ED7100120192
:1011930025217200120125D27200120125E9720085
:1011A3001201251B7300120125BD74001201255184
:1011B30075001201258F750012012596A8031201EF
:1011C300254DA8031201258CA803120125EEFF0269
:1011D3001201253FFF011201254FFF011201256472
:1011E300FF01120125CCFF011201257BA20312018D
:1011F3002500A30312012564A3031201258C9D037B
:10120300120125BA9D03120125379E03120125976A
:101213009E03120125AE8703120125C28703120123
:10122300253C8803120125208903120125F78A032F
:10123300120125F49B03120125469C03120125B9D3
:101243009C03120125269D031201252692031201F8
:10125300255092031201251F9303120125FB9303CB
:101263001201258C9403120125887600120125545E
:101273007700120125957700120125F377001201FB
:1012830025477800120125A578001201253B790036
:10129300120125437A00120125CD7B001201256B33
:1012A3007C00120125D27C00120125E97C00120189
:1012B30025087E00120125CED202120125EDD302AC
:1012C30012012514D502120125B2D502120125B54A
:1012D300D5021201257AD7021201257DD702120108
:1012E3002580D702120125A4D8021201253AA003B2
:1012F3001201255FA003120125D2A003120125CFFD
:10130300FF01120125D0FF02E066701008A3E0661A
:10131300700A08A3E066700408A3E06622C3E79698
:101323000809E7960809E7960809E79622C3E096B5
:1013330008A3E09608A3E09608A3E09622C008C39A
:10134300E096F50808A3E096420808A3E096420851
:1013530008A3E09645087001D3D00822080808EADC
:10136300C0E0EBC0E086F0E7A4FA180986F0E7A432
:101373002AFA180986F0E7A42AFA180986F0E7A4DE
:101383002AFA1986F0E7A4FBE5F02AFA190886F091
:10139300E7A42BFBE5F03AFA190886F0E7A42BFB48
:1013A300E5F03AFA18180986F0E7A4C5F02BFBE438
:1013B3003AFA1908E7C5F0C6A426F6E5F03BFBE4C4
:1013C3003AFA1886F0E7A4F6E5F00826F6E43B08B7
:1013D300F6E43A08F6D0E0FBD0E0FA22E4CFC0E02E
:1013E300E4CEC0E0E4CDC0E0E4CCC0E075F020C3BF
:1013F300E633F608E633F608E633F608E633F6187E
:101403001818EC33FCED33FDEE33FEEF33FFC3EC82
:101413009709ED9709EE9709EF97191919400FFFEF
:10142300EC97FC09ED97FD09EE97FE191906D5F027
:10143300BEECF709EDF709EEF709EFF7191919D023
:10144300E0FCD0E0FDD0E0FED0E0FF22601608080B
:1014530008C6C313C618C613C618C613C618C613C0
:10146300C6D5E0EA22700908080822601618181881
:10147300C6C333C608C633C608C633C608C633C692
:10148300D5E0EA22E627F60809E637F60809E63743
:10149300F60809E637F622E026F608A3E036F60852
:1014A300A3E036F608A3E036F622E026F008A3E030
:1014B30036F008A3E036F008A3E036F022C3E6973F
:1014C300F60809E697F60809E697F60809E697F697
:1014D30022C3E096F008A3E096F008A3E096F00894
:1014E300A3E096F022E657F60809E657F60809E660
:1014F30057F60809E657F622E056F608A3E056F633
:1015030008A3E056F608A3E056F622E056F008A337
:10151300E056F008A3E056F008A3E056F022E06698
:10152300F608A3E066F608A3E066F608A3E066F60D
:1015330022E0F608A3E0F608A3E0F608A3E0F6220B
:10154300E6F008A3E6F008A3E6F008A3E6F022E03D
:10155300FAA3E0FBA3E0FCA3E0FD22EAF0A3EBF097
:10156300A3ECF0A3EDF022CAC0E0E6F0A308DAFA98
:10157300D0E0FA22CAC0E0E0A3C582CCC582C5830D
:10158300CDC583F0A3C582CCC582C583CDC583DA1F
:10159300E6D0E0CA22C3E498F8E499F91215D98099
:1015A30026C3E49AFAE49BFBE920E7E91215D9E4A0
:1015B30098F8E499F922C3E498F8E499F91215D953
:1015C300E498F8E499F9C3E49AFAE49BFB22EB204C
:1015D300E7CFE920E7E0B90010BB0008E88AF08410
:1015E300F8AAF022E4FBC8FA22EB70227B10C8337E
:1015F300C8C933C9335007C39AC3DBF280069A5074
:10160300012ADBEAC833F4C8C933F4C9FA2275F0F6
:1016130008E4C833C8C933C933C99AC99B5004C93C
:101623002AC93BD5F0ECFBC833F4C8E4C9FA2260FD
:101633000D08C6A2E713C618C613C6D5E0F3226089
:101643000C08C6C313C618C613C6D5E0F42270042B
:1016530022600D18C6C333C608C633C6D5E0F418D6
:1016630022251810AF08F518400215198008F5183F
:1016730040021519D2AF22C0D0251810AF08F518B3
:10168300500205198008F51850020519D2AFD0D0C1
:10169300222518F58210AF08F518400215198008A5
:1016A300F51840021519D2AF851983222518F58242
:1016B300E43519F58322E4732518C582C0E0E519E2
:1016C30034FFC583C0E0E518C3958224F810AF0842
:1016D3008583198582188008858319858218D2AF7E
:1016E300CEF0A3E520F0A37808E608F0A3DEFAEF36
:1016F300F0A3E58124FAF8E608F0A3E608F0A3E6F0
:1017030008F0A30808E608F0A3E608F0A31581157E
:1017130081D0E0FED0E0F8158115811581E8C0E0A5
:10172300EEC0E0222518C582C0E0E51934FFC58369
:10173300C0E0E518C3958224F910AF0885831985A5
:1017430082188008858319858218D2AFCEF0A3E56D
:1017530020F0A37808E608F0A3DEFAEFF0A3E58112
:1017630024FBF8E608F0A3E608F0A30808E608F06F
:10177300A3E608F0A315811581D0E0FED0E0F815AB
:10178300811581E8C0E0EEC0E022851983851882C7
:10179300E0A3FEE0A3F5207808E0A3F608DFFAE073
:1017A300A3FFE0A3C0E0E0A3C0E0E0A3C0E0E0A3A8
:1017B300C0E0E0A3C0E010AF0885821885831980DC
:1017C30008858218858319D2AFD083D08202012283
:1017D300851983851882E0A3FEE0A3F5207808E04D
:1017E300A3F608DFFAE0A3FFE0A3C0E0E0A3C0E0B4
:1017F300E0A3C0E0E0A3C0E010AF088582188583B2
:10180300198008858218858319D2AFD083D08222AC
:10181300C0D02518C582C0E0E51934FFC583C0E0F8
:10182300E518C3958224F310AF08858319858218C0
:101833008008858319858218D2AFC8F0A3E9F0A385
:10184300EAF0A3EBF0A37908E709F0A3D8FAECF0E8
:10185300A3EDF0A3EEF0A3EFF0A3D0E0F0A3D0E06C
:10186300F0A3D0E0F0A3E520F0A3E5F0F0A32285F8
:101873001983851882E0C0E0A3E0F9A3E0FAA3E0AE
:10188300FBA37808E0F608A3DFFAE0FCA3E0FDA3DE
:10189300E0FEA3E0FFA3E0C0E0A3E0C0E0A3E0F527
:1018A300D0A3E0F520A3E0A3F5F010AF08858319DA
:1018B3008582188008858319858218D2AFD082D09B
:1018C30083D0E0F8D0E0327404800674028002749E
:1018D30001C0E0F404121694D0E012156A227404D5
:1018E300800474028000CCC0E0EDC0E0E518C39C26
:1018F300CCAD1950011D10AF068C188D1980068CC4
:10190300188D19D2AF121577D0E0FDD0E0FC22D0AC
:1019130083D082E9C0E0E493A3C386F0C5F095F0D9
:10192300F908E493A386F0C5F095F0700BE493A354
:10193300C3994005E9048002A3E475F002A425825B
:10194300F582E5F03583F583D0E0F9E493A3C0E0B5
:10195300E493C0E022D083D082ECC0E0EDC0E0E4A9
:1019630093A3FCE493A3FDED4C600D1219A4EC24A6
:10197300FFFCED34FFFD80EFE493A3FCE493A3FDB0
:10198300ED4C600D1219E3EC24FFFCED34FFFD80F8
:10199300EFD0E0FDD0E0FCE493A3C0E0E493C0E02B
:1019A30022C0E0C3E49396087401939618400FE4B1
:1019B3009366700808740193661870007019A3A3E6
:1019C300C3E49396087401939618A3A3400DD0E043
:1019D300D0E0D0E0021994A3A3A3A3A3A3D0E02251
:1019E300C0E0C0F088F0E493667008087401936661
:1019F300187000A8F0A3A3700BD0F0D0E0D0E0D013
:0B1A0300E0021994A3A3D0F0D0E02271
:101A100074F5121727EAFEEBFFEE2434F8EF3400DA
:101A2000F988088909EE2435121B48F8EE2437128C
:101A30001B48F50AEC850AF0A4FCAAF0850AF0ED33
:101A4000A42AFDE82CF8E43DF97A257B001215D98B
:101A5000EA850882850983F05407F87401B800020A
:101A60008004C333D8FCC0E0E0131313541FF8EE16
:101A700028F8EF3400F9E8245DF582E93400F583B5
:101A8000D0E0F8E0586008850882850983801DEE63
:101A90002436121B48F5F0EA84A8F0EE28F8EF345B
:101AA00000F9E82438F582E93400F583E0F97F0491
:101AB0000217D374F5121727EAFEEBFFEE24341257
:101AC0001B48C0E0EE2435F582EF3400F583D0E00A
:101AD000F08E828F83A3A3A3A3A3E0FAA3E0FB8EDF
:101AE000828F83A3A3A3A3A3A3A3E0FCA3E0FDECA5
:101AF000C39AF50AED9BF50BEE2480F508EF340050
:101B0000F509850882F583E06401702BEE2481F5E8
:101B100082EF3400F5831218E5121B51740212167D
:101B20007AE960137CE07D07EEFAEFFB120AE385A9
:101B30000882850983E4F0AC0AAD0BEEFAEFFB12E4
:101B40001A10121EA3021AAEF582EF3400F583E0DC
:101B500022C082C083851882851983E0F8A3E0F94A
:101B6000C3EA9CEB9D500BC3EC98ED9940127901B0
:101B70008010C3EA98EB9940F5C3EC98ED9950EECC
:101B80007900D083D0822200851A87851BC622C0A7
:101B9000E074EF121813759B00906182E0A2E6409A
:101BA00003021C50E591A2E64003021C507591BF50
:101BB000900499E064057008120CBD120CC98003F2
:101BC000120CC3751A00120D35E990049AF07900D1
:101BD000120D17120A4D7A017B00900498E0F91259
:101BE0001017907803E064426003021C9990081576
:101BF000E014F06003021C99C2AF121BFD00781DB7
:101C0000D0E0F618D0E0F6E59F5407F97005908E05
:101C1000E48003908EE87808121534E9C4C0E078B7
:101C20001CE65508F50808E65509F509740B78080F
:101C3000121642D0E02508F8906270E0A2E740F862
:101C4000E8C333906272F0906270E0D2E0F08049B5
:101C5000E0A2E55024E591A2E5501E7591DF9004C5
:101C600099E0640D70139004BBE004F064287002E6
:101C7000E4F07A00E0F9120DC5906181E0A2E35032
:101C800009E5E9A2E3500375E9F7A3E0A2E75009EB
:101C9000E591A2E7500375917F7F04021872C0E0BE
:101CA000C0D0C082C083906183E0A2E05009E5BF4C
:101CB000A2E0500375BFFEE0A2E15009E5BFA2E13A
:101CC000500375BFFDE0A2E25009E5BFA2E2500358
:101CD00075BFFBE0A2E35009E5BFA2E3500375BF67
:101CE000F7E0A2E45009E5BFA2E4500375BFEFE0BE
:101CF000A2E55009E5BFA2E5500375BFDFE0A2E60B
:101D00005009E5BFA2E6500375BFBFD083D082D093
:101D1000D0D0E032C0E074F2121813E5A7A2E4506C
:101D20000FE5A1A2E4500953A7EF75A1EF121D68BA
:101D3000E5A7A2E5500CE5A1A2E5500653A7DF7583
:101D4000A1DFE5A7A2E15009E5A1A2E1500375A139
:101D5000FDE5A7A2E2500CE5A1A2E2500653A7FBC5
:101D600075A1FB7F0102187274F8121727751A010A
:101D7000900499E0640670077A007B00120CA5A21B
:101D8000AFE433FED2AF90049FE0640170187A2074
:101D90007B00900498E0F912108F7A207B00900469
:101DA00098E0F912101D906182E0D2E6F0900814DC
:101DB000E0602185C61B801690049EE064017008D7
:101DC000E5C654F84405F5C653BEFC121B887401E1
:101DD000651A60E4EEA2E092AF7F010217D374F1BE
:101DE0001217278A088B098C0A8D0B740F1216AFF5
:101DF000780C121534908F2C78081214FB908F2CCD
:101E0000780C1214FB7808790C12132050157808FE
:101E1000790C1214C0908F0C780812134040157979
:101E2000018013780C79081214C0908F0C780C1272
:101E3000134040EB79007F080217D374ED12172787
:101E40008A088B098C0A8D0B74131216AF780C124A
:101E50001534908F2C78081214FB908F2C780C126C
:101E600014FB780C790812132040117808790C12B1
:101E700014C0AA08AB09AC0AAD0B8022751000751E
:101E800011007512007513017810790C1214C078C6
:101E9000107908121487AA10AB11AC12AD137F0C85
:101EA0000217D3C082C083E9906000F0D083D08253
:101EB00022C0E074F2121813A2AFE433FED2AFE5F1
:101EC00089A2E0400CE589A2E14006E589A2E45040
:101ED0000312120F758900758900758900C2C5EE5D
:101EE000A2E092AF7F01021872C0E074F2121813E0
:101EF000A2AFE433FED2AFE58AA2E2500312120F82
:101F0000758A00C2EB80D8C0E0C0D0E8C0E0E5A888
:101F1000D2AFC2C7A2E792AFD0E0F8D0D0D0E032C3
:101F2000FFFFFFFFFFFFFFFFC082C083E9900FEFBD
:101F3000F0D083D08202012274F61216BBE990031E
:101F400064F07CA47D037AFF7BFF1207657A008A28
:101F5000087509007402780812165174652508F88E
:101F600074033509121F87A3F00AEAC3940340DF04
:101F700079051206F3900364E0F912061B7A7D7B63
:101F800007120933023508F98882898374FF121F0A
:101F900094E4F022F0A3123395A32274F41216BB3A
:101FA0008A088B09EB54806030900364E0F9120FCB
:101FB000FF8A0A8B0BAE0AAF0BEE4F60138E828F37
:101FC00083E064B07003120705EEFAEFFB120FED29
:101FD000AA08E5096480FB80047A007B0002216482
:101FE00074F21216BB74FC121664EAFEEBFF741254
:101FF0001216AF1233DEEE4F70030220837402120A
:1020000016AFEEF0A3EF1223BFECF0A3ED1223BF47
:10201000AA82AB83120615E9F50A706AE50845093C
:1020200060648E828F831233BFEE4F60567A067BD8
:10203000001210538A0C8B0DA80CA90DE8497005ED
:10204000750A13804188828983E4121F94EEF0A3FD
:10205000EF1233EFE508F0A3E509F09003721221C7
:102060005E9003727005122E7C801B122E6A800314
:10207000EAFCEBFD8C828D8312215E70F38C828DE5
:102080008380E3750A02A90A740412167A0235D213
:1020900074F21216BB890AE975F045A4FEAFF09000
:1020A0000371E4F090036712215E602812105979E1
:1020B00000890875090074027808121651746725A2
:1020C00008F58274033509F583E4F0A3F009E9C348
:1020D000940340DDEEFAEFFB1210538A088B09EAF5
:1020E00045096075EEFCEFFD7900120FDB7D008D78
:1020F0000C750D007402780C1216517467250CF8DB
:102100007403350DF9E50AF5F0EDA475F017A4FA9E
:10211000ABF0E5082AFAE5093BFB88828983EAF0FF
:10212000A3EBF07E00801BEE75F017A4FAABF088ED
:10213000828983E02AFCA3E03B8C82F583E4F0A350
:10214000F00EEEC3950A40DF0DEDC3940340A0E509
:102150000A900371F07900800279130235D2122BB4
:102160000EEA4B227F0402178D74F41216BB79001D
:10217000EAA2E0501B7508C875098E78081218CEBF
:102180007C047D007AF17B0F1206ED740212167A40
:1021900080D2C082C0839003721233D949601C88F8
:1021A000828983A3A3E06A7003A3E06B888289839A
:1021B00070E7A3A3A3A3122B0A80047A007B00027A
:1021C0001F3174EE1216BB74FC121664EAFEEBFFAC
:1021D000851882851983E4F0A3F0EE2402122E5CA8
:1021E000EE240512339CEE2404F50EEF122769E06D
:1021F00024FE603924FC604624FE605224FE605EAA
:1022000024FE70030222D524FE700302233924FE2B
:10221000700302234824FE700302235724FC70033A
:1022200002236624FE70030223750223B290038BFF
:102230007417F0A3E41223C71202AF0223B2851869
:1022400082851983AC82AD8312070B022382851825
:1022500082851983AC82AD83120711022382850C1B
:1022600008850D0974021216AFAC82AD8385088211
:10227000850983122B0A1206398A0C8B0DAC0CAD22
:102280000DEC4D603BE4F50CF50D780C1218CE7595
:102290000C8B750D03780C1218CE750C8C750D0314
:1022A000780C1218CE74081216AF1218E51236DC2C
:1022B00012167AE9F50C700B122B001202C7800F70
:1022C000750C018508828509831223B5122E7C8541
:1022D0000C0802238574021216AFAC82AD83850C04
:1022E00082850D831228BC603C850C82850D83A3FA
:1022F000A31218E575108B75110378101218CE759E
:10230000108C75110378101218CE74081216AF12C3
:1023100018E51236DC12167AE9F509700B122B005B
:102320001202CD800F750901850C82850D83122361
:10233000B5122E7C850908804C851882851983ACDE
:1023400082AD83120717803A851882851983AC8283
:10235000AD8312071D802B851882851983AC82AD51
:1023600083120723801C851882851983AC82AD8374
:10237000120729800D851882851983AC82AD8312DE
:10238000072FE9F508E50860298E828F83A3E064B2
:1023900014601F850E82850F83E090038B1223BF8C
:1023A0001236B490038C122E7CE508A31223C712B8
:1023B00002A9022D6B1236B885188285198322F086
:1023C00085188285198322F07C8B7D03850A82859E
:1023D0000B83122B0E2274EE1216BB74FC121664C1
:1023E0008A0A8B0B8C0E8D0FEA2405F508EB34005E
:1023F000F5097C157D0079007A8B7B03120FDBE5F4
:10240000082402F50CE50912339F8518828519838B
:1024100085821085831178101218CE85088285096F
:1024200083A3A3A3A31228B31218CEE5082405F5AD
:1024300010E5093400F51178101218CE850C82854C
:102440000D83122C21120633740612167A8A108B11
:1024500011AE10AF11E50A2402F50AE50B122E5F4A
:10246000EE4F7003022594801774021216AF122BE0
:102470000A88828983EAF0A3EBF090038BE004F0F2
:1024800090038BE0C394054003022594E4F510F516
:102490001178101218CE7510747511037810121877
:1024A000CE75107575110378101218CE74061216B9
:1024B000AF1218E57910EEFCEFFD1236DE12167A37
:1024C000E9705E850882850983A3A3A3A3A3A3A3C0
:1024D000E0F8900374E06870481228B31218CE7CBC
:1024E000757D03E5082408FAE5093400FB120FD5D1
:1024F000740212167AE960298E828F83A3A3A3A3A4
:10250000122B0A90038BE0F510740278101216510A
:10251000748C2510F58274033511F583EAF0A3EB72
:10252000F074021216AF858210858311781012188C
:10253000CE74021216AF1218E5850C82850D831237
:102540002B3012167A8A108B11AE10AF1190038BBC
:10255000E0F51075110074027810121651748B2575
:1025600010F874033511F988828983A312215E70F3
:1025700003022460E82403080808E93400F9EE4F58
:1025800060030224698882898374FFF0A3F09003BA
:102590008BE004F090038BE0600A122B001202BB68
:1025A0007900800B850882850983122E73790A02CF
:1025B0002D6B74EA1216BB74FE1216648C128D1306
:1025C000EA2405F50CEB1236C61233C37508007504
:1025D0000900EA2402F510EB3400F5118518828514
:1025E000198385820A85830B780A1218CE850C829E
:1025F000850D83A3A3A3A312277F1218CEE50C2475
:1026000005F50AE50D122E5F780A1218CE850C82A8
:10261000850D83122783120633740612167A8A0AEE
:102620008B0BEA450B7003022734EA2404F50EEB0A
:102630001227691233C38A828B83A3A3A3E0F9858F
:102640001082851183122B146003022734E4F514E1
:10265000F51578141218CE751474751503781412C4
:1026600018CE75147575150378141218CE740612E9
:1026700016AF1218E57913AC0AAD0B8510828511DF
:10268000831236E412167AE9F509600302273490C2
:102690000374E0F8E5087009E0240290038CF080F0
:1026A0001790038CE0FCE82402FAE43400FBEA6CA7
:1026B0007001EB6003022738850882AA821228AADB
:1026C00094141228A2506D850E82850F83E0C0E01D
:1026D000122ADAD0E0F00508850E82850F83A3E088
:1026E000C0E085080A748D250AF58274033400F56C
:1026F00083D0E0F0050890037412277F1218CE7C77
:10270000757D0385080A748D250A12277312167ABF
:10271000900374E02508F50874FF6E700374FF6F72
:102720006012EE24010EEF3400FFE508C39414504C
:10273000030225DCE5086013122B1E85108285112B
:1027400083122B0A1202C179008014E50970037507
:10275000090A851282851383EEF0A3EFF0A90974AC
:102760000212167A7F0E02178D3400F50F850E8245
:10277000F58322FA74033400FB120FC37402221291
:1027800033FE22A3A312278922122E6AFDEEFAEF4E
:10279000FB2274EE1216BB74FE1216648C0E8D0FA3
:1027A000EA2405F50CEB12339F750B0090038BE4C4
:1027B000F0F50AEA2402F508EB3400F509804490AC
:1027C000038BE0FA900374E0F81228AA94171228F9
:1027D000A2400D90038BE0F87416C398900374F038
:1027E0001228B31218CE7C757D03748C2AFA7403F8
:1027F00012277612167A900374E0F890038BE02883
:10280000F0050AE50C2416F582E50D3400F583E0A9
:10281000F8E50AC398507490038BE0C39416506B8C
:10282000E50AC333F8E433F9E50C28FEE50D39FF7A
:10283000851882851983AC82AD838E828F8312289E
:10284000BC7008750B01122E6F8050E4F510F51165
:1028500078101218CE75107475110378101218CEF6
:1028600075107575110378101218CE74061216AF14
:102870001218E579168508828509831236E4121646
:102880007AE9F50B70030227BF80BB7C8B7D038543
:102890000882850983122B0A1202D3A90B74020243
:1028A0002D6DE99400C365D03322EA28F8E43400A2
:1028B000F9E822E0F510751100781022122D628AD5
:1028C000108B11AC10AD11EC4D2274EA1216BB74D2
:1028D000FC1216648A0C8B0D8C128D13EA2405F5FC
:1028E0000AEB122E5F750800750900E50A2402F54F
:1028F00010E50B3400F51174021216AF85820E85B7
:10290000830F780E1218CE850A82850B83A3A3A3AA
:10291000A31233A41218CEE50A2405F50EE50B34F4
:1029200000F50F780E1218CE851082851183122EB5
:1029300065122B04120633740612167A8A0E8B0F58
:10294000AE0EAF0FE50C2402F50EE50D3400F50FC9
:1029500080388882898374FFF00508122AE674FFA4
:10296000F00508900374E0F50C750D00780C121852
:10297000CE7C757D0385080C748D250C122773128F
:10298000167A900374E02508F508EE4F60278E82D2
:102990008F83A3A3A3E0F9850E82850F83122B14E6
:1029A000EE240412339CE96027850C82850D831286
:1029B0002AF6122E7CE5087003022AC0122B1E850F
:1029C0000E82850F83122B0A1202D97900022AD5B2
:1029D000E4F514F51578141218CE751474751503F2
:1029E00078141218CE75147575150378141218CE54
:1029F00074081216AF1218E57911EEFCEFFD850E82
:102A000082850F831236E412167AE9F509709A85E9
:102A10000882AA82EA9003747009E0240490038C6F
:102A2000F08025E0F890038CE0F514E82404FCE441
:102A30003400FDEC65147001ED70811228AA941227
:102A40001228A240030229BC850C82850D83E0C0B8
:102A5000E0122ADAD0E0F00508850C82850D83A308
:102A6000E0C0E0122AE6D0E0122B3985820C858383
:102A70000D780C1218CE74041216AF1218E58510DA
:102A800082851183122B3012167A8A0C8B0DAE0CB4
:102A9000AF0D85080C748D250CF874033400F9EE25
:102AA0004F7003022952851882851983E088828934
:102AB00083122B39A3E0C0E0122AE6D0E00229609D
:102AC000E509700375090A850A82850B83122AF6C7
:102AD000122E7CA9097404022761748D2AF5827470
:102AE000033400F5832285080C748D250CF582745F
:102AF000033400F583221236B885128285138322AF
:102B00007C8B7D03850A82850B83122B0E22E0FAD3
:102B1000A3E0FB22122B0E120621E9F509229003F5
:102B20008CE0F5F0E5088490038BF07C8B7D03222C
:102B300012278912063F740422F005088518828541
:102B400019832274EC1216BB74FE1216648A088B69
:102B5000098C0E8D0FEA2405FEEB3400FF122D4C7C
:102B6000EE241812339CEA450B7003022BEF122D52
:102B7000355029122C148A108B11EA4511606B799B
:102B800012AC0AAD0B850882850983122B0A8510C9
:102B9000828511831216B9E9F50A7058E4F50AF531
:102BA0000B780A1218CE8E828F83A3A3E0F50A78E1
:102BB0000A1218CEEE2403122E5C780A1218CE8E5A
:102BC000828F83122C21120753740612167AE9F5AC
:102BD0000A7021850C82850D83E0701F850882852F
:102BE0000983122B0A1202DF8011750A0E80097503
:102BF0000A018004E50A6003122E6F850C82850DA0
:102C000083E0600479008002A90A740212167A7FB8
:102C10000C02178D851882851983122B0E1207411D
:102C200022122E6AFD850882850983122B0E2274DA
:102C3000EE1216BB74FE1216648A088B098C0C8D7A
:102C40000DEA2405FEEB3400FF750E00122D4CEA50
:102C5000450B7003022D13122D35502C122C148AA3
:102C60000E8B0FEA450F604A7912AC0AAD0B85084E
:102C700082850983122B0A850E82850F831216B96D
:102C8000E9F50E6003022D16850882850983122F4F
:102C900076AA0AFB122D2770147AFF7BFF122D27CC
:102CA000606C88828983E50AF0A3E50BF0750A0061
:102CB0008007750E0E805F050A900371E0FAE50A41
:102CC000C39A504AE50A75F017A4FAABF0888289D6
:102CD00083A3A3E02AFAA3E03BFB8A828B83122E14
:102CE00065EC4D70D2750A17750B00780A1218CE74
:102CF000EEFCEFFD120FC3740212167AEEFCEFFD2C
:102D0000850882850983122B0A1202E58014750E4C
:102D1000098003750E011236B0850C82850D831271
:102D20002E7CA90E02289D1207358A108B11A8103F
:102D3000A911E84922E5082402F508E5093400F55F
:102D4000098A828B83A3A3A3E0A2E522851882854A
:102D50001983AC82AD838E828F83122D628A0A8B97
:102D60000B22E0FAA3E0FB12063922740412167A51
:102D70007F0A02178D74EC1216BB8C108D11EA2499
:102D800005F50CEB12339F750F00EA2402F50AEBF0
:102D9000122E5F850A82F583122B0A12376B70039D
:102DA000022E51750E008071850C82850D83E064C2
:102DB00001704F8E828F83A3A31218E58E828F83BA
:102DC000A3A3A3A3E0F51275130078121218CEEE98
:102DD0002405F512EF3400F51378121218CE122BD9
:102DE00004120753740612167AE9F50F6014850C65
:102DF00082850D83E4F01236B0851082851183122E
:102E00002E7C7C177D007900EEFAEFFB120FDB8E33
:102E1000828F83E4F0A3F0050E900371E0F8E50ED5
:102E2000C398501EE50E75F017A4F8A9F085088226
:102E3000850983A3A31236D0122E65EC4D600302E0
:102E40002DA885088285098374FFF0A3F0E50F7033
:102E500006122B041202EBA90F022C0FF50AEF3415
:102E600000F50B22A3122E6AFD22E0FCA3E0228EC5
:102E7000828F831236B8850E82850F83E8F0A3E92E
:102E8000F02274F61216BB7C008C087509007402DF
:102E90007808121651122EB46A7003A3E06B700604
:102EA000E8FAE9FB800B0CECC3940340DC7A007B6E
:102EB0000002350874652508F874033509F988821D
:102EC0008983E02274F71216BB7F00EF75F003A42C
:102ED000F8A9F0EC28F8ED39F988828983E06A7066
:102EE00003A3E06B7006E8FAE9FB800B0FEFC394D5
:102EF0000440D87A007B007F0102178D74F6121609
:102F0000BB1234AD70067A007B008007A3A3A3A395
:102F1000122B0A02350874F21216BBE9FE740E1267
:102F200016AF122F7674101216AF1233DE8C828D0C
:102F300083E06402703BA31236B488828983E0F593
:102F40000CA3E0F9A80C740268700374296970215D
:102F5000750C02750D00780C1218CE78081218CE78
:102F6000780A1218CEEEF9120777740612167A80D4
:102F70000279010235D2E0F50AA3E0F50B2274E8EC
:102F80001216BB74FB121664E9851882851983F04A
:102F90008A168B178C0E8D0F741F1216AF1233DE2C
:102FA00074211216AF122F7674231216AF1233C388
:102FB0007510008C828D83A3A3A3E0A2E4502A7431
:102FC0001D1216AF122C1A8A828B83E582458370FC
:102FD0000302308A790AAC0EAD0FAA16AB1712168F
:102FE000B9E9F510600302308D850E82850F83E00C
:102FF00064026003023343A31236B4850882850954
:1030000083A3858212858313E50E2406F50CE50F54
:1030100012339F88828983E0FAA3E0F9EA2400F55D
:1030200014E439F515781412195801000028012804
:1030300052300700022829310328993000295332E1
:1030400001297B3202292232032953320429E43236
:103050004333EE4F703E850C82850D831233D9FACF
:10306000E9FB8A828B83E0850A82850B831233F524
:103070001218CE8A828B83A3122E6AFDAA08AB098E
:10308000120FC3740212167A800375100EA9107401
:10309000050236BE75100B80F4EE4F70F7850A827C
:1030A000850B837401F01233C9850882850983F08A
:1030B0007C007D00850E82850F83A3A3A3A3E0245B
:1030C00001FAA3E03400FB120639EA4B60418A8220
:1030D0008B83E02402F8850A82850B83E028F0EADE
:1030E0002404F8EB3400F988828983E08512828514
:1030F00013831234071233F51218CE8A828B83128F
:103100002E64E5082403FAE5093400FB02308085CB
:103110000A82850B83E02404F07C047D007900AAF8
:1031200012AB13120FDB02308DEE4F6003023094AE
:103130001233C9FEA3E0FF850A82850B837404F075
:10314000EE850882850983F0EF851282851383F06E
:1031500074031216AFAC82AD83EEFAEFFB12349B10
:1031600070030231FF8A828B83A3A31233BF7401E1
:103170001216AF85820E85830F780E1218CE740555
:103180001216AF1218E57CFF7DFF12063F74041281
:10319000167A8B0FEA450F7033850C82850D8312EA
:1031A00033A41218CE850C82850D83A31218E57CFA
:1031B000027D007A757B8F1203CF740412167AE9B0
:1031C000700A74011216AF74FFF0A3F08E828F8321
:1031D000E064027034750C02750D00780C1218CE84
:1031E0008E828F83122E64E5082404FAE5091227E3
:1031F0007612167A850A82850B83E0240280097490
:10320000011216AFEEF0A3EFF074011216AF1233F5
:10321000B5F074011216AFA31233ADA3A3A3F0024D
:10322000308DEE4F6003023094850C82850D831241
:103230002E65AA16AB1712076B850A82850B83745D
:1032400002F0EA850882850983F08512828513835E
:10325000EB80CBEE4F60030230941233C9F8A3E049
:10326000F9850A82850B837402F0E8850882850956
:1032700083F0E985128285138380A3850C82850DF6
:1032800083122B0A120FBDEAFC8C82A882C39EE433
:103290009F404BE86E7001EF70047C00801F851822
:1032A00082851983E0FAEE2AFAEF3400FBC3EA982C
:1032B000EB94005003E08004EECCC39CFCEC850A48
:1032C00082850B83F08C0A750B00780A1218CE8564
:1032D0000C82850D83E02EFCA3E03F02307B75104D
:1032E0000702308DEE4F6003023094850C82850D0D
:1032F000831236B4850A82850B837407F08882892D
:10330000831233AD123395E0851282851383F0E882
:103310002402FAE93400FB8A828B831233AD123324
:10332000E61233B5A31233EF1233B9F0E82405F8EF
:10333000E93400F9888289831233B9A3123407A3D0
:1033400002321B741D1216AF1234A6700302308AAB
:103350001236B4880C890DE8450D700302308A8E50
:10336000108F1178101218CE780A1218CE78081221
:1033700018CE74061216AFE0F9AC0EAD0FAA16AB5C
:1033800017850C82850D831216B9740612167AE918
:10339000F51002308DF088828983A322F50CEF347A
:1033A00000F50D22E0F50E750F00780E22E085087D
:1033B000828509832212340E2212340EA3A322A383
:1033C000A3A3A3E0FEA3E0FF22850C82850D83E08A
:1033D000F8A3E0F5838882E0221236B8E822E0F50F
:1033E00008A3E0F50922A3A3F08A828B83A322120B
:1033F0001F96A3A322F08A828B831233FE22E0F56C
:103400000A750B00780A2212339512340E22E085D9
:103410000882850983A3A32274EE1216BB74FE12E0
:1034200016648A0A8B0BECFAEDFB74141216AFE0EB
:10343000F510A3E0F51174161216AFE0FE74181221
:1034400016AFE0F50EA3E0F50F851882851983AC61
:1034500082AD8312349B603E8518828519831234B5
:10346000A6602FA3A31233DEE50845096024780E79
:103470001218CE78101218CEEEF9AC0CAD0DAA0AC7
:10348000AB0B8508828509831216B9740412167A6B
:103490008006790E8002790102289D1206398A0C75
:1034A0008B0DEA450D22122B0E1234AD221206FFAF
:1034B0008A828B83E58245832274F61216BB74FEE2
:1034C000121664740C1216AF1233D985188285193E
:1034D00083F074011216AFE9F0E4F508F5097808F5
:1034E0001218CE75080278081218CE74041216AF9E
:1034F00085820885830978081218CE12075374064E
:1035000012167A740212167A7F0202178D74F7125D
:1035100016BBEAFEEBFF89087CA47D0312076BEA69
:103520005402600BA908EEFAEFFB12062D80027917
:1035300001022EF774F61216BB74FF6A700374FF53
:103540006B701B7B00EB75F003A4F8A9F0EC28F876
:10355000ED39121F870BEBC39404501480E7120758
:103560003B8A088B09A808A909E8496003121F884B
:10357000809674F61216BB12073B8A828B83E58213
:1035800045836006A3A3E0FA80027A007B0002353F
:103590000874F21216BB8A088B09ECFEEDFF740E5C
:1035A0001216AFE0F50A1235D7701CEEFCEFFD7A6B
:1035B000FF7BFF1235D770047911801688828983CA
:1035C000E508F0A3E509F088828983A3A3E50AF062
:1035D00079007F0602178D12073B8A0C8B0DA80C11
:1035E000A90DE8492274EE1216BBEAFEEBFF8C0827
:1035F0008D09890C74121216AF1236B47414121697
:10360000AF122E6574161216AF122B0A750D00EC50
:103610004D60030236A87402650C60030236A3886D
:10362000828983122E6AF9EC2400F50EE439F50F35
:10363000EAF4F8EBF4F9EC58F8E50F59F9E84970B9
:103640005DE5082406F8E5093400F9880A890B8845
:1036500082F58312278512076B8A108B11E50E65A0
:10366000107004E50F65116042780E1218CE850ABD
:1036700082850B83122785120771740212167AE96C
:10368000F50D7027780E1218CE850882850983A360
:10369000A3122783120783740212167A800D750D08
:1036A000808008750D0D8003750D0BA90D022D701E
:1036B0008E828F831236B822E0F8A3E0F922121628
:1036C0007A7F1002178D3400F50D850C82F5832268
:1036D000E028FEA3E039FF8E828F83227916850AC7
:1036E00082850B83122B0E12074D74082274F2127E
:1036F00016BBEAFEEBFF890B7401650B600E7402CA
:10370000650B70647901120951E9705CEEFAEFFB08
:1037100012376B6048750A00800B7C177D007900BA
:10372000120FDB050A900371E0F8E50AC3985022F6
:10373000E50A75F017A4F8A9F0850882850983A326
:10374000A3E028FAA3E039FB8A828B831233D9499C
:1037500070C885088285098374FFF0A3F07CA47D7E
:1037600003EEFAEFFB1207650235D21207358A081D
:103770008B09EA45092274F21216BB8A088B09EC00
:10378000FEEDFF740E1216AF122F76900FEFE0F4DD
:10379000603D7A097B00120FE7EA4B60328A828B28
:1037A0008374B1F0A3E41233E8A31233E6A3E5086F
:1037B000F0A3E5091237D2EEF0A3EF1237D2A3A39C
:1037C000E50AF0A3E50BF0900FEFE0F9120FF3021A
:1037D00035D2F08A828B83A3A3A3A3A322C082C085
:1037E000839061907404F0A37448F0A3E4F09061B6
:1037F000807440F09061BC7407F09061877469F048
:103800009061B67416F07900120A537902120A59BF
:10381000901F20E493F46006E493F9120A2F7905CF
:10382000120DA7023BEAC082C083E9540FF99061F0
:1038300085E0696012E5C654804449F5C6E59E54AA
:103840007F644970F8E9F053C680E59E547F70FAB2
:10385000023BEA74F71216BBE5A8FE53A87E120AD3
:103860003BC2BA539AFEC289759B00C2C2120A417A
:1038700075A91175B905120A47D2BA439A01748025
:103880005E42A8024AF2C082C083906181E4F0A344
:10389000F0A3F0023BEA75E90075910075BF0002E4
:1038A0000122C082C083906181E4F0A374C0F0A3C0
:1038B000E480DFC082C08374F812166490049B1207
:1038C0004265E849700302396A90049BE054406005
:1038D000237908851882851983AA82AB83120B5B32
:1038E000851882851983AA82AB831207EF90049B07
:1038F000E054BFF0E054806010790C7A367B0812F7
:103900000B5B90049BE0547FF0E0A2E0500879004C
:1039100012397254FEF0E0540260087901123972D3
:1039200054FDF0E054046008790012397D54FBF036
:10393000E054086008790112397D54F7F0E0541022
:103940006008790212397D54EFF0E0542060087964
:103950000312397D54DFF0A3E05401600D120A65B3
:1039600012080190049CE054FEF0740812167A02CA
:103970003BEA120A531207F590049BE022120A59FF
:103980001207FB90049BE022C082C083E96005140B
:10399000602A804F90619A7433F0A37455F090615F
:1039A000A0743AF0900812E064017009C29190048A
:1039B0009D7467802D90049D7461802690619A7437
:1039C0003FF0A3745AF09061A0747FF0900812E069
:1039D00064017009D29190049D7471800590049DDA
:1039E000746AF0023BEAC082C083E9600B14600D88
:1039F00014600F1460118020901F248015901F25E3
:103A00008010901F26800B900812E0640160F390F4
:103A10001F27E493906186F0023BEA74EE1216BB16
:103A200074F4121664851882851983AC82AD83758F
:103A3000838F75823C7404121577901F2493F46071
:103A400003023BAD907808E0C394025003023B8D23
:103A500074041216AFAC82AD8375838E7582A27426
:103A600008121577F97AFF7BFF7FFF7E0089828538
:103A70008210801874086E7003023B4274096E70E5
:103A800003023B42740A6E7003023B42E510C333EB
:103A9000FCE433FD74041216AFE5822CF582E58355
:103AA0003DF583E0F50EA3E0F50F8E08750900746F
:103AB00002780812165174482508FC74783509FDFF
:103AC0008C828D8378081215347408780812144F8C
:103AD00085080C85090D8C828D8378081215347445
:103AE00018780812144FE50C4508F508E50DF5099E
:103AF000C3E50E9508E50F95098C828D8378081231
:103B000015348C828D837808121534741878084027
:103B10001412144FE50C4508FCAD0DE50EC39CFCDA
:103B2000E50F9D800F12144FE50C4508C3950EFC60
:103B3000E50D950FFDC3EC9AED9B5006ECFAEDFBFD
:103B4000EEFF0EEEC394135003023A7474FF6A70D2
:103B50000374FF6B602D8F0874027808121651747D
:103B60004812477374783509F5837808121534853F
:103B70001882851983E5822510F582E5831246B106
:103B8000E508F009E9C394045003023A6575080199
:103B900075090078081218CE74021216AFAC82AD07
:103BA000837AC97B071211F1740212167A740C120F
:103BB000167A7F0A02178DC082C08390618674D501
:103BC000F09061AE7468F0A3746AF090624574FB83
:103BD000F0A304F053F4FD43FE029008127401F0C8
:103BE0007900120A538003123D4CD083D082020127
:103BF000227F0402178D1242BD940622E0C43333A3
:103C000054C022C082C0839007FA7425F09007F850
:103C10007401F0A3E4F07A01FB120D239007E6E0B3
:103C20002416123C507483F0A3740AF09007F7E056
:103C3000640170169007F6E070107901120D83127E
:103C40000D53120D7D7900120D8F023BEAE0241412
:103C5000F8A3E0123C57223400F988828983227449
:103C6000F61216BB74FA1216649007EFE064017046
:103C700008120A6B9007EFE4F075E1F19007E6E0B7
:103C80002415123C507401F09007F1E06401705368
:103C9000908EBCC082851882851983AC82AD8375F5
:103CA000838ED082740612157775D90D9007E812AD
:103CB0003BFC4403F5D97800880874E91247737413
:103CC00007123BF640F27800880885188285198330
:103CD000E582124773E583123BF640EC75E1957976
:103CE0000180027900120D29901011123D5274FDCD
:103CF000F0A3740BF0A3123D52123D52123EB17468
:103D000003F0A3740C123EC69007E8E0F97AE97B51
:103D100007120D059007FA123D4C7901120D2F90F4
:103D20008ED4121552120D47908F28121552120D73
:103D3000117900120D9B9007E6123C4D7416F0901D
:103D400004997405F00412167A02434EE0F9121E2B
:103D5000A32274F7F0A3740BF0A32274F41216BB21
:103D60008908A808123E959007FFE0F97A007B08C1
:103D7000120D0590080DE0701A7900120D6590077C
:103D8000D9E0700B79007ADA7B07120D0B80097984
:103D90000180F37901120D6575E1F175D923900762
:103DA000FF123BFC4405F5D97800880A7400250A07
:103DB000F5827408123BF640F175D90075D900758B
:103DC000D90075D90075D90075D9007A00124F2134
:103DD00024221241E040F67A00124F212426F58277
:103DE000E91243560AEAC3940340EEEE242B124331
:103DF000537A00124F21242C1241E640F67A001229
:103E00004F21242E1241E640F67A00124F21243031
:103E10001241E640F67A00124F2124321241E64068
:103E2000F67A008A0AEE250AF8EF1247611241F38A
:103E3000940540EFEE24371249B3541FF8EE242ABC
:103E40001249B3C43354E048F5D975E19590101187
:103E500074CDF0A3740BF0A374D3F0A3740B123ED3
:103E6000A874D9F0A3740B123EC690080C123D4CF6
:103E7000908ED4121552120D47908F28121552129F
:103E80000D1190600DE4F07901120D9B900499746E
:103E900006F0023BF1E875F006A4C8AAF02AF9740E
:103EA000C728FE740439FF22F0A3123EB1123EB1BE
:103EB00022123EB52274C7F0A3740BF0A374C7F0AE
:103EC000A3740BF0A322123ECA22F090101F123EE0
:103ED000D6A3123ED622123EB574C7F0A3740BF0DF
:103EE0002274EC1216BB9007FD124A697810121565
:103EF0003490080EE0FAF875F006A4C8ACF02CF97E
:103F000074F528F582740439F583E0FEA3E0FFEE32
:103F1000C333FEEF33FF8E0CF50D750E00750F00E9
:103F200085100885110985120A85130B908ED878A3
:103F30000812149A78081218CA8510088511098584
:103F4000120A85130B7808790C1214877810790CF3
:103F50001213DFE4F50EF50F7808790C1214C08AFD
:103F60000C750D007403780C1216517808790C1238
:103F70001487908F2C78081214FBAA08AB09AC0A9E
:103F8000AD0B121E3B740412167A8A088B09A8081E
:103F9000A909C3EE98EF995006E82EF8E93FF9E831
:103FA00090600EF0E9A3F0EEA3F0EFA3F090600DA7
:103FB00074C1F07F0C02178DC082C0839007E61297
:103FC0003FD89007FA023BE7C082C0839007FD12FA
:103FD0003FD890080C023BE7124A6DA3A3A3A3E4C9
:103FE000F0A3F02202012274F21216BB124132F544
:103FF0000AEF1244A96004780480027800E8240ED5
:10400000F8EAC398500302409075080C900816E433
:10401000F0EE24771249B3900817F07902EE247875
:10402000FCEF3400FD7A187B08120B497902EE246C
:104030007A124095247C124095247EFCEF3400FDDA
:10404000120B49EE2475124148850A82850B83E0E4
:10405000601675081675090878081218CE7C0C12BF
:1040600045BD12167A75081074012508F5D975D961
:104070000378008009880A7416250A124127E8C3CC
:10408000950840F175E1957904120D4D7901800292
:10409000790002475CFCEF3400FD120B497902EE17
:1040A0002274F21216BB124132F508EF3400F50902
:1040B000850882F583E06004780480027800E824B3
:1040C0000AF8EAC3984055750A089008167401F07A
:1040D00079057CE07D077A177B08120B49EE248175
:1040E000124148850882850983E0601675081675B7
:1040F000090878081218CE7C081245BD12167A7588
:104100000A0C1243B08003124121E8C3950A40F71C
:1041100075E1957904120D4D79018002790002470D
:104120005C880874162508F58274081249BAF5D916
:10413000082212413622EAFEEBFF9061D0E0F874CB
:1041400080C398FAEE248322FCEF3400FD8E828F28
:1041500083A3A3A3A3A31242698C828D83E028F0DA
:10416000A3E039F07902120B492274F61216BBEA69
:10417000FEEBFF9061D0E0706275D91875D90375B8
:10418000D9037A008A08EE2508124F26249C124291
:104190000A40F17A008A08EE2508124F2624A4125C
:1041A00041E640F17A008A08EE2508124F26249451
:1041B00012420A40F17A008A08EE2508124F26249E
:1041C000881241E040F175E1957908EE249412429D
:1041D0000324881241FA1242D58002790002434E2C
:1041E0001241EC9404221241EC940222F582E9344B
:1041F00000F583E0F5D90AEAC322FAEF3400FB1296
:104200000B4F221241FA7904EE221241EC9408225B
:1042100074F61216BBEAFEEBFF9008167406124203
:10422000C81218CE7C0179031245C312167A75D9CB
:104230000675D90378001242AD40FB75E1959004F4
:1042400099E064087017EE2470F582EF124262EE76
:104250002472F582EF1246B1E8F0A3E9F079010289
:10426000434E12476E12426922E0F8A3E0F922742D
:10427000F61216BBEAFEEBFF9061D0E0702A9008C0
:1042800016740A1242C81218CE7C0179031245C373
:1042900012167A75D90675D90378001242AD40FB23
:1042A00075E1951242DA8002790002434E88087463
:1042B000162508F58274081242BD9405223400F5D3
:1042C00083E0F5D908E8C322F07508167509087867
:1042D000082275E1957904120D4DEE2470F582EFF8
:1042E00012476E124269EE2472F582EF12476EE8B1
:1042F000F0A3E9F079012274F61216BBEAFEEBFF97
:104300009061D0E070437901900816740BF090042E
:1043100099E064077017750816750908780812186F
:10432000CE7C0109091245C312167A790574012958
:10433000F5D975D90378008003124121E8C399406B
:10434000F875E1951242DA800279008001F07F026F
:1043500002178DF582EF1249BAF5D92274F51216BB
:10436000BB1243DF6004780480027800E8240BF875
:10437000EAC3984036750A099008167408F0F912D5
:1043800043C8601475081675090878081218CE120B
:1043900045BB12167A750A0D1243B08003124121F3
:1043A000E8C3950A40F71242D28002790002462AF9
:1043B0007401250AF5D975D903780022EE241DF57C
:1043C00082EF1246C3A3F022EE24E5FCEF3400FD99
:1043D0007A177B08120B49850882850983E022122F
:1043E0004136F8EF124B3DF583E02274F31216BB11
:1043F0008A088B091245CEFAE5082483F50AEB12E8
:1044000044A96004780480027800E82408F8EAC32C
:104410009850030244A2750C06900816740CF09094
:1044200004B6E0900817F07402C0E0F97CB77D0490
:104430007A187B08120B49D0E0F97CB97D04120B85
:1044400049850A82850B83E0601C750A16750B0886
:10445000780A1218CE7C067903AA08AB091245C364
:1044600012167A750C0A7401250CF5D975D90378E2
:10447000008009880A7416250A124127E8C3950CA2
:1044800040F175E1957904120D4DE5082470F5822F
:10449000E509124262E5082472F582E5091242EC50
:1044A000800279007F0502178D3400F50B850A82A2
:1044B000F583E02274F61216BBEAFEEBFF1245CE3E
:1044C000FCEE2483F8EF1245C960047A0480027A76
:1044D00000EA2404FAECC39A405E7A02900816EAD5
:1044E000F0EE24F7F582EF12454460197508167551
:1044F000090878081218CE7C027903EEFA1245C337
:1045000012167A7A0674012AF5D975D903780080D3
:1045100003124121E8C39A40F875E195EE24741224
:10452000453DEE248012453D1243BC7904120D4DE9
:10453000EE240D1242DD8002790002434EF582EF37
:104540001246C3221249BA900817F088828983E084
:104550002274F61216BB1245CEFEEA2483F8EB1243
:1045600045C960047C0480027C00EC2404FCEEC39A
:104570009C40437C029008167407F0EA24F8F58208
:10458000EB1245446015750816750908780812186D
:10459000CE79031245C312167A7C0674012CF5D924
:1045A00075D90378008003124121E8C39C40F87557
:1045B000E19579018002790002434E7C097903EE8E
:1045C000FAEFFB120BBB740222123C57E0229061FF
:1045D000D0E0F87480C3982274F51216BBE9FEA2ED
:1045E000AFE433F50AC2AF7F00EA246FF8EB340082
:1045F000F980010F88828983E0FCEFC39C50188FFB
:1046000008EA2508FCEB3400FDEC246BF582ED1282
:1046100049B66E70DE800DEA2CFAEB124946EE12B6
:10462000454A04F0E50AA2E092AF7F0302178D74B9
:10463000F61216BBA2AFE433FFC2AFEA246FF8EB69
:10464000124F28FCE9FD8C828D83E014F07E0080FF
:104650001E8E08EA2508F8EB124F28246CF582E933
:104660001249B6C0E0E8246B1246AED0E0F00E8CE2
:10467000828D83E0F8EEC39840D7EA246EF582EB92
:104680001246B174FF1246B5EFA2E092AF02434E5C
:10469000C082C083E5A8F8C2AFEA246BF582EB12B2
:1046A00046B1E91246B5E8A2E792AF023BEAF582CD
:1046B000E912476E22F0EA246AF582EB1246C32221
:1046C000F582E93400F583E4F02274F21216BB8C13
:1046D000828D83A3A3A3A3E0541FF0EA2436124CD7
:1046E000708E828F83E4F0F50C850C8285820AEC53
:1046F000250AF8ED124B39F583E0C0E0EA250AF807
:10470000EB124761D0E0F0750D00850882850983C2
:10471000E0F50A750B00E50D780A121632E50AA2DB
:10472000E05027E50C33333354F8250DC0E08E827A
:104730008F83E0F8EA28F8EB124F2824381246AEAF
:10474000D0E0F08E828F83E004F0050DE50DC39478
:104750000840B7050CE50CC39405408D7F06021791
:104760008D3400F9E8245D12476B22F582E93400AC
:10477000F583222508F5822274F61216BB9004C335
:10478000E0640370077A007B0002434E7C00ECF883
:1047900075F006A4C8AAF02AF974C928F582740431
:1047A00039F583E0600302492A124BB2124958E4FA
:1047B000F0E82404FAE93400FBEAFEEBFFEC8E8219
:1047C0008F83F0E824621249372465124967246810
:1047D0001246AE124958A3A3E4F0A31249FCA31257
:1047E000496B240F124937243512493F121552E8FC
:1047F00024181246AE12155EE8241C124953241DDB
:1048000012496724801249532474124953246912AF
:1048100046AE7480F0E8246A124953246F1249535B
:10482000246712495324ED12495324EE12495324AC
:10483000EF12495324F012495324F112496724F32B
:1048400012496724F6124953248312495324D31280
:10485000495324D412493F121552E824D51246AECA
:1048600012155E908F20121552E824D91246AE120E
:10487000155EE824DF12495324E112495324DD1266
:10488000495324E212495324E312495324F91249AB
:104890006724FB12496724FD12496724FFF582E96A
:1048A0001243C2FC8C08E82508FAE912494674FF55
:1048B000F00CECC3940440EC7C008C82AA8274E07F
:1048C0002AF58274071249B6C0E0E82AFAE93400F2
:1048D000FBEA245DF582EB1246B1D0E0F00CECC3AC
:1048E000940540D67C008C82AA8274AD2AF582742D
:1048F000041249B6C0E0E82AFAE93400FBEA24E5EC
:10490000F582EB1246B1D0E0F00CECC3940840D62F
:104910009004C3E004F0640170098E828F83E090FC
:1049200004C5F0E8FAE9FB0247890CECC3940340A4
:104930000302478502478E12476B7401F0E822128A
:1049400046C0908F20223400FBEA246BF582EB12E4
:10495000476E221246C0E822740112495E22F08896
:10496000828983A3A3A32212476BE4F0A3F0E82279
:10497000C082C083EA2403F582EB1249B66008E4E2
:10498000F09004C4E014F09004C3E014F0700690BA
:1049900004C574FFF08A828B83A3A3E4F09007E53B
:1049A000E0700D9004C4E0640170057900120D17E9
:1049B000023BEAF582EF1249BA223400F583E02285
:1049C000C082C0837B00EBF875F006A4C8AAF02A69
:1049D000F974C328F87404124BBCA3A3A3A3A3E4E3
:1049E0001249FCF00BEBC3940340DB9004C3E4F0EA
:1049F000A3F0A374FFF075E1F1023BEA12495EA354
:104A0000A3A32274F51216BB750800750900750A78
:104A100000A80A123E958E828F83A3A3A3E0602D87
:104A2000E5084509700AEEF8EFF988088909801D44
:104A3000850882850983124A691218E1124A6512B3
:104A40001552121DDE740412167AE960D9050AE5C2
:104A50000AC3940340BB850882850983A3A3A3A34B
:104A6000E0F902462A8E828F83124A6D22E0F8A373
:104A7000E0F5838882A3A32274F71216BB78FF792E
:104A8000FF7F00EFFC75F006A4CCAEF02EFD74C7DE
:104A90002CFC74043DFD8C828D83A3A3A3E06040B5
:104AA000EC2474F582ED1249B6FE74FF687003744D
:104AB000FF69701574016E700BEC247AF582ED12AB
:104AC0004262801CEC242E80F374016E700AEC2488
:104AD0007A124AF7500A80E1EC242E124AF740E499
:104AE0000FEFC39403409CC3EA98EB994004E8FAA3
:104AF000E9FB7F0102178DF582ED12476EC3E09846
:104B0000A3E0992274F61216BBEAFEEBFF120AEF3D
:104B1000EE2465F8EF124B39124B47EC4D601090C4
:104B200004C5124E5D850882850983E4F0A3F0EE8A
:104B3000FAEFFB120C3F02434E124B3D223400F9B8
:104B400088088909888222F583E0FCA3E0FD2274AD
:104B5000F71216BBEAFEEBFF8E828F83A3A3A3A3FB
:104B6000E0FA7B0012086DEEFAEFFB120B07120C55
:104B700021024AF2C082C0837B00EBF875F006A4E4
:104B8000C8AAF02AF9124BB2A3E0601AE8246FF524
:104B900082E91249B6600FE8246BF582E91249B642
:104BA0007004790180090BEBC3940340CD790002B6
:104BB0003BEA74C728F87404124BBC2239F9888286
:104BC0008983A3A32274F61216BB7800880874ADFB
:104BD000124773740412454008E8C3940840ED90EE
:104BE00004AD740102434DC082C08374FC1216648C
:104BF000908F2012155285188285198312155E1226
:104C00000B55E9851882851983F0120B5574011232
:104C100016AFE9F0120B5574021216AFE9F08518C1
:104C200082851983121552740402396C74F61216B7
:104C3000BBEA240D124C70EC2403F8ED3400F98823
:104C4000088909EC2407F8ED124F28FCE9FD124C05
:104C50007A1215D98E828F83E8F0A3E9F0124C7A8C
:104C60001215D98B09EA45096003124C8D02434E97
:104C7000F8EB3400F9E8FEE9FF228C828D831242C2
:104C800069850882850983E0FAA3E0FB228E828F82
:104C900083E02401F0A3E03400F02274F61216BB86
:104CA000EA242EF582EB3400124B47EA2470124CB2
:104CB00070780079FAECFAEDFB1215D98E828F83A9
:104CC000E8F0A3E9F0780079FAECFAEDFB1215D9D7
:104CD0008B09EA45096003124C8D02434E74F012B1
:104CE00016BBEAFEEBFF74101216AF7808121534EB
:104CF000120CD58A0C8B0D8C0E8D0F908EDC780CDF
:104D000012149A908F2C780C1214FB780C1218CA7B
:104D1000124A65121552121DDE740412167AE960E9
:104D200003024DC18E828F83E02402F8A3E0124F6C
:104D300028FAE9FB8A828B8378081214AD908F2CB5
:104D400078081215348A828B83780812150EEE24A7
:104D50000BF582EF1246B1C082C0838E828F83A38F
:104D6000A3A3A3A3E02401F8A3E03400F9D083D0E7
:104D700082E0687003A3E069700479018045EE2445
:104D800007F8EF123C57124C91EE2474124F2D701D
:104D900014EE2475124DC87003A3E06D70078A826B
:104DA0008B83124C91EE2480124F2D7014EE2481CF
:104DB000124DC87003A3E06D70078A828B83124C7A
:104DC0009179007F0802178DFAEF3400FB8A828BFD
:104DD00083E0FCA3E0FD88828983E06C2274F312F7
:104DE00016BB9004C5E0F8123E96EE2404F50AEFD7
:104DF0003400F50BEE2465F508EF3400F50980105A
:104E0000124B49850882850983E4F0A3F0124E57BE
:104E1000850882850983124B49EC4D6030EE24648D
:104E20001249B3F50C780C1218D2EE24631249B370
:104E3000F9EEFAEFFB120B3D740112167AE98508C0
:104E40008285098360BA124265E84970077C007D5B
:104E500000124E570244A4850A82850B83E0FA7B38
:104E6000001208252274F21216BBEAFEEBFF890A33
:104E7000740E1216AFE0FAEE2462124F2D60030298
:104E80004F1C1245CEF50CEE24831249B3FB60048F
:104E90007804800278008908E928F8E4124F282471
:104EA000020808E93400F9E50C98E499A2D265D02B
:104EB000334065EA7005750B028003750B01EB60EA
:104EC0003375090078081218CE7A167B08120B8504
:104ED000740212167A75081675090878081218CE29
:104EE000AC0AA90B1245BF12167A7404250AF50AFA
:104EF0007C167D087401250AF5D9850BD9780080C8
:104F00000A8808EC124773ED12412BE8C3950A405A
:104F1000F075E195790080067907800279FF0247F4
:104F20005C8A0AEE250AF8EF3400F9E822F582EFF0
:104F30001249BA640122C082C0838003124F64E91F
:104F4000F874FF28190470F4ECFAEDFB023BEAC098
:104F500082C0838003124F64E9F874FF281904703B
:104F6000F4023BEA8C828D83E08A828B83F08C8210
:104F70008D83A3AC82AD838A828B83A3AA82AB8309
:104F80002274F41216BBE9900498F0120CE79078A2
:104F900000E0C4540F540764037004793F80027921
:104FA0007F75080675090078081218CE7C867D0486
:104FB0007AEA7B071211EB740212167A900486E0EB
:104FC000F47049A3E0F47044A3E0F4703FA3E0F46C
:104FD000703AA3E0F47035A3E0F4703090780EE0FE
:104FE000900486F090780FE0900487F0907810E0BD
:104FF000900488F0907811E0900489F0907812E0A5
:1050000090048AF0907813E090048BF090048C1256
:1050100051281262A39004B67406F0A3740D1257BF
:10502000137430F0A37401F09007E912512890072F
:10503000E8E4F09007EF04125713125116E4F0A3BE
:1050400004F0A3125713125711F0900800125128C0
:105050009007FFE4F090080604F0A3E41251161242
:105060005711F0A37405F090081074FFF0A3E4F05A
:10507000900812F090081404F0120A5F12097B12D3
:105080000C8D79017A157B08120B5B900815E07581
:10509000F01484E5F004F0790C7A367B08120B5B8F
:1050A000120B797A00900498E0F912106590780359
:1050B000E06442705E900815E014F07056C2AF12C2
:1050C00050C200781DD0E0F618D0E0F6E59F5407F6
:1050D000F97005908EE48003908EE87808121534FC
:1050E000E9C4C0E0781CE65508F50808E65509F55E
:1050F00009740B7808121642D0E02508F890627007
:10510000E0A2E740F8E8C333906272F0906270E08A
:10511000D2E0F00254FB12511F12511FF0A322F0F3
:10512000A37480F0A374022274FF125338F0A3F02A
:105130002274F61216BBEAFEEBFFEEA2E05043909B
:10514000049AE0C39480E0500FC333F8E433F97459
:105150001128F5827410800EF4C333F8E433F97427
:105160001F28F582741039F5831259A21216B97AE4
:1051700000900498E0F9121065EE6401FAEFFB026A
:1051800052815408607990080EE0F875F006A4C8C2
:10519000AAF012528F75080078081218D2EA243249
:1051A000125284F50974047808121642780812180D
:1051B000CEEA2430F582EB12570D1218E5EA242EC0
:1051C000125284C313F509E50813F508780812187C
:1051D000CE7508DA75090778081218CE9007D9E05D
:1051E000FD7C008A828B83A3A3A3A3E0FA7B0079D2
:1051F00000120867740912167AEE640802517CEEF8
:105200005410604075080078081218D2E4F5097847
:10521000081218CE78081218CE78081218CE750821
:10522000DA75090778081218CE9007D9E0FD7C00DE
:105230007A007B007902120867740912167AEE640C
:105240001002517C90049FE064017031EE542060A4
:105250002C900499E024F9600314701B793F9004AA
:10526000C5E0FA75F006A4CAA8F028FB74C72AFAAC
:1052700074043BFB120B0DEE642002517C7A007B20
:105280000002572AF582EB126258F508A3E0222AA1
:10529000F974C728FA740439FB22C082C083C2AFF4
:1052A000120CC3E5E170FC75E101125719120CFFF5
:1052B0007907120D957901120D9B7902120D1D12BD
:1052C0000D53120D7D7900120D8F7901120D8F9003
:1052D0008F28121552120D119007D9E412512AA3EA
:1052E000F09007F0F0900807F0120AF5120C1B126C
:1052F0000B197900120DA19007E074FF1253387456
:105300001FF0906012E4F0A3F0906063F0751A0053
:10531000900499F090049BF0A3F09007E5F09004BE
:105320009EF090049F04F09004B57403F09008136D
:10533000E4F0D2AFF9025E6EF0A3F0A3F0A3F0A305
:1053400022C082C083900486125382F09004871298
:105350005375F0900488125375A3F090048912538A
:1053600075A3A3F090048A12537AF090048B125321
:105370007AA3025E6B125382A322125382A3A3A3C9
:10538000A322E08A828B8322C082C0838A828B839D
:10539000E090048C1253C5E090048D1255009004E7
:1053A0008E1253BFE090048F1253BAE09004901213
:1053B00053BAA3E0900491025E6B1253BFA3221272
:1053C00053C5A3A322F08A828B83A322C082C08309
:1053D0009007F0E06401701212545C6009E8700AF2
:1053E000A3E064017004790C8015900807E0640163
:1053F000700890080DE0640160EC120D5379000212
:105400005E6E74F71216BBE9FE9007F0E06401705F
:105410001212545C6009E8700AA3E0640170047918
:105420000C8036900807E06401700890080DE06475
:105430000160ECEE600974016E600A7912801A7CDA
:1054400000790080047C007901120D59E9F8740399
:105450006870047907800279000258139007F6E01B
:10546000F87401682274F61216BB740A1216AF1291
:1054700062971218CE120B7302572374F41216BBE4
:10548000EAFEEBFF8908900499E064096014E06487
:105490000A600FE0640B600AE0640C6005E0640DD4
:1054A0007004790C801E120C458B0BEA450B700BB7
:1054B000A908EEFAEFFB120B5B800990049BE04415
:1054C00040F0790D803574F41216BBEAFEEBFF89CB
:1054D0000BEE4F6003E970047912801F750A001209
:1054E0000B55850A08EE2508F582EF12570DE9F0F5
:1054F000050AE50AC3950B40E679007F0402178D83
:105500001253C5A3E022C082C083E9F87401687019
:105510000B9008137401F07900025E6EE87006903B
:105520000813E480F1791280F074F61216BBEAFEDB
:10553000EBFF8C088D09900499E0640C7005906174
:105540008E8012126235702F1262E574302EF58251
:1055500074053FF583E0F9748069700A85088285D7
:105560000983747F800E90049DE0F8E9C398850854
:1055700082850983F0790002572A74F71216BB124C
:10558000622F704812625DEA240F1260A3600779EF
:1055900016120B0D8034EA241DF8EB3400F9EA24CE
:1055A000F7FCEB3400FDEA246A1262447016EA2428
:1055B0006B1260A364027004793A80101255CF1206
:1055C0000ADD80061255CF120AD179000258138CD9
:1055D000828D83E50812629DE4F0A3F079022274C3
:1055E000E81216BB8A0A8B0B8C108D11890974186E
:1055F0001216AFE0F508EC45116010E9C3941C5099
:105600000AE508600B740165086005791202570409
:105610001262356003025704A80AE875F006A4C8B0
:10562000AAF02AFA75F006E50BA42AF974C728FE39
:10563000740439FFEE2465F516EF3400F51785166E
:1056400082F58312598FE84970C1A2AFE433F51295
:10565000C2AF120C458A148B158A828B83E0F874D2
:1056600040686011748068706E9004C5E0650A70CF
:1056700002E50B7062120CDB8A0A8B0B120CDBEA60
:10568000650A7003EB650B604E1262FB908F247805
:105690000C12149A780C1218CA851482851583A3EB
:1056A000A312155212626612167AE964017028E597
:1056B00008F50A780A1218D2A909AC10AD11EEFA51
:1056C000EFFB120B3D740112167AE9700AE512A283
:1056D000E092AF7900802D851682851783E510F062
:1056E000A3E511F0EE2463F582EF12570DE509F002
:1056F000EE2464F582EF12570DE508F0E512A2E002
:1057000092AF79077F1002178DF582E5091260B517
:10571000227425F0A3E4F0A322120A35120A297597
:10572000E1F122740212167A79007F0202178D7459
:10573000F71216BBE9FE74091216AFE0FF740A12E5
:1057400016AFE0F508EE600574016E701EEF60059F
:1057500074016F701612597A5011EC24FCF8ED1296
:10576000597F5007C3EA9CEB9D50057912025811EE
:105770009007F0E064017005790C025811EEA3F077
:10578000E5089007F6F0EF9007E8702FE4F090043A
:1057900086E09007E9F0900487E09007EAF0900433
:1057A00088E09007EBF0900489E09007ECF090041B
:1057B0008AE09007EDF090048B802E7401F0900445
:1057C0008CE09007E9F090048DE09007EAF09004F7
:1057D0008EE09007EBF090048FE09007ECF09004DF
:1057E00090E09007EDF0900491E09007EEF09007C4
:1057F000F2EAF0A3EBF0A3ECF0A3EDF0E5087004FF
:10580000790080087401650870057901120D5F79CF
:105810000080007F0102178D74F41216BBE9FEEAC6
:10582000FF900499E064096014E0640A600FE0648A
:105830000B600AE0640C6005E0640D7005792102DC
:10584000590E9007F1E0F860057401687033900715
:10585000E8E0F8600574016870279007F212598338
:1058600012597A501CA312598FE824FCFCE934FF2A
:10587000FDC3EC94FDED943F5007C3EA98EB9950BB
:1058800005793002590EEE700302591114600302BB
:1058900059769007F0E0640160A37902120C399008
:1058A00007E6EAF0A3EBF09007F07401F09007EF41
:1058B000F0EF9007F7F0900499E07050120A71121F
:1058C0000CD58A088B098C0A8D0B908F30780812C2
:1058D000149A908F2C78081214FB1259957808129C
:1058E00015439007E6125E29125995C082C0839035
:1058F00007F4125E03D083D082780812149A9007BE
:10590000E61259AB7808121543120C2179000254A3
:10591000FB9007F0E0700302583DA2AFE433F508B6
:10592000C2AF7AE67B07120C3F9007F0E4F0120C4E
:1059300057E9701C120CC3906182E0C2E6F0E5E109
:1059400070FC75E1017591BF7901120D9B75E1F154
:10595000E508A2E092AF12545C7005120D7D80AC98
:10596000A3E0640170A6E870A3120D53120D7D79B7
:1059700001120D89809679128094EA24FCF8EB12CA
:105980005E1E22E0FAA3E0FB22851882851983E0DF
:10599000F8A3E0F9229007E612599C221259A2A31B
:1059A000A322E0F8A3E0F583888222E0240EF8A386
:1059B000E03400F9888289832274E81216BB74FCF3
:1059C00012166474021216AFEAF0A3EBF085188287
:1059D000851983ECF0A3EDF08915741D1216AFE064
:1059E000F50AA3E0F50B741F1216AFE0F51474204E
:1059F0001216AF125E0C74221216AFE0F516A3E079
:105A0000F51774261216AFE0FEA3E0FF74281216F5
:105A1000AFE0F50CA3E0F50D742A1216AFE0F50E19
:105A2000A3E0F50F900807E06401600A7904120C06
:105A30004BE9640170057921025DFB900499E064F3
:105A40000960F3E0640A60EEE0640B60E9E0640C76
:105A500060E4E0640D60DF74021216AF125E144061
:105A600003025AE9851882851983125E14507A74EC
:105A7000021216AFC082C083125989D083D082C36C
:105A8000E098A3E0994062E5156006740165157021
:105A900058741C1216AFE060046401704CE5146089
:105AA00006740165147042E50824FAF8E5091260ED
:105AB000885036E51624FAF8E517126088502AC394
:105AC000E5169508E5179509401FC3E50E950CE509
:105AD0000F950D401474241216AFC3E094F4A3E0A4
:105AE0009401500512607A40057912025DFB85161B
:105AF00008851709E508C333F508E50933F5097486
:105B0000241216AFE02401F510A3E03400F511E4EF
:105B1000F512F51385080C85090DF50EF50F7810B3
:105B2000790C12135F8E0C8F0D7403780C121651C2
:105B3000780C791012132050B0120B13E964017025
