:020000040000FA
:0600000002010A021EAA23
:03002B00022304A9
:03005300021F2069
:03006B000222AEC0
:03007B000222E678
:10008300021D9BE5C754F84401F5C779012200001E
:100093000080FB120086B900030200F4E4792178A2
:1000A30008B800028004F709D8FCE479297802B87B
:1000B30000028004F709D8FCE490028178147908DF
:1000C3008002F0A3D8FCD9FA900994AA82AB83905A
:1000D300013A78A879048015E493A3AC82AD838AAE
:1000E300828B83F0A3AA82AB838C828D83D8E9D9D8
:1000F300E77582217583AC740312011C75829175B7
:100103008300740012011C75D00075813F7518813E
:10011300751902759F00020096C09FF59FE473D086
:100123009F22D083D082C09FE493C0E0740193C028
:10013300E0740293F59F22FF0000B400002800281A
:1001430000283075A000A000A000A000000800084F
:10015300E001F0001000100010001000100010006B
:1001630050005000500010001000D00700000000A5
:1001730000000F00307507001000010081FF000030
:10018300FF5D077B076307FF02020A0A025000A014
:10019300000000E803022790010000CD8F02E38FE7
:1001A300010000E50902E98F010000B20202E38FBA
:1001B300010000E60902EB8F010000C80202E38F91
:1001C300010000E70902ED8F030000CA0202E38F7A
:1001D300010000E80902EF8F030000CB0202E38F66
:1001E300010000E90902F18F010000EA09FFFF01A4
:1001F30000FF20022790010000D08F02E38F01004F
:10020300004F0A02F38F000000000002E78F030093
:10021300005A03110E110E110E110E110E110E11B3
:100223000E110E110E110E110E110E110EE110F919
:1002330010DB10FFFF020202020202020202010DA2
:100243000000001001022790010000D38F02E38F0A
:10025300010000920A020590010000B70702E38F34
:10026300010000930A020390010000018F02E38F53
:10027300010000940A02FF8F010000E58E02E38F64
:10028300010000950A02FD8F0100006D8E02E38FCD
:10029300010000960A02FB8F010000918E02E38F9A
:1002A300010000970A021D90010000A38E02E38F54
:1002B300010000980A02F78F0100007F8E02E38F8E
:1002C300010000990A02F58F010000F38E02E38F0B
:1002D3000100009A0A02F98F0100009B0A01E8035A
:1002E300053F10FF00013075030201060000000006
:1002F30000000000000000000000000000000000FB
:100303000000000000000000FFFF0600800CE8036F
:10031300140953696D706C65424C45506572697080
:10032300686572616C051250002003020A00020125
:10033300050302F0FF53696D706C6520424C452044
:100343005065726970686572616CCB140000D114DA
:10035300FEFF0A436861726163746572697374694D
:10036300632031000243686172616374657269736B
:100373007469632032000843686172616374657253
:100383006973746963203300104368617261637435
:100393006572697374696320340002436861726132
:1003A3006374657269737469632035000227900171
:1003B3000000D98F02E38F010000AF0B0209900305
:1003C30000007D0902E58F010000B00B02E38F01FD
:1003D3000000C10B020B900100007E0902E58F01B2
:1003E3000000C20B02E38F010000D30B020D900249
:1003F30000007F0902E58F010000D40B02E38F01A7
:100403000000E50B020F90000000800902E78F0354
:100413000000810902E58F010000E60B02E38F0172
:100423000000F70B021190040000870902E58F0119
:100433000000F80B104B65792050726573732053DD
:100443007461746500022790010000D68F02E38F68
:10045300010000910C0219900000008C0902E78F43
:100463000300008D0902E58F010000920C55AA7468
:10047300657374207661723100007465737420763D
:100483006172320000656E61626C650000020227D2
:1004930090010000DC8F02E38F010000EA0C0221CF
:1004A30090030000CA0C02E58F010000CC0C02E3AC
:1004B3008F010000EA0C022390030000CB0C02E53D
:1004C3008F010000D70C02E38F010000EA0C022524
:1004D30090030000930902E58F010000E20C120172
:1004E3002546A3031201255CA30312012589A30357
:1004F300120125B9A303120125DAA3031201250B67
:10050300A4031201255CA40312012573A4031201A1
:1005130025169D031201252D9D031201255C9D03C4
:10052300120125959D03120125BD9D03120125EBA3
:100533009D03120125029E03120125199E03120138
:10054300252F9E03120125569E03120125699E0342
:100553001201257F9E03120125929E03120125B7E6
:100563009E03120125E68C02120125E58D0212017C
:10057300250F8E02120125648E02120125858E023B
:100583001201259E8E02120125A08E02120125C1A1
:100593008E02120125C48F021201258190021201DD
:1005A300254E9102120125B29102120125499202B0
:1005B3001201254C9202120125D292021201251535
:1005C30093021201256793021201259E93021201E1
:1005D30025249402120125AD9402120125F69402FA
:1005E30012012503950212012506950212012564C5
:1005F30095021201257C9502120125F6950212013E
:1006030025F995021201251C96021201251F960257
:10061300120125C69602120125E99602120125014F
:1006230097021201253197021201253E970212010A
:1006330025419702120125AD97021201259B9802CD
:1006430012012551990212012527EE021201254FAD
:10065300EE021201257DEE02120125B4EE02120113
:10066300251CEF0212012565EF02120125B0EF02EE
:10067300120125EEEF021201252BF002120125597A
:10068300F00212012500F1021201250AF102120102
:100693002517F1021201254AF1021201250CF2027B
:1006A30012012518F20212012530F2021201253A35
:1006B300F202120125B8A903120125C6A9031201EA
:1006C30025DEA903120125F6A90312012569B1014B
:1006D30012012507B2011201257FB20112012594EF
:1006E300B301120125CEB30112012577B401120122
:1006F300254CB501120125B0B60112012507B7013A
:100703001201258EB70112012575B801120125C208
:10071300B80112012550B90112012574B901120162
:100723002549BB011201258ABB01120125ACBB017E
:100733001201252DBC0112012517BD01120125DD72
:10074300BD01120125A6D10212012578D2021201A0
:100753002521D30212012564D302120125F1D3020C
:100763001201257DD4021201255ED5021201258DC9
:10077300D50212012589D602120125D1D602120112
:1007830025D3D70212012517D8021201253DD8021D
:100793001201255BFF0212012500800312012516B9
:1007A30080031201253C8003120125648103120199
:1007B300256E8103120125C78203120125C7830316
:1007C30012012572E4021201257FE502120125B30D
:1007D300E502120125F5E502120125AFE702120138
:1007E300252A9001120125BA90011201259D91013C
:1007F300120125CB9101120125D69101120125C0C9
:1008030092011201255C93011201256095011201E9
:10081300251797011201259397011201257098015D
:100823001201259E9B011201253C9C011201259971
:100833009D011201250C9F01120125B59F01120193
:1008430025FE9F0112012535A001120125DAA00121
:1008530012012558A1011201250CA2011201256FD5
:10086300A201120125B4A301120125C4A30112019F
:1008730025E7A30112012532A401120125D7A40102
:10088300120125CDA50112012597A6011201250FFD
:10089300A80112012551A801120125EFA801120197
:1008A300253CA90112012562A90112012550AB01C2
:1008B30012012555AB0112012536AD011201258A1E
:1008C300AD01120125ECAD0112012514AE01120197
:1008D30025B8AE011201257AAF01120125ABAF0194
:1008E300120125AEAF01120125F6AF011201253821
:1008F300B0011201259FB0011201250D97031201CA
:1009030025209703120125299703120125429703F6
:100913001201258D9703120125689803120125F70B
:10092300980312012542990312012528230012017D
:10093300253423001201256D2300120125B2230063
:10094300120125692400120125EF24001201255408
:100953002500120125802500120125B92500120169
:1009630025CD2700120125A92900120125942B006A
:10097300120125CB2C001201252B2F001201251764
:1009830030001201255D31001201256A3200120187
:1009930025873200120125BF3200120125D932000A
:1009A300120125413300120125DB37001201257C9A
:1009B3003800120125CD3800120125F43800120148
:1009C30025423900120125603900120125B439008E
:1009D3001201258D3A00120125143C001201259CB9
:1009E3003C00120125B2D802120125BCD802120123
:1009F3002583D902120125D2D902120125F6D90283
:100A030012012551DA0212012589DA02120125B1F8
:100A1300DA02120125E1DB021201250CDC021201CC
:100A23002537DC0212012586DC021201259CDC023B
:100A3300120125E2DC021201251CDD021201255EF2
:100A4300DD02120125A6DD02120125E2DD021201FB
:100A53002530DE0212012579DE02120125A3DE0212
:100A6300120125C8DE0212012566FB0212012530A0
:100A7300FC021201251CFD0212012592FD02120146
:100A830025D4FD0212012501FF02120125BC9902A2
:100A9300120125E59902120125FE9902120125434F
:100AA3009B02120125219C02120125409C02120186
:100AB30025CD9C02120125109D021201255D9E0287
:100AC300120125FC9E021201257BA10212012512AF
:100AD300A202120125E6A202120125C8A3021201F5
:100AE3002534A502120125C7A502120125BEA503BF
:100AF30012012527A6031201257BA603120125A2B5
:100B0300A603120125CFF2021201253CF3021201C2
:100B13002587F3021201257CF40212012578F502E0
:100B230012012562F60212012552BA02120125941E
:100B3300BA021201256EBB0212012547BC02120143
:100B43002542BD0212012521BE021201258DBE02DE
:100B530012012554BF02120125BFBF02120125262F
:100B6300C00212012551C002120125C2C0021201A6
:100B73002555C102120125BEC102120125D3C102AE
:100B83001201251BC20212012534C202120125994A
:100B9300C2021201259CC202120125578E031201C3
:100BA300257F8E03120125BD8E031201257B8F0342
:100BB300120125E68F031201250290031201252A53
:100BC30090031201255A9003120125699003120123
:100BD30025E3900312012509910312012512C00197
:100BE3001201259DC10112012539C301120125FFFF
:100BF300C30112012546C4011201258DC40112014E
:100C030025ABC401120125EDC40112012503C50161
:100C13001201254FC50112012587C501120125BA0D
:100C2300C5011201250BC60112012575C60112016A
:100C3300256FC90112012511CB0112012557CB01E3
:100C43001201258ECC01120125EBCC011201256086
:100C5300CD01120125B4CD01120125E1CD0112010F
:100C6300250CCE011201255CB10212012579B102D6
:100C730012012506B70212012508B80212012582C6
:100C8300B90212012530BA02120125033D001201F7
:100C9300254C3D00120125793D00120125AC3D0094
:100CA300120125B93D00120125C53D00120125D7CA
:100CB3003D00120125AC3E001201250A3F0012013E
:100CC300253F3F00120125DB40001201251541009D
:100CD300120125834100120125284200120125E457
:100CE300420012012563430012012527440012012B
:100CF30025364400120125B744001201255645004C
:100D03001201258845001201252346001201258181
:100D13004600120125BB46001201253C4700120183
:100D230025054800120125AE48001201253549006A
:100D33001201258D4900120125EE490012012517E4
:100D43004A00120125CD4A00120125174C00120159
:100D5300255A4C00120125774C00120125964C00B0
:100D6300120125E14C00120125064D001201252F29
:100D73004D001201259E4D00120125E04D00120188
:100D830025E44E001201257E4F001201254A500032
:100D93001201256350001201253A76001201258DB8
:100DA30076001201259976001201256E7700120153
:100DB30025957700120125D077001201253C780094
:100DC300120125707800120125A97800120125C1AE
:100DD30078001201251A79001201253379001201D6
:100DE300257C79001201258F7900120125A979004C
:100DF300120125BF7900120125DB7A00120125ECCF
:100E03007B00120125397D001201251E7E0012018F
:100E1300251D2300120125008002120125348002C2
:100E23001201259F8302120125E98402120125B3D1
:100E330085021201253D870212012518880212013D
:100E430025528802120125758802120125B78802EE
:100E5300120125C088021201250A890212012514F4
:100E63008902120125C08902120125948A02120106
:100E730025E88A021201254A8B021201259D8B0265
:100E8300120125CC8B021201250B8C02120125F2D3
:100E930063001201254C6C00120125526C001201F3
:100EA30025057200120125EB7500120125098B033C
:100EB3001201257F8B03120125958B03120125D285
:100EC3008B031201250A8C03120125878C0312015F
:100ED30025C28C031201253D8D03120125798D0353
:100EE300120125828D031201258E8D03120125A87F
:100EF3008D03120125CD8D03120125E38D0312010C
:100F030025278E0312012565E90212012578E902DE
:100F130012012592E902120125BBE902120125FE05
:100F2300E9021201253DEA021201257BEA021201C0
:100F330025E0EA02120125F5EA0212012500EB027F
:100F43001201250DEB0212012524EB0212012532B9
:100F5300EB021201253DEB0212012549EB021201BE
:100F6300255CEB0212012567EB021201258AEB02D5
:100F730012012533EC0212012543EC021201255D17
:100F8300EC021201257AEC0212012596EC02120101
:100F930025BBEC02120125C5EC02120125D9EC0296
:100FA300120125F8EC0212012559ED021201255F09
:100FB300ED0212012565ED021201256BED0212010E
:100FC3002577ED02120125AAED02120125C5EA01DA
:100FD30012012547EB01120125F0EB01120125381F
:100FE300ED0112012546EF011201252CF00112013A
:100FF3002561F00112012583F0011201252CF10175
:10100300120125FCF20112012525F3011201259D90
:10101300F301120125CFF301120125DCF3011201C3
:101023002527F4011201254BF4011201259CF60139
:10103300120125A6F70112012502F801120125A8C4
:10104300CE01120125B9CF011201259DD001120154
:1010530025A7D001120125C9D001120125D5D00140
:1010630012012579D201120125A6D201120125BC54
:10107300D30112012511D40112012560D5011201FA
:101083002535D60112012591D601120125FCD60181
:1010930012012531D70112012574D7011201253E12
:1010A300DA0112012556DA01120125E7DA011201EC
:1010B30025F5DA0112012542DB0112012550DB017E
:1010C300120125BCDB0112012537DC011201258E3B
:1010D300DC011201253EA60212012560A6021201BF
:1010E3002571A80212012530AB021201255AAC0268
:1010F30012012518AD0212012504AE021201255D6D
:101103009B03120125829B03120125F89B03120105
:101113002589CA0212012592CA021201259BCA021D
:1011230012012573CB0212012524CD02120125548D
:10113300CD021201257FCD02120125AFCD0212018E
:1011430025DACD021201250ECE021201253ACE0276
:101153001201257DCE02120125A8CE02120125EF30
:10116300CE0212012544CF0212012586CF021201BD
:1011730025E0CF021201250BD0021201255AD0021D
:101183001201258AD002120125B5D002120125E3EE
:10119300D00212012506D1021201258FAA031201E2
:1011A30025BBAA03120125E8AA03120125F2AA030B
:1011B30012012502AB03120125F0DE02120125FA0A
:1011C300DE021201253BDF0212012584DF02120138
:1011D30025BEDF0212012514E00212012535E002CB
:1011E3001201253EE00212012592E002120125BB05
:1011F300E002120125C5E00212012533E1021201CA
:1012030025C3E1021201251EE2021201254CE2026E
:10121300120125D4E20212012513E302120125482B
:10122300E3021201255AE30212012579E3021201B6
:101233002582E30212012544E402120125D5A70306
:101243001201256C9903120125A29903120125D6D7
:101253009903120125239B031201250CAB031201F1
:101263002522AB031201256CAB0312012524F702DF
:1012730012012537F702120125FBF7021201253A65
:10128300F80212012557F80212012590F802120103
:1012930025DDF8021201250FF90212012546F90294
:1012A30012012559FB02120125CCA803120125EFD7
:1012B300A8031201251EA90312012536A903120151
:1012C3002578A90312012551910312012576910373
:1012D300120125A09103120125CBAB031201259521
:1012E30050001201255F52001201250A5400120119
:1012F30025B55400120125355500120125BE5500B0
:10130300120125E75500120125A0590012012520DD
:101313005A001201252B5B00120125655B001201A7
:1013230025A65B00120125ED5C00120125435D003B
:101333001201258C5D00120125E35D0012012531A8
:101343005E001201255F5E00120125775E00120127
:10135300255C5F00120125925F00120125416000A8
:101363001201255860001201258A60001201252709
:101373006200120125BB6200120125F9620012010D
:1013830025E4FF0212012574AC03120125B3AC035B
:10139300120125EAAC031201256DFF011201257D1F
:1013A300FF0112012592FF01120125FAFF0112012B
:1013B30025D3A60312012558A703120125BCA703B1
:1013C300120125DCA1031201250AA20312012587BC
:1013D300A203120125E7A203120125D183031201FF
:1013E30025E583031201255F840312012543850349
:1013F3001201251A8703120125C99E031201251B19
:101403009F031201258E9F03120125FB9F031201E7
:10141300253594031201255F94031201252E9503AC
:101423001201250A96031201259B9603120125C07A
:10143300C2021201258CC302120125CDC30212017F
:10144300252BC4021201257FC402120125DDC4022B
:1014530012012573C5021201257BC602120125055F
:10146300C802120125A3C8021201250AC9021201EA
:101473002521C90212012540CA0212012526DD01D8
:10148300120125AEE0011201253AE2011201258A7B
:10149300E201120125A4E20112012524E301120154
:1014A300252AE50112012518E9011201254FF8014A
:1014B300120125E0FA0112012501FC011201253177
:1014C300FD011201257DFD0112012562FE011201BC
:1014D3002538FF011201257F8703120125C48703E5
:1014E300120125E18703120125978803120125EADA
:1014F3008803120125BA8903120125D08A03120138
:101503002561A003120125A6A0031201252BA10327
:10151300120125A3A1031201258AA403120125AFF9
:10152300A40312012522A503120125BDAC03120158
:1015330025DB7F00E066701008A3E066700A08A34D
:10154300E066700408A3E06622C3E7960809E796FD
:101553000809E7960809E79622C3E09608A3E096F0
:1015630008A3E09608A3E09622C008C3E096F50816
:1015730008A3E096420808A3E096420808A3E09671
:1015830045087001D3D00822080808EAC0E0EBC080
:10159300E086F0E7A4FA180986F0E7A42AFA180906
:1015A30086F0E7A42AFA180986F0E7A42AFA19862E
:1015B300F0E7A4FBE5F02AFA190886F0E7A42BFB71
:1015C300E5F03AFA190886F0E7A42BFBE5F03AFABE
:1015D30018180986F0E7A4C5F02BFBE43AFA1908BA
:1015E300E7C5F0C6A426F6E5F03BFBE43AFA188615
:1015F300F0E7A4F6E5F00826F6E43B08F6E43A083B
:10160300F6D0E0FBD0E0FA22E4CFC0E0E4CEC0E0C5
:10161300E4CDC0E0E4CCC0E075F020C3E633F608C7
:10162300E633F608E633F608E633F6181818EC3313
:10163300FCED33FDEE33FEEF33FFC3EC9709ED977B
:1016430009EE9709EF97191919400FFFEC97FC0959
:10165300ED97FD09EE97FE191906D5F0BEECF709D3
:10166300EDF709EEF709EFF7191919D0E0FCD0E00F
:10167300FDD0E0FED0E0FF226016080808C6C313C1
:10168300C618C613C618C613C618C613C6D5E0EACD
:10169300227009080808226016181818C6C333C632
:1016A30008C633C608C633C608C633C6D5E0EA2221
:1016B300E627F60809E637F60809E637F60809E6E5
:1016C30037F622E026F608A3E036F608A3E036F65E
:1016D30008A3E036F622E026F008A3E036F008A3DC
:1016E300E036F008A3E036F022C3E697F60809E6F1
:1016F30097F60809E697F60809E697F622C3E096F7
:10170300F008A3E096F008A3E096F008A3E096F0B3
:1017130022E056F608A3E056F608A3E056F608A31F
:10172300E056F622E056F008A3E056F008A3E05690
:10173300F008A3E056F022E0F608A3E0F608A3E0E1
:10174300F608A3E0F622E6F008A3E6F008A3E6F025
:1017530008A3E6F022E0FAA3E0FBA3E0FCA3E0FD8C
:1017630022EAF0A3EBF0A3ECF0A3EDF022CAC0E071
:10177300E6F0A308DAFAD0E0FA22CAC0E0E0A3C593
:1017830082CCC582C583CDC583F0A3C582CCC58277
:10179300C583CDC583DAE6D0E0CA22C3E498F8E472
:1017A30099F91217DF8026C3E49AFAE49BFBE92038
:1017B300E7E91217DFE498F8E499F922C3E498F80B
:1017C300E499F91217DFE498F8E499F9C3E49AFA73
:1017D300E49BFB22EB20E7CFE920E7E0B90010BB55
:1017E3000008E88AF084F8AAF022E4FBC8FA22EBA6
:1017F30070227B10C833C8C933C9335007C39AC397
:10180300DBF280069A50012ADBEAC833F4C8C933F5
:10181300F4C9FA2275F008E4C833C8C933C933C917
:101823009AC99B5004C92AC93BD5F0ECFBC833F4D1
:10183300C8E4C9FA22600D08C6A2E713C618C61386
:10184300C6D5E0F322600C08C6C313C618C613C678
:10185300D5E0F422700422600D18C6C333C608C64F
:1018630033C6D5E0F41822251810AF08F518400246
:1018730015198008F51840021519D2AF22C0D025DA
:101883001810AF08F518500205198008F518500212
:101893000519D2AFD0D0222518F58210AF08F5185C
:1018A300400215198008F51840021519D2AF8519A1
:1018B30083222518F582E43519F58322E47325186C
:1018C300C582C0E0E51934FFC583C0E0E518C395C0
:1018D3008224F810AF0885831985821880088583D0
:1018E30019858218D2AFCEF0A3E520F0A37808E6DD
:1018F30008F0A3DEFAEFF0A3E58124FAF8E608F096
:10190300A3E608F0A3E608F0A30808E608F0A3E6B8
:1019130008F0A315811581D0E0FED0E0F8158115FC
:10192300811581E8C0E0EEC0E0222518C582C0E041
:10193300E51934FFC583C0E0E518C3958224F91087
:10194300AF088583198582188008858319858218D5
:10195300D2AFCEF0A3E520F0A37808E608F0A3DE2B
:10196300FAEFF0A3E58124FBF8E608F0A3E608F01C
:10197300A30808E608F0A3E608F0A315811581D0B3
:10198300E0FED0E0F815811581E8C0E0EEC0E0226A
:10199300851983851882E0A3FEE0A3F5207808E08B
:1019A300A3F608DFFAE0A3FFE0A3C0E0E0A3C0E0F2
:1019B300E0A3C0E0E0A3C0E0E0A3C0E010AF08856F
:1019C30082188583198008858218858319D2AFD040
:1019D30083D082020122851983851882E0A3FEE069
:1019E300A3F5207808E0A3F608DFFAE0A3FFE0A35D
:1019F300C0E0E0A3C0E0E0A3C0E0E0A3C0E010AF1C
:101A0300088582188583198008858218858319D2F1
:101A1300AFD083D08222C0D02518C582C0E0E5199B
:101A230034FFC583C0E0E518C3958224F310AF08E3
:101A33008583198582188008858319858218D2AF1A
:101A4300C8F0A3E9F0A3EAF0A3EBF0A37908E70950
:101A5300F0A3D8FAECF0A3EDF0A3EEF0A3EFF0A31C
:101A6300D0E0F0A3D0E0F0A3D0E0F0A3E520F0A312
:101A7300E5F0F0A322851983851882E0C0E0A3E096
:101A8300F9A3E0FAA3E0FBA37808E0F608A3DFFAE2
:101A9300E0FCA3E0FDA3E0FEA3E0FFA3E0C0E0A31E
:101AA300E0C0E0A3E0F5D0A3E0F520A3E0A3F5F0C8
:101AB30010AF08858319858218800885831985826C
:101AC30018D2AFD082D083D0E0F8D0E03274048053
:101AD30006740280027401C0E0F40412189AD0E084
:101AE300121770227404800474028000CCC0E0EDED
:101AF300C0E0E518C39CCCAD1950011D10AF068C96
:101B0300188D1980068C188D19D2AF12177DD0E06D
:101B1300FDD0E0FC22D083D082E9C0E0E493A3C3EC
:101B230086F0C5F095F0F908E493A386F0C5F09527
:101B3300F0700BE493A3C3994005E9048002A3E486
:101B430075F002A42582F582E5F03583F583D0E0B4
:101B5300F9E493A3C0E0E493C0E022D083D082EC05
:101B6300C0E0EDC0E0E493A3FCE493A3FDED4C607F
:101B73000D121BAAEC24FFFCED34FFFD80EFE49370
:101B8300A3FCE493A3FDED4C600D121BE9EC24FFD1
:101B9300FCED34FFFD80EFD0E0FDD0E0FCE493A347
:101BA300C0E0E493C0E022C0E0C3E493960874016C
:101BB300939618400FE493667008087401936618AF
:101BC30070007019A3A3C3E4939608740193961845
:101BD300A3A3400DD0E0D0E0D0E0021B9AA3A3A3BF
:101BE300A3A3A3D0E022C0E0C0F088F0E493667022
:101BF300080874019366187000A8F0A3A3700BD0B3
:101C0300F0D0E0D0E0D0E0021B9AA3A3D0F0D0E064
:101C13002274F512192DEAFEEBFFEE2434F8EF34AB
:101C230000F988088909EE2435121D4CF8EE243793
:101C3300121D4CF50AEC850AF0A4FCAAF0850AF003
:101C4300EDA42AFDE82CF8E43DF97A257B00121770
:101C5300DFEA850882850983F05407F87401B80028
:101C6300028004C333D8FCC0E0E0131313541FF8FD
:101C7300EE28F8EF3400F9E8245DF582E93400F545
:101C830083D0E0F8E0586008850882850983801DC9
:101C9300EE2436121D4CF5F0EA84A8F0EE28F8EF96
:101CA3003400F9E82438F582E93400F583E0F97F5C
:101CB300040219D974F512192DEAFEEBFFEE243450
:101CC300121D4CC0E0EE2435F582EF3400F583D0CD
:101CD300E0F08E828F83A3A3A3A3A3E0FAA3E0FB88
:101CE3008E828F83A3A3A3A3A3A3A3E0FCA3E0FDFE
:101CF300ECC39AF50AED9BF50BEE2480F508EF345F
:101D030000F509850882F583E06401702BEE2481D8
:101D1300F582EF3400F583121AEB121D557402128B
:101D23001880E960137C3D7D05EEFAEFFB120D3F51
:101D3300850882850983E4F0AC0AAD0BEEFAEFFB6C
:101D4300121C141222A0021CB2F582EF3400F58398
:101D5300E022C082C083851882851983E0F8A3E05E
:101D6300F9C3EA9CEB9D500BC3EC98ED99401279B3
:101D7300018010C3EA98EB9940F5C3EC98ED9950B4
:101D8300EE7900D083D08222EAC39CFAEB9DFB223A
:101D9300008521878522C622C0E074EF121A1975C7
:101DA3009B00906182E0A2E64003021E5CE591A2E3
:101DB300E64003021E5C7591BF900404E064057065
:101DC30008120EDD120EE98003120EE375210012D4
:101DD3000F4FE9900405F07900120F43120CAF7A0C
:101DE300017B00900403E0F9121213907803E0647E
:101DF300426003021EA590059EE014F06003021EDC
:101E0300A5C2AF121E0900782AD0E0F618D0E0F67A
:101E1300E59F5407F97005908FB98003908FC978B7
:101E23000812173AE9C4C0E07829E65508F508080E
:101E3300E65509F509740B7808121848D0E025080F
:101E4300F8906270E0A2E740F8E8C333906272F062
:101E5300906270E0D2E0F08049E0A2E55024E59181
:101E6300A2E5501E7591DF900404E0640D70139099
:101E73000426E004F064287002E4F07A00E0F9122A
:101E83000FC1906181E0A2E35009E5E9A2E35003A9
:101E930075E9F7A3E0A2E75009E591A2E7500375BE
:101EA300917F7F04021A78C0E0C0D0C082C08390C3
:101EB3006183E0A2E05009E5BFA2E0500375BFFED5
:101EC300E0A2E15009E5BFA2E1500375BFFDE0A226
:101ED300E25009E5BFA2E2500375BFFBE0A2E35065
:101EE30009E5BFA2E3500375BFF7E0A2E45009E59B
:101EF300BFA2E4500375BFEFE0A2E55009E5BFA21E
:101F0300E5500375BFDFE0A2E65009E5BFA2E65046
:101F13000375BFBFD083D082D0D0D0E032C0E0748D
:101F2300F2121A19E5A7A2E4500FE5A1A2E45009A1
:101F330053A7EF75A1EF121F74E5A7A2E5500CE5B7
:101F4300A1A2E5500653A7DF75A1DFE5A7A2E150E3
:101F530009E5A1A2E1500375A1FDE5A7A2E2500C9A
:101F6300E5A1A2E2500653A7FB75A1FB7F01021A6C
:101F73007874F812192D752101900404E064067039
:101F8300077A007B00120EC5A2AFE433FED2AF90F6
:101F9300040AE0640170187A207B00900403E0F9DE
:101FA3001212917A207B00900403E0F91212199027
:101FB3006182E0D2E6F090059DE0602185C6228033
:101FC30016900409E064017008E5C654F84405F569
:101FD300C653BEFC121D947401652160E4EEA2E0B9
:101FE30092AF7F010219D900008E238F24858228A6
:101FF300858327851882851983E0CEA3E0CF8528C2
:1020030082852783EBC9EAC8EDCBECCA75F010C310
:10201300E833C8E933C9EA33CAEB33CBC3EA9EF5E5
:1020230026EB9FF525B35004AB25AA26EC33CCED64
:1020330033CDD5F0DAAE23AF242274F112192D8AF1
:10204300088B098C0A8D0B740F1218B5780C1217B4
:102053003A908F697808121714908F69780C1217C9
:10206300147808790C12154C50157808790C12164F
:10207300EC908F55780812156C4015790180137810
:102083000C79081216EC908F55780C12156C40EBF6
:1020930079007F080219D974ED12192D8A088B096A
:1020A3008C0A8D0B74131218B5780C12173A908F93
:1020B300697808121714908F69780C121714780C2A
:1020C300790812154C40117808790C1216ECAA08FD
:1020D300AB09AC0AAD0B80227510007511007512A7
:1020E300007513017810790C1216EC781079081228
:1020F30016B3AA10AB11AC12AD137F0C0219D99011
:102103008F69780812173A8A828B83780812172707
:102113007F040219D974F512192D8C828D837808E6
:1021230012173A8A828B83780812170012216CC324
:10213300E098F0A3E09912215E401E908FA97808E1
:1021430012173A8A828B8378081216D98E828F836C
:10215300E02420F0A3E0344EF080A4F08E828F833D
:10216300C3E09420A3E0944E22EA2404F8EB340065
:10217300F9E8FEE9FF8C828D83A3A3A3A3E0F8A370
:10218300E0F98E828F832274F512192DE9FE9005F2
:1021930053E0FAA3E0FBEEC333F8E433F974D52834
:1021A300F582748E39F583E02AF508A3E03BF5093F
:1021B3007808121AD4908FB1121758121FEC7402B8
:1021C3001218808A088B098C0A8D0B7410780812F8
:1021D300167BAA08AB097F040219D974F112192DD1
:1021E3008A0C8B0D8C0E8D0F740F1218B5E0FAA3A9
:1021F300E0FB74111218B5E0F508A3E0F5097413B8
:102203001218B5E0FEA3E0FF7808121AD4EA2401FD
:10221300F508EB3400F509E4F50AF50B780C7908B9
:1022230012158B908F61780812173A780C7908127F
:10223300158BAA0CAB0DAC0EAD0F121FEC74021272
:1022430018808B09EA450960047A0180027A00EC60
:102253002AFCED3400FDECF8EDF97A717B021217DC
:10226300DF88088909E4F50AF50B8E828F837808E5
:10227300121749ECF8EDF97A717B021217DF8A081D
:102283008B09740578081218578E828F83A3A3A332
:10229300A3E508F0A3E509F07F080219D9C082C0BD
:1022A30083E9906000F0D083D08222C0E074F21200
:1022B3001A19A2AFE433FED2AFE589A2E0400CE5E0
:1022C30089A2E14006E589A2E450031213D575897A
:1022D30000758900758900C2C5EEA2E092AF7F0147
:1022E300021A78C0E074F2121A19A2AFE433FED2D4
:1022F300AFE58AA2E250031213D5758A00C2EB80C0
:10230300D8C0E0C0D0E8C0E0E5A8D2AFC2C7A2E71A
:1023130092AFD0E0F8D0D0D0E032020122FFFFFF2D
:10232300FFFFFFFFFFC082C083E9900A4EF0022542
:10233300AC74F71218C1E9900322F07C5A7D037A3A
:10234300FF7BFF1209BB90032374FFF0A3F0A3E408
:10235300F0A3F07905120943900322E0F91208650E
:102363007AD97B09120BA10232BA74F41218C18A0A
:10237300088B09EB54806030900322E0F91211FBC3
:102383008A0A8B0BAE0AAF0BEE4F60138E828F83DC
:10239300E064B0700312095BEEFAEFFB1211E9AAD5
:1023A30008E5096480FB80047A007B0002257B74C6
:1023B300F21218C174FC12186AEAFEEBFF741212CF
:1023C30018B51237A1EE4F70030224557402121888
:1023D300B5EEF0A3EF1227B6ECF0A3ED1227B6AAE1
:1023E30082AB8312085FE9F50A706AE50845096064
:1023F300648E828F83123787EE4F60567A067B0096
:1024030012124F8A0C8B0DA80CA90DE849700575A3
:102413000A13804188828983E4122462EEF0A3EFD9
:102423001237B2E508F0A3E509F09003281224E976
:102433009003287005123264801B1232528003EA23
:10244300FCEBFD8C828D831224E970F38C828D83E7
:1024530080E3750A02A90A74041218800239A1F0F4
:10246300A3123758A32274F21218C1890AE975F02E
:1024730017A4FEAFF0900327E4F09003251224E99C
:10248300600A121255900325E4F0A3F0EEFAEFFB75
:1024930012124F8A088B09EA4509602FEEFCEFFD03
:1024A30079001211D7900325E508F0A3E509F07B25
:1024B3000080081224D3E4F0A3F00BEBC3950A4089
:1024C300F2E50A900327F07900800279130239A11B
:1024D300EB75F017A4F8A9F0900325E028FAA3E020
:1024E300398A82F58322122EF6EA4B2274F41218EB
:1024F300C1740C1218B512377CFEE9FF750800751C
:102503000900800CE5082401F508E5093400F50904
:10251300C3E5089CE5099D503285080A85090B74BB
:1025230003780A121857EA250AF8EB350BF9888263
:102533008983A3A3A3A3A3A3123339EE650A70036C
:10254300EF650B70BFE8FAE9FB80047A007B00803B
:102553002774F41218C17900EAA2E0501B75083CF5
:1025630075098F7808121AD47C047D007A507B0A8F
:1025730012093D74021218807F04021993C082C0AD
:10258300839003281225B3601C88828983A3A3E068
:102593006A7003A3E06B8882898370E8A3A3A3A373
:1025A300122EF280047A007B00D083D082020122B3
:1025B300123A87E8492274EE1218C174FC12186AA1
:1025C300EAFEEBFF851882851983E4F0A3F0EE247D
:1025D30002123244EE240512375FEE2404F50EEFA7
:1025E300122B6BE024FE603924FC604624FE60520B
:1025F30024FE605E24FE70030226CC24FE700302D8
:10260300273024FE700302273F24FE700302274E67
:1026130024FC700302275D24FE700302276C02274B
:10262300A99003417417F0A3E41227BE1205170201
:1026330027A9851882851983AC82AD8312096102AB
:102643002779851882851983AC82AD8312096702C5
:102653002779850C08850D0974021218B5AC82AD73
:1026630083850882850983122EF21208838A0C8BD4
:102673000DAC0CAD0DEC4D603BE4F50CF50D780C99
:10268300121AD4750C41750D03780C121AD4750CFB
:1026930042750D03780C121AD474081218B5121A65
:1026A300EB123C03121880E9F50C700B122EE812A2
:1026B300052F800F750C018508828509831227ACCD
:1026C300123264850C0802277C74021218B5AC829E
:1026D300AD83850C82850D83122CBD603C850C82F5
:1026E300850D83A3A3121AEB75104175110378109E
:1026F300121AD47510427511037810121AD4740883
:102703001218B5121AEB123C03121880E9F509707E
:102713000B122EE8120535800F750901850C828591
:102723000D831227AC123264850908804C85188208
:10273300851983AC82AD8312096D803A8518828531
:102743001983AC82AD83120973802B851882851996
:1027530083AC82AD83120979801C85188285198325
:10276300AC82AD8312097F800D851882851983ACF5
:1027730082AD83120985E9F508E50860298E828F09
:1027830083A3E06414601F850E82850F83E09003AA
:10279300411227B6123A83900342123264E508A32A
:1027A3001227BE120511023153123A87851882850A
:1027B300198322F085188285198322F07C417D03D9
:1027C300850A82850B83122EF62274EE1218C174C9
:1027D300FC12186A8A0A8B0B8C0E8D0FEA2405F5FE
:1027E30008EB3400F5097C157D0079007A417B0301
:1027F3001211D7E5082402F50CE509123762851892
:10280300828519838582108583117810121AD485E5
:102813000882850983A3A3A3A3122CB4121AD4E5B7
:10282300082405F510E5093400F5117810121AD4BF
:10283300850C82850D8312300912087D74061218E7
:10284300808A108B11AE10AF11E50A2402F50AE558
:102853000B123247EE4F700302298B80177402125A
:1028630018B5122EF288828983EAF0A3EBF0900365
:1028730041E004F0900341E0C39405400302298B37
:10288300E4F510F5117810121AD475102A75110396
:102893007810121AD475102B7511037810121AD4EC
:1028A30074061218B5121AEB7910EEFCEFFD123C08
:1028B30005121880E9705E850882850983A3A3A3A6
:1028C300A3A3A3A3E0F890032AE0687048122CB4F2
:1028D300121AD47C2B7D03E5082408FAE509340099
:1028E300FB1211D17402121880E960298E828F8342
:1028F300A3A3A3A3122EF2900341E0F51074027870
:102903001012185774422510F58274033511F5839C
:10291300EAF0A3EBF074021218B5858210858311D7
:102923007810121AD474021218B5121AEB850C829D
:10293300850D83122F181218808A108B11AE10AFD9
:1029430011900341E0F5107511007402781012180C
:102953005774412510F874033511F988828983A3CC
:102963001224E97003022857E82403080808E9340D
:1029730000F9EE4F60030228608882898374FFF0B8
:10298300A3F0900341E004F0900341E0600A122EAB
:10299300E81205237900800B8508828509831232AA
:1029A3005B790A02315374EA1218C174FE12186A71
:1029B3008C128D13EA2405F50CEB123BED12378BC9
:1029C300750800750900EA2402F510EB3400F511CF
:1029D30085188285198385820A85830B780A121AE2
:1029E300D4850C82850D83A3A3A3A3122B81121A72
:1029F300D4E50C2405F50AE50D123247780A121ABC
:102A0300D4850C82850D83122B8512087D740612E2
:102A130018808A0A8B0BEA450B7003022B26EA24E3
:102A230004F50EEB122B6B12378B8A828B83A3A3D5
:102A3300A3E0F9851082851183122EFC6003022B1B
:102A430026E4F514F5157814121AD475142A75159D
:102A5300037814121AD475142B7515037814121AEB
:102A6300D474061218B5121AEB7913AC0AAD0B85A0
:102A73001082851183123C0B121880E9F50960035B
:102A8300022B2690032AE0F8E5087009E02402905F
:102A93000342F08014900342E0FCE82402FAE43499
:102AA30000FBEA6C7001EB707E850882AA82122C0F
:102AB300AB9414122CA3506B850E82850F83E0C058
:102AC300E074432A122B62D0E0F00508850E82855C
:102AD3000F83A3E0C0E085080A7443250A122B6222
:102AE300D0E0F0050890032A122B81121AD47C2B14
:102AF3007D0385080A7443250A122B7512188090EA
:102B0300032AE02508F50874FF6E700374FF6F60F5
:102B130012EE24010EEF3400FFE508C394145003B2
:102B23000229D3E5086013122F06851082851183CD
:102B3300122EF212052979008014E5097003750934
:102B43000A851282851383EEF0A3EFF0A9097402BC
:102B53001218807F0E02199385080C7443250CF517
:102B63008274033400F583223400F50F850E82F559
:102B73008322FA74033400FB1211BF74022212374A
:102B8300C122A3A3122B8B22123252FDEEFAEFFBCA
:102B93002274EE1218C174FE12186A8C0E8D0FEA9D
:102BA3002405F50CEB123762750B00900341E4F03A
:102BB300F50AEA2402F508EB3400F5098044900392
:102BC30041E0FA90032AE0F8122CAB9417122CA3DD
:102BD300400D900341E0F87416C39890032AF01255
:102BE3002CB4121AD47C2B7D0374422AFA74031278
:102BF3002B7812188090032AE0F8900341E028F024
:102C0300050AE50C2416F582E50D122B66E0F8E5BE
:102C13000AC3985074900341E0C39416506BE50ABD
:102C2300C333F8E433F9E50C28FEE50D39FF8518C5
:102C330082851983AC82AD838E828F83122CBD7003
:102C430008750B011232578050E4F510F511781016
:102C5300121AD475102A7511037810121AD475102C
:102C63002B7511037810121AD474061218B5121AA0
:102C7300EB7916850882850983123C0B121880E9CB
:102C8300F50B7003022BC180BB7C417D0385088259
:102C9300850983122EF212053BA90B7402023155EA
:102CA300E99400C365D03322EA28F8E43400F9E854
:102CB30022E0F51075110078102212314A8A108B28
:102CC30011AC10AD11EC4D2274EA1218C174FC1250
:102CD300186A8A0C8B0D8C128D13EA2405F50AEB06
:102CE300123247750800750900E50A2402F510E55C
:102CF3000B3400F51174021218B585820E85830F0B
:102D0300780E121AD4850A82850B83A3A3A3A31278
:102D13003767121AD4E50A2405F50EE50B3400F5DE
:102D23000F780E121AD485108285118312324D1238
:102D33002EEC12087D74061218808A0E8B0FAE0ECD
:102D4300AF0FE50C2402F50EE50D3400F50F8038C6
:102D53008882898374FFF00508122B5B74FFF005EA
:102D63000890032AE0F50C750D00780C121AD47C38
:102D73002B7D0385080C7443250C122B75121880C8
:102D830090032AE02508F508EE4F60278E828F8393
:102D9300A3A3A3E0F9850E82850F83122EFCEE24F4
:102DA3000412375FE96027850C82850D83122EDEBE
:102DB300123264E5087003022EC4122F06850E82B8
:102DC300850F83122EF21205417900022ED9E4F504
:102DD30014F5157814121AD475142A75150378147A
:102DE300121AD475142B7515037814121AD4740897
:102DF3001218B5121AEB7911EEFCEFFD850E8285E0
:102E03000F83123C0B121880E9F509709A8508822A
:102E1300AA82EA90032A7009E02404900342F08016
:102E230025E0F8900342E0F514E82404FCE43400C0
:102E3300FDEC65147001ED7081122CAB9412122C11
:102E4300A34003022DBD850C82850D83E0C0E07491
:102E5300432A122B62D0E0F00508850C82850D838E
:102E6300A3E0C0E0122B5BD0E0122F2185820C85FA
:102E7300830D780C121AD474041218B5121AEB8548
:102E83001082851183122F181218808A0C8B0DAEB5
:102E93000CAF0D85080C7443250CF874033400F94A
:102EA300EE4F7003022D53851882851983E08882C3
:102EB3008983122F21A3E0C0E0122B5BD0E0022D07
:102EC30061E509700375090A850A82850B83122E51
:102ED300DE123264A9097404022B53123A87851255
:102EE30082851383227C417D03850A82850B8312AD
:102EF3002EF622E0FAA3E0FB22122EF612086BE96B
:102F0300F50922900342E0F5F0E50884900341F0CF
:102F13007C417D0322122B8B120889740422F00555
:102F2300088518828519832274EC1218C174FE1265
:102F3300186A8A088B098C0E8D0FEA2405FEEB3480
:102F430000FF123134EE241812375FEA450B700389
:102F5300022FD712311D5029122FFC8A108B11EA30
:102F63004511606B7912AC0AAD0B85088285098324
:102F7300122EF28510828511831218BFE9F50A70AB
:102F830058E4F50AF50B780A121AD48E828F83A3BC
:102F9300A3E0F50A780A121AD4EE24031232447815
:102FA3000A121AD48E828F831230091209A9740669
:102FB300121880E9F50A7021850C82850D83E07073
:102FC3001F850882850983122EF212054780117529
:102FD3000A0E8009750A018004E50A60031232575C
:102FE300850C82850D83E0600479008002A90A7450
:102FF300021218807F0C0219938518828519831297
:103003002EF612099722123252FD85088285098312
:10301300122EF62274EE1218C174FE12186A8A0870
:103023008B098C0C8D0DEA2405FEEB3400FF750E25
:1030330000123134EA450B70030230FB12311D508C
:103043002C122FFC8A0E8B0FEA450F604A7912ACC3
:103053000AAD0B850882850983122EF2850E8285BF
:103063000F831218BFE9F50E60030230FE85088254
:10307300850983123339AA0AFB12310F70147AFFC0
:103083007BFF12310F606C88828983E50AF0A3E528
:103093000BF0750A008007750E0E805F050A90031A
:1030A30027E0FAE50AC39A504AE50A75F017A4FA2D
:1030B300ABF088828983A3A3E02AFAA3E03BFB8ACF
:1030C300828B8312324DEC4D70D2750A17750B004B
:1030D300780A121AD4EEFCEFFD1211BF7402121813
:1030E30080EEFCEFFD850882850983122EF212051E
:1030F3004D8014750E098003750E01123A7F850CFD
:1031030082850D83123264A90E022C9E12098B8ACA
:10311300108B11A810A911E84922E5082402F5082B
:10312300E5093400F5098A828B83A3A3A3E0A2E512
:1031330022851882851983AC82AD838E828F831298
:10314300314A8A0A8B0B22E0FAA3E0FB120883229E
:1031530074041218807F0A02199374EC1218C18C3C
:10316300108D11EA2405F50CEB123762750F00EA96
:103173002402F50AEB123247850A82F583122EF2F6
:10318300123C917003023239750E008071850C82F6
:10319300850D83E06401704F8E828F83A3A3121A7F
:1031A300EB8E828F83A3A3A3A3E0F512751300789C
:1031B30012121AD4EE2405F512EF3400F513781227
:1031C300121AD4122EEC1209A97406121880E9F50A
:1031D3000F6014850C82850D83E4F0123A7F85100D
:1031E300828511831232647C177D007900EEFAEF39
:1031F300FB1211D78E828F83E4F0A3F0050E9003A8
:1032030027E0F8E50EC398501EE50E75F017A4F8F5
:10321300A9F0850882850983A3A3123BF712324DD7
:10322300EC4D600302319085088285098374FFF0B9
:10323300A3F0E50F7006122EEC120553A90F022F0F
:10324300F7F50AEF3400F50B22A3123252FD22E008
:10325300FCA3E0228E828F83123A87850E82850F2C
:1032630083E8F0A3E9F022C082C083900323E06ADD
:103273007003A3E06B70067A237B0380047A007BE0
:10328300000225AC74F71218C17F00EF75F003A498
:10329300F8A9F0EC28F8ED39F988828983E06A709F
:1032A30003A3E06B7006E8FAE9FB800B0FEFC3940E
:1032B3000240D87A007B007F0102199374F612183A
:1032C300C112387070067A007B008007A3A3A3A302
:1032D300122EF202393174F21218C1E9FE740E1281
:1032E30018B512333974101218B51237A18C828DA8
:1032F30083E06402703BA3123A8388828983E0F5FA
:103303000CA3E0F9A80C7402687003742969702196
:10331300750C02750D00780C121AD47808121AD4A1
:10332300780A121AD4EEF91209CD740612188080A5
:103333000279010239A1E0F50AA3E0F50B2274E852
:103343001218C174FB12186AE9851882851983F073
:103353008A168B178C0E8D0F741F1218B51237A196
:1033630074211218B512333974231218B512378B1E
:103373007510008C828D83A3A3A3E0A2E4502A746A
:103383001D1218B51230028A828B83E58245837041
:103393000302344D790AAC0EAD0FAA16AB171218FF
:1033A300BFE9F5106003023450850E82850F83E078
:1033B30064026003023706A3123A838508828509F3
:1033C30083A3858212858313E50E2406F50CE50F8E
:1033D30012376288828983E0FAA3E0F9EA2400F5D0
:1033E30014E439F5157814121B5E01000028012836
:1033F300153407000228EC3403285C340029163600
:1034030001293E360229E535032916360429A73654
:103413000637EE4F703E850C82850D8312377CFA9A
:10342300E9FB8A828B83E0850A82850B831237B896
:10343300121AD48A828B83A3123252FDAA08AB09D3
:103443001211BF7402121880800375100EA9107434
:1034530005023BE575100B80F4EE4F70F7850A8289
:10346300850B837401F0123791850882850983F0F7
:103473007C007D00850E82850F83A3A3A3A3E02494
:1034830001FAA3E03400FB120883EA4B60418A820D
:103493008B83E02402F8850A82850B83E028F0EA17
:1034A3002404F8EB3400F988828983E0851282854D
:1034B30013831237CA1237B8121AD48A828B831233
:1034C300324CE5082403FAE5093400FB0234438552
:1034D3000A82850B83E02404F07C047D007900AA32
:1034E30012AB131211D7023450EE4F60030234575C
:1034F300123791FEA3E0FF850A82850B837404F0E3
:10350300EE850882850983F0EF851282851383F0A7
:1035130074031218B5AC82AD83EEFAEFFB12385E7A
:1035230070030235C28A828B83A3A3123787740187
:103533001218B585820E85830F780E121AD474057E
:103543001218B5121AEB7CFF7DFF1208897404125E
:1035530018808B0FEA450F7033850C82850D83121B
:103563003767121AD4850C82850D83A3121AEB7C5C
:10357300027D007ADF7B8F12063D7404121880E906
:10358300700A74011218B574FFF0A3F08E828F8352
:10359300E064027034750C02750D00780C121AD4B5
:1035A3008E828F8312324CE5082404FAE509122B2C
:1035B30078121880850A82850B83E02402800974BF
:1035C300011218B5EEF0A3EFF074011218B512371B
:1035D30078F074011218B5A3123770A3A3A3F002F5
:1035E3003450EE4F6003023457850C82850D8312ED
:1035F300324DAA16AB171209C1850A82850B837453
:1036030002F0EA850882850983F085128285138397
:10361300EB80CBEE4F6003023457123791F8A3E0EF
:10362300F9850A82850B837402F0E885088285098F
:1036330083F0E985128285138380A3850C82850D2F
:1036430083122EF21211B9EAFC8C82A882C39EE483
:103653009F404BE86E7001EF70047C00801F85185B
:1036630082851983E0FAEE2AFAEF3400FBC3EA9865
:10367300EB94005003E08004EECCC39CFCEC850A81
:1036830082850B83F08C0A750B00780A121AD48595
:103693000C82850D83E02EFCA3E03F02343E7510BF
:1036A30007023450EE4F6003023457850C82850DB8
:1036B30083123A83850A82850B837407F088828993
:1036C30083123770123758E0851282851383F0E82E
:1036D3002402FAE93400FB8A828B83123770123793
:1036E300A9123778A31237B2123781F0E82405F80C
:1036F300E93400F988828983123781A31237CAA378
:103703000235DE741D1218B5123869700302344D88
:10371300123A83880C890DE8450D700302344D8EEF
:10372300108F117810121AD4780A121AD47808124A
:103733001AD474061218B5E0F9AC0EAD0FAA16AB85
:1037430017850C82850D831218BF7406121880E941
:10375300F510023450F088828983A322F50CEF34EC
:1037630000F50D22E0F50E750F00780E22E08508B6
:1037730082850983221237D122123A87E82212372F
:10378300D1A3A322A3A3A3A3E0FEA3E0FF22850C5E
:1037930082850D83E0F8A3E0F5838882E022E0F5DB
:1037A30008A3E0F50922A3A3F08A828B83A3221244
:1037B3002464A3A322F08A828B831237C122E0F50B
:1037C3000A750B00780A221237581237D122E08586
:1037D3000882850983A3A32274EE1218C174FE1212
:1037E300186A8A0A8B0BECFAEDFB74141218B5E015
:1037F300F510A3E0F51174161218B5E0FE74181253
:1038030018B5E0F50EA3E0F50F851882851983AC92
:1038130082AD8312385E603E851882851983123823
:1038230069602FA3A31237A1E50845096024780E28
:10383300121AD47810121AD4EEF9AC0CAD0DAA0AF0
:10384300AB0B8508828509831218BF740412188094
:103853008006790E80027901022C9E1208838A0C5D
:103863008B0DEA450D22122EF612387022120955DD
:103873008A828B83E58245832274F61218C174FE13
:1038830012186A740C1218B512377C8518828519C0
:1038930083F074011218B5E9F0E4F508F509780826
:1038A300121AD47508027808121AD474041218B5BF
:1038B3008582088583097808121AD41209A9740627
:1038C3001218807402121880806474F71218C1EA07
:1038D300FEEBFF89087C5A7D031209C1EA5402609A
:1038E3000BA908EEFAEFFB12087780027901023286
:1038F300BA74F61218C174FF6A700374FF6B701CFC
:103903007B00EB75F003A4F8A9F0EC28F8ED39F986
:103913001239360BEBC39402501480E61209918AD4
:10392300088B09A808A909E84960031239367F0200
:103933000219938882898374FF122462E4F022744B
:10394300F61218C11209918A828B83E5824583603E
:1039530006A3A3E0FA80027A007B0080D174F212FE
:1039630018C18A088B09ECFEEDFF740E1218B5E03E
:10397300F50A1239A6701CEEFCEFFD7AFF7BFF12ED
:1039830039A670047911801688828983E508F0A32B
:10399300E509F088828983A3A3E50AF079007F060D
:1039A3000219931209918A0C8B0DA80CA90DE849F1
:1039B3002274EE1218C1EAFEEBFF8C088D09890C04
:1039C30074121218B5123A8374141218B512324DC8
:1039D30074161218B5122EF2750D00EC4D60030229
:1039E3003A777402650C6003023A72888289831203
:1039F3003252F9EC2400F50EE439F50FEAF4F8EB52
:103A0300F4F9EC58F8E50F59F9E849705DE5082435
:103A130006F8E5093400F9880A890B8882F58312D0
:103A23002B871209C18A108B11E50E65107004E50E
:103A33000F65116042780E121AD4850A82850B83B2
:103A4300122B871209C77402121880E9F50D70272B
:103A5300780E121AD4850882850983A3A3122B85B5
:103A63001209DF7402121880800D750D80800875AD
:103A73000D0D8003750D0BA90D0231588E828F83B6
:103A8300123A8722E0F8A3E0F92274E81218C1740D
:103A9300E712186A851882851983EAF0A3EBF08C84
:103AA300168D17890E74311218B5E0F512A3E0F5DF
:103AB3001374331218B5E0F514A3E0F51574351239
:103AC30018B5E0F50F750800750900E50975F003F1
:103AD300A4F8A9F0851882851983123BF7E0F470E6
:103AE30003A3E0F47003023BD5EE2402F50CEF12BE
:103AF3003BEDE07003023BD585160A85170B780A68
:103B0300121AD4AC14AD15AA12AB131209497402DC
:103B13001218808A0A8B0BEA450B7003023BD5E42B
:103B2300F510F5117810121AD474061218B585829F
:103B3300108583117810121AD474091218B585826E
:103B4300108583117810121AD4851282851383A3EA
:103B5300A3A3A3121AEB7914AC0AAD0B8E828F8345
:103B6300123C0B121880E97069850A82850B83A3C6
:103B7300A3A3A3123A8374021218B5123264850CFC
:103B830082850D83E0A2E05018A90E74021218B5C5
:103B9300AC82AD838E828F83122EF212089BE94290
:103BA30008850C82850D83E0A2E15026E50FF50A16
:103BB300780A121AD8A90E74031218B5AC82AD8311
:103BC3008E828F83122EF21208957401121880E9E7
:103BD30042080509E509C394025003023ACEA90835
:103BE30074191218807F100219933400F50D850C97
:103BF30082F58322E028FEA3E039FF8E828F8322A1
:103C03007916850A82850B83122EF61209A374088E
:103C13002274F21218C1EAFEEBFF890B7401650BE3
:103C2300600E7402650B70637901120BBFE9705B60
:103C3300EEFAEFFB123C916047750A00800B7C178C
:103C43007D0079001211D7050A900327E0F8E50AF1
:103C5300C3985021E50A75F017A4F8A9F0850882E6
:103C6300850983A3A3E028FAA3E039FB8A828B8327
:103C73001225B370C985088285098374FFF0A3F008
:103C83007C5A7D03EEFAEFFB1209BB0239A112093C
:103C93008B8A088B09EA45092274F21218C18A0833
:103CA3008B09ECFEEDFF740E1218B5123339900A2E
:103CB3004EE0F4603D7A097B001211E3EA4B603277
:103CC3008A828B8374B1F0A3E41237ABA31237A9B2
:103CD300A3E508F0A3E509123CF8EEF0A3EF123CCC
:103CE300F8A3A3E50AF0A3E50BF0900A4EE0F9125E
:103CF30011EF0239A1F08A828B83A3A3A3A3A3228A
:103D0300C082C0839061907404F0A37448F0A3E46C
:103D1300F09061807440F09061BC7407F09061870B
:103D23007469F09061B67416F07900120CB57902DB
:103D3300120CBB902320E493F46006E493F9120C75
:103D4300917905120FA302410EC082C083E9540F7B
:103D5300F9906185E0696012E5C654804449F5C66F
:103D6300E59E547F644970F8E9F053C680E59E549C
:103D73007F70FA02410E74F71218C1E5A8FE53A82A
:103D83007E120C9DC2BA539AFEC289759B00C2C2B1
:103D9300120CA375A91175B905120CA9D2BA439ACD
:103DA3000174805E42A802469CC082C083906181F8
:103DB300E4F0A302410B75E90075910075BF0002A1
:103DC3000122C082C083906181E4F0A374C0F0A398
:103DD300E402410DC082C08374F812186A9004068D
:103DE30012457EE8497003023E8E900406E054407B
:103DF30060237908851882851983AA82AB83120D03
:103E0300A5851882851983AA82AB83120A5190046F
:103E130006E054BFF0E054806010790C7ABF7B0554
:103E2300120DA5900406E0547FF0E0A2E05008795B
:103E330000123E9654FEF0E0540260087901123EEF
:103E43009654FDF0E0540460087900123EA154FB3F
:103E5300F0E0540860087901123EA154F7F0E054F1
:103E63001060087902123EA154EFF0E0542060087C
:103E73007903123EA154DFF0A3E05401600D120C4C
:103E8300C7120A63900407E054FEF0740812188006
:103E930002410E120CB5120A57900406E022120CCE
:103EA300BB120A5D900406E022C082C083E960056C
:103EB30014602A804F90619A7433F0A37455F09084
:103EC30061A0743AF090059BE064017009C291907F
:103ED30004087467802D9004087461802690619AA9
:103EE300743FF0A3745AF09061A0747FF090059B27
:103EF300E064017009D29190040874718005900404
:103F030008746AF002410EC082C083E9600B14603A
:103F13000D14600F146011802090232480159023CA
:103F2300258010902326800B90059BE0640160F3AD
:103F3300902327E493906186F002410E74EE1218E9
:103F4300C174F412186A851882851983AC82AD8313
:103F530075838F758259740412177D90232493F40B
:103F630060030240D1907808E0C3940250030240FA
:103F7300B174041218B5AC82AD8375838F75820E4C
:103F8300740812177DF97AFF7BFF7FFF7E00898219
:103F9300858210801874086E700302406674096E7F
:103FA3007003024066740A6E7003024066E510C334
:103FB30033FCE433FD74041218B5E5822CF582E575
:103FC300833DF583E0F50EA3E0F50F8E0875090038
:103FD3007402780812185774482508FC7478350958
:103FE300FD8C828D83780812173A740878081216AC
:103FF3007B85080C85090D8C828D83780812173A0E
:104003007418780812167BE50C4508F508E50DF5DC
:1040130009C3E50E9508E50F95098C828D83780811
:1040230012173A8C828D83780812173A741878081D
:10403300401412167BE50C4508FCAD0DE50EC39C40
:10404300FCE50F9D800F12167BE50C4508C3950E0A
:10405300FCE50D950FFDC3EC9AED9B5006ECFAEDD4
:10406300FBEEFF0EEEC394135003023F9874FF6AF6
:10407300700374FF6B602D8F087402780812185751
:104083007448124D2A74783509F583780812173A63
:10409300851882851983E5822510F582E583124A06
:1040A300B7E508F009E9C394045003023F89750892
:1040B300017509007808121AD474021218B5AC827B
:1040C300AD837AC97B081213B77402121880740C7B
:1040D3001218807F0A021993C082C083906186748C
:1040E300D5F09061AE7468F0A3746AF09062457481
:1040F300FBF0A304F053F4FD43FE0290059B74010F
:10410300F07900120CB58003F0A3F0D083D08202C3
:104113000122C082C08375E1F1900550E0604E1426
:10412300600814605214604A8052120CD390054602
:10413300E0F97A477B05120F25908FA512175812C5
:104143000F5B908F6D121758120F31900551E0F9E4
:10415300120F3D7901120F97900544E02416124285
:10416300A474EBF0A3740CF0790002410E120CD985
:1041730080BB120CDF80B6120CE580B1791280EAA5
:1041830074F41218C175D90D900536E0A2E0E4333A
:104193001313F8124210484401F5D9780012428EE5
:1041A30040FB780088087437124D2A740512429830
:1041B30040F275E195900536E0F97A377B05120FE9
:1041C3002B900A707467F0A3740C1242B31242D39B
:1041D3001242CA12440B12421A780812173A908FED
:1041E3007978081216C6908F69780812171412424C
:1041F3009E7808121749900544E024141242A474CF
:1042030013F09004047402F07F040219939005469E
:10421300E0C4333354C022900544E0F8A3E0F583AF
:104223008882A3A32274F61218C11243DC8AD978B8
:104233000012428E40FB7800800612434212448EE5
:10424300E8C39940F51243CE12428E40FB780080BA
:1042530008124D26740512448EE8C39940F375E1A4
:1042630095900A707473F0A3740C1242B31242BD9A
:1042730012175812429E121764900544E024141238
:1042830042A47412F0900404024679880874472506
:1042930008F58274051245EA940622900544E02449
:1042A3000EF8A3E01242AB223400F98882898322FC
:1042B3001243F4746DF0A3740C221242D31242CA57
:1042C30012440F908FA922F0A37485F0A3740C22DB
:1042D3001242D7221242DB22F0A37411F0A3740E10
:1042E3002274F61218C11243371242104402F5D950
:1042F300780012428E40FB7800800612434212443B
:104303008EE8C39940F575E195900A7012434DF01C
:10431300A312434D1242C012175812429E12176441
:10432300900544E024141242A47414F0900404741D
:104333000402467B900556E0F9740729F5D92288D3
:104343000874572508F582740522747F12435A12A4
:10435300435AF0A3740C22F0A3740CF0A3747F22CD
:1043630074F61218C11243DC74064AF5D9780012A8
:10437300428E40FB7800800612434212448EE8C30B
:104383009940F51243CE12428E40FB78008008120A
:104393004D26740512448EE8C39940F375E1959058
:1043A3000A707479F0A3740C1243EA1242BD121717
:1043B3005812429E121764900544E024141242A43A
:1043C3007415F0900404740302467B90057612433F
:1043D3003A74044AF5D9780022124337900546E02F
:1043E300C4333354C0FA221243F47411F0A3740E8D
:1043F300221243F8221244057411F0A3740E1244DE
:1044030005221242DBF0A32212440F22F0900A7E0F
:104413007411F0A3740E1243F87411F0A3740E1206
:1044230042D7F022C082C08312421AA3A3A3A3E4FB
:1044330002410B74F71218C1124F6CF8740439F966
:10444300E82405FAE93400FB8A828B83124CDB886B
:10445300828983A3A3A3A3A3A3A3A3A3ECF0A3EDA4
:10446300F088828983A3A3A3A3A3A3A3E024FFF8D3
:10447300A3E034FFF98A828B83E8F0A3E9F00246D4
:104483009C8808749F2508F5827405124C02F5D99F
:104493000822EAFEEBFF9061D0E0F87480C398FA3B
:1044A300EE2483221244AD940422124AC5E0F5D9C6
:1044B3000AEAC32274F61218C1EAFEEBFF9061D038
:1044C300E0707575D90E75D90375D9047A008A0819
:1044D300EE250812503A248C12455040F17A008A96
:1044E30008EE250812503A24841244A740F175E1DE
:1044F300957908EE248C12454924841245407C00AA
:104503008C82AA82C3E49AF895E0F9EE28F8EF3991
:10451300F9E8248BF582E9124BFEC0E0EE2A125033
:104523003A24ABF582E9124AB7D0E0F00CECC3941D
:104533000840CD1246068002790002467CFAEF3429
:1045430000FB120D99221245407904EE221244AD6C
:10455300940822C082C08375D90275D90375D90521
:1045630075E195EA2470F582EB12457BEA2472F536
:1045730082EB12461802410E124AC812458222E00B
:10458300F8A3E0F92274F61218C1EAFEEBFF9005D6
:104593009F74061245F4121AD47C01790312492040
:1045A30012188075D90675D90378001245DA40FBD5
:1045B30075E195900404E064087017EE2470F582A9
:1045C300EF12457BEE2472F582EF124AB7E8F0A3AF
:1045D300E9F0790102467C8808749F2508F5827406
:1045E300051245EA940522124AC8E0F5D908E8C342
:1045F30022F075089F75090578082275E1957904FD
:10460300120F61EE2470F582EF124AC8124582EE52
:104613002472F582EF124AC8E8F0A3E9F079012287
:1046230074F61218C1EAFEEBFF9061D0E070437993
:104633000190059F740BF0900404E06407701775F4
:10464300089F7509057808121AD47C0109091249D3
:10465300201218807905740129F5D975D9037800DA
:104663008003124484E8C39940F875E19512460625
:104673008002790080037401F07F0202199374F7BA
:104683001218C1EAFEEBFF75D90375D90375D90D6D
:10469300EE24DE1246A11245FE7F01021993F58234
:1046A300EF124C02F5D9227F030219937401250AF4
:1046B300F5D975D90378002274F51218C112473061
:1046C3006004780480027800E8240BF8EAC3984079
:1046D30041750A0990059F7409F07908124719601A
:1046E3001475089F7509057808121AD4124918120F
:1046F3001880750A0D1246AF8003124484E8C395EF
:104703000A40F775E1957904120F61124895790112
:10471300800279008091EE24E3FCEF3400FD7AA05F
:104723007B05120D93850882850983E02212449547
:10473300F8EF124CCFF583E02274F31218C18A0804
:104743008B0912492BFAE5082483F50AEB1247FA81
:104753006004780480027800E82408F8EAC39850DB
:10476300030247F3750C0690059F740CF090042127
:10477300E09005A0F07402C0E0F97C227D047AA1E8
:104783007B05120D93D0E0F97C247D04120D9385F3
:104793000A82850B83E0601C750A9F750B05780AF6
:1047A300121AD47C067903AA08AB091249201218FD
:1047B30080750C0A7401250CF5D975D9037800802E
:1047C30009880A749F250A12448AE8C3950C40F1AC
:1047D30075E1957904120F61E5082470F582E50906
:1047E30012457BE5082472F582E50912461880021A
:1047F30079007F050219933400F50B850A82F5834E
:10480300E02274F61218C1EAFEEBFF12492BFCEE0C
:104813002483F8EF12492660047A0480027A00EABE
:104823002404FAECC39A405E7A0290059FEAF0EE04
:1048330024F5F582EF1248A1601975089F750905E3
:104843007808121AD47C027903EEFA12492012185E
:10485300807A0674012AF5D975D90378008003128A
:104863004484E8C39A40F875E195EE247412488EA7
:10487300EE248012488E1248957904120F61EE24BB
:104883000D1246098002790002467CF582EF124A36
:104893001122EE241DF582EF124A11A3F022124CCD
:1048A300029005A0F088828983E02274F61218C171
:1048B30012492BFEEA2483F8EB12492660047C0498
:1048C30080027C00EC2404FCEEC39C40437C0290F9
:1048D300059F7407F0EA24F6F582EB1248A16015F0
:1048E30075089F7509057808121AD47903124920AF
:1048F3001218807C0674012CF5D975D903780080D1
:1049030003124484E8C39C40F875E1957901800261
:10491300790002467C7C097903EEFAEFFB120E055F
:104923007402221242ABE0229061D0E0F87480C39B
:10493300982274F51218C1E9FEA2AFE433F50AC256
:10494300AF7F00EA246FF8EB3400F980010F88820F
:104953008983E0FCEFC39C50188F08EA2508FCEB21
:104963003400FDEC246BF582ED124BFE6E70DE809D
:1049730010EA2CFAEB3400FB124AB1EE1248A704FA
:10498300F0E50AA2E092AF0246AA74F61218C1A299
:10499300AFE433FFC2AFEA246FF8EB12503CFCE9FB
:1049A300FD8C828D83E014F07E0080218E08EA2541
:1049B30008F8EB12503C246CF582E9124BFEC0E080
:1049C300E8246BF582E9124AB7D0E0F00E8C828DB1
:1049D30083E0F8EEC39840D4EA246E124AB474FF1D
:1049E300124A06EFA2E092AF02467CC082C083E582
:1049F300A8F8C2AF124AB1E9124A06E8A2E792AF99
:104A030002410EF0EA246AF582EB124A1122124A9D
:104A1300C8E4F02274F21218C18C828D83A3A3A37D
:104A2300A3E0541FF0EA2436124D738E828F83E481
:104A3300F0F50C850C8285820AEC250AF8ED124C00
:104A4300CBF583E0C0E0EA250AF8EB124ABBD0E0DD
:104A5300F0750D00850882850983E0F50A750B0062
:104A6300E50D780A121838E50AA2E0502AE50C335E
:104A7300333354F8250DC0E08E828F83E0F8EA28A3
:104A8300F8EB12503C2438F582E9124AB7D0E0F033
:104A93008E828F83E004F0050DE50DC3940840B4C6
:104AA300050CE50CC39405408A7F06021993EA249A
:104AB3006BF582EB124AC8223400F9E8245D124AEE
:104AC300C522F582E93400F5832274F61218C190E9
:104AD300042EE0640170077A007B00024BF87E002D
:104AE300900434E070F17401F0A3E4F0A3F09004B7
:104AF3009404F0900497E4F0A3F090049A04F090E7
:104B03000437E4124C0F90044104F0900467E4F07E
:104B1300908F7D12175890044A12176490044EE444
:104B2300F0A3F0A3F09004B2F09004A6F090049BDD
:104B33007480F0A3E4F09004A1F0900499F0900540
:104B43001D124C07900526F09004B5F0900505F072
:104B5300A3F0908F7D121758900507121764908F5A
:104B63007D12175890050B121764900511E4F0900D
:104B73000513F090050FF0900529124C078E087469
:104B83009D124D2A7404124AB774FFF00EEEC394BB
:104B93000440EA7E008E82A882743D28F582740563
:104BA300124BFEC0E0748F28F5827404124AB7D00A
:104BB300E0F00EEEC3940540DC7E008E82A8827482
:104BC3001828F5827404124BFEC0E0741528F58290
:104BD3007405124AB7D0E0F00EEEC3940840DC909F
:104BE300042EE004F064017008900436E090043071
:104BF300F07A327B0402467CF582EF124C022212D9
:104C03004AC8E022124C0FA3124C0F22F0A3F0A3C8
:104C1300F0A3F022C082C083EA2403F582EB124B97
:104C2300FE6008E4F090042FE014F090042EE014EA
:104C3300F0700690043074FFF08A828B83A3A3E4A0
:104C4300F0900542E0700D90042FE0640170057947
:104C530000120F4302410EC082C083900435E4F07A
:104C6300900434F090042EF0A3F0A374FFF075E1E8
:104C7300F102410EC082C08378007900900435E0D0
:104C830060047832790488828983A3A3A3A3E0F91B
:104C930002410E74F61218C1EAFEEBFF120D4BEE41
:104CA3002465F8EF124CCB124CD9EC4D60109004F4
:104CB30030124F64850882850983E4F0A3F0EEFA8D
:104CC300EFFB120E3B02467C124CCF223400F988D4
:104CD300088909888222F583E0FCA3E0FD2274F7AA
:104CE3001218C1EAFEEBFF8E828F83A3A3A3A3E076
:104CF300FA7B00120AC9EEFAEFFB120D5D120E1DCC
:104D030002469C74F61218C1780088087418124D74
:104D13002A740412489108E8C3940840ED900418DB
:104D2300024679880874772508F5822274F61218EA
:104D3300C1EA240D124D73EC2403F8ED3400F98815
:104D4300088909EC2407F8ED12503CFCE9FD124DEB
:104D53007D1217DF8E828F83E8F0A3E9F0124D7D79
:104D63001217DF8B09EA45096003124D9002467C56
:104D7300F8EB3400F9E8FEE9FF228C828D831245BB
:104D830082850882850983E0FAA3E0FB228E828F65
:104D930083E02401F0A3E03400F02274F61218C17A
:104DA300EA242EF582EB3400124CD9EA2470124D1A
:104DB30073780079FAECFAEDFB1217DF8E828F839A
:104DC300E8F0A3E9F0780079FAECFAEDFB1217DFCB
:104DD3008B09EA45096003124D9002467C74F01278
:104DE30018C1EAFEEBFF74101218B5780812173ACF
:104DF300120EF58A0C8B0D8C0E8D0F908F81780C13
:104E03001216C6908F69780C121714780C121AD0E8
:104E13008E828F8312421D12175812203D74041282
:104E23001880E96003024EC88E828F83E02402F863
:104E3300A3E012503CFAE9FB8A828B8378081216AE
:104E4300D9908F69780812173A8A828B837808126F
:104E53001727EE240BF582EF124AB7C082C0838E68
:104E6300828F83A3A3A3A3A3E02401F8A3E03400C8
:104E7300F9D083D082E0687003A3E06970047901FC
:104E83008045EE2407F8EF1242AB124D94EE2474E2
:104E93001250417014EE2475124ECF7003A3E06DCF
:104EA30070078A828B83124D94EE248012504170D6
:104EB30014EE2481124ECF7003A3E06D70078A8233
:104EC3008B83124D9479007F08021993FAEF340013
:104ED300FB8A828B83E0FCA3E0FD88828983E06CFC
:104EE3002274F31218C1124F6CFE740439FFEE24BE
:104EF30004F50AEF3400F50BEE2465F508EF3400F2
:104F0300F5098010124CDB850882850983E4F0A340
:104F1300F0124F5E850882850983124CDBEC4D60ED
:104F230030EE2464124BFBF50C780C121AD8EE24E5
:104F330063124BFBF9EEFAEFFB120D8774011218A3
:104F430080E985088285098360BA12457EE8497045
:104F5300077C007D00124F5E0247F5850A82850BB0
:104F630083E0FA7B00120A8722900430E0F875F0A0
:104F730004A4C8AAF02AF97432282274F21218C1C0
:104F8300EAFEEBFF890A740E1218B5E0FAEE24620A
:104F9300125041600302503512492BF50CEE248365
:104FA300124BFBFB60047804800278008908E9282F
:104FB300F8E412503C24020808E93400F9E50C989F
:104FC300E499A2D265D0334065EA7005750B02807F
:104FD30003750B01EB60337509007808121AD47A54
:104FE3009F7B05120DCF740212188075089F7509F7
:104FF300057808121AD4AC0AA90B12491C1218809E
:105003007404250AF50A7C9F7D057401250AF5D9E8
:10501300850BD97800800A8808EC124D2AED1244DA
:105023008EE8C3950A40F075E1957900800679070B
:10503300800279FF024AACF8EF3400F9E822F582E6
:10504300EF124C02640122C082C0838003125078A5
:10505300E9F874FF28190470F4ECFAEDFB02410E31
:10506300C082C0838003125078E9F874FF281904C2
:1050730070F402410E8C828D83E08A828B83F08CE4
:10508300828D83A3AC82AD838A828B83A3AA82ABF6
:10509300832274F41218C1E9FF7E008A088B097811
:1050A30008121B1800040D3252C850E450F9500E78
:1050B300512351385154516D517F51AD51BC51D889
:1050C30051F451125274016F70128C828D83E0C3BC
:1050D30094035008E0900B3AF00252507E180252AB
:1050E3005074026F70F68C828D83125972900B3B51
:1050F300E8F0A3E980E274016F70E18C828D83E0B4
:10510300C3940250D7E09007C080CD74016F70CC78
:105113008C828D83E0C3940550C2E09007C180B8B0
:1051230074016F70B78C828D83E0C3940250ADE03D
:105133009007C280A374106F70A27508108E09784F
:1051430008121AD47AC37B07125D3D1218800252EB
:105153005074016F70868C828D83E0C39402400388
:105163000250DFE09007D30250DB74016F6003024B
:1051730050DF8C828D83E0900B3E808D74046F60D2
:10518300030250DF908FB1780812173A8D838C8217
:10519300780812155C40030250DF8C828D8312174E
:1051A300589007D5121764025250EF60030250DF84
:1051B30012134512133902525074016F60030250E7
:1051C300DF8C828D83E0C3940240030250DFE090C2
:1051D30007D40250DB74016F60030250DF8C828DB1
:1051E30083E0C3940A40030250DFE0900B3D02507A
:1051F300DB74016F60030250DF8C828D83E024F93E
:10520300C3940A40030250DFE0900B3F0250DB746B
:10521300016F60030250DF900867E0F88C828D8392
:10522300E0900867F0E87025E0640170208084C393
:10523300EA9424EB9400501374026F700E8C828DE9
:105243008312597D120649E9FE80020E0EEEF90221
:10525300525A740E1218807F0402199374F01218B4
:10526300C174CC12186A8C0A8D0B74441218B5E001
:10527300FE74201218B5AC82AD8375838F7582429C
:10528300740612177D74201218B5AC82AD83121206
:10529300EBE9F508C3940A40030253B775F006E936
:1052A300A4F50974261218B5AC82AD837A0E742066
:1052B30012540374321218B5E0FF900B3AE0640203
:1052C300700474018001E4F50D780D121AD8EEFD17
:1052D300EFFCA908AA0AAB0B12136F740112188012
:1052E3007C147D007900740C1218B5AA82AB83126A
:1052F30011D7740C1218B5AC82AD837A10742412D2
:105303005403E970347C1079FF740C1218B51253EE
:10531300FA7026741C1218B5AC82AD837A04742516
:10532300125403740C1218B5AC82AD83EFA2E0E4FF
:1053330033F9AA0AAB0B1206D3851882851983ACFD
:1053430082AD837A0C74702508125A1A7055851829
:1053530082851983AA82AB8312131B750800E508A3
:1053630075F003A4F8A9F0851882851983E58228CE
:10537300F8E583125B5E12597DEC4D601D888289CE
:1053830083A3A3E0F50E750F00780E121AD4AA0AB0
:10539300AB0B1209AF74021218800508E508C39419
:1053A3000440BBEFA2E1500C9007BFE0F9AA0AAB9F
:1053B3000B1209B574046E702A900B3AE064027004
:1053C300229007D3E060047A0180027A009007C03C
:1053D300E06004780480027800E84AF9AA0AAB0B7B
:1053E300120793790074341218807F080219937995
:1053F300FF851882851983AA82AB83121237E922AB
:105403002509F91214772274F01218C1EAFEEBFF92
:105413008C088D09750A0AE9600C14600914602E62
:1054230014607F0254B012132DE9F50AC3940A5095
:105433007CE50845096076750E06750F00780E1237
:105443001AD4EEFCEFFD125D39121880805F750BE4
:1054530000750E06750F00780E121AD4EEFCEFFDE0
:10546300E50B75F00EA4F8A9F074E128FA74073976
:10547300FB1211D17402121880E9601B850B0AE537
:105483000AC3940A5027E50845096021AA08AB0915
:10549300A90A1213278016050BE50BC3940A500DB6
:1054A30080AF121333E9F50AC3940A40D9A90A025B
:1054B30053ED74F41218C1890875091574FF6A70E5
:1054C3000374FF6B70277E00AC087A027B00EEF951
:1054D300121309E960037509000EEEC3940A40E84C
:1054E300E50860497A5D7B13120BD18040120BB340
:1054F3008A0A8B0BAE0AAF0BEE4F602E7C007D0049
:10550300EE2405FAEF3400FB8E828F831255B050E0
:105513000CAC087A027B00121309750900E50860D8
:105523000CEEFAEFFB12135D8003750914A909024F
:10553300525A74F21218C1ECFEEDFF740E1218B534
:10554300E0F50AA3E0F50B75081574FF6A700374A0
:10555300FF6B7021750900AC0AAD0BEEFAEFFBA9E6
:105563000912130FE960037508000509E509C394DF
:105573000A503580E2120BB38A828B83E58245831E
:1055830060237C007D00E5822405FAE5833400FB7B
:105593001255B05013AC0AAD0BEEFAEFFB12130F1A
:1055A3007508008003750814A908025B26A3A3A34A
:1055B300A3E0F91212EBE9C3940A22C082C08390DC
:1055C30007D9EAF0A3EBF09007BFE0FC7D007A2354
:1055D3007B001206499007BFE0F912092BD083D054
:1055E3008202012274EA1218C174EC12186A8A0842
:1055F3008B09EA240CF514EB3400F515EA240AF5BB
:1056030010EB3400F511EA2405F50EEB3400F50F29
:10561300EA2409F50AEB3400F50BEA2403FEEB3424
:1056230000FF8A828B83A3A3E024FA700302594507
:1056330024FD70030258751470030256D0146010D1
:1056430024FD70030258411470030258A802594EF6
:10565300125995604AE0F5838882125972880C8941
:105663000DE8450D6039851482851583E0F50E78C4
:105673000E121AD8EA240BF582EB3400F583E0F915
:10568300850A82850B8312597D0A0A0AEFFB850C72
:1056930082850D831218BF740112188002594E853A
:1056A3000A82850B83121AEB9007D512175812063C
:1056B300E57402121880E9700302594E7901850AD4
:1056C30082850B8312603B1206DF02594E8A828B5E
:1056D30083A3858212858313E06003025819850E24
:1056E30082850F83E0A2E040030258197C0E7D00FF
:1056F3007900851882851983AA82AB831211D7E5B5
:10570300082408F50AE5093400F50B850A82F583B8
:105713001259986019750C06750D00780C121AD47D
:10572300850A82850B83E02410FCA3E0801A1259BA
:1057330065EA4B700302594E750C06750D00780C23
:10574300121AD4EA2405FCEB3400FD74021218B5D6
:10575300AA82AB83125D3D121880850E82850F836A
:10576300E0A2E25004D2F08002C2F0A2F0E433F8E7
:10577300740C1218B5E048F0851082851183125914
:10578300986015851082851183E02410F8A3E03416
:1057930000F9888289838003908FA9780C12173AC5
:1057A300851082851183125998600F8510828511A7
:1057B30083E0F510A3E0F511800675100075110064
:1057C300850A82850B83125998600F850A82850B9F
:1057D30083E0F50AA3E0F50B8006750A00750B005C
:1057E300780C121AD07810121AD4780A121AD485A7
:1057F3001482851583121AEB850882850983A31207
:105803005978740A1218B5AA82AB83121321740A49
:10581300121880125958125995700302594E125991
:1058230083700302594E851282851383E0FC79014C
:1058330012603788828509831218BF02594E1259A4
:1058430058125995700302594EE0F5838882A3A339
:10585300125972890BE8450B700302594E85088271
:10586300850983A3E0FC79021260378882850B8364
:1058730080C67C007D00EA2404FAEB3400FB8E82B0
:105883008F83E0F91212EBE9F8C3940A400302593B
:105893004EAC10AD117A0475F006E8A42425F91274
:1058A300147102594E9007D4E0600C900B3DE0F95F
:1058B3008E828F830256C7900B3AE070047905807D
:1058C300EF1259658A0C8B0DA80CA90DE82404F579
:1058D3000CE93400F50D850882850983A3A3A3A3EE
:1058E300A3A3A3E0A2E05037E849605F850C82855B
:1058F3000D83E0F5086028850A82850B83E0541048
:10590300701D740E1218B5AC82AD83E82405FAE954
:105913003400FBA9081212EBE9700479038091ACFF
:105923000EAD0F850C82850D83E0F91260371213DB
:1059330069125995601512598360107C0079000231
:1059430058331207ABE97003121339741412188019
:105953007F0E0219938E828F83E0FAA3E0FB12136A
:105963007B228E828F83E0FAA3E0FB120BB322E04B
:10597300F8A3E0F922A3A3A3A3A3E0FCA3E0FD22E1
:10598300E0F5838882A3A3E0F8A3E0F98909E84559
:1059930009229007D9E0F8A3E0F9E8492274F41248
:1059A30018C174F212186AEAFE8C0B75F006E9A4AA
:1059B3002420F508851882851983AC82AD837A0E7D
:1059C300125A1A70407C061253F27039740C121872
:1059D300B5125972E8F509E50B6005EE420980043A
:1059E300EEF45209850982AA82E86A7001E960111E
:1059F300740C1218B5EAF0A3E4125F84A908121418
:105A030071790180027900025255AC82AD837A0E1E
:105A130075F006E9A42420F9121477E92274F2122E
:105A230018C174E612186A890A8A088B09ECFEED1C
:105A3300FF740C1218B5125A0D6003025ADA7C0671
:105A430079FF740C1218B51253FA6003025ADA7410
:105A530070250AF50B851882851983AC82AD837A8C
:105A63000C125A1A6003025B1F851882851983AAD8
:105A730082AB8312131BE508450970217C0C790066
:105A83001253F46003025B1F7C0C7D0079008518C0
:105A930082851983AA82AB831211D780618518820C
:105AA300851983AC82AD83AA08AB091213158A0C3E
:105AB3008B0DA80CA90DE849702CEE4F60198518C1
:105AC30082851983AC82AD837A007B00121315EAB9
:105AD300F8EBF9EA4B70047900804388828983E507
:105AE30008F0A3E509F0125B9AFAEE6A7001EF6021
:105AF3002BEEF04F700888828983E4F0A3F08518B9
:105B030082851983AA82AB8312131B851882851998
:105B130083AC82AD837A0CA90B1214717901741AC8
:105B23001218807F0602199374F71218C17F00EFD1
:105B330075F003A4F8A9F0EC28F8ED125B5EE06AB7
