:020000040000FA
:0600000002010A021E2AA3
:03002B000222842A
:03005300021EA0EA
:03006B0002222E40
:03007B00022266F8
:10008300021D1BE5C754F84401F5C779012200009E
:100093000080FB120086B900030200F4E4792178A2
:1000A30008B800028004F709D8FCE479297802B87B
:1000B30000028004F709D8FCE4900281781A7908D9
:1000C3008002F0A3D8FCD9FA90099AAA82AB839054
:1000D300013A78A979048015E493A3AC82AD838AAD
:1000E300828B83F0A3AA82AB838C828D83D8E9D9D8
:1000F300E775821875839D740312011C75829175CF
:100103008300740012011C75D00075813F7518813E
:10011300751902759F00020096C09FF59FE473D086
:100123009F22D083D082C09FE493C0E0740193C028
:10013300E0740293F59F22FF0000B400002800281A
:1001430000283075A000A000A000A000000800084F
:10015300E001F0001000100010001000100010006B
:1001630050005000500010001000D00700000000A5
:1001730000000F00307507001000010081FF000030
:10018300FF220740072807FF02020A0A025000A0C5
:10019300000000E803022590010000CD8F02E18FEB
:1001A300010000EB0902E78F010000B20202E18FB8
:1001B300010000EC0902E98F010000C80202E18F8F
:1001C300010000ED0902EB8F030000CA0202E18F78
:1001D300010000EE0902ED8F030000CB0202E18F64
:1001E300010000EF0902EF8F010000F009FF010099
:1001F300FF20022590010000D08F02E18F01000053
:10020300540A02F18F000000000002E58F03000092
:100213005A03940D940D940D940D940D940D940D17
:10022300940D940D940D940D940D940D64107C1005
:100233005E10FFFF020202020202020202010D002F
:1002430000001001022590010000D38F02E18F010D
:100253000000970A020390010000B70702E18F0133
:100263000000980A02FF8F010000018F02E18F0155
:100273000000990A02FD8F010000E58E02E18F0163
:1002830000009A0A02FB8F0100006D8E02E18F01CC
:1002930000009B0A02F98F010000918E02E18F0199
:1002A30000009C0A021B90010000A38E02E18F0153
:1002B30000009D0A02F58F0100007F8E02E18F018D
:1002C30000009E0A02F38F010000F38E02E18F010A
:1002D30000009F0A02F78F010000A00A01E803054E
:1002E3003F10FF000130750302010600000000000B
:1002F30000000000000000000000000000000000FB
:1003030000000000000000FFFF0600800CE803FE71
:10031300FF140953696D706C65424C4550657269F1
:1003230070686572616C051250002003020A0002B6
:1003330001050302F0FF53696D706C6520424C4563
:10034300205065726970686572616C481400004ED4
:1003530014FEFF0A436861726163746572697374A2
:100363006963203100024368617261637465726975
:100373007374696320320008436861726163746552
:100383007269737469632033001043686172616337
:10039300746572697374696320340002436861721F
:1003A3006163746572697374696320350002259013
:1003B300010000D98F02E18F010000B60B02079004
:1003C300030000830902E38F010000B70B02E18FF2
:1003D300010000C80B020990010000840902E38FA9
:1003E300010000C90B02E18F010000DA0B020B9040
:1003F300020000850902E38F010000DB0B02E18F9D
:10040300010000EC0B020D90000000860902E58F4D
:10041300030000870902E38F010000ED0B02E18F67
:10042300010000FE0B020F900400008D0902E38F10
:10043300010000FF0B104B65792050726573732028
:10044300537461746500022590010000D68F02E1A8
:100453008F010000980C021790000000920902E53A
:100463008F030000930902E38F010000990C55AA42
:10047300746573742076617231000074657374203F
:10048300766172320000656E61626C650000020283
:100493002590010000DC8F02E18F010000F10C02C6
:1004A3001F90030000D10C02E38F010000D30C0264
:1004B300E18F010000F10C022190030000D20C0235
:1004C300E38F010000DE0C02E18F010000F10C025A
:1004D3002390030000990902E38F010000E90C1245
:1004E3000125579903120125849903120125BE9909
:1004F300031201250F9A031201256C8C03120125A7
:10050300838C03120125B28C03120125EB8C031299
:100513000125138D03120125418D03120125588DE9
:10052300031201256F8D03120125858D0312012509
:10053300AC8D03120125BF8D03120125D58D031246
:100543000125E88D031201250D8E0312012500807C
:1005530002120125FF8002120125348102120125B6
:10056300558102120125658102120125868102123D
:100573000125898202120125468302120125138473
:10058300021201257784021201250E85021201252C
:10059300118502120125978502120125DA850212BF
:1005A30001252C8602120125638602120125E986A4
:1005B30002120125728702120125BB87021201254F
:1005C300C887021201252688021201253E880212DD
:1005D3000125B88802120125BB8802120125DE8895
:1005E30002120125858902120125A889021201251B
:1005F300C08902120125F08902120125108A021214
:100603000125FE8A02120125B48B02120125B3DEF5
:1006130002120125DBDE0212012509DF0212012588
:1006230040DF02120125A8DF02120125F1DF0212C9
:1006330001253CE0021201257AE002120125B7E010
:1006430002120125E5E0021201258CE102120125C7
:1006530096E102120125A3E102120125D6E102125D
:10066300012598E202120125A4E202120125BCE24F
:1006730002120125C6E202120125269A0312012560
:10068300349A031201254C9A03120125649A03122A
:100693000125859F0112012523A0011201259BA09D
:1006A30001120125B0A101120125EAA101120125C0
:1006B30093A20112012568A301120125CCA4011202
:1006C300012523A501120125AAA50112012591A641
:1006D30001120125DEA6011201256CA701120125D5
:1006E30090A70112012565A901120125A6A90112EE
:1006F3000125C8A90112012549AA0112012533AB1D
:1007030001120125F9AB0112012587B70212012558
:1007130059B80212012502B90212012545B9021284
:100723000125D2B9021201255EBA021201253FBB8F
:10073300021201256EBB021201256ABC02120125B9
:10074300B2BC02120125B4BD02120125F8BD02128A
:1007530001251EBE02120125FD9A03120125E7EFB2
:1007630002120125FDEF0212012523F002120125D9
:100773004BF10212012555F102120125AEF20212CC
:100783000125AEF302120125FED4021201250BD678
:10079300021201253FD60212012581D6021201253C
:1007A3003BD802120125F8CF02120125DBD0021239
:1007B300012509D10212012514D102120125FED10E
:1007C30002120125B2D2021201255BD302120125C6
:1007D300A4D302120125DBD30212012580D4021215
:1007E30001252890011201258B9001120125D0913A
:1007F30001120125E0910112012503920112012545
:100803004E9201120125F39201120125E99301127F
:100813000125B394011201252B96011201256D9632
:10082300011201250B970112012558970112012589
:100833007E97011201256C9901120125719901120C
:100843000125529B01120125A69B01120125089C3B
:1008530001120125309C01120125D49C01120125AE
:10086300969D01120125C79D01120125CA9D011202
:100873000125129E01120125549E01120125BB9EE2
:1008830001120125DE8503120125F18503120125DD
:100893000A860312012555860312012530870312A8
:1008A3000125BF87031201250A8803120125A82207
:1008B30000120125B42200120125ED2200120125A8
:1008C300322300120125E923001201256F240012AF
:1008D3000125D42400120125002500120125392504
:1008E300001201254D270012012529290012012597
:1008F300142B001201254B2C00120125AB2E0012E4
:100903000125972F00120125DD3000120125EA3160
:10091300001201250732001201253F320012012582
:10092300593200120125C132001201255B37001232
:100933000125FC37001201254D38001201257438BA
:1009430000120125C23800120125E03800120125EA
:100953003439001201250D3A00120125943B00128F
:1009630001251C3C0012012593BE021201259DBEE8
:100973000212012564BF02120125B3BF0212012531
:10098300D7BF0212012532C0021201256AC002122A
:10099300012592C002120125C2C102120125EDC137
:1009A3000212012518C20212012567C20212012593
:1009B3007DC202120125C3C202120125FDC2021229
:1009C30001253FC30212012587C302120125C3C3B8
:1009D3000212012511C4021201255AC40212012573
:1009E30084C402120125A9C402120125F2EB0212EA
:1009F3000125BCEC02120125A8ED021201251EEE11
:100A03000212012560EE021201258DEF021201256B
:100A130048F30112012571F3011201258AF3011232
:100A23000125CFF401120125ADF501120125CCF505
:100A33000112012559F6011201259CF60112012527
:100A4300E9F70112012588F80112012507FB0112BC
:100A530001259EFB0112012572FC0112012554FDA3
:100A630001120125C0FE0112012553FF01120125C8
:100A7300529503120125BB95031201250F9603120C
:100A830001253696031201255BE302120125C8E313
:100A93000212012513E40212012508E502120125C1
:100AA30004E602120125EEE60212012533A002122A
:100AB300012575A0021201254FA10212012528A2CA
:100AC3000212012523A30212012502A40212012509
:100AD3006EA40212012535A502120125A0A502125A
:100AE300012507A60212012532A602120125A3A69B
:100AF3000212012536A7021201259FA70212012522
:100B0300B4A702120125FCA70212012515A802129F
:100B130001257AA8021201257DA802120125008071
:100B23000312012528800312012566800312012583
:100B33002481031201258F8103120125AB81031246
:100B43000125D38103120125038203120125128299
:100B5300031201258C8203120125B282031201259F
:100B63002EAE01120125B9AF0112012555B10112B3
:100B730001251BB20112012562B201120125A9B29E
:100B830001120125C7B20112012509B30112012582
:100B93001FB3011201256BB301120125A3B3011287
:100BA3000125D6B30112012527B40112012591B401
:100BB300011201258BB7011201252DB9011201255F
:100BC30073B901120125AABA0112012507BB01124B
:100BD30001257CBB01120125D0BB01120125FDBB00
:100BE3000112012528BC011201253D97021201259E
:100BF3005A9702120125E79C02120125E99D021270
:100C03000125639F0212012511A002120125833CD5
:100C130000120125CC3C00120125F93C00120125EC
:100C23002C3D00120125393D00120125453D0012DE
:100C33000125573D001201252C3E001201258A3E55
:100C430000120125BF3E001201255B400012012561
:100C5300954000120125034100120125A84100120D
:100C63000125644200120125E34200120125A74336
:100C730000120125B6430012012537440012012555
:100C8300D64400120125084500120125A345001290
:100C930001250146001201253B4600120125BC46F1
:100CA300001201258547001201252E480012012557
:100CB300B548001201250D49001201256E490012A5
:100CC30001259749001201254D4A00120125974B32
:100CD30000120125DA4B00120125F74B0012012502
:100CE300164C00120125614C00120125864C00129E
:100CF3000125AF4C001201251E4D00120125604D48
:100D030000120125644E00120125FE4E001201253A
:100D1300CA4F00120125E34F00120125BA750012D4
:100D230001250D7600120125197600120125EE76B4
:100D330000120125157700120125507700120125B5
:100D4300BC7700120125F0770012012529780012E3
:100D530001254178001201259A7800120125B37804
:100D630000120125FC78001201250F7900120125DC
:100D73002979001201253F79001201255B7A0012BF
:100D830001256C7B00120125B97C001201259E7D93
:100D9300001201259D220012012562E601120125A0
:100DA30096E60112012501EA011201254BEB01121E
:100DB300012515EC011201259FED011201257AEEA3
:100DC30001120125B4EE01120125D7EE011201250E
:100DD30019EF0112012522EF011201256CEF011217
:100DE300012576EF0112012522F001120125F6F00B
:100DF300011201254AF101120125ACF1011201256D
:100E0300FFF1011201252EF2011201256DF20112EB
:100E13000125726300120125CC6B00120125D26BF0
:100E2300001201258571001201256B750012012541
:100E3300F0FA0212012566FB021201257CFB021265
:100E43000125B9FB02120125F1FB021201256EFCFB
:100E530002120125A9FC0212012524FD021201251B
:100E630060FD0212012569FD0212012575FD0212C2
:100E730001258FFD02120125B4FD02120125CAFDD1
:100E8300021201250EFE02120125F1D902120125DB
:100E930004DA021201251EDA0212012547DA0212D0
:100EA30001258ADA02120125C9DA0212012507DBBC
:100EB300021201256CDB0212012581DB02120125DE
:100EC3008CDB0212012599DB02120125B0DB021231
:100ED3000125BEDB02120125C9DB02120125D5DB88
:100EE30002120125E8DB02120125F3DB02120125C0
:100EF30016DC02120125BFDC02120125CFDC02122F
:100F03000125E9DC0212012506DD0212012522DD9D
:100F13000212012547DD0212012551DD02120125CE
:100F230065DD0212012584DD02120125E5DD0212D1
:100F33000125EBDD02120125F1DD02120125F7DDAA
:100F43000212012503DE0212012536DE02120125FB
:100F5300D8D8011201255AD90112012503DA011249
:100F630001254BDB0112012559DD011201253FDE6D
:100F73000112012574DE0112012596DE01120125FD
:100F83003FDF011201250FE10112012538E10112B2
:100F93000125B0E101120125E2E101120125EFE192
:100FA300011201253AE2011201255EE20112012537
:100FB300AFE401120125B9E50112012515E601127D
:100FC3000125C4BC01120125D5BD01120125B9BEFD
:100FD30001120125C3BE01120125E5BE011201253F
:100FE300F1BE0112012595C001120125C2C00112F3
:100FF3000125D8C1011201252DC2011201257CC38F
:101003000112012551C401120125ADC401120125AC
:1010130018C5011201254DC50112012590C5011204
:1010230001255AC80112012572C80112012503C9FD
:101033000112012511C9011201255EC90112012501
:101043006CC901120125D8C90112012553CA011225
:101053000125AACA011201251F8C02120125418C08
:1010630002120125528E021201251191021201254D
:101073003B9202120125F99202120125E593021215
:1010830001253EFE0212012563FE02120125D9FE4F
:10109300021201256AB00212012573B00212012562
:1010A3007CB00212012554B10212012505B30212CC
:1010B300012535B30212012560B30212012590B355
:1010C30002120125BBB302120125EFB3021201255F
:1010D3001BB4021201255EB40212012589B4021267
:1010E3000125D0B40212012525B50212012567B5E9
:1010F30002120125C1B502120125ECB50212012528
:101103003BB6021201256BB60212012596B60212F6
:101113000125C4B602120125E7B602120125869BFA
:1011230003120125B29B03120125DF9B0312012544
:10113300E99B03120125F99B031201256FCA0212D1
:10114300012579CA02120125BACA0212012503CB6D
:10115300021201253DCB0212012593CB0212012578
:10116300B4CB02120125BDCB0212012511CC021210
:1011730001253ACC0212012544CC02120125B2CC3E
:101183000212012542CD021201259DCD0212012535
:10119300CBCD0212012553CE0212012592CE0212AB
:1011A3000125C7CE02120125D9CE02120125F8CEA0
:1011B3000212012501CF02120125C3CF021201251C
:1011C3006997031201257B8A03120125B18A031251
:1011D3000125E58A03120125328C03120125039CA4
:1011E30003120125199C03120125639C0312012597
:1011F300B0E702120125C3E70212012587E80212B4
:101203000125C6E802120125E3E8021201251CE9C3
:101213000212012569E9021201259BE90212012547
:10122300D2E902120125E5EB0212012560980312AF
:101233000125839803120125B29803120125CA9848
:10124300031201250C9903120125FA8203120125C9
:101253001F8303120125498303120125C29C031234
:101263000125155000120125DF51001201258A5373
:1012730000120125355400120125B5540012012531
:101283003E55001201256755001201252059001211
:101293000125A05900120125AB5A00120125E55A78
:1012A30000120125265B001201256D5C0012012549
:1012B300C35C001201250C5D00120125635D001261
:1012C3000125B15D00120125DF5D00120125F75DE7
:1012D30000120125DC5E00120125125F00120125B8
:1012E300C15F00120125D85F001201250A600012B8
:1012F3000125A761001201253B62001201257962D5
:1013030000120125EB7F001201256B9D03120125BD
:10131300AA9D03120125D29D031201255B7F0012B2
:1013230001256B7F00120125807F00120125E87FD4
:1013330000120125679603120125EC96031201257D
:10134300509703120125BF9203120125ED92031258
:1013530001256A9303120125CA9303120125B8F3E9
:1013630002120125CCF30212012546F402120125D3
:101373002AF50212012501F7021201251F8E03121D
:101383000125718E03120125E48E03120125518F6D
:10139300031201253488031201255E8803120125F7
:1013A3002D8903120125098A03120125A1A802121E
:1013B30001256DA902120125AEA9021201250CAA6D
:1013C3000212012560AA02120125BEAA02120125FA
:1013D30054AB021201255CAC02120125E6AD0212E8
:1013E300012584AE02120125EBAE0212012502AFE4
:1013F3000212012521B00212012542CB011201255F
:10140300BECE011201254AD0011201259AD0011244
:101413000125B4D00112012534D1011201253AD39B
:10142300011201252BD701120125CB8F03120125B0
:10143300249003120125D1C40212012563C70212AD
:1014430001258EC80212012570C9021201253BCA6B
:101453000212012566F702120125ABF702120125DC
:10146300C8F7021201257EF802120125D1F80212F3
:101473000125A1F902120125B7FA021201254491AF
:10148300031201258991031201250E9203120125EE
:101493008692031201251E9403120125439403121D
:1014A3000125B69403120125CAFF01120125B49D3B
:1014B30003E066701008A3E066700A08A3E0667094
:1014C3000408A3E06622C3E7960809E7960809E73C
:1014D300960809E79622C3E09608A3E09608A3E0DE
:1014E3009608A3E09622C008C3E096F50808A3E097
:1014F30096420808A3E096420808A3E096450870C0
:1015030001D3D00822080808EAC0E0EBC0E086F067
:10151300E7A4FA180986F0E7A42AFA180986F0E77F
:10152300A42AFA180986F0E7A42AFA1986F0E7A490
:10153300FBE5F02AFA190886F0E7A42BFBE5F03A5D
:10154300FA190886F0E7A42BFBE5F03AFA18180914
:1015530086F0E7A4C5F02BFBE43AFA1908E7C5F0D7
:10156300C6A426F6E5F03BFBE43AFA1886F0E7A4B6
:10157300F6E5F00826F6E43B08F6E43A08F6D0E090
:10158300FBD0E0FA22E4CFC0E0E4CEC0E0E4CDC07B
:10159300E0E4CCC0E075F020C3E633F608E633F6AA
:1015A30008E633F608E633F6181818EC33FCED3387
:1015B300FDEE33FEEF33FFC3EC9709ED9709EE978A
:1015C30009EF97191919400FFFEC97FC09ED97FDE7
:1015D30009EE97FE191906D5F0BEECF709EDF709E8
:1015E300EEF709EFF7191919D0E0FCD0E0FDD0E0D0
:1015F300FED0E0FF226016080808C6C313C618C64B
:1016030013C618C613C618C613C6D5E0EA22700956
:10161300080808226016181818C6C333C608C6334C
:10162300C608C633C608C633C6D5E0EA22E627F69F
:101633000809E637F60809E637F60809E637F62219
:10164300E026F608A3E036F608A3E036F608A3E0A2
:1016530036F622E026F008A3E036F008A3E036F0E1
:1016630008A3E036F022C3E697F60809E697F608E2
:1016730009E697F60809E697F622C3E096F008A371
:10168300E096F008A3E096F008A3E096F022E05677
:10169300F608A3E056F608A3E056F608A3E056F6CC
:1016A30022E056F008A3E056F008A3E056F008A3A2
:1016B300E056F022E0F608A3E0F608A3E0F608A35C
:1016C300E0F622E6F008A3E6F008A3E6F008A3E6B6
:1016D300F022E0FAA3E0FBA3E0FCA3E0FD22EAF0A2
:1016E300A3EBF0A3ECF0A3EDF022CAC0E0E6F0A375
:1016F30008DAFAD0E0FA22CAC0E0E0A3C582CCC57A
:1017030082C583CDC583F0A3C582CCC582C583CDF5
:10171300C583DAE6D0E0CA22C3E498F8E499F91263
:10172300175C8026C3E49AFAE49BFBE920E7E912FD
:10173300175CE498F8E499F922C3E498F8E499F97A
:1017430012175CE498F8E499F9C3E49AFAE49BFB72
:1017530022EB20E7CFE920E7E0B90010BB0008E85F
:101763008AF084F8AAF022E4FBC8FA22EB70227B09
:1017730010C833C8C933C9335007C39AC3DBF280D7
:10178300069A50012ADBEAC833F4C8C933F4C9FA0C
:101793002275F008E4C833C8C933C933C99AC99B51
:1017A3005004C92AC93BD5F0ECFBC833F4C8E4C9DB
:1017B300FA22600D08C6A2E713C618C613C6D5E001
:1017C300F322600C08C6C313C618C613C6D5E0F4CB
:1017D30022700422600D18C6C333C608C633C6D5AB
:1017E300E0F41822251810AF08F5184002151980E7
:1017F30008F51840021519D2AF22C0D0251810AF32
:1018030008F518500205198008F51850020519D279
:10181300AFD0D0222518F58210AF08F51840021575
:10182300198008F51840021519D2AF8519832225AE
:1018330018F582E43519F58322E4732518C582C0AF
:10184300E0E51934FFC583C0E0E518C3958224F8A9
:1018530010AF0885831985821880088583198582CE
:1018630018D2AFCEF0A3E520F0A37808E608F0A3E2
:10187300DEFAEFF0A3E58124FAF8E608F0A3E60820
:10188300F0A3E608F0A30808E608F0A3E608F0A32F
:1018930015811581D0E0FED0E0F815811581158101
:1018A300E8C0E0EEC0E0222518C582C0E0E51934A7
:1018B300FFC583C0E0E518C3958224F910AF0885FE
:1018C30083198582188008858319858218D2AFCE43
:1018D300F0A3E520F0A37808E608F0A3DEFAEFF022
:1018E300A3E58124FBF8E608F0A3E608F0A30808C3
:1018F300E608F0A3E608F0A315811581D0E0FED039
:10190300E0F815811581E8C0E0EEC0E02285198377
:10191300851882E0A3FEE0A3F5207808E0A3F6088B
:10192300DFFAE0A3FFE0A3C0E0E0A3C0E0E0A3C0D0
:10193300E0E0A3C0E0E0A3C0E010AF088582188513
:1019430083198008858218858319D2AFD083D0820A
:10195300020122851983851882E0A3FEE0A3F52006
:101963007808E0A3F608DFFAE0A3FFE0A3C0E0E015
:10197300A3C0E0E0A3C0E0E0A3C0E010AF0885820D
:10198300188583198008858218858319D2AFD0837F
:10199300D08222C0D02518C582C0E0E51934FFC526
:1019A30083C0E0E518C3958224F310AF088583193B
:1019B3008582188008858319858218D2AFC8F0A361
:1019C300E9F0A3EAF0A3EBF0A37908E709F0A3D8C1
:1019D300FAECF0A3EDF0A3EEF0A3EFF0A3D0E0F068
:1019E300A3D0E0F0A3D0E0F0A3E520F0A3E5F0F06E
:1019F300A322851983851882E0C0E0A3E0F9A3E060
:101A0300FAA3E0FBA37808E0F608A3DFFAE0FCA35F
:101A1300E0FDA3E0FEA3E0FFA3E0C0E0A3E0C0E09D
:101A2300A3E0F5D0A3E0F520A3E0A3F5F010AF0801
:101A33008583198582188008858319858218D2AF1A
:101A4300D082D083D0E0F8D0E032740480067402F0
:101A530080027401C0E0F404121817D0E01216EDEE
:101A6300227404800474028000CCC0E0EDC0E0E581
:101A730018C39CCCAD1950011D10AF068C188D19DD
:101A830080068C188D19D2AF1216FAD0E0FDD0E083
:101A9300FC22D083D082E9C0E0E493A3C386F0C5DF
:101AA300F095F0F908E493A386F0C5F095F0700B78
:101AB300E493A3C3994005E9048002A3E475F0020B
:101AC300A42582F582E5F03583F583D0E0F9E4932C
:101AD300A3C0E0E493C0E022D083D082ECC0E0ED69
:101AE300C0E0E493A3FCE493A3FDED4C600D121B53
:101AF30027EC24FFFCED34FFFD80EFE493A3FCE42B
:101B030093A3FDED4C600D121B66EC24FFFCED343A
:101B1300FFFD80EFD0E0FDD0E0FCE493A3C0E0E460
:101B230093C0E022C0E0C3E493960874019396182F
:101B3300400FE49366700808740193661870007090
:101B430019A3A3C3E49396087401939618A3A3401F
:101B53000DD0E0D0E0D0E0021B17A3A3A3A3A3A35F
:101B6300D0E022C0E0C0F088F0E493667008087407
:101B7300019366187000A8F0A3A3700BD0F0D0E017
:0E1B8300D0E0D0E0021B17A3A3D0F0D0E022E8
:101B940074F51218AAEAFEEBFFEE2434F8EF3400D1
:101BA400F988088909EE2435121CCCF8EE24371282
:101BB4001CCCF50AEC850AF0A4FCAAF0850AF0ED29
:101BC400A42AFDE82CF8E43DF97A257B0012175C81
:101BD400EA850882850983F05407F87401B8000285
:101BE4008004C333D8FCC0E0E0131313541FF8EE91
:101BF40028F8EF3400F9E8245DF582E93400F58330
:101C0400D0E0F8E0586008850882850983801DEEDD
:101C14002436121CCCF5F0EA84A8F0EE28F8EF3450
:101C240000F9E82438F582E93400F583E0F97F040B
:101C340002195674F51218AAEAFEEBFFEE243412C8
:101C44001CCCC0E0EE2435F582EF3400F583D0E0FF
:101C5400F08E828F83A3A3A3A3A3E0FAA3E0FB8E59
:101C6400828F83A3A3A3A3A3A3A3E0FCA3E0FDEC1F
:101C7400C39AF50AED9BF50BEE2480F508EF3400CA
:101C8400F509850882F583E06401702BEE2481F563
:101C940082EF3400F583121A68121CD574021217ED
:101CA400FDE960137C3D7D05EEFAEFFB120CC28565
:101CB4000882850983E4F0AC0AAD0BEEFAEFFB125F
:101CC4001B94122220021C32F582EF3400F583E0CB
:101CD40022C082C083851882851983E0F8A3E0F9C5
:101CE400C3EA9CEB9D500BC3EC98ED99401279012B
:101CF4008010C3EA98EB9940F5C3EC98ED9950EE47
:101D04007900D083D08222EAC39CFAEB9DFB2200A7
:101D14008521878522C622C0E074EF121996759B2F
:101D240000906182E0A2E64003021DDCE591A2E698
:101D34004003021DDC7591BF900404E06405700843
:101D4400120E60120E6C8003120E66752100120EC4
:101D5400D2E9900405F07900120EC6120C327A0111
:101D64007B00900403E0F9121196907803E064423A
:101D74006003021E2590059EE014F06003021E25F8
:101D8400C2AF121D8900782AD0E0F618D0E0F6E53B
:101D94009F5407F97005908FB98003908FC9780814
:101DA4001216B7E9C4C0E07829E65508F50808E634
:101DB4005509F509740B78081217C5D0E02508F801
:101DC400906270E0A2E740F8E8C333906272F0904A
:101DD4006270E0D2E0F08049E0A2E55024E591A2EF
:101DE400E5501E7591DF900404E0640D70139004B7
:101DF40026E004F064287002E4F07A00E0F9120F9F
:101E040044906181E0A2E35009E5E9A2E35003753F
:101E1400E9F7A3E0A2E75009E591A2E75003759121
:101E24007F7F040219F5C0E0C0D0C082C0839061F6
:101E340083E0A2E05009E5BFA2E0500375BFFEE0D5
:101E4400A2E15009E5BFA2E1500375BFFDE0A2E2A3
:101E54005009E5BFA2E2500375BFFBE0A2E35009BD
:101E6400E5BFA2E3500375BFF7E0A2E45009E5BF64
:101E7400A2E4500375BFEFE0A2E55009E5BFA2E577
:101E8400500375BFDFE0A2E65009E5BFA2E65003A8
:101E940075BFBFD083D082D0D0D0E032C0E074F21E
:101EA400121996E5A7A2E4500FE5A1A2E450095344
:101EB400A7EF75A1EF121EF4E5A7A2E5500CE5A16A
:101EC400A2E5500653A7DF75A1DFE5A7A2E15009FB
:101ED400E5A1A2E1500375A1FDE5A7A2E2500CE53E
:101EE400A1A2E2500653A7FB75A1FB7F010219F5DD
:101EF40074F81218AA752101900404E064067007AE
:101F04007A007B00120E48A2AFE433FED2AF9004F5
:101F14000AE0640170187A207B00900403E0F9124F
:101F240012147A207B00900403E0F912119C906152
:101F340082E0D2E6F090059DE0602185C6228016FD
:101F4400900409E064017008E5C654F84405F5C638
:101F540053BEFC121D147401652160E4EEA2E092EC
:101F6400AF7F0102195600008E238F2485822885B5
:101F74008327851882851983E0CEA3E0CF85288244
:101F8400852783EBC9EAC8EDCBECCA75F010C3E82A
:101F940033C8E933C9EA33CAEB33CBC3EA9EF52627
:101FA400EB9FF525B35004AB25AA26EC33CCED33D7
:101FB400CDD5F0DAAE23AF242274F11218AA8A0820
:101FC4008B098C0A8D0B740F121832780C1216B709
:101FD400908F697808121691908F69780C12169177
:101FE4007808790C1214C950157808790C121669FE
:101FF400908F5578081214E9401579018013780CF4
:102004007908121669908F55780C1214E940EB790F
:10201400007F0802195674ED1218AA8A088B098CDD
:102024000A8D0B7413121832780C1216B7908F693C
:102034007808121691908F69780C121691780C79A1
:10204400081214C940117808790C121669AA08AB51
:1020540009AC0AAD0B8022751000751100751200D1
:102064007513017810790C12166978107908121614
:1020740030AA10AB11AC12AD137F0C021956908F1D
:102084006978081216B78A828B8378081216A47F9F
:102094000402195674F51218AA8C828D83780812DA
:1020A40016B78A828B83780812167D1220ECC3E05F
:1020B40098F0A3E0991220DE401E908FA9780812B0
:1020C40016B78A828B8378081216568E828F83E025
:1020D4002420F0A3E0344EF080A4F08E828F83C3DA
:1020E400E09420A3E0944E22EA2404F8EB3400F9AF
:1020F400E8FEE9FF8C828D83A3A3A3A3E0F8A3E009
:10210400F98E828F832274F51218AAE9FE90055382
:10211400E0FAA3E0FBEEC333F8E433F974D528F511
:1021240082748E39F583E02AF508A3E03BF509783B
:1021340008121A51908FB11216D5121F6C74021224
:1021440017FD8A088B098C0A8D0B741078081215F8
:10215400F8AA08AB097F0402195674F11218AA8A66
:102164000C8B0D8C0E8D0F740F121832E0FAA3E055
:10217400FB7411121832E0F508A3E0F50974131288
:102184001832E0FEA3E0FF7808121A51EA2401F5A0
:1021940008EB3400F509E4F50AF50B780C7908121C
:1021A4001508908F6178081216B7780C7908121503
:1021B40008AA0CAB0DAC0EAD0F121F6C74021217F3
:1021C400FD8B09EA450960047A0180027A00EC2A51
:1021D400FCED3400FDECF8EDF97A717B0212175C2A
:1021E40088088909E4F50AF50B8E828F8378081232
:1021F40016C6ECF8EDF97A717B0212175C8A088B2B
:1022040009740578081217D48E828F83A3A3A3A31D
:10221400E508F0A3E509F07F08021956C082C083DF
:10222400E9906000F0D083D08222C0E074F21219E9
:1022340096A2AFE433FED2AFE589A2E0400CE58973
:10224400A2E14006E589A2E45003121358758900FF
:10225400758900758900C2C5EEA2E092AF7F0102C4
:1022640019F5C0E074F2121996A2AFE433FED2AFAE
:10227400E58AA2E25003121358758A00C2EB80D893
:10228400C0E0C0D0E8C0E0E5A8D2AFC2C7A2E792E0
:10229400AFD0E0F8D0D0D0E032020122FFFFFFFF40
:1022A400FFFFFFFFC082C083E9900A53F002252C90
:1022B40074F712183EE9900322F07C5A7D037AFFEA
:1022C4007BFF12093E90032374FFF0A3F0A3E4F014
:1022D400A3F079051208C6900322E0F91207EE7AFA
:1022E4005C7B09120B2402323A74F412183E8A08F9
:1022F4008B09EB54806030900322E0F912117E8A3E
:102304000A8B0BAE0AAF0BEE4F60138E828F83E005
:1023140064B070031208DEEEFAEFFB12116CAA0827
:10232400E5096480FB80047A007B000224FB74F2DC
:1023340012183E74FC1217E7EAFEEBFF741212182F
:1023440032123721EE4F70030223D5740212183271
:10235400EEF0A3EF122736ECF0A3ED122736AA8293
:10236400AB831207E8E9F50A706AE5084509606479
:102374008E828F83123707EE4F60567A067B0012E7
:1023840011D28A0C8B0DA80CA90DE8497005750AA9
:1023940013804188828983E41223E2EEF0A3EF12D2
:1023A4003732E508F0A3E509F09003281224699078
:1023B400032870051231E4801B1231D28003EAFC39
:1023C400EBFD8C828D8312246970F38C828D838063
:1023D400E3750A02A90A74041217FD023921F0A355
:1023E4001236D8A32274F212183E890AE975F0173E
:1023F400A4FEAFF0900327E4F09003251224696053
:102404000A1211D8900325E4F0A3F0EEFAEFFB12C0
:1024140011D28A088B09EA4509602FEEFCEFFD7999
:102424000012115A900325E508F0A3E509F07B009A
:102434008008122453E4F0A3F00BEBC3950A40F296
:10244400E50A900327F0790080027913023921EB21
:1024540075F017A4F8A9F0900325E028FAA3E03951
:102464008A82F58322122E76EA4B2274F412183EE5
:10247400740C1218321236FCFEE9FF750800750957
:1024840000800CE5082401F508E5093400F509C3CA
:10249400E5089CE5099D503285080A85090B7403FB
:1024A400780A1217D4EA250AF8EB350BF9888289E1
:1024B40083A3A3A3A3A3A31232B9EE650A7003EF07
:1024C400650B70BFE8FAE9FB80047A007B00802783
:1024D40074F412183E7900EAA2E0501B75083C75AA
:1024E400098F7808121A517C047D007A557B0A12F0
:1024F40008C074021217FD7F04021910C082C08341
:10250400900328122533601C88828983A3A3E06A80
:102514007003A3E06B8882898370E8A3A3A3A3124A
:102524002E7280047A007B00D083D08202012212B2
:102534003A07E8492274EE12183E74FC1217E7EACF
:10254400FEEBFF851882851983E4F0A3F0EE2402E4
:102554001231C4EE24051236DFEE2404F50EEF1218
:102564002AEBE024FE603924FC604624FE605224F9
:10257400FE605E24FE700302264C24FE70030226D5
:10258400B024FE70030226BF24FE70030226CE246C
:10259400FC70030226DD24FE70030226EC022729C8
:1025A4009003417417F0A3E412273E12050002279A
:1025B40029851882851983AC82AD831208E402262A
:1025C400F9851882851983AC82AD831208EA022644
:1025D400F9850C08850D097402121832AC82AD839A
:1025E400850882850983122E7212080C8A0C8B0DC1
:1025F400AC0CAD0DEC4D603BE4F50CF50D780C1214
:102604001A51750C41750D03780C121A51750C4250
:10261400750D03780C121A517408121832121A68C4
:10262400123B831217FDE9F50C700B122E6812058C
:1026340018800F750C0185088285098312272C12D6
:1026440031E4850C080226FC7402121832AC82AD07
:1026540083850C82850D83122C3D603C850C82851C
:102664000D83A3A3121A6875104175110378101213
:102674001A517510427511037810121A5174081208
:102684001832121A68123B831217FDE9F509700B10
:10269400122E6812051E800F750901850C82850DA6
:1026A4008312272C1231E4850908804C8518828511
:1026B4001983AC82AD831208F0803A85188285199B
:1026C40083AC82AD831208F6802B8518828519832A
:1026D400AC82AD831208FC801C851882851983ACFA
:1026E40082AD83120902800D851882851983AC821C
:1026F400AD83120908E9F508E50860298E828F8305
:10270400A3E06414601F850E82850F83E09003416B
:10271400122736123A039003421231E4E508A31259
:10272400273E1204FA0230D3123A0785188285191B
:102734008322F085188285198322F07C417D0385EC
:102744000A82850B83122E762274EE12183E74FCD4
:102754001217E78A0A8B0B8C0E8D0FEA2405F508F5
:10276400EB3400F5097C157D0079007A417B031276
:10277400115AE5082402F50CE5091236E28518829F
:102784008519838582108583117810121A51850862
:1027940082850983A3A3A3A3122C34121A51E5083A
:1027A4002405F510E5093400F5117810121A518545
:1027B4000C82850D83122F8912080674061217FDE8
:1027C4008A108B11AE10AF11E50A2402F50AE50B4D
:1027D4001231C7EE4F700302290B801774021218CE
:1027E40032122E7288828983EAF0A3EBF0900341BF
:1027F400E004F0900341E0C39405400302290BE494
:10280400F510F5117810121A5175102A7511037804
:1028140010121A5175102B7511037810121A517475
:1028240006121832121A687910EEFCEFFD123B857D
:102834001217FDE9705E850882850983A3A3A3A30B
:10284400A3A3A3E0F890032AE0687048122C341282
:102854001A517C2B7D03E5082408FAE5093400FBB2
:1028640012115474021217FDE960298E828F83A31A
:10287400A3A3A3122E72900341E0F5107402781002
:102884001217D474422510F58274033511F583EAC6
:10289400F0A3EBF07402121832858210858311784C
:1028A40010121A517402121832121A68850C828599
:1028B4000D83122E981217FD8A108B11AE10AF11D2
:1028C400900341E0F510751100740278101217D4CA
:1028D40074412510F874033511F988828983A31291
:1028E400246970030227D7E82403080808E93400A0
:1028F400F9EE4F60030227E08882898374FFF0A316
:10290400F0900341E004F0900341E0600A122E6865
:1029140012050C7900800B8508828509831231DB4E
:10292400790A0230D374EA12183E74FE1217E78C47
:10293400128D13EA2405F50CEB123B6D12370B755F
:102944000800750900EA2402F510EB3400F511853E
:10295400188285198385820A85830B780A121A5195
:10296400850C82850D83A3A3A3A3122B01121A51F4
:10297400E50C2405F50AE50D1231C7780A121A513F
:10298400850C82850D83122B051208067406121716
:10299400FD8A0A8B0BEA450B7003022AA6EA24047B
:1029A400F50EEB122AEB12370B8A828B83A3A3A3B7
:1029B400E0F9851082851183122E7C6003022AA619
:1029C400E4F514F5157814121A5175142A751503C3
:1029D4007814121A5175142B7515037814121A51A0
:1029E4007406121832121A687913AC0AAD0B8510EA
:1029F40082851183123B8B1217FDE9F509600302EE
:102A04002AA690032AE0F8E5087009E0240290035E
:102A140042F08014900342E0FCE82402FAE434001B
:102A2400FBEA6C7001EB707E850882AA82122C2B63
:102A34009414122C23506B850E82850F83E0C0E022
:102A440074432A122AE2D0E0F00508850E82850F2D
:102A540083A3E0C0E085080A7443250A122AE2D061
:102A6400E0F0050890032A122B01121A517C2B7DE9
:102A74000385080A7443250A122AF51217FD9003E8
:102A84002AE02508F50874FF6E700374FF6F601266
:102A9400EE24010EEF3400FFE508C3941450030242
:102AA4002953E5086013122E86851082851183123E
:102AB4002E7212051279008014E509700375090A53
:102AC400851282851383EEF0A3EFF0A90974021234
:102AD40017FD7F0E02191085080C7443250CF5822E
:102AE40074033400F583223400F50F850E82F583D8
:102AF40022FA74033400FB12114274022212374189
:102B040022A3A3122B0B221231D2FDEEFAEFFB22E9
:102B140074EE12183E74FE1217E78C0E8D0FEA2421
:102B240005F50CEB1236E2750B00900341E4F0F569
:102B34000AEA2402F508EB3400F5098044900341C5
:102B4400E0FA90032AE0F8122C2B9417122C23405D
:102B54000D900341E0F87416C39890032AF0122CE8
:102B640034121A517C2B7D0374422AFA7403122AFC
:102B7400F81217FD90032AE0F8900341E028F005CD
:102B84000AE50C2416F582E50D122AE6E0F8E50ABA
:102B9400C3985074900341E0C39416506BE50AC384
:102BA40033F8E433F9E50C28FEE50D39FF85188286
:102BB400851983AC82AD838E828F83122C3D70087D
:102BC400750B011231D78050E4F510F5117810120D
:102BD4001A5175102A7511037810121A5175102B99
:102BE4007511037810121A517406121832121A68E9
:102BF4007916850882850983123B8B1217FDE9F546
:102C04000B7003022B4180BB7C417D0385088285C8
:102C14000983122E72120524A90B74020230D5E91D
:102C24009400C365D03322EA28F8E43400F9E8229A
:102C3400E0F5107511007810221230CA8A108B1139
:102C4400AC10AD11EC4D2274EA12183E74FC12174C
:102C5400E78A0C8B0D8C128D13EA2405F50AEB120E
:102C640031C7750800750900E50A2402F510E50B63
:102C74003400F511740212183285820E85830F78A0
:102C84000E121A51850A82850B83A3A3A3A31236BD
:102C9400E7121A51E50A2405F50EE50B3400F50F89
:102CA400780E121A518510828511831231CD122E9D
:102CB4006C12080674061217FD8A0E8B0FAE0EAF47
:102CC4000FE50C2402F50EE50D3400F50F8038886D
:102CD40082898374FFF00508122ADB74FFF005086B
:102CE40090032AE0F50C750D00780C121A517C2B18
:102CF4007D0385080C7443250C122AF51217FD90E8
:102D0400032AE02508F508EE4F60278E828F83A3FF
:102D1400A3A3E0F9850E82850F83122E7CEE240492
:102D24001236DFE96027850C82850D83122E5E1230
:102D340031E4E5087003022E44122E86850E828546
:102D44000F83122E7212052A7900022E59E4F5140B
:102D5400F5157814121A5175142A7515037814127E
:102D64001A5175142B7515037814121A517408121C
:102D74001832121A687911EEFCEFFD850E82850F68
:102D840083123B8B1217FDE9F509709A850882AA14
:102D940082EA90032A7009E02404900342F080251B
:102DA400E0F8900342E0F514E82404FCE43400FD68
:102DB400EC65147001ED7081122C2B9412122C23EB
:102DC4004003022D3D850C82850D83E0C0E07443F1
:102DD4002A122AE2D0E0F00508850C82850D83A32F
:102DE400E0C0E0122ADBD0E0122EA185820C85839C
:102DF4000D780C121A517404121832121A688510C4
:102E040082851183122E981217FD8A0C8B0DAE0C3D
:102E1400AF0D85080C7443250CF874033400F9EEE7
:102E24004F7003022CD3851882851983E088828928
:102E340083122EA1A3E0C0E0122ADBD0E0022CE131
:102E4400E509700375090A850A82850B83122E5ED3
:102E54001231E4A9097404022AD3123A07851282B2
:102E6400851383227C417D03850A82850B83122E80
:102E74007622E0FAA3E0FB22122E761207F4E9F59B
:102E84000922900342E0F5F0E50884900341F07CC8
:102E9400417D0322122B0B120812740422F0050840
:102EA4008518828519832274EC12183E74FE121759
:102EB400E78A088B098C0E8D0FEA2405FEEB34009B
:102EC400FF1230B4EE24181236DFEA450B70030209
:102ED4002F5712309D5029122F7C8A108B11EA45EE
:102EE40011606B7912AC0AAD0B85088285098312D7
:102EF4002E7285108285118312183CE9F50A7058E8
:102F0400E4F50AF50B780A121A518E828F83A3A373
:102F1400E0F50A780A121A51EE24031231C4780A31
:102F2400121A518E828F83122F8912092C74061261
:102F340017FDE9F50A7021850C82850D83E0701F69
:102F4400850882850983122E721205308011750A54
:102F54000E8009750A018004E50A60031231D785E1
:102F64000C82850D83E0600479008002A90A740252
:102F74001217FD7F0C021910851882851983122EF1
:102F84007612091A221231D2FD850882850983122C
:102F94002E762274EE12183E74FE1217E78A088BFE
:102FA400098C0C8D0DEA2405FEEB3400FF750E0030
:102FB4001230B4EA450B700302307B12309D502C62
:102FC400122F7C8A0E8B0FEA450F604A7912AC0AE5
:102FD400AD0B850882850983122E72850E82850FBA
:102FE4008312183CE9F50E600302307E8508828561
:102FF40009831232B9AA0AFB12308F70147AFF7B4C
:10300400FF12308F606C88828983E50AF0A3E50B98
:10301400F0750A008007750E0E805F050A9003277D
:10302400E0FAE50AC39A504AE50A75F017A4FAAB28
:10303400F088828983A3A3E02AFAA3E03BFB8A8277
:103044008B831231CDEC4D70D2750A17750B007855
:103054000A121A51EEFCEFFD12114274021217FD0E
:10306400EEFCEFFD850882850983122E7212053667
:103074008014750E098003750E011239FF850C82C8
:10308400850D831231E4A90E022C1E12090E8A103A
:103094008B11A810A911E84922E5082402F508E5D6
:1030A400093400F5098A828B83A3A3A3E0A2E52255
:1030B400851882851983AC82AD838E828F8312300A
:1030C400CA8A0A8B0B22E0FAA3E0FB12080C2274D2
:1030D400041217FD7F0A02191074EC12183E8C10AA
:1030E4008D11EA2405F50CEB1236E2750F00EA2483
:1030F40002F50AEB1231C7850A82F583122E721289
:103104003C1170030231B9750E008071850C828503
:103114000D83E06401704F8E828F83A3A3121A681B
:103124008E828F83A3A3A3A3E0F5127513007812F4
:10313400121A51EE2405F512EF3400F51378121229
:103144001A51122E6C12092C74061217FDE9F50F90
:103154006014850C82850D83E4F01239FF8510829A
:103164008511831231E47C177D007900EEFAEFFBC0
:1031740012115A8E828F83E4F0A3F0050E90032778
:10318400E0F8E50EC398501EE50E75F017A4F8A9F3
:10319400F0850882850983A3A3123B771231CDEC15
:1031A4004D600302311085088285098374FFF0A302
:1031B400F0E50F7006122E6C12053CA90F022F7752
:1031C400F50AEF3400F50B22A31231D2FD22E0FC04
:1031D400A3E0228E828F83123A07850E82850F83A5
:1031E400E8F0A3E9F022C082C083900323E06A7070
:1031F40003A3E06B70067A237B0380047A007B00D0
:1032040002252C74F712183E7F00EF75F003A4F822
:10321400A9F0EC28F8ED39F988828983E06A700313
:10322400A3E06B7006E8FAE9FB800B0FEFC394028E
:1032340040D87A007B007F0102191074F612183E00
:103244001237F070067A007B008007A3A3A3A312B1
:103254002E720238B174F212183EE9FE740E12187E
:10326400321232B974101218321237218C828D83C3
:10327400E06402703BA3123A0388828983E0F50C70
:10328400A3E0F9A80C7402687003742969702175AD
:103294000C02750D00780C121A517808121A517824
:1032A4000A121A51EEF912095074061217FD80021F
:1032B4007901023921E0F50AA3E0F50B2274E81242
:1032C400183E74FB1217E7E9851882851983F08A82
:1032D400168B178C0E8D0F741F121832123721742F
:1032E400211218321232B9742312183212370B75A4
:1032F40010008C828D83A3A3A3E0A2E4502A741D42
:10330400121832122F828A828B83E58245837003DE
:103314000233CD790AAC0EAD0FAA16AB1712183CC6
:10332400E9F51060030233D0850E82850F83E064D3
:10333400026003023686A3123A0385088285098354
:10334400A3858212858313E50E2406F50CE50F127E
:1033540036E288828983E0FAA3E0F9EA2400F514CE
:10336400E439F5157814121ADB01000028012895B8
:1033740033070002286C340328DC33002996350116
:1033840029BE350229653503299635042927368651
:1033940036EE4F703E850C82850D831236FCFAE9B9
:1033A400FB8A828B83E0850A82850B83123738126D
:1033B4001A518A828B83A31231D2FDAA08AB091257
:1033C400114274021217FD800375100EA9107405C2
:1033D400023B6575100B80F4EE4F70F7850A828509
:1033E4000B837401F0123711850882850983F07C00
:1033F400007D00850E82850F83A3A3A3A3E024018F
:10340400FAA3E03400FB12080CEA4B60418A828B79
:1034140083E02402F8850A82850B83E028F0EA24FD
:1034240004F8EB3400F988828983E08512828513DD
:103434008312374A123738121A518A828B83123117
:10344400CCE5082403FAE5093400FB0233C3850AFA
:1034540082850B83E02404F07C047D007900AA12A9
:10346400AB1312115A0233D0EE4F60030233D7125A
:103474003711FEA3E0FF850A82850B837404F0EE06
:10348400850882850983F0EF851282851383F074A1
:1034940003121832AC82AD83EEFAEFFB1237DE7002
:1034A400030235428A828B83A3A312370774011265
:1034B400183285820E85830F780E121A5174051204
:1034C4001832121A687CFF7DFF1208127404121756
:1034D400FD8B0FEA450F7033850C82850D83123600
:1034E400E7121A51850C82850D83A3121A687C0297
:1034F4007D007ADF7B8F12060274041217FDE970D7
:103504000A740112183274FFF0A3F08E828F83E0E4
:1035140064027034750C02750D00780C121A518E09
:10352400828F831231CCE5082404FAE509122AF8C3
:103534001217FD850A82850B83E024028009740139
:10354400121832EEF0A3EFF074011218321236F8AA
:10355400F07401121832A31236F0A3A3A3F00233BD
:10356400D0EE4F60030233D7850C82850D83123170
:10357400CDAA16AB17120944850A82850B837402FF
:10358400F0EA850882850983F0851282851383EB2E
:1035940080CBEE4F60030233D7123711F8A3E0F962
:1035A400850A82850B837402F0E885088285098385
:1035B400F0E985128285138380A3850C82850D83AF
:1035C400122E7212113CEAFC8C82A882C39EE49FE4
:1035D400404BE86E7001EF70047C00801F851882F8
:1035E400851983E0FAEE2AFAEF3400FBC3EA98EB7C
:1035F40094005003E08004EECCC39CFCEC850A826A
:10360400850B83F08C0A750B00780A121A51850C0D
:1036140082850D83E02EFCA3E03F0233BE751007C4
:103624000233D0EE4F60030233D7850C82850D83BD
:10363400123A03850A82850B837407F08882898392
:103644001236F01236D8E0851282851383F0E8240E
:1036540002FAE93400FB8A828B831236F01237298E
:103664001236F8A3123732123701F0E82405F8E9CC
:103674003400F988828983123701A312374AA302DE
:10368400355E741D1218321237E970030233CD12FD
:103694003A03880C890DE8450D70030233CD8E1072
:1036A4008F117810121A51780A121A517808121AC6
:1036B400517406121832E0F9AC0EAD0FAA16AB170E
:1036C400850C82850D8312183C74061217FDE9F5EA
:1036D400100233D0F088828983A322F50CEF3400E2
:1036E400F50D22E0F50E750F00780E22E0850882B4
:1036F4008509832212375122123A07E822123751E0
:10370400A3A322A3A3A3A3E0FEA3E0FF22850C822C
:10371400850D83E0F8A3E0F5838882E022E0F508D4
:10372400A3E0F50922A3A3F08A828B83A3221223A8
:10373400E4A3A322F08A828B8312374122E0F50AA4
:10374400750B00780A221236D812375122E0850808
:1037540082850983A3A32274EE12183E74FE121705
:10376400E78A0A8B0BECFAEDFB7414121832E0F5BD
:1037740010A3E0F5117416121832E0FE7418121832
:1037840032E0F50EA3E0F50F851882851983AC822B
:10379400AD831237DE603E8518828519831237E9BE
:1037A400602FA3A3123721E50845096024780E127F
:1037B4001A517810121A51EEF9AC0CAD0DAA0AABDD
:1037C4000B85088285098312183C74041217FD8046
:1037D40006790E80027901022C1E12080C8A0C8BC9
:1037E4000DEA450D22122E761237F0221208D88ADD
:1037F400828B83E58245832274F612183E74FE128E
:1038040017E7740C1218321236FC85188285198356
:10381400F07401121832E9F0E4F508F50978081299
:103824001A517508027808121A5174041218328554
:1038340082088583097808121A5112092C74061219
:1038440017FD74021217FD806474F712183EEAFE25
:10385400EBFF89087C5A7D03120944EA5402600B89
:10386400A908EEFAEFFB1208008002790102323A4D
:1038740074F612183E74FF6A700374FF6B701C7B3D
:1038840000EB75F003A4F8A9F0EC28F8ED39F9126F
:1038940038B60BEBC39402501480E61209148A085C
:1038A4008B09A808A909E84960031238B67F020207
:1038B40019108882898374FF1223E2E4F02274F6DB
:1038C40012183E1209148A828B83E58245836006AE
:1038D400A3A3E0FA80027A007B0080D174F212186C
:1038E4003E8A088B09ECFEEDFF740E121832E0F5E7
:1038F4000A123926701CEEFCEFFD7AFF7BFF1239A9
:103904002670047911801688828983E508F0A3E57E
:1039140009F088828983A3A3E50AF079007F06026F
:1039240019101209148A0C8B0DA80CA90DE8492250
:1039340074EE12183EEAFEEBFF8C088D09890C74B4
:1039440012121832123A0374141218321231CD744E
:1039540016121832122E72750D00EC4D60030239E6
:10396400F77402650C60030239F28882898312318C
:10397400D2F9EC2400F50EE439F50FEAF4F8EBF48F
:10398400F9EC58F8E50F59F9E849705DE5082406A3
:10399400F8E5093400F9880A890B8882F583122B2B
:1039A400071209448A108B11E50E65107004E50FA7
:1039B40065116042780E121A51850A82850B8312B2
:1039C4002B0712094A74021217FDE9F50D702778C6
:1039D4000E121A51850882850983A3A3122B05129E
:1039E400096274021217FD800D750D808008750D33
:1039F4000D8003750D0BA90D0230D88E828F8312B2
:103A04003A0722E0F8A3E0F92274E812183E74E7BA
:103A14001217E7851882851983EAF0A3EBF08C1658
:103A24008D17890E7431121832E0F512A3E0F513E4
:103A34007433121832E0F514A3E0F5157435121836
:103A440032E0F50F750800750900E50975F003A467
:103A5400F8A9F0851882851983123B77E0F4700386
:103A6400A3E0F47003023B55EE2402F50CEF123B85
:103A74006DE07003023B5585160A85170B780A1210
:103A84001A51AC14AD15AA12AB131208CC7402125D
:103A940017FD8A0A8B0BEA450B7003023B55E4F5CC
:103AA40010F5117810121A5174061218328582100A
:103AB4008583117810121A517409121832858210F4
:103AC4008583117810121A51851282851383A3A35A
:103AD400A3A3121A687914AC0AAD0B8E828F8312D9
:103AE4003B8B1217FDE97069850A82850B83A3A3BA
:103AF400A3A3123A0374021218321231E4850C8221
:103B0400850D83E0A2E05018A90E7402121832AC9D
:103B140082AD838E828F83122E72120824E94208AA
:103B2400850C82850D83E0A2E15026E50FF50A7825
:103B34000A121A55A90E7403121832AC82AD838E80
:103B4400828F83122E7212081E74011217FDE9422D
:103B5400080509E509C394025003023A4EA9087402
:103B6400191217FD7F100219103400F50D850C820F
:103B7400F58322E028FEA3E039FF8E828F83227929
:103B840016850A82850B83122E7612092674082262
:103B940074F212183EEAFEEBFF890B7401650B60A8
:103BA4000E7402650B70637901120B42E9705BEECF
:103BB400FAEFFB123C116047750A00800B7C177DFD
:103BC40000790012115A050A900327E0F8E50AC3A8
:103BD400985021E50A75F017A4F8A9F085088285A4
:103BE4000983A3A3E028FAA3E039FB8A828B83121A
:103BF400253370C985088285098374FFF0A3F07C9E
:103C04005A7D03EEFAEFFB12093E02392112090E26
:103C14008A088B09EA45092274F212183E8A088B35
:103C240009ECFEEDFF740E1218321232B9900A53E9
:103C3400E0F4603D7A097B00121166EA4B60328A37
:103C4400828B8374B1F0A3E412372BA3123729A318
:103C5400E508F0A3E509123C78EEF0A3EF123C78F6
:103C6400A3A3E50AF0A3E50BF0900A53E0F91211BF
:103C740072023921F08A828B83A3A3A3A3A322C057
:103C840082C0839061907404F0A37448F0A3E4F0BC
:103C94009061807440F09061BC7407F09061877407
:103CA40069F09061B67416F07900120C387902123A
:103CB4000C3E9022A0E493F46006E493F9120C14F1
:103CC4007905120F2602408EC082C083E9540FF991
:103CD400906185E0696012E5C654804449F5C6E503
:103CE4009E547F644970F8E9F053C680E59E547F82
:103CF40070FA02408E74F712183EE5A8FE53A87EAF
:103D0400120C20C2BA539AFEC289759B00C2C21219
:103D14000C2675A91175B905120C2CD2BA439A0157
:103D240074805E42A802461CC082C083906181E414
:103D3400F0A302408B75E90075910075BF00020184
:103D440022C082C083906181E4F0A374C0F0A3E434
:103D540002408DC082C08374F81217E790040612E3
:103D640044FEE8497003023E0E900406E0544060AD
:103D7400237908851882851983AA82AB83120D28BA
:103D8400851882851983AA82AB831209D49004060C
:103D9400E054BFF0E054806010790C7ABF7B0512C8
:103DA4000D28900406E0547FF0E0A2E0500879006A
:103DB400123E1654FEF0E0540260087901123E16D9
:103DC40054FDF0E0540460087900123E2154FBF0E5
:103DD400E0540860087901123E2154F7F0E05410D1
:103DE40060087902123E2154EFF0E0542060087913
:103DF40003123E2154DFF0A3E05401600D120C4A7B
:103E04001209E6900407E054FEF074081217FD024C
:103E1400408E120C381209DA900406E022120C3E8D
:103E24001209E0900406E022C082C083E960051410
:103E3400602A804F90619A7433F0A37455F09061B6
:103E4400A0743AF090059BE064017009C29190045B
:103E5400087467802D9004087461802690619A74B8
:103E64003FF0A3745AF09061A0747FF090059BE03A
:103E740064017009D291900408747180059004085B
:103E8400746AF002408EC082C083E9600B14600D36
:103E940014600F14601180209022A480159022A534
:103EA40080109022A6800B90059BE0640160F39043
:103EB40022A7E493906186F002408E74EE12183EBD
:103EC40074F41217E7851882851983AC82AD837563
:103ED400838F75825974041216FA9022A493F460A5
:103EE40003024051907808E0C39402500302403129
:103EF4007404121832AC82AD8375838F75820E748C
:103F0400081216FAF97AFF7BFF7FFF7E008982850B
:103F14008210801874086E7003023FE674096E7094
:103F240003023FE6740A6E7003023FE6E510C333F2
:103F3400FCE433FD7404121832E5822CF582E58327
:103F44003DF583E0F50EA3E0F50F8E0875090074C6
:103F54000278081217D474482508FC74783509FDD2
:103F64008C828D8378081216B7740878081215F8B5
:103F740085080C85090D8C828D8378081216B77418
:103F84001878081215F8E50C4508F508E50DF5094B
:103F9400C3E50E9508E50F95098C828D8378081288
:103FA40016B78C828D8378081216B7741878084077
:103FB400141215F8E50C4508FCAD0DE50EC39CFC88
:103FC400E50F9D800F1215F8E50C4508C3950EFC0E
:103FD400E50D950FFDC3EC9AED9B5006ECFAEDFB55
:103FE400EEFF0EEEC394135003023F1874FF6A7081
:103FF4000374FF6B602D8F08740278081217D47451
:1040040048124CAA74783509F58378081216B785D6
:104014001882851983E5822510F582E583124A37D3
:10402400E508F009E9C394045003023F0975080147
:104034007509007808121A517402121832AC82AD54
:10404400837AA97B0812133A74021217FD740C12B6
:1040540017FD7F0A021910C082C08390618674D54F
:10406400F09061AE7468F0A3746AF090624574FBDA
:10407400F0A304F053F4FD43FE0290059B7401F099
:104084007900120C388003F0A3F0D083D0820201AF
:1040940022C082C08375E1F1900550E0604E146047
:1040A4000814605214604A8052120C56900546E07F
:1040B400F97A477B05120EA8908FA51216D5120E19
:1040C400DE908F6D1216D5120EB4900551E0F912E0
:1040D4000EC07901120F1A900544E02416124224EE
:1040E400746EF0A3740CF0790002408E120C5C80A4
:1040F400BB120C6280B6120C6880B1791280EA742B
:10410400F412183E75D90D900536E0A2E0E433139D
:1041140013F8124190484401F5D9780012420E4038
:10412400FB780088087437124CAA740512421840B0
:10413400F275E195900536E0F97A377B05120EAEFB
:10414400900A7574EAF0A3740B12423312425312AC
:10415400424A12438B12419A78081216B7908F790B
:104164007808121643908F69780812169112421E2D
:1041740078081216C6900544E024141242247413DD
:10418400F09004047402F07F04021910900546E0D4
:10419400C4333354C022900544E0F8A3E0F5838887
:1041A40082A3A32274F612183E12435C8AD97800C3
:1041B40012420E40FB780080061242C212440EE8FE
:1041C400C39940F512434E12420E40FB780080081A
:1041D400124CA6740512440EE8C39940F375E19598
:1041E400900A7574F6F0A3740B12423312423D1216
:1041F40016D512421E1216E1900544E02414124210
:10420400247412F09004040245F9880874472508C0
:10421400F582740512456A940622900544E0240E42
:10422400F8A3E012422B223400F9888289832212F7
:10423400437474F0F0A3740B2212425312424A12D4
:10424400438F908FA922F0A37408F0A3740C221258
:1042540042572212425B22F0A37494F0A3740D22FD
:1042640074F612183E1242B71241904402F5D978FE
:104274000012420E40FB780080061242C212440E25
:10428400E8C39940F575E195900A751242CDF0A303
:104294001242CD1242401216D512421E1216E1905D
:1042A4000544E024141242247414F09004047404A9
:1042B4000245FB900556E0F9740729F5D9228808D0
:1042C40074572508F58274052274021242DA1242E8
:1042D400DAF0A3740C22F0A3740CF0A37402227419
:1042E400F612183E12435C74064AF5D9780012425D
:1042F4000E40FB780080061242C212440EE8C399B5
:1043040040F512434E12420E40FB78008008124CD6
:10431400A6740512440EE8C39940F375E195900A1A
:104324007574FCF0A3740B12436A12423D1216D545
:1043340012421E1216E1900544E024141242247421
:1043440015F090040474030245FB9005761242BAFA
:1043540074044AF5D97800221242B7900546E0C4A5
:10436400333354C0FA221243747494F0A3740D22AC
:10437400124378221243857494F0A3740D1243857A
:104384002212425BF0A32212438F22F0900A83741C
:1043940094F0A3740D1243787494F0A3740D124234
:1043A40057F022C082C08312419AA3A3A3A3E402BC
:1043B400408B74F712183E124EECF8740439F9E885
:1043C4002405FAE93400FB8A828B83124C5B8882D1
:1043D4008983A3A3A3A3A3A3A3A3A3ECF0A3EDF0B6
:1043E40088828983A3A3A3A3A3A3A3E024FFF8A3A0
:1043F400E034FFF98A828B83E8F0A3E9F002461CDB
:104404008808749F2508F5827405124B82F5D90833
:1044140022EAFEEBFF9061D0E0F87480C398FAEED4
:1044240024832212442D940422124A45E0F5D90A29
:10443400EAC32274F612183EEAFEEBFF9061D0E064
:10444400707575D90E75D90375D9047A008A08EE8A
:104454002508124FBA248C1244D040F17A008A08FD
:10446400EE2508124FBA248412442740F175E195D1
:104474007908EE248C1244C924841244C07C008C34
:1044840082AA82C3E49AF895E0F9EE28F8EF39F9A4
:10449400E8248BF582E9124B7EC0E0EE2A124FBA73
:1044A40024ABF582E9124A37D0E0F00CECC394084F
:1044B40040CD124586800279000245FCFAEF3400B3
:1044C400FB120D1C221244C07904EE2212442D94D6
:1044D4000822C082C08375D90275D90375D90575C0
:1044E400E195EA2470F582EB1244FBEA2472F5822A
:1044F400EB12459802408E124A4812450222E0F817
:10450400A3E0F92274F612183EEAFEEBFF90059F31
:104514007406124574121A517C0179031248A012D0
:1045240017FD75D90675D903780012455A40FB75F5
:10453400E195900404E064087017EE2470F582EFAE
:104544001244FBEE2472F582EF124A37E8F0A3E935
:10455400F079010245FC8808749F2508F5827405EA
:1045640012456A940522124A48E0F5D908E8C322A4
:10457400F075089F75090578082275E1957904128C
:104584000EE4EE2470F582EF124A48124502EE243E
:1045940072F582EF124A48E8F0A3E9F07901227437
:1045A400F612183EEAFEEBFF9061D0E07043790109
:1045B40090059F740BF0900404E06407701775086D
:1045C4009F7509057808121A517C0109091248A03F
:1045D4001217FD7905740129F5D975D9037800807E
:1045E40003124404E8C39940F875E19512458680A6
:1045F40002790080037401F07F0202191074F7122B
:10460400183EEAFEEBFF75D90375D90375D90DEE93
:1046140024DE12462112457E7F01021910F582EF35
:10462400124B82F5D9227F030219107401250AF571
:10463400D975D90378002274F512183E1246B06079
:1046440004780480027800E8240BF8EAC398404117
:10465400750A0990059F7409F07908124699601447
:1046640075089F7509057808121A5112489812178F
:10467400FD750A0D12462F8003124404E8C3950AFF
:1046840040F775E1957904120EE41248157901801A
:104694000279008091EE24E3FCEF3400FD7AA07BE4
:1046A40005120D16850882850983E022124415F847
:1046B400EF124C4FF583E02274F312183E8A088BF4
:1046C400091248ABFAE5082483F50AEB12477A602D
:1046D40004780480027800E82408F8EAC3985003B8
:1046E400024773750C0690059F740CF0900421E04A
:1046F4009005A0F07402C0E0F97C227D047AA17BCD
:1047040005120D16D0E0F97C247D04120D16850ADD
:1047140082850B83E0601C750A9F750B05780A126D
:104724001A517C067903AA08AB091248A01217FD96
:10473400750C0A7401250CF5D975D9037800800924
:10474400880A749F250A12440AE8C3950C40F1753F
:10475400E1957904120EE4E5082470F582E5091266
:1047640044FBE5082472F582E50912459880027934
:10477400007F050219103400F50B850A82F583E0E9
:104784002274F612183EEAFEEBFF1248ABFCEE244C
:1047940083F8EF1248A660047A0480027A00EA24BF
:1047A40004FAECC39A405E7A0290059FEAF0EE2484
:1047B400F5F582EF124821601975089F750905788F
:1047C40008121A517C027903EEFA1248A01217FD5E
:1047D4007A0674012AF5D975D90378008003124446
:1047E40004E8C39A40F875E195EE247412480EEE7D
:1047F400248012480E1248157904120EE4EE240D9A
:10480400124589800279000245FCF582EF12499134
:1048140022EE241DF582EF124991A3F022124B825D
:104824009005A0F088828983E02274F612183E1263
:1048340048ABFEEA2483F8EB1248A660047C0480AB
:10484400027C00EC2404FCEEC39C40437C029005F3
:104854009F7407F0EA24F6F582EB1248216015757F
:10486400089F7509057808121A5179031248A01295
:1048740017FD7C0674012CF5D975D90378008003E3
:10488400124404E8C39C40F875E1957901800279EB
:10489400000245FC7C097903EEFAEFFB120D8874E3
:1048A400022212422BE0229061D0E0F87480C39877
:1048B4002274F512183EE9FEA2AFE433F50AC2AF42
:1048C4007F00EA246FF8EB3400F980010F888289B5
:1048D40083E0FCEFC39C50188F08EA2508FCEB34F6
:1048E40000FDEC246BF582ED124B7E6E70DE8010C1
:1048F400EA2CFAEB3400FB124A31EE12482704F09A
:10490400E50AA2E092AF02462A74F612183EA2AF5C
:10491400E433FFC2AFEA246FF8EB124FBCFCE9FDAD
:104924008C828D83E014F07E0080218E08EA2508B5
:10493400F8EB124FBC246CF582E9124B7EC0E0E820
:10494400246BF582E9124A37D0E0F00E8C828D8315
:10495400E0F8EEC39840D4EA246E124A3474FF128D
:104964004986EFA2E092AF0245FCC082C083E5A86D
:10497400F8C2AF124A31E9124986E8A2E792AF02BF
:10498400408EF0EA246AF582EB12499122124A48D9
:10499400E4F02274F212183E8C828D83A3A3A3A3A5
:1049A400E0541FF0EA2436124CF38E828F83E4F035
:1049B400F50C850C8285820AEC250AF8ED124C4B25
:1049C400F583E0C0E0EA250AF8EB124A3BD0E0F0B8
:1049D400750D00850882850983E0F50A750B00E5ED
:1049E4000D780A1217B5E50AA2E0502AE50C333314
:1049F4003354F8250DC0E08E828F83E0F8EA28F85E
:104A0400EB124FBC2438F582E9124A37D0E0F08E1D
:104A1400828F83E004F0050DE50DC3940840B405CE
:104A24000CE50CC39405408A7F06021910EA246B36
:104A3400F582EB124A48223400F9E8245D124A4513
:104A440022F582E93400F5832274F612183E9004AC
:104A54002EE0640170077A007B00024B787E0090A0
:104A64000434E070F17401F0A3E4F0A3F090049432
:104A740004F0900497E4F0A3F090049A04F09004F6
:104A840037E4124B8F90044104F0900467E4F090F3
:104A94008F7D1216D590044A1216E190044EE4F06C
:104AA400A3F0A3F09004B2F09004A6F090049B74D9
:104AB40080F0A3E4F09004A1F0900499F090051D17
:104AC400124B87900526F09004B5F0900505F0A3ED
:104AD400F0908F7D1216D59005071216E1908F7D08
:104AE4001216D590050B1216E1900511E4F090050D
:104AF40013F090050FF0900529124B878E08749DD2
:104B0400124CAA7404124A3774FFF00EEEC39404D4
:104B140040EA7E008E82A882743D28F582740512D4
:104B24004B7EC0E0748F28F5827404124A37D0E0BB
:104B3400F00EEEC3940540DC7E008E82A8827418C9
:104B440028F5827404124B7EC0E0741528F5827433
:104B540005124A37D0E0F00EEEC3940840DC90040E
:104B64002EE004F064017008900436E0900430F004
:104B74007A327B040245FCF582EF124B8222124A00
:104B840048E022124B8FA3124B8F22F0A3F0A3F024
:104B9400A3F022C082C083EA2403F582EB124B7E89
:104BA4006008E4F090042FE014F090042EE014F078
:104BB400700690043074FFF08A828B83A3A3E4F020
:104BC400900542E0700D90042FE0640170057900B7
:104BD400120EC602408EC082C083900435E4F09069
:104BE4000434F090042EF0A3F0A374FFF075E1F107
:104BF40002408EC082C08378007900900435E06062
:104C0400047832790488828983A3A3A3A3E0F902F8
:104C1400408E74F612183EEAFEEBFF120CCEEE2420
:104C240065F8EF124C4B124C59EC4D601090043067
:104C3400124EE4850882850983E4F0A3F0EEFAEFCE
:104C4400FB120DBE0245FC124C4F223400F98808B9
:104C54008909888222F583E0FCA3E0FD2274F7121F
:104C6400183EEAFEEBFF8E828F83A3A3A3A3E0FA90
:104C74007B00120A4CEEFAEFFB120CE0120DA002BC
:104C8400461C74F612183E780088087418124CAA50
:104C9400740412481108E8C3940840ED9004180203
:104CA40045F9880874772508F5822274F612183EAF
:104CB400EA240D124CF3EC2403F8ED3400F98808CF
:104CC4008909EC2407F8ED124FBCFCE9FD124CFDF8
:104CD40012175C8E828F83E8F0A3E9F0124CFD1268
:104CE400175C8B09EA45096003124D100245FCF874
:104CF400EB3400F9E8FEE9FF228C828D8312450231
:104D0400850882850983E0FAA3E0FB228E828F83E3
:104D1400E02401F0A3E03400F02274F612183EEA15
:104D2400242EF582EB3400124C59EA2470124CF311
:104D3400780079FAECFAEDFB12175C8E828F83E827
:104D4400F0A3E9F0780079FAECFAEDFB12175C8B2A
:104D540009EA45096003124D100245FC74F012186B
:104D64003EEAFEEBFF741012183278081216B712DE
:104D74000E788A0C8B0D8C0E8D0F908F81780C120F
:104D84001643908F69780C121691780C121A4D8E76
:104D9400828F8312419D1216D5121FBD74041217FF
:104DA400FDE96003024E488E828F83E02402F8A35B
:104DB400E0124FBCFAE9FB8A828B837808121656FC
:104DC400908F6978081216B78A828B837808121636
:104DD400A4EE240BF582EF124A37C082C0838E8280
:104DE4008F83A3A3A3A3A3E02401F8A3E03400F9D1
:104DF400D083D082E0687003A3E0697004790180F5
:104E040045EE2407F8EF12422B124D14EE247412CF
:104E14004FC17014EE2475124E4F7003A3E06D70F1
:104E2400078A828B83124D14EE2480124FC17014B2
:104E3400EE2481124E4F7003A3E06D70078A828BBB
:104E440083124D1479007F08021910FAEF3400FB25
:104E54008A828B83E0FCA3E0FD88828983E06C2254
:104E640074F312183E124EECFE740439FFEE24045F
:104E7400F50AEF3400F50BEE2465F508EF3400F580
:104E8400098010124C5B850882850983E4F0A3F045
:104E9400124EDE850882850983124C5BEC4D60302E
:104EA400EE2464124B7BF50C780C121A55EE246335
:104EB400124B7BF9EEFAEFFB120D0A74011217FD87
:104EC400E985088285098360BA1244FEE8497007BF
:104ED4007C007D00124EDE024775850A82850B83B5
:104EE400E0FA7B00120A0A22900430E0F875F0041C
:104EF400A4C8AAF02AF97432282274F212183EEADD
:104F0400FEEBFF890A740E121832E0FAEE246212E4
:104F14004FC16003024FB51248ABF50CEE24831267
:104F24004B7BFB60047804800278008908E928F848
:104F3400E4124FBC24020808E93400F9E50C98E4B3
:104F440099A2D265D0334065EA7005750B028003DF
:104F5400750B01EB60337509007808121A517A9FBA
:104F64007B05120D5274021217FD75089F75090511
:104F74007808121A51AC0AA90B12489C1217FD7436
:104F840004250AF50A7C9F7D057401250AF5D98557
:104F94000BD97800800A8808EC124CAAED12440E52
:104FA400E8C3950A40F075E1957900800679078099
:104FB4000279FF024A2CF8EF3400F9E822F582EF77
:104FC400124B82640122C082C0838003124FF8E92D
:104FD400F874FF28190470F4ECFAEDFB02408EC05B
:104FE40082C0838003124FF8E9F874FF2819047013
:104FF400F402408E8C828D83E08A828B83F08C82D3
:105004008D83A3AC82AD838A828B83A3AA82AB8374
:105014002274F412183EE9FF7E008A088B0978088E
:10502400121A9500040DB2514850645079508E50B4
:10503400A350B850D450ED50FF502D513C5158510D
:105044007451925174016F70128C828D83E0C394F9
:10505400035008E0900B3FF00251D07E180251D06B
:1050640074026F70F68C828D831258F2900B40E8B4
:10507400F0A3E980E274016F70E18C828D83E0C358
:10508400940250D7E09007C080CD74016F70CC8C2F
:10509400828D83E0C3940550C2E09007C180B87448
:1050A400016F70B78C828D83E0C3940250ADE090A1
:1050B40007C280A374106F70A27508108E09780857
:1050C400121A517AC37B07125CBD1217FD0251D02C
:1050D40074016F70868C828D83E0C3940240030256
:1050E400505FE09007D302505B74016F600302507D
:1050F4005F8C828D83E0900B43808D74046F60031A
:1051040002505F908FB178081216B78D838C827825
:10511400081214D9400302505F8C828D831216D575
:105124009007D51216E10251D0EF600302505F12CE
:1051340012C81212BC0251D074016F600302505F96
:105144008C828D83E0C39402400302505FE0900799
:10515400D402505B74016F600302505F8C828D83B4
:10516400E0C3940A400302505FE0900B4202505B9C
:1051740074016F600302505F8C828D83E024F9C355
:10518400940A400302505FE0900B4402505B7401A8
:105194006F600302505F900867E0F88C828D83E0B3
:1051A400900867F0E87025E0640170208084C3EA09
:1051B4009424EB9400501374026F700E8C828D83D0
:1051C4001258FD12060EE9FE80020E0EEEF902518F
:1051D400DA740E1217FD7F0402191074F012183ECF
:1051E40074CC1217E78C0A8D0B7444121832E0FE4B
:1051F4007420121832AC82AD8375838F7582427429
:10520400061216FA7420121832AC82AD8312126E92
:10521400E9F508C3940A400302533775F006E9A47C
:10522400F5097426121832AC82AD837A0E742012FA
:1052340053837432121832E0FF900B3FE064027023
:105244000474018001E4F50D780D121A55EEFDEF9A
:10525400FCA908AA0AAB0B1212F274011217FD7C06
:10526400147D007900740C121832AA82AB831211D7
:105274005A740C121832AC82AD837A10742412530F
:1052840083E970347C1079FF740C12183212537A4B
:105294007026741C121832AC82AD837A0474251201
:1052A4005383740C121832AC82AD83EFA2E0E43362
:1052B400F9AA0AAB0B120698851882851983AC8269
:1052C400AD837A0C7470250812599A70558518822A
:1052D400851983AA82AB8312129E750800E50875AE
:1052E400F003A4F8A9F0851882851983E58228F8CB
:1052F400E583125ADE1258FDEC4D601D88828983C5
:10530400A3A3E0F50E750F00780E121A51AA0AAB8A
:105314000B12093274021217FD0508E508C3940440
:1053240040BBEFA2E1500C9007BFE0F9AA0AAB0B17
:1053340012093874046E702A900B3FE064027022E4
:105344009007D3E060047A0180027A009007C0E0FD
:105354006004780480027800E84AF9AA0AAB0B12C8
:105364000758790074341217FD7F0802191079FF69
:10537400851882851983AA82AB831211BAE9222582
:1053840009F91213F42274F012183EEAFEEBFF8CB2
:10539400088D09750A0AE9600C14600914602E145A
:1053A400607F0254301212B0E9F50AC3940A507CAB
:1053B400E50845096076750E06750F00780E121A19
:1053C40051EEFCEFFD125CB91217FD805F750B0006
:1053D400750E06750F00780E121A51EEFCEFFDE5FE
:1053E4000B75F00EA4F8A9F074E128FA740739FBE0
:1053F40012115474021217FDE9601B850B0AE50AA9
:10540400C3940A5027E50845096021AA08AB09A9F5
:105414000A1212AA8016050BE50BC3940A500D80DC
:10542400AF1212B6E9F50AC3940A40D9A90A025385
:105434006D74F412183E890875091574FF6A7003B7
:1054440074FF6B70277E00AC087A027B00EEF912C1
:10545400128CE960037509000EEEC3940A40E8E576
:105464000860497AE07B12120B548040120B368A92
:105474000A8B0BAE0AAF0BEE4F602E7C007D00EE64
:105484002405FAEF3400FB8E828F83125530500CC2
:10549400AC087A027B0012128C750900E508600CD6
:1054A400EEFAEFFB1212E08003750914A909025108
:1054B400DA74F212183EECFEEDFF740E121832E0AC
:1054C400F50AA3E0F50B75081574FF6A700374FF01
:1054D4006B7021750900AC0AAD0BEEFAEFFBA9095C
:1054E400121292E960037508000509E509C3940ADC
:1054F400503580E2120B368A828B83E582458360C5
:10550400237C007D00E5822405FAE5833400FB1248
:1055140055305013AC0AAD0BEEFAEFFB1212927534
:1055240008008003750814A908025AA6A3A3A3A31C
:10553400E0F912126EE9C3940A22C082C083900774
:10554400D9EAF0A3EBF09007BFE0FC7D007A237B5F
:105554000012060E9007BFE0F91208AED083D08285
:1055640002012274EA12183E74EC1217E78A088BBF
:1055740009EA240CF514EB3400F515EA240AF510B5
:10558400EB3400F511EA2405F50EEB3400F50FEACF
:105594002409F50AEB3400F50BEA2403FEEB34008E
:1055A400FF8A828B83A3A3E024FA70030258C524E4
:1055B400FD70030257F51470030256501460102452
:1055C400FD70030257C11470030258280258CE120A
:1055D4005915604AE0F58388821258F2880C890DC7
:1055E400E8450D6039851482851583E0F50E780E43
:1055F400121A55EA240BF582EB3400F583E0F985A1
:105604000A82850B831258FD0A0A0AEFFB850C8275
:10561400850D8312183C74011217FD0258CE850AB9
:1056240082850B83121A689007D51216D51206AA22
:1056340074021217FDE970030258CE7901850A82BB
:10564400850B83125FBB1206A40258CE8A828B8319
:10565400A3858212858313E06003025799850E8225
:10566400850F83E0A2E040030257997C0E7D007908
:1056740000851882851983AA82AB8312115AE50822
:105684002408F50AE5093400F50B850A82F583122E
:1056940059186019750C06750D00780C121A51858D
:1056A4000A82850B83E02410FCA3E0801A1258E5DB
:1056B400EA4B70030258CE750C06750D00780C1277
:1056C4001A51EA2405FCEB3400FD7402121832AAC4
:1056D40082AB83125CBD1217FD850E82850F83E0B9
:1056E400A2E25004D2F08002C2F0A2F0E433F874D3
:1056F4000C121832E048F085108285118312591873
:105704006015851082851183E02410F8A3E034002D
:10571400F9888289838003908FA9780C1216B78543
:105724001082851183125918600F851082851183A8
:10573400E0F510A3E0F511800675100075110085E1
:105744000A82850B83125918600F850A82850B83A0
:10575400E0F50AA3E0F50B8006750A00750B0078E6
:105764000C121A4D7810121A51780A121A51851413
:1057740082851583121A68850882850983A31258C5
:10578400F8740A121832AA82AB831212A4740A1291
:1057940017FD1258D812591570030258CE12590326
:1057A40070030258CE851282851383E0FC790112BE
:1057B4005FB7888285098312183C0258CE1258D8E4
:1057C40012591570030258CEE0F5838882A3A31200
:1057D40058F2890BE8450B70030258CE8508828580
:1057E4000983A3E0FC7902125FB78882850B83806A
:1057F400C67C007D00EA2404FAEB3400FB8E828F21
:1058040083E0F912126EE9F8C3940A40030258CEF9
:10581400AC10AD117A0475F006E8A42425F912132E
:10582400EE0258CE9007D4E0600C900B42E0F98E63
:10583400828F83025647900B3FE07004790580EF16
:105844001258E58A0C8B0DA80CA90DE82404F50C5C
:10585400E93400F50D850882850983A3A3A3A3A3D6
:10586400A3A3E0A2E05037E849605F850C82850D70
:1058740083E0F5086028850A82850B83E054107064
:105884001D740E121832AC82AD83E82405FAE93493
:1058940000FBA90812126EE9700479038091AC0E22
:1058A400AD0F850C82850D83E0F9125FB71212ECFF
:1058B400125915601512590360107C0079000257C3
:1058C400B3120770E970031212BC74141217FD7F2F
:1058D4000E0219108E828F83E0FAA3E0FB1212FEEF
:1058E400228E828F83E0FAA3E0FB120B3622E0F8CB
:1058F400A3E0F922A3A3A3A3A3E0FCA3E0FD22E079
:10590400F5838882A3A3E0F8A3E0F98909E84509AF
:10591400229007D9E0F8A3E0F9E8492274F41218B8
:105924003E74F21217E7EAFE8C0B75F006E9A42424
:1059340020F508851882851983AC82AD837A0E120E
:10594400599A70407C061253727039740C121832D2
:105954001258F2E8F509E50B6005EE42098004EE01
:10596400F45209850982AA82E86A7001E960117417
:105974000C121832EAF0A3E4125F04A9081213EE21
:105984007901800279000251D5AC82AD837A0E751B
:10599400F006E9A42420F91213F4E92274F212188F
:1059A4003E74E61217E7890A8A088B09ECFEEDFFBC
:1059B400740C12183212598D6003025A5A7C0679FB
:1059C400FF740C12183212537A6003025A5A74701C
:1059D400250AF50B851882851983AC82AD837A0C70
:1059E40012599A6003025A9F851882851983AA82E4
:1059F400AB8312129EE508450970217C0C790012D4
:105A040053746003025A9F7C0C7D007900851882D0
:105A1400851983AA82AB8312115A80618518828505
:105A24001983AC82AD83AA08AB091212988A0C8B35
:105A34000DA80CA90DE849702CEE4F601985188249
:105A4400851983AC82AD837A007B00121298EAF840
:105A5400EBF9EA4B70047900804388828983E50876
:105A6400F0A3E509F0125B1AFAEE6A7001EF602BFD
:105A7400EEF04F700888828983E4F0A3F0851882E1
:105A8400851983AA82AB8312129E85188285198395
:105A9400AC82AD837A0CA90B1213EE7901741A123D
:105AA40017FD7F0602191074F712183E7F00EF7578
:105AB400F003A4F8A9F0EC28F8ED125ADEE06A70BD
:105AC40003A3E06B7006E8FAE9FB800B0FEFC394C5
:105AD4000440DB7A007B00025DAC39F9888289835B
:105AE4002274F712183E7E00EE75F003A4F8A9F0B4
:105AF400EA28F8EB125ADEE0F4FCA3E0F4FD888215
:105B04008983ECF0A3EDF0125B1AF4F00EEEC3946B
:105B14000440D5025DACE82402F582E93400F58343
:105B2400E02274EE12183E74F41217E7EAFEEBFF5B
:105B34008C0A8D0B741E121832E0F50CA3E0F50DDF
