:020000040000FA
:0600000002010A021D329C
:03002B0002218C23
:03005300021DA8E3
:03006B0002213639
:03007B0002216EF1
:10008300021C23E5C754F84401F5C7790122000097
:100093000080FB120086B900030200F4E4792178A2
:1000A30008B800028004F709D8FCE479297802B87B
:1000B30000028004F709D8FCE490028178C779072D
:1000C3008002F0A3D8FCD9FA900947AA82AB8390A7
:1000D300013A783479048015E493A3AC82AD838A22
:1000E300828B83F0A3AA82AB838C828D83D8E9D9D8
:1000F300E7758240758391740312011C75829175B3
:100103008300740012011C75D00075813F7518813E
:10011300751902759F00020096C09FF59FE473D086
:100123009F22D083D082C09FE493C0E0740193C028
:10013300E0740293F59F22FF0000B400002800281A
:1001430000283075A000A000A000A000000800084F
:10015300E001F0001000100010001000100010006B
:1001630050005000500010001000D00700000000A5
:1001730000000F00307507001000010081FF000030
:10018300FF6B0689067106FF02020A0A025000A0ED
:10019300000000E80302DA8F010000C78F02DE8F40
:1001A300010000980902E48F010000B20202DE8F11
:1001B300010000990902E68F010000C80202DE8FE8
:1001C3000100009A0902E88F030000CA0202DE8FD1
:1001D3000100009B0902EA8F030000CB0202DE8FBD
:1001E3000100009C09020C900100009D09FF010021
:1001F300FF2002DA8F010000CA8F02DE8F010000A8
:10020300010A02EE8F000000000002E28F030000EB
:100213001803A10CA10CA10CA10CA10CA10CA10C05
:10022300A10CA10CA10CA10CA10CA10C710F890FA5
:100233006B0FFFFF020202020202020202010D0023
:100243000000100102DA8F010000CD8F02DE8F0162
:100253000000440A02FA8F010000750702DE8F01D5
:100263000000450A02F88F010000018F02DE8F01B2
:100273000000460A02F68F010000E58E02DE8F01C0
:100283000000470A02F48F010000918E02DE8F0105
:100293000000480A02F28F010000A38E02DE8F01E4
:1002A3000000490A02F08F0100007F8E02DE8F01F9
:1002B30000004A0A0212900100006D8E02DE8F01D7
:1002C30000004B0A02EC8F010000F38E02DE8F0167
:1002D30000004C0A020A900100004D0A01E80305E0
:1002E3003F10FF000130750302010600000000000B
:1002F30000000000000000000000000000000000FB
:1003030000000000000000FFFF0600800CE803145B
:100313000953696D706C65424C455065726970682C
:100323006572616C051250002003020A0002010588
:100333000302F0FF53696D706C6520424C452050F9
:1003430065726970686572616C491300004F130A26
:1003530043686172616374657269737469632031A0
:1003630000024368617261637465726973746963DF
:100373002032000843686172616374657269737443
:100383006963203300104368617261637465726945
:100393007374696320340002436861726163746536
:1003A30072697374696320350002DA8F010000D02B
:1003B3008F02DE8F0100005F0B020090030000310B
:1003C3000902E08F010000600B02DE8F0100007163
:1003D3000B020290010000320902E08F010000725B
:1003E3000B02DE8F010000830B0204900200003336
:1003F3000902E08F010000840B02DE8F01000095EB
:100403000B020690000000340902E28F030000355E
:100413000902E08F010000960B02DE8F010000A7A6
:100423000B0208900400003B0902E08F010000A8C2
:100433000B104B657920507265737320537461748C
:10044300650002DA8F010000D38F02DE8F01000006
:10045300410C021090000000400902E28F030000EB
:10046300410902E08F010000420C12012579850346
:10047300120125908503120125BF8503120125F87A
:1004830085031201252086031201254E86031201DE
:10049300256586031201257C8603120125928603B6
:1004A300120125B98603120125CC8603120125E228
:1004B3008603120125F586031201251A870312010B
:1004C30025008002120125FF8002120125348102DA
:1004D300120125558102120125658102120125862B
:1004E30081021201259282021201255F8302120109
:1004F30025D283021201255884021201259B84020E
:10050300120125D284021201255885021201252ADF
:100513008602120125888602120125A08602120195
:10052300251A87021201251D870212012520870241
:10053300120125C78702120125DF87021201250F49
:1005430088021201252F88021201251D890212013A
:1005530025D389021201259BD502120125C3D50299
:10056300120125F1D50212012528D6021201259088
:10057300D602120125D9D60212012524D70212016F
:100583002562D7021201259FD702120125CDD7027A
:1005930012012574D8021201257ED8021201258B7F
:1005A300D802120125BED80212012580D9021201F8
:1005B300258CD902120125A4D902120125AED90234
:1005C3001201251D8E031201252B8E0312012543D3
:1005D3008E031201255B8E03120125729F01120106
:1005E3002510A00112012588A0011201259DA1015A
:1005F300120125D7A10112012580A201120125555F
:10060300A301120125B9A40112012510A5011201AC
:100613002597A5011201257EA601120125CBA6016E
:1006230012012559A7011201257DA70112012552A7
:10063300A90112012593A901120125B5A9011201EE
:100643002536AA0112012520AB01120125E6AB01D3
:1006530012012529B402120125FBB402120125A4BB
:10066300B502120125E7B50212012574B602120183
:100673002500B702120125E1B70212012510B802C5
:100683001201250CB90212012554B9021201255693
:10069300BA021201259ABA02120125C0BA02120146
:1006A30025848F03120125CFE602120125E5E60218
:1006B3001201250BE70212012533E8021201253D41
:1006C300E80212012596E90212012596EA021201B7
:1006D30025F5C60212012502C80212012536C802F9
:1006E30012012578C80212012532CA02120125150A
:1006F3009001120125789001120125BD910112018B
:1007030025CD9101120125F091011201253B9201A2
:10071300120125E09201120125D69301120125A0B1
:1007230094011201251896011201255A960112010E
:1007330025F896011201254597011201256B9701B2
:100743001201255999011201255E99011201253FD4
:100753009B01120125939B01120125F59B011201B7
:10076300251D9C01120125C19C01120125839D01B8
:10077300120125B49D01120125B79D01120125FF28
:100783009D01120125419E01120125A89E0112011E
:100793002504FB0212012517FB0212012530FB027F
:1007A3001201257BFB0212012556FC02120125E5ED
:1007B300FC0212012530FD02120125B021001201B5
:1007C30025BC2100120125F521001201253A220042
:1007D300120125F12200120125772300120125DCE5
:1007E30023001201250824001201254124001201CF
:1007F300255526001201253128001201251C2A0047
:10080300120125532B00120125B32D001201259F40
:100813002E00120125E52F00120125F230001201EE
:10082300250F3100120125473100120125613100E6
:10083300120125C931001201256336001201250476
:1008430037001201255537001201257C37001201AC
:1008530025CA3700120125E837001201253C38006C
:100863001201251539001201259C3A001201252495
:100873003B0012012535BB021201253FBB021201C9
:100883002506BC0212012555BC0212012579BC02C2
:10089300120125D4BC021201250CBD02120125341C
:1008A300BD0212012564BE021201258FBE02120190
:1008B30025BABE0212012509BF021201251FBF027C
:1008C30012012565BF021201259FBF02120125E116
:1008D300BF0212012529C00212012565C0021201BF
:1008E30025B3C002120125FCC00212012526C10254
:1008F3001201254BC102120125DAE202120125A4DD
:10090300E30212012590E40212012506E502120119
:100913002548E50212012575E60212012535F3018A
:100923001201255EF30112012577F301120125BCA3
:10093300F4011201259AF501120125B9F5011201FD
:100943002546F60112012589F601120125D6F70184
:1009530012012575F801120125F4FA011201258B04
:10096300FB011201255FFC0112012541FD0112016A
:1009730025ADFE0112012540FF01120125238A0343
:100983001201258C8A03120125E08A03120125072F
:100993008B0312012543DA02120125B0DA02120198
:1009A30025FBDA02120125F0DB02120125ECDC0241
:1009B300120125D6DD02120125D59C02120125174D
:1009C3009D02120125F19D02120125CA9E02120108
:1009D30025C59F02120125A4A00212012510A10220
:1009E300120125D7A10212012542A202120125A953
:1009F300A202120125D4A20212012545A30212016B
:100A030025D8A30212012541A40212012556A402EE
:100A13001201259EA402120125B7A4021201251C6E
:100A2300A5021201251FA50212012526F5021201B6
:100A3300254EF5021201258CF5021201254AF60214
:100A4300120125B5F602120125D1F602120125F98C
:100A5300F60212012529F70212012538F7021201C5
:100A630025B2F702120125D8F7021201251BAE01A8
:100A7300120125A6AF0112012542B1011201250879
:100A8300B2011201254FB20112012596B2011201E2
:100A930025B4B201120125F6B2011201250CB301EE
:100AA30012012558B30112012590B301120125C388
:100AB300B30112012514B4011201257EB401120100
:100AC3002578B7011201251AB90112012560B90170
:100AD30012012597BA01120125F4BA011201256901
:100AE300BB01120125BDBB01120125EABB011201A5
:100AF3002515BC01120125DF9302120125FC930287
:100B03001201258999021201258B9A0212012505EA
:100B13009C02120125B39C021201258B3B0012019A
:100B230025D43B00120125013C00120125343C0071
:100B3300120125413C001201254D3C001201255FA5
:100B43003C00120125343D00120125923D001201A3
:100B530025C73D00120125633F001201259D3F007B
:100B63001201250B4000120125B040001201256C33
:100B73004100120125EB4100120125AF4200120191
:100B830025BE42001201253F4300120125DE43002A
:100B9300120125104400120125AB4400120125095E
:100BA3004500120125434500120125C445001201E9
:100BB300258D4600120125364700120125BD470049
:100BC3001201251548001201257648001201259FC0
:100BD30048001201255549001201259F4A001201C0
:100BE30025E24A00120125FF4A001201251E4B008F
:100BF300120125694B001201258E4B00120125B706
:100C03004B00120125264C00120125684C001201ED
:100C1300256C4D00120125064E00120125D24E000F
:100C2300120125EB4E001201253E8A021201259185
:100C33008A021201259D8A02120125728B0212017A
:100C430025998B02120125D48B02120125408C02B7
:100C5300120125748C02120125AD8C02120125C5E7
:100C63008C021201251E8D02120125378D021201FD
:100C730025808D02120125938D02120125AD8D026F
:100C8300120125C38D02120125DF8E02120125F008
:100C93008F021201253D91021201252292021201B7
:100CA30025A521001201254FE60112012583E60146
:100CB300120125EEE90112012538EB01120125028B
:100CC300EC011201258CED0112012567EE011201E1
:100CD30025A1EE01120125C4EE0112012506EF0143
:100CE3001201250FEF0112012559EF0112012563AE
:100CF300EF011201250FF001120125E3F0011201AA
:100D03002537F10112012599F101120125ECF101B9
:100D13001201251BF2011201255AF2011201257A53
:100D23006200120125D46A00120125DA6A00120159
:100D3300258D7000120125737400120125D8F1026C
:100D43001201254EF20212012564F202120125A1BD
:100D5300F202120125D9F20212012556F302120101
:100D63002591F3021201250CF40212012548F40225
:100D730012012551F4021201255DF40212012577B7
:100D8300F4021201259CF402120125B2F4021201AD
:100D930025F6F402120125D9D002120125ECD00266
:100DA30012012506D1021201252FD102120125724B
:100DB300D102120125B1D102120125EFD102120194
:100DC3002554D20212012569D20212012574D202DE
:100DD30012012581D20212012598D202120125A601
:100DE300D202120125B1D202120125BDD202120193
:100DF30025D0D202120125DBD202120125FED20236
:100E0300120125A7D302120125B7D302120125D15E
:100E1300D302120125EED3021201250AD4021201D4
:100E2300252FD40212012539D4021201254DD402F3
:100E33001201256CD402120125CDD402120125D34F
:100E4300D402120125D9D402120125DFD4021201E2
:100E530025EBD4021201251ED502120125C5D801A6
:100E630012012547D901120125F0D90112012538B4
:100E7300DB0112012546DD011201252CDE011201E1
:100E83002561DE0112012583DE011201252CDF011C
:100E9300120125FCE00112012525E1011201259D26
:100EA300E101120125CFE101120125DCE10112016B
:100EB3002527E2011201254BE2011201259CE401E1
:100EC300120125A6E50112012502E601120125B151
:100ED300BC01120125C2BD01120125A6BE011201EA
:100EE30025B0BE01120125D2BE01120125DEBE01CD
:100EF30012012582C001120125AFC001120125C5CF
:100F0300C1011201251AC20112012569C30112018F
:100F1300253EC4011201259AC40112012505C5010C
:100F23001201253AC5011201257DC501120125478C
:100F3300C8011201255FC801120125F0C801120181
:100F430025FEC8011201254BC90112012559C9010A
:100F5300120125C5C90112012540CA0112012597B5
:100F6300CA01120125C27400120125E474001201A2
:100F730025F57600120125B47900120125DE7A00E9
:100F83001201259C7B00120125887C00120125C0DB
:100F93008303120125E583031201255B84031201F8
:100FA300250CAD0212012515AD021201251EAD025D
:100FB300120125F6AD02120125A7AF02120125D7B2
:100FC300AF0212012502B00212012532B002120152
:100FD300255DB00212012591B002120125BDB002B8
:100FE30012012500B1021201252BB1021201257253
:100FF300B102120125C7B10212012509B202120181
:101003002563B2021201258EB202120125DDB2025E
:101013001201250DB30212012538B3021201256610
:10102300B30212012589B3021201250D90031201A7
:101033002539900312012566900312012570900350
:1010430012012580900312012573C1021201257D2F
:10105300C102120125BEC10212012507C2021201FB
:101063002541C20212012597C202120125B8C2020C
:10107300120125C1C20212012515C3021201253E28
:10108300C30212012548C302120125B6C30212018D
:101093002546C402120125A1C402120125CFC402B0
:1010A30012012557C50212012596C502120125CB4F
:1010B300C502120125DDC502120125FCC50212017C
:1010C3002505C602120125C7C6021201253A8C0363
:1010D3001201250080031201253680031201256ABF
:1010E3008003120125B781031201258A900312019F
:1010F30025A09003120125A1FF0212012598DE020B
:10110300120125ABDE021201256FDF02120125AEAB
:10111300DF02120125CBDF0212012504E0021201D6
:101123002551E00212012583E002120125BAE002F3
:10113300120125CDE202120125318D03120125543E
:101143008D03120125838D031201259B8D0312014B
:1011530025DD8D0312012520F80212012545F80231
:101163001201256FF802120125EA90031201251DD1
:101173004F00120125E7500012012592520012017F
:10118300253D5300120125BD53001201254654008D
:101193001201256F5400120125285800120125A8B9
:1011A3005800120125B35900120125ED590012010F
:1011B300252E5A00120125755B00120125CB5B0019
:1011C300120125145C001201256B5C00120125B984
:1011D3005C00120125E75C00120125FF5C0012018F
:1011E30025E45D001201251A5E00120125C95E0087
:1011F300120125E05E00120125125F00120125AFE6
:101203006000120125436100120125816100120172
:1012130025C09103120125B7FF01120125F6FF0135
:10122300120125D19103120125F48E031201250425
:101233008F03120125198F03120125818F031201D8
:1012430025388B03120125BD8B03120125218C0345
:10125300120125C48803120125F288031201256FA8
:101263008903120125CF8903120125A0EA02120185
:1012730025B4EA021201252EEB0212012512EC021B
:10128300120125E9ED021201252C87031201257EA7
:101293008703120125F187031201255E88031201DA
:1012A300255AFD0212012584FD0212012553FE0277
:1012B3001201252FFF0212012543A5021201250F5A
:1012C300A60212012550A602120125AEA6021201A2
:1012D3002502A70212012560A702120125F6A70223
:1012E300120125FEA80212012588AA021201252651
:1012F300AB021201258DAB02120125A4AB02120130
:1013030025C3AC021201252FCB01120125ABCE015F
:1013130012012537D00112012587D001120125A121
:10132300D00112012521D10112012527D301120178
:101333002518D701120125E8CB0212012569CE0237
:101343001201257FCF02120125FACF02120125A433
:10135300D0021201254EEE0212012593EE02120174
:1013630025B0EE0212012566EF02120125B9EF0244
:1013730012012589F0021201259FF102120125F1C4
:1013830081031201253682031201258A8203120189
:10139300250F8303120125878303120125939103EC
:1013A300120125E07F00E066701008A3E066700A72
:1013B30008A3E066700408A3E06622C3E796080961
:1013C300E7960809E7960809E79622C3E09608A37B
:1013D300E09608A3E09608A3E09622C008C3E0962F
:1013E300F50808A3E096420808A3E096420808A37C
:1013F300E09645087001D3D00822080808EAC0E047
:10140300EBC0E086F0E7A4FA180986F0E7A42AFA0D
:10141300180986F0E7A42AFA180986F0E7A42AFA3D
:101423001986F0E7A4FBE5F02AFA190886F0E7A489
:101433002BFBE5F03AFA190886F0E7A42BFBE5F05D
:101443003AFA18180986F0E7A4C5F02BFBE43AFA38
:101453001908E7C5F0C6A426F6E5F03BFBE43AFA23
:101463001886F0E7A4F6E5F00826F6E43B08F6E470
:101473003A08F6D0E0FBD0E0FA22E4CFC0E0E4CEB5
:10148300C0E0E4CDC0E0E4CCC0E075F020C3E633B7
:10149300F608E633F608E633F608E633F6181818C6
:1014A300EC33FCED33FDEE33FEEF33FFC3EC970972
:1014B300ED9709EE9709EF97191919400FFFEC976C
:1014C300FC09ED97FD09EE97FE191906D5F0BEEC60
:1014D300F709EDF709EEF709EFF7191919D0E0FC51
:1014E300D0E0FDD0E0FED0E0FF226016080808C679
:1014F300C313C618C613C618C613C618C613C6D553
:10150300E0EA227009080808226016181818C6C3F2
:1015130033C608C633C608C633C608C633C6D5E0C5
:10152300EA22E627F60809E637F60809E637F60859
:1015330009E637F622E026F608A3E036F608A3E02C
:1015430036F608A3E036F622E026F008A3E036F0EC
:1015530008A3E036F008A3E036F022C3E697F608C6
:1015630009E697F60809E697F60809E697F622C30F
:10157300E096F008A3E096F008A3E096F008A3E055
:1015830096F022E056F608A3E056F608A3E056F6D6
:1015930008A3E056F622E056F008A3E056F008A3AD
:1015A300E056F008A3E056F022E0F608A3E0F608C0
:1015B300A3E0F608A3E0F622E6F008A3E6F008A30A
:1015C300E6F008A3E6F022E0FAA3E0FBA3E0FCA325
:1015D300E0FD22EAF0A3EBF0A3ECF0A3EDF022CAC6
:1015E300C0E0E6F0A308DAFAD0E0FA22CAC0E0E0ED
:1015F300A3C582CCC582C583CDC583F0A3C582CCE8
:10160300C582C583CDC583DAE6D0E0CA22C3E49898
:10161300F8E499F91216518026C3E49AFAE49BFB85
:10162300E920E7E9121651E498F8E499F922C3E4B2
:1016330098F8E499F9121651E498F8E499F9C3E497
:101643009AFAE49BFB22EB20E7CFE920E7E0B9001D
:1016530010BB0008E88AF084F8AAF022E4FBC8FA79
:1016630022EB70227B10C833C8C933C9335007C378
:101673009AC3DBF280069A50012ADBEAC833F4C826
:10168300C933F4C9FA2275F008E4C833C8C933C9A9
:1016930033C99AC99B5004C92AC93BD5F0ECFBC88E
:1016A30033F4C8E4C9FA22600D08C6A2E713C618CA
:1016B300C613C6D5E0F322600C08C6C313C618C60A
:1016C30013C6D5E0F422700422600D18C6C333C6D6
:1016D30008C633C6D5E0F41822251810AF08F5184C
:1016E300400215198008F51840021519D2AF22C01F
:1016F300D0251810AF08F518500205198008F51801
:1017030050020519D2AFD0D0222518F58210AF08A8
:10171300F518400215198008F51840021519D2AFC3
:10172300851983222518F582E43519F58322E4739C
:10173300C0E0E8C0E0E58124FCF8E6A2E7D0E0F8E9
:10174300D0E0222518C582C0E0E51934FFC583C067
:10175300E0E518C3958224F810AF088583198582C4
:10176300188008858319858218D2AFCEF0A3E520AF
:10177300F0A37808E608F0A3DEFAEFF0A3E58124EE
:10178300FAF8E608F0A3E608F0A3E608F0A30808D1
:10179300E608F0A3E608F0A315811581D0E0FED09A
:1017A300E0F8158115811581E8C0E0EEC0E022253F
:1017B30018C582C0E0E51934FFC583C0E0E518C34E
:1017C300958224F910AF08858319858218800885CE
:1017D3008319858218D2AFCEF0A3E520F0A3780851
:1017E300E608F0A3DEFAEFF0A3E58124FBF8E608B0
:1017F300F0A3E608F0A30808E608F0A3E608F0A3C0
:1018030015811581D0E0FED0E0F815811581E8C07F
:10181300E0EEC0E022851983851882E0A3FEE0A3F1
:10182300F5207808E0A3F608DFFAE0A3FFE0A3C001
:10183300E0E0A3C0E0E0A3C0E0E0A3C0E0E0A3C019
:10184300E010AF0885821885831980088582188582
:101853008319D2AFD083D0820201228519838518E0
:1018630082E0A3FEE0A3F5207808E0A3F608DFFA00
:10187300E0A3FFE0A3C0E0E0A3C0E0E0A3C0E0E09A
:10188300A3C0E010AF08858218858319800885827C
:1018930018858319D2AFD083D08222C0D02518C532
:1018A30082C0E0E51934FFC583C0E0E518C3958223
:1018B30024F310AF0885831985821880088583195E
:1018C300858218D2AFC8F0A3E9F0A3EAF0A3EBF046
:1018D300A37908E709F0A3D8FAECF0A3EDF0A3EE9F
:1018E300F0A3EFF0A3D0E0F0A3D0E0F0A3D0E0F0BA
:1018F300A3E520F0A3E5F0F0A322851983851882E0
:10190300E0C0E0A3E0F9A3E0FAA3E0FBA37808E0DA
:10191300F608A3DFFAE0FCA3E0FDA3E0FEA3E0FFEB
:10192300A3E0C0E0A3E0C0E0A3E0F5D0A3E0F5208E
:10193300A3E0A3F5F010AF0885831985821880080A
:10194300858319858218D2AFD082D083D0E0F8D0B6
:10195300E03274048006740280027401C0E0F4046F
:1019630012170CD0E01215E2227404800474028072
:1019730000CCC0E0EDC0E0E518C39CCCAD1950012C
:101983001D10AF068C188D1980068C188D19D2AFD7
:101993001215EFD0E0FDD0E0FC22D083D082E9C065
:1019A300E0E493A3C386F0C5F095F0F908E493A3AC
:1019B30086F0C5F095F0700BE493A3C3994005E955
:1019C300048002A3E475F002A42582F582E5F035D4
:1019D30083F583D0E0F9E493A3C0E0E493C0E0226D
:1019E300D083D082ECC0E0EDC0E0E493A3FCE493A9
:1019F300A3FDED4C600D121A2FEC24FFFCED34FF18
:101A0300FD80EFE493A3FCE493A3FDED4C600D1282
:101A13001A6EEC24FFFCED34FFFD80EFD0E0FDD027
:101A2300E0FCE493A3C0E0E493C0E022C0E0C3E49D
:101A33009396087401939618400FE4936670080810
:101A4300740193661870007019A3A3C3E4939608F6
:101A53007401939618A3A3400DD0E0D0E0D0E00228
:101A63001A1FA3A3A3A3A3A3D0E022C0E0C0F088BE
:101A7300F0E4936670080874019366187000A8F088
:101A8300A3A3700BD0F0D0E0D0E0D0E0021A1FA3E4
:061A9300A3D0F0D0E02218
:101A9C0074F51217B2EAFEEBFFEE2434F8EF3400C3
:101AAC00F988088909EE2435121BD4F8EE24371274
:101ABC001BD4F50AEC850AF0A4FCAAF0850AF0ED1B
:101ACC00A42AFDE82CF8E43DF97A257B0012165186
:101ADC00EA850882850983F05407F87401B800027E
:101AEC008004C333D8FCC0E0E0131313541FF8EE8A
:101AFC0028F8EF3400F9E8245DF582E93400F58329
:101B0C00D0E0F8E0586008850882850983801DEED6
:101B1C002436121BD4F5F0EA84A8F0EE28F8EF3442
:101B2C0000F9E82438F582E93400F583E0F97F0404
:101B3C0002185E74F51217B2EAFEEBFFEE243412B3
:101B4C001BD4C0E0EE2435F582EF3400F583D0E0F1
:101B5C00F08E828F83A3A3A3A3A3E0FAA3E0FB8E52
:101B6C00828F83A3A3A3A3A3A3A3E0FCA3E0FDEC18
:101B7C00C39AF50AED9BF50BEE2480F508EF3400C3
:101B8C00F509850882F583E06401702BEE2481F55C
:101B9C0082EF3400F583121970121BDD74021216D9
:101BAC00F2E960137CFB7D04EEFAEFFB120BCF85A0
:101BBC000882850983E4F0AC0AAD0BEEFAEFFB1258
:101BCC001A9C122128021B3AF582EF3400F583E0AF
:101BDC0022C082C083851882851983E0F8A3E0F9BE
:101BEC00C3EA9CEB9D500BC3EC98ED994012790124
:101BFC008010C3EA98EB9940F5C3EC98ED9950EE40
:101C0C007900D083D08222EAC39CFAEB9DFB2200A0
:101C1C008521878522C622C0E074EF12189E759B21
:101C2C0000906182E0A2E64003021CE4E591A2E68A
:101C3C004003021CE47591BF9003C2E06405700878
:101C4C00120D6D120D798003120D73752100120D9A
:101C5C00DFE99003C3F07900120DD3120B3F7A0128
:101C6C007B009003C1E0F91210A3907803E064426A
:101C7C006003021D2D90055CE014F06003021D2D25
:101C8C00C2AF121C9100782AD0E0F618D0E0F6E52D
:101C9C009F5407F97005908F6B8003908F677808BD
:101CAC001215ACE9C4C0E07829E65508F50808E639
:101CBC005509F509740B78081216BAD0E02508F806
:101CCC00906270E0A2E740F8E8C333906272F09043
:101CDC006270E0D2E0F08049E0A2E55024E591A2E8
:101CEC00E5501E7591DF9003C2E0640D70139003F4
:101CFC00E4E004F064287002E4F07A00E0F9120EDB
:101D0C0051906181E0A2E35009E5E9A2E35003752B
:101D1C00E9F7A3E0A2E75009E591A2E7500375911A
:101D2C007F7F040218FDC0E0C0D0C082C0839061E8
:101D3C0083E0A2E05009E5BFA2E0500375BFFEE0CE
:101D4C00A2E15009E5BFA2E1500375BFFDE0A2E29C
:101D5C005009E5BFA2E2500375BFFBE0A2E35009B6
:101D6C00E5BFA2E3500375BFF7E0A2E45009E5BF5D
:101D7C00A2E4500375BFEFE0A2E55009E5BFA2E570
:101D8C00500375BFDFE0A2E65009E5BFA2E65003A1
:101D9C0075BFBFD083D082D0D0D0E032C0E074F217
:101DAC0012189EE5A7A2E4500FE5A1A2E450095336
:101DBC00A7EF75A1EF121DFCE5A7A2E5500CE5A15C
:101DCC00A2E5500653A7DF75A1DFE5A7A2E15009F4
:101DDC00E5A1A2E1500375A1FDE5A7A2E2500CE537
:101DEC00A1A2E2500653A7FB75A1FB7F010218FDCF
:101DFC0074F81217B27521019003C2E064067007E3
:101E0C007A007B00120D55A2AFE433FED2AF9003E3
:101E1C00C8E0640170187A207B009003C1E0F912CD
:101E2C0011217A207B009003C1E0F91210A9906176
:101E3C0082E0D2E6F090055BE0602185C622801638
:101E4C009003C7E064017008E5C654F84405F5C674
:101E5C0053BEFC121C1C7401652160E4EEA2E092DE
:101E6C00AF7F0102185E00008E238F2485822885A7
:101E7C008327851882851983E0CEA3E0CF8528823D
:101E8C00852783EBC9EAC8EDCBECCA75F010C3E823
:101E9C0033C8E933C9EA33CAEB33CBC3EA9EF52620
:101EAC00EB9FF525B35004AB25AA26EC33CCED33D0
:101EBC00CDD5F0DAAE23AF242274F11217B28A0812
:101ECC008B098C0A8D0B740F121727780C1215AC1A
:101EDC00908FB77808121586908FB7780C121586EC
:101EEC007808790C1213BE50157808790C12155E0F
:101EFC00908F5778081213DE401579018013780CF7
:101F0C00790812155E908F57780C1213DE40EB791E
:101F1C00007F0802185E74ED1217B28A088B098CC8
:101F2C000A8D0B7413121727780C1215AC908FB7FF
:101F3C007808121586908FB7780C121586780C7964
:101F4C00081213BE40117808790C12155EAA08AB62
:101F5C0009AC0AAD0B8022751000751100751200CA
:101F6C007513017810790C12155E7810790812151A
:101F7C0025AA10AB11AC12AD137F0C02185E908F1A
:101F8C00B778081215AC8A828B8378081215997F62
:101F9C000402185E74F51217B28C828D83780812C5
:101FAC0015AC8A828B837808121572121FF4C3E069
:101FBC0098F0A3E099121FE6401E908FA3780812A8
:101FCC0015AC8A828B83780812154B8E828F83E036
:101FDC002420F0A3E0344EF080A4F08E828F83C3D3
:101FEC00E09420A3E0944E22EA2404F8EB3400F9A8
:101FFC00E8FEE9FF8C828D83A3A3A3A3E0F8A3E002
:10200C00F98E828F832274F51217B2E9FE900511B6
:10201C00E0FAA3E0FBEEC333F8E433F974D528F50A
:10202C0082748E39F583E02AF508A3E03BF5097834
:10203C0008121959908FA71215CA121E7474021225
:10204C0016F28A088B098C0A8D0B741078081214FE
:10205C00EDAA08AB097F0402185E74F11217B28A5C
:10206C000C8B0D8C0E8D0F740F121727E0FAA3E05A
:10207C00FB7411121727E0F508A3E0F5097413128D
:10208C001727E0FEA3E0FF7808121959EA2401F59E
:10209C0008EB3400F509E4F50AF50B780C79081215
:1020AC0013FD908F6378081215AC780C7908121315
:1020BC00FDAA0CAB0DAC0EAD0F121E7474021216F1
:1020CC00F28B09EA450960047A0180027A00EC2A55
:1020DC00FCED3400FDECF8EDF97A717B021216512F
:1020EC0088088909E4F50AF50B8E828F837808122B
:1020FC0015BBECF8EDF97A717B021216518A088B3C
:10210C0009740578081216C98E828F83A3A3A3A322
:10211C00E508F0A3E509F07F0802185EC082C083D1
:10212C00E9906000F0D083D08222C0E074F21218E3
:10213C009EA2AFE433FED2AFE589A2E0400CE58964
:10214C00A2E14006E589A2E45003121265758900EC
:10215C00758900758900C2C5EEA2E092AF7F0102BD
:10216C0018FDC0E074F212189EA2AFE433FED2AF99
:10217C00E58AA2E25003121265758A00C2EB80D880
:10218C00C0E0C0D0E8C0E0E5A8D2AFC2C7A2E792D9
:10219C00AFD0E0F8D0D0D0E032020122FFFFFFFF39
:1021AC00FFFFFFFFC082C083E9900A00F0022434D5
:1021BC0074F7121746E99002E0F07C187D037AFF61
:1021CC007BFF12084B9002E174FFF0A3F0A3E4F044
:1021DC00A3F079051207D39002E0E0F91206FB7A1E
:1021EC00697B08120A3102314274F41217468A08CC
:1021FC008B09EB548060309002E0E0F912108B8A6E
:10220C000A8B0BAE0AAF0BEE4F60138E828F83E0FE
:10221C0064B070031207EBEEFAEFFB121079AA0808
:10222C00E5096480FB80047A007B0002240374F2CD
:10223C0012174674FC1216DCEAFEEBFF741212172E
:10224C0027123629EE4F70030222DD740212172773
:10225C00EEF0A3EF12263EECF0A3ED12263EAA827E
:10226C00AB831206F5E9F50A706AE5084509606466
:10227C008E828F8312360FEE4F60567A067B0012D9
:10228C0010DF8A0C8B0DA80CA90DE8497005750A96
:10229C0013804188828983E41222EAEEF0A3EF12C4
:1022AC00363AE508F0A3E509F09002E612237190A6
:1022BC0002E670051230EC801B1230DA8003EAFC67
:1022CC00EBFD8C828D8312237170F38C828D838055
:1022DC00E3750A02A90A74041216F2023829F0A353
:1022EC001235E0A32274F2121746890AE975F01729
:1022FC00A4FEAFF09002E5E4F09002E312237160CB
:10230C000A1210E59002E3E4F0A3F0EEFAEFFB12F0
:10231C0010DF8A088B09EA4509602FEEFCEFFD7986
:10232C00001210679002E3E508F0A3E509F07B00CA
:10233C00800812235BE4F0A3F00BEBC3950A40F288
:10234C00E50A9002E5F0790080027913023829EB56
:10235C0075F017A4F8A9F09002E3E028FAA3E0398D
:10236C008A82F58322122D7EEA4B2274F4121746D0
:10237C00740C121727123604FEE9FF750800750954
:10238C0000800CE5082401F508E5093400F509C3C3
:10239C00E5089CE5099D503285080A85090B7403F4
:1023AC00780A1216C9EA250AF8EB350BF9888289E6
:1023BC0083A3A3A3A3A3A31231C1EE650A7003EFF9
:1023CC00650B70BFE8FAE9FB80047A007B0080277C
:1023DC0074F41217467900EAA2E0501B75083C759C
:1023EC00098F78081219597C047D007A027B0A1235
:1023FC0007CD74021216F27F04021818C082C08333
:10240C009002E612243B601C88828983A3A3E06AB5
:10241C007003A3E06B8882898370E8A3A3A3A31243
:10242C002D7A80047A007B00D083D08202012212A4
:10243C00390FE8492274EE12174674FC1216DCEAC6
:10244C00FEEBFF851882851983E4F0A3F0EE2402DD
:10245C001230CCEE24051235E7EE2404F50EEF1203
:10246C0029F3E024FE603924FC604624FE605224EB
:10247C00FE605E24FE700302255424FE70030225C8
:10248C00B824FE70030225C724FE70030225D6244F
:10249C00FC70030225E524FE70030225F4022631AC
:1024AC009002FF7417F0A3E412264612047302265E
:1024BC0031851882851983AC82AD831207F102260F
:1024CC0001851882851983AC82AD831207F7022629
:1024DC0001850C08850D097402121727AC82AD8397
:1024EC00850882850983122D7A1207198A0C8B0DA7
:1024FC00AC0CAD0DEC4D603BE4F50CF50D780C120D
:10250C001959750CFF750D02780C121959750C00C0
:10251C00750D03780C1219597408121727121970BB
:10252C00123A8B1216F2E9F50C700B122D70120484
:10253C008B800F750C018508828509831226341255
:10254C0030EC850C080226047402121727AC82ADFD
:10255C0083850C82850D83122B45603C850C82850E
:10256C000D83A3A31219707510FF75110278101248
:10257C001959751000751103781012195974081235
:10258C001727121970123A8B1216F2E9F509700B13
:10259C00122D70120491800F750901850C82850D26
:1025AC00831226341230EC850908804C85188285FC
:1025BC001983AC82AD831207FD803A851882851988
:1025CC0083AC82AD83120803802B85188285198316
:1025DC00AC82AD83120809801C851882851983ACE6
:1025EC0082AD8312080F800D851882851983AC8209
:1025FC00AD83120815E9F508E50860298E828F83F2
:10260C00A3E06414601F850E82850F83E09002FFA7
:10261C0012263E12390B9003001230ECE508A3127F
:10262C00264612046D022FDB12390F85188285198C
:10263C008322F085188285198322F07CFF7D028528
:10264C000A82850B83122D7E2274EE12174674FCBF
:10265C001216DC8A0A8B0B8C0E8D0FEA2405F508FA
:10266C00EB3400F5097C157D0079007AFF7B0212B2
:10267C001067E5082402F50CE5091235EA85188285
:10268C008519838582108583117810121959850854
:10269C0082850983A3A3A3A3122B3C121959E50825
:1026AC002405F510E5093400F51178101219598537
:1026BC000C82850D83122E9112071374061216F2DA
:1026CC008A108B11AE10AF11E50A2402F50AE50B46
:1026DC001230CFEE4F7003022813801774021217BA
:1026EC0027122D7A88828983EAF0A3EBF09002FFFF
:1026FC00E004F09002FFE0C394054003022813E4C9
:10270C00F510F51178101219597510E87511027839
:10271C00101219597510E9751102781012195974A3
:10272C00061217271219707910EEFCEFFD123A8D74
:10273C001216F2E9705E850882850983A3A3A3A310
:10274C00A3A3A3E0F89002E8E0687048122B3C12B7
:10275C0019597CE97D02E5082408FAE5093400FBE7
:10276C0012106174021216F2E960298E828F83A313
:10277C00A3A3A3122D7A9002FFE0F5107402781037
:10278C001216C974002510F58274033511F583EA0D
:10279C00F0A3EBF074021217278582108583117851
:1027AC00101219597402121727121970850C828590
:1027BC000D83122DA01216F28A108B11AE10AF11D0
:1027CC009002FFE0F510751100740278101216C912
:1027DC0074FF2510F874023511F988828983A312CD
:1027EC00237170030226DFE82403080808E934008B
:1027FC00F9EE4F60030226E88882898374FFF0A308
:10280C00F09002FFE004F09002FFE0600A122D70DD
:10281C0012047F7900800B8508828509831230E3CE
:10282C00790A022FDB74EA12174674FE1216DC8C3E
:10283C00128D13EA2405F50CEB123A75123613754A
:10284C000800750900EA2402F510EB3400F5118537
:10285C00188285198385820A85830B780A12195987
:10286C00850C82850D83A3A3A3A3122A09121959DF
:10287C00E50C2405F50AE50D1230CF780A1219592A
:10288C00850C82850D83122A0D12071374061216FD
:10289C00F28A0A8B0BEA450B70030229AEEA240478
:1028AC00F50EEB1229F31236138A828B83A3A3A3A2
:1028BC00E0F9851082851183122D8460030229AE04
:1028CC00E4F514F51578141219597514E8751502F8
:1028DC0078141219597514E97515027814121959CE
:1028EC0074061217271219707913AC0AAD0B8510E8
:1028FC0082851183123A931216F2E9F509600302EC
:10290C0029AE9002E8E0F8E5087009E02402900393
:10291C0000F08014900300E0FCE82402FAE4340098
:10292C00FBEA6C7001EB707E850882AA82122B3355
:10293C009414122B2B506B850E82850F83E0C0E014
:10294C0074012A1229EAD0E0F00508850E82850F61
:10295C0083A3E0C0E085080A7401250A1229EAD095
:10296C00E0F005089002E8122A091219597CE97D59
:10297C000285080A7401250A1229FD1216F290022A
:10298C00E8E02508F50874FF6E700374FF6F6012A1
:10299C00EE24010EEF3400FFE508C394145003023B
:1029AC00285BE5086013122D8E8510828511831229
:1029BC002D7A12048579008014E509700375090AD3
:1029CC00851282851383EEF0A3EFF0A9097402122D
:1029DC0016F27F0E02181885080C7401250CF5826E
:1029EC0074033400F583223400F50F850E82F583D1
:1029FC0022FA74033400FB12104F7402221236496F
:102A0C0022A3A3122A13221230DAFDEEFAEFFB22D4
:102A1C0074EE12174674FE1216DC8C0E8D0FEA241F
:102A2C0005F50CEB1235EA750B009002FFE4F0F59E
:102A3C000AEA2402F508EB3400F50980449002FF01
:102A4C00E0FA9002E8E0F8122B339417122B2B408B
:102A5C000D9002FFE0F87416C3989002E8F0122B68
:102A6C003C1219597CE97D0274002AFA7403122A6B
:102A7C00001216F29002E8E0F89002FFE028F00550
:102A8C000AE50C2416F582E50D1229EEE0F8E50AAC
:102A9C00C39850749002FFE0C39416506BE50AC3C0
:102AAC0033F8E433F9E50C28FEE50D39FF8518827F
:102ABC00851983AC82AD838E828F83122B4570086F
:102ACC00750B011230DF8050E4F510F511781012FF
:102ADC0019597510E875110278101219597510E909
:102AEC0075110278101219597406121727121970E1
:102AFC007916850882850983123A931216F2E9F544
:102B0C000B7003022A4980BB7CFF7D0285088285FD
:102B1C000983122D7A120497A90B7402022FDDE996
:102B2C009400C365D03322EA28F8E43400F9E82293
:102B3C00E0F510751100781022122FD28A108B112B
:102B4C00AC10AD11EC4D2274EA12174674FC12163F
:102B5C00DC8A0C8B0D8C128D13EA2405F50AEB1212
:102B6C0030CF750800750900E50A2402F510E50B55
:102B7C003400F511740212172785820E85830F78A5
:102B8C000E121959850A82850B83A3A3A3A31235B0
:102B9C00EF121959E50A2405F50EE50B3400F50F73
:102BAC00780E1219598510828511831230D5122D89
:102BBC007412071374061216F28A0E8B0FAE0EAF38
:102BCC000FE50C2402F50EE50D3400F50F80388866
:102BDC0082898374FFF005081229E374FFF005085D
:102BEC009002E8E0F50C750D00780C1219597CE98F
:102BFC007D0285080C7401250C1229FD1216F29029
:102C0C0002E8E02508F508EE4F60278E828F83A33B
:102C1C00A3A3E0F9850E82850F83122D84EE240484
:102C2C001235E7E96027850C82850D83122D66121B
:102C3C0030ECE5087003022D4C122D8E850E82852A
:102C4C000F83122D7A12049D7900022D61E4F51484
:102C5C00F51578141219597514E8751502781412B3
:102C6C0019597514E975150278141219597408124A
:102C7C0017271219707911EEFCEFFD850E82850F66
:102C8C0083123A931216F2E9F509709A850882AA12
:102C9C0082EA9002E87009E02404900300F0802599
:102CAC00E0F8900300E0F514E82404FCE43400FDA3
:102CBC00EC65147001ED7081122B339412122B2BD6
:102CCC004003022C45850C82850D83E0C0E0740125
:102CDC002A1229EAD0E0F00508850C82850D83A321
:102CEC00E0C0E01229E3D0E0122DA985820C858387
:102CFC000D780C12195974041217271219708510BB
:102D0C0082851183122DA01216F28A0C8B0DAE0C3B
:102D1C00AF0D85080C7401250CF874033400F9EE22
:102D2C004F7003022BDB851882851983E08882891A
:102D3C0083122DA9A3E0C0E01229E3D0E0022BE915
:102D4C00E509700375090A850A82850B83122D66C5
:102D5C001230ECA90974040229DB12390F85128296
:102D6C00851383227CFF7D02850A82850B83122DBD
:102D7C007E22E0FAA3E0FB22122D7E120701E9F578
:102D8C000922900300E0F5F0E508849002FFF07C46
:102D9C00FF7D0222122A1312071F740422F0050869
:102DAC008518828519832274EC12174674FE12164C
:102DBC00DC8A088B098C0E8D0FEA2405FEEB34009F
:102DCC00FF122FBCEE24181235E7EA450B700302F4
:102DDC002E5F122FA55029122E848A108B11EA45D2
:102DEC0011606B7912AC0AAD0B85088285098312D0
:102DFC002D7A851082851183121731E9F50A7058E6
:102E0C00E4F50AF50B780A1219598E828F83A3A365
:102E1C00E0F50A780A121959EE24031230CC780A1C
:102E2C001219598E828F83122E9112083974061240
:102E3C0016F2E9F50A7021850C82850D83E0701F6E
:102E4C00850882850983122D7A1204A38011750AD4
:102E5C000E8009750A018004E50A60031230DF85D3
:102E6C000C82850D83E0600479008002A90A74024B
:102E7C001216F27F0C021818851882851983122DF0
:102E8C007E120827221230DAFD850882850983120A
:102E9C002D7E2274EE12174674FE1216DC8A088BF5
:102EAC00098C0C8D0DEA2405FEEB3400FF750E0029
:102EBC00122FBCEA450B7003022F83122FA5502C46
:102ECC00122E848A0E8B0FEA450F604A7912AC0AD7
:102EDC00AD0B850882850983122D7A850E82850FAC
:102EEC0083121731E9F50E6003022F86850882855F
:102EFC0009831231C1AA0AFB122F9770147AFF7B37
:102F0C00FF122F97606C88828983E50AF0A3E50B8A
:102F1C00F0750A008007750E0E805F050A9002E5B9
:102F2C00E0FAE50AC39A504AE50A75F017A4FAAB21
:102F3C00F088828983A3A3E02AFAA3E03BFB8A8270
:102F4C008B831230D5EC4D70D2750A17750B007847
:102F5C000A121959EEFCEFFD12104F74021216F200
:102F6C00EEFCEFFD850882850983122D7A1204A9E7
:102F7C008014750E098003750E01123907850C82B9
:102F8C00850D831230ECA90E022B2612081B8A1019
:102F9C008B11A810A911E84922E5082402F508E5CF
:102FAC00093400F5098A828B83A3A3A3E0A2E5224E
:102FBC00851882851983AC82AD838E828F83122F04
:102FCC00D28A0A8B0B22E0FAA3E0FB1207192274B7
:102FDC00041216F27F0A02181874EC1217468C10A1
:102FEC008D11EA2405F50CEB1235EA750F00EA2475
:102FFC0002F50AEB1230CF850A82F583122D7A1274
:10300C003B1970030230C1750E008071850C8285EE
:10301C000D83E06401704F8E828F83A3A31219700D
:10302C008E828F83A3A3A3A3E0F5127513007812ED
:10303C00121959EE2405F512EF3400F5137812121B
:10304C001959122D7412083974061216F2E9F50F7B
:10305C006014850C82850D83E4F01239078510828B
:10306C008511831230EC7C177D007900EEFAEFFBB2
:10307C001210678E828F83E4F0A3F0050E9002E5A8
:10308C00E0F8E50EC398501EE50E75F017A4F8A9EC
:10309C00F0850882850983A3A3123A7F1230D5EC00
:1030AC004D600302301885088285098374FFF0A3F4
:1030BC00F0E50F7006122D741204AFA90F022E7FCB
:1030CC00F50AEF3400F50B22A31230DAFD22E0FCF6
:1030DC00A3E0228E828F8312390F850E82850F8397
:1030EC00E8F0A3E9F022C082C0839002E1E06A70AC
:1030FC0003A3E06B70067AE17B0280047A007B000C
:10310C0002243474F71217467F00EF75F003A4F80D
:10311C00A9F0EC28F8ED39F988828983E06A70030C
:10312C00A3E06B7006E8FAE9FB800B0FEFC3940287
:10313C0040D87A007B007F0102181874F6121746EB
:10314C001236F870067A007B008007A3A3A3A312A3
:10315C002D7A0237B974F2121746E9FE740E121763
:10316C00271231C174101217271236298C828D83C5
:10317C00E06402703BA312390B88828983E0F50C62
:10318C00A3E0F9A80C7402687003742969702175A6
:10319C000C02750D00780C1219597808121959780F
:1031AC000A121959EEF912085D74061216F2800211
:1031BC007901023829E0F50AA3E0F50B2274E81234
:1031CC00174674FB1216DCE9851882851983F08A80
:1031DC00168B178C0E8D0F741F121727123629742D
:1031EC00211217271231C1742312172712361375A7
:1031FC0010008C828D83A3A3A3E0A2E4502A741D3B
:10320C00121727122E8A8A828B83E58245837003DC
:10321C000232D5790AAC0EAD0FAA16AB17121731C4
:10322C00E9F51060030232D8850E82850F83E064C5
:10323C0002600302358EA312390B8508828509833F
:10324C00A3858212858313E50E2406F50CE50F1277
:10325C0035EA88828983E0FAA3E0F9EA2400F514C0
:10326C00E439F51578141219E30100002801289DA2
:10327C00320700022874330328E43200299E3401FB
:10328C0029C63402296D3403299E3404292F358E26
:10329C0035EE4F703E850C82850D83123604FAE9AB
:1032AC00FB8A828B83E0850A82850B83123640125F
:1032BC0019598A828B83A31230DAFDAA08AB091242
:1032CC00104F74021216F2800375100EA9107405BB
:1032DC00023A6D75100B80F4EE4F70F7850A8285FB
:1032EC000B837401F0123619850882850983F07CF2
:1032FC00007D00850E82850F83A3A3A3A3E0240188
:10330C00FAA3E03400FB120719EA4B60418A828B66
:10331C0083E02402F8850A82850B83E028F0EA24F6
:10332C0004F8EB3400F988828983E08512828513D6
:10333C00831236521236401219598A828B831230FC
:10334C00D4E5082403FAE5093400FB0232CB850AE4
:10335C0082850B83E02404F07C047D007900AA12A2
:10336C00AB131210670232D8EE4F60030232DF1239
:10337C003619FEA3E0FF850A82850B837404F0EEF8
:10338C00850882850983F0EF851282851383F0749A
:10339C0003121727AC82AD83EEFAEFFB1236E67000
:1033AC000302344A8A828B83A3A312360F74011250
:1033BC00172785820E85830F780E12195974051202
:1033CC0017271219707CFF7DFF12071F7404121649
:1033DC00F28B0FEA450F7033850C82850D83123505
:1033EC00EF121959850C82850D83A31219707C027A
:1033FC007D007ADC7B8F12054B74041216F2E97097
:10340C000A740112172774FFF0A3F08E828F83E0E9
:10341C0064027034750C02750D00780C1219598EFB
:10342C00828F831230D4E5082404FAE509122A00AD
:10343C001216F2850A82850B83E02402800974013E
:10344C00121727EEF0A3EFF07401121727123600B3
:10345C00F07401121727A31235F8A3A3A3F00232BC
:10346C00D8EE4F60030232DF850C82850D8312305B
:10347C00D5AA16AB17120851850A82850B837402E4
:10348C00F0EA850882850983F0851282851383EB27
:10349C0080CBEE4F60030232DF123619F8A3E0F94D
:1034AC00850A82850B837402F0E88508828509837E
:1034BC00F0E985128285138380A3850C82850D83A8
:1034CC00122D7A121049EAFC8C82A882C39EE49FCA
:1034DC00404BE86E7001EF70047C00801F851882F1
:1034EC00851983E0FAEE2AFAEF3400FBC3EA98EB75
:1034FC0094005003E08004EECCC39CFCEC850A8263
:10350C00850B83F08C0A750B00780A121959850CFF
:10351C0082850D83E02EFCA3E03F0232C6751007B6
:10352C000232D8EE4F60030232DF850C82850D83A8
:10353C0012390B850A82850B837407F08882898384
:10354C001235F81235E0E0851282851383F0E824F9
:10355C0002FAE93400FB8A828B831235F812363179
:10356C00123600A312363A123609F0E82405F8E9AF
:10357C003400F988828983123609A3123652A302C9
:10358C003466741D1217271236F170030232D512ED
:10359C00390B880C890DE8450D70030232D58E105D
:1035AC008F117810121959780A12195978081219B2
:1035BC00597406121727E0F9AC0EAD0FAA16AB170B
:1035CC00850C82850D8312173174061216F2E9F5FB
:1035DC00100232D8F088828983A322F50CEF3400D4
:1035EC00F50D22E0F50E750F00780E22E0850882AD
:1035FC00850983221236592212390FE822123659C4
:10360C00A3A322A3A3A3A3E0FEA3E0FF22850C8225
:10361C00850D83E0F8A3E0F5838882E022E0F508CD
:10362C00A3E0F50922A3A3F08A828B83A3221222A2
:10363C00ECA3A322F08A828B8312364922E0F50A8E
:10364C00750B00780A221235E012365922E08508F3
:10365C0082850983A3A32274EE12174674FE1216F8
:10366C00DC8A0A8B0BECFAEDFB7414121727E0F5CD
:10367C0010A3E0F5117416121727E0FE7418121738
:10368C0027E0F50EA3E0F50F851882851983AC822F
:10369C00AD831236E6603E8518828519831236F1A9
:1036AC00602FA3A3123629E50845096024780E1271
:1036BC0019597810121959EEF9AC0CAD0DAA0AABC8
:1036CC000B85088285098312173174041216F28057
:1036DC0006790E80027901022B261207198A0C8BAF
:1036EC000DEA450D22122D7E1236F8221207E58ABC
:1036FC00828B83E58245832274F612174674FE1280
:10370C0016DC740C1217271236048518828519835F
:10371C00F07401121727E9F0E4F508F5097808129E
:10372C00195975080278081219597404121727854B
:10373C0082088583097808121959120839740612FF
:10374C0016F274021216F2806474F7121746EAFE2F
:10375C00EBFF89087C187D03120851EA5402600BB8
:10376C00A908EEFAEFFB12070D8002790102314233
:10377C0074F612174674FF6A700374FF6B701C7B2F
:10378C0000EB75F003A4F8A9F0EC28F8ED39F91268
:10379C0037BE0BEBC39402501480E61208218A0842
:1037AC008B09A808A909E84960031237BE7F0202F9
:1037BC0018188882898374FF1222EAE4F02274F6C6
:1037CC001217461208218A828B83E5824583600694
:1037DC00A3A3E0FA80027A007B0080D174F2121766
:1037EC00468A088B09ECFEEDFF740E121727E0F5E4
:1037FC000A12382E701CEEFCEFFD7AFF7BFF12389C
:10380C002E70047911801688828983E508F0A3E56F
:10381C0009F088828983A3A3E50AF079007F060268
:10382C0018181208218A0C8B0DA80CA90DE8492236
:10383C0074EE121746EAFEEBFF8C088D09890C74A6
:10384C001212172712390B74141217271230D57451
:10385C0016121727122D7A750D00EC4D60030238E5
:10386C00FF7402650C60030238FA88828983123077
:10387C00DAF9EC2400F50EE439F50FEAF4F8EBF480
:10388C00F9EC58F8E50F59F9E849705DE50824069C
:10389C00F8E5093400F9880A890B8882F583122A25
:1038AC000F1208518A108B11E50E65107004E50F8C
:1038BC0065116042780E121959850A82850B8312A4
:1038CC002A0F12085774021216F2E9F50D702778B8
:1038DC000E121959850882850983A3A3122A0D1289
:1038EC00086F74021216F2800D750D808008750D2C
:1038FC000D8003750D0BA90D022FE08E828F8312A4
:10390C00390F22E0F8A3E0F92274E812174674E7A5
:10391C001216DC851882851983EAF0A3EBF08C165D
:10392C008D17890E7431121727E0F512A3E0F513E9
:10393C007433121727E0F514A3E0F515743512173C
:10394C0027E0F50F750800750900E50975F003A46B
:10395C00F8A9F0851882851983123A7FE0F4700378
:10396C00A3E0F47003023A5DEE2402F50CEF123A78
:10397C0075E07003023A5D85160A85170B780A12FA
:10398C001959AC14AD15AA12AB131207D974021243
:10399C0016F28A0A8B0BEA450B7003023A5DE4F5CA
:1039AC0010F5117810121959740612172785821008
:1039BC0085831178101219597409121727858210F2
:1039CC008583117810121959851282851383A3A34C
:1039DC00A3A31219707914AC0AAD0B8E828F8312CB
:1039EC003A931216F2E97069850A82850B83A3A3B8
:1039FC00A3A312390B74021217271230EC850C8218
:103A0C00850D83E0A2E05018A90E7402121727ACA2
:103A1C0082AD838E828F83122D7A120731E9420890
:103A2C00850C82850D83E0A2E15026E50FF50A781E
:103A3C000A12195DA90E7403121727AC82AD838E7E
:103A4C00828F83122D7A12072B74011216F2E9421F
:103A5C00080509E509C394025003023956A90874F4
:103A6C00191216F27F100218183400F50D850C820D
:103A7C00F58322E028FEA3E039FF8E828F83227922
:103A8C0016850A82850B83122D7E12083374082248
:103A9C0074F2121746EAFEEBFF890B7401650B609A
:103AAC000E7402650B70637901120A4FE9705BEEBC
:103ABC00FAEFFB123B196047750A00800B7C177DEF
:103ACC00007900121067050A9002E5E0F8E50AC3D8
:103ADC00985021E50A75F017A4F8A9F0850882859D
:103AEC000983A3A3E028FAA3E039FB8A828B831213
:103AFC00243B70C985088285098374FFF0A3F07C90
:103B0C00187D03EEFAEFFB12084B02382912081B42
:103B1C008A088B09EA45092274F21217468A088B27
:103B2C0009ECFEEDFF740E1217271231C1900A003A
:103B3C00E0F4603D7A097B00121073EA4B60328A24
:103B4C00828B8374B1F0A3E4123633A3123631A303
:103B5C00E508F0A3E509123B80EEF0A3EF123B80E1
:103B6C00A3A3E50AF0A3E50BF0900A00E0F912100C
:103B7C007F023829F08A828B83A3A3A3A3A322C03C
:103B8C0082C0839061907404F0A37448F0A3E4F0B5
:103B9C009061807440F09061BC7407F09061877400
:103BAC0069F09061B67416F07900120B4579021227
:103BBC000B4B9021A8E493F46006E493F9120B21CB
:103BCC007905120E33023F96C082C083E9540FF977
:103BDC00906185E0696012E5C654804449F5C6E5FC
:103BEC009E547F644970F8E9F053C680E59E547F7B
:103BFC0070FA023F9674F7121746E5A8FE53A87E9A
:103C0C00120B2DC2BA539AFEC289759B00C2C21206
:103C1C000B3375A91175B905120B39D2BA439A0138
:103C2C0074805E42A8024524C082C083906181E406
:103C3C00F0A3023F9375E90075910075BF00020176
:103C4C0022C082C083906181E4F0A374C0F0A3E42D
:103C5C00023F95C082C08374F81216DC9003C41224
:103C6C004406E8497003023D169003C4E0544060DA
:103C7C00237908851882851983AA82AB83120C35A7
:103C8C00851882851983AA82AB831208E19003C43C
:103C9C00E054BFF0E054806010790C7A7D7B051203
:103CAC000C359003C4E0547FF0E0A2E0500879009A
:103CBC00123D1E54FEF0E0540260087901123D1EC4
:103CCC0054FDF0E0540460087900123D2954FBF0D7
:103CDC00E0540860087901123D2954F7F0E05410C3
:103CEC0060087902123D2954EFF0E0542060087905
:103CFC0003123D2954DFF0A3E05401600D120B5761
:103D0C001208F39003C5E054FEF074081216F20288
:103D1C003F96120B451208E79003C4E022120B4B9E
:103D2C001208ED9003C4E022C082C083E960051440
:103D3C00602A804F90619A7433F0A37455F09061AF
:103D4C00A0743AF0900559E064017009C291900397
:103D5C00C67467802D9003C67461802690619A7436
:103D6C003FF0A3745AF09061A0747FF0900559E075
:103D7C0064017009D2919003C6747180059003C6DA
:103D8C00746AF0023F96C082C083E9600B14600D28
:103D9C0014600F14601180209021AC80159021AD1F
:103DAC0080109021AE800B900559E0640160F39077
:103DBC0021AFE493906186F0023F9674EE121746A1
:103DCC0074F41216DC851882851983AC82AD837568
:103DDC00838F7582AF74041215EF9021AC93F4604D
:103DEC0003023F59907808E0C394025003023F3914
:103DFC007404121727AC82AD8375838F7582167489
:103E0C00081215EFF97AFF7BFF7FFF7E0089828510
:103E1C008210801874086E7003023EEE74096E7086
:103E2C0003023EEE740A6E7003023EEEE510C333DD
:103E3C00FCE433FD7404121727E5822CF582E5832C
:103E4C003DF583E0F50EA3E0F50F8E0875090074BF
:103E5C000278081216C974482508FC74783509FDD7
:103E6C008C828D8378081215AC740878081214EDC6
:103E7C0085080C85090D8C828D8378081215AC741D
:103E8C001878081214EDE50C4508F508E50DF50950
:103E9C00C3E50E9508E50F95098C828D8378081281
:103EAC0015AC8C828D8378081215AC741878084088
:103EBC00141214EDE50C4508FCAD0DE50EC39CFC8D
:103ECC00E50F9D800F1214EDE50C4508C3950EFC13
:103EDC00E50D950FFDC3EC9AED9B5006ECFAEDFB4E
:103EEC00EEFF0EEEC394135003023E2074FF6A7073
:103EFC000374FF6B602D8F08740278081216C97456
:103F0C0048124BB274783509F58378081215AC85D4
:103F1C001882851983E5822510F582E58312493FC5
:103F2C00E508F009E9C394045003023E1175080139
:103F3C0075090078081219597402121727AC82AD52
:103F4C00837A6B7B0812124774021216F2740C12ED
:103F5C0016F27F0A021818C082C08390618674D54D
:103F6C00F09061AE7468F0A3746AF090624574FBD3
:103F7C00F0A304F053F4FD43FE029005597401F0D4
:103F8C007900120B458003F0A3F0D083D08202019C
:103F9C0022C082C08375E1F190050EE0604E146082
:103FAC000814605214604A8052120B63900504E0AE
:103FBC00F97A057B05120DB5908F9F1215CA120D5B
:103FCC00EB908FBB1215CA120DC190050FE0F912C0
:103FDC000DCD7901120E27900502E0241612412C0A
:103FEC00747BF0A3740BF07900023F96120B69807E
:103FFC00BB120B6F80B6120B7580B1791280EA740C
:10400C00F412174675D90D9004F4E0A2E0E43313D2
:10401C0013F8124098484401F5D978001241164023
:10402C00FB7800880874F5124BB2740412412040DE
:10403C00F275E1959004F4E0F97AF57B04120DBB6E
:10404C00900A2274F7F0A3740A12413B12415B12DE
:10405C0041521242931240A278081215AC908F77FD
:10406C007808121538908FB77808121586124126E9
:10407C0078081215BB900502E0241412412C74131D
:10408C00F09003C27402F07F04021818900504E04B
:10409C00C4333354C022900502E0F8A3E0F58388C2
:1040AC0082A3A32274F61217461242648AD97800AE
:1040BC0012411640FB780080061241CA124316E8E2
:1040CC00C39940F512425612411640FB7800800805
:1040DC00124BAE7405124316E8C39940F375E19583
:1040EC00900A227403F0A3740B12413B1241451247
:1040FC0015CA1241261215D6900502E0241412415D
:10410C002C7412F09003C20245018808740525082E
:10411C00F5827405124472940622900502E0240E76
:10412C00F8A3E0124133223400F9888289832212E9
:10413C00427C74FDF0A3740A2212415B12415212AC
:10414C004297908FA322F0A37415F0A3740B221244
:10415C00415F2212416322F0A374A1F0A3740C22DC
:10416C0074F61217461241BF1240984402F5D978E2
:10417C000012411640FB780080061241CA12431609
:10418C00E8C39940F575E195900A221241D5F0A348
:10419C001241D51241481215CA1241261215D69059
:1041AC000502E0241412412C7414F09003C2740420
:1041BC00024503900514E0F9740729F5D922880803
:1041CC0074152508F582740522740F1241E2124110
:1041DC00E2F0A3740B22F0A3740BF0A3740F2274FF
:1041EC00F612174612426474064AF5D97800124149
:1041FC001640FB780080061241CA124316E8C39998
:10420C0040F512425612411640FB78008008124BC2
:10421C00AE7405124316E8C39940F375E195900A04
:10422C00227409F0A3740B1242721241451215CA82
:10423C001241261215D6900502E0241412412C745A
:10424C0015F09003C274030245039005341241C269
:10425C0074044AF5D97800221241BF900504E0C4D9
:10426C00333354C0FA2212427C74A1F0A3740C2292
:10427C001242802212428D74A1F0A3740C12428D52
:10428C0022124163F0A32212429722F0900A30745A
:10429C00A1F0A3740C12428074A1F0A3740C12410F
:1042AC005FF022C082C0831240A2A3A3A3A3E402A6
:1042BC003F9374F7121746124DF4F8740339F9E86A
:1042CC002405FAE93400FB8A828B83124B638882C3
:1042DC008983A3A3A3A3A3A3A3A3A3ECF0A3EDF0AF
:1042EC0088828983A3A3A3A3A3A3A3E024FFF8A399
:1042FC00E034FFF98A828B83E8F0A3E9F0024524CD
:10430C008808745D2508F5827405124A8AF5D90867
:10431C0022EAFEEBFF9061D0E0F87480C398FAEECD
:10432C0024832212433594042212494DE0F5D90A14
:10433C00EAC32274F6121746EAFEEBFF9061D0E056
:10434C00707575D90E75D90375D9047A008A08EE83
:10435C002508124EC2248C1243D840F17A008A08E8
:10436C00EE2508124EC2248412432F40F175E195BC
:10437C007908EE248C1243D124841243C87C008C1F
:10438C0082AA82C3E49AF895E0F9EE28F8EF39F99D
:10439C00E8248BF582E9124A86C0E0EE2A124EC25E
:1043AC0024ABF582E912493FD0E0F00CECC3940841
:1043BC0040CD12448E80027900024504FAEF34009D
:1043CC00FB120C29221243C87904EE2212433594B5
:1043DC000822C082C08375D90275D90375D90575B9
:1043EC00E195EA2470F582EB124403EA2472F5821B
:1043FC00EB1244A0023F9612495012440A22E0F8F4
:10440C00A3E0F92274F6121746EAFEEBFF90055D65
:10441C00740612447C1219597C0179031247A812B4
:10442C0016F275D90675D903780012446240FB75F3
:10443C00E1959003C2E064087017EE2470F582EFEA
:10444C00124403EE2472F582EF12493FE8F0A3E91F
:10445C00F079010245048808745D2508F58274051D
:10446C00124472940522124950E0F5D908E8C3228F
:10447C00F075085D75090578082275E195790412C7
:10448C000DF1EE2470F582EF12495012440AEE241D
:10449C0072F582EF124950E8F0A3E9F07901227429
:1044AC00F6121746EAFEEBFF9061D0E070437901FB
:1044BC0090055D740BF09003C2E0640770177508EB
:1044CC005D75090578081219597C0109091247A86C
:1044DC001216F27905740129F5D975D90378008083
:1044EC000312430CE8C39940F875E19512448E8091
:1044FC0002790080037401F07F0202181874F7121D
:10450C001746EAFEEBFF75D90375D90375D90DEE85
:10451C0024DE1245291244867F01021818F582EF19
:10452C00124A8AF5D9227F030218187401250AF55C
:10453C00D975D90378002274F51217461245B86064
:10454C0004780480027800E8240BF8EAC398404110
:10455C00750A0990055D7409F079081245A160147B
:10456C0075085D75090578081219591247A01216BD
:10457C00F2750A0D124537800312430CE8C3950AF5
:10458C0040F775E1957904120DF112471D79018000
:10459C000279008091EE24E3FCEF3400FD7A5E7B1F
:1045AC0005120C23850882850983E02212431DF82D
:1045BC00EF124B57F583E02274F31217468A088BDF
:1045CC00091247B3FAE5082483F50AEB1246826018
:1045DC0004780480027800E82408F8EAC3985003B1
:1045EC0002467B750C0690055D740CF09003DFE0C1
:1045FC0090055EF07402C0E0F97CE07D037A5F7B8D
:10460C0005120C23D0E0F97CE27D03120C23850A01
:10461C0082850B83E0601C750A5D750B05780A12A8
:10462C0019597C067903AA08AB091247A81216F28D
:10463C00750C0A7401250CF5D975D903780080091D
:10464C00880A745D250A124312E8C3950C40F17573
:10465C00E1957904120DF1E5082470F582E5091253
:10466C004403E5082472F582E5091244A08002791E
:10467C00007F050218183400F50B850A82F583E0DB
:10468C002274F6121746EAFEEBFF1247B3FCEE2437
:10469C0083F8EF1247AE60047A0480027A00EA24B1
:1046AC0004FAECC39A405E7A0290055DEAF0EE24BF
:1046BC00F5F582EF124729601975085D75090578C3
:1046CC00081219597C027903EEFA1247A81216F255
:1046DC007A0674012AF5D975D90378008003124340
:1046EC000CE8C39A40F875E195EE2474124716EE67
:1046FC00248012471612471D7904120DF1EE240D79
:10470C0012449180027900024504F582EF12489917
:10471C0022EE241DF582EF124899A3F022124A8A48
:10472C0090055EF088828983E02274F61217461297
:10473C0047B3FEEA2483F8EB1247AE60047C048096
:10474C00027C00EC2404FCEEC39C40437C029005EC
:10475C005D7407F0EA24F6F582EB124729601575B3
:10476C00085D750905780812195979031247A812C2
:10477C0016F27C0674012CF5D975D90378008003E8
:10478C0012430CE8C39C40F875E1957901800279DD
:10479C00000245047C097903EEFAEFFB120C9574C8
:1047AC000222124133E0229061D0E0F87480C39869
:1047BC002274F5121746E9FEA2AFE433F50AC2AF34
:1047CC007F00EA246FF8EB3400F980010F888289AE
:1047DC0083E0FCEFC39C50188F08EA2508FCEB34EF
:1047EC0000FDEC246BF582ED124A866E70DE8010B3
:1047FC00EA2CFAEB3400FB124939EE12472F04F085
:10480C00E50AA2E092AF02453274F6121746A2AF47
:10481C00E433FFC2AFEA246FF8EB124EC4FCE9FD9F
:10482C008C828D83E014F07E0080218E08EA2508AE
:10483C00F8EB124EC4246CF582E9124A86C0E0E80B
:10484C00246BF582E912493FD0E0F00E8C828D8307
:10485C00E0F8EEC39840D4EA246E12493C74FF127F
:10486C00488EEFA2E092AF024504C082C083E5A857
:10487C00F8C2AF124939E912488EE8A2E792AF02AA
:10488C003F96F0EA246AF582EB12489922124950BD
:10489C00E4F02274F21217468C828D83A3A3A3A397
:1048AC00E0541FF0EA2436124BFB8E828F83E4F027
:1048BC00F50C850C8285820AEC250AF8ED124B5317
:1048CC00F583E0C0E0EA250AF8EB124943D0E0F0AA
:1048DC00750D00850882850983E0F50A750B00E5E6
:1048EC000D780A1216AAE50AA2E0502AE50C333319
:1048FC003354F8250DC0E08E828F83E0F8EA28F857
:10490C00EB124EC42438F582E912493FD0E0F08E08
:10491C00828F83E004F0050DE50DC3940840B405C7
:10492C000CE50CC39405408A7F06021818EA246B28
:10493C00F582EB124950223400F9E8245D12494DFE
:10494C0022F582E93400F5832274F612174690039F
:10495C00ECE0640170077A007B00024A807E0090D4
:10496C0003F2E070F17401F0A3E4F0A3F0900452B0
:10497C0004F0900455E4F0A3F090045804F0900374
:10498C00F5E4124A979003FF04F0900425E4F090AC
:10499C008F7F1215CA9004081215D690040CE4F0FF
:1049AC00A3F0A3F0900470F0900464F09004597498
:1049BC0080F0A3E4F090045FF0900457F09004DBD7
:1049CC00124A8F9004E4F0900473F09004C3F0A3A7
:1049DC00F0908F7F1215CA9004C51215D6908F7F58
:1049EC001215CA9004C91215D69004CFE4F09004A5
:1049FC00D1F09004CDF09004E7124A8F8E08745BCE
:104A0C00124BB2740412493F74FFF00EEEC39404BF
:104A1C0040EA7E008E82A88274FB28F58274041210
:104A2C004A86C0E0744D28F582740412493FD0E0E8
:104A3C00F00EEEC3940540DC7E008E82A88274D604
:104A4C0028F5827403124A86C0E074D328F5827468
:104A5C000412493FD0E0F00EEEC3940840DC900302
:104A6C00ECE004F0640170089003F4E09003EEF0C5
:104A7C007AF07B03024504F582EF124A8A2212492E
:104A8C0050E022124A97A3124A9722F0A3F0A3F007
:104A9C00A3F022C082C083EA2403F582EB124A867B
:104AAC006008E4F09003EDE014F09003ECE014F0F7
:104ABC0070069003EE74FFF08A828B83A3A3E4F05C
:104ACC00900500E0700D9003EDE064017005790035
:104ADC00120DD3023F96C082C0839003F3E4F09092
:104AEC0003F2F09003ECF0A3F0A374FFF075E1F186
:104AFC00023F96C082C083780079009003F3E06097
:104B0C000478F0790388828983A3A3A3A3E0F90234
:104B1C003F9674F6121746EAFEEBFF120BDBEE24FF
:104B2C0065F8EF124B53124B61EC4D60109003EE95
:104B3C00124DEC850882850983E4F0A3F0EEFAEFC0
:104B4C00FB120CCB024504124B57223400F9880897
:104B5C008909888222F583E0FCA3E0FD2274F71218
:104B6C001746EAFEEBFF8E828F83A3A3A3A3E0FA82
:104B7C007B00120959EEFAEFFB120BED120CAD0291
:104B8C00452474F61217467800880874D6124BB276
:104B9C00740312471908E8C3940840ED9003D60239
:104BAC004501880874352508F5822274F6121746DB
:104BBC00EA240D124BFBEC2403F8ED3400F98808C1
:104BCC008909EC2407F8ED124EC4FCE9FD124C05E2
:104BDC001216518E828F83E8F0A3E9F0124C051265
:104BEC0016518B09EA45096003124C18024504F86A
:104BFC00EB3400F9E8FEE9FF228C828D8312440A23
:104C0C00850882850983E0FAA3E0FB228E828F83DC
:104C1C00E02401F0A3E03400F02274F6121746EA07
:104C2C00242EF582EB3400124B61EA2470124BFBFC
:104C3C00780079FAECFAEDFB1216518E828F83E82C
:104C4C00F0A3E9F0780079FAECFAEDFB1216518B2F
:104C5C0009EA45096003124C1802450474F0121756
:104C6C0046EAFEEBFF741012172778081215AC12E7
:104C7C000D858A0C8B0D8C0E8D0F908F6F780C120E
:104C8C001538908FB7780C121586780C1219558E32
:104C9C00828F831240A51215CA121EC574041216F7
:104CAC00F2E96003024D508E828F83E02402F8A358
:104CBC00E0124EC4FAE9FB8A828B83780812154BFA
:104CCC00908FB778081215AC8A828B8378081215EE
:104CDC0099EE240BF582EF12493FC082C0838E827D
:104CEC008F83A3A3A3A3A3E02401F8A3E03400F9CA
:104CFC00D083D082E0687003A3E0697004790180EE
:104D0C0045EE2407F8EF124133124C1CEE247412BA
:104D1C004EC97014EE2475124D577003A3E06D70DC
:104D2C00078A828B83124C1CEE2480124EC970149D
:104D3C00EE2481124D577003A3E06D70078A828BAD
:104D4C0083124C1C79007F08021818FAEF3400FB10
:104D5C008A828B83E0FCA3E0FD88828983E06C224D
:104D6C0074F3121746124DF4FE740339FFEE24044B
:104D7C00F50AEF3400F50BEE2465F508EF3400F579
:104D8C00098010124B63850882850983E4F0A3F037
:104D9C00124DE6850882850983124B63EC4D603019
:104DAC00EE2464124A83F50C780C12195DEE246320
:104DBC00124A83F9EEFAEFFB120C1774011216F279
:104DCC00E985088285098360BA124406E8497007B0
:104DDC007C007D00124DE602467D850A82850B83A0
:104DEC00E0FA7B00120917229003EEE0F875F0044C
:104DFC00A4C8AAF02AF974F0282274F2121746EA11
:104E0C00FEEBFF890A740E121727E0FAEE246212E9
:104E1C004EC96003024EBD1247B3F50CEE2483124B
:104E2C004A83FB60047804800278008908E928F83A
:104E3C00E4124EC424020808E93400F9E50C98E4A5
:104E4C0099A2D265D0334065EA7005750B028003D8
:104E5C00750B01EB603375090078081219597A5DEE
:104E6C007B05120C5F74021216F275085D7509054C
:104E7C007808121959AC0AA90B1247A41216F2742D
:104E8C0004250AF50A7C5D7D057401250AF5D98592
:104E9C000BD97800800A8808EC124BB2ED1243163D
:104EAC00E8C3950A40F075E1957900800679078092
:104EBC000279FF024934F8EF3400F9E822F582EF69
:104ECC00124A8A640122C082C0838003124F00E917
:104EDC00F874FF28190470F4ECFAEDFB023F96C04D
:104EEC0082C0838003124F00E9F874FF2819047004
:104EFC00F4023F968C828D83E08A828B83F08C82C5
:104F0C008D83A3AC82AD838A828B83A3AA82AB836D
:104F1C002274F4121746E9FF7E008A088B09780880
:104F2C0012199D00040DBA50504F6C4F814F964F83
:104F3C00AB4FC04FDC4FF54F0750355044506050CD
:104F4C007C509A5074016F70128C828D83E0C394E4
:104F5C00035008E0900AECF00250D87E180250D8AA
:104F6C0074026F70F68C828D831257FA900AEDE8FA
:104F7C00F0A3E980E274016F70E18C828D83E0C351
:104F8C00940250D7E090077E80CD74016F70CC8C6A
:104F9C00828D83E0C3940550C2E090077F80B87483
:104FAC00016F70B78C828D83E0C3940250ADE0909A
:104FBC00078080A374106F70A27508108E09780892
:104FCC001219597A817B07125BC51216F20250D85E
:104FDC0074016F70868C828D83E0C394024003024F
:104FEC004F67E0900791024F6374016F6003024FAB
:104FFC00678C828D83E0900AF0808D74046F60035F
:10500C00024F67908FA778081215AC8D838C82782D
:10501C00081213CE4003024F678C828D831215CA7F
:10502C009007931215D60250D8EF6003024F671207
:10503C0011D51211C90250D874016F6003024F6769
:10504C008C828D83E0C394024003024F67E090078B
:10505C0092024F6374016F6003024F678C828D83E1
:10506C00E0C3940A4003024F67E0900AEF024F63DB
:10507C0074016F6003024F678C828D83E024F9C347
:10508C00940A4003024F67E0900AF1024F637401E7
:10509C006F6003024F67900825E0F88C828D83E0E7
:1050AC00900825F0E87025E0640170208084C3EA44
:1050BC009424EB9400501374026F700E8C828D83C9
:1050CC00125805120557E9FE80020E0EEEF9025039
:1050DC00E2740E1216F27F0402181874F0121746BE
:1050EC0074CC1216DC8C0A8D0B7444121727E0FE5C
:1050FC007420121727AC82AD8375838F758224744C
:10510C00061215EF7420121727AC82AD8312117B97
:10511C00E9F508C3940A400302523F75F006E9A46E
:10512C00F5097426121727AC82AD837A0E742012FF
:10513C00528B7432121727E0FF900AECE064027075
:10514C000474018001E4F50D780D12195DEEFDEF8C
:10515C00FCA908AA0AAB0B1211FF74011216F27CFF
:10516C00147D007900740C121727AA82AB831210DD
:10517C0067740C121727AC82AD837A107424125208
:10518C008BE970347C1079FF740C12172712528241
:10519C007026741C121727AC82AD837A0474251206
:1051AC00528B740C121727AC82AD83EFA2E0E43360
:1051BC00F9AA0AAB0B1205E1851882851983AC821A
:1051CC00AD837A0C747025081258A270558518821C
:1051DC00851983AA82AB831211AB750800E508759B
:1051EC00F003A4F8A9F0851882851983E58228F8C4
:1051FC00E5831259E6125805EC4D601D88828983AF
:10520C00A3A3E0F50E750F00780E121959AA0AAB7C
:10521C000B12083F74021216F20508E508C3940439
:10522C0040BBEFA2E1500C90077DE0F9AA0AAB0B52
:10523C0012084574046E702A900AECE06402702225
:10524C00900791E060047A0180027A0090077EE07A
:10525C006004780480027800E84AF9AA0AAB0B12C1
:10526C0006A1790074341216F27F0802181879FF1F
:10527C00851882851983AA82AB831210C7E922256F
:10528C0009F91213012274F0121746EAFEEBFF8C97
:10529C00088D09750A0AE9600C14600914602E1453
:1052AC00607F0253381211BDE9F50AC3940A507C91
:1052BC00E50845096076750E06750F00780E121913
:1052CC0059EEFCEFFD125BC11216F2805F750B00FC
:1052DC00750E06750F00780E121959EEFCEFFDE5F0
:1052EC000B75F00EA4F8A9F0749F28FA740739FB1B
:1052FC0012106174021216F2E9601B850B0AE50AA2
:10530C00C3940A5027E50845096021AA08AB09A9EE
:10531C000A1211B78016050BE50BC3940A500D80C9
:10532C00AF1211C3E9F50AC3940A40D9A90A025273
:10533C007574F4121746890875091574FF6A7003A1
:10534C0074FF6B70277E00AC087A027B00EEF912BA
:10535C001199E960037509000EEEC3940A40E8E563
:10536C000860497AED7B11120A618040120A438A67
:10537C000A8B0BAE0AAF0BEE4F602E7C007D00EE5D
:10538C002405FAEF3400FB8E828F83125438500CB4
:10539C00AC087A027B00121199750900E508600CC3
:1053AC00EEFAEFFB1211ED8003750914A9090250F6
:1053BC00E274F2121746ECFEEDFF740E121727E0A2
:1053CC00F50AA3E0F50B75081574FF6A700374FFFA
:1053DC006B7021750900AC0AAD0BEEFAEFFBA90955
:1053EC0012119FE960037508000509E509C3940AC9
:1053FC00503580E2120A438A828B83E582458360B2
:10540C00237C007D00E5822405FAE5833400FB1241
:10541C0054385013AC0AAD0BEEFAEFFB12119F751A
:10542C0008008003750814A9080259AEA3A3A3A30E
:10543C00E0F912117BE9C3940A22C082C083900761
:10544C0097EAF0A3EBF090077DE0FC7D007A237BDC
:10545C000012055790077DE0F91207BBD083D0826C
:10546C0002012274EA12174674EC1216DC8A088BBD
:10547C0009EA240CF514EB3400F515EA240AF510AE
:10548C00EB3400F511EA2405F50EEB3400F50FEAC8
:10549C002409F50AEB3400F50BEA2403FEEB340087
:1054AC00FF8A828B83A3A3E024FA70030257CD24D6
:1054BC00FD70030256FD147003025558146010243D
:1054CC00FD70030256C91470030257300257D612EE
:1054DC00581D604AE0F58388821257FA880C890DB2
:1054EC00E8450D6039851482851583E0F50E780E3C
:1054FC0012195DEA240BF582EB3400F583E0F98593
:10550C000A82850B831258050A0A0AEFFB850C8266
:10551C00850D8312173174011216F20257D6850AC3
:10552C0082850B831219709007931215CA1205F31A
:10553C0074021216F2E970030257D67901850A82B9
:10554C00850B83125EC31205ED0257D68A828B83BC
:10555C00A3858212858313E060030256A1850E8217
:10556C00850F83E0A2E040030256A17C0E7D0079FA
:10557C0000851882851983AA82AB83121067E5080F
:10558C002408F50AE5093400F50B850A82F5831227
:10559C0058206019750C06750D00780C1219598578
:1055AC000A82850B83E02410FCA3E0801A1257EDCD
:1055BC00EA4B70030257D6750C06750D00780C1269
:1055CC001959EA2405FCEB3400FD7402121727AAC2
:1055DC0082AB83125BC51216F2850E82850F83E0B7
:1055EC00A2E25004D2F08002C2F0A2F0E433F874CC
:1055FC000C121727E048F085108285118312582071
:10560C006015851082851183E02410F8A3E0340026
:10561C00F9888289838003908FA3780C1215AC854E
:10562C001082851183125820600F8510828511839A
:10563C00E0F510A3E0F511800675100075110085DA
:10564C000A82850B83125820600F850A82850B8392
:10565C00E0F50AA3E0F50B8006750A00750B0078DF
:10566C000C1219557810121959780A1219598514F7
:10567C0082851583121970850882850983A31258B7
:10568C0000740A121727AA82AB831211B1740A1282
:10569C0016F21257E012581D70030257D612580B0F
:1056AC0070030257D6851282851383E0FC790112B0
:1056BC005EBF88828509831217310257D61257E0D4
:1056CC0012581D70030257D6E0F5838882A3A312EB
:1056DC0057FA890BE8450B70030257D6850882856B
:1056EC000983A3E0FC7902125EBF8882850B83805C
:1056FC00C67C007D00EA2404FAEB3400FB8E828F1A
:10570C0083E0F912117BE9F8C3940A40030257D6DF
:10571C00AC10AD117A0475F006E8A42425F9121228
:10572C00FB0257D6900792E0600C900AEFE0F98EDE
:10573C00828F8302554F900AECE07004790580EF5C
:10574C001257ED8A0C8B0DA80CA90DE82404F50C4E
:10575C00E93400F50D850882850983A3A3A3A3A3CF
:10576C00A3A3E0A2E05037E849605F850C82850D69
:10577C0083E0F5086028850A82850B83E05410705D
:10578C001D740E121727AC82AD83E82405FAE93498
:10579C0000FBA90812117BE9700479038091AC0E0F
:1057AC00AD0F850C82850D83E0F9125EBF1211F9E5
:1057BC0012581D601512580B60107C0079000256AF
:1057CC00BB1206B9E970031211C974141216F27FD8
:1057DC000E0218188E828F83E0FAA3E0FB12120BD4
:1057EC00228E828F83E0FAA3E0FB120A4322E0F8B8
:1057FC00A3E0F922A3A3A3A3A3E0FCA3E0FD22E072
:10580C00F5838882A3A3E0F8A3E0F98909E84509A8
:10581C0022900797E0F8A3E0F9E8492274F41217F4
:10582C004674F21216DCEAFE8C0B75F006E9A42421
:10583C0020F508851882851983AC82AD837A0E1207
:10584C0058A270407C0612527A7039740C121727C9
:10585C001257FAE8F509E50B6005EE42098004EEF3
:10586C00F45209850982AA82E86A7001E960117410
:10587C000C121727EAF0A3E4125E0CA9081212FB13
:10588C007901800279000250DDAC82AD837A0E750D
:10589C00F006E9A42420F9121301E92274F212177C
:1058AC004674E61216DC890A8A088B09ECFEEDFFB9
:1058BC00740C12172712589560030259627C0679F2
:1058CC00FF740C1217271252826003025962747013
:1058DC00250AF50B851882851983AC82AD837A0C69
:1058EC001258A260030259A7851882851983AA82CF
:1058FC00AB831211ABE508450970217C0C790012C1
:10590C00527C60030259A77C0C7D007900851882BB
:10591C00851983AA82AB83121067806185188285F2
:10592C001983AC82AD83AA08AB091211A58A0C8B22
:10593C000DA80CA90DE849702CEE4F601985188242
:10594C00851983AC82AD837A007B001211A5EAF82D
:10595C00EBF9EA4B70047900804388828983E5086F
:10596C00F0A3E509F0125A22FAEE6A7001EF602BEF
:10597C00EEF04F700888828983E4F0A3F0851882DA
:10598C00851983AA82AB831211AB85188285198382
:10599C00AC82AD837A0CA90B1212FB7901741A122A
:1059AC0016F27F0602181874F71217467F00EF756F
:1059BC00F003A4F8A9F0EC28F8ED1259E6E06A70AF
:1059CC0003A3E06B7006E8FAE9FB800B0FEFC394BE
:1059DC000440DB7A007B00025CB439F9888289834D
:1059EC002274F71217467E00EE75F003A4F8A9F0A6
:1059FC00EA28F8EB1259E6E0F4FCA3E0F4FD888207
:105A0C008983ECF0A3EDF0125A22F4F00EEEC3945D
:105A1C000440D5025CB4E82402F582E93400F58335
:105A2C00E02274EE12174674F41216DCEAFEEBFF59
:105A3C008C0A8D0B741E121727E0F50CA3E0F50DE4
:105A4C007420121727E0F508A3E0F5097422121749
:105A5C0027E0F510A3E0F511EE4F7005790A025B13
:105A6C00531211BDE9F50EC3940A4023750F007C47
:105A7C000679FFE50F75F00EA4FAABF074992AFACB
:105A8C0074073BFB1252867003025B5D850F0EE5BB
:105A9C000EC3940A4003025B5175F006E50EA4F5A3
:105AAC000FEEFCEFFD7A0E7420125B6EE50A450BCF
:105ABC00600BAC0AAD0B7A1B7421125B6EE50C45C6
:105ACC000D600BAC0CAD0D7A1B7422125B6EE508ED
:105ADC004509600BAC08AD097A107423125B6EE5B6
:105AEC00104511601BAC10AD117A107424125B6E52
:105AFC007424121727AC82AD837A047425125B6E62
:105B0C007C0C7D0079FF1261277A0C7470250EF9DC
:105B1C001212FB75080E7509007808121959EEFC63
:105B2C00EFFDE50E75F00EA4F8A9F0749928FA743F
